{
  "address": "0x12867215A6eCc37b41475c8596FD2416Eb135634",
  "abi": [
    {
      "inputs": [
        {
          "internalType": "address",
          "name": "_beacon",
          "type": "address"
        }
      ],
      "stateMutability": "nonpayable",
      "type": "constructor"
    },
    {
      "stateMutability": "payable",
      "type": "fallback"
    },
    {
      "inputs": [],
      "name": "beacon",
      "outputs": [
        {
          "internalType": "address",
          "name": "",
          "type": "address"
        }
      ],
      "stateMutability": "view",
      "type": "function"
    },
    {
      "stateMutability": "payable",
      "type": "receive"
    }
  ],
  "transactionHash": "0x0ad39b0e82a02d1c2bb4bbb75bcfd89adb07312e243ba086e4e73d6ecd62c4ac",
  "args": [
    "0x7f12499BCfcA8f054229BEb76053d62805A27420"
  ],
  "numDeployments": 1,
  "solcInputHash": "66f81f85fa58eb5ab3b4a52aa9c68636",
  "bytecode": "0x60a060405234801561001057600080fd5b50604051610383380380610383833981810160405281019061003291906100d2565b8073ffffffffffffffffffffffffffffffffffffffff1660808173ffffffffffffffffffffffffffffffffffffffff1660601b81525050506100ff565b600080fd5b600073ffffffffffffffffffffffffffffffffffffffff82169050919050565b600061009f82610074565b9050919050565b6100af81610094565b81146100ba57600080fd5b50565b6000815190506100cc816100a6565b92915050565b6000602082840312156100e8576100e761006f565b5b60006100f6848285016100bd565b91505092915050565b60805160601c610261610122600039600081816082015260aa01526102616000f3fe6080604052600436106100225760003560e01c806359659e901461003b57610031565b366100315761002f610066565b005b610039610066565b005b34801561004757600080fd5b50610050610080565b60405161005d91906101b2565b60405180910390f35b61006e6100a4565b61007e6100796100a6565b61014b565b565b7f000000000000000000000000000000000000000000000000000000000000000081565b565b60007f000000000000000000000000000000000000000000000000000000000000000073ffffffffffffffffffffffffffffffffffffffff16635c60da1b6040518163ffffffff1660e01b815260040160206040518083038186803b15801561010e57600080fd5b505afa158015610122573d6000803e3d6000fd5b505050506040513d601f19601f8201168201806040525081019061014691906101fe565b905090565b3660008037600080366000845af43d6000803e806000811461016c573d6000f35b3d6000fd5b600073ffffffffffffffffffffffffffffffffffffffff82169050919050565b600061019c82610171565b9050919050565b6101ac81610191565b82525050565b60006020820190506101c760008301846101a3565b92915050565b600080fd5b6101db81610191565b81146101e657600080fd5b50565b6000815190506101f8816101d2565b92915050565b600060208284031215610214576102136101cd565b5b6000610222848285016101e9565b9150509291505056fea26469706673582212202b7eb785bc44444d5b64e15d9fd079768d55f8970fcdea9e6529d4df5da9780d64736f6c63430008080033",
  "devdoc": {
    "kind": "dev",
    "methods": {},
    "version": 1
  },
  "userdoc": {
    "kind": "user",
    "methods": {},
    "version": 1
  },
  "storageLayout": {
    "storage": [],
    "types": null
  }
}