{
  "address": "0x82948DAF7F44F50E1CA3dEeCDA9921613D51b7E8",
  "abi": [
    {
      "inputs": [],
      "name": "Ownable__NotOwner",
      "type": "error"
    },
    {
      "inputs": [],
      "name": "Ownable__NotTransitiveOwner",
      "type": "error"
    },
    {
      "anonymous": false,
      "inputs": [
        {
          "indexed": true,
          "internalType": "address",
          "name": "previousOwner",
          "type": "address"
        },
        {
          "indexed": true,
          "internalType": "address",
          "name": "newOwner",
          "type": "address"
        }
      ],
      "name": "OwnershipTransferred",
      "type": "event"
    },
    {
      "stateMutability": "nonpayable",
      "type": "fallback"
    },
    {
      "inputs": [
        {
          "internalType": "address",
          "name": "gasStation",
          "type": "address"
        },
        {
          "internalType": "uint256",
          "name": "amount",
          "type": "uint256"
        }
      ],
      "name": "depositGasTo",
      "outputs": [
        {
          "internalType": "uint256",
          "name": "",
          "type": "uint256"
        }
      ],
      "stateMutability": "nonpayable",
      "type": "function"
    },
    {
      "inputs": [
        {
          "components": [
            {
              "internalType": "address",
              "name": "to",
              "type": "address"
            },
            {
              "internalType": "uint256",
              "name": "value",
              "type": "uint256"
            },
            {
              "internalType": "bytes",
              "name": "callData",
              "type": "bytes"
            },
            {
              "internalType": "uint256",
              "name": "callGasLimit",
              "type": "uint256"
            }
          ],
          "internalType": "struct BasicUserOp",
          "name": "op",
          "type": "tuple"
        }
      ],
      "name": "exec",
      "outputs": [],
      "stateMutability": "nonpayable",
      "type": "function"
    },
    {
      "inputs": [
        {
          "components": [
            {
              "internalType": "address",
              "name": "to",
              "type": "address"
            },
            {
              "internalType": "uint256",
              "name": "value",
              "type": "uint256"
            },
            {
              "internalType": "bytes",
              "name": "callData",
              "type": "bytes"
            },
            {
              "internalType": "uint256",
              "name": "callGasLimit",
              "type": "uint256"
            }
          ],
          "internalType": "struct BasicUserOp[]",
          "name": "ops",
          "type": "tuple[]"
        }
      ],
      "name": "execBatch",
      "outputs": [],
      "stateMutability": "nonpayable",
      "type": "function"
    },
    {
      "inputs": [
        {
          "internalType": "address",
          "name": "owner",
          "type": "address"
        }
      ],
      "name": "init",
      "outputs": [],
      "stateMutability": "nonpayable",
      "type": "function"
    },
    {
      "inputs": [
        {
          "internalType": "bytes32",
          "name": "message",
          "type": "bytes32"
        },
        {
          "internalType": "bytes",
          "name": "signature",
          "type": "bytes"
        }
      ],
      "name": "isValidSignature",
      "outputs": [
        {
          "internalType": "bytes4",
          "name": "",
          "type": "bytes4"
        }
      ],
      "stateMutability": "view",
      "type": "function"
    },
    {
      "inputs": [],
      "name": "nonce",
      "outputs": [
        {
          "internalType": "uint256",
          "name": "",
          "type": "uint256"
        }
      ],
      "stateMutability": "view",
      "type": "function"
    },
    {
      "inputs": [],
      "name": "owner",
      "outputs": [
        {
          "internalType": "address",
          "name": "",
          "type": "address"
        }
      ],
      "stateMutability": "view",
      "type": "function"
    },
    {
      "inputs": [
        {
          "internalType": "address payable",
          "name": "receiver",
          "type": "address"
        },
        {
          "internalType": "address",
          "name": "token",
          "type": "address"
        },
        {
          "internalType": "uint256",
          "name": "amount",
          "type": "uint256"
        },
        {
          "internalType": "uint256",
          "name": "price",
          "type": "uint256"
        }
      ],
      "name": "refundGas",
      "outputs": [
        {
          "internalType": "uint256",
          "name": "payment",
          "type": "uint256"
        }
      ],
      "stateMutability": "nonpayable",
      "type": "function"
    },
    {
      "inputs": [
        {
          "internalType": "address",
          "name": "account",
          "type": "address"
        }
      ],
      "name": "transferOwnership",
      "outputs": [],
      "stateMutability": "nonpayable",
      "type": "function"
    },
    {
      "inputs": [
        {
          "internalType": "bytes",
          "name": "txData",
          "type": "bytes"
        },
        {
          "internalType": "uint256",
          "name": "_nonce",
          "type": "uint256"
        },
        {
          "internalType": "bytes",
          "name": "signature",
          "type": "bytes"
        }
      ],
      "name": "validateAndCall",
      "outputs": [],
      "stateMutability": "nonpayable",
      "type": "function"
    },
    {
      "stateMutability": "payable",
      "type": "receive"
    }
  ],
  "transactionHash": "0x4c5998fc126bfd30198f2792fb7d9218dd7b62fd56524a54486c486ce423167e",
  "args": [],
  "numDeployments": 1,
  "solcInputHash": "66f81f85fa58eb5ab3b4a52aa9c68636",
  "bytecode": "0x608060405234801561001057600080fd5b506126d2806100206000396000f3fe6080604052600436106100955760003560e01c8063a8b6f61611610059578063a8b6f616146101e2578063a8c943461461021f578063affed0e014610248578063cceae4ee14610273578063f2fde38b146102b05761009c565b80631626ba7e146100ff57806319ab453c1461013c5780638479cc0f146101655780638c88d3801461018e5780638da5cb5b146101b75761009c565b3661009c57005b3480156100a857600080fd5b5060003660606000357fffffffff00000000000000000000000000000000000000000000000000000000166040516020016100e391906113ca565b6040516020818303038152906040529050915050805190602001f35b34801561010b57600080fd5b5061012660048036038101906101219190611494565b6102d9565b60405161013391906113ca565b60405180910390f35b34801561014857600080fd5b50610163600480360381019061015e9190611552565b6102f7565b005b34801561017157600080fd5b5061018c600480360381019061018791906115d5565b6103b2565b005b34801561019a57600080fd5b506101b560048036038101906101b09190611658565b610413565b005b3480156101c357600080fd5b506101cc61055e565b6040516101d991906116fc565b60405180910390f35b3480156101ee57600080fd5b5061020960048036038101906102049190611755565b61056d565b60405161021691906117cb565b60405180910390f35b34801561022b57600080fd5b506102466004803603810190610241919061180a565b610691565b005b34801561025457600080fd5b5061025d6106a5565b60405161026a91906117cb565b60405180910390f35b34801561027f57600080fd5b5061029a60048036038101906102959190611853565b6106ae565b6040516102a791906117cb565b60405180910390f35b3480156102bc57600080fd5b506102d760048036038101906102d29190611552565b610780565b005b60006102e68484846107f8565b631626ba7e60e01b90509392505050565b600073ffffffffffffffffffffffffffffffffffffffff16610317610aba565b73ffffffffffffffffffffffffffffffffffffffff161480156103675750600073ffffffffffffffffffffffffffffffffffffffff168173ffffffffffffffffffffffffffffffffffffffff1614155b6103a6576040517f08c379a000000000000000000000000000000000000000000000000000000000815260040161039d906118f0565b60405180910390fd5b6103af81610aed565b50565b6103ba610af9565b600082829050905060005b8181101561040d576103fa8484838181106103e3576103e2611910565b5b90506020028101906103f5919061194e565b610ba6565b8080610405906119a5565b9150506103c5565b50505050565b6000858560005460405160200161042c93929190611a4c565b60405160208183030381529060405280519060200120905083600080815480929190610457906119a5565b919050551461049b576040517f08c379a000000000000000000000000000000000000000000000000000000000815260040161049290611aca565b60405180910390fd5b6104a68184846107f8565b60003073ffffffffffffffffffffffffffffffffffffffff1687876040516104cf929190611b1a565b6000604051808303816000865af19150503d806000811461050c576040519150601f19603f3d011682016040523d82523d6000602084013e610511565b606091505b5050905080610555576040517f08c379a000000000000000000000000000000000000000000000000000000000815260040161054c90611b7f565b60405180910390fd5b50505050505050565b6000610568610aba565b905090565b6000610577610af9565b600073ffffffffffffffffffffffffffffffffffffffff168473ffffffffffffffffffffffffffffffffffffffff1614156105ec5760008214156105bd573a91506105cf565b3a82106105ca573a6105cc565b815b91505b3a836105db9190611b9f565b90506105e78582610c9c565b610689565b81836105f89190611b9f565b90508373ffffffffffffffffffffffffffffffffffffffff1663a9059cbb86836040518363ffffffff1660e01b8152600401610635929190611c58565b602060405180830381600087803b15801561064f57600080fd5b505af1158015610663573d6000803e3d6000fd5b505050506040513d601f19601f820116820180604052508101906106879190611cb9565b505b949350505050565b610699610af9565b6106a281610ba6565b50565b60008054905090565b60006106b8610af9565b60003a836106c69190611b9f565b90506107756040516024016040516020818303038152906040527fd0e30db0000000000000000000000000000000000000000000000000000000007bffffffffffffffffffffffffffffffffffffffffffffffffffffffff19166020820180517bffffffffffffffffffffffffffffffffffffffffffffffffffffffff8381831617835250505050828673ffffffffffffffffffffffffffffffffffffffff16610d909092919063ffffffff16565b508091505092915050565b610788610aba565b73ffffffffffffffffffffffffffffffffffffffff163373ffffffffffffffffffffffffffffffffffffffff16146107ec576040517f2f7a8ee100000000000000000000000000000000000000000000000000000000815260040160405180910390fd5b6107f581610aed565b50565b600061080261055e565b9050600061080f85610dbf565b90506108308273ffffffffffffffffffffffffffffffffffffffff16610def565b156109ee578173ffffffffffffffffffffffffffffffffffffffff16631626ba7e8286866040518463ffffffff1660e01b815260040161087293929190611cf5565b60206040518083038186803b15801561088a57600080fd5b505afa9250505080156108bb57506040513d601f19601f820116820180604052508101906108b89190611d53565b60015b610961576108c7611d8d565b806308c379a0141561092457506108dc611e0f565b806108e75750610926565b806040517f08c379a000000000000000000000000000000000000000000000000000000000815260040161091b9190611f1c565b60405180910390fd5b505b6040517f08c379a000000000000000000000000000000000000000000000000000000000815260040161095890611f8a565b60405180910390fd5b631626ba7e60e01b7bffffffffffffffffffffffffffffffffffffffffffffffffffffffff1916817bffffffffffffffffffffffffffffffffffffffffffffffffffffffff1916146109e8576040517f08c379a00000000000000000000000000000000000000000000000000000000081526004016109df90611ff6565b60405180910390fd5b50610ab3565b610a4584848080601f016020809104026020016040519081016040528093929190818152602001838380828437600081840152601f19601f8201169050808301925050505050505082610e1290919063ffffffff16565b73ffffffffffffffffffffffffffffffffffffffff168273ffffffffffffffffffffffffffffffffffffffff1614610ab2576040517f08c379a0000000000000000000000000000000000000000000000000000000008152600401610aa990612062565b60405180910390fd5b5b5050505050565b6000610ac4610e39565b60000160009054906101000a900473ffffffffffffffffffffffffffffffffffffffff16905090565b610af681610e66565b50565b610b0161055e565b73ffffffffffffffffffffffffffffffffffffffff163373ffffffffffffffffffffffffffffffffffffffff161480610b6557503073ffffffffffffffffffffffffffffffffffffffff163373ffffffffffffffffffffffffffffffffffffffff16145b610ba4576040517f08c379a0000000000000000000000000000000000000000000000000000000008152600401610b9b906120ce565b60405180910390fd5b565b600080826000016020810190610bbc9190611552565b73ffffffffffffffffffffffffffffffffffffffff1683602001356000856060013514610bed578460600135610bef565b5a5b90858060400190610c0091906120ee565b604051610c0e929190611b1a565b600060405180830381858888f193505050503d8060008114610c4c576040519150601f19603f3d011682016040523d82523d6000602084013e610c51565b606091505b5091509150610c9682826040518060400160405280600881526020017f4845584c41303031000000000000000000000000000000000000000000000000815250610f37565b50505050565b80471015610cdf576040517f08c379a0000000000000000000000000000000000000000000000000000000008152600401610cd69061219d565b60405180910390fd5b60008273ffffffffffffffffffffffffffffffffffffffff1682604051610d05906121e3565b60006040518083038185875af1925050503d8060008114610d42576040519150601f19603f3d011682016040523d82523d6000602084013e610d47565b606091505b5050905080610d8b576040517f08c379a0000000000000000000000000000000000000000000000000000000008152600401610d829061226a565b60405180910390fd5b505050565b6060610db684848460405180606001604052806029815260200161267460299139610f59565b90509392505050565b600081604051602001610dd29190612302565b604051602081830303815290604052805190602001209050919050565b6000808273ffffffffffffffffffffffffffffffffffffffff163b119050919050565b6000806000610e218585611026565b91509150610e2e81611078565b819250505092915050565b6000807f8a22373512790c48b83a1fe2efdd2888d4a917bcdc24d0adf63e60f67168046090508091505090565b6000610e70610e39565b90508173ffffffffffffffffffffffffffffffffffffffff168160000160009054906101000a900473ffffffffffffffffffffffffffffffffffffffff1673ffffffffffffffffffffffffffffffffffffffff167f8be0079c531659141344cd1fd0a4f28419497f9722a3daafe3b4186f6b6457e060405160405180910390a3818160000160006101000a81548173ffffffffffffffffffffffffffffffffffffffff021916908373ffffffffffffffffffffffffffffffffffffffff1602179055505050565b60608315610f4757829050610f52565b610f5183836111e6565b5b9392505050565b606082471015610f9e576040517f08c379a0000000000000000000000000000000000000000000000000000000008152600401610f959061239a565b60405180910390fd5b6000808673ffffffffffffffffffffffffffffffffffffffff168587604051610fc791906123f6565b60006040518083038185875af1925050503d8060008114611004576040519150601f19603f3d011682016040523d82523d6000602084013e611009565b606091505b509150915061101a87838387611236565b92505050949350505050565b6000806041835114156110685760008060006020860151925060408601519150606086015160001a905061105c878285856112ac565b94509450505050611071565b60006002915091505b9250929050565b6000600481111561108c5761108b61240d565b5b81600481111561109f5761109e61240d565b5b14156110aa576111e3565b600160048111156110be576110bd61240d565b5b8160048111156110d1576110d061240d565b5b1415611112576040517f08c379a000000000000000000000000000000000000000000000000000000000815260040161110990612488565b60405180910390fd5b600260048111156111265761112561240d565b5b8160048111156111395761113861240d565b5b141561117a576040517f08c379a0000000000000000000000000000000000000000000000000000000008152600401611171906124f4565b60405180910390fd5b6003600481111561118e5761118d61240d565b5b8160048111156111a1576111a061240d565b5b14156111e2576040517f08c379a00000000000000000000000000000000000000000000000000000000081526004016111d990612586565b60405180910390fd5b5b50565b6000825111156111f95781518083602001fd5b806040517f08c379a000000000000000000000000000000000000000000000000000000000815260040161122d9190611f1c565b60405180910390fd5b60608315611299576000835114156112915761125185610def565b611290576040517f08c379a0000000000000000000000000000000000000000000000000000000008152600401611287906125f2565b60405180910390fd5b5b8290506112a4565b6112a383836111e6565b5b949350505050565b6000807f7fffffffffffffffffffffffffffffff5d576e7357a4501ddfe92f46681b20a08360001c11156112e7576000600391509150611386565b60006001878787876040516000815260200160405260405161130c949392919061262e565b6020604051602081039080840390855afa15801561132e573d6000803e3d6000fd5b505050602060405103519050600073ffffffffffffffffffffffffffffffffffffffff168173ffffffffffffffffffffffffffffffffffffffff16141561137d57600060019250925050611386565b80600092509250505b94509492505050565b60007fffffffff0000000000000000000000000000000000000000000000000000000082169050919050565b6113c48161138f565b82525050565b60006020820190506113df60008301846113bb565b92915050565b6000604051905090565b600080fd5b600080fd5b6000819050919050565b61140c816113f9565b811461141757600080fd5b50565b60008135905061142981611403565b92915050565b600080fd5b600080fd5b600080fd5b60008083601f8401126114545761145361142f565b5b8235905067ffffffffffffffff81111561147157611470611434565b5b60208301915083600182028301111561148d5761148c611439565b5b9250929050565b6000806000604084860312156114ad576114ac6113ef565b5b60006114bb8682870161141a565b935050602084013567ffffffffffffffff8111156114dc576114db6113f4565b5b6114e88682870161143e565b92509250509250925092565b600073ffffffffffffffffffffffffffffffffffffffff82169050919050565b600061151f826114f4565b9050919050565b61152f81611514565b811461153a57600080fd5b50565b60008135905061154c81611526565b92915050565b600060208284031215611568576115676113ef565b5b60006115768482850161153d565b91505092915050565b60008083601f8401126115955761159461142f565b5b8235905067ffffffffffffffff8111156115b2576115b1611434565b5b6020830191508360208202830111156115ce576115cd611439565b5b9250929050565b600080602083850312156115ec576115eb6113ef565b5b600083013567ffffffffffffffff81111561160a576116096113f4565b5b6116168582860161157f565b92509250509250929050565b6000819050919050565b61163581611622565b811461164057600080fd5b50565b6000813590506116528161162c565b92915050565b600080600080600060608688031215611674576116736113ef565b5b600086013567ffffffffffffffff811115611692576116916113f4565b5b61169e8882890161143e565b955095505060206116b188828901611643565b935050604086013567ffffffffffffffff8111156116d2576116d16113f4565b5b6116de8882890161143e565b92509250509295509295909350565b6116f681611514565b82525050565b600060208201905061171160008301846116ed565b92915050565b6000611722826114f4565b9050919050565b61173281611717565b811461173d57600080fd5b50565b60008135905061174f81611729565b92915050565b6000806000806080858703121561176f5761176e6113ef565b5b600061177d87828801611740565b945050602061178e8782880161153d565b935050604061179f87828801611643565b92505060606117b087828801611643565b91505092959194509250565b6117c581611622565b82525050565b60006020820190506117e060008301846117bc565b92915050565b600080fd5b600060808284031215611801576118006117e6565b5b81905092915050565b6000602082840312156118205761181f6113ef565b5b600082013567ffffffffffffffff81111561183e5761183d6113f4565b5b61184a848285016117eb565b91505092915050565b6000806040838503121561186a576118696113ef565b5b60006118788582860161153d565b925050602061188985828601611643565b9150509250929050565b600082825260208201905092915050565b7f4845584c30313500000000000000000000000000000000000000000000000000600082015250565b60006118da600783611893565b91506118e5826118a4565b602082019050919050565b60006020820190508181036000830152611909816118cd565b9050919050565b7f4e487b7100000000000000000000000000000000000000000000000000000000600052603260045260246000fd5b600080fd5b600080fd5b600080fd5b60008235600160800383360303811261196a5761196961193f565b5b80830191505092915050565b7f4e487b7100000000000000000000000000000000000000000000000000000000600052601160045260246000fd5b60006119b082611622565b91507fffffffffffffffffffffffffffffffffffffffffffffffffffffffffffffffff8214156119e3576119e2611976565b5b600182019050919050565b600082825260208201905092915050565b82818337600083830152505050565b6000601f19601f8301169050919050565b6000611a2b83856119ee565b9350611a388385846119ff565b611a4183611a0e565b840190509392505050565b60006040820190508181036000830152611a67818587611a1f565b9050611a7660208301846117bc565b949350505050565b7f4845584c41303038000000000000000000000000000000000000000000000000600082015250565b6000611ab4600883611893565b9150611abf82611a7e565b602082019050919050565b60006020820190508181036000830152611ae381611aa7565b9050919050565b600081905092915050565b6000611b018385611aea565b9350611b0e8385846119ff565b82840190509392505050565b6000611b27828486611af5565b91508190509392505050565b7f4845584c41303039000000000000000000000000000000000000000000000000600082015250565b6000611b69600883611893565b9150611b7482611b33565b602082019050919050565b60006020820190508181036000830152611b9881611b5c565b9050919050565b6000611baa82611622565b9150611bb583611622565b9250817fffffffffffffffffffffffffffffffffffffffffffffffffffffffffffffffff0483118215151615611bee57611bed611976565b5b828202905092915050565b6000819050919050565b6000611c1e611c19611c14846114f4565b611bf9565b6114f4565b9050919050565b6000611c3082611c03565b9050919050565b6000611c4282611c25565b9050919050565b611c5281611c37565b82525050565b6000604082019050611c6d6000830185611c49565b611c7a60208301846117bc565b9392505050565b60008115159050919050565b611c9681611c81565b8114611ca157600080fd5b50565b600081519050611cb381611c8d565b92915050565b600060208284031215611ccf57611cce6113ef565b5b6000611cdd84828501611ca4565b91505092915050565b611cef816113f9565b82525050565b6000604082019050611d0a6000830186611ce6565b8181036020830152611d1d818486611a1f565b9050949350505050565b611d308161138f565b8114611d3b57600080fd5b50565b600081519050611d4d81611d27565b92915050565b600060208284031215611d6957611d686113ef565b5b6000611d7784828501611d3e565b91505092915050565b60008160e01c9050919050565b600060033d1115611dac5760046000803e611da9600051611d80565b90505b90565b7f4e487b7100000000000000000000000000000000000000000000000000000000600052604160045260246000fd5b611de782611a0e565b810181811067ffffffffffffffff82111715611e0657611e05611daf565b5b80604052505050565b600060443d1015611e1f57611ea2565b611e276113e5565b60043d036004823e80513d602482011167ffffffffffffffff82111715611e4f575050611ea2565b808201805167ffffffffffffffff811115611e6d5750505050611ea2565b80602083010160043d038501811115611e8a575050505050611ea2565b611e9982602001850186611dde565b82955050505050505b90565b600081519050919050565b60005b83811015611ece578082015181840152602081019050611eb3565b83811115611edd576000848401525b50505050565b6000611eee82611ea5565b611ef88185611893565b9350611f08818560208601611eb0565b611f1181611a0e565b840191505092915050565b60006020820190508181036000830152611f368184611ee3565b905092915050565b7f4845584c41303033000000000000000000000000000000000000000000000000600082015250565b6000611f74600883611893565b9150611f7f82611f3e565b602082019050919050565b60006020820190508181036000830152611fa381611f67565b9050919050565b7f4845584c41303032000000000000000000000000000000000000000000000000600082015250565b6000611fe0600883611893565b9150611feb82611faa565b602082019050919050565b6000602082019050818103600083015261200f81611fd3565b9050919050565b7f4845584c41303034000000000000000000000000000000000000000000000000600082015250565b600061204c600883611893565b915061205782612016565b602082019050919050565b6000602082019050818103600083015261207b8161203f565b9050919050565b7f4845584c41303131000000000000000000000000000000000000000000000000600082015250565b60006120b8600883611893565b91506120c382612082565b602082019050919050565b600060208201905081810360008301526120e7816120ab565b9050919050565b6000808335600160200384360303811261210b5761210a61193f565b5b80840192508235915067ffffffffffffffff82111561212d5761212c611944565b5b60208301925060018202360383131561214957612148611949565b5b509250929050565b7f416464726573733a20696e73756666696369656e742062616c616e6365000000600082015250565b6000612187601d83611893565b915061219282612151565b602082019050919050565b600060208201905081810360008301526121b68161217a565b9050919050565b50565b60006121cd600083611aea565b91506121d8826121bd565b600082019050919050565b60006121ee826121c0565b9150819050919050565b7f416464726573733a20756e61626c6520746f2073656e642076616c75652c207260008201527f6563697069656e74206d61792068617665207265766572746564000000000000602082015250565b6000612254603a83611893565b915061225f826121f8565b604082019050919050565b6000602082019050818103600083015261228381612247565b9050919050565b600081905092915050565b7f19457468657265756d205369676e6564204d6573736167653a0a333200000000600082015250565b60006122cb601c8361228a565b91506122d682612295565b601c82019050919050565b6000819050919050565b6122fc6122f7826113f9565b6122e1565b82525050565b600061230d826122be565b915061231982846122eb565b60208201915081905092915050565b7f416464726573733a20696e73756666696369656e742062616c616e636520666f60008201527f722063616c6c0000000000000000000000000000000000000000000000000000602082015250565b6000612384602683611893565b915061238f82612328565b604082019050919050565b600060208201905081810360008301526123b381612377565b9050919050565b600081519050919050565b60006123d0826123ba565b6123da8185611aea565b93506123ea818560208601611eb0565b80840191505092915050565b600061240282846123c5565b915081905092915050565b7f4e487b7100000000000000000000000000000000000000000000000000000000600052602160045260246000fd5b7f45434453413a20696e76616c6964207369676e61747572650000000000000000600082015250565b6000612472601883611893565b915061247d8261243c565b602082019050919050565b600060208201905081810360008301526124a181612465565b9050919050565b7f45434453413a20696e76616c6964207369676e6174757265206c656e67746800600082015250565b60006124de601f83611893565b91506124e9826124a8565b602082019050919050565b6000602082019050818103600083015261250d816124d1565b9050919050565b7f45434453413a20696e76616c6964207369676e6174757265202773272076616c60008201527f7565000000000000000000000000000000000000000000000000000000000000602082015250565b6000612570602283611893565b915061257b82612514565b604082019050919050565b6000602082019050818103600083015261259f81612563565b9050919050565b7f416464726573733a2063616c6c20746f206e6f6e2d636f6e7472616374000000600082015250565b60006125dc601d83611893565b91506125e7826125a6565b602082019050919050565b6000602082019050818103600083015261260b816125cf565b9050919050565b600060ff82169050919050565b61262881612612565b82525050565b60006080820190506126436000830187611ce6565b612650602083018661261f565b61265d6040830185611ce6565b61266a6060830184611ce6565b9594505050505056fe416464726573733a206c6f772d6c6576656c2063616c6c20776974682076616c7565206661696c6564a26469706673582212208b3c6a54c6cda793b462a800829062873d6ebb0a49277051ca7776940e160d6a64736f6c63430008080033",
  "devdoc": {
    "kind": "dev",
    "methods": {
      "owner()": {
        "returns": {
          "_0": "conrtact owner"
        }
      },
      "transferOwnership(address)": {
        "params": {
          "account": "address of new owner"
        }
      }
    },
    "version": 1
  },
  "userdoc": {
    "kind": "user",
    "methods": {
      "owner()": {
        "notice": "get the ERC173 contract owner"
      },
      "transferOwnership(address)": {
        "notice": "transfer contract ownership to new account"
      }
    },
    "version": 1
  },
  "storageLayout": {
    "storage": [
      {
        "astId": 8763,
        "contract": "contracts/account/AccountSimple.sol:AccountSimple",
        "label": "nonce_",
        "offset": 0,
        "slot": "0",
        "type": "t_uint256"
      }
    ],
    "types": {
      "t_uint256": {
        "encoding": "inplace",
        "label": "uint256",
        "numberOfBytes": "32"
      }
    }
  }
}