{
  "address": "0x18671A340A696E60098703aD10711836cBBCe045",
  "abi": [
    {
      "inputs": [],
      "name": "Ownable__NotOwner",
      "type": "error"
    },
    {
      "inputs": [],
      "name": "Ownable__NotTransitiveOwner",
      "type": "error"
    },
    {
      "anonymous": false,
      "inputs": [
        {
          "indexed": false,
          "internalType": "address",
          "name": "to",
          "type": "address"
        },
        {
          "indexed": false,
          "internalType": "uint256",
          "name": "amount",
          "type": "uint256"
        }
      ],
      "name": "GasPaid",
      "type": "event"
    },
    {
      "anonymous": false,
      "inputs": [
        {
          "indexed": true,
          "internalType": "address",
          "name": "previousOwner",
          "type": "address"
        },
        {
          "indexed": true,
          "internalType": "address",
          "name": "newOwner",
          "type": "address"
        }
      ],
      "name": "OwnershipTransferred",
      "type": "event"
    },
    {
      "stateMutability": "nonpayable",
      "type": "fallback"
    },
    {
      "inputs": [
        {
          "components": [
            {
              "internalType": "address",
              "name": "to",
              "type": "address"
            },
            {
              "internalType": "uint256",
              "name": "value",
              "type": "uint256"
            },
            {
              "internalType": "bytes",
              "name": "callData",
              "type": "bytes"
            },
            {
              "internalType": "uint256",
              "name": "callGasLimit",
              "type": "uint256"
            }
          ],
          "internalType": "struct BasicUserOp",
          "name": "op",
          "type": "tuple"
        }
      ],
      "name": "exec",
      "outputs": [],
      "stateMutability": "nonpayable",
      "type": "function"
    },
    {
      "inputs": [
        {
          "components": [
            {
              "internalType": "address",
              "name": "to",
              "type": "address"
            },
            {
              "internalType": "uint256",
              "name": "value",
              "type": "uint256"
            },
            {
              "internalType": "bytes",
              "name": "callData",
              "type": "bytes"
            },
            {
              "internalType": "uint256",
              "name": "callGasLimit",
              "type": "uint256"
            }
          ],
          "internalType": "struct BasicUserOp[]",
          "name": "ops",
          "type": "tuple[]"
        }
      ],
      "name": "execBatch",
      "outputs": [],
      "stateMutability": "nonpayable",
      "type": "function"
    },
    {
      "inputs": [
        {
          "internalType": "address",
          "name": "owner",
          "type": "address"
        }
      ],
      "name": "init",
      "outputs": [],
      "stateMutability": "nonpayable",
      "type": "function"
    },
    {
      "inputs": [
        {
          "internalType": "bytes32",
          "name": "message",
          "type": "bytes32"
        },
        {
          "internalType": "bytes",
          "name": "signature",
          "type": "bytes"
        }
      ],
      "name": "isValidSignature",
      "outputs": [
        {
          "internalType": "bytes4",
          "name": "",
          "type": "bytes4"
        }
      ],
      "stateMutability": "view",
      "type": "function"
    },
    {
      "inputs": [],
      "name": "nonce",
      "outputs": [
        {
          "internalType": "uint256",
          "name": "",
          "type": "uint256"
        }
      ],
      "stateMutability": "view",
      "type": "function"
    },
    {
      "inputs": [],
      "name": "owner",
      "outputs": [
        {
          "internalType": "address",
          "name": "",
          "type": "address"
        }
      ],
      "stateMutability": "view",
      "type": "function"
    },
    {
      "inputs": [
        {
          "internalType": "address",
          "name": "account",
          "type": "address"
        }
      ],
      "name": "transferOwnership",
      "outputs": [],
      "stateMutability": "nonpayable",
      "type": "function"
    },
    {
      "inputs": [
        {
          "internalType": "bytes",
          "name": "txData",
          "type": "bytes"
        },
        {
          "internalType": "uint256",
          "name": "_nonce",
          "type": "uint256"
        },
        {
          "internalType": "bytes",
          "name": "signature",
          "type": "bytes"
        }
      ],
      "name": "validateAndCall",
      "outputs": [],
      "stateMutability": "nonpayable",
      "type": "function"
    },
    {
      "inputs": [
        {
          "internalType": "bytes",
          "name": "txData",
          "type": "bytes"
        },
        {
          "internalType": "uint256",
          "name": "_nonce",
          "type": "uint256"
        },
        {
          "internalType": "bytes",
          "name": "signature",
          "type": "bytes"
        },
        {
          "components": [
            {
              "internalType": "address payable",
              "name": "receiver",
              "type": "address"
            },
            {
              "internalType": "address",
              "name": "token",
              "type": "address"
            },
            {
              "internalType": "uint256",
              "name": "base",
              "type": "uint256"
            },
            {
              "internalType": "uint256",
              "name": "price",
              "type": "uint256"
            }
          ],
          "internalType": "struct GasPayer.GasPayment",
          "name": "gas",
          "type": "tuple"
        }
      ],
      "name": "validateAndCallWithGasRefund",
      "outputs": [],
      "stateMutability": "nonpayable",
      "type": "function"
    },
    {
      "stateMutability": "payable",
      "type": "receive"
    }
  ],
  "transactionHash": "0xb18c1dcac742341a14718f29ff93fddd0fe6e2f75a2a6869235b7168a1b29bb9",
  "args": [],
  "numDeployments": 3,
  "solcInputHash": "60204642e74923cc7e16d59e26c0d4f8",
  "bytecode": "0x608060405234801561001057600080fd5b506123cb806100206000396000f3fe60806040526004361061008a5760003560e01c80638c88d380116100595780638c88d380146101ac5780638da5cb5b146101d5578063a8c9434614610200578063affed0e014610229578063f2fde38b1461025457610091565b80631626ba7e146100f457806319ab453c146101315780635117f8fd1461015a5780638479cc0f1461018357610091565b3661009157005b34801561009d57600080fd5b5060003660606000357fffffffff00000000000000000000000000000000000000000000000000000000166040516020016100d891906111f9565b6040516020818303038152906040529050915050805190602001f35b34801561010057600080fd5b5061011b600480360381019061011691906112c3565b61027d565b60405161012891906111f9565b60405180910390f35b34801561013d57600080fd5b5061015860048036038101906101539190611381565b61029b565b005b34801561016657600080fd5b50610181600480360381019061017c9190611408565b610356565b005b34801561018f57600080fd5b506101aa60048036038101906101a59190611505565b610387565b005b3480156101b857600080fd5b506101d360048036038101906101ce9190611552565b6103e8565b005b3480156101e157600080fd5b506101ea610533565b6040516101f791906115f6565b60405180910390f35b34801561020c57600080fd5b5061022760048036038101906102229190611630565b610542565b005b34801561023557600080fd5b5061023e610556565b60405161024b9190611688565b60405180910390f35b34801561026057600080fd5b5061027b60048036038101906102769190611381565b61055f565b005b600061028a8484846105d7565b631626ba7e60e01b90509392505050565b600073ffffffffffffffffffffffffffffffffffffffff166102bb610899565b73ffffffffffffffffffffffffffffffffffffffff1614801561030b5750600073ffffffffffffffffffffffffffffffffffffffff168173ffffffffffffffffffffffffffffffffffffffff1614155b61034a576040517f08c379a000000000000000000000000000000000000000000000000000000000815260040161034190611700565b60405180910390fd5b610353816108cc565b50565b60005a905061036887878787876103e8565b61037d825a83610378919061174f565b6108d8565b5050505050505050565b61038f610b8e565b600082829050905060005b818110156103e2576103cf8484838181106103b8576103b7611783565b5b90506020028101906103ca91906117c1565b610c3b565b80806103da906117e9565b91505061039a565b50505050565b6000858560005460405160200161040193929190611890565b6040516020818303038152906040528051906020012090508360008081548092919061042c906117e9565b9190505514610470576040517f08c379a00000000000000000000000000000000000000000000000000000000081526004016104679061190e565b60405180910390fd5b61047b8184846105d7565b60003073ffffffffffffffffffffffffffffffffffffffff1687876040516104a492919061195e565b6000604051808303816000865af19150503d80600081146104e1576040519150601f19603f3d011682016040523d82523d6000602084013e6104e6565b606091505b505090508061052a576040517f08c379a0000000000000000000000000000000000000000000000000000000008152600401610521906119c3565b60405180910390fd5b50505050505050565b600061053d610899565b905090565b61054a610b8e565b61055381610c3b565b50565b60008054905090565b610567610899565b73ffffffffffffffffffffffffffffffffffffffff163373ffffffffffffffffffffffffffffffffffffffff16146105cb576040517f2f7a8ee100000000000000000000000000000000000000000000000000000000815260040160405180910390fd5b6105d4816108cc565b50565b60006105e1610533565b905060006105ee85610d31565b905061060f8273ffffffffffffffffffffffffffffffffffffffff16610d61565b156107cd578173ffffffffffffffffffffffffffffffffffffffff16631626ba7e8286866040518463ffffffff1660e01b8152600401610651939291906119f2565b60206040518083038186803b15801561066957600080fd5b505afa92505050801561069a57506040513d601f19601f820116820180604052508101906106979190611a50565b60015b610740576106a6611a8a565b806308c379a0141561070357506106bb611b0c565b806106c65750610705565b806040517f08c379a00000000000000000000000000000000000000000000000000000000081526004016106fa9190611c19565b60405180910390fd5b505b6040517f08c379a000000000000000000000000000000000000000000000000000000000815260040161073790611c87565b60405180910390fd5b631626ba7e60e01b7bffffffffffffffffffffffffffffffffffffffffffffffffffffffff1916817bffffffffffffffffffffffffffffffffffffffffffffffffffffffff1916146107c7576040517f08c379a00000000000000000000000000000000000000000000000000000000081526004016107be90611cf3565b60405180910390fd5b50610892565b61082484848080601f016020809104026020016040519081016040528093929190818152602001838380828437600081840152601f19601f8201169050808301925050505050505082610d8490919063ffffffff16565b73ffffffffffffffffffffffffffffffffffffffff168273ffffffffffffffffffffffffffffffffffffffff1614610891576040517f08c379a000000000000000000000000000000000000000000000000000000000815260040161088890611d5f565b60405180910390fd5b5b5050505050565b60006108a3610dab565b60000160009054906101000a900473ffffffffffffffffffffffffffffffffffffffff16905090565b6108d581610dd8565b50565b60008073ffffffffffffffffffffffffffffffffffffffff168360000160208101906109049190611dbd565b73ffffffffffffffffffffffffffffffffffffffff1614610b885782604001358261092f9190611dea565b9150600073ffffffffffffffffffffffffffffffffffffffff1683602001602081019061095c9190611381565b73ffffffffffffffffffffffffffffffffffffffff161415610a775760008084606001351461098f578360600135610991565b3a5b90503a81116109a057806109a2565b3a5b905080836109b09190611e40565b915060008460000160208101906109c79190611dbd565b73ffffffffffffffffffffffffffffffffffffffff16836040516109ea90611ec0565b60006040518083038185875af1925050503d8060008114610a27576040519150601f19603f3d011682016040523d82523d6000602084013e610a2c565b606091505b5050905080610a70576040517f08c379a0000000000000000000000000000000000000000000000000000000008152600401610a6790611f21565b60405180910390fd5b5050610b3c565b826060013582610a879190611e40565b9050826020016020810190610a9c9190611381565b73ffffffffffffffffffffffffffffffffffffffff1663a9059cbb846000016020810190610aca9190611dbd565b836040518363ffffffff1660e01b8152600401610ae8929190611fa0565b602060405180830381600087803b158015610b0257600080fd5b505af1158015610b16573d6000803e3d6000fd5b505050506040513d601f19601f82011682018060405250810190610b3a9190612001565b505b7f9472b7566e62841cb1b5595f7c1d891a3ed4fce14f99ab26df8991e5737d7feb836000016020810190610b709190611dbd565b83604051610b7f929190611fa0565b60405180910390a15b92915050565b610b96610533565b73ffffffffffffffffffffffffffffffffffffffff163373ffffffffffffffffffffffffffffffffffffffff161480610bfa57503073ffffffffffffffffffffffffffffffffffffffff163373ffffffffffffffffffffffffffffffffffffffff16145b610c39576040517f08c379a0000000000000000000000000000000000000000000000000000000008152600401610c309061207a565b60405180910390fd5b565b600080826000016020810190610c519190611381565b73ffffffffffffffffffffffffffffffffffffffff1683602001356000856060013514610c82578460600135610c84565b5a5b90858060400190610c95919061209a565b604051610ca392919061195e565b600060405180830381858888f193505050503d8060008114610ce1576040519150601f19603f3d011682016040523d82523d6000602084013e610ce6565b606091505b5091509150610d2b82826040518060400160405280600881526020017f4845584c41303031000000000000000000000000000000000000000000000000815250610ea9565b50505050565b600081604051602001610d449190612175565b604051602081830303815290604052805190602001209050919050565b6000808273ffffffffffffffffffffffffffffffffffffffff163b119050919050565b6000806000610d938585610ecb565b91509150610da081610f1d565b819250505092915050565b6000807f8a22373512790c48b83a1fe2efdd2888d4a917bcdc24d0adf63e60f67168046090508091505090565b6000610de2610dab565b90508173ffffffffffffffffffffffffffffffffffffffff168160000160009054906101000a900473ffffffffffffffffffffffffffffffffffffffff1673ffffffffffffffffffffffffffffffffffffffff167f8be0079c531659141344cd1fd0a4f28419497f9722a3daafe3b4186f6b6457e060405160405180910390a3818160000160006101000a81548173ffffffffffffffffffffffffffffffffffffffff021916908373ffffffffffffffffffffffffffffffffffffffff1602179055505050565b60608315610eb957829050610ec4565b610ec3838361108b565b5b9392505050565b600080604183511415610f0d5760008060006020860151925060408601519150606086015160001a9050610f01878285856110db565b94509450505050610f16565b60006002915091505b9250929050565b60006004811115610f3157610f3061219b565b5b816004811115610f4457610f4361219b565b5b1415610f4f57611088565b60016004811115610f6357610f6261219b565b5b816004811115610f7657610f7561219b565b5b1415610fb7576040517f08c379a0000000000000000000000000000000000000000000000000000000008152600401610fae90612216565b60405180910390fd5b60026004811115610fcb57610fca61219b565b5b816004811115610fde57610fdd61219b565b5b141561101f576040517f08c379a000000000000000000000000000000000000000000000000000000000815260040161101690612282565b60405180910390fd5b600360048111156110335761103261219b565b5b8160048111156110465761104561219b565b5b1415611087576040517f08c379a000000000000000000000000000000000000000000000000000000000815260040161107e90612314565b60405180910390fd5b5b50565b60008251111561109e5781518083602001fd5b806040517f08c379a00000000000000000000000000000000000000000000000000000000081526004016110d29190611c19565b60405180910390fd5b6000807f7fffffffffffffffffffffffffffffff5d576e7357a4501ddfe92f46681b20a08360001c11156111165760006003915091506111b5565b60006001878787876040516000815260200160405260405161113b9493929190612350565b6020604051602081039080840390855afa15801561115d573d6000803e3d6000fd5b505050602060405103519050600073ffffffffffffffffffffffffffffffffffffffff168173ffffffffffffffffffffffffffffffffffffffff1614156111ac576000600192509250506111b5565b80600092509250505b94509492505050565b60007fffffffff0000000000000000000000000000000000000000000000000000000082169050919050565b6111f3816111be565b82525050565b600060208201905061120e60008301846111ea565b92915050565b6000604051905090565b600080fd5b600080fd5b6000819050919050565b61123b81611228565b811461124657600080fd5b50565b60008135905061125881611232565b92915050565b600080fd5b600080fd5b600080fd5b60008083601f8401126112835761128261125e565b5b8235905067ffffffffffffffff8111156112a05761129f611263565b5b6020830191508360018202830111156112bc576112bb611268565b5b9250929050565b6000806000604084860312156112dc576112db61121e565b5b60006112ea86828701611249565b935050602084013567ffffffffffffffff81111561130b5761130a611223565b5b6113178682870161126d565b92509250509250925092565b600073ffffffffffffffffffffffffffffffffffffffff82169050919050565b600061134e82611323565b9050919050565b61135e81611343565b811461136957600080fd5b50565b60008135905061137b81611355565b92915050565b6000602082840312156113975761139661121e565b5b60006113a58482850161136c565b91505092915050565b6000819050919050565b6113c1816113ae565b81146113cc57600080fd5b50565b6000813590506113de816113b8565b92915050565b600080fd5b6000608082840312156113ff576113fe6113e4565b5b81905092915050565b60008060008060008060e087890312156114255761142461121e565b5b600087013567ffffffffffffffff81111561144357611442611223565b5b61144f89828a0161126d565b9650965050602061146289828a016113cf565b945050604087013567ffffffffffffffff81111561148357611482611223565b5b61148f89828a0161126d565b935093505060606114a289828a016113e9565b9150509295509295509295565b60008083601f8401126114c5576114c461125e565b5b8235905067ffffffffffffffff8111156114e2576114e1611263565b5b6020830191508360208202830111156114fe576114fd611268565b5b9250929050565b6000806020838503121561151c5761151b61121e565b5b600083013567ffffffffffffffff81111561153a57611539611223565b5b611546858286016114af565b92509250509250929050565b60008060008060006060868803121561156e5761156d61121e565b5b600086013567ffffffffffffffff81111561158c5761158b611223565b5b6115988882890161126d565b955095505060206115ab888289016113cf565b935050604086013567ffffffffffffffff8111156115cc576115cb611223565b5b6115d88882890161126d565b92509250509295509295909350565b6115f081611343565b82525050565b600060208201905061160b60008301846115e7565b92915050565b600060808284031215611627576116266113e4565b5b81905092915050565b6000602082840312156116465761164561121e565b5b600082013567ffffffffffffffff81111561166457611663611223565b5b61167084828501611611565b91505092915050565b611682816113ae565b82525050565b600060208201905061169d6000830184611679565b92915050565b600082825260208201905092915050565b7f4845584c30313500000000000000000000000000000000000000000000000000600082015250565b60006116ea6007836116a3565b91506116f5826116b4565b602082019050919050565b60006020820190508181036000830152611719816116dd565b9050919050565b7f4e487b7100000000000000000000000000000000000000000000000000000000600052601160045260246000fd5b600061175a826113ae565b9150611765836113ae565b92508282101561177857611777611720565b5b828203905092915050565b7f4e487b7100000000000000000000000000000000000000000000000000000000600052603260045260246000fd5b600080fd5b600080fd5b600080fd5b6000823560016080038336030381126117dd576117dc6117b2565b5b80830191505092915050565b60006117f4826113ae565b91507fffffffffffffffffffffffffffffffffffffffffffffffffffffffffffffffff82141561182757611826611720565b5b600182019050919050565b600082825260208201905092915050565b82818337600083830152505050565b6000601f19601f8301169050919050565b600061186f8385611832565b935061187c838584611843565b61188583611852565b840190509392505050565b600060408201905081810360008301526118ab818587611863565b90506118ba6020830184611679565b949350505050565b7f4845584c41303038000000000000000000000000000000000000000000000000600082015250565b60006118f86008836116a3565b9150611903826118c2565b602082019050919050565b60006020820190508181036000830152611927816118eb565b9050919050565b600081905092915050565b6000611945838561192e565b9350611952838584611843565b82840190509392505050565b600061196b828486611939565b91508190509392505050565b7f4845584c41303039000000000000000000000000000000000000000000000000600082015250565b60006119ad6008836116a3565b91506119b882611977565b602082019050919050565b600060208201905081810360008301526119dc816119a0565b9050919050565b6119ec81611228565b82525050565b6000604082019050611a0760008301866119e3565b8181036020830152611a1a818486611863565b9050949350505050565b611a2d816111be565b8114611a3857600080fd5b50565b600081519050611a4a81611a24565b92915050565b600060208284031215611a6657611a6561121e565b5b6000611a7484828501611a3b565b91505092915050565b60008160e01c9050919050565b600060033d1115611aa95760046000803e611aa6600051611a7d565b90505b90565b7f4e487b7100000000000000000000000000000000000000000000000000000000600052604160045260246000fd5b611ae482611852565b810181811067ffffffffffffffff82111715611b0357611b02611aac565b5b80604052505050565b600060443d1015611b1c57611b9f565b611b24611214565b60043d036004823e80513d602482011167ffffffffffffffff82111715611b4c575050611b9f565b808201805167ffffffffffffffff811115611b6a5750505050611b9f565b80602083010160043d038501811115611b87575050505050611b9f565b611b9682602001850186611adb565b82955050505050505b90565b600081519050919050565b60005b83811015611bcb578082015181840152602081019050611bb0565b83811115611bda576000848401525b50505050565b6000611beb82611ba2565b611bf581856116a3565b9350611c05818560208601611bad565b611c0e81611852565b840191505092915050565b60006020820190508181036000830152611c338184611be0565b905092915050565b7f4845584c41303033000000000000000000000000000000000000000000000000600082015250565b6000611c716008836116a3565b9150611c7c82611c3b565b602082019050919050565b60006020820190508181036000830152611ca081611c64565b9050919050565b7f4845584c41303032000000000000000000000000000000000000000000000000600082015250565b6000611cdd6008836116a3565b9150611ce882611ca7565b602082019050919050565b60006020820190508181036000830152611d0c81611cd0565b9050919050565b7f4845584c41303034000000000000000000000000000000000000000000000000600082015250565b6000611d496008836116a3565b9150611d5482611d13565b602082019050919050565b60006020820190508181036000830152611d7881611d3c565b9050919050565b6000611d8a82611323565b9050919050565b611d9a81611d7f565b8114611da557600080fd5b50565b600081359050611db781611d91565b92915050565b600060208284031215611dd357611dd261121e565b5b6000611de184828501611da8565b91505092915050565b6000611df5826113ae565b9150611e00836113ae565b9250827fffffffffffffffffffffffffffffffffffffffffffffffffffffffffffffffff03821115611e3557611e34611720565b5b828201905092915050565b6000611e4b826113ae565b9150611e56836113ae565b9250817fffffffffffffffffffffffffffffffffffffffffffffffffffffffffffffffff0483118215151615611e8f57611e8e611720565b5b828202905092915050565b50565b6000611eaa60008361192e565b9150611eb582611e9a565b600082019050919050565b6000611ecb82611e9d565b9150819050919050565b7f4845584c30323000000000000000000000000000000000000000000000000000600082015250565b6000611f0b6007836116a3565b9150611f1682611ed5565b602082019050919050565b60006020820190508181036000830152611f3a81611efe565b9050919050565b6000819050919050565b6000611f66611f61611f5c84611323565b611f41565b611323565b9050919050565b6000611f7882611f4b565b9050919050565b6000611f8a82611f6d565b9050919050565b611f9a81611f7f565b82525050565b6000604082019050611fb56000830185611f91565b611fc26020830184611679565b9392505050565b60008115159050919050565b611fde81611fc9565b8114611fe957600080fd5b50565b600081519050611ffb81611fd5565b92915050565b6000602082840312156120175761201661121e565b5b600061202584828501611fec565b91505092915050565b7f4845584c41303131000000000000000000000000000000000000000000000000600082015250565b60006120646008836116a3565b915061206f8261202e565b602082019050919050565b6000602082019050818103600083015261209381612057565b9050919050565b600080833560016020038436030381126120b7576120b66117b2565b5b80840192508235915067ffffffffffffffff8211156120d9576120d86117b7565b5b6020830192506001820236038313156120f5576120f46117bc565b5b509250929050565b600081905092915050565b7f19457468657265756d205369676e6564204d6573736167653a0a333200000000600082015250565b600061213e601c836120fd565b915061214982612108565b601c82019050919050565b6000819050919050565b61216f61216a82611228565b612154565b82525050565b600061218082612131565b915061218c828461215e565b60208201915081905092915050565b7f4e487b7100000000000000000000000000000000000000000000000000000000600052602160045260246000fd5b7f45434453413a20696e76616c6964207369676e61747572650000000000000000600082015250565b60006122006018836116a3565b915061220b826121ca565b602082019050919050565b6000602082019050818103600083015261222f816121f3565b9050919050565b7f45434453413a20696e76616c6964207369676e6174757265206c656e67746800600082015250565b600061226c601f836116a3565b915061227782612236565b602082019050919050565b6000602082019050818103600083015261229b8161225f565b9050919050565b7f45434453413a20696e76616c6964207369676e6174757265202773272076616c60008201527f7565000000000000000000000000000000000000000000000000000000000000602082015250565b60006122fe6022836116a3565b9150612309826122a2565b604082019050919050565b6000602082019050818103600083015261232d816122f1565b9050919050565b600060ff82169050919050565b61234a81612334565b82525050565b600060808201905061236560008301876119e3565b6123726020830186612341565b61237f60408301856119e3565b61238c60608301846119e3565b9594505050505056fea26469706673582212209e940b9aeed6698cfc8d74dd2a550d82b86d38ae8654e8e7056136e513c7fa7464736f6c63430008080033",
  "devdoc": {
    "kind": "dev",
    "methods": {
      "owner()": {
        "returns": {
          "_0": "conrtact owner"
        }
      },
      "transferOwnership(address)": {
        "params": {
          "account": "address of new owner"
        }
      }
    },
    "version": 1
  },
  "userdoc": {
    "kind": "user",
    "methods": {
      "owner()": {
        "notice": "get the ERC173 contract owner"
      },
      "transferOwnership(address)": {
        "notice": "transfer contract ownership to new account"
      }
    },
    "version": 1
  },
  "storageLayout": {
    "storage": [
      {
        "astId": 2779,
        "contract": "contracts/account/AccountSimple.sol:AccountSimple",
        "label": "nonce_",
        "offset": 0,
        "slot": "0",
        "type": "t_uint256"
      }
    ],
    "types": {
      "t_uint256": {
        "encoding": "inplace",
        "label": "uint256",
        "numberOfBytes": "32"
      }
    }
  }
}