{
  "address": "0x71d153e9e7448a0c5b59458f2d5e4b81D1e7AfED",
  "abi": [
    {
      "inputs": [],
      "name": "Ownable__NotOwner",
      "type": "error"
    },
    {
      "inputs": [],
      "name": "Ownable__NotTransitiveOwner",
      "type": "error"
    },
    {
      "anonymous": false,
      "inputs": [
        {
          "indexed": true,
          "internalType": "bytes32",
          "name": "ref",
          "type": "bytes32"
        },
        {
          "indexed": true,
          "internalType": "address",
          "name": "receipt",
          "type": "address"
        },
        {
          "indexed": false,
          "internalType": "address",
          "name": "token",
          "type": "address"
        },
        {
          "indexed": false,
          "internalType": "uint256",
          "name": "amount",
          "type": "uint256"
        }
      ],
      "name": "Deposit",
      "type": "event"
    },
    {
      "anonymous": false,
      "inputs": [
        {
          "indexed": false,
          "internalType": "address",
          "name": "to",
          "type": "address"
        },
        {
          "indexed": false,
          "internalType": "uint256",
          "name": "payment",
          "type": "uint256"
        }
      ],
      "name": "GasPaid",
      "type": "event"
    },
    {
      "anonymous": false,
      "inputs": [
        {
          "indexed": true,
          "internalType": "address",
          "name": "previousOwner",
          "type": "address"
        },
        {
          "indexed": true,
          "internalType": "address",
          "name": "newOwner",
          "type": "address"
        }
      ],
      "name": "OwnershipTransferred",
      "type": "event"
    },
    {
      "stateMutability": "nonpayable",
      "type": "fallback"
    },
    {
      "inputs": [
        {
          "internalType": "bytes32",
          "name": "ref",
          "type": "bytes32"
        },
        {
          "internalType": "address",
          "name": "receipt",
          "type": "address"
        },
        {
          "internalType": "address",
          "name": "token",
          "type": "address"
        },
        {
          "internalType": "uint256",
          "name": "amount",
          "type": "uint256"
        }
      ],
      "name": "deposit",
      "outputs": [],
      "stateMutability": "nonpayable",
      "type": "function"
    },
    {
      "inputs": [
        {
          "components": [
            {
              "internalType": "address",
              "name": "to",
              "type": "address"
            },
            {
              "internalType": "uint256",
              "name": "value",
              "type": "uint256"
            },
            {
              "internalType": "bytes",
              "name": "callData",
              "type": "bytes"
            },
            {
              "internalType": "uint256",
              "name": "callGasLimit",
              "type": "uint256"
            }
          ],
          "internalType": "struct Op",
          "name": "op",
          "type": "tuple"
        }
      ],
      "name": "exec",
      "outputs": [],
      "stateMutability": "payable",
      "type": "function"
    },
    {
      "inputs": [
        {
          "components": [
            {
              "internalType": "address",
              "name": "to",
              "type": "address"
            },
            {
              "internalType": "uint256",
              "name": "value",
              "type": "uint256"
            },
            {
              "internalType": "bytes",
              "name": "callData",
              "type": "bytes"
            },
            {
              "internalType": "uint256",
              "name": "callGasLimit",
              "type": "uint256"
            }
          ],
          "internalType": "struct Op[]",
          "name": "ops",
          "type": "tuple[]"
        }
      ],
      "name": "execBatch",
      "outputs": [],
      "stateMutability": "payable",
      "type": "function"
    },
    {
      "inputs": [
        {
          "internalType": "address",
          "name": "owner",
          "type": "address"
        },
        {
          "internalType": "bytes",
          "name": "data",
          "type": "bytes"
        }
      ],
      "name": "init",
      "outputs": [],
      "stateMutability": "nonpayable",
      "type": "function"
    },
    {
      "inputs": [
        {
          "internalType": "bytes32",
          "name": "message",
          "type": "bytes32"
        },
        {
          "internalType": "bytes",
          "name": "signature",
          "type": "bytes"
        }
      ],
      "name": "isValidSignature",
      "outputs": [
        {
          "internalType": "bytes4",
          "name": "",
          "type": "bytes4"
        }
      ],
      "stateMutability": "view",
      "type": "function"
    },
    {
      "inputs": [],
      "name": "nonce",
      "outputs": [
        {
          "internalType": "uint256",
          "name": "",
          "type": "uint256"
        }
      ],
      "stateMutability": "view",
      "type": "function"
    },
    {
      "inputs": [],
      "name": "owner",
      "outputs": [
        {
          "internalType": "address",
          "name": "",
          "type": "address"
        }
      ],
      "stateMutability": "view",
      "type": "function"
    },
    {
      "inputs": [
        {
          "internalType": "address",
          "name": "account",
          "type": "address"
        }
      ],
      "name": "transferOwnership",
      "outputs": [],
      "stateMutability": "nonpayable",
      "type": "function"
    },
    {
      "inputs": [
        {
          "internalType": "bytes",
          "name": "txData",
          "type": "bytes"
        },
        {
          "internalType": "uint256",
          "name": "_nonce",
          "type": "uint256"
        },
        {
          "internalType": "bytes",
          "name": "signature",
          "type": "bytes"
        }
      ],
      "name": "validateAndCall",
      "outputs": [],
      "stateMutability": "payable",
      "type": "function"
    },
    {
      "inputs": [
        {
          "internalType": "bytes",
          "name": "txData",
          "type": "bytes"
        },
        {
          "internalType": "uint256",
          "name": "_nonce",
          "type": "uint256"
        },
        {
          "internalType": "bytes",
          "name": "signature",
          "type": "bytes"
        },
        {
          "components": [
            {
              "internalType": "address payable",
              "name": "receiver",
              "type": "address"
            },
            {
              "internalType": "address",
              "name": "token",
              "type": "address"
            },
            {
              "internalType": "uint256",
              "name": "baseGas",
              "type": "uint256"
            },
            {
              "internalType": "uint256",
              "name": "price",
              "type": "uint256"
            }
          ],
          "internalType": "struct GasPayer.GasPayment",
          "name": "gas",
          "type": "tuple"
        }
      ],
      "name": "validateAndCallWithGasRefund",
      "outputs": [],
      "stateMutability": "payable",
      "type": "function"
    },
    {
      "stateMutability": "payable",
      "type": "receive"
    }
  ],
  "transactionHash": "0xda255f6700995d7894a048696765c62e012bf348134858a79583029f82de281d",
  "args": [],
  "numDeployments": 11,
  "solcInputHash": "6eb898c61066bbee021036b5fed12ceb",
  "bytecode": "0x608060405234801561001057600080fd5b50612f0c806100206000396000f3fe6080604052600436106100955760003560e01c8063a8c9434611610059578063a8c94346146101bb578063affed0e0146101d7578063c0d91eaf14610202578063e5eb95841461022b578063f2fde38b146102545761009c565b80631626ba7e146100ff5780635117f8fd1461013c5780638479cc0f146101585780638c88d380146101745780638da5cb5b146101905761009c565b3661009c57005b3480156100a857600080fd5b5060003660606000357fffffffff00000000000000000000000000000000000000000000000000000000166040516020016100e3919061174b565b6040516020818303038152906040529050915050805190602001f35b34801561010b57600080fd5b5061012660048036038101906101219190611815565b61027d565b604051610133919061174b565b60405180910390f35b610156600480360381019061015191906118cf565b61029b565b005b610172600480360381019061016d91906119cc565b610405565b005b61018e60048036038101906101899190611a19565b610466565b005b34801561019c57600080fd5b506101a56105b1565b6040516101b29190611aef565b60405180910390f35b6101d560048036038101906101d09190611b29565b6105c0565b005b3480156101e357600080fd5b506101ec6105d4565b6040516101f99190611b81565b60405180910390f35b34801561020e57600080fd5b5061022960048036038101906102249190611d09565b6105dd565b005b34801561023757600080fd5b50610252600480360381019061024d9190611d65565b6106fa565b005b34801561026057600080fd5b5061027b60048036038101906102769190611dcc565b61082c565b005b600061028a8484846108a4565b631626ba7e60e01b90509392505050565b60005a905060008787600054856040516020016102bb9493929190611f5c565b604051602081830303815290604052805190602001209050856000808154809291906102e690611fcb565b919050551461032a576040517f08c379a000000000000000000000000000000000000000000000000000000000815260040161032190612071565b60405180910390fd5b6103358186866108a4565b60003073ffffffffffffffffffffffffffffffffffffffff16898960405161035e9291906120c1565b6000604051808303816000865af19150503d806000811461039b576040519150601f19603f3d011682016040523d82523d6000602084013e6103a0565b606091505b50509050806103e4576040517f08c379a00000000000000000000000000000000000000000000000000000000081526004016103db90612126565b60405180910390fd5b6103f9845a856103f49190612146565b610b66565b50505050505050505050565b61040d610e52565b600082829050905060005b818110156104605761044d8484838181106104365761043561217a565b5b905060200281019061044891906121b8565b610eff565b808061045890611fcb565b915050610418565b50505050565b6000858560005460405160200161047f939291906121e0565b604051602081830303815290604052805190602001209050836000808154809291906104aa90611fcb565b91905055146104ee576040517f08c379a00000000000000000000000000000000000000000000000000000000081526004016104e590612071565b60405180910390fd5b6104f98184846108a4565b60003073ffffffffffffffffffffffffffffffffffffffff1687876040516105229291906120c1565b6000604051808303816000865af19150503d806000811461055f576040519150601f19603f3d011682016040523d82523d6000602084013e610564565b606091505b50509050806105a8576040517f08c379a000000000000000000000000000000000000000000000000000000000815260040161059f90612126565b60405180910390fd5b50505050505050565b60006105bb610ff5565b905090565b6105c8610e52565b6105d181610eff565b50565b60008054905090565b600073ffffffffffffffffffffffffffffffffffffffff166105fd610ff5565b73ffffffffffffffffffffffffffffffffffffffff1614801561064d5750600073ffffffffffffffffffffffffffffffffffffffff168273ffffffffffffffffffffffffffffffffffffffff1614155b61068c576040517f08c379a00000000000000000000000000000000000000000000000000000000081526004016106839061225e565b60405180910390fd5b61069582611028565b6106f5816040518060400160405280600781526020017f4845584c303133000000000000000000000000000000000000000000000000008152503073ffffffffffffffffffffffffffffffffffffffff166110349092919063ffffffff16565b505050565b610702610e52565b600073ffffffffffffffffffffffffffffffffffffffff168273ffffffffffffffffffffffffffffffffffffffff16141561074657610741838261104c565b6107d5565b8173ffffffffffffffffffffffffffffffffffffffff1663a9059cbb84836040518363ffffffff1660e01b815260040161078192919061227e565b602060405180830381600087803b15801561079b57600080fd5b505af11580156107af573d6000803e3d6000fd5b505050506040513d601f19601f820116820180604052508101906107d391906122df565b505b8273ffffffffffffffffffffffffffffffffffffffff16847fc95ddcaddf83340b68d0d44c01b1703f5d28d0611a3fd87e69d79ba7e2ac21d3848460405161081e92919061227e565b60405180910390a350505050565b610834610ff5565b73ffffffffffffffffffffffffffffffffffffffff163373ffffffffffffffffffffffffffffffffffffffff1614610898576040517f2f7a8ee100000000000000000000000000000000000000000000000000000000815260040160405180910390fd5b6108a181611028565b50565b60006108ae6105b1565b905060006108bb85611140565b90506108dc8273ffffffffffffffffffffffffffffffffffffffff16611170565b15610a9a578173ffffffffffffffffffffffffffffffffffffffff16631626ba7e8286866040518463ffffffff1660e01b815260040161091e9392919061231b565b60206040518083038186803b15801561093657600080fd5b505afa92505050801561096757506040513d601f19601f820116820180604052508101906109649190612379565b60015b610a0d576109736123b3565b806308c379a014156109d057506109886123d5565b8061099357506109d2565b806040517f08c379a00000000000000000000000000000000000000000000000000000000081526004016109c791906124e2565b60405180910390fd5b505b6040517f08c379a0000000000000000000000000000000000000000000000000000000008152600401610a0490612550565b60405180910390fd5b631626ba7e60e01b7bffffffffffffffffffffffffffffffffffffffffffffffffffffffff1916817bffffffffffffffffffffffffffffffffffffffffffffffffffffffff191614610a94576040517f08c379a0000000000000000000000000000000000000000000000000000000008152600401610a8b906125bc565b60405180910390fd5b50610b5f565b610af184848080601f016020809104026020016040519081016040528093929190818152602001838380828437600081840152601f19601f820116905080830192505050505050508261119390919063ffffffff16565b73ffffffffffffffffffffffffffffffffffffffff168273ffffffffffffffffffffffffffffffffffffffff1614610b5e576040517f08c379a0000000000000000000000000000000000000000000000000000000008152600401610b5590612628565b60405180910390fd5b5b5050505050565b60008073ffffffffffffffffffffffffffffffffffffffff16836000016020810190610b929190612648565b73ffffffffffffffffffffffffffffffffffffffff161415610be9576040517f08c379a0000000000000000000000000000000000000000000000000000000008152600401610be0906126c1565b60405180910390fd5b62013880836040013583610bfd91906126e1565b610c0791906126e1565b9150600073ffffffffffffffffffffffffffffffffffffffff16836020016020810190610c349190611dcc565b73ffffffffffffffffffffffffffffffffffffffff161415610d22573a82610c5c9190612737565b90506000836000016020810190610c739190612648565b73ffffffffffffffffffffffffffffffffffffffff1682604051610c96906127b7565b60006040518083038185875af1925050503d8060008114610cd3576040519150601f19603f3d011682016040523d82523d6000602084013e610cd8565b606091505b5050905080610d1c576040517f08c379a0000000000000000000000000000000000000000000000000000000008152600401610d1390612818565b60405180910390fd5b50610e01565b633b9aca0083606001353a84610d389190612737565b610d429190612737565b610d4c9190612867565b9050826020016020810190610d619190611dcc565b73ffffffffffffffffffffffffffffffffffffffff1663a9059cbb846000016020810190610d8f9190612648565b836040518363ffffffff1660e01b8152600401610dad9291906128f7565b602060405180830381600087803b158015610dc757600080fd5b505af1158015610ddb573d6000803e3d6000fd5b505050506040513d601f19601f82011682018060405250810190610dff91906122df565b505b7f9472b7566e62841cb1b5595f7c1d891a3ed4fce14f99ab26df8991e5737d7feb836000016020810190610e359190612648565b82604051610e449291906128f7565b60405180910390a192915050565b610e5a6105b1565b73ffffffffffffffffffffffffffffffffffffffff163373ffffffffffffffffffffffffffffffffffffffff161480610ebe57503073ffffffffffffffffffffffffffffffffffffffff163373ffffffffffffffffffffffffffffffffffffffff16145b610efd576040517f08c379a0000000000000000000000000000000000000000000000000000000008152600401610ef49061296c565b60405180910390fd5b565b600080826000016020810190610f159190611dcc565b73ffffffffffffffffffffffffffffffffffffffff1683602001356000856060013514610f46578460600135610f48565b5a5b90858060400190610f59919061298c565b604051610f679291906120c1565b600060405180830381858888f193505050503d8060008114610fa5576040519150601f19603f3d011682016040523d82523d6000602084013e610faa565b606091505b5091509150610fef82826040518060400160405280600881526020017f4845584c413030310000000000000000000000000000000000000000000000008152506111ba565b50505050565b6000610fff6111dc565b60000160009054906101000a900473ffffffffffffffffffffffffffffffffffffffff16905090565b61103181611209565b50565b606061104384846000856112da565b90509392505050565b8047101561108f576040517f08c379a000000000000000000000000000000000000000000000000000000000815260040161108690612a3b565b60405180910390fd5b60008273ffffffffffffffffffffffffffffffffffffffff16826040516110b5906127b7565b60006040518083038185875af1925050503d80600081146110f2576040519150601f19603f3d011682016040523d82523d6000602084013e6110f7565b606091505b505090508061113b576040517f08c379a000000000000000000000000000000000000000000000000000000000815260040161113290612acd565b60405180910390fd5b505050565b6000816040516020016111539190612b65565b604051602081830303815290604052805190602001209050919050565b6000808273ffffffffffffffffffffffffffffffffffffffff163b119050919050565b60008060006111a285856113a7565b915091506111af816113f9565b819250505092915050565b606083156111ca578290506111d5565b6111d48383611567565b5b9392505050565b6000807f8a22373512790c48b83a1fe2efdd2888d4a917bcdc24d0adf63e60f67168046090508091505090565b60006112136111dc565b90508173ffffffffffffffffffffffffffffffffffffffff168160000160009054906101000a900473ffffffffffffffffffffffffffffffffffffffff1673ffffffffffffffffffffffffffffffffffffffff167f8be0079c531659141344cd1fd0a4f28419497f9722a3daafe3b4186f6b6457e060405160405180910390a3818160000160006101000a81548173ffffffffffffffffffffffffffffffffffffffff021916908373ffffffffffffffffffffffffffffffffffffffff1602179055505050565b60608247101561131f576040517f08c379a000000000000000000000000000000000000000000000000000000000815260040161131690612bfd565b60405180910390fd5b6000808673ffffffffffffffffffffffffffffffffffffffff1685876040516113489190612c59565b60006040518083038185875af1925050503d8060008114611385576040519150601f19603f3d011682016040523d82523d6000602084013e61138a565b606091505b509150915061139b878383876115b7565b92505050949350505050565b6000806041835114156113e95760008060006020860151925060408601519150606086015160001a90506113dd8782858561162d565b945094505050506113f2565b60006002915091505b9250929050565b6000600481111561140d5761140c612c70565b5b8160048111156114205761141f612c70565b5b141561142b57611564565b6001600481111561143f5761143e612c70565b5b81600481111561145257611451612c70565b5b1415611493576040517f08c379a000000000000000000000000000000000000000000000000000000000815260040161148a90612ceb565b60405180910390fd5b600260048111156114a7576114a6612c70565b5b8160048111156114ba576114b9612c70565b5b14156114fb576040517f08c379a00000000000000000000000000000000000000000000000000000000081526004016114f290612d57565b60405180910390fd5b6003600481111561150f5761150e612c70565b5b81600481111561152257611521612c70565b5b1415611563576040517f08c379a000000000000000000000000000000000000000000000000000000000815260040161155a90612de9565b60405180910390fd5b5b50565b60008251111561157a5781518083602001fd5b806040517f08c379a00000000000000000000000000000000000000000000000000000000081526004016115ae91906124e2565b60405180910390fd5b6060831561161a57600083511415611612576115d285611170565b611611576040517f08c379a000000000000000000000000000000000000000000000000000000000815260040161160890612e55565b60405180910390fd5b5b829050611625565b6116248383611567565b5b949350505050565b6000807f7fffffffffffffffffffffffffffffff5d576e7357a4501ddfe92f46681b20a08360001c1115611668576000600391509150611707565b60006001878787876040516000815260200160405260405161168d9493929190612e91565b6020604051602081039080840390855afa1580156116af573d6000803e3d6000fd5b505050602060405103519050600073ffffffffffffffffffffffffffffffffffffffff168173ffffffffffffffffffffffffffffffffffffffff1614156116fe57600060019250925050611707565b80600092509250505b94509492505050565b60007fffffffff0000000000000000000000000000000000000000000000000000000082169050919050565b61174581611710565b82525050565b6000602082019050611760600083018461173c565b92915050565b6000604051905090565b600080fd5b600080fd5b6000819050919050565b61178d8161177a565b811461179857600080fd5b50565b6000813590506117aa81611784565b92915050565b600080fd5b600080fd5b600080fd5b60008083601f8401126117d5576117d46117b0565b5b8235905067ffffffffffffffff8111156117f2576117f16117b5565b5b60208301915083600182028301111561180e5761180d6117ba565b5b9250929050565b60008060006040848603121561182e5761182d611770565b5b600061183c8682870161179b565b935050602084013567ffffffffffffffff81111561185d5761185c611775565b5b611869868287016117bf565b92509250509250925092565b6000819050919050565b61188881611875565b811461189357600080fd5b50565b6000813590506118a58161187f565b92915050565b600080fd5b6000608082840312156118c6576118c56118ab565b5b81905092915050565b60008060008060008060e087890312156118ec576118eb611770565b5b600087013567ffffffffffffffff81111561190a57611909611775565b5b61191689828a016117bf565b9650965050602061192989828a01611896565b945050604087013567ffffffffffffffff81111561194a57611949611775565b5b61195689828a016117bf565b9350935050606061196989828a016118b0565b9150509295509295509295565b60008083601f84011261198c5761198b6117b0565b5b8235905067ffffffffffffffff8111156119a9576119a86117b5565b5b6020830191508360208202830111156119c5576119c46117ba565b5b9250929050565b600080602083850312156119e3576119e2611770565b5b600083013567ffffffffffffffff811115611a0157611a00611775565b5b611a0d85828601611976565b92509250509250929050565b600080600080600060608688031215611a3557611a34611770565b5b600086013567ffffffffffffffff811115611a5357611a52611775565b5b611a5f888289016117bf565b95509550506020611a7288828901611896565b935050604086013567ffffffffffffffff811115611a9357611a92611775565b5b611a9f888289016117bf565b92509250509295509295909350565b600073ffffffffffffffffffffffffffffffffffffffff82169050919050565b6000611ad982611aae565b9050919050565b611ae981611ace565b82525050565b6000602082019050611b046000830184611ae0565b92915050565b600060808284031215611b2057611b1f6118ab565b5b81905092915050565b600060208284031215611b3f57611b3e611770565b5b600082013567ffffffffffffffff811115611b5d57611b5c611775565b5b611b6984828501611b0a565b91505092915050565b611b7b81611875565b82525050565b6000602082019050611b966000830184611b72565b92915050565b611ba581611ace565b8114611bb057600080fd5b50565b600081359050611bc281611b9c565b92915050565b600080fd5b6000601f19601f8301169050919050565b7f4e487b7100000000000000000000000000000000000000000000000000000000600052604160045260246000fd5b611c1682611bcd565b810181811067ffffffffffffffff82111715611c3557611c34611bde565b5b80604052505050565b6000611c48611766565b9050611c548282611c0d565b919050565b600067ffffffffffffffff821115611c7457611c73611bde565b5b611c7d82611bcd565b9050602081019050919050565b82818337600083830152505050565b6000611cac611ca784611c59565b611c3e565b905082815260208101848484011115611cc857611cc7611bc8565b5b611cd3848285611c8a565b509392505050565b600082601f830112611cf057611cef6117b0565b5b8135611d00848260208601611c99565b91505092915050565b60008060408385031215611d2057611d1f611770565b5b6000611d2e85828601611bb3565b925050602083013567ffffffffffffffff811115611d4f57611d4e611775565b5b611d5b85828601611cdb565b9150509250929050565b60008060008060808587031215611d7f57611d7e611770565b5b6000611d8d8782880161179b565b9450506020611d9e87828801611bb3565b9350506040611daf87828801611bb3565b9250506060611dc087828801611896565b91505092959194509250565b600060208284031215611de257611de1611770565b5b6000611df084828501611bb3565b91505092915050565b600082825260208201905092915050565b6000611e168385611df9565b9350611e23838584611c8a565b611e2c83611bcd565b840190509392505050565b6000611e4282611aae565b9050919050565b611e5281611e37565b8114611e5d57600080fd5b50565b600081359050611e6f81611e49565b92915050565b6000611e846020840184611e60565b905092915050565b611e9581611e37565b82525050565b6000611eaa6020840184611bb3565b905092915050565b611ebb81611ace565b82525050565b6000611ed06020840184611896565b905092915050565b611ee181611875565b82525050565b60808201611ef86000830183611e75565b611f056000850182611e8c565b50611f136020830183611e9b565b611f206020850182611eb2565b50611f2e6040830183611ec1565b611f3b6040850182611ed8565b50611f496060830183611ec1565b611f566060850182611ed8565b50505050565b600060c0820190508181036000830152611f77818688611e0a565b9050611f866020830185611b72565b611f936040830184611ee7565b95945050505050565b7f4e487b7100000000000000000000000000000000000000000000000000000000600052601160045260246000fd5b6000611fd682611875565b91507fffffffffffffffffffffffffffffffffffffffffffffffffffffffffffffffff82141561200957612008611f9c565b5b600182019050919050565b600082825260208201905092915050565b7f4845584c41303038000000000000000000000000000000000000000000000000600082015250565b600061205b600883612014565b915061206682612025565b602082019050919050565b6000602082019050818103600083015261208a8161204e565b9050919050565b600081905092915050565b60006120a88385612091565b93506120b5838584611c8a565b82840190509392505050565b60006120ce82848661209c565b91508190509392505050565b7f4845584c41303039000000000000000000000000000000000000000000000000600082015250565b6000612110600883612014565b915061211b826120da565b602082019050919050565b6000602082019050818103600083015261213f81612103565b9050919050565b600061215182611875565b915061215c83611875565b92508282101561216f5761216e611f9c565b5b828203905092915050565b7f4e487b7100000000000000000000000000000000000000000000000000000000600052603260045260246000fd5b600080fd5b600080fd5b600080fd5b6000823560016080038336030381126121d4576121d36121a9565b5b80830191505092915050565b600060408201905081810360008301526121fb818587611e0a565b905061220a6020830184611b72565b949350505050565b7f4845584c30313500000000000000000000000000000000000000000000000000600082015250565b6000612248600783612014565b915061225382612212565b602082019050919050565b600060208201905081810360008301526122778161223b565b9050919050565b60006040820190506122936000830185611ae0565b6122a06020830184611b72565b9392505050565b60008115159050919050565b6122bc816122a7565b81146122c757600080fd5b50565b6000815190506122d9816122b3565b92915050565b6000602082840312156122f5576122f4611770565b5b6000612303848285016122ca565b91505092915050565b6123158161177a565b82525050565b6000604082019050612330600083018661230c565b8181036020830152612343818486611e0a565b9050949350505050565b61235681611710565b811461236157600080fd5b50565b6000815190506123738161234d565b92915050565b60006020828403121561238f5761238e611770565b5b600061239d84828501612364565b91505092915050565b60008160e01c9050919050565b600060033d11156123d25760046000803e6123cf6000516123a6565b90505b90565b600060443d10156123e557612468565b6123ed611766565b60043d036004823e80513d602482011167ffffffffffffffff82111715612415575050612468565b808201805167ffffffffffffffff8111156124335750505050612468565b80602083010160043d038501811115612450575050505050612468565b61245f82602001850186611c0d565b82955050505050505b90565b600081519050919050565b60005b83811015612494578082015181840152602081019050612479565b838111156124a3576000848401525b50505050565b60006124b48261246b565b6124be8185612014565b93506124ce818560208601612476565b6124d781611bcd565b840191505092915050565b600060208201905081810360008301526124fc81846124a9565b905092915050565b7f4845584c41303033000000000000000000000000000000000000000000000000600082015250565b600061253a600883612014565b915061254582612504565b602082019050919050565b600060208201905081810360008301526125698161252d565b9050919050565b7f4845584c41303032000000000000000000000000000000000000000000000000600082015250565b60006125a6600883612014565b91506125b182612570565b602082019050919050565b600060208201905081810360008301526125d581612599565b9050919050565b7f4845584c41303034000000000000000000000000000000000000000000000000600082015250565b6000612612600883612014565b915061261d826125dc565b602082019050919050565b6000602082019050818103600083015261264181612605565b9050919050565b60006020828403121561265e5761265d611770565b5b600061266c84828501611e60565b91505092915050565b7f4845584c41303134000000000000000000000000000000000000000000000000600082015250565b60006126ab600883612014565b91506126b682612675565b602082019050919050565b600060208201905081810360008301526126da8161269e565b9050919050565b60006126ec82611875565b91506126f783611875565b9250827fffffffffffffffffffffffffffffffffffffffffffffffffffffffffffffffff0382111561272c5761272b611f9c565b5b828201905092915050565b600061274282611875565b915061274d83611875565b9250817fffffffffffffffffffffffffffffffffffffffffffffffffffffffffffffffff048311821515161561278657612785611f9c565b5b828202905092915050565b50565b60006127a1600083612091565b91506127ac82612791565b600082019050919050565b60006127c282612794565b9150819050919050565b7f4845584c30323000000000000000000000000000000000000000000000000000600082015250565b6000612802600783612014565b915061280d826127cc565b602082019050919050565b60006020820190508181036000830152612831816127f5565b9050919050565b7f4e487b7100000000000000000000000000000000000000000000000000000000600052601260045260246000fd5b600061287282611875565b915061287d83611875565b92508261288d5761288c612838565b5b828204905092915050565b6000819050919050565b60006128bd6128b86128b384611aae565b612898565b611aae565b9050919050565b60006128cf826128a2565b9050919050565b60006128e1826128c4565b9050919050565b6128f1816128d6565b82525050565b600060408201905061290c60008301856128e8565b6129196020830184611b72565b9392505050565b7f4845584c41303131000000000000000000000000000000000000000000000000600082015250565b6000612956600883612014565b915061296182612920565b602082019050919050565b6000602082019050818103600083015261298581612949565b9050919050565b600080833560016020038436030381126129a9576129a86121a9565b5b80840192508235915067ffffffffffffffff8211156129cb576129ca6121ae565b5b6020830192506001820236038313156129e7576129e66121b3565b5b509250929050565b7f416464726573733a20696e73756666696369656e742062616c616e6365000000600082015250565b6000612a25601d83612014565b9150612a30826129ef565b602082019050919050565b60006020820190508181036000830152612a5481612a18565b9050919050565b7f416464726573733a20756e61626c6520746f2073656e642076616c75652c207260008201527f6563697069656e74206d61792068617665207265766572746564000000000000602082015250565b6000612ab7603a83612014565b9150612ac282612a5b565b604082019050919050565b60006020820190508181036000830152612ae681612aaa565b9050919050565b600081905092915050565b7f19457468657265756d205369676e6564204d6573736167653a0a333200000000600082015250565b6000612b2e601c83612aed565b9150612b3982612af8565b601c82019050919050565b6000819050919050565b612b5f612b5a8261177a565b612b44565b82525050565b6000612b7082612b21565b9150612b7c8284612b4e565b60208201915081905092915050565b7f416464726573733a20696e73756666696369656e742062616c616e636520666f60008201527f722063616c6c0000000000000000000000000000000000000000000000000000602082015250565b6000612be7602683612014565b9150612bf282612b8b565b604082019050919050565b60006020820190508181036000830152612c1681612bda565b9050919050565b600081519050919050565b6000612c3382612c1d565b612c3d8185612091565b9350612c4d818560208601612476565b80840191505092915050565b6000612c658284612c28565b915081905092915050565b7f4e487b7100000000000000000000000000000000000000000000000000000000600052602160045260246000fd5b7f45434453413a20696e76616c6964207369676e61747572650000000000000000600082015250565b6000612cd5601883612014565b9150612ce082612c9f565b602082019050919050565b60006020820190508181036000830152612d0481612cc8565b9050919050565b7f45434453413a20696e76616c6964207369676e6174757265206c656e67746800600082015250565b6000612d41601f83612014565b9150612d4c82612d0b565b602082019050919050565b60006020820190508181036000830152612d7081612d34565b9050919050565b7f45434453413a20696e76616c6964207369676e6174757265202773272076616c60008201527f7565000000000000000000000000000000000000000000000000000000000000602082015250565b6000612dd3602283612014565b9150612dde82612d77565b604082019050919050565b60006020820190508181036000830152612e0281612dc6565b9050919050565b7f416464726573733a2063616c6c20746f206e6f6e2d636f6e7472616374000000600082015250565b6000612e3f601d83612014565b9150612e4a82612e09565b602082019050919050565b60006020820190508181036000830152612e6e81612e32565b9050919050565b600060ff82169050919050565b612e8b81612e75565b82525050565b6000608082019050612ea6600083018761230c565b612eb36020830186612e82565b612ec0604083018561230c565b612ecd606083018461230c565b9594505050505056fea264697066735822122038988bd68adc1e50b4b6fc609adf965b81ab213486c0d5f31116ebe515b47ab964736f6c63430008080033",
  "devdoc": {
    "kind": "dev",
    "methods": {
      "owner()": {
        "returns": {
          "_0": "conrtact owner"
        }
      },
      "transferOwnership(address)": {
        "params": {
          "account": "address of new owner"
        }
      }
    },
    "version": 1
  },
  "userdoc": {
    "kind": "user",
    "methods": {
      "owner()": {
        "notice": "get the ERC173 contract owner"
      },
      "transferOwnership(address)": {
        "notice": "transfer contract ownership to new account"
      }
    },
    "version": 1
  },
  "storageLayout": {
    "storage": [
      {
        "astId": 2843,
        "contract": "contracts/account/AccountSimple.sol:AccountSimple",
        "label": "nonce_",
        "offset": 0,
        "slot": "0",
        "type": "t_uint256"
      }
    ],
    "types": {
      "t_uint256": {
        "encoding": "inplace",
        "label": "uint256",
        "numberOfBytes": "32"
      }
    }
  }
}