{
  "address": "0x33D6b15d2fd5fcAF0D4C4Eb96801d92A921625b1",
  "abi": [
    {
      "anonymous": false,
      "inputs": [
        {
          "indexed": false,
          "internalType": "address",
          "name": "previousAdmin",
          "type": "address"
        },
        {
          "indexed": false,
          "internalType": "address",
          "name": "newAdmin",
          "type": "address"
        }
      ],
      "name": "AdminChanged",
      "type": "event"
    },
    {
      "anonymous": false,
      "inputs": [
        {
          "indexed": true,
          "internalType": "address",
          "name": "beacon",
          "type": "address"
        }
      ],
      "name": "BeaconUpgraded",
      "type": "event"
    },
    {
      "anonymous": false,
      "inputs": [
        {
          "indexed": true,
          "internalType": "bytes32",
          "name": "PacketId",
          "type": "bytes32"
        },
        {
          "indexed": false,
          "internalType": "address",
          "name": "claimer",
          "type": "address"
        },
        {
          "indexed": false,
          "internalType": "uint256",
          "name": "amount",
          "type": "uint256"
        }
      ],
      "name": "Claimed",
      "type": "event"
    },
    {
      "anonymous": false,
      "inputs": [
        {
          "indexed": true,
          "internalType": "bytes32",
          "name": "PacketId",
          "type": "bytes32"
        },
        {
          "indexed": false,
          "internalType": "address",
          "name": "creator",
          "type": "address"
        },
        {
          "components": [
            {
              "internalType": "address",
              "name": "token",
              "type": "address"
            },
            {
              "internalType": "bytes32",
              "name": "salt",
              "type": "bytes32"
            },
            {
              "internalType": "uint256",
              "name": "balance",
              "type": "uint256"
            },
            {
              "internalType": "address",
              "name": "validator",
              "type": "address"
            },
            {
              "internalType": "uint32",
              "name": "split",
              "type": "uint32"
            },
            {
              "internalType": "uint8",
              "name": "mode",
              "type": "uint8"
            }
          ],
          "indexed": false,
          "internalType": "struct HappyRedPacket.RedPacketData",
          "name": "packet",
          "type": "tuple"
        }
      ],
      "name": "Created",
      "type": "event"
    },
    {
      "anonymous": false,
      "inputs": [
        {
          "indexed": true,
          "internalType": "address",
          "name": "previousOwner",
          "type": "address"
        },
        {
          "indexed": true,
          "internalType": "address",
          "name": "newOwner",
          "type": "address"
        }
      ],
      "name": "OwnershipTransferred",
      "type": "event"
    },
    {
      "anonymous": false,
      "inputs": [
        {
          "indexed": true,
          "internalType": "address",
          "name": "implementation",
          "type": "address"
        }
      ],
      "name": "Upgraded",
      "type": "event"
    },
    {
      "inputs": [
        {
          "internalType": "address",
          "name": "creator",
          "type": "address"
        },
        {
          "components": [
            {
              "internalType": "address",
              "name": "token",
              "type": "address"
            },
            {
              "internalType": "bytes32",
              "name": "salt",
              "type": "bytes32"
            },
            {
              "internalType": "uint256",
              "name": "balance",
              "type": "uint256"
            },
            {
              "internalType": "address",
              "name": "validator",
              "type": "address"
            },
            {
              "internalType": "uint32",
              "name": "split",
              "type": "uint32"
            },
            {
              "internalType": "uint8",
              "name": "mode",
              "type": "uint8"
            }
          ],
          "internalType": "struct HappyRedPacket.RedPacketData",
          "name": "pd",
          "type": "tuple"
        },
        {
          "internalType": "address",
          "name": "claimer",
          "type": "address"
        },
        {
          "internalType": "bytes",
          "name": "signature",
          "type": "bytes"
        }
      ],
      "name": "claim",
      "outputs": [],
      "stateMutability": "nonpayable",
      "type": "function"
    },
    {
      "inputs": [
        {
          "internalType": "address",
          "name": "creator",
          "type": "address"
        },
        {
          "components": [
            {
              "internalType": "address",
              "name": "token",
              "type": "address"
            },
            {
              "internalType": "bytes32",
              "name": "salt",
              "type": "bytes32"
            },
            {
              "internalType": "uint256",
              "name": "balance",
              "type": "uint256"
            },
            {
              "internalType": "address",
              "name": "validator",
              "type": "address"
            },
            {
              "internalType": "uint32",
              "name": "split",
              "type": "uint32"
            },
            {
              "internalType": "uint8",
              "name": "mode",
              "type": "uint8"
            }
          ],
          "internalType": "struct HappyRedPacket.RedPacketData",
          "name": "pd",
          "type": "tuple"
        },
        {
          "internalType": "address",
          "name": "claimer",
          "type": "address"
        }
      ],
      "name": "claimWithoutSignature",
      "outputs": [],
      "stateMutability": "nonpayable",
      "type": "function"
    },
    {
      "inputs": [
        {
          "components": [
            {
              "internalType": "address",
              "name": "token",
              "type": "address"
            },
            {
              "internalType": "bytes32",
              "name": "salt",
              "type": "bytes32"
            },
            {
              "internalType": "uint256",
              "name": "balance",
              "type": "uint256"
            },
            {
              "internalType": "address",
              "name": "validator",
              "type": "address"
            },
            {
              "internalType": "uint32",
              "name": "split",
              "type": "uint32"
            },
            {
              "internalType": "uint8",
              "name": "mode",
              "type": "uint8"
            }
          ],
          "internalType": "struct HappyRedPacket.RedPacketData",
          "name": "pd",
          "type": "tuple"
        }
      ],
      "name": "create",
      "outputs": [],
      "stateMutability": "payable",
      "type": "function"
    },
    {
      "inputs": [
        {
          "internalType": "address",
          "name": "creator",
          "type": "address"
        },
        {
          "components": [
            {
              "internalType": "address",
              "name": "token",
              "type": "address"
            },
            {
              "internalType": "bytes32",
              "name": "salt",
              "type": "bytes32"
            },
            {
              "internalType": "uint256",
              "name": "balance",
              "type": "uint256"
            },
            {
              "internalType": "address",
              "name": "validator",
              "type": "address"
            },
            {
              "internalType": "uint32",
              "name": "split",
              "type": "uint32"
            },
            {
              "internalType": "uint8",
              "name": "mode",
              "type": "uint8"
            }
          ],
          "internalType": "struct HappyRedPacket.RedPacketData",
          "name": "pd",
          "type": "tuple"
        }
      ],
      "name": "getPacket",
      "outputs": [
        {
          "components": [
            {
              "internalType": "uint256",
              "name": "createdAt",
              "type": "uint256"
            },
            {
              "internalType": "uint256",
              "name": "balance",
              "type": "uint256"
            },
            {
              "internalType": "uint32",
              "name": "split",
              "type": "uint32"
            }
          ],
          "internalType": "struct HappyRedPacket.RedPacket",
          "name": "",
          "type": "tuple"
        }
      ],
      "stateMutability": "view",
      "type": "function"
    },
    {
      "inputs": [],
      "name": "implementation",
      "outputs": [
        {
          "internalType": "address",
          "name": "",
          "type": "address"
        }
      ],
      "stateMutability": "view",
      "type": "function"
    },
    {
      "inputs": [
        {
          "internalType": "address",
          "name": "newOwner",
          "type": "address"
        }
      ],
      "name": "initOwner",
      "outputs": [],
      "stateMutability": "nonpayable",
      "type": "function"
    },
    {
      "inputs": [],
      "name": "owner",
      "outputs": [
        {
          "internalType": "address",
          "name": "",
          "type": "address"
        }
      ],
      "stateMutability": "view",
      "type": "function"
    },
    {
      "inputs": [],
      "name": "proxiableUUID",
      "outputs": [
        {
          "internalType": "bytes32",
          "name": "",
          "type": "bytes32"
        }
      ],
      "stateMutability": "view",
      "type": "function"
    },
    {
      "inputs": [
        {
          "components": [
            {
              "internalType": "address",
              "name": "token",
              "type": "address"
            },
            {
              "internalType": "bytes32",
              "name": "salt",
              "type": "bytes32"
            },
            {
              "internalType": "uint256",
              "name": "balance",
              "type": "uint256"
            },
            {
              "internalType": "address",
              "name": "validator",
              "type": "address"
            },
            {
              "internalType": "uint32",
              "name": "split",
              "type": "uint32"
            },
            {
              "internalType": "uint8",
              "name": "mode",
              "type": "uint8"
            }
          ],
          "internalType": "struct HappyRedPacket.RedPacketData",
          "name": "pd",
          "type": "tuple"
        }
      ],
      "name": "refund",
      "outputs": [],
      "stateMutability": "nonpayable",
      "type": "function"
    },
    {
      "inputs": [],
      "name": "renounceOwnership",
      "outputs": [],
      "stateMutability": "nonpayable",
      "type": "function"
    },
    {
      "inputs": [
        {
          "internalType": "address",
          "name": "newOwner",
          "type": "address"
        }
      ],
      "name": "transferOwnership",
      "outputs": [],
      "stateMutability": "nonpayable",
      "type": "function"
    },
    {
      "inputs": [
        {
          "internalType": "address",
          "name": "newImplementation",
          "type": "address"
        }
      ],
      "name": "upgradeTo",
      "outputs": [],
      "stateMutability": "nonpayable",
      "type": "function"
    },
    {
      "inputs": [
        {
          "internalType": "address",
          "name": "newImplementation",
          "type": "address"
        },
        {
          "internalType": "bytes",
          "name": "data",
          "type": "bytes"
        }
      ],
      "name": "upgradeToAndCall",
      "outputs": [],
      "stateMutability": "payable",
      "type": "function"
    }
  ],
  "transactionHash": "0xa103df5bdca40de49daa791138ea7078198b6ada4b02b1d4cfe4aa342d200df0",
  "args": [],
  "numDeployments": 9,
  "solcInputHash": "c986ce35b78ea6179a042b62444c075d",
  "bytecode": "0x60a06040523073ffffffffffffffffffffffffffffffffffffffff1660809073ffffffffffffffffffffffffffffffffffffffff1660601b8152503480156200004757600080fd5b50620000686200005c6200006e60201b60201c565b6200007660201b60201c565b6200013a565b600033905090565b60008060009054906101000a900473ffffffffffffffffffffffffffffffffffffffff169050816000806101000a81548173ffffffffffffffffffffffffffffffffffffffff021916908373ffffffffffffffffffffffffffffffffffffffff1602179055508173ffffffffffffffffffffffffffffffffffffffff168173ffffffffffffffffffffffffffffffffffffffff167f8be0079c531659141344cd1fd0a4f28419497f9722a3daafe3b4186f6b6457e060405160405180910390a35050565b60805160601c61374862000175600039600081816104fb0152818161058a015281816106840152818161071301526107c301526137486000f3fe6080604052600436106100c25760003560e01c8063715018a61161007f578063b547ca1511610059578063b547ca151461021f578063eed46b6f1461025c578063ef2370a914610285578063f2fde38b146102a1576100c2565b8063715018a6146101b45780638da5cb5b146101cb578063aac52f06146101f6576100c2565b806307988198146100c75780630d009297146100f05780633659cfe6146101195780634f1ef2861461014257806352d1902d1461015e5780635c60da1b14610189575b600080fd5b3480156100d357600080fd5b506100ee60048036038101906100e99190611eb0565b6102ca565b005b3480156100fc57600080fd5b5061011760048036038101906101129190611f3a565b610407565b005b34801561012557600080fd5b50610140600480360381019061013b9190611f3a565b6104f9565b005b61015c600480360381019061015791906120a8565b610682565b005b34801561016a57600080fd5b506101736107bf565b604051610180919061211d565b60405180910390f35b34801561019557600080fd5b5061019e610878565b6040516101ab9190612147565b60405180910390f35b3480156101c057600080fd5b506101c9610887565b005b3480156101d757600080fd5b506101e061089b565b6040516101ed9190612147565b60405180910390f35b34801561020257600080fd5b5061021d60048036038101906102189190612162565b6108c4565b005b34801561022b57600080fd5b50610246600480360381019061024191906121b6565b61096d565b6040516102539190612270565b60405180910390f35b34801561026857600080fd5b50610283600480360381019061027e919061228b565b6109e4565b005b61029f600480360381019061029a919061228b565b610aab565b005b3480156102ad57600080fd5b506102c860048036038101906102c39190611f3a565b610dbb565b005b60006102d68686610e3f565b90506102e28185610e76565b600081856040516020016102f79291906122b8565b604051602081830303815290604052805190602001209050600061031a82610f75565b905061037385858080601f016020809104026020016040519081016040528093929190818152602001838380828437600081840152601f19601f8201169050808301925050505050505082610fa590919063ffffffff16565b73ffffffffffffffffffffffffffffffffffffffff1687606001602081019061039c9190611f3a565b73ffffffffffffffffffffffffffffffffffffffff16146103f2576040517f08c379a00000000000000000000000000000000000000000000000000000000081526004016103e99061233e565b60405180910390fd5b6103fd838888610fcc565b5050505050505050565b600073ffffffffffffffffffffffffffffffffffffffff1661042761089b565b73ffffffffffffffffffffffffffffffffffffffff161461047d576040517f08c379a0000000000000000000000000000000000000000000000000000000008152600401610474906123aa565b60405180910390fd5b600073ffffffffffffffffffffffffffffffffffffffff168173ffffffffffffffffffffffffffffffffffffffff1614156104ed576040517f08c379a00000000000000000000000000000000000000000000000000000000081526004016104e490612416565b60405180910390fd5b6104f681611116565b50565b7f000000000000000000000000000000000000000000000000000000000000000073ffffffffffffffffffffffffffffffffffffffff163073ffffffffffffffffffffffffffffffffffffffff161415610588576040517f08c379a000000000000000000000000000000000000000000000000000000000815260040161057f906124a8565b60405180910390fd5b7f000000000000000000000000000000000000000000000000000000000000000073ffffffffffffffffffffffffffffffffffffffff166105c76111da565b73ffffffffffffffffffffffffffffffffffffffff161461061d576040517f08c379a00000000000000000000000000000000000000000000000000000000081526004016106149061253a565b60405180910390fd5b61062681611231565b61067f81600067ffffffffffffffff81111561064557610644611f7d565b5b6040519080825280601f01601f1916602001820160405280156106775781602001600182028036833780820191505090505b50600061123c565b50565b7f000000000000000000000000000000000000000000000000000000000000000073ffffffffffffffffffffffffffffffffffffffff163073ffffffffffffffffffffffffffffffffffffffff161415610711576040517f08c379a0000000000000000000000000000000000000000000000000000000008152600401610708906124a8565b60405180910390fd5b7f000000000000000000000000000000000000000000000000000000000000000073ffffffffffffffffffffffffffffffffffffffff166107506111da565b73ffffffffffffffffffffffffffffffffffffffff16146107a6576040517f08c379a000000000000000000000000000000000000000000000000000000000815260040161079d9061253a565b60405180910390fd5b6107af82611231565b6107bb8282600161123c565b5050565b60007f000000000000000000000000000000000000000000000000000000000000000073ffffffffffffffffffffffffffffffffffffffff163073ffffffffffffffffffffffffffffffffffffffff161461084f576040517f08c379a0000000000000000000000000000000000000000000000000000000008152600401610846906125cc565b60405180910390fd5b7f360894a13ba1a3210667c828492db98dca3e2076cc3735a920a3ca505d382bbc60001b905090565b60006108826111da565b905090565b61088f6113b9565b6108996000611116565b565b60008060009054906101000a900473ffffffffffffffffffffffffffffffffffffffff16905090565b8160600160208101906108d79190611f3a565b73ffffffffffffffffffffffffffffffffffffffff163373ffffffffffffffffffffffffffffffffffffffff1614610944576040517f08c379a000000000000000000000000000000000000000000000000000000000815260040161093b90612638565b60405180910390fd5b60006109508484610e3f565b905061095c8183610e76565b610967818484610fcc565b50505050565b610975611d8e565b60006109818484610e3f565b90506001600082815260200190815260200160002060405180606001604052908160008201548152602001600182015481526020016002820160009054906101000a900463ffffffff1663ffffffff1663ffffffff168152505091505092915050565b60006109f03383610e3f565b905062015180600160008381526020019081526020016000206000015442610a189190612687565b11610a58576040517f08c379a0000000000000000000000000000000000000000000000000000000008152600401610a4f90612707565b60405180910390fd5b610a8b826000016020810190610a6e9190611f3a565b336001600085815260200190815260200160002060010154611437565b600060016000838152602001908152602001600020600101819055505050565b60018160a0016020810190610ac09190612760565b60ff161480610ae4575060028160a0016020810190610adf9190612760565b60ff16145b610b23576040517f08c379a0000000000000000000000000000000000000000000000000000000008152600401610b1a906127d9565b60405180910390fd5b6000610b2f3383610e3f565b9050610b3a8161150f565b6000600160008381526020019081526020016000206000015414610b93576040517f08c379a0000000000000000000000000000000000000000000000000000000008152600401610b8a90612845565b60405180910390fd5b600073ffffffffffffffffffffffffffffffffffffffff16826000016020810190610bbe9190611f3a565b73ffffffffffffffffffffffffffffffffffffffff1614610c8457816000016020810190610bec9190611f3a565b73ffffffffffffffffffffffffffffffffffffffff166323b872dd333085604001356040518463ffffffff1660e01b8152600401610c2c93929190612874565b602060405180830381600087803b158015610c4657600080fd5b505af1158015610c5a573d6000803e3d6000fd5b505050506040513d601f19601f82011682018060405250810190610c7e91906128e3565b50610ccc565b8160400135341015610ccb576040517f08c379a0000000000000000000000000000000000000000000000000000000008152600401610cc29061295c565b60405180910390fd5b5b8160400135600160008381526020019081526020016000206001016000828254610cf6919061297c565b92505081905550816080016020810190610d1091906129fe565b6001600083815260200190815260200160002060020160008282829054906101000a900463ffffffff16610d449190612a2b565b92506101000a81548163ffffffff021916908363ffffffff160217905550426001600083815260200190815260200160002060000181905550807f5c85091c17a5842c079f33795b436b8d466c439605ca6224eb0c0c59624e15a63384604051610daf929190612c08565b60405180910390a25050565b610dc36113b9565b600073ffffffffffffffffffffffffffffffffffffffff168173ffffffffffffffffffffffffffffffffffffffff161415610e33576040517f08c379a0000000000000000000000000000000000000000000000000000000008152600401610e2a90612ca3565b60405180910390fd5b610e3c81611116565b50565b600046308484604051602001610e589493929190612cc3565b60405160208183030381529060405280519060200120905092915050565b60006002600084815260200190815260200160002060008373ffffffffffffffffffffffffffffffffffffffff1673ffffffffffffffffffffffffffffffffffffffff1681526020019081526020016000205414610f09576040517f08c379a0000000000000000000000000000000000000000000000000000000008152600401610f0090612d55565b60405180910390fd5b60016002600084815260200190815260200160002060008373ffffffffffffffffffffffffffffffffffffffff1673ffffffffffffffffffffffffffffffffffffffff1681526020019081526020016000206000828254610f6a919061297c565b925050819055505050565b600081604051602001610f889190612ded565b604051602081830303815290604052805190602001209050919050565b6000806000610fb485856115a8565b91509150610fc1816115fa565b819250505092915050565b60006001600085815260200190815260200160002060405180606001604052908160008201548152602001600182015481526020016002820160009054906101000a900463ffffffff1663ffffffff1663ffffffff168152505090506000611047838560a00160208101906110419190612760565b84611768565b90508082602001516110599190612687565b6001600087815260200190815260200160002060010181905550600182604001516110849190612e13565b6001600087815260200190815260200160002060020160006101000a81548163ffffffff021916908363ffffffff1602179055506110d58460000160208101906110ce9190611f3a565b8483611437565b847f0508a8b4117d9a7b3d8f5895f6413e61b4f9a2df35afbfb41e78d0ecfff1843f8483604051611107929190612e47565b60405180910390a25050505050565b60008060009054906101000a900473ffffffffffffffffffffffffffffffffffffffff169050816000806101000a81548173ffffffffffffffffffffffffffffffffffffffff021916908373ffffffffffffffffffffffffffffffffffffffff1602179055508173ffffffffffffffffffffffffffffffffffffffff168173ffffffffffffffffffffffffffffffffffffffff167f8be0079c531659141344cd1fd0a4f28419497f9722a3daafe3b4186f6b6457e060405160405180910390a35050565b60006112087f360894a13ba1a3210667c828492db98dca3e2076cc3735a920a3ca505d382bbc60001b6118a2565b60000160009054906101000a900473ffffffffffffffffffffffffffffffffffffffff16905090565b6112396113b9565b50565b6112687f4910fdfa16fed3260ed0e7147f7cc6da11a60208b5b9406d12a635614ffd914360001b6118ac565b60000160009054906101000a900460ff161561128c57611287836118b6565b6113b4565b8273ffffffffffffffffffffffffffffffffffffffff166352d1902d6040518163ffffffff1660e01b815260040160206040518083038186803b1580156112d257600080fd5b505afa92505050801561130357506040513d601f19601f820116820180604052508101906113009190612e85565b60015b611342576040517f08c379a000000000000000000000000000000000000000000000000000000000815260040161133990612f24565b60405180910390fd5b7f360894a13ba1a3210667c828492db98dca3e2076cc3735a920a3ca505d382bbc60001b81146113a7576040517f08c379a000000000000000000000000000000000000000000000000000000000815260040161139e90612fb6565b60405180910390fd5b506113b383838361196f565b5b505050565b6113c161199b565b73ffffffffffffffffffffffffffffffffffffffff166113df61089b565b73ffffffffffffffffffffffffffffffffffffffff1614611435576040517f08c379a000000000000000000000000000000000000000000000000000000000815260040161142c90613022565b60405180910390fd5b565b600073ffffffffffffffffffffffffffffffffffffffff168373ffffffffffffffffffffffffffffffffffffffff16141561147b5761147682826119a3565b61150a565b8273ffffffffffffffffffffffffffffffffffffffff1663a9059cbb83836040518363ffffffff1660e01b81526004016114b6929190612e47565b602060405180830381600087803b1580156114d057600080fd5b505af11580156114e4573d6000803e3d6000fd5b505050506040513d601f19601f8201168201806040525081019061150891906128e3565b505b505050565b6115a581604051602401611523919061211d565b6040516020818303038152906040527f27b7cf85000000000000000000000000000000000000000000000000000000007bffffffffffffffffffffffffffffffffffffffffffffffffffffffff19166020820180517bffffffffffffffffffffffffffffffffffffffffffffffffffffffff8381831617835250505050611a97565b50565b6000806041835114156115ea5760008060006020860151925060408601519150606086015160001a90506115de87828585611ac0565b945094505050506115f3565b60006002915091505b9250929050565b6000600481111561160e5761160d613042565b5b81600481111561162157611620613042565b5b141561162c57611765565b600160048111156116405761163f613042565b5b81600481111561165357611652613042565b5b1415611694576040517f08c379a000000000000000000000000000000000000000000000000000000000815260040161168b906130bd565b60405180910390fd5b600260048111156116a8576116a7613042565b5b8160048111156116bb576116ba613042565b5b14156116fc576040517f08c379a00000000000000000000000000000000000000000000000000000000081526004016116f390613129565b60405180910390fd5b600360048111156117105761170f613042565b5b81600481111561172357611722613042565b5b1415611764576040517f08c379a000000000000000000000000000000000000000000000000000000000815260040161175b906131bb565b60405180910390fd5b5b50565b600080826020015111801561178757506000826040015163ffffffff16115b6117c6576040517f08c379a00000000000000000000000000000000000000000000000000000000081526004016117bd90613227565b60405180910390fd5b6001826040015163ffffffff1614156117e5578160200151905061188d565b60018360ff16141561181257816040015163ffffffff16826020015161180b9190613276565b905061188c565b60028360ff16141561188b576000844442604051602001611835939291906132a7565b6040516020818303038152906040528051906020012060001c905060006002846040015163ffffffff16856020015161186e9190613276565b61187891906132de565b905080826118869190613338565b925050505b5b5b600081141561189b57600190505b9392505050565b6000819050919050565b6000819050919050565b6118bf81611ba3565b6118fe576040517f08c379a00000000000000000000000000000000000000000000000000000000081526004016118f5906133db565b60405180910390fd5b8061192b7f360894a13ba1a3210667c828492db98dca3e2076cc3735a920a3ca505d382bbc60001b6118a2565b60000160006101000a81548173ffffffffffffffffffffffffffffffffffffffff021916908373ffffffffffffffffffffffffffffffffffffffff16021790555050565b61197883611bc6565b6000825111806119855750805b15611996576119948383611c15565b505b505050565b600033905090565b804710156119e6576040517f08c379a00000000000000000000000000000000000000000000000000000000081526004016119dd90613447565b60405180910390fd5b60008273ffffffffffffffffffffffffffffffffffffffff1682604051611a0c90613498565b60006040518083038185875af1925050503d8060008114611a49576040519150601f19603f3d011682016040523d82523d6000602084013e611a4e565b606091505b5050905080611a92576040517f08c379a0000000000000000000000000000000000000000000000000000000008152600401611a899061351f565b60405180910390fd5b505050565b60008151905060006a636f6e736f6c652e6c6f679050602083016000808483855afa5050505050565b6000807f7fffffffffffffffffffffffffffffff5d576e7357a4501ddfe92f46681b20a08360001c1115611afb576000600391509150611b9a565b600060018787878760405160008152602001604052604051611b20949392919061354e565b6020604051602081039080840390855afa158015611b42573d6000803e3d6000fd5b505050602060405103519050600073ffffffffffffffffffffffffffffffffffffffff168173ffffffffffffffffffffffffffffffffffffffff161415611b9157600060019250925050611b9a565b80600092509250505b94509492505050565b6000808273ffffffffffffffffffffffffffffffffffffffff163b119050919050565b611bcf816118b6565b8073ffffffffffffffffffffffffffffffffffffffff167fbc7cd75a20ee27fd9adebab32041f755214dbc6bffa90cc0225b39da2e5c2d3b60405160405180910390a250565b6060611c3a83836040518060600160405280602781526020016136ec60279139611c42565b905092915050565b60606000808573ffffffffffffffffffffffffffffffffffffffff1685604051611c6c9190613602565b600060405180830381855af49150503d8060008114611ca7576040519150601f19603f3d011682016040523d82523d6000602084013e611cac565b606091505b5091509150611cbd86838387611cc8565b925050509392505050565b60608315611d2b57600083511415611d2357611ce385611ba3565b611d22576040517f08c379a0000000000000000000000000000000000000000000000000000000008152600401611d1990613665565b60405180910390fd5b5b829050611d36565b611d358383611d3e565b5b949350505050565b600082511115611d515781518083602001fd5b806040517f08c379a0000000000000000000000000000000000000000000000000000000008152600401611d8591906136c9565b60405180910390fd5b60405180606001604052806000815260200160008152602001600063ffffffff1681525090565b6000604051905090565b600080fd5b600080fd5b600073ffffffffffffffffffffffffffffffffffffffff82169050919050565b6000611df482611dc9565b9050919050565b611e0481611de9565b8114611e0f57600080fd5b50565b600081359050611e2181611dfb565b92915050565b600080fd5b600060c08284031215611e4257611e41611e27565b5b81905092915050565b600080fd5b600080fd5b600080fd5b60008083601f840112611e7057611e6f611e4b565b5b8235905067ffffffffffffffff811115611e8d57611e8c611e50565b5b602083019150836001820283011115611ea957611ea8611e55565b5b9250929050565b60008060008060006101208688031215611ecd57611ecc611dbf565b5b6000611edb88828901611e12565b9550506020611eec88828901611e2c565b94505060e0611efd88828901611e12565b93505061010086013567ffffffffffffffff811115611f1f57611f1e611dc4565b5b611f2b88828901611e5a565b92509250509295509295909350565b600060208284031215611f5057611f4f611dbf565b5b6000611f5e84828501611e12565b91505092915050565b600080fd5b6000601f19601f8301169050919050565b7f4e487b7100000000000000000000000000000000000000000000000000000000600052604160045260246000fd5b611fb582611f6c565b810181811067ffffffffffffffff82111715611fd457611fd3611f7d565b5b80604052505050565b6000611fe7611db5565b9050611ff38282611fac565b919050565b600067ffffffffffffffff82111561201357612012611f7d565b5b61201c82611f6c565b9050602081019050919050565b82818337600083830152505050565b600061204b61204684611ff8565b611fdd565b90508281526020810184848401111561206757612066611f67565b5b612072848285612029565b509392505050565b600082601f83011261208f5761208e611e4b565b5b813561209f848260208601612038565b91505092915050565b600080604083850312156120bf576120be611dbf565b5b60006120cd85828601611e12565b925050602083013567ffffffffffffffff8111156120ee576120ed611dc4565b5b6120fa8582860161207a565b9150509250929050565b6000819050919050565b61211781612104565b82525050565b6000602082019050612132600083018461210e565b92915050565b61214181611de9565b82525050565b600060208201905061215c6000830184612138565b92915050565b6000806000610100848603121561217c5761217b611dbf565b5b600061218a86828701611e12565b935050602061219b86828701611e2c565b92505060e06121ac86828701611e12565b9150509250925092565b60008060e083850312156121cd576121cc611dbf565b5b60006121db85828601611e12565b92505060206121ec85828601611e2c565b9150509250929050565b6000819050919050565b612209816121f6565b82525050565b600063ffffffff82169050919050565b6122288161220f565b82525050565b6060820160008201516122446000850182612200565b5060208201516122576020850182612200565b50604082015161226a604085018261221f565b50505050565b6000606082019050612285600083018461222e565b92915050565b600060c082840312156122a1576122a0611dbf565b5b60006122af84828501611e2c565b91505092915050565b60006040820190506122cd600083018561210e565b6122da6020830184612138565b9392505050565b600082825260208201905092915050565b7f496e76616c6964207369676e6174757265000000000000000000000000000000600082015250565b60006123286011836122e1565b9150612333826122f2565b602082019050919050565b600060208201905081810360008301526123578161231b565b9050919050565b7f4f776e657220616c726561647920736574000000000000000000000000000000600082015250565b60006123946011836122e1565b915061239f8261235e565b602082019050919050565b600060208201905081810360008301526123c381612387565b9050919050565b7f4f776e65722063616e6e6f742062652061646472657373207a65726f00000000600082015250565b6000612400601c836122e1565b915061240b826123ca565b602082019050919050565b6000602082019050818103600083015261242f816123f3565b9050919050565b7f46756e6374696f6e206d7573742062652063616c6c6564207468726f7567682060008201527f64656c656761746563616c6c0000000000000000000000000000000000000000602082015250565b6000612492602c836122e1565b915061249d82612436565b604082019050919050565b600060208201905081810360008301526124c181612485565b9050919050565b7f46756e6374696f6e206d7573742062652063616c6c6564207468726f7567682060008201527f6163746976652070726f78790000000000000000000000000000000000000000602082015250565b6000612524602c836122e1565b915061252f826124c8565b604082019050919050565b6000602082019050818103600083015261255381612517565b9050919050565b7f555550535570677261646561626c653a206d757374206e6f742062652063616c60008201527f6c6564207468726f7567682064656c656761746563616c6c0000000000000000602082015250565b60006125b66038836122e1565b91506125c18261255a565b604082019050919050565b600060208201905081810360008301526125e5816125a9565b9050919050565b7f556e617574686f72697a6564206f70657261746f720000000000000000000000600082015250565b60006126226015836122e1565b915061262d826125ec565b602082019050919050565b6000602082019050818103600083015261265181612615565b9050919050565b7f4e487b7100000000000000000000000000000000000000000000000000000000600052601160045260246000fd5b6000612692826121f6565b915061269d836121f6565b9250828210156126b0576126af612658565b5b828203905092915050565b7f5061636b6574206c6f636b656400000000000000000000000000000000000000600082015250565b60006126f1600d836122e1565b91506126fc826126bb565b602082019050919050565b60006020820190508181036000830152612720816126e4565b9050919050565b600060ff82169050919050565b61273d81612727565b811461274857600080fd5b50565b60008135905061275a81612734565b92915050565b60006020828403121561277657612775611dbf565b5b60006127848482850161274b565b91505092915050565b7f496e76616c6964206d6f64650000000000000000000000000000000000000000600082015250565b60006127c3600c836122e1565b91506127ce8261278d565b602082019050919050565b600060208201905081810360008301526127f2816127b6565b9050919050565b7f5061636b657420616c7265616479206372656174656400000000000000000000600082015250565b600061282f6016836122e1565b915061283a826127f9565b602082019050919050565b6000602082019050818103600083015261285e81612822565b9050919050565b61286e816121f6565b82525050565b60006060820190506128896000830186612138565b6128966020830185612138565b6128a36040830184612865565b949350505050565b60008115159050919050565b6128c0816128ab565b81146128cb57600080fd5b50565b6000815190506128dd816128b7565b92915050565b6000602082840312156128f9576128f8611dbf565b5b6000612907848285016128ce565b91505092915050565b7f496e73756666696369656e742062616c616e6365000000000000000000000000600082015250565b60006129466014836122e1565b915061295182612910565b602082019050919050565b6000602082019050818103600083015261297581612939565b9050919050565b6000612987826121f6565b9150612992836121f6565b9250827fffffffffffffffffffffffffffffffffffffffffffffffffffffffffffffffff038211156129c7576129c6612658565b5b828201905092915050565b6129db8161220f565b81146129e657600080fd5b50565b6000813590506129f8816129d2565b92915050565b600060208284031215612a1457612a13611dbf565b5b6000612a22848285016129e9565b91505092915050565b6000612a368261220f565b9150612a418361220f565b92508263ffffffff03821115612a5a57612a59612658565b5b828201905092915050565b6000612a746020840184611e12565b905092915050565b612a8581611de9565b82525050565b612a9481612104565b8114612a9f57600080fd5b50565b600081359050612ab181612a8b565b92915050565b6000612ac66020840184612aa2565b905092915050565b612ad781612104565b82525050565b612ae6816121f6565b8114612af157600080fd5b50565b600081359050612b0381612add565b92915050565b6000612b186020840184612af4565b905092915050565b6000612b2f60208401846129e9565b905092915050565b6000612b46602084018461274b565b905092915050565b612b5781612727565b82525050565b60c08201612b6e6000830183612a65565b612b7b6000850182612a7c565b50612b896020830183612ab7565b612b966020850182612ace565b50612ba46040830183612b09565b612bb16040850182612200565b50612bbf6060830183612a65565b612bcc6060850182612a7c565b50612bda6080830183612b20565b612be7608085018261221f565b50612bf560a0830183612b37565b612c0260a0850182612b4e565b50505050565b600060e082019050612c1d6000830185612138565b612c2a6020830184612b5d565b9392505050565b7f4f776e61626c653a206e6577206f776e657220697320746865207a65726f206160008201527f6464726573730000000000000000000000000000000000000000000000000000602082015250565b6000612c8d6026836122e1565b9150612c9882612c31565b604082019050919050565b60006020820190508181036000830152612cbc81612c80565b9050919050565b600061012082019050612cd96000830187612865565b612ce66020830186612138565b612cf36040830185612138565b612d006060830184612b5d565b95945050505050565b7f416c726561647920636c61696d65640000000000000000000000000000000000600082015250565b6000612d3f600f836122e1565b9150612d4a82612d09565b602082019050919050565b60006020820190508181036000830152612d6e81612d32565b9050919050565b600081905092915050565b7f19457468657265756d205369676e6564204d6573736167653a0a333200000000600082015250565b6000612db6601c83612d75565b9150612dc182612d80565b601c82019050919050565b6000819050919050565b612de7612de282612104565b612dcc565b82525050565b6000612df882612da9565b9150612e048284612dd6565b60208201915081905092915050565b6000612e1e8261220f565b9150612e298361220f565b925082821015612e3c57612e3b612658565b5b828203905092915050565b6000604082019050612e5c6000830185612138565b612e696020830184612865565b9392505050565b600081519050612e7f81612a8b565b92915050565b600060208284031215612e9b57612e9a611dbf565b5b6000612ea984828501612e70565b91505092915050565b7f45524331393637557067726164653a206e657720696d706c656d656e7461746960008201527f6f6e206973206e6f742055555053000000000000000000000000000000000000602082015250565b6000612f0e602e836122e1565b9150612f1982612eb2565b604082019050919050565b60006020820190508181036000830152612f3d81612f01565b9050919050565b7f45524331393637557067726164653a20756e737570706f727465642070726f7860008201527f6961626c65555549440000000000000000000000000000000000000000000000602082015250565b6000612fa06029836122e1565b9150612fab82612f44565b604082019050919050565b60006020820190508181036000830152612fcf81612f93565b9050919050565b7f4f776e61626c653a2063616c6c6572206973206e6f7420746865206f776e6572600082015250565b600061300c6020836122e1565b915061301782612fd6565b602082019050919050565b6000602082019050818103600083015261303b81612fff565b9050919050565b7f4e487b7100000000000000000000000000000000000000000000000000000000600052602160045260246000fd5b7f45434453413a20696e76616c6964207369676e61747572650000000000000000600082015250565b60006130a76018836122e1565b91506130b282613071565b602082019050919050565b600060208201905081810360008301526130d68161309a565b9050919050565b7f45434453413a20696e76616c6964207369676e6174757265206c656e67746800600082015250565b6000613113601f836122e1565b915061311e826130dd565b602082019050919050565b6000602082019050818103600083015261314281613106565b9050919050565b7f45434453413a20696e76616c6964207369676e6174757265202773272076616c60008201527f7565000000000000000000000000000000000000000000000000000000000000602082015250565b60006131a56022836122e1565b91506131b082613149565b604082019050919050565b600060208201905081810360008301526131d481613198565b9050919050565b7f456d707479205061636b65740000000000000000000000000000000000000000600082015250565b6000613211600c836122e1565b915061321c826131db565b602082019050919050565b6000602082019050818103600083015261324081613204565b9050919050565b7f4e487b7100000000000000000000000000000000000000000000000000000000600052601260045260246000fd5b6000613281826121f6565b915061328c836121f6565b92508261329c5761329b613247565b5b828204905092915050565b60006060820190506132bc6000830186612138565b6132c96020830185612865565b6132d66040830184612865565b949350505050565b60006132e9826121f6565b91506132f4836121f6565b9250817fffffffffffffffffffffffffffffffffffffffffffffffffffffffffffffffff048311821515161561332d5761332c612658565b5b828202905092915050565b6000613343826121f6565b915061334e836121f6565b92508261335e5761335d613247565b5b828206905092915050565b7f455243313936373a206e657720696d706c656d656e746174696f6e206973206e60008201527f6f74206120636f6e747261637400000000000000000000000000000000000000602082015250565b60006133c5602d836122e1565b91506133d082613369565b604082019050919050565b600060208201905081810360008301526133f4816133b8565b9050919050565b7f416464726573733a20696e73756666696369656e742062616c616e6365000000600082015250565b6000613431601d836122e1565b915061343c826133fb565b602082019050919050565b6000602082019050818103600083015261346081613424565b9050919050565b600081905092915050565b50565b6000613482600083613467565b915061348d82613472565b600082019050919050565b60006134a382613475565b9150819050919050565b7f416464726573733a20756e61626c6520746f2073656e642076616c75652c207260008201527f6563697069656e74206d61792068617665207265766572746564000000000000602082015250565b6000613509603a836122e1565b9150613514826134ad565b604082019050919050565b60006020820190508181036000830152613538816134fc565b9050919050565b61354881612727565b82525050565b6000608082019050613563600083018761210e565b613570602083018661353f565b61357d604083018561210e565b61358a606083018461210e565b95945050505050565b600081519050919050565b60005b838110156135bc5780820151818401526020810190506135a1565b838111156135cb576000848401525b50505050565b60006135dc82613593565b6135e68185613467565b93506135f681856020860161359e565b80840191505092915050565b600061360e82846135d1565b915081905092915050565b7f416464726573733a2063616c6c20746f206e6f6e2d636f6e7472616374000000600082015250565b600061364f601d836122e1565b915061365a82613619565b602082019050919050565b6000602082019050818103600083015261367e81613642565b9050919050565b600081519050919050565b600061369b82613685565b6136a581856122e1565b93506136b581856020860161359e565b6136be81611f6c565b840191505092915050565b600060208201905081810360008301526136e38184613690565b90509291505056fe416464726573733a206c6f772d6c6576656c2064656c65676174652063616c6c206661696c6564a2646970667358221220f4de10b5f99acb8a060f74466d208c021ccb187f370c62bb61c58792f69e7c1064736f6c63430008080033",
  "devdoc": {
    "kind": "dev",
    "methods": {
      "owner()": {
        "details": "Returns the address of the current owner."
      },
      "proxiableUUID()": {
        "details": "Implementation of the ERC1822 {proxiableUUID} function. This returns the storage slot used by the implementation. It is used to validate the implementation's compatibility when performing an upgrade. IMPORTANT: A proxy pointing at a proxiable contract should not be considered proxiable itself, because this risks bricking a proxy that upgrades to it, by delegating to itself until out of gas. Thus it is critical that this function revert if invoked through a proxy. This is guaranteed by the `notDelegated` modifier."
      },
      "renounceOwnership()": {
        "details": "Leaves the contract without owner. It will not be possible to call `onlyOwner` functions anymore. Can only be called by the current owner. NOTE: Renouncing ownership will leave the contract without an owner, thereby removing any functionality that is only available to the owner."
      },
      "transferOwnership(address)": {
        "details": "Transfers ownership of the contract to a new account (`newOwner`). Can only be called by the current owner."
      },
      "upgradeTo(address)": {
        "details": "Upgrade the implementation of the proxy to `newImplementation`. Calls {_authorizeUpgrade}. Emits an {Upgraded} event."
      },
      "upgradeToAndCall(address,bytes)": {
        "details": "Upgrade the implementation of the proxy to `newImplementation`, and subsequently execute the function call encoded in `data`. Calls {_authorizeUpgrade}. Emits an {Upgraded} event."
      }
    },
    "version": 1
  },
  "userdoc": {
    "kind": "user",
    "methods": {},
    "version": 1
  },
  "storageLayout": {
    "storage": [
      {
        "astId": 7,
        "contract": "contracts/apps/HappyRedPacket.sol:HappyRedPacket",
        "label": "_owner",
        "offset": 0,
        "slot": "0",
        "type": "t_address"
      },
      {
        "astId": 2520,
        "contract": "contracts/apps/HappyRedPacket.sol:HappyRedPacket",
        "label": "packets_",
        "offset": 0,
        "slot": "1",
        "type": "t_mapping(t_bytes32,t_struct(RedPacket)2515_storage)"
      },
      {
        "astId": 2526,
        "contract": "contracts/apps/HappyRedPacket.sol:HappyRedPacket",
        "label": "count_",
        "offset": 0,
        "slot": "2",
        "type": "t_mapping(t_bytes32,t_mapping(t_address,t_uint256))"
      }
    ],
    "types": {
      "t_address": {
        "encoding": "inplace",
        "label": "address",
        "numberOfBytes": "20"
      },
      "t_bytes32": {
        "encoding": "inplace",
        "label": "bytes32",
        "numberOfBytes": "32"
      },
      "t_mapping(t_address,t_uint256)": {
        "encoding": "mapping",
        "key": "t_address",
        "label": "mapping(address => uint256)",
        "numberOfBytes": "32",
        "value": "t_uint256"
      },
      "t_mapping(t_bytes32,t_mapping(t_address,t_uint256))": {
        "encoding": "mapping",
        "key": "t_bytes32",
        "label": "mapping(bytes32 => mapping(address => uint256))",
        "numberOfBytes": "32",
        "value": "t_mapping(t_address,t_uint256)"
      },
      "t_mapping(t_bytes32,t_struct(RedPacket)2515_storage)": {
        "encoding": "mapping",
        "key": "t_bytes32",
        "label": "mapping(bytes32 => struct HappyRedPacket.RedPacket)",
        "numberOfBytes": "32",
        "value": "t_struct(RedPacket)2515_storage"
      },
      "t_struct(RedPacket)2515_storage": {
        "encoding": "inplace",
        "label": "struct HappyRedPacket.RedPacket",
        "members": [
          {
            "astId": 2510,
            "contract": "contracts/apps/HappyRedPacket.sol:HappyRedPacket",
            "label": "createdAt",
            "offset": 0,
            "slot": "0",
            "type": "t_uint256"
          },
          {
            "astId": 2512,
            "contract": "contracts/apps/HappyRedPacket.sol:HappyRedPacket",
            "label": "balance",
            "offset": 0,
            "slot": "1",
            "type": "t_uint256"
          },
          {
            "astId": 2514,
            "contract": "contracts/apps/HappyRedPacket.sol:HappyRedPacket",
            "label": "split",
            "offset": 0,
            "slot": "2",
            "type": "t_uint32"
          }
        ],
        "numberOfBytes": "96"
      },
      "t_uint256": {
        "encoding": "inplace",
        "label": "uint256",
        "numberOfBytes": "32"
      },
      "t_uint32": {
        "encoding": "inplace",
        "label": "uint32",
        "numberOfBytes": "4"
      }
    }
  }
}