{
  "address": "0x36e21785316978491f6a0CF420af3d37848cE2dF",
  "abi": [
    {
      "anonymous": false,
      "inputs": [
        {
          "indexed": false,
          "internalType": "address",
          "name": "previousAdmin",
          "type": "address"
        },
        {
          "indexed": false,
          "internalType": "address",
          "name": "newAdmin",
          "type": "address"
        }
      ],
      "name": "AdminChanged",
      "type": "event"
    },
    {
      "anonymous": false,
      "inputs": [
        {
          "indexed": true,
          "internalType": "address",
          "name": "beacon",
          "type": "address"
        }
      ],
      "name": "BeaconUpgraded",
      "type": "event"
    },
    {
      "anonymous": false,
      "inputs": [
        {
          "indexed": true,
          "internalType": "bytes32",
          "name": "PacketId",
          "type": "bytes32"
        },
        {
          "indexed": true,
          "internalType": "address",
          "name": "claimer",
          "type": "address"
        },
        {
          "indexed": false,
          "internalType": "uint256",
          "name": "amount",
          "type": "uint256"
        }
      ],
      "name": "Claimed",
      "type": "event"
    },
    {
      "anonymous": false,
      "inputs": [
        {
          "indexed": true,
          "internalType": "bytes32",
          "name": "PacketId",
          "type": "bytes32"
        },
        {
          "indexed": true,
          "internalType": "address",
          "name": "creator",
          "type": "address"
        },
        {
          "components": [
            {
              "internalType": "address",
              "name": "token",
              "type": "address"
            },
            {
              "internalType": "bytes32",
              "name": "salt",
              "type": "bytes32"
            },
            {
              "internalType": "uint256",
              "name": "balance",
              "type": "uint256"
            },
            {
              "internalType": "address",
              "name": "validator",
              "type": "address"
            },
            {
              "internalType": "uint32",
              "name": "split",
              "type": "uint32"
            },
            {
              "internalType": "uint8",
              "name": "mode",
              "type": "uint8"
            }
          ],
          "indexed": false,
          "internalType": "struct HappyRedPacketImpl.RedPacketData",
          "name": "packet",
          "type": "tuple"
        }
      ],
      "name": "Created",
      "type": "event"
    },
    {
      "anonymous": false,
      "inputs": [
        {
          "indexed": true,
          "internalType": "address",
          "name": "previousOwner",
          "type": "address"
        },
        {
          "indexed": true,
          "internalType": "address",
          "name": "newOwner",
          "type": "address"
        }
      ],
      "name": "OwnershipTransferred",
      "type": "event"
    },
    {
      "anonymous": false,
      "inputs": [
        {
          "indexed": true,
          "internalType": "address",
          "name": "implementation",
          "type": "address"
        }
      ],
      "name": "Upgraded",
      "type": "event"
    },
    {
      "inputs": [
        {
          "components": [
            {
              "internalType": "address",
              "name": "creator",
              "type": "address"
            },
            {
              "components": [
                {
                  "internalType": "address",
                  "name": "token",
                  "type": "address"
                },
                {
                  "internalType": "bytes32",
                  "name": "salt",
                  "type": "bytes32"
                },
                {
                  "internalType": "uint256",
                  "name": "balance",
                  "type": "uint256"
                },
                {
                  "internalType": "address",
                  "name": "validator",
                  "type": "address"
                },
                {
                  "internalType": "uint32",
                  "name": "split",
                  "type": "uint32"
                },
                {
                  "internalType": "uint8",
                  "name": "mode",
                  "type": "uint8"
                }
              ],
              "internalType": "struct HappyRedPacketImpl.RedPacketData",
              "name": "packet",
              "type": "tuple"
            },
            {
              "internalType": "address",
              "name": "claimer",
              "type": "address"
            },
            {
              "internalType": "bytes",
              "name": "signature",
              "type": "bytes"
            }
          ],
          "internalType": "struct HappyRedPacketImpl.RedPacketClaim",
          "name": "c",
          "type": "tuple"
        }
      ],
      "name": "claim",
      "outputs": [],
      "stateMutability": "nonpayable",
      "type": "function"
    },
    {
      "inputs": [
        {
          "components": [
            {
              "internalType": "address",
              "name": "token",
              "type": "address"
            },
            {
              "internalType": "bytes32",
              "name": "salt",
              "type": "bytes32"
            },
            {
              "internalType": "uint256",
              "name": "balance",
              "type": "uint256"
            },
            {
              "internalType": "address",
              "name": "validator",
              "type": "address"
            },
            {
              "internalType": "uint32",
              "name": "split",
              "type": "uint32"
            },
            {
              "internalType": "uint8",
              "name": "mode",
              "type": "uint8"
            }
          ],
          "internalType": "struct HappyRedPacketImpl.RedPacketData",
          "name": "pd",
          "type": "tuple"
        }
      ],
      "name": "create",
      "outputs": [],
      "stateMutability": "payable",
      "type": "function"
    },
    {
      "inputs": [
        {
          "internalType": "bytes32",
          "name": "packetId",
          "type": "bytes32"
        },
        {
          "internalType": "address",
          "name": "claimer",
          "type": "address"
        }
      ],
      "name": "getClaimedCount",
      "outputs": [
        {
          "internalType": "uint256",
          "name": "",
          "type": "uint256"
        }
      ],
      "stateMutability": "view",
      "type": "function"
    },
    {
      "inputs": [
        {
          "internalType": "bytes32",
          "name": "id",
          "type": "bytes32"
        }
      ],
      "name": "getPacket",
      "outputs": [
        {
          "components": [
            {
              "internalType": "uint256",
              "name": "createdAt",
              "type": "uint256"
            },
            {
              "internalType": "uint256",
              "name": "balance",
              "type": "uint256"
            },
            {
              "internalType": "uint32",
              "name": "split",
              "type": "uint32"
            }
          ],
          "internalType": "struct HappyRedPacketImpl.RedPacket",
          "name": "",
          "type": "tuple"
        }
      ],
      "stateMutability": "view",
      "type": "function"
    },
    {
      "inputs": [],
      "name": "implementation",
      "outputs": [
        {
          "internalType": "address",
          "name": "",
          "type": "address"
        }
      ],
      "stateMutability": "view",
      "type": "function"
    },
    {
      "inputs": [
        {
          "internalType": "address",
          "name": "newOwner",
          "type": "address"
        }
      ],
      "name": "initOwner",
      "outputs": [],
      "stateMutability": "nonpayable",
      "type": "function"
    },
    {
      "inputs": [],
      "name": "owner",
      "outputs": [
        {
          "internalType": "address",
          "name": "",
          "type": "address"
        }
      ],
      "stateMutability": "view",
      "type": "function"
    },
    {
      "inputs": [],
      "name": "proxiableUUID",
      "outputs": [
        {
          "internalType": "bytes32",
          "name": "",
          "type": "bytes32"
        }
      ],
      "stateMutability": "view",
      "type": "function"
    },
    {
      "inputs": [
        {
          "components": [
            {
              "internalType": "address",
              "name": "token",
              "type": "address"
            },
            {
              "internalType": "bytes32",
              "name": "salt",
              "type": "bytes32"
            },
            {
              "internalType": "uint256",
              "name": "balance",
              "type": "uint256"
            },
            {
              "internalType": "address",
              "name": "validator",
              "type": "address"
            },
            {
              "internalType": "uint32",
              "name": "split",
              "type": "uint32"
            },
            {
              "internalType": "uint8",
              "name": "mode",
              "type": "uint8"
            }
          ],
          "internalType": "struct HappyRedPacketImpl.RedPacketData",
          "name": "pd",
          "type": "tuple"
        }
      ],
      "name": "refund",
      "outputs": [],
      "stateMutability": "nonpayable",
      "type": "function"
    },
    {
      "inputs": [],
      "name": "renounceOwnership",
      "outputs": [],
      "stateMutability": "nonpayable",
      "type": "function"
    },
    {
      "inputs": [
        {
          "internalType": "address",
          "name": "newOwner",
          "type": "address"
        }
      ],
      "name": "transferOwnership",
      "outputs": [],
      "stateMutability": "nonpayable",
      "type": "function"
    },
    {
      "inputs": [
        {
          "internalType": "address",
          "name": "newImplementation",
          "type": "address"
        }
      ],
      "name": "upgradeTo",
      "outputs": [],
      "stateMutability": "nonpayable",
      "type": "function"
    },
    {
      "inputs": [
        {
          "internalType": "address",
          "name": "newImplementation",
          "type": "address"
        },
        {
          "internalType": "bytes",
          "name": "data",
          "type": "bytes"
        }
      ],
      "name": "upgradeToAndCall",
      "outputs": [],
      "stateMutability": "payable",
      "type": "function"
    }
  ],
  "transactionHash": "0xe593997c904a3516e5498581b8c3e57c74c2e09f579453f45a468aefb4ce684a",
  "args": [],
  "numDeployments": 3,
  "solcInputHash": "3009fd54f18c667f9969476468db3a07",
  "bytecode": "0x60a06040523073ffffffffffffffffffffffffffffffffffffffff1660809073ffffffffffffffffffffffffffffffffffffffff1660601b8152503480156200004757600080fd5b50620000686200005c6200006e60201b60201c565b6200007660201b60201c565b6200013a565b600033905090565b60008060009054906101000a900473ffffffffffffffffffffffffffffffffffffffff169050816000806101000a81548173ffffffffffffffffffffffffffffffffffffffff021916908373ffffffffffffffffffffffffffffffffffffffff1602179055508173ffffffffffffffffffffffffffffffffffffffff168173ffffffffffffffffffffffffffffffffffffffff167f8be0079c531659141344cd1fd0a4f28419497f9722a3daafe3b4186f6b6457e060405160405180910390a35050565b60805160601c6137226200017560003960008181610439015281816104c8015281816105c201528181610651015261070101526137226000f3fe6080604052600436106100c25760003560e01c80636ed85d0d1161007f57806396ff3c831161005957806396ff3c8314610233578063eed46b6f14610270578063ef2370a914610299578063f2fde38b146102b5576100c2565b80636ed85d0d146101c8578063715018a6146101f15780638da5cb5b14610208576100c2565b80630b524856146100c75780630d009297146101045780633659cfe61461012d5780634f1ef2861461015657806352d1902d146101725780635c60da1b1461019d575b600080fd5b3480156100d357600080fd5b506100ee60048036038101906100e99190611e02565b6102de565b6040516100fb9190611ea9565b60405180910390f35b34801561011057600080fd5b5061012b60048036038101906101269190611f22565b610345565b005b34801561013957600080fd5b50610154600480360381019061014f9190611f22565b610437565b005b610170600480360381019061016b9190612095565b6105c0565b005b34801561017e57600080fd5b506101876106fd565b6040516101949190612100565b60405180910390f35b3480156101a957600080fd5b506101b26107b6565b6040516101bf919061212a565b60405180910390f35b3480156101d457600080fd5b506101ef60048036038101906101ea919061216a565b6107c5565b005b3480156101fd57600080fd5b506102066109e6565b005b34801561021457600080fd5b5061021d6109fa565b60405161022a919061212a565b60405180910390f35b34801561023f57600080fd5b5061025a600480360381019061025591906121b3565b610a23565b6040516102679190612202565b60405180910390f35b34801561027c57600080fd5b506102976004803603810190610292919061223c565b610a7e565b005b6102b360048036038101906102ae919061223c565b610b45565b005b3480156102c157600080fd5b506102dc60048036038101906102d79190611f22565b610e61565b005b6102e6611d91565b6001600083815260200190815260200160002060405180606001604052908160008201548152602001600182015481526020016002820160009054906101000a900463ffffffff1663ffffffff1663ffffffff16815250509050919050565b600073ffffffffffffffffffffffffffffffffffffffff166103656109fa565b73ffffffffffffffffffffffffffffffffffffffff16146103bb576040517f08c379a00000000000000000000000000000000000000000000000000000000081526004016103b2906122c6565b60405180910390fd5b600073ffffffffffffffffffffffffffffffffffffffff168173ffffffffffffffffffffffffffffffffffffffff16141561042b576040517f08c379a000000000000000000000000000000000000000000000000000000000815260040161042290612332565b60405180910390fd5b61043481610ee5565b50565b7f000000000000000000000000000000000000000000000000000000000000000073ffffffffffffffffffffffffffffffffffffffff163073ffffffffffffffffffffffffffffffffffffffff1614156104c6576040517f08c379a00000000000000000000000000000000000000000000000000000000081526004016104bd906123c4565b60405180910390fd5b7f000000000000000000000000000000000000000000000000000000000000000073ffffffffffffffffffffffffffffffffffffffff16610505610fa9565b73ffffffffffffffffffffffffffffffffffffffff161461055b576040517f08c379a000000000000000000000000000000000000000000000000000000000815260040161055290612456565b60405180910390fd5b61056481611000565b6105bd81600067ffffffffffffffff81111561058357610582611f6a565b5b6040519080825280601f01601f1916602001820160405280156105b55781602001600182028036833780820191505090505b50600061100b565b50565b7f000000000000000000000000000000000000000000000000000000000000000073ffffffffffffffffffffffffffffffffffffffff163073ffffffffffffffffffffffffffffffffffffffff16141561064f576040517f08c379a0000000000000000000000000000000000000000000000000000000008152600401610646906123c4565b60405180910390fd5b7f000000000000000000000000000000000000000000000000000000000000000073ffffffffffffffffffffffffffffffffffffffff1661068e610fa9565b73ffffffffffffffffffffffffffffffffffffffff16146106e4576040517f08c379a00000000000000000000000000000000000000000000000000000000081526004016106db90612456565b60405180910390fd5b6106ed82611000565b6106f98282600161100b565b5050565b60007f000000000000000000000000000000000000000000000000000000000000000073ffffffffffffffffffffffffffffffffffffffff163073ffffffffffffffffffffffffffffffffffffffff161461078d576040517f08c379a0000000000000000000000000000000000000000000000000000000008152600401610784906124e8565b60405180910390fd5b7f360894a13ba1a3210667c828492db98dca3e2076cc3735a920a3ca505d382bbc60001b905090565b60006107c0610fa9565b905090565b60006107e68260000160208101906107dd9190611f22565b83602001611188565b90506000828061010001906107fb9190612517565b9050141561088b578160200160600160208101906108199190611f22565b73ffffffffffffffffffffffffffffffffffffffff163373ffffffffffffffffffffffffffffffffffffffff1614610886576040517f08c379a000000000000000000000000000000000000000000000000000000000815260040161087d906125c6565b60405180910390fd5b6109c2565b6000818360e00160208101906108a19190611f22565b6040516020016108b29291906125e6565b60405160208183030381529060405280519060200120905060006108d5826111bf565b905061093d848061010001906108eb9190612517565b8080601f016020809104026020016040519081016040528093929190818152602001838380828437600081840152601f19601f82011690508083019250505050505050826111ef90919063ffffffff16565b73ffffffffffffffffffffffffffffffffffffffff168460200160600160208101906109699190611f22565b73ffffffffffffffffffffffffffffffffffffffff16146109bf576040517f08c379a00000000000000000000000000000000000000000000000000000000081526004016109b69061265b565b60405180910390fd5b50505b6109e281836020018460e00160208101906109dd9190611f22565b611216565b5050565b6109ee61137f565b6109f86000610ee5565b565b60008060009054906101000a900473ffffffffffffffffffffffffffffffffffffffff16905090565b60006002600084815260200190815260200160002060008373ffffffffffffffffffffffffffffffffffffffff1673ffffffffffffffffffffffffffffffffffffffff16815260200190815260200160002054905092915050565b6000610a8a3383611188565b905062015180600160008381526020019081526020016000206000015442610ab291906126aa565b11610af2576040517f08c379a0000000000000000000000000000000000000000000000000000000008152600401610ae99061272a565b60405180910390fd5b610b25826000016020810190610b089190611f22565b3360016000858152602001908152602001600020600101546113fd565b600060016000838152602001908152602001600020600101819055505050565b60018160a0016020810190610b5a9190612783565b60ff161480610b7e575060028160a0016020810190610b799190612783565b60ff16145b610bbd576040517f08c379a0000000000000000000000000000000000000000000000000000000008152600401610bb4906127fc565b60405180910390fd5b6000610bc93383611188565b90506000600160008381526020019081526020016000206000015414610c24576040517f08c379a0000000000000000000000000000000000000000000000000000000008152600401610c1b90612868565b60405180910390fd5b600073ffffffffffffffffffffffffffffffffffffffff16826000016020810190610c4f9190611f22565b73ffffffffffffffffffffffffffffffffffffffff1614610d1557816000016020810190610c7d9190611f22565b73ffffffffffffffffffffffffffffffffffffffff166323b872dd333085604001356040518463ffffffff1660e01b8152600401610cbd93929190612888565b602060405180830381600087803b158015610cd757600080fd5b505af1158015610ceb573d6000803e3d6000fd5b505050506040513d601f19601f82011682018060405250810190610d0f91906128f7565b50610d5d565b8160400135341015610d5c576040517f08c379a0000000000000000000000000000000000000000000000000000000008152600401610d5390612970565b60405180910390fd5b5b8160400135600160008381526020019081526020016000206001016000828254610d879190612990565b92505081905550816080016020810190610da19190612a12565b6001600083815260200190815260200160002060020160008282829054906101000a900463ffffffff16610dd59190612a3f565b92506101000a81548163ffffffff021916908363ffffffff1602179055504260016000838152602001908152602001600020600001819055503373ffffffffffffffffffffffffffffffffffffffff16817f5c85091c17a5842c079f33795b436b8d466c439605ca6224eb0c0c59624e15a684604051610e559190612bf0565b60405180910390a35050565b610e6961137f565b600073ffffffffffffffffffffffffffffffffffffffff168173ffffffffffffffffffffffffffffffffffffffff161415610ed9576040517f08c379a0000000000000000000000000000000000000000000000000000000008152600401610ed090612c7d565b60405180910390fd5b610ee281610ee5565b50565b60008060009054906101000a900473ffffffffffffffffffffffffffffffffffffffff169050816000806101000a81548173ffffffffffffffffffffffffffffffffffffffff021916908373ffffffffffffffffffffffffffffffffffffffff1602179055508173ffffffffffffffffffffffffffffffffffffffff168173ffffffffffffffffffffffffffffffffffffffff167f8be0079c531659141344cd1fd0a4f28419497f9722a3daafe3b4186f6b6457e060405160405180910390a35050565b6000610fd77f360894a13ba1a3210667c828492db98dca3e2076cc3735a920a3ca505d382bbc60001b6114d5565b60000160009054906101000a900473ffffffffffffffffffffffffffffffffffffffff16905090565b61100861137f565b50565b6110377f4910fdfa16fed3260ed0e7147f7cc6da11a60208b5b9406d12a635614ffd914360001b6114df565b60000160009054906101000a900460ff161561105b57611056836114e9565b611183565b8273ffffffffffffffffffffffffffffffffffffffff166352d1902d6040518163ffffffff1660e01b815260040160206040518083038186803b1580156110a157600080fd5b505afa9250505080156110d257506040513d601f19601f820116820180604052508101906110cf9190612cb2565b60015b611111576040517f08c379a000000000000000000000000000000000000000000000000000000000815260040161110890612d51565b60405180910390fd5b7f360894a13ba1a3210667c828492db98dca3e2076cc3735a920a3ca505d382bbc60001b8114611176576040517f08c379a000000000000000000000000000000000000000000000000000000000815260040161116d90612de3565b60405180910390fd5b506111828383836115a2565b5b505050565b6000463084846040516020016111a19493929190612e03565b60405160208183030381529060405280519060200120905092915050565b6000816040516020016111d29190612ec1565b604051602081830303815290604052805190602001209050919050565b60008060006111fe85856115ce565b9150915061120b81611620565b819250505092915050565b611220838261178e565b60006001600085815260200190815260200160002060405180606001604052908160008201548152602001600182015481526020016002820160009054906101000a900463ffffffff1663ffffffff1663ffffffff16815250509050600061129b838560a00160208101906112959190612783565b8461188d565b90508082602001516112ad91906126aa565b6001600087815260200190815260200160002060010181905550600182604001516112d89190612ee7565b6001600087815260200190815260200160002060020160006101000a81548163ffffffff021916908363ffffffff1602179055506113298460000160208101906113229190611f22565b84836113fd565b8273ffffffffffffffffffffffffffffffffffffffff16857f0508a8b4117d9a7b3d8f5895f6413e61b4f9a2df35afbfb41e78d0ecfff1843f836040516113709190612202565b60405180910390a35050505050565b6113876119c7565b73ffffffffffffffffffffffffffffffffffffffff166113a56109fa565b73ffffffffffffffffffffffffffffffffffffffff16146113fb576040517f08c379a00000000000000000000000000000000000000000000000000000000081526004016113f290612f67565b60405180910390fd5b565b600073ffffffffffffffffffffffffffffffffffffffff168373ffffffffffffffffffffffffffffffffffffffff1614156114415761143c82826119cf565b6114d0565b8273ffffffffffffffffffffffffffffffffffffffff1663a9059cbb83836040518363ffffffff1660e01b815260040161147c929190612f87565b602060405180830381600087803b15801561149657600080fd5b505af11580156114aa573d6000803e3d6000fd5b505050506040513d601f19601f820116820180604052508101906114ce91906128f7565b505b505050565b6000819050919050565b6000819050919050565b6114f281611ac3565b611531576040517f08c379a000000000000000000000000000000000000000000000000000000000815260040161152890613022565b60405180910390fd5b8061155e7f360894a13ba1a3210667c828492db98dca3e2076cc3735a920a3ca505d382bbc60001b6114d5565b60000160006101000a81548173ffffffffffffffffffffffffffffffffffffffff021916908373ffffffffffffffffffffffffffffffffffffffff16021790555050565b6115ab83611ae6565b6000825111806115b85750805b156115c9576115c78383611b35565b505b505050565b6000806041835114156116105760008060006020860151925060408601519150606086015160001a905061160487828585611b62565b94509450505050611619565b60006002915091505b9250929050565b6000600481111561163457611633613042565b5b81600481111561164757611646613042565b5b14156116525761178b565b6001600481111561166657611665613042565b5b81600481111561167957611678613042565b5b14156116ba576040517f08c379a00000000000000000000000000000000000000000000000000000000081526004016116b1906130bd565b60405180910390fd5b600260048111156116ce576116cd613042565b5b8160048111156116e1576116e0613042565b5b1415611722576040517f08c379a000000000000000000000000000000000000000000000000000000000815260040161171990613129565b60405180910390fd5b6003600481111561173657611735613042565b5b81600481111561174957611748613042565b5b141561178a576040517f08c379a0000000000000000000000000000000000000000000000000000000008152600401611781906131bb565b60405180910390fd5b5b50565b60006002600084815260200190815260200160002060008373ffffffffffffffffffffffffffffffffffffffff1673ffffffffffffffffffffffffffffffffffffffff1681526020019081526020016000205414611821576040517f08c379a000000000000000000000000000000000000000000000000000000000815260040161181890613227565b60405180910390fd5b60016002600084815260200190815260200160002060008373ffffffffffffffffffffffffffffffffffffffff1673ffffffffffffffffffffffffffffffffffffffff16815260200190815260200160002060008282546118829190612990565b925050819055505050565b60008082602001511180156118ac57506000826040015163ffffffff16115b6118eb576040517f08c379a00000000000000000000000000000000000000000000000000000000081526004016118e290613293565b60405180910390fd5b6001826040015163ffffffff16141561190a57816020015190506119b2565b60018360ff16141561193757816040015163ffffffff16826020015161193091906132e2565b90506119b1565b60028360ff1614156119b057600084444260405160200161195a93929190613313565b6040516020818303038152906040528051906020012060001c905060006002846040015163ffffffff16856020015161199391906132e2565b61199d919061334a565b905080826119ab91906133a4565b925050505b5b5b60008114156119c057600190505b9392505050565b600033905090565b80471015611a12576040517f08c379a0000000000000000000000000000000000000000000000000000000008152600401611a0990613421565b60405180910390fd5b60008273ffffffffffffffffffffffffffffffffffffffff1682604051611a3890613472565b60006040518083038185875af1925050503d8060008114611a75576040519150601f19603f3d011682016040523d82523d6000602084013e611a7a565b606091505b5050905080611abe576040517f08c379a0000000000000000000000000000000000000000000000000000000008152600401611ab5906134f9565b60405180910390fd5b505050565b6000808273ffffffffffffffffffffffffffffffffffffffff163b119050919050565b611aef816114e9565b8073ffffffffffffffffffffffffffffffffffffffff167fbc7cd75a20ee27fd9adebab32041f755214dbc6bffa90cc0225b39da2e5c2d3b60405160405180910390a250565b6060611b5a83836040518060600160405280602781526020016136c660279139611c45565b905092915050565b6000807f7fffffffffffffffffffffffffffffff5d576e7357a4501ddfe92f46681b20a08360001c1115611b9d576000600391509150611c3c565b600060018787878760405160008152602001604052604051611bc29493929190613528565b6020604051602081039080840390855afa158015611be4573d6000803e3d6000fd5b505050602060405103519050600073ffffffffffffffffffffffffffffffffffffffff168173ffffffffffffffffffffffffffffffffffffffff161415611c3357600060019250925050611c3c565b80600092509250505b94509492505050565b60606000808573ffffffffffffffffffffffffffffffffffffffff1685604051611c6f91906135dc565b600060405180830381855af49150503d8060008114611caa576040519150601f19603f3d011682016040523d82523d6000602084013e611caf565b606091505b5091509150611cc086838387611ccb565b925050509392505050565b60608315611d2e57600083511415611d2657611ce685611ac3565b611d25576040517f08c379a0000000000000000000000000000000000000000000000000000000008152600401611d1c9061363f565b60405180910390fd5b5b829050611d39565b611d388383611d41565b5b949350505050565b600082511115611d545781518083602001fd5b806040517f08c379a0000000000000000000000000000000000000000000000000000000008152600401611d8891906136a3565b60405180910390fd5b60405180606001604052806000815260200160008152602001600063ffffffff1681525090565b6000604051905090565b600080fd5b600080fd5b6000819050919050565b611ddf81611dcc565b8114611dea57600080fd5b50565b600081359050611dfc81611dd6565b92915050565b600060208284031215611e1857611e17611dc2565b5b6000611e2684828501611ded565b91505092915050565b6000819050919050565b611e4281611e2f565b82525050565b600063ffffffff82169050919050565b611e6181611e48565b82525050565b606082016000820151611e7d6000850182611e39565b506020820151611e906020850182611e39565b506040820151611ea36040850182611e58565b50505050565b6000606082019050611ebe6000830184611e67565b92915050565b600073ffffffffffffffffffffffffffffffffffffffff82169050919050565b6000611eef82611ec4565b9050919050565b611eff81611ee4565b8114611f0a57600080fd5b50565b600081359050611f1c81611ef6565b92915050565b600060208284031215611f3857611f37611dc2565b5b6000611f4684828501611f0d565b91505092915050565b600080fd5b600080fd5b6000601f19601f8301169050919050565b7f4e487b7100000000000000000000000000000000000000000000000000000000600052604160045260246000fd5b611fa282611f59565b810181811067ffffffffffffffff82111715611fc157611fc0611f6a565b5b80604052505050565b6000611fd4611db8565b9050611fe08282611f99565b919050565b600067ffffffffffffffff82111561200057611fff611f6a565b5b61200982611f59565b9050602081019050919050565b82818337600083830152505050565b600061203861203384611fe5565b611fca565b90508281526020810184848401111561205457612053611f54565b5b61205f848285612016565b509392505050565b600082601f83011261207c5761207b611f4f565b5b813561208c848260208601612025565b91505092915050565b600080604083850312156120ac576120ab611dc2565b5b60006120ba85828601611f0d565b925050602083013567ffffffffffffffff8111156120db576120da611dc7565b5b6120e785828601612067565b9150509250929050565b6120fa81611dcc565b82525050565b600060208201905061211560008301846120f1565b92915050565b61212481611ee4565b82525050565b600060208201905061213f600083018461211b565b92915050565b600080fd5b6000610120828403121561216157612160612145565b5b81905092915050565b6000602082840312156121805761217f611dc2565b5b600082013567ffffffffffffffff81111561219e5761219d611dc7565b5b6121aa8482850161214a565b91505092915050565b600080604083850312156121ca576121c9611dc2565b5b60006121d885828601611ded565b92505060206121e985828601611f0d565b9150509250929050565b6121fc81611e2f565b82525050565b600060208201905061221760008301846121f3565b92915050565b600060c0828403121561223357612232612145565b5b81905092915050565b600060c0828403121561225257612251611dc2565b5b60006122608482850161221d565b91505092915050565b600082825260208201905092915050565b7f4f776e657220616c726561647920736574000000000000000000000000000000600082015250565b60006122b0601183612269565b91506122bb8261227a565b602082019050919050565b600060208201905081810360008301526122df816122a3565b9050919050565b7f4f776e65722063616e6e6f742062652061646472657373207a65726f00000000600082015250565b600061231c601c83612269565b9150612327826122e6565b602082019050919050565b6000602082019050818103600083015261234b8161230f565b9050919050565b7f46756e6374696f6e206d7573742062652063616c6c6564207468726f7567682060008201527f64656c656761746563616c6c0000000000000000000000000000000000000000602082015250565b60006123ae602c83612269565b91506123b982612352565b604082019050919050565b600060208201905081810360008301526123dd816123a1565b9050919050565b7f46756e6374696f6e206d7573742062652063616c6c6564207468726f7567682060008201527f6163746976652070726f78790000000000000000000000000000000000000000602082015250565b6000612440602c83612269565b915061244b826123e4565b604082019050919050565b6000602082019050818103600083015261246f81612433565b9050919050565b7f555550535570677261646561626c653a206d757374206e6f742062652063616c60008201527f6c6564207468726f7567682064656c656761746563616c6c0000000000000000602082015250565b60006124d2603883612269565b91506124dd82612476565b604082019050919050565b60006020820190508181036000830152612501816124c5565b9050919050565b600080fd5b600080fd5b600080fd5b6000808335600160200384360303811261253457612533612508565b5b80840192508235915067ffffffffffffffff8211156125565761255561250d565b5b60208301925060018202360383131561257257612571612512565b5b509250929050565b7f556e617574686f72697a65640000000000000000000000000000000000000000600082015250565b60006125b0600c83612269565b91506125bb8261257a565b602082019050919050565b600060208201905081810360008301526125df816125a3565b9050919050565b60006040820190506125fb60008301856120f1565b612608602083018461211b565b9392505050565b7f496e76616c6964207369676e6174757265000000000000000000000000000000600082015250565b6000612645601183612269565b91506126508261260f565b602082019050919050565b6000602082019050818103600083015261267481612638565b9050919050565b7f4e487b7100000000000000000000000000000000000000000000000000000000600052601160045260246000fd5b60006126b582611e2f565b91506126c083611e2f565b9250828210156126d3576126d261267b565b5b828203905092915050565b7f5061636b6574206c6f636b656400000000000000000000000000000000000000600082015250565b6000612714600d83612269565b915061271f826126de565b602082019050919050565b6000602082019050818103600083015261274381612707565b9050919050565b600060ff82169050919050565b6127608161274a565b811461276b57600080fd5b50565b60008135905061277d81612757565b92915050565b60006020828403121561279957612798611dc2565b5b60006127a78482850161276e565b91505092915050565b7f496e76616c6964206d6f64650000000000000000000000000000000000000000600082015250565b60006127e6600c83612269565b91506127f1826127b0565b602082019050919050565b60006020820190508181036000830152612815816127d9565b9050919050565b7f5061636b657420616c7265616479206372656174656400000000000000000000600082015250565b6000612852601683612269565b915061285d8261281c565b602082019050919050565b6000602082019050818103600083015261288181612845565b9050919050565b600060608201905061289d600083018661211b565b6128aa602083018561211b565b6128b760408301846121f3565b949350505050565b60008115159050919050565b6128d4816128bf565b81146128df57600080fd5b50565b6000815190506128f1816128cb565b92915050565b60006020828403121561290d5761290c611dc2565b5b600061291b848285016128e2565b91505092915050565b7f496e73756666696369656e742062616c616e6365000000000000000000000000600082015250565b600061295a601483612269565b915061296582612924565b602082019050919050565b600060208201905081810360008301526129898161294d565b9050919050565b600061299b82611e2f565b91506129a683611e2f565b9250827fffffffffffffffffffffffffffffffffffffffffffffffffffffffffffffffff038211156129db576129da61267b565b5b828201905092915050565b6129ef81611e48565b81146129fa57600080fd5b50565b600081359050612a0c816129e6565b92915050565b600060208284031215612a2857612a27611dc2565b5b6000612a36848285016129fd565b91505092915050565b6000612a4a82611e48565b9150612a5583611e48565b92508263ffffffff03821115612a6e57612a6d61267b565b5b828201905092915050565b6000612a886020840184611f0d565b905092915050565b612a9981611ee4565b82525050565b6000612aae6020840184611ded565b905092915050565b612abf81611dcc565b82525050565b612ace81611e2f565b8114612ad957600080fd5b50565b600081359050612aeb81612ac5565b92915050565b6000612b006020840184612adc565b905092915050565b6000612b1760208401846129fd565b905092915050565b6000612b2e602084018461276e565b905092915050565b612b3f8161274a565b82525050565b60c08201612b566000830183612a79565b612b636000850182612a90565b50612b716020830183612a9f565b612b7e6020850182612ab6565b50612b8c6040830183612af1565b612b996040850182611e39565b50612ba76060830183612a79565b612bb46060850182612a90565b50612bc26080830183612b08565b612bcf6080850182611e58565b50612bdd60a0830183612b1f565b612bea60a0850182612b36565b50505050565b600060c082019050612c056000830184612b45565b92915050565b7f4f776e61626c653a206e6577206f776e657220697320746865207a65726f206160008201527f6464726573730000000000000000000000000000000000000000000000000000602082015250565b6000612c67602683612269565b9150612c7282612c0b565b604082019050919050565b60006020820190508181036000830152612c9681612c5a565b9050919050565b600081519050612cac81611dd6565b92915050565b600060208284031215612cc857612cc7611dc2565b5b6000612cd684828501612c9d565b91505092915050565b7f45524331393637557067726164653a206e657720696d706c656d656e7461746960008201527f6f6e206973206e6f742055555053000000000000000000000000000000000000602082015250565b6000612d3b602e83612269565b9150612d4682612cdf565b604082019050919050565b60006020820190508181036000830152612d6a81612d2e565b9050919050565b7f45524331393637557067726164653a20756e737570706f727465642070726f7860008201527f6961626c65555549440000000000000000000000000000000000000000000000602082015250565b6000612dcd602983612269565b9150612dd882612d71565b604082019050919050565b60006020820190508181036000830152612dfc81612dc0565b9050919050565b600061012082019050612e1960008301876121f3565b612e26602083018661211b565b612e33604083018561211b565b612e406060830184612b45565b95945050505050565b600081905092915050565b7f19457468657265756d205369676e6564204d6573736167653a0a333200000000600082015250565b6000612e8a601c83612e49565b9150612e9582612e54565b601c82019050919050565b6000819050919050565b612ebb612eb682611dcc565b612ea0565b82525050565b6000612ecc82612e7d565b9150612ed88284612eaa565b60208201915081905092915050565b6000612ef282611e48565b9150612efd83611e48565b925082821015612f1057612f0f61267b565b5b828203905092915050565b7f4f776e61626c653a2063616c6c6572206973206e6f7420746865206f776e6572600082015250565b6000612f51602083612269565b9150612f5c82612f1b565b602082019050919050565b60006020820190508181036000830152612f8081612f44565b9050919050565b6000604082019050612f9c600083018561211b565b612fa960208301846121f3565b9392505050565b7f455243313936373a206e657720696d706c656d656e746174696f6e206973206e60008201527f6f74206120636f6e747261637400000000000000000000000000000000000000602082015250565b600061300c602d83612269565b915061301782612fb0565b604082019050919050565b6000602082019050818103600083015261303b81612fff565b9050919050565b7f4e487b7100000000000000000000000000000000000000000000000000000000600052602160045260246000fd5b7f45434453413a20696e76616c6964207369676e61747572650000000000000000600082015250565b60006130a7601883612269565b91506130b282613071565b602082019050919050565b600060208201905081810360008301526130d68161309a565b9050919050565b7f45434453413a20696e76616c6964207369676e6174757265206c656e67746800600082015250565b6000613113601f83612269565b915061311e826130dd565b602082019050919050565b6000602082019050818103600083015261314281613106565b9050919050565b7f45434453413a20696e76616c6964207369676e6174757265202773272076616c60008201527f7565000000000000000000000000000000000000000000000000000000000000602082015250565b60006131a5602283612269565b91506131b082613149565b604082019050919050565b600060208201905081810360008301526131d481613198565b9050919050565b7f416c726561647920636c61696d65640000000000000000000000000000000000600082015250565b6000613211600f83612269565b915061321c826131db565b602082019050919050565b6000602082019050818103600083015261324081613204565b9050919050565b7f456d707479205061636b65740000000000000000000000000000000000000000600082015250565b600061327d600c83612269565b915061328882613247565b602082019050919050565b600060208201905081810360008301526132ac81613270565b9050919050565b7f4e487b7100000000000000000000000000000000000000000000000000000000600052601260045260246000fd5b60006132ed82611e2f565b91506132f883611e2f565b925082613308576133076132b3565b5b828204905092915050565b6000606082019050613328600083018661211b565b61333560208301856121f3565b61334260408301846121f3565b949350505050565b600061335582611e2f565b915061336083611e2f565b9250817fffffffffffffffffffffffffffffffffffffffffffffffffffffffffffffffff04831182151516156133995761339861267b565b5b828202905092915050565b60006133af82611e2f565b91506133ba83611e2f565b9250826133ca576133c96132b3565b5b828206905092915050565b7f416464726573733a20696e73756666696369656e742062616c616e6365000000600082015250565b600061340b601d83612269565b9150613416826133d5565b602082019050919050565b6000602082019050818103600083015261343a816133fe565b9050919050565b600081905092915050565b50565b600061345c600083613441565b91506134678261344c565b600082019050919050565b600061347d8261344f565b9150819050919050565b7f416464726573733a20756e61626c6520746f2073656e642076616c75652c207260008201527f6563697069656e74206d61792068617665207265766572746564000000000000602082015250565b60006134e3603a83612269565b91506134ee82613487565b604082019050919050565b60006020820190508181036000830152613512816134d6565b9050919050565b6135228161274a565b82525050565b600060808201905061353d60008301876120f1565b61354a6020830186613519565b61355760408301856120f1565b61356460608301846120f1565b95945050505050565b600081519050919050565b60005b8381101561359657808201518184015260208101905061357b565b838111156135a5576000848401525b50505050565b60006135b68261356d565b6135c08185613441565b93506135d0818560208601613578565b80840191505092915050565b60006135e882846135ab565b915081905092915050565b7f416464726573733a2063616c6c20746f206e6f6e2d636f6e7472616374000000600082015250565b6000613629601d83612269565b9150613634826135f3565b602082019050919050565b600060208201905081810360008301526136588161361c565b9050919050565b600081519050919050565b60006136758261365f565b61367f8185612269565b935061368f818560208601613578565b61369881611f59565b840191505092915050565b600060208201905081810360008301526136bd818461366a565b90509291505056fe416464726573733a206c6f772d6c6576656c2064656c65676174652063616c6c206661696c6564a264697066735822122051002ebb1db6af755339e2123a73edb4cc0460bbd203951d85180398d4e210f364736f6c63430008080033",
  "devdoc": {
    "kind": "dev",
    "methods": {
      "owner()": {
        "details": "Returns the address of the current owner."
      },
      "proxiableUUID()": {
        "details": "Implementation of the ERC1822 {proxiableUUID} function. This returns the storage slot used by the implementation. It is used to validate the implementation's compatibility when performing an upgrade. IMPORTANT: A proxy pointing at a proxiable contract should not be considered proxiable itself, because this risks bricking a proxy that upgrades to it, by delegating to itself until out of gas. Thus it is critical that this function revert if invoked through a proxy. This is guaranteed by the `notDelegated` modifier."
      },
      "renounceOwnership()": {
        "details": "Leaves the contract without owner. It will not be possible to call `onlyOwner` functions anymore. Can only be called by the current owner. NOTE: Renouncing ownership will leave the contract without an owner, thereby removing any functionality that is only available to the owner."
      },
      "transferOwnership(address)": {
        "details": "Transfers ownership of the contract to a new account (`newOwner`). Can only be called by the current owner."
      },
      "upgradeTo(address)": {
        "details": "Upgrade the implementation of the proxy to `newImplementation`. Calls {_authorizeUpgrade}. Emits an {Upgraded} event."
      },
      "upgradeToAndCall(address,bytes)": {
        "details": "Upgrade the implementation of the proxy to `newImplementation`, and subsequently execute the function call encoded in `data`. Calls {_authorizeUpgrade}. Emits an {Upgraded} event."
      }
    },
    "version": 1
  },
  "userdoc": {
    "kind": "user",
    "methods": {},
    "version": 1
  },
  "storageLayout": {
    "storage": [
      {
        "astId": 2861,
        "contract": "contracts/apps/HappyRedPacket.sol:HappyRedPacketImpl",
        "label": "_owner",
        "offset": 0,
        "slot": "0",
        "type": "t_address"
      },
      {
        "astId": 5627,
        "contract": "contracts/apps/HappyRedPacket.sol:HappyRedPacketImpl",
        "label": "packets_",
        "offset": 0,
        "slot": "1",
        "type": "t_mapping(t_bytes32,t_struct(RedPacket)5622_storage)"
      },
      {
        "astId": 5633,
        "contract": "contracts/apps/HappyRedPacket.sol:HappyRedPacketImpl",
        "label": "count_",
        "offset": 0,
        "slot": "2",
        "type": "t_mapping(t_bytes32,t_mapping(t_address,t_uint256))"
      }
    ],
    "types": {
      "t_address": {
        "encoding": "inplace",
        "label": "address",
        "numberOfBytes": "20"
      },
      "t_bytes32": {
        "encoding": "inplace",
        "label": "bytes32",
        "numberOfBytes": "32"
      },
      "t_mapping(t_address,t_uint256)": {
        "encoding": "mapping",
        "key": "t_address",
        "label": "mapping(address => uint256)",
        "numberOfBytes": "32",
        "value": "t_uint256"
      },
      "t_mapping(t_bytes32,t_mapping(t_address,t_uint256))": {
        "encoding": "mapping",
        "key": "t_bytes32",
        "label": "mapping(bytes32 => mapping(address => uint256))",
        "numberOfBytes": "32",
        "value": "t_mapping(t_address,t_uint256)"
      },
      "t_mapping(t_bytes32,t_struct(RedPacket)5622_storage)": {
        "encoding": "mapping",
        "key": "t_bytes32",
        "label": "mapping(bytes32 => struct HappyRedPacketImpl.RedPacket)",
        "numberOfBytes": "32",
        "value": "t_struct(RedPacket)5622_storage"
      },
      "t_struct(RedPacket)5622_storage": {
        "encoding": "inplace",
        "label": "struct HappyRedPacketImpl.RedPacket",
        "members": [
          {
            "astId": 5617,
            "contract": "contracts/apps/HappyRedPacket.sol:HappyRedPacketImpl",
            "label": "createdAt",
            "offset": 0,
            "slot": "0",
            "type": "t_uint256"
          },
          {
            "astId": 5619,
            "contract": "contracts/apps/HappyRedPacket.sol:HappyRedPacketImpl",
            "label": "balance",
            "offset": 0,
            "slot": "1",
            "type": "t_uint256"
          },
          {
            "astId": 5621,
            "contract": "contracts/apps/HappyRedPacket.sol:HappyRedPacketImpl",
            "label": "split",
            "offset": 0,
            "slot": "2",
            "type": "t_uint32"
          }
        ],
        "numberOfBytes": "96"
      },
      "t_uint256": {
        "encoding": "inplace",
        "label": "uint256",
        "numberOfBytes": "32"
      },
      "t_uint32": {
        "encoding": "inplace",
        "label": "uint32",
        "numberOfBytes": "4"
      }
    }
  }
}