{
  "address": "0x8Cb44A5fc5435b141B6B100A6AE9c9E52c18e667",
  "abi": [
    {
      "anonymous": false,
      "inputs": [
        {
          "indexed": true,
          "internalType": "bytes32",
          "name": "PacketId",
          "type": "bytes32"
        },
        {
          "indexed": false,
          "internalType": "address",
          "name": "claimer",
          "type": "address"
        },
        {
          "indexed": false,
          "internalType": "uint256",
          "name": "amount",
          "type": "uint256"
        }
      ],
      "name": "Claimed",
      "type": "event"
    },
    {
      "anonymous": false,
      "inputs": [
        {
          "indexed": true,
          "internalType": "bytes32",
          "name": "PacketId",
          "type": "bytes32"
        },
        {
          "indexed": false,
          "internalType": "address",
          "name": "creator",
          "type": "address"
        },
        {
          "components": [
            {
              "internalType": "address",
              "name": "token",
              "type": "address"
            },
            {
              "internalType": "bytes32",
              "name": "salt",
              "type": "bytes32"
            },
            {
              "internalType": "uint256",
              "name": "expiredAt",
              "type": "uint256"
            },
            {
              "internalType": "uint256",
              "name": "balance",
              "type": "uint256"
            },
            {
              "internalType": "address",
              "name": "validator",
              "type": "address"
            },
            {
              "internalType": "uint32",
              "name": "split",
              "type": "uint32"
            },
            {
              "internalType": "uint8",
              "name": "mode",
              "type": "uint8"
            }
          ],
          "indexed": false,
          "internalType": "struct HappyRedPacket.RedPacketData",
          "name": "packet",
          "type": "tuple"
        }
      ],
      "name": "Created",
      "type": "event"
    },
    {
      "inputs": [
        {
          "internalType": "address",
          "name": "creator",
          "type": "address"
        },
        {
          "components": [
            {
              "internalType": "address",
              "name": "token",
              "type": "address"
            },
            {
              "internalType": "bytes32",
              "name": "salt",
              "type": "bytes32"
            },
            {
              "internalType": "uint256",
              "name": "expiredAt",
              "type": "uint256"
            },
            {
              "internalType": "uint256",
              "name": "balance",
              "type": "uint256"
            },
            {
              "internalType": "address",
              "name": "validator",
              "type": "address"
            },
            {
              "internalType": "uint32",
              "name": "split",
              "type": "uint32"
            },
            {
              "internalType": "uint8",
              "name": "mode",
              "type": "uint8"
            }
          ],
          "internalType": "struct HappyRedPacket.RedPacketData",
          "name": "pd",
          "type": "tuple"
        },
        {
          "internalType": "address",
          "name": "claimer",
          "type": "address"
        },
        {
          "internalType": "address",
          "name": "refundReceiver",
          "type": "address"
        },
        {
          "internalType": "bytes",
          "name": "signature",
          "type": "bytes"
        }
      ],
      "name": "claim",
      "outputs": [],
      "stateMutability": "nonpayable",
      "type": "function"
    },
    {
      "inputs": [
        {
          "components": [
            {
              "internalType": "address",
              "name": "token",
              "type": "address"
            },
            {
              "internalType": "bytes32",
              "name": "salt",
              "type": "bytes32"
            },
            {
              "internalType": "uint256",
              "name": "expiredAt",
              "type": "uint256"
            },
            {
              "internalType": "uint256",
              "name": "balance",
              "type": "uint256"
            },
            {
              "internalType": "address",
              "name": "validator",
              "type": "address"
            },
            {
              "internalType": "uint32",
              "name": "split",
              "type": "uint32"
            },
            {
              "internalType": "uint8",
              "name": "mode",
              "type": "uint8"
            }
          ],
          "internalType": "struct HappyRedPacket.RedPacketData",
          "name": "pd",
          "type": "tuple"
        }
      ],
      "name": "create",
      "outputs": [],
      "stateMutability": "payable",
      "type": "function"
    },
    {
      "inputs": [
        {
          "internalType": "bytes32",
          "name": "id",
          "type": "bytes32"
        }
      ],
      "name": "getPacket",
      "outputs": [
        {
          "components": [
            {
              "internalType": "uint256",
              "name": "balance",
              "type": "uint256"
            },
            {
              "internalType": "uint32",
              "name": "split",
              "type": "uint32"
            }
          ],
          "internalType": "struct HappyRedPacket.RedPacket",
          "name": "",
          "type": "tuple"
        }
      ],
      "stateMutability": "view",
      "type": "function"
    },
    {
      "inputs": [
        {
          "internalType": "address",
          "name": "token",
          "type": "address"
        },
        {
          "internalType": "bytes32",
          "name": "salt",
          "type": "bytes32"
        }
      ],
      "name": "refund",
      "outputs": [],
      "stateMutability": "nonpayable",
      "type": "function"
    }
  ],
  "transactionHash": "0xae9aa26ae5cce9ecdf00cdc83a5b93284adbac6c10b1c2b9b6cec77c108fc527",
  "args": [],
  "numDeployments": 4,
  "solcInputHash": "df3726125958908b7949e4ce64b9aac2",
  "bytecode": "0x608060405234801561001057600080fd5b50611df3806100206000396000f3fe60806040526004361061003f5760003560e01c80630b524856146100445780631ad72b351461008157806337b6ee7e146100aa5780634c98827b146100d3575b600080fd5b34801561005057600080fd5b5061006b60048036038101906100669190610e2e565b6100ef565b6040516100789190610ec2565b60405180910390f35b34801561008d57600080fd5b506100a860048036038101906100a39190611176565b61014b565b005b3480156100b657600080fd5b506100d160048036038101906100cc9190611214565b6104d3565b005b6100ed60048036038101906100e89190611254565b610542565b005b6100f7610dc4565b600080838152602001908152602001600020604051806040016040529081600082015481526020016001820160009054906101000a900463ffffffff1663ffffffff1663ffffffff16815250509050919050565b6000856040015114806101615750428560400151115b6101a0576040517f08c379a0000000000000000000000000000000000000000000000000000000008152600401610197906112de565b60405180910390fd5b60006101ac878761078d565b905060006001600083815260200190815260200160002060008773ffffffffffffffffffffffffffffffffffffffff1673ffffffffffffffffffffffffffffffffffffffff1681526020019081526020016000205414610241576040517f08c379a00000000000000000000000000000000000000000000000000000000081526004016102389061134a565b60405180910390fd5b600081868660405160200161025893929190611388565b604051602081830303815290604052805190602001209050600061027b826107c4565b90506102d485858080601f016020809104026020016040519081016040528093929190818152602001838380828437600081840152601f19601f82011690508083019250505050505050826107f490919063ffffffff16565b73ffffffffffffffffffffffffffffffffffffffff16886080015173ffffffffffffffffffffffffffffffffffffffff1614610345576040517f08c379a000000000000000000000000000000000000000000000000000000000815260040161033c9061140b565b60405180910390fd5b600180600085815260200190815260200160002060008973ffffffffffffffffffffffffffffffffffffffff1673ffffffffffffffffffffffffffffffffffffffff16815260200190815260200160002060008282546103a5919061145a565b925050819055506000806000858152602001908152602001600020604051806040016040529081600082015481526020016001820160009054906101000a900463ffffffff1663ffffffff1663ffffffff16815250509050600061040e898b60c001518461081b565b905080826000015161042091906114b0565b600080878152602001908152602001600020600001819055506001826020015161044a91906114e4565b60008087815260200190815260200160002060010160006101000a81548163ffffffff021916908363ffffffff16021790555061048c8a600001518a83610955565b847f0508a8b4117d9a7b3d8f5895f6413e61b4f9a2df35afbfb41e78d0ecfff1843f8a836040516104be929190611527565b60405180910390a25050505050505050505050565b60003383836040516020016104ea93929190611550565b604051602081830303815290604052805190602001209050610522833360008085815260200190815260200160002060000154610955565b600080600083815260200190815260200160002060000181905550505050565b60018160c0015160ff16148061055f575060028160c0015160ff16145b61059e576040517f08c379a0000000000000000000000000000000000000000000000000000000008152600401610595906115d3565b60405180910390fd5b60006105aa338361078d565b9050600073ffffffffffffffffffffffffffffffffffffffff16826000015173ffffffffffffffffffffffffffffffffffffffff161461068157816000015173ffffffffffffffffffffffffffffffffffffffff166323b872dd333085606001516040518463ffffffff1660e01b8152600401610629939291906115f3565b602060405180830381600087803b15801561064357600080fd5b505af1158015610657573d6000803e3d6000fd5b505050506040513d601f19601f8201168201806040525081019061067b9190611662565b506106c9565b81606001513410156106c8576040517f08c379a00000000000000000000000000000000000000000000000000000000081526004016106bf906116db565b60405180910390fd5b5b816060015160008083815260200190815260200160002060000160008282546106f2919061145a565b925050819055508160a0015160008083815260200190815260200160002060010160008282829054906101000a900463ffffffff1661073191906116fb565b92506101000a81548163ffffffff021916908363ffffffff160217905550807f5dd8a1c911e2c23c42b66eda03e00613255a71d8a7b8e01d96b4dfcf828def3c33846040516107819291906117f0565b60405180910390a25050565b6000463084846040516020016107a6949392919061181a565b60405160208183030381529060405280519060200120905092915050565b6000816040516020016107d791906118d8565b604051602081830303815290604052805190602001209050919050565b60008060006108038585610a2d565b9150915061081081610a7f565b819250505092915050565b600080826000015111801561083a57506000826020015163ffffffff16115b610879576040517f08c379a00000000000000000000000000000000000000000000000000000000081526004016108709061194a565b60405180910390fd5b6001826020015163ffffffff1614156108985781600001519050610940565b60018360ff1614156108c557816020015163ffffffff1682600001516108be9190611999565b905061093f565b60028360ff16141561093e5760008444426040516020016108e8939291906119ca565b6040516020818303038152906040528051906020012060001c905060006002846020015163ffffffff1685600001516109219190611999565b61092b9190611a01565b905080826109399190611a5b565b925050505b5b5b600081141561094e57600190505b9392505050565b600073ffffffffffffffffffffffffffffffffffffffff168373ffffffffffffffffffffffffffffffffffffffff161415610999576109948282610bed565b610a28565b8273ffffffffffffffffffffffffffffffffffffffff1663a9059cbb83836040518363ffffffff1660e01b81526004016109d4929190611527565b602060405180830381600087803b1580156109ee57600080fd5b505af1158015610a02573d6000803e3d6000fd5b505050506040513d601f19601f82011682018060405250810190610a269190611662565b505b505050565b600080604183511415610a6f5760008060006020860151925060408601519150606086015160001a9050610a6387828585610ce1565b94509450505050610a78565b60006002915091505b9250929050565b60006004811115610a9357610a92611a8c565b5b816004811115610aa657610aa5611a8c565b5b1415610ab157610bea565b60016004811115610ac557610ac4611a8c565b5b816004811115610ad857610ad7611a8c565b5b1415610b19576040517f08c379a0000000000000000000000000000000000000000000000000000000008152600401610b1090611b07565b60405180910390fd5b60026004811115610b2d57610b2c611a8c565b5b816004811115610b4057610b3f611a8c565b5b1415610b81576040517f08c379a0000000000000000000000000000000000000000000000000000000008152600401610b7890611b73565b60405180910390fd5b60036004811115610b9557610b94611a8c565b5b816004811115610ba857610ba7611a8c565b5b1415610be9576040517f08c379a0000000000000000000000000000000000000000000000000000000008152600401610be090611c05565b60405180910390fd5b5b50565b80471015610c30576040517f08c379a0000000000000000000000000000000000000000000000000000000008152600401610c2790611c71565b60405180910390fd5b60008273ffffffffffffffffffffffffffffffffffffffff1682604051610c5690611cc2565b60006040518083038185875af1925050503d8060008114610c93576040519150601f19603f3d011682016040523d82523d6000602084013e610c98565b606091505b5050905080610cdc576040517f08c379a0000000000000000000000000000000000000000000000000000000008152600401610cd390611d49565b60405180910390fd5b505050565b6000807f7fffffffffffffffffffffffffffffff5d576e7357a4501ddfe92f46681b20a08360001c1115610d1c576000600391509150610dbb565b600060018787878760405160008152602001604052604051610d419493929190611d78565b6020604051602081039080840390855afa158015610d63573d6000803e3d6000fd5b505050602060405103519050600073ffffffffffffffffffffffffffffffffffffffff168173ffffffffffffffffffffffffffffffffffffffff161415610db257600060019250925050610dbb565b80600092509250505b94509492505050565b604051806040016040528060008152602001600063ffffffff1681525090565b6000604051905090565b600080fd5b600080fd5b6000819050919050565b610e0b81610df8565b8114610e1657600080fd5b50565b600081359050610e2881610e02565b92915050565b600060208284031215610e4457610e43610dee565b5b6000610e5284828501610e19565b91505092915050565b6000819050919050565b610e6e81610e5b565b82525050565b600063ffffffff82169050919050565b610e8d81610e74565b82525050565b604082016000820151610ea96000850182610e65565b506020820151610ebc6020850182610e84565b50505050565b6000604082019050610ed76000830184610e93565b92915050565b600073ffffffffffffffffffffffffffffffffffffffff82169050919050565b6000610f0882610edd565b9050919050565b610f1881610efd565b8114610f2357600080fd5b50565b600081359050610f3581610f0f565b92915050565b600080fd5b6000601f19601f8301169050919050565b7f4e487b7100000000000000000000000000000000000000000000000000000000600052604160045260246000fd5b610f8982610f40565b810181811067ffffffffffffffff82111715610fa857610fa7610f51565b5b80604052505050565b6000610fbb610de4565b9050610fc78282610f80565b919050565b610fd581610e5b565b8114610fe057600080fd5b50565b600081359050610ff281610fcc565b92915050565b61100181610e74565b811461100c57600080fd5b50565b60008135905061101e81610ff8565b92915050565b600060ff82169050919050565b61103a81611024565b811461104557600080fd5b50565b60008135905061105781611031565b92915050565b600060e0828403121561107357611072610f3b565b5b61107d60e0610fb1565b9050600061108d84828501610f26565b60008301525060206110a184828501610e19565b60208301525060406110b584828501610fe3565b60408301525060606110c984828501610fe3565b60608301525060806110dd84828501610f26565b60808301525060a06110f18482850161100f565b60a08301525060c061110584828501611048565b60c08301525092915050565b600080fd5b600080fd5b600080fd5b60008083601f84011261113657611135611111565b5b8235905067ffffffffffffffff81111561115357611152611116565b5b60208301915083600182028301111561116f5761116e61111b565b5b9250929050565b600080600080600080610160878903121561119457611193610dee565b5b60006111a289828a01610f26565b96505060206111b389828a0161105d565b9550506101006111c589828a01610f26565b9450506101206111d789828a01610f26565b93505061014087013567ffffffffffffffff8111156111f9576111f8610df3565b5b61120589828a01611120565b92509250509295509295509295565b6000806040838503121561122b5761122a610dee565b5b600061123985828601610f26565b925050602061124a85828601610e19565b9150509250929050565b600060e0828403121561126a57611269610dee565b5b60006112788482850161105d565b91505092915050565b600082825260208201905092915050565b7f5061636b65742045787069726564000000000000000000000000000000000000600082015250565b60006112c8600e83611281565b91506112d382611292565b602082019050919050565b600060208201905081810360008301526112f7816112bb565b9050919050565b7f416c726561647920636c61696d65640000000000000000000000000000000000600082015250565b6000611334600f83611281565b915061133f826112fe565b602082019050919050565b6000602082019050818103600083015261136381611327565b9050919050565b61137381610df8565b82525050565b61138281610efd565b82525050565b600060608201905061139d600083018661136a565b6113aa6020830185611379565b6113b76040830184611379565b949350505050565b7f496e76616c6964207369676e6174757265000000000000000000000000000000600082015250565b60006113f5601183611281565b9150611400826113bf565b602082019050919050565b60006020820190508181036000830152611424816113e8565b9050919050565b7f4e487b7100000000000000000000000000000000000000000000000000000000600052601160045260246000fd5b600061146582610e5b565b915061147083610e5b565b9250827fffffffffffffffffffffffffffffffffffffffffffffffffffffffffffffffff038211156114a5576114a461142b565b5b828201905092915050565b60006114bb82610e5b565b91506114c683610e5b565b9250828210156114d9576114d861142b565b5b828203905092915050565b60006114ef82610e74565b91506114fa83610e74565b92508282101561150d5761150c61142b565b5b828203905092915050565b61152181610e5b565b82525050565b600060408201905061153c6000830185611379565b6115496020830184611518565b9392505050565b60006060820190506115656000830186611379565b6115726020830185611379565b61157f604083018461136a565b949350505050565b7f496e76616c6964206d6f64650000000000000000000000000000000000000000600082015250565b60006115bd600c83611281565b91506115c882611587565b602082019050919050565b600060208201905081810360008301526115ec816115b0565b9050919050565b60006060820190506116086000830186611379565b6116156020830185611379565b6116226040830184611518565b949350505050565b60008115159050919050565b61163f8161162a565b811461164a57600080fd5b50565b60008151905061165c81611636565b92915050565b60006020828403121561167857611677610dee565b5b60006116868482850161164d565b91505092915050565b7f496e73756666696369656e742062616c616e6365000000000000000000000000600082015250565b60006116c5601483611281565b91506116d08261168f565b602082019050919050565b600060208201905081810360008301526116f4816116b8565b9050919050565b600061170682610e74565b915061171183610e74565b92508263ffffffff0382111561172a5761172961142b565b5b828201905092915050565b61173e81610efd565b82525050565b61174d81610df8565b82525050565b61175c81611024565b82525050565b60e0820160008201516117786000850182611735565b50602082015161178b6020850182611744565b50604082015161179e6040850182610e65565b5060608201516117b16060850182610e65565b5060808201516117c46080850182611735565b5060a08201516117d760a0850182610e84565b5060c08201516117ea60c0850182611753565b50505050565b6000610100820190506118066000830185611379565b6118136020830184611762565b9392505050565b6000610140820190506118306000830187611518565b61183d6020830186611379565b61184a6040830185611379565b6118576060830184611762565b95945050505050565b600081905092915050565b7f19457468657265756d205369676e6564204d6573736167653a0a333200000000600082015250565b60006118a1601c83611860565b91506118ac8261186b565b601c82019050919050565b6000819050919050565b6118d26118cd82610df8565b6118b7565b82525050565b60006118e382611894565b91506118ef82846118c1565b60208201915081905092915050565b7f456d707479205061636b65740000000000000000000000000000000000000000600082015250565b6000611934600c83611281565b915061193f826118fe565b602082019050919050565b6000602082019050818103600083015261196381611927565b9050919050565b7f4e487b7100000000000000000000000000000000000000000000000000000000600052601260045260246000fd5b60006119a482610e5b565b91506119af83610e5b565b9250826119bf576119be61196a565b5b828204905092915050565b60006060820190506119df6000830186611379565b6119ec6020830185611518565b6119f96040830184611518565b949350505050565b6000611a0c82610e5b565b9150611a1783610e5b565b9250817fffffffffffffffffffffffffffffffffffffffffffffffffffffffffffffffff0483118215151615611a5057611a4f61142b565b5b828202905092915050565b6000611a6682610e5b565b9150611a7183610e5b565b925082611a8157611a8061196a565b5b828206905092915050565b7f4e487b7100000000000000000000000000000000000000000000000000000000600052602160045260246000fd5b7f45434453413a20696e76616c6964207369676e61747572650000000000000000600082015250565b6000611af1601883611281565b9150611afc82611abb565b602082019050919050565b60006020820190508181036000830152611b2081611ae4565b9050919050565b7f45434453413a20696e76616c6964207369676e6174757265206c656e67746800600082015250565b6000611b5d601f83611281565b9150611b6882611b27565b602082019050919050565b60006020820190508181036000830152611b8c81611b50565b9050919050565b7f45434453413a20696e76616c6964207369676e6174757265202773272076616c60008201527f7565000000000000000000000000000000000000000000000000000000000000602082015250565b6000611bef602283611281565b9150611bfa82611b93565b604082019050919050565b60006020820190508181036000830152611c1e81611be2565b9050919050565b7f416464726573733a20696e73756666696369656e742062616c616e6365000000600082015250565b6000611c5b601d83611281565b9150611c6682611c25565b602082019050919050565b60006020820190508181036000830152611c8a81611c4e565b9050919050565b600081905092915050565b50565b6000611cac600083611c91565b9150611cb782611c9c565b600082019050919050565b6000611ccd82611c9f565b9150819050919050565b7f416464726573733a20756e61626c6520746f2073656e642076616c75652c207260008201527f6563697069656e74206d61792068617665207265766572746564000000000000602082015250565b6000611d33603a83611281565b9150611d3e82611cd7565b604082019050919050565b60006020820190508181036000830152611d6281611d26565b9050919050565b611d7281611024565b82525050565b6000608082019050611d8d600083018761136a565b611d9a6020830186611d69565b611da7604083018561136a565b611db4606083018461136a565b9594505050505056fea26469706673582212202017d98b9cc492d6ba5bedcf9b3a74045386f48128b899db251f1eebcc2f81ad64736f6c63430008080033",
  "devdoc": {
    "kind": "dev",
    "methods": {},
    "version": 1
  },
  "userdoc": {
    "kind": "user",
    "methods": {},
    "version": 1
  },
  "storageLayout": {
    "storage": [
      {
        "astId": 2817,
        "contract": "contracts/apps/HappyRedPacket.sol:HappyRedPacket",
        "label": "packets_",
        "offset": 0,
        "slot": "0",
        "type": "t_mapping(t_bytes32,t_struct(RedPacket)2812_storage)"
      },
      {
        "astId": 2823,
        "contract": "contracts/apps/HappyRedPacket.sol:HappyRedPacket",
        "label": "count_",
        "offset": 0,
        "slot": "1",
        "type": "t_mapping(t_bytes32,t_mapping(t_address,t_uint256))"
      }
    ],
    "types": {
      "t_address": {
        "encoding": "inplace",
        "label": "address",
        "numberOfBytes": "20"
      },
      "t_bytes32": {
        "encoding": "inplace",
        "label": "bytes32",
        "numberOfBytes": "32"
      },
      "t_mapping(t_address,t_uint256)": {
        "encoding": "mapping",
        "key": "t_address",
        "label": "mapping(address => uint256)",
        "numberOfBytes": "32",
        "value": "t_uint256"
      },
      "t_mapping(t_bytes32,t_mapping(t_address,t_uint256))": {
        "encoding": "mapping",
        "key": "t_bytes32",
        "label": "mapping(bytes32 => mapping(address => uint256))",
        "numberOfBytes": "32",
        "value": "t_mapping(t_address,t_uint256)"
      },
      "t_mapping(t_bytes32,t_struct(RedPacket)2812_storage)": {
        "encoding": "mapping",
        "key": "t_bytes32",
        "label": "mapping(bytes32 => struct HappyRedPacket.RedPacket)",
        "numberOfBytes": "32",
        "value": "t_struct(RedPacket)2812_storage"
      },
      "t_struct(RedPacket)2812_storage": {
        "encoding": "inplace",
        "label": "struct HappyRedPacket.RedPacket",
        "members": [
          {
            "astId": 2809,
            "contract": "contracts/apps/HappyRedPacket.sol:HappyRedPacket",
            "label": "balance",
            "offset": 0,
            "slot": "0",
            "type": "t_uint256"
          },
          {
            "astId": 2811,
            "contract": "contracts/apps/HappyRedPacket.sol:HappyRedPacket",
            "label": "split",
            "offset": 0,
            "slot": "1",
            "type": "t_uint32"
          }
        ],
        "numberOfBytes": "64"
      },
      "t_uint256": {
        "encoding": "inplace",
        "label": "uint256",
        "numberOfBytes": "32"
      },
      "t_uint32": {
        "encoding": "inplace",
        "label": "uint32",
        "numberOfBytes": "4"
      }
    }
  }
}