{
  "address": "0x3E4daF49356B097E73D042d565eBC1e2Bb017d42",
  "abi": [
    {
      "anonymous": false,
      "inputs": [
        {
          "indexed": false,
          "internalType": "address",
          "name": "previousAdmin",
          "type": "address"
        },
        {
          "indexed": false,
          "internalType": "address",
          "name": "newAdmin",
          "type": "address"
        }
      ],
      "name": "AdminChanged",
      "type": "event"
    },
    {
      "anonymous": false,
      "inputs": [
        {
          "indexed": true,
          "internalType": "address",
          "name": "beacon",
          "type": "address"
        }
      ],
      "name": "BeaconUpgraded",
      "type": "event"
    },
    {
      "anonymous": false,
      "inputs": [
        {
          "indexed": true,
          "internalType": "bytes32",
          "name": "PacketId",
          "type": "bytes32"
        },
        {
          "indexed": true,
          "internalType": "address",
          "name": "claimer",
          "type": "address"
        },
        {
          "indexed": false,
          "internalType": "uint256",
          "name": "amount",
          "type": "uint256"
        }
      ],
      "name": "Claimed",
      "type": "event"
    },
    {
      "anonymous": false,
      "inputs": [
        {
          "indexed": true,
          "internalType": "bytes32",
          "name": "PacketId",
          "type": "bytes32"
        },
        {
          "indexed": true,
          "internalType": "address",
          "name": "creator",
          "type": "address"
        },
        {
          "components": [
            {
              "internalType": "address",
              "name": "token",
              "type": "address"
            },
            {
              "internalType": "bytes32",
              "name": "salt",
              "type": "bytes32"
            },
            {
              "internalType": "uint256",
              "name": "balance",
              "type": "uint256"
            },
            {
              "internalType": "address",
              "name": "validator",
              "type": "address"
            },
            {
              "internalType": "uint32",
              "name": "split",
              "type": "uint32"
            },
            {
              "internalType": "uint8",
              "name": "mode",
              "type": "uint8"
            }
          ],
          "indexed": false,
          "internalType": "struct HappyRedPacket.RedPacketData",
          "name": "packet",
          "type": "tuple"
        }
      ],
      "name": "Created",
      "type": "event"
    },
    {
      "anonymous": false,
      "inputs": [
        {
          "indexed": true,
          "internalType": "address",
          "name": "previousOwner",
          "type": "address"
        },
        {
          "indexed": true,
          "internalType": "address",
          "name": "newOwner",
          "type": "address"
        }
      ],
      "name": "OwnershipTransferred",
      "type": "event"
    },
    {
      "anonymous": false,
      "inputs": [
        {
          "indexed": true,
          "internalType": "address",
          "name": "implementation",
          "type": "address"
        }
      ],
      "name": "Upgraded",
      "type": "event"
    },
    {
      "inputs": [
        {
          "components": [
            {
              "internalType": "address",
              "name": "creator",
              "type": "address"
            },
            {
              "components": [
                {
                  "internalType": "address",
                  "name": "token",
                  "type": "address"
                },
                {
                  "internalType": "bytes32",
                  "name": "salt",
                  "type": "bytes32"
                },
                {
                  "internalType": "uint256",
                  "name": "balance",
                  "type": "uint256"
                },
                {
                  "internalType": "address",
                  "name": "validator",
                  "type": "address"
                },
                {
                  "internalType": "uint32",
                  "name": "split",
                  "type": "uint32"
                },
                {
                  "internalType": "uint8",
                  "name": "mode",
                  "type": "uint8"
                }
              ],
              "internalType": "struct HappyRedPacket.RedPacketData",
              "name": "packet",
              "type": "tuple"
            },
            {
              "internalType": "address",
              "name": "claimer",
              "type": "address"
            },
            {
              "internalType": "bytes",
              "name": "signature",
              "type": "bytes"
            }
          ],
          "internalType": "struct HappyRedPacket.RedPacketClaim[]",
          "name": "claims",
          "type": "tuple[]"
        }
      ],
      "name": "batchClaim",
      "outputs": [],
      "stateMutability": "nonpayable",
      "type": "function"
    },
    {
      "inputs": [
        {
          "components": [
            {
              "internalType": "address",
              "name": "creator",
              "type": "address"
            },
            {
              "components": [
                {
                  "internalType": "address",
                  "name": "token",
                  "type": "address"
                },
                {
                  "internalType": "bytes32",
                  "name": "salt",
                  "type": "bytes32"
                },
                {
                  "internalType": "uint256",
                  "name": "balance",
                  "type": "uint256"
                },
                {
                  "internalType": "address",
                  "name": "validator",
                  "type": "address"
                },
                {
                  "internalType": "uint32",
                  "name": "split",
                  "type": "uint32"
                },
                {
                  "internalType": "uint8",
                  "name": "mode",
                  "type": "uint8"
                }
              ],
              "internalType": "struct HappyRedPacket.RedPacketData",
              "name": "packet",
              "type": "tuple"
            },
            {
              "internalType": "address",
              "name": "claimer",
              "type": "address"
            },
            {
              "internalType": "bytes",
              "name": "signature",
              "type": "bytes"
            }
          ],
          "internalType": "struct HappyRedPacket.RedPacketClaim",
          "name": "c",
          "type": "tuple"
        }
      ],
      "name": "claim",
      "outputs": [],
      "stateMutability": "nonpayable",
      "type": "function"
    },
    {
      "inputs": [
        {
          "components": [
            {
              "internalType": "address",
              "name": "token",
              "type": "address"
            },
            {
              "internalType": "bytes32",
              "name": "salt",
              "type": "bytes32"
            },
            {
              "internalType": "uint256",
              "name": "balance",
              "type": "uint256"
            },
            {
              "internalType": "address",
              "name": "validator",
              "type": "address"
            },
            {
              "internalType": "uint32",
              "name": "split",
              "type": "uint32"
            },
            {
              "internalType": "uint8",
              "name": "mode",
              "type": "uint8"
            }
          ],
          "internalType": "struct HappyRedPacket.RedPacketData",
          "name": "pd",
          "type": "tuple"
        }
      ],
      "name": "create",
      "outputs": [],
      "stateMutability": "payable",
      "type": "function"
    },
    {
      "inputs": [
        {
          "internalType": "bytes32",
          "name": "id",
          "type": "bytes32"
        }
      ],
      "name": "getPacket",
      "outputs": [
        {
          "components": [
            {
              "internalType": "uint256",
              "name": "createdAt",
              "type": "uint256"
            },
            {
              "internalType": "uint256",
              "name": "balance",
              "type": "uint256"
            },
            {
              "internalType": "uint32",
              "name": "split",
              "type": "uint32"
            }
          ],
          "internalType": "struct HappyRedPacket.RedPacket",
          "name": "",
          "type": "tuple"
        }
      ],
      "stateMutability": "view",
      "type": "function"
    },
    {
      "inputs": [],
      "name": "implementation",
      "outputs": [
        {
          "internalType": "address",
          "name": "",
          "type": "address"
        }
      ],
      "stateMutability": "view",
      "type": "function"
    },
    {
      "inputs": [
        {
          "internalType": "address",
          "name": "newOwner",
          "type": "address"
        }
      ],
      "name": "initOwner",
      "outputs": [],
      "stateMutability": "nonpayable",
      "type": "function"
    },
    {
      "inputs": [],
      "name": "owner",
      "outputs": [
        {
          "internalType": "address",
          "name": "",
          "type": "address"
        }
      ],
      "stateMutability": "view",
      "type": "function"
    },
    {
      "inputs": [],
      "name": "proxiableUUID",
      "outputs": [
        {
          "internalType": "bytes32",
          "name": "",
          "type": "bytes32"
        }
      ],
      "stateMutability": "view",
      "type": "function"
    },
    {
      "inputs": [
        {
          "components": [
            {
              "internalType": "address",
              "name": "token",
              "type": "address"
            },
            {
              "internalType": "bytes32",
              "name": "salt",
              "type": "bytes32"
            },
            {
              "internalType": "uint256",
              "name": "balance",
              "type": "uint256"
            },
            {
              "internalType": "address",
              "name": "validator",
              "type": "address"
            },
            {
              "internalType": "uint32",
              "name": "split",
              "type": "uint32"
            },
            {
              "internalType": "uint8",
              "name": "mode",
              "type": "uint8"
            }
          ],
          "internalType": "struct HappyRedPacket.RedPacketData",
          "name": "pd",
          "type": "tuple"
        }
      ],
      "name": "refund",
      "outputs": [],
      "stateMutability": "nonpayable",
      "type": "function"
    },
    {
      "inputs": [],
      "name": "renounceOwnership",
      "outputs": [],
      "stateMutability": "nonpayable",
      "type": "function"
    },
    {
      "inputs": [
        {
          "internalType": "address",
          "name": "newOwner",
          "type": "address"
        }
      ],
      "name": "transferOwnership",
      "outputs": [],
      "stateMutability": "nonpayable",
      "type": "function"
    },
    {
      "inputs": [
        {
          "internalType": "address",
          "name": "newImplementation",
          "type": "address"
        }
      ],
      "name": "upgradeTo",
      "outputs": [],
      "stateMutability": "nonpayable",
      "type": "function"
    },
    {
      "inputs": [
        {
          "internalType": "address",
          "name": "newImplementation",
          "type": "address"
        },
        {
          "internalType": "bytes",
          "name": "data",
          "type": "bytes"
        }
      ],
      "name": "upgradeToAndCall",
      "outputs": [],
      "stateMutability": "payable",
      "type": "function"
    }
  ],
  "transactionHash": "0x3f5b0a6643726b609f5efe4ca0b0e7f4d6f3528001cf19228e746ab9fb19adfe",
  "args": [],
  "numDeployments": 12,
  "solcInputHash": "af2d7d18e3e1e4d3f11e4d3e608ca66b",
  "bytecode": "0x60a06040523073ffffffffffffffffffffffffffffffffffffffff1660809073ffffffffffffffffffffffffffffffffffffffff1660601b8152503480156200004757600080fd5b50620000686200005c6200006e60201b60201c565b6200007660201b60201c565b6200013a565b600033905090565b60008060009054906101000a900473ffffffffffffffffffffffffffffffffffffffff169050816000806101000a81548173ffffffffffffffffffffffffffffffffffffffff021916908373ffffffffffffffffffffffffffffffffffffffff1602179055508173ffffffffffffffffffffffffffffffffffffffff168173ffffffffffffffffffffffffffffffffffffffff167f8be0079c531659141344cd1fd0a4f28419497f9722a3daafe3b4186f6b6457e060405160405180910390a35050565b60805160601c6138146200017560003960008181610425015281816104b40152818161060101528181610690015261074001526138146000f3fe6080604052600436106100c25760003560e01c80635c60da1b1161007f5780638da5cb5b116100595780638da5cb5b14610231578063eed46b6f1461025c578063ef2370a914610285578063f2fde38b146102a1576100c2565b80635c60da1b146101c65780636ed85d0d146101f1578063715018a61461021a576100c2565b80630b524856146100c75780630d009297146101045780633659cfe61461012d57806336e488e9146101565780634f1ef2861461017f57806352d1902d1461019b575b600080fd5b3480156100d357600080fd5b506100ee60048036038101906100e99190611de6565b6102ca565b6040516100fb9190611e8d565b60405180910390f35b34801561011057600080fd5b5061012b60048036038101906101269190611f06565b610331565b005b34801561013957600080fd5b50610154600480360381019061014f9190611f06565b610423565b005b34801561016257600080fd5b5061017d60048036038101906101789190611f98565b6105ac565b005b61019960048036038101906101949190612126565b6105ff565b005b3480156101a757600080fd5b506101b061073c565b6040516101bd9190612191565b60405180910390f35b3480156101d257600080fd5b506101db6107f5565b6040516101e891906121bb565b60405180910390f35b3480156101fd57600080fd5b50610218600480360381019061021391906121fb565b610804565b005b34801561022657600080fd5b5061022f610a25565b005b34801561023d57600080fd5b50610246610a39565b60405161025391906121bb565b60405180910390f35b34801561026857600080fd5b50610283600480360381019061027e9190612263565b610a62565b005b61029f600480360381019061029a9190612263565b610b29565b005b3480156102ad57600080fd5b506102c860048036038101906102c39190611f06565b610e45565b005b6102d2611d75565b6001600083815260200190815260200160002060405180606001604052908160008201548152602001600182015481526020016002820160009054906101000a900463ffffffff1663ffffffff1663ffffffff16815250509050919050565b600073ffffffffffffffffffffffffffffffffffffffff16610351610a39565b73ffffffffffffffffffffffffffffffffffffffff16146103a7576040517f08c379a000000000000000000000000000000000000000000000000000000000815260040161039e906122ed565b60405180910390fd5b600073ffffffffffffffffffffffffffffffffffffffff168173ffffffffffffffffffffffffffffffffffffffff161415610417576040517f08c379a000000000000000000000000000000000000000000000000000000000815260040161040e90612359565b60405180910390fd5b61042081610ec9565b50565b7f000000000000000000000000000000000000000000000000000000000000000073ffffffffffffffffffffffffffffffffffffffff163073ffffffffffffffffffffffffffffffffffffffff1614156104b2576040517f08c379a00000000000000000000000000000000000000000000000000000000081526004016104a9906123eb565b60405180910390fd5b7f000000000000000000000000000000000000000000000000000000000000000073ffffffffffffffffffffffffffffffffffffffff166104f1610f8d565b73ffffffffffffffffffffffffffffffffffffffff1614610547576040517f08c379a000000000000000000000000000000000000000000000000000000000815260040161053e9061247d565b60405180910390fd5b61055081610fe4565b6105a981600067ffffffffffffffff81111561056f5761056e611ffb565b5b6040519080825280601f01601f1916602001820160405280156105a15781602001600182028036833780820191505090505b506000610fef565b50565b60005b828290508110156105fa576105e78383838181106105d0576105cf61249d565b5b90506020028101906105e291906124db565b610804565b80806105f290612533565b9150506105af565b505050565b7f000000000000000000000000000000000000000000000000000000000000000073ffffffffffffffffffffffffffffffffffffffff163073ffffffffffffffffffffffffffffffffffffffff16141561068e576040517f08c379a0000000000000000000000000000000000000000000000000000000008152600401610685906123eb565b60405180910390fd5b7f000000000000000000000000000000000000000000000000000000000000000073ffffffffffffffffffffffffffffffffffffffff166106cd610f8d565b73ffffffffffffffffffffffffffffffffffffffff1614610723576040517f08c379a000000000000000000000000000000000000000000000000000000000815260040161071a9061247d565b60405180910390fd5b61072c82610fe4565b61073882826001610fef565b5050565b60007f000000000000000000000000000000000000000000000000000000000000000073ffffffffffffffffffffffffffffffffffffffff163073ffffffffffffffffffffffffffffffffffffffff16146107cc576040517f08c379a00000000000000000000000000000000000000000000000000000000081526004016107c3906125ee565b60405180910390fd5b7f360894a13ba1a3210667c828492db98dca3e2076cc3735a920a3ca505d382bbc60001b905090565b60006107ff610f8d565b905090565b600061082582600001602081019061081c9190611f06565b8360200161116c565b905060008280610100019061083a919061260e565b905014156108ca578160200160600160208101906108589190611f06565b73ffffffffffffffffffffffffffffffffffffffff163373ffffffffffffffffffffffffffffffffffffffff16146108c5576040517f08c379a00000000000000000000000000000000000000000000000000000000081526004016108bc906126bd565b60405180910390fd5b610a01565b6000818360e00160208101906108e09190611f06565b6040516020016108f19291906126dd565b6040516020818303038152906040528051906020012090506000610914826111a3565b905061097c8480610100019061092a919061260e565b8080601f016020809104026020016040519081016040528093929190818152602001838380828437600081840152601f19601f82011690508083019250505050505050826111d390919063ffffffff16565b73ffffffffffffffffffffffffffffffffffffffff168460200160600160208101906109a89190611f06565b73ffffffffffffffffffffffffffffffffffffffff16146109fe576040517f08c379a00000000000000000000000000000000000000000000000000000000081526004016109f590612752565b60405180910390fd5b50505b610a2181836020018460e0016020810190610a1c9190611f06565b6111fa565b5050565b610a2d611363565b610a376000610ec9565b565b60008060009054906101000a900473ffffffffffffffffffffffffffffffffffffffff16905090565b6000610a6e338361116c565b905062015180600160008381526020019081526020016000206000015442610a969190612772565b11610ad6576040517f08c379a0000000000000000000000000000000000000000000000000000000008152600401610acd906127f2565b60405180910390fd5b610b09826000016020810190610aec9190611f06565b3360016000858152602001908152602001600020600101546113e1565b600060016000838152602001908152602001600020600101819055505050565b60018160a0016020810190610b3e919061284b565b60ff161480610b62575060028160a0016020810190610b5d919061284b565b60ff16145b610ba1576040517f08c379a0000000000000000000000000000000000000000000000000000000008152600401610b98906128c4565b60405180910390fd5b6000610bad338361116c565b90506000600160008381526020019081526020016000206000015414610c08576040517f08c379a0000000000000000000000000000000000000000000000000000000008152600401610bff90612930565b60405180910390fd5b600073ffffffffffffffffffffffffffffffffffffffff16826000016020810190610c339190611f06565b73ffffffffffffffffffffffffffffffffffffffff1614610cf957816000016020810190610c619190611f06565b73ffffffffffffffffffffffffffffffffffffffff166323b872dd333085604001356040518463ffffffff1660e01b8152600401610ca19392919061295f565b602060405180830381600087803b158015610cbb57600080fd5b505af1158015610ccf573d6000803e3d6000fd5b505050506040513d601f19601f82011682018060405250810190610cf391906129ce565b50610d41565b8160400135341015610d40576040517f08c379a0000000000000000000000000000000000000000000000000000000008152600401610d3790612a47565b60405180910390fd5b5b8160400135600160008381526020019081526020016000206001016000828254610d6b9190612a67565b92505081905550816080016020810190610d859190612ae9565b6001600083815260200190815260200160002060020160008282829054906101000a900463ffffffff16610db99190612b16565b92506101000a81548163ffffffff021916908363ffffffff1602179055504260016000838152602001908152602001600020600001819055503373ffffffffffffffffffffffffffffffffffffffff16817f5c85091c17a5842c079f33795b436b8d466c439605ca6224eb0c0c59624e15a684604051610e399190612cc7565b60405180910390a35050565b610e4d611363565b600073ffffffffffffffffffffffffffffffffffffffff168173ffffffffffffffffffffffffffffffffffffffff161415610ebd576040517f08c379a0000000000000000000000000000000000000000000000000000000008152600401610eb490612d54565b60405180910390fd5b610ec681610ec9565b50565b60008060009054906101000a900473ffffffffffffffffffffffffffffffffffffffff169050816000806101000a81548173ffffffffffffffffffffffffffffffffffffffff021916908373ffffffffffffffffffffffffffffffffffffffff1602179055508173ffffffffffffffffffffffffffffffffffffffff168173ffffffffffffffffffffffffffffffffffffffff167f8be0079c531659141344cd1fd0a4f28419497f9722a3daafe3b4186f6b6457e060405160405180910390a35050565b6000610fbb7f360894a13ba1a3210667c828492db98dca3e2076cc3735a920a3ca505d382bbc60001b6114b9565b60000160009054906101000a900473ffffffffffffffffffffffffffffffffffffffff16905090565b610fec611363565b50565b61101b7f4910fdfa16fed3260ed0e7147f7cc6da11a60208b5b9406d12a635614ffd914360001b6114c3565b60000160009054906101000a900460ff161561103f5761103a836114cd565b611167565b8273ffffffffffffffffffffffffffffffffffffffff166352d1902d6040518163ffffffff1660e01b815260040160206040518083038186803b15801561108557600080fd5b505afa9250505080156110b657506040513d601f19601f820116820180604052508101906110b39190612d89565b60015b6110f5576040517f08c379a00000000000000000000000000000000000000000000000000000000081526004016110ec90612e28565b60405180910390fd5b7f360894a13ba1a3210667c828492db98dca3e2076cc3735a920a3ca505d382bbc60001b811461115a576040517f08c379a000000000000000000000000000000000000000000000000000000000815260040161115190612eba565b60405180910390fd5b50611166838383611586565b5b505050565b6000463084846040516020016111859493929190612eda565b60405160208183030381529060405280519060200120905092915050565b6000816040516020016111b69190612f98565b604051602081830303815290604052805190602001209050919050565b60008060006111e285856115b2565b915091506111ef81611604565b819250505092915050565b6112048382611772565b60006001600085815260200190815260200160002060405180606001604052908160008201548152602001600182015481526020016002820160009054906101000a900463ffffffff1663ffffffff1663ffffffff16815250509050600061127f838560a0016020810190611279919061284b565b84611871565b90508082602001516112919190612772565b6001600087815260200190815260200160002060010181905550600182604001516112bc9190612fbe565b6001600087815260200190815260200160002060020160006101000a81548163ffffffff021916908363ffffffff16021790555061130d8460000160208101906113069190611f06565b84836113e1565b8273ffffffffffffffffffffffffffffffffffffffff16857f0508a8b4117d9a7b3d8f5895f6413e61b4f9a2df35afbfb41e78d0ecfff1843f836040516113549190612ff2565b60405180910390a35050505050565b61136b6119ab565b73ffffffffffffffffffffffffffffffffffffffff16611389610a39565b73ffffffffffffffffffffffffffffffffffffffff16146113df576040517f08c379a00000000000000000000000000000000000000000000000000000000081526004016113d690613059565b60405180910390fd5b565b600073ffffffffffffffffffffffffffffffffffffffff168373ffffffffffffffffffffffffffffffffffffffff1614156114255761142082826119b3565b6114b4565b8273ffffffffffffffffffffffffffffffffffffffff1663a9059cbb83836040518363ffffffff1660e01b8152600401611460929190613079565b602060405180830381600087803b15801561147a57600080fd5b505af115801561148e573d6000803e3d6000fd5b505050506040513d601f19601f820116820180604052508101906114b291906129ce565b505b505050565b6000819050919050565b6000819050919050565b6114d681611aa7565b611515576040517f08c379a000000000000000000000000000000000000000000000000000000000815260040161150c90613114565b60405180910390fd5b806115427f360894a13ba1a3210667c828492db98dca3e2076cc3735a920a3ca505d382bbc60001b6114b9565b60000160006101000a81548173ffffffffffffffffffffffffffffffffffffffff021916908373ffffffffffffffffffffffffffffffffffffffff16021790555050565b61158f83611aca565b60008251118061159c5750805b156115ad576115ab8383611b19565b505b505050565b6000806041835114156115f45760008060006020860151925060408601519150606086015160001a90506115e887828585611b46565b945094505050506115fd565b60006002915091505b9250929050565b6000600481111561161857611617613134565b5b81600481111561162b5761162a613134565b5b14156116365761176f565b6001600481111561164a57611649613134565b5b81600481111561165d5761165c613134565b5b141561169e576040517f08c379a0000000000000000000000000000000000000000000000000000000008152600401611695906131af565b60405180910390fd5b600260048111156116b2576116b1613134565b5b8160048111156116c5576116c4613134565b5b1415611706576040517f08c379a00000000000000000000000000000000000000000000000000000000081526004016116fd9061321b565b60405180910390fd5b6003600481111561171a57611719613134565b5b81600481111561172d5761172c613134565b5b141561176e576040517f08c379a0000000000000000000000000000000000000000000000000000000008152600401611765906132ad565b60405180910390fd5b5b50565b60006002600084815260200190815260200160002060008373ffffffffffffffffffffffffffffffffffffffff1673ffffffffffffffffffffffffffffffffffffffff1681526020019081526020016000205414611805576040517f08c379a00000000000000000000000000000000000000000000000000000000081526004016117fc90613319565b60405180910390fd5b60016002600084815260200190815260200160002060008373ffffffffffffffffffffffffffffffffffffffff1673ffffffffffffffffffffffffffffffffffffffff16815260200190815260200160002060008282546118669190612a67565b925050819055505050565b600080826020015111801561189057506000826040015163ffffffff16115b6118cf576040517f08c379a00000000000000000000000000000000000000000000000000000000081526004016118c690613385565b60405180910390fd5b6001826040015163ffffffff1614156118ee5781602001519050611996565b60018360ff16141561191b57816040015163ffffffff16826020015161191491906133d4565b9050611995565b60028360ff16141561199457600084444260405160200161193e93929190613405565b6040516020818303038152906040528051906020012060001c905060006002846040015163ffffffff16856020015161197791906133d4565b611981919061343c565b9050808261198f9190613496565b925050505b5b5b60008114156119a457600190505b9392505050565b600033905090565b804710156119f6576040517f08c379a00000000000000000000000000000000000000000000000000000000081526004016119ed90613513565b60405180910390fd5b60008273ffffffffffffffffffffffffffffffffffffffff1682604051611a1c90613564565b60006040518083038185875af1925050503d8060008114611a59576040519150601f19603f3d011682016040523d82523d6000602084013e611a5e565b606091505b5050905080611aa2576040517f08c379a0000000000000000000000000000000000000000000000000000000008152600401611a99906135eb565b60405180910390fd5b505050565b6000808273ffffffffffffffffffffffffffffffffffffffff163b119050919050565b611ad3816114cd565b8073ffffffffffffffffffffffffffffffffffffffff167fbc7cd75a20ee27fd9adebab32041f755214dbc6bffa90cc0225b39da2e5c2d3b60405160405180910390a250565b6060611b3e83836040518060600160405280602781526020016137b860279139611c29565b905092915050565b6000807f7fffffffffffffffffffffffffffffff5d576e7357a4501ddfe92f46681b20a08360001c1115611b81576000600391509150611c20565b600060018787878760405160008152602001604052604051611ba6949392919061361a565b6020604051602081039080840390855afa158015611bc8573d6000803e3d6000fd5b505050602060405103519050600073ffffffffffffffffffffffffffffffffffffffff168173ffffffffffffffffffffffffffffffffffffffff161415611c1757600060019250925050611c20565b80600092509250505b94509492505050565b60606000808573ffffffffffffffffffffffffffffffffffffffff1685604051611c5391906136ce565b600060405180830381855af49150503d8060008114611c8e576040519150601f19603f3d011682016040523d82523d6000602084013e611c93565b606091505b5091509150611ca486838387611caf565b925050509392505050565b60608315611d1257600083511415611d0a57611cca85611aa7565b611d09576040517f08c379a0000000000000000000000000000000000000000000000000000000008152600401611d0090613731565b60405180910390fd5b5b829050611d1d565b611d1c8383611d25565b5b949350505050565b600082511115611d385781518083602001fd5b806040517f08c379a0000000000000000000000000000000000000000000000000000000008152600401611d6c9190613795565b60405180910390fd5b60405180606001604052806000815260200160008152602001600063ffffffff1681525090565b6000604051905090565b600080fd5b600080fd5b6000819050919050565b611dc381611db0565b8114611dce57600080fd5b50565b600081359050611de081611dba565b92915050565b600060208284031215611dfc57611dfb611da6565b5b6000611e0a84828501611dd1565b91505092915050565b6000819050919050565b611e2681611e13565b82525050565b600063ffffffff82169050919050565b611e4581611e2c565b82525050565b606082016000820151611e616000850182611e1d565b506020820151611e746020850182611e1d565b506040820151611e876040850182611e3c565b50505050565b6000606082019050611ea26000830184611e4b565b92915050565b600073ffffffffffffffffffffffffffffffffffffffff82169050919050565b6000611ed382611ea8565b9050919050565b611ee381611ec8565b8114611eee57600080fd5b50565b600081359050611f0081611eda565b92915050565b600060208284031215611f1c57611f1b611da6565b5b6000611f2a84828501611ef1565b91505092915050565b600080fd5b600080fd5b600080fd5b60008083601f840112611f5857611f57611f33565b5b8235905067ffffffffffffffff811115611f7557611f74611f38565b5b602083019150836020820283011115611f9157611f90611f3d565b5b9250929050565b60008060208385031215611faf57611fae611da6565b5b600083013567ffffffffffffffff811115611fcd57611fcc611dab565b5b611fd985828601611f42565b92509250509250929050565b600080fd5b6000601f19601f8301169050919050565b7f4e487b7100000000000000000000000000000000000000000000000000000000600052604160045260246000fd5b61203382611fea565b810181811067ffffffffffffffff8211171561205257612051611ffb565b5b80604052505050565b6000612065611d9c565b9050612071828261202a565b919050565b600067ffffffffffffffff82111561209157612090611ffb565b5b61209a82611fea565b9050602081019050919050565b82818337600083830152505050565b60006120c96120c484612076565b61205b565b9050828152602081018484840111156120e5576120e4611fe5565b5b6120f08482856120a7565b509392505050565b600082601f83011261210d5761210c611f33565b5b813561211d8482602086016120b6565b91505092915050565b6000806040838503121561213d5761213c611da6565b5b600061214b85828601611ef1565b925050602083013567ffffffffffffffff81111561216c5761216b611dab565b5b612178858286016120f8565b9150509250929050565b61218b81611db0565b82525050565b60006020820190506121a66000830184612182565b92915050565b6121b581611ec8565b82525050565b60006020820190506121d060008301846121ac565b92915050565b600080fd5b600061012082840312156121f2576121f16121d6565b5b81905092915050565b60006020828403121561221157612210611da6565b5b600082013567ffffffffffffffff81111561222f5761222e611dab565b5b61223b848285016121db565b91505092915050565b600060c0828403121561225a576122596121d6565b5b81905092915050565b600060c0828403121561227957612278611da6565b5b600061228784828501612244565b91505092915050565b600082825260208201905092915050565b7f4f776e657220616c726561647920736574000000000000000000000000000000600082015250565b60006122d7601183612290565b91506122e2826122a1565b602082019050919050565b60006020820190508181036000830152612306816122ca565b9050919050565b7f4f776e65722063616e6e6f742062652061646472657373207a65726f00000000600082015250565b6000612343601c83612290565b915061234e8261230d565b602082019050919050565b6000602082019050818103600083015261237281612336565b9050919050565b7f46756e6374696f6e206d7573742062652063616c6c6564207468726f7567682060008201527f64656c656761746563616c6c0000000000000000000000000000000000000000602082015250565b60006123d5602c83612290565b91506123e082612379565b604082019050919050565b60006020820190508181036000830152612404816123c8565b9050919050565b7f46756e6374696f6e206d7573742062652063616c6c6564207468726f7567682060008201527f6163746976652070726f78790000000000000000000000000000000000000000602082015250565b6000612467602c83612290565b91506124728261240b565b604082019050919050565b600060208201905081810360008301526124968161245a565b9050919050565b7f4e487b7100000000000000000000000000000000000000000000000000000000600052603260045260246000fd5b600080fd5b600080fd5b600080fd5b600082356001610120038336030381126124f8576124f76124cc565b5b80830191505092915050565b7f4e487b7100000000000000000000000000000000000000000000000000000000600052601160045260246000fd5b600061253e82611e13565b91507fffffffffffffffffffffffffffffffffffffffffffffffffffffffffffffffff82141561257157612570612504565b5b600182019050919050565b7f555550535570677261646561626c653a206d757374206e6f742062652063616c60008201527f6c6564207468726f7567682064656c656761746563616c6c0000000000000000602082015250565b60006125d8603883612290565b91506125e38261257c565b604082019050919050565b60006020820190508181036000830152612607816125cb565b9050919050565b6000808335600160200384360303811261262b5761262a6124cc565b5b80840192508235915067ffffffffffffffff82111561264d5761264c6124d1565b5b602083019250600182023603831315612669576126686124d6565b5b509250929050565b7f556e617574686f72697a65640000000000000000000000000000000000000000600082015250565b60006126a7600c83612290565b91506126b282612671565b602082019050919050565b600060208201905081810360008301526126d68161269a565b9050919050565b60006040820190506126f26000830185612182565b6126ff60208301846121ac565b9392505050565b7f496e76616c6964207369676e6174757265000000000000000000000000000000600082015250565b600061273c601183612290565b915061274782612706565b602082019050919050565b6000602082019050818103600083015261276b8161272f565b9050919050565b600061277d82611e13565b915061278883611e13565b92508282101561279b5761279a612504565b5b828203905092915050565b7f5061636b6574206c6f636b656400000000000000000000000000000000000000600082015250565b60006127dc600d83612290565b91506127e7826127a6565b602082019050919050565b6000602082019050818103600083015261280b816127cf565b9050919050565b600060ff82169050919050565b61282881612812565b811461283357600080fd5b50565b6000813590506128458161281f565b92915050565b60006020828403121561286157612860611da6565b5b600061286f84828501612836565b91505092915050565b7f496e76616c6964206d6f64650000000000000000000000000000000000000000600082015250565b60006128ae600c83612290565b91506128b982612878565b602082019050919050565b600060208201905081810360008301526128dd816128a1565b9050919050565b7f5061636b657420616c7265616479206372656174656400000000000000000000600082015250565b600061291a601683612290565b9150612925826128e4565b602082019050919050565b600060208201905081810360008301526129498161290d565b9050919050565b61295981611e13565b82525050565b600060608201905061297460008301866121ac565b61298160208301856121ac565b61298e6040830184612950565b949350505050565b60008115159050919050565b6129ab81612996565b81146129b657600080fd5b50565b6000815190506129c8816129a2565b92915050565b6000602082840312156129e4576129e3611da6565b5b60006129f2848285016129b9565b91505092915050565b7f496e73756666696369656e742062616c616e6365000000000000000000000000600082015250565b6000612a31601483612290565b9150612a3c826129fb565b602082019050919050565b60006020820190508181036000830152612a6081612a24565b9050919050565b6000612a7282611e13565b9150612a7d83611e13565b9250827fffffffffffffffffffffffffffffffffffffffffffffffffffffffffffffffff03821115612ab257612ab1612504565b5b828201905092915050565b612ac681611e2c565b8114612ad157600080fd5b50565b600081359050612ae381612abd565b92915050565b600060208284031215612aff57612afe611da6565b5b6000612b0d84828501612ad4565b91505092915050565b6000612b2182611e2c565b9150612b2c83611e2c565b92508263ffffffff03821115612b4557612b44612504565b5b828201905092915050565b6000612b5f6020840184611ef1565b905092915050565b612b7081611ec8565b82525050565b6000612b856020840184611dd1565b905092915050565b612b9681611db0565b82525050565b612ba581611e13565b8114612bb057600080fd5b50565b600081359050612bc281612b9c565b92915050565b6000612bd76020840184612bb3565b905092915050565b6000612bee6020840184612ad4565b905092915050565b6000612c056020840184612836565b905092915050565b612c1681612812565b82525050565b60c08201612c2d6000830183612b50565b612c3a6000850182612b67565b50612c486020830183612b76565b612c556020850182612b8d565b50612c636040830183612bc8565b612c706040850182611e1d565b50612c7e6060830183612b50565b612c8b6060850182612b67565b50612c996080830183612bdf565b612ca66080850182611e3c565b50612cb460a0830183612bf6565b612cc160a0850182612c0d565b50505050565b600060c082019050612cdc6000830184612c1c565b92915050565b7f4f776e61626c653a206e6577206f776e657220697320746865207a65726f206160008201527f6464726573730000000000000000000000000000000000000000000000000000602082015250565b6000612d3e602683612290565b9150612d4982612ce2565b604082019050919050565b60006020820190508181036000830152612d6d81612d31565b9050919050565b600081519050612d8381611dba565b92915050565b600060208284031215612d9f57612d9e611da6565b5b6000612dad84828501612d74565b91505092915050565b7f45524331393637557067726164653a206e657720696d706c656d656e7461746960008201527f6f6e206973206e6f742055555053000000000000000000000000000000000000602082015250565b6000612e12602e83612290565b9150612e1d82612db6565b604082019050919050565b60006020820190508181036000830152612e4181612e05565b9050919050565b7f45524331393637557067726164653a20756e737570706f727465642070726f7860008201527f6961626c65555549440000000000000000000000000000000000000000000000602082015250565b6000612ea4602983612290565b9150612eaf82612e48565b604082019050919050565b60006020820190508181036000830152612ed381612e97565b9050919050565b600061012082019050612ef06000830187612950565b612efd60208301866121ac565b612f0a60408301856121ac565b612f176060830184612c1c565b95945050505050565b600081905092915050565b7f19457468657265756d205369676e6564204d6573736167653a0a333200000000600082015250565b6000612f61601c83612f20565b9150612f6c82612f2b565b601c82019050919050565b6000819050919050565b612f92612f8d82611db0565b612f77565b82525050565b6000612fa382612f54565b9150612faf8284612f81565b60208201915081905092915050565b6000612fc982611e2c565b9150612fd483611e2c565b925082821015612fe757612fe6612504565b5b828203905092915050565b60006020820190506130076000830184612950565b92915050565b7f4f776e61626c653a2063616c6c6572206973206e6f7420746865206f776e6572600082015250565b6000613043602083612290565b915061304e8261300d565b602082019050919050565b6000602082019050818103600083015261307281613036565b9050919050565b600060408201905061308e60008301856121ac565b61309b6020830184612950565b9392505050565b7f455243313936373a206e657720696d706c656d656e746174696f6e206973206e60008201527f6f74206120636f6e747261637400000000000000000000000000000000000000602082015250565b60006130fe602d83612290565b9150613109826130a2565b604082019050919050565b6000602082019050818103600083015261312d816130f1565b9050919050565b7f4e487b7100000000000000000000000000000000000000000000000000000000600052602160045260246000fd5b7f45434453413a20696e76616c6964207369676e61747572650000000000000000600082015250565b6000613199601883612290565b91506131a482613163565b602082019050919050565b600060208201905081810360008301526131c88161318c565b9050919050565b7f45434453413a20696e76616c6964207369676e6174757265206c656e67746800600082015250565b6000613205601f83612290565b9150613210826131cf565b602082019050919050565b60006020820190508181036000830152613234816131f8565b9050919050565b7f45434453413a20696e76616c6964207369676e6174757265202773272076616c60008201527f7565000000000000000000000000000000000000000000000000000000000000602082015250565b6000613297602283612290565b91506132a28261323b565b604082019050919050565b600060208201905081810360008301526132c68161328a565b9050919050565b7f416c726561647920636c61696d65640000000000000000000000000000000000600082015250565b6000613303600f83612290565b915061330e826132cd565b602082019050919050565b60006020820190508181036000830152613332816132f6565b9050919050565b7f456d707479205061636b65740000000000000000000000000000000000000000600082015250565b600061336f600c83612290565b915061337a82613339565b602082019050919050565b6000602082019050818103600083015261339e81613362565b9050919050565b7f4e487b7100000000000000000000000000000000000000000000000000000000600052601260045260246000fd5b60006133df82611e13565b91506133ea83611e13565b9250826133fa576133f96133a5565b5b828204905092915050565b600060608201905061341a60008301866121ac565b6134276020830185612950565b6134346040830184612950565b949350505050565b600061344782611e13565b915061345283611e13565b9250817fffffffffffffffffffffffffffffffffffffffffffffffffffffffffffffffff048311821515161561348b5761348a612504565b5b828202905092915050565b60006134a182611e13565b91506134ac83611e13565b9250826134bc576134bb6133a5565b5b828206905092915050565b7f416464726573733a20696e73756666696369656e742062616c616e6365000000600082015250565b60006134fd601d83612290565b9150613508826134c7565b602082019050919050565b6000602082019050818103600083015261352c816134f0565b9050919050565b600081905092915050565b50565b600061354e600083613533565b91506135598261353e565b600082019050919050565b600061356f82613541565b9150819050919050565b7f416464726573733a20756e61626c6520746f2073656e642076616c75652c207260008201527f6563697069656e74206d61792068617665207265766572746564000000000000602082015250565b60006135d5603a83612290565b91506135e082613579565b604082019050919050565b60006020820190508181036000830152613604816135c8565b9050919050565b61361481612812565b82525050565b600060808201905061362f6000830187612182565b61363c602083018661360b565b6136496040830185612182565b6136566060830184612182565b95945050505050565b600081519050919050565b60005b8381101561368857808201518184015260208101905061366d565b83811115613697576000848401525b50505050565b60006136a88261365f565b6136b28185613533565b93506136c281856020860161366a565b80840191505092915050565b60006136da828461369d565b915081905092915050565b7f416464726573733a2063616c6c20746f206e6f6e2d636f6e7472616374000000600082015250565b600061371b601d83612290565b9150613726826136e5565b602082019050919050565b6000602082019050818103600083015261374a8161370e565b9050919050565b600081519050919050565b600061376782613751565b6137718185612290565b935061378181856020860161366a565b61378a81611fea565b840191505092915050565b600060208201905081810360008301526137af818461375c565b90509291505056fe416464726573733a206c6f772d6c6576656c2064656c65676174652063616c6c206661696c6564a2646970667358221220e4eee9f9fa4e6d7aea77bd9c6628c6b9ae13e833c691a5e86f592aeb135451bd64736f6c63430008080033",
  "devdoc": {
    "kind": "dev",
    "methods": {
      "owner()": {
        "details": "Returns the address of the current owner."
      },
      "proxiableUUID()": {
        "details": "Implementation of the ERC1822 {proxiableUUID} function. This returns the storage slot used by the implementation. It is used to validate the implementation's compatibility when performing an upgrade. IMPORTANT: A proxy pointing at a proxiable contract should not be considered proxiable itself, because this risks bricking a proxy that upgrades to it, by delegating to itself until out of gas. Thus it is critical that this function revert if invoked through a proxy. This is guaranteed by the `notDelegated` modifier."
      },
      "renounceOwnership()": {
        "details": "Leaves the contract without owner. It will not be possible to call `onlyOwner` functions anymore. Can only be called by the current owner. NOTE: Renouncing ownership will leave the contract without an owner, thereby removing any functionality that is only available to the owner."
      },
      "transferOwnership(address)": {
        "details": "Transfers ownership of the contract to a new account (`newOwner`). Can only be called by the current owner."
      },
      "upgradeTo(address)": {
        "details": "Upgrade the implementation of the proxy to `newImplementation`. Calls {_authorizeUpgrade}. Emits an {Upgraded} event."
      },
      "upgradeToAndCall(address,bytes)": {
        "details": "Upgrade the implementation of the proxy to `newImplementation`, and subsequently execute the function call encoded in `data`. Calls {_authorizeUpgrade}. Emits an {Upgraded} event."
      }
    },
    "version": 1
  },
  "userdoc": {
    "kind": "user",
    "methods": {},
    "version": 1
  },
  "storageLayout": {
    "storage": [
      {
        "astId": 7,
        "contract": "contracts/apps/HappyRedPacket.sol:HappyRedPacket",
        "label": "_owner",
        "offset": 0,
        "slot": "0",
        "type": "t_address"
      },
      {
        "astId": 2529,
        "contract": "contracts/apps/HappyRedPacket.sol:HappyRedPacket",
        "label": "packets_",
        "offset": 0,
        "slot": "1",
        "type": "t_mapping(t_bytes32,t_struct(RedPacket)2524_storage)"
      },
      {
        "astId": 2535,
        "contract": "contracts/apps/HappyRedPacket.sol:HappyRedPacket",
        "label": "count_",
        "offset": 0,
        "slot": "2",
        "type": "t_mapping(t_bytes32,t_mapping(t_address,t_uint256))"
      }
    ],
    "types": {
      "t_address": {
        "encoding": "inplace",
        "label": "address",
        "numberOfBytes": "20"
      },
      "t_bytes32": {
        "encoding": "inplace",
        "label": "bytes32",
        "numberOfBytes": "32"
      },
      "t_mapping(t_address,t_uint256)": {
        "encoding": "mapping",
        "key": "t_address",
        "label": "mapping(address => uint256)",
        "numberOfBytes": "32",
        "value": "t_uint256"
      },
      "t_mapping(t_bytes32,t_mapping(t_address,t_uint256))": {
        "encoding": "mapping",
        "key": "t_bytes32",
        "label": "mapping(bytes32 => mapping(address => uint256))",
        "numberOfBytes": "32",
        "value": "t_mapping(t_address,t_uint256)"
      },
      "t_mapping(t_bytes32,t_struct(RedPacket)2524_storage)": {
        "encoding": "mapping",
        "key": "t_bytes32",
        "label": "mapping(bytes32 => struct HappyRedPacket.RedPacket)",
        "numberOfBytes": "32",
        "value": "t_struct(RedPacket)2524_storage"
      },
      "t_struct(RedPacket)2524_storage": {
        "encoding": "inplace",
        "label": "struct HappyRedPacket.RedPacket",
        "members": [
          {
            "astId": 2519,
            "contract": "contracts/apps/HappyRedPacket.sol:HappyRedPacket",
            "label": "createdAt",
            "offset": 0,
            "slot": "0",
            "type": "t_uint256"
          },
          {
            "astId": 2521,
            "contract": "contracts/apps/HappyRedPacket.sol:HappyRedPacket",
            "label": "balance",
            "offset": 0,
            "slot": "1",
            "type": "t_uint256"
          },
          {
            "astId": 2523,
            "contract": "contracts/apps/HappyRedPacket.sol:HappyRedPacket",
            "label": "split",
            "offset": 0,
            "slot": "2",
            "type": "t_uint32"
          }
        ],
        "numberOfBytes": "96"
      },
      "t_uint256": {
        "encoding": "inplace",
        "label": "uint256",
        "numberOfBytes": "32"
      },
      "t_uint32": {
        "encoding": "inplace",
        "label": "uint32",
        "numberOfBytes": "4"
      }
    }
  }
}