{
  "address": "0x7D4426482D40b598BfdFDf44571b5a7852ea7349",
  "abi": [
    {
      "anonymous": false,
      "inputs": [
        {
          "indexed": false,
          "internalType": "address",
          "name": "previousAdmin",
          "type": "address"
        },
        {
          "indexed": false,
          "internalType": "address",
          "name": "newAdmin",
          "type": "address"
        }
      ],
      "name": "AdminChanged",
      "type": "event"
    },
    {
      "anonymous": false,
      "inputs": [
        {
          "indexed": true,
          "internalType": "address",
          "name": "beacon",
          "type": "address"
        }
      ],
      "name": "BeaconUpgraded",
      "type": "event"
    },
    {
      "anonymous": false,
      "inputs": [
        {
          "indexed": true,
          "internalType": "bytes32",
          "name": "PacketId",
          "type": "bytes32"
        },
        {
          "indexed": true,
          "internalType": "address",
          "name": "claimer",
          "type": "address"
        },
        {
          "indexed": false,
          "internalType": "uint256",
          "name": "amount",
          "type": "uint256"
        }
      ],
      "name": "Claimed",
      "type": "event"
    },
    {
      "anonymous": false,
      "inputs": [
        {
          "indexed": true,
          "internalType": "bytes32",
          "name": "PacketId",
          "type": "bytes32"
        },
        {
          "indexed": true,
          "internalType": "address",
          "name": "creator",
          "type": "address"
        },
        {
          "components": [
            {
              "internalType": "address",
              "name": "creator",
              "type": "address"
            },
            {
              "internalType": "address",
              "name": "token",
              "type": "address"
            },
            {
              "internalType": "bytes32",
              "name": "salt",
              "type": "bytes32"
            },
            {
              "internalType": "uint256",
              "name": "balance",
              "type": "uint256"
            },
            {
              "internalType": "address",
              "name": "validator",
              "type": "address"
            },
            {
              "internalType": "uint32",
              "name": "split",
              "type": "uint32"
            },
            {
              "internalType": "uint8",
              "name": "mode",
              "type": "uint8"
            },
            {
              "internalType": "bool",
              "name": "sponsorGas",
              "type": "bool"
            }
          ],
          "indexed": false,
          "internalType": "struct HappyRedPacketImpl.RedPacketData",
          "name": "packet",
          "type": "tuple"
        }
      ],
      "name": "Created",
      "type": "event"
    },
    {
      "anonymous": false,
      "inputs": [
        {
          "indexed": true,
          "internalType": "address",
          "name": "receiver",
          "type": "address"
        },
        {
          "indexed": false,
          "internalType": "uint256",
          "name": "payment",
          "type": "uint256"
        }
      ],
      "name": "GasSponsorship",
      "type": "event"
    },
    {
      "anonymous": false,
      "inputs": [
        {
          "indexed": true,
          "internalType": "address",
          "name": "previousOwner",
          "type": "address"
        },
        {
          "indexed": true,
          "internalType": "address",
          "name": "newOwner",
          "type": "address"
        }
      ],
      "name": "OwnershipTransferred",
      "type": "event"
    },
    {
      "anonymous": false,
      "inputs": [
        {
          "indexed": true,
          "internalType": "address",
          "name": "implementation",
          "type": "address"
        }
      ],
      "name": "Upgraded",
      "type": "event"
    },
    {
      "inputs": [
        {
          "components": [
            {
              "internalType": "address",
              "name": "creator",
              "type": "address"
            },
            {
              "internalType": "address",
              "name": "token",
              "type": "address"
            },
            {
              "internalType": "bytes32",
              "name": "salt",
              "type": "bytes32"
            },
            {
              "internalType": "uint256",
              "name": "balance",
              "type": "uint256"
            },
            {
              "internalType": "address",
              "name": "validator",
              "type": "address"
            },
            {
              "internalType": "uint32",
              "name": "split",
              "type": "uint32"
            },
            {
              "internalType": "uint8",
              "name": "mode",
              "type": "uint8"
            },
            {
              "internalType": "bool",
              "name": "sponsorGas",
              "type": "bool"
            }
          ],
          "internalType": "struct HappyRedPacketImpl.RedPacketData",
          "name": "packet",
          "type": "tuple"
        },
        {
          "internalType": "address",
          "name": "claimer",
          "type": "address"
        },
        {
          "internalType": "address",
          "name": "refundReceiver",
          "type": "address"
        },
        {
          "internalType": "bytes",
          "name": "signature",
          "type": "bytes"
        }
      ],
      "name": "claim",
      "outputs": [],
      "stateMutability": "nonpayable",
      "type": "function"
    },
    {
      "inputs": [
        {
          "components": [
            {
              "internalType": "address",
              "name": "creator",
              "type": "address"
            },
            {
              "internalType": "address",
              "name": "token",
              "type": "address"
            },
            {
              "internalType": "bytes32",
              "name": "salt",
              "type": "bytes32"
            },
            {
              "internalType": "uint256",
              "name": "balance",
              "type": "uint256"
            },
            {
              "internalType": "address",
              "name": "validator",
              "type": "address"
            },
            {
              "internalType": "uint32",
              "name": "split",
              "type": "uint32"
            },
            {
              "internalType": "uint8",
              "name": "mode",
              "type": "uint8"
            },
            {
              "internalType": "bool",
              "name": "sponsorGas",
              "type": "bool"
            }
          ],
          "internalType": "struct HappyRedPacketImpl.RedPacketData",
          "name": "pd",
          "type": "tuple"
        }
      ],
      "name": "create",
      "outputs": [],
      "stateMutability": "payable",
      "type": "function"
    },
    {
      "inputs": [
        {
          "internalType": "bytes32",
          "name": "packetId",
          "type": "bytes32"
        }
      ],
      "name": "deposit",
      "outputs": [],
      "stateMutability": "payable",
      "type": "function"
    },
    {
      "inputs": [
        {
          "internalType": "bytes32",
          "name": "packetId",
          "type": "bytes32"
        },
        {
          "internalType": "address",
          "name": "claimer",
          "type": "address"
        }
      ],
      "name": "getClaimedCount",
      "outputs": [
        {
          "internalType": "uint256",
          "name": "",
          "type": "uint256"
        }
      ],
      "stateMutability": "view",
      "type": "function"
    },
    {
      "inputs": [
        {
          "internalType": "bytes32",
          "name": "id",
          "type": "bytes32"
        }
      ],
      "name": "getPacket",
      "outputs": [
        {
          "components": [
            {
              "internalType": "uint256",
              "name": "createdAt",
              "type": "uint256"
            },
            {
              "internalType": "uint256",
              "name": "balance",
              "type": "uint256"
            },
            {
              "internalType": "uint32",
              "name": "split",
              "type": "uint32"
            },
            {
              "internalType": "uint256",
              "name": "gasSponsorship",
              "type": "uint256"
            }
          ],
          "internalType": "struct HappyRedPacketImpl.RedPacket",
          "name": "",
          "type": "tuple"
        }
      ],
      "stateMutability": "view",
      "type": "function"
    },
    {
      "inputs": [],
      "name": "implementation",
      "outputs": [
        {
          "internalType": "address",
          "name": "",
          "type": "address"
        }
      ],
      "stateMutability": "view",
      "type": "function"
    },
    {
      "inputs": [
        {
          "internalType": "address",
          "name": "newOwner",
          "type": "address"
        }
      ],
      "name": "initOwner",
      "outputs": [],
      "stateMutability": "nonpayable",
      "type": "function"
    },
    {
      "inputs": [],
      "name": "owner",
      "outputs": [
        {
          "internalType": "address",
          "name": "",
          "type": "address"
        }
      ],
      "stateMutability": "view",
      "type": "function"
    },
    {
      "inputs": [],
      "name": "proxiableUUID",
      "outputs": [
        {
          "internalType": "bytes32",
          "name": "",
          "type": "bytes32"
        }
      ],
      "stateMutability": "view",
      "type": "function"
    },
    {
      "inputs": [
        {
          "components": [
            {
              "internalType": "address",
              "name": "creator",
              "type": "address"
            },
            {
              "internalType": "address",
              "name": "token",
              "type": "address"
            },
            {
              "internalType": "bytes32",
              "name": "salt",
              "type": "bytes32"
            },
            {
              "internalType": "uint256",
              "name": "balance",
              "type": "uint256"
            },
            {
              "internalType": "address",
              "name": "validator",
              "type": "address"
            },
            {
              "internalType": "uint32",
              "name": "split",
              "type": "uint32"
            },
            {
              "internalType": "uint8",
              "name": "mode",
              "type": "uint8"
            },
            {
              "internalType": "bool",
              "name": "sponsorGas",
              "type": "bool"
            }
          ],
          "internalType": "struct HappyRedPacketImpl.RedPacketData",
          "name": "pd",
          "type": "tuple"
        }
      ],
      "name": "refund",
      "outputs": [],
      "stateMutability": "nonpayable",
      "type": "function"
    },
    {
      "inputs": [],
      "name": "renounceOwnership",
      "outputs": [],
      "stateMutability": "nonpayable",
      "type": "function"
    },
    {
      "inputs": [
        {
          "internalType": "address",
          "name": "newOwner",
          "type": "address"
        }
      ],
      "name": "transferOwnership",
      "outputs": [],
      "stateMutability": "nonpayable",
      "type": "function"
    },
    {
      "inputs": [
        {
          "internalType": "address",
          "name": "newImplementation",
          "type": "address"
        }
      ],
      "name": "upgradeTo",
      "outputs": [],
      "stateMutability": "nonpayable",
      "type": "function"
    },
    {
      "inputs": [
        {
          "internalType": "address",
          "name": "newImplementation",
          "type": "address"
        },
        {
          "internalType": "bytes",
          "name": "data",
          "type": "bytes"
        }
      ],
      "name": "upgradeToAndCall",
      "outputs": [],
      "stateMutability": "payable",
      "type": "function"
    }
  ],
  "transactionHash": "0x54cc3da770c31ea3d8545ba38d7f98c75a9e664331e52ab6c783cfe14a71e38a",
  "args": [],
  "numDeployments": 4,
  "solcInputHash": "a509295f11c78a88afeb1cc699f2f343",
  "bytecode": "0x60a06040523073ffffffffffffffffffffffffffffffffffffffff1660809073ffffffffffffffffffffffffffffffffffffffff1660601b8152503480156200004757600080fd5b50620000686200005c6200006e60201b60201c565b6200007660201b60201c565b6200013a565b600033905090565b60008060009054906101000a900473ffffffffffffffffffffffffffffffffffffffff169050816000806101000a81548173ffffffffffffffffffffffffffffffffffffffff021916908373ffffffffffffffffffffffffffffffffffffffff1602179055508173ffffffffffffffffffffffffffffffffffffffff168173ffffffffffffffffffffffffffffffffffffffff167f8be0079c531659141344cd1fd0a4f28419497f9722a3daafe3b4186f6b6457e060405160405180910390a35050565b60805160601c613b1a620001756000396000818161047a01528181610509015281816106030152818161069201526107420152613b1a6000f3fe6080604052600436106100dd5760003560e01c80637f746eb41161007f57806396ff3c831161005957806396ff3c831461026a578063b214faa5146102a7578063f2fde38b146102c3578063fc173fb6146102ec576100dd565b80637f746eb4146101fa5780638da5cb5b1461021657806393c99ab214610241576100dd565b80634f1ef286116100bb5780634f1ef2861461017157806352d1902d1461018d5780635c60da1b146101b8578063715018a6146101e3576100dd565b80630b524856146100e25780630d0092971461011f5780633659cfe614610148575b600080fd5b3480156100ee57600080fd5b50610109600480360381019061010491906120c8565b610315565b6040516101169190612182565b60405180910390f35b34801561012b57600080fd5b50610146600480360381019061014191906121fb565b610386565b005b34801561015457600080fd5b5061016f600480360381019061016a91906121fb565b610478565b005b61018b6004803603810190610186919061236e565b610601565b005b34801561019957600080fd5b506101a261073e565b6040516101af91906123d9565b60405180910390f35b3480156101c457600080fd5b506101cd6107f7565b6040516101da9190612403565b60405180910390f35b3480156101ef57600080fd5b506101f8610806565b005b610214600480360381019061020f9190612443565b61081a565b005b34801561022257600080fd5b5061022b610b46565b6040516102389190612403565b60405180910390f35b34801561024d57600080fd5b5061026860048036038101906102639190612443565b610b6f565b005b34801561027657600080fd5b50610291600480360381019061028c9190612471565b610d11565b60405161029e91906124c0565b60405180910390f35b6102c160048036038101906102bc91906120c8565b610d6c565b005b3480156102cf57600080fd5b506102ea60048036038101906102e591906121fb565b610d9c565b005b3480156102f857600080fd5b50610313600480360381019061030e919061253b565b610e20565b005b61031d612050565b6001600083815260200190815260200160002060405180608001604052908160008201548152602001600182015481526020016002820160009054906101000a900463ffffffff1663ffffffff1663ffffffff1681526020016003820154815250509050919050565b600073ffffffffffffffffffffffffffffffffffffffff166103a6610b46565b73ffffffffffffffffffffffffffffffffffffffff16146103fc576040517f08c379a00000000000000000000000000000000000000000000000000000000081526004016103f390612624565b60405180910390fd5b600073ffffffffffffffffffffffffffffffffffffffff168173ffffffffffffffffffffffffffffffffffffffff16141561046c576040517f08c379a000000000000000000000000000000000000000000000000000000000815260040161046390612690565b60405180910390fd5b6104758161109e565b50565b7f000000000000000000000000000000000000000000000000000000000000000073ffffffffffffffffffffffffffffffffffffffff163073ffffffffffffffffffffffffffffffffffffffff161415610507576040517f08c379a00000000000000000000000000000000000000000000000000000000081526004016104fe90612722565b60405180910390fd5b7f000000000000000000000000000000000000000000000000000000000000000073ffffffffffffffffffffffffffffffffffffffff16610546611162565b73ffffffffffffffffffffffffffffffffffffffff161461059c576040517f08c379a0000000000000000000000000000000000000000000000000000000008152600401610593906127b4565b60405180910390fd5b6105a5816111b9565b6105fe81600067ffffffffffffffff8111156105c4576105c3612243565b5b6040519080825280601f01601f1916602001820160405280156105f65781602001600182028036833780820191505090505b5060006111c4565b50565b7f000000000000000000000000000000000000000000000000000000000000000073ffffffffffffffffffffffffffffffffffffffff163073ffffffffffffffffffffffffffffffffffffffff161415610690576040517f08c379a000000000000000000000000000000000000000000000000000000000815260040161068790612722565b60405180910390fd5b7f000000000000000000000000000000000000000000000000000000000000000073ffffffffffffffffffffffffffffffffffffffff166106cf611162565b73ffffffffffffffffffffffffffffffffffffffff1614610725576040517f08c379a000000000000000000000000000000000000000000000000000000000815260040161071c906127b4565b60405180910390fd5b61072e826111b9565b61073a828260016111c4565b5050565b60007f000000000000000000000000000000000000000000000000000000000000000073ffffffffffffffffffffffffffffffffffffffff163073ffffffffffffffffffffffffffffffffffffffff16146107ce576040517f08c379a00000000000000000000000000000000000000000000000000000000081526004016107c590612846565b60405180910390fd5b7f360894a13ba1a3210667c828492db98dca3e2076cc3735a920a3ca505d382bbc60001b905090565b6000610801611162565b905090565b61080e611341565b610818600061109e565b565b60018160c001602081019061082f919061289f565b60ff161480610853575060028160c001602081019061084e919061289f565b60ff16145b610892576040517f08c379a000000000000000000000000000000000000000000000000000000000815260040161088990612918565b60405180910390fd5b600061089d826113bf565b905060006001600083815260200190815260200160002060000154146108f8576040517f08c379a00000000000000000000000000000000000000000000000000000000081526004016108ef90612984565b60405180910390fd5b600073ffffffffffffffffffffffffffffffffffffffff1682602001602081019061092391906121fb565b73ffffffffffffffffffffffffffffffffffffffff16146109e95781602001602081019061095191906121fb565b73ffffffffffffffffffffffffffffffffffffffff166323b872dd333085606001356040518463ffffffff1660e01b8152600401610991939291906129a4565b602060405180830381600087803b1580156109ab57600080fd5b505af11580156109bf573d6000803e3d6000fd5b505050506040513d601f19601f820116820180604052508101906109e39190612a13565b50610a30565b81606001353414610a2f576040517f08c379a0000000000000000000000000000000000000000000000000000000008152600401610a2690612a8c565b60405180910390fd5b5b8160600135600160008381526020019081526020016000206001016000828254610a5a9190612adb565b925050819055508160a0016020810190610a749190612b5d565b6001600083815260200190815260200160002060020160008282829054906101000a900463ffffffff16610aa89190612b8a565b92506101000a81548163ffffffff021916908363ffffffff160217905550426001600083815260200190815260200160002060000181905550816000016020810190610af491906121fb565b73ffffffffffffffffffffffffffffffffffffffff16817f2b11f532b3c50b89aaf6d88a1c845b5e0adb71c4bbbfc56a7c029b5ffc3f5e7784604051610b3a9190612dad565b60405180910390a35050565b60008060009054906101000a900473ffffffffffffffffffffffffffffffffffffffff16905090565b3373ffffffffffffffffffffffffffffffffffffffff16816000016020810190610b9991906121fb565b73ffffffffffffffffffffffffffffffffffffffff1614610bef576040517f08c379a0000000000000000000000000000000000000000000000000000000008152600401610be690612e15565b60405180910390fd5b6000610bfa826113bf565b905062015180600160008381526020019081526020016000206000015442610c229190612e35565b11610c62576040517f08c379a0000000000000000000000000000000000000000000000000000000008152600401610c5990612eb5565b60405180910390fd5b6000600160008381526020019081526020016000206001015490506000811115610cc05760006001600084815260200190815260200160002060010181905550610cbf836020016020810190610cb891906121fb565b33836113f3565b5b6000600160008481526020019081526020016000206003015490506000811115610d0b5760006001600085815260200190815260200160002060030181905550610d0a33826114cb565b5b50505050565b60006002600084815260200190815260200160002060008373ffffffffffffffffffffffffffffffffffffffff1673ffffffffffffffffffffffffffffffffffffffff16815260200190815260200160002054905092915050565b34600160008381526020019081526020016000206003016000828254610d929190612adb565b9250508190555050565b610da4611341565b600073ffffffffffffffffffffffffffffffffffffffff168173ffffffffffffffffffffffffffffffffffffffff161415610e14576040517f08c379a0000000000000000000000000000000000000000000000000000000008152600401610e0b90612f47565b60405180910390fd5b610e1d8161109e565b50565b60005a90506000610e30876113bf565b90506000848490501415610ec357866080016020810190610e5191906121fb565b73ffffffffffffffffffffffffffffffffffffffff163373ffffffffffffffffffffffffffffffffffffffff1614610ebe576040517f08c379a0000000000000000000000000000000000000000000000000000000008152600401610eb590612e15565b60405180910390fd5b610fd8565b6000818787604051602001610eda93929190612f67565b6040516020818303038152906040528051906020012090506000610efd826115bf565b9050610f5686868080601f016020809104026020016040519081016040528093929190818152602001838380828437600081840152601f19601f82011690508083019250505050505050826115ef90919063ffffffff16565b73ffffffffffffffffffffffffffffffffffffffff16896080016020810190610f7f91906121fb565b73ffffffffffffffffffffffffffffffffffffffff1614610fd5576040517f08c379a0000000000000000000000000000000000000000000000000000000008152600401610fcc90612fea565b60405180910390fd5b50505b610fe3818888611616565b8660e0016020810190610ff6919061300a565b801561102f5750600073ffffffffffffffffffffffffffffffffffffffff168573ffffffffffffffffffffffffffffffffffffffff1614155b156110955760003a61c3505a856110469190612e35565b6110509190612adb565b61105a9190613037565b9050806001600084815260200190815260200160002060030160008282546110829190612e35565b925050819055506110938187611789565b505b50505050505050565b60008060009054906101000a900473ffffffffffffffffffffffffffffffffffffffff169050816000806101000a81548173ffffffffffffffffffffffffffffffffffffffff021916908373ffffffffffffffffffffffffffffffffffffffff1602179055508173ffffffffffffffffffffffffffffffffffffffff168173ffffffffffffffffffffffffffffffffffffffff167f8be0079c531659141344cd1fd0a4f28419497f9722a3daafe3b4186f6b6457e060405160405180910390a35050565b60006111907f360894a13ba1a3210667c828492db98dca3e2076cc3735a920a3ca505d382bbc60001b611888565b60000160009054906101000a900473ffffffffffffffffffffffffffffffffffffffff16905090565b6111c1611341565b50565b6111f07f4910fdfa16fed3260ed0e7147f7cc6da11a60208b5b9406d12a635614ffd914360001b611892565b60000160009054906101000a900460ff16156112145761120f8361189c565b61133c565b8273ffffffffffffffffffffffffffffffffffffffff166352d1902d6040518163ffffffff1660e01b815260040160206040518083038186803b15801561125a57600080fd5b505afa92505050801561128b57506040513d601f19601f8201168201806040525081019061128891906130a6565b60015b6112ca576040517f08c379a00000000000000000000000000000000000000000000000000000000081526004016112c190613145565b60405180910390fd5b7f360894a13ba1a3210667c828492db98dca3e2076cc3735a920a3ca505d382bbc60001b811461132f576040517f08c379a0000000000000000000000000000000000000000000000000000000008152600401611326906131d7565b60405180910390fd5b5061133b838383611955565b5b505050565b611349611981565b73ffffffffffffffffffffffffffffffffffffffff16611367610b46565b73ffffffffffffffffffffffffffffffffffffffff16146113bd576040517f08c379a00000000000000000000000000000000000000000000000000000000081526004016113b490613243565b60405180910390fd5b565b60004630836040516020016113d693929190613263565b604051602081830303815290604052805190602001209050919050565b600073ffffffffffffffffffffffffffffffffffffffff168373ffffffffffffffffffffffffffffffffffffffff1614156114375761143282826114cb565b6114c6565b8273ffffffffffffffffffffffffffffffffffffffff1663a9059cbb83836040518363ffffffff1660e01b815260040161147292919061329b565b602060405180830381600087803b15801561148c57600080fd5b505af11580156114a0573d6000803e3d6000fd5b505050506040513d601f19601f820116820180604052508101906114c49190612a13565b505b505050565b8047101561150e576040517f08c379a000000000000000000000000000000000000000000000000000000000815260040161150590613310565b60405180910390fd5b60008273ffffffffffffffffffffffffffffffffffffffff168260405161153490613361565b60006040518083038185875af1925050503d8060008114611571576040519150601f19603f3d011682016040523d82523d6000602084013e611576565b606091505b50509050806115ba576040517f08c379a00000000000000000000000000000000000000000000000000000000081526004016115b1906133e8565b60405180910390fd5b505050565b6000816040516020016115d29190613480565b604051602081830303815290604052805190602001209050919050565b60008060006115fe8585611989565b9150915061160b816119db565b819250505092915050565b6116208382611b49565b60006001600085815260200190815260200160002060405180608001604052908160008201548152602001600182015481526020016002820160009054906101000a900463ffffffff1663ffffffff1663ffffffff168152602001600382015481525050905060006116a5838560c001602081019061169f919061289f565b84611c48565b90508082602001516116b79190612e35565b6001600087815260200190815260200160002060010181905550600182604001516116e291906134a6565b6001600087815260200190815260200160002060020160006101000a81548163ffffffff021916908363ffffffff16021790555061173384602001602081019061172c91906121fb565b84836113f3565b8273ffffffffffffffffffffffffffffffffffffffff16857f0508a8b4117d9a7b3d8f5895f6413e61b4f9a2df35afbfb41e78d0ecfff1843f8360405161177a91906124c0565b60405180910390a35050505050565b60008173ffffffffffffffffffffffffffffffffffffffff16836040516117af90613361565b60006040518083038185875af1925050503d80600081146117ec576040519150601f19603f3d011682016040523d82523d6000602084013e6117f1565b606091505b5050905080611835576040517f08c379a000000000000000000000000000000000000000000000000000000000815260040161182c90613526565b60405180910390fd5b8173ffffffffffffffffffffffffffffffffffffffff167f3728afc7eaa9ba3128dbfdbf1b575e543cd11ed43eecdb8b2b25da1b817856938460405161187b91906124c0565b60405180910390a2505050565b6000819050919050565b6000819050919050565b6118a581611d82565b6118e4576040517f08c379a00000000000000000000000000000000000000000000000000000000081526004016118db906135b8565b60405180910390fd5b806119117f360894a13ba1a3210667c828492db98dca3e2076cc3735a920a3ca505d382bbc60001b611888565b60000160006101000a81548173ffffffffffffffffffffffffffffffffffffffff021916908373ffffffffffffffffffffffffffffffffffffffff16021790555050565b61195e83611da5565b60008251118061196b5750805b1561197c5761197a8383611df4565b505b505050565b600033905090565b6000806041835114156119cb5760008060006020860151925060408601519150606086015160001a90506119bf87828585611e21565b945094505050506119d4565b60006002915091505b9250929050565b600060048111156119ef576119ee6135d8565b5b816004811115611a0257611a016135d8565b5b1415611a0d57611b46565b60016004811115611a2157611a206135d8565b5b816004811115611a3457611a336135d8565b5b1415611a75576040517f08c379a0000000000000000000000000000000000000000000000000000000008152600401611a6c90613653565b60405180910390fd5b60026004811115611a8957611a886135d8565b5b816004811115611a9c57611a9b6135d8565b5b1415611add576040517f08c379a0000000000000000000000000000000000000000000000000000000008152600401611ad4906136bf565b60405180910390fd5b60036004811115611af157611af06135d8565b5b816004811115611b0457611b036135d8565b5b1415611b45576040517f08c379a0000000000000000000000000000000000000000000000000000000008152600401611b3c90613751565b60405180910390fd5b5b50565b60006002600084815260200190815260200160002060008373ffffffffffffffffffffffffffffffffffffffff1673ffffffffffffffffffffffffffffffffffffffff1681526020019081526020016000205414611bdc576040517f08c379a0000000000000000000000000000000000000000000000000000000008152600401611bd3906137bd565b60405180910390fd5b60016002600084815260200190815260200160002060008373ffffffffffffffffffffffffffffffffffffffff1673ffffffffffffffffffffffffffffffffffffffff1681526020019081526020016000206000828254611c3d9190612adb565b925050819055505050565b6000808260200151118015611c6757506000826040015163ffffffff16115b611ca6576040517f08c379a0000000000000000000000000000000000000000000000000000000008152600401611c9d90613829565b60405180910390fd5b6001826040015163ffffffff161415611cc55781602001519050611d6d565b60018360ff161415611cf257816040015163ffffffff168260200151611ceb9190613878565b9050611d6c565b60028360ff161415611d6b576000844442604051602001611d15939291906138a9565b6040516020818303038152906040528051906020012060001c905060006002846040015163ffffffff168560200151611d4e9190613878565b611d589190613037565b90508082611d6691906138e0565b925050505b5b5b6000811415611d7b57600190505b9392505050565b6000808273ffffffffffffffffffffffffffffffffffffffff163b119050919050565b611dae8161189c565b8073ffffffffffffffffffffffffffffffffffffffff167fbc7cd75a20ee27fd9adebab32041f755214dbc6bffa90cc0225b39da2e5c2d3b60405160405180910390a250565b6060611e198383604051806060016040528060278152602001613abe60279139611f04565b905092915050565b6000807f7fffffffffffffffffffffffffffffff5d576e7357a4501ddfe92f46681b20a08360001c1115611e5c576000600391509150611efb565b600060018787878760405160008152602001604052604051611e819493929190613920565b6020604051602081039080840390855afa158015611ea3573d6000803e3d6000fd5b505050602060405103519050600073ffffffffffffffffffffffffffffffffffffffff168173ffffffffffffffffffffffffffffffffffffffff161415611ef257600060019250925050611efb565b80600092509250505b94509492505050565b60606000808573ffffffffffffffffffffffffffffffffffffffff1685604051611f2e91906139d4565b600060405180830381855af49150503d8060008114611f69576040519150601f19603f3d011682016040523d82523d6000602084013e611f6e565b606091505b5091509150611f7f86838387611f8a565b925050509392505050565b60608315611fed57600083511415611fe557611fa585611d82565b611fe4576040517f08c379a0000000000000000000000000000000000000000000000000000000008152600401611fdb90613a37565b60405180910390fd5b5b829050611ff8565b611ff78383612000565b5b949350505050565b6000825111156120135781518083602001fd5b806040517f08c379a00000000000000000000000000000000000000000000000000000000081526004016120479190613a9b565b60405180910390fd5b60405180608001604052806000815260200160008152602001600063ffffffff168152602001600081525090565b6000604051905090565b600080fd5b600080fd5b6000819050919050565b6120a581612092565b81146120b057600080fd5b50565b6000813590506120c28161209c565b92915050565b6000602082840312156120de576120dd612088565b5b60006120ec848285016120b3565b91505092915050565b6000819050919050565b612108816120f5565b82525050565b600063ffffffff82169050919050565b6121278161210e565b82525050565b60808201600082015161214360008501826120ff565b50602082015161215660208501826120ff565b506040820151612169604085018261211e565b50606082015161217c60608501826120ff565b50505050565b6000608082019050612197600083018461212d565b92915050565b600073ffffffffffffffffffffffffffffffffffffffff82169050919050565b60006121c88261219d565b9050919050565b6121d8816121bd565b81146121e357600080fd5b50565b6000813590506121f5816121cf565b92915050565b60006020828403121561221157612210612088565b5b600061221f848285016121e6565b91505092915050565b600080fd5b600080fd5b6000601f19601f8301169050919050565b7f4e487b7100000000000000000000000000000000000000000000000000000000600052604160045260246000fd5b61227b82612232565b810181811067ffffffffffffffff8211171561229a57612299612243565b5b80604052505050565b60006122ad61207e565b90506122b98282612272565b919050565b600067ffffffffffffffff8211156122d9576122d8612243565b5b6122e282612232565b9050602081019050919050565b82818337600083830152505050565b600061231161230c846122be565b6122a3565b90508281526020810184848401111561232d5761232c61222d565b5b6123388482856122ef565b509392505050565b600082601f83011261235557612354612228565b5b81356123658482602086016122fe565b91505092915050565b6000806040838503121561238557612384612088565b5b6000612393858286016121e6565b925050602083013567ffffffffffffffff8111156123b4576123b361208d565b5b6123c085828601612340565b9150509250929050565b6123d381612092565b82525050565b60006020820190506123ee60008301846123ca565b92915050565b6123fd816121bd565b82525050565b600060208201905061241860008301846123f4565b92915050565b600080fd5b6000610100828403121561243a5761243961241e565b5b81905092915050565b6000610100828403121561245a57612459612088565b5b600061246884828501612423565b91505092915050565b6000806040838503121561248857612487612088565b5b6000612496858286016120b3565b92505060206124a7858286016121e6565b9150509250929050565b6124ba816120f5565b82525050565b60006020820190506124d560008301846124b1565b92915050565b600080fd5b600080fd5b60008083601f8401126124fb576124fa612228565b5b8235905067ffffffffffffffff811115612518576125176124db565b5b602083019150836001820283011115612534576125336124e0565b5b9250929050565b6000806000806000610160868803121561255857612557612088565b5b600061256688828901612423565b955050610100612578888289016121e6565b94505061012061258a888289016121e6565b93505061014086013567ffffffffffffffff8111156125ac576125ab61208d565b5b6125b8888289016124e5565b92509250509295509295909350565b600082825260208201905092915050565b7f4f776e657220616c726561647920736574000000000000000000000000000000600082015250565b600061260e6011836125c7565b9150612619826125d8565b602082019050919050565b6000602082019050818103600083015261263d81612601565b9050919050565b7f4f776e65722063616e6e6f742062652061646472657373207a65726f00000000600082015250565b600061267a601c836125c7565b915061268582612644565b602082019050919050565b600060208201905081810360008301526126a98161266d565b9050919050565b7f46756e6374696f6e206d7573742062652063616c6c6564207468726f7567682060008201527f64656c656761746563616c6c0000000000000000000000000000000000000000602082015250565b600061270c602c836125c7565b9150612717826126b0565b604082019050919050565b6000602082019050818103600083015261273b816126ff565b9050919050565b7f46756e6374696f6e206d7573742062652063616c6c6564207468726f7567682060008201527f6163746976652070726f78790000000000000000000000000000000000000000602082015250565b600061279e602c836125c7565b91506127a982612742565b604082019050919050565b600060208201905081810360008301526127cd81612791565b9050919050565b7f555550535570677261646561626c653a206d757374206e6f742062652063616c60008201527f6c6564207468726f7567682064656c656761746563616c6c0000000000000000602082015250565b60006128306038836125c7565b915061283b826127d4565b604082019050919050565b6000602082019050818103600083015261285f81612823565b9050919050565b600060ff82169050919050565b61287c81612866565b811461288757600080fd5b50565b60008135905061289981612873565b92915050565b6000602082840312156128b5576128b4612088565b5b60006128c38482850161288a565b91505092915050565b7f496e76616c6964206d6f64650000000000000000000000000000000000000000600082015250565b6000612902600c836125c7565b915061290d826128cc565b602082019050919050565b60006020820190508181036000830152612931816128f5565b9050919050565b7f5061636b657420616c7265616479206372656174656400000000000000000000600082015250565b600061296e6016836125c7565b915061297982612938565b602082019050919050565b6000602082019050818103600083015261299d81612961565b9050919050565b60006060820190506129b960008301866123f4565b6129c660208301856123f4565b6129d360408301846124b1565b949350505050565b60008115159050919050565b6129f0816129db565b81146129fb57600080fd5b50565b600081519050612a0d816129e7565b92915050565b600060208284031215612a2957612a28612088565b5b6000612a37848285016129fe565b91505092915050565b7f496e73756666696369656e742062616c616e6365000000000000000000000000600082015250565b6000612a766014836125c7565b9150612a8182612a40565b602082019050919050565b60006020820190508181036000830152612aa581612a69565b9050919050565b7f4e487b7100000000000000000000000000000000000000000000000000000000600052601160045260246000fd5b6000612ae6826120f5565b9150612af1836120f5565b9250827fffffffffffffffffffffffffffffffffffffffffffffffffffffffffffffffff03821115612b2657612b25612aac565b5b828201905092915050565b612b3a8161210e565b8114612b4557600080fd5b50565b600081359050612b5781612b31565b92915050565b600060208284031215612b7357612b72612088565b5b6000612b8184828501612b48565b91505092915050565b6000612b958261210e565b9150612ba08361210e565b92508263ffffffff03821115612bb957612bb8612aac565b5b828201905092915050565b6000612bd360208401846121e6565b905092915050565b612be4816121bd565b82525050565b6000612bf960208401846120b3565b905092915050565b612c0a81612092565b82525050565b612c19816120f5565b8114612c2457600080fd5b50565b600081359050612c3681612c10565b92915050565b6000612c4b6020840184612c27565b905092915050565b6000612c626020840184612b48565b905092915050565b6000612c79602084018461288a565b905092915050565b612c8a81612866565b82525050565b600081359050612c9f816129e7565b92915050565b6000612cb46020840184612c90565b905092915050565b612cc5816129db565b82525050565b6101008201612cdd6000830183612bc4565b612cea6000850182612bdb565b50612cf86020830183612bc4565b612d056020850182612bdb565b50612d136040830183612bea565b612d206040850182612c01565b50612d2e6060830183612c3c565b612d3b60608501826120ff565b50612d496080830183612bc4565b612d566080850182612bdb565b50612d6460a0830183612c53565b612d7160a085018261211e565b50612d7f60c0830183612c6a565b612d8c60c0850182612c81565b50612d9a60e0830183612ca5565b612da760e0850182612cbc565b50505050565b600061010082019050612dc36000830184612ccb565b92915050565b7f556e617574686f72697a65640000000000000000000000000000000000000000600082015250565b6000612dff600c836125c7565b9150612e0a82612dc9565b602082019050919050565b60006020820190508181036000830152612e2e81612df2565b9050919050565b6000612e40826120f5565b9150612e4b836120f5565b925082821015612e5e57612e5d612aac565b5b828203905092915050565b7f5061636b6574206c6f636b656400000000000000000000000000000000000000600082015250565b6000612e9f600d836125c7565b9150612eaa82612e69565b602082019050919050565b60006020820190508181036000830152612ece81612e92565b9050919050565b7f4f776e61626c653a206e6577206f776e657220697320746865207a65726f206160008201527f6464726573730000000000000000000000000000000000000000000000000000602082015250565b6000612f316026836125c7565b9150612f3c82612ed5565b604082019050919050565b60006020820190508181036000830152612f6081612f24565b9050919050565b6000606082019050612f7c60008301866123ca565b612f8960208301856123f4565b612f9660408301846123f4565b949350505050565b7f496e76616c6964207369676e6174757265000000000000000000000000000000600082015250565b6000612fd46011836125c7565b9150612fdf82612f9e565b602082019050919050565b6000602082019050818103600083015261300381612fc7565b9050919050565b6000602082840312156130205761301f612088565b5b600061302e84828501612c90565b91505092915050565b6000613042826120f5565b915061304d836120f5565b9250817fffffffffffffffffffffffffffffffffffffffffffffffffffffffffffffffff048311821515161561308657613085612aac565b5b828202905092915050565b6000815190506130a08161209c565b92915050565b6000602082840312156130bc576130bb612088565b5b60006130ca84828501613091565b91505092915050565b7f45524331393637557067726164653a206e657720696d706c656d656e7461746960008201527f6f6e206973206e6f742055555053000000000000000000000000000000000000602082015250565b600061312f602e836125c7565b915061313a826130d3565b604082019050919050565b6000602082019050818103600083015261315e81613122565b9050919050565b7f45524331393637557067726164653a20756e737570706f727465642070726f7860008201527f6961626c65555549440000000000000000000000000000000000000000000000602082015250565b60006131c16029836125c7565b91506131cc82613165565b604082019050919050565b600060208201905081810360008301526131f0816131b4565b9050919050565b7f4f776e61626c653a2063616c6c6572206973206e6f7420746865206f776e6572600082015250565b600061322d6020836125c7565b9150613238826131f7565b602082019050919050565b6000602082019050818103600083015261325c81613220565b9050919050565b60006101408201905061327960008301866124b1565b61328660208301856123f4565b6132936040830184612ccb565b949350505050565b60006040820190506132b060008301856123f4565b6132bd60208301846124b1565b9392505050565b7f416464726573733a20696e73756666696369656e742062616c616e6365000000600082015250565b60006132fa601d836125c7565b9150613305826132c4565b602082019050919050565b60006020820190508181036000830152613329816132ed565b9050919050565b600081905092915050565b50565b600061334b600083613330565b91506133568261333b565b600082019050919050565b600061336c8261333e565b9150819050919050565b7f416464726573733a20756e61626c6520746f2073656e642076616c75652c207260008201527f6563697069656e74206d61792068617665207265766572746564000000000000602082015250565b60006133d2603a836125c7565b91506133dd82613376565b604082019050919050565b60006020820190508181036000830152613401816133c5565b9050919050565b600081905092915050565b7f19457468657265756d205369676e6564204d6573736167653a0a333200000000600082015250565b6000613449601c83613408565b915061345482613413565b601c82019050919050565b6000819050919050565b61347a61347582612092565b61345f565b82525050565b600061348b8261343c565b91506134978284613469565b60208201915081905092915050565b60006134b18261210e565b91506134bc8361210e565b9250828210156134cf576134ce612aac565b5b828203905092915050565b7f4845584c30323000000000000000000000000000000000000000000000000000600082015250565b60006135106007836125c7565b915061351b826134da565b602082019050919050565b6000602082019050818103600083015261353f81613503565b9050919050565b7f455243313936373a206e657720696d706c656d656e746174696f6e206973206e60008201527f6f74206120636f6e747261637400000000000000000000000000000000000000602082015250565b60006135a2602d836125c7565b91506135ad82613546565b604082019050919050565b600060208201905081810360008301526135d181613595565b9050919050565b7f4e487b7100000000000000000000000000000000000000000000000000000000600052602160045260246000fd5b7f45434453413a20696e76616c6964207369676e61747572650000000000000000600082015250565b600061363d6018836125c7565b915061364882613607565b602082019050919050565b6000602082019050818103600083015261366c81613630565b9050919050565b7f45434453413a20696e76616c6964207369676e6174757265206c656e67746800600082015250565b60006136a9601f836125c7565b91506136b482613673565b602082019050919050565b600060208201905081810360008301526136d88161369c565b9050919050565b7f45434453413a20696e76616c6964207369676e6174757265202773272076616c60008201527f7565000000000000000000000000000000000000000000000000000000000000602082015250565b600061373b6022836125c7565b9150613746826136df565b604082019050919050565b6000602082019050818103600083015261376a8161372e565b9050919050565b7f416c726561647920636c61696d65640000000000000000000000000000000000600082015250565b60006137a7600f836125c7565b91506137b282613771565b602082019050919050565b600060208201905081810360008301526137d68161379a565b9050919050565b7f456d707479205061636b65740000000000000000000000000000000000000000600082015250565b6000613813600c836125c7565b915061381e826137dd565b602082019050919050565b6000602082019050818103600083015261384281613806565b9050919050565b7f4e487b7100000000000000000000000000000000000000000000000000000000600052601260045260246000fd5b6000613883826120f5565b915061388e836120f5565b92508261389e5761389d613849565b5b828204905092915050565b60006060820190506138be60008301866123f4565b6138cb60208301856124b1565b6138d860408301846124b1565b949350505050565b60006138eb826120f5565b91506138f6836120f5565b92508261390657613905613849565b5b828206905092915050565b61391a81612866565b82525050565b600060808201905061393560008301876123ca565b6139426020830186613911565b61394f60408301856123ca565b61395c60608301846123ca565b95945050505050565b600081519050919050565b60005b8381101561398e578082015181840152602081019050613973565b8381111561399d576000848401525b50505050565b60006139ae82613965565b6139b88185613330565b93506139c8818560208601613970565b80840191505092915050565b60006139e082846139a3565b915081905092915050565b7f416464726573733a2063616c6c20746f206e6f6e2d636f6e7472616374000000600082015250565b6000613a21601d836125c7565b9150613a2c826139eb565b602082019050919050565b60006020820190508181036000830152613a5081613a14565b9050919050565b600081519050919050565b6000613a6d82613a57565b613a7781856125c7565b9350613a87818560208601613970565b613a9081612232565b840191505092915050565b60006020820190508181036000830152613ab58184613a62565b90509291505056fe416464726573733a206c6f772d6c6576656c2064656c65676174652063616c6c206661696c6564a2646970667358221220a087a52272d809d44d81140c6cc9a47cdf9a11596026f10e35c96a0b2b916b1964736f6c63430008080033",
  "devdoc": {
    "kind": "dev",
    "methods": {
      "owner()": {
        "details": "Returns the address of the current owner."
      },
      "proxiableUUID()": {
        "details": "Implementation of the ERC1822 {proxiableUUID} function. This returns the storage slot used by the implementation. It is used to validate the implementation's compatibility when performing an upgrade. IMPORTANT: A proxy pointing at a proxiable contract should not be considered proxiable itself, because this risks bricking a proxy that upgrades to it, by delegating to itself until out of gas. Thus it is critical that this function revert if invoked through a proxy. This is guaranteed by the `notDelegated` modifier."
      },
      "renounceOwnership()": {
        "details": "Leaves the contract without owner. It will not be possible to call `onlyOwner` functions anymore. Can only be called by the current owner. NOTE: Renouncing ownership will leave the contract without an owner, thereby removing any functionality that is only available to the owner."
      },
      "transferOwnership(address)": {
        "details": "Transfers ownership of the contract to a new account (`newOwner`). Can only be called by the current owner."
      },
      "upgradeTo(address)": {
        "details": "Upgrade the implementation of the proxy to `newImplementation`. Calls {_authorizeUpgrade}. Emits an {Upgraded} event."
      },
      "upgradeToAndCall(address,bytes)": {
        "details": "Upgrade the implementation of the proxy to `newImplementation`, and subsequently execute the function call encoded in `data`. Calls {_authorizeUpgrade}. Emits an {Upgraded} event."
      }
    },
    "version": 1
  },
  "userdoc": {
    "kind": "user",
    "methods": {},
    "version": 1
  },
  "storageLayout": {
    "storage": [
      {
        "astId": 2861,
        "contract": "contracts/apps/HappyRedPacket.sol:HappyRedPacketImpl",
        "label": "_owner",
        "offset": 0,
        "slot": "0",
        "type": "t_address"
      },
      {
        "astId": 5471,
        "contract": "contracts/apps/HappyRedPacket.sol:HappyRedPacketImpl",
        "label": "packets_",
        "offset": 0,
        "slot": "1",
        "type": "t_mapping(t_bytes32,t_struct(RedPacket)5466_storage)"
      },
      {
        "astId": 5477,
        "contract": "contracts/apps/HappyRedPacket.sol:HappyRedPacketImpl",
        "label": "count_",
        "offset": 0,
        "slot": "2",
        "type": "t_mapping(t_bytes32,t_mapping(t_address,t_uint256))"
      }
    ],
    "types": {
      "t_address": {
        "encoding": "inplace",
        "label": "address",
        "numberOfBytes": "20"
      },
      "t_bytes32": {
        "encoding": "inplace",
        "label": "bytes32",
        "numberOfBytes": "32"
      },
      "t_mapping(t_address,t_uint256)": {
        "encoding": "mapping",
        "key": "t_address",
        "label": "mapping(address => uint256)",
        "numberOfBytes": "32",
        "value": "t_uint256"
      },
      "t_mapping(t_bytes32,t_mapping(t_address,t_uint256))": {
        "encoding": "mapping",
        "key": "t_bytes32",
        "label": "mapping(bytes32 => mapping(address => uint256))",
        "numberOfBytes": "32",
        "value": "t_mapping(t_address,t_uint256)"
      },
      "t_mapping(t_bytes32,t_struct(RedPacket)5466_storage)": {
        "encoding": "mapping",
        "key": "t_bytes32",
        "label": "mapping(bytes32 => struct HappyRedPacketImpl.RedPacket)",
        "numberOfBytes": "32",
        "value": "t_struct(RedPacket)5466_storage"
      },
      "t_struct(RedPacket)5466_storage": {
        "encoding": "inplace",
        "label": "struct HappyRedPacketImpl.RedPacket",
        "members": [
          {
            "astId": 5459,
            "contract": "contracts/apps/HappyRedPacket.sol:HappyRedPacketImpl",
            "label": "createdAt",
            "offset": 0,
            "slot": "0",
            "type": "t_uint256"
          },
          {
            "astId": 5461,
            "contract": "contracts/apps/HappyRedPacket.sol:HappyRedPacketImpl",
            "label": "balance",
            "offset": 0,
            "slot": "1",
            "type": "t_uint256"
          },
          {
            "astId": 5463,
            "contract": "contracts/apps/HappyRedPacket.sol:HappyRedPacketImpl",
            "label": "split",
            "offset": 0,
            "slot": "2",
            "type": "t_uint32"
          },
          {
            "astId": 5465,
            "contract": "contracts/apps/HappyRedPacket.sol:HappyRedPacketImpl",
            "label": "gasSponsorship",
            "offset": 0,
            "slot": "3",
            "type": "t_uint256"
          }
        ],
        "numberOfBytes": "128"
      },
      "t_uint256": {
        "encoding": "inplace",
        "label": "uint256",
        "numberOfBytes": "32"
      },
      "t_uint32": {
        "encoding": "inplace",
        "label": "uint32",
        "numberOfBytes": "4"
      }
    }
  }
}