{
  "address": "0x1Dbb349c02BAdD665C46A29c066C04360DeB7545",
  "abi": [
    {
      "inputs": [
        {
          "internalType": "address",
          "name": "_beacon",
          "type": "address"
        }
      ],
      "stateMutability": "nonpayable",
      "type": "constructor"
    },
    {
      "stateMutability": "payable",
      "type": "fallback"
    },
    {
      "inputs": [],
      "name": "beacon",
      "outputs": [
        {
          "internalType": "address",
          "name": "",
          "type": "address"
        }
      ],
      "stateMutability": "view",
      "type": "function"
    },
    {
      "stateMutability": "payable",
      "type": "receive"
    }
  ],
  "transactionHash": "0xdbacb38f79e98ee9d4bfc0fb1d0d337f8bab2e1ad48b0e801bf1316c319ac2b8",
  "args": [
    "0x334c801eC1E0E02E2FEC5Bcd3d730C1dFEc7bFAd"
  ],
  "numDeployments": 1,
  "solcInputHash": "3009fd54f18c667f9969476468db3a07",
  "bytecode": "0x60a060405234801561001057600080fd5b50604051610383380380610383833981810160405281019061003291906100d2565b8073ffffffffffffffffffffffffffffffffffffffff1660808173ffffffffffffffffffffffffffffffffffffffff1660601b81525050506100ff565b600080fd5b600073ffffffffffffffffffffffffffffffffffffffff82169050919050565b600061009f82610074565b9050919050565b6100af81610094565b81146100ba57600080fd5b50565b6000815190506100cc816100a6565b92915050565b6000602082840312156100e8576100e761006f565b5b60006100f6848285016100bd565b91505092915050565b60805160601c610261610122600039600081816082015260aa01526102616000f3fe6080604052600436106100225760003560e01c806359659e901461003b57610031565b366100315761002f610066565b005b610039610066565b005b34801561004757600080fd5b50610050610080565b60405161005d91906101b2565b60405180910390f35b61006e6100a4565b61007e6100796100a6565b61014b565b565b7f000000000000000000000000000000000000000000000000000000000000000081565b565b60007f000000000000000000000000000000000000000000000000000000000000000073ffffffffffffffffffffffffffffffffffffffff16635c60da1b6040518163ffffffff1660e01b815260040160206040518083038186803b15801561010e57600080fd5b505afa158015610122573d6000803e3d6000fd5b505050506040513d601f19601f8201168201806040525081019061014691906101fe565b905090565b3660008037600080366000845af43d6000803e806000811461016c573d6000f35b3d6000fd5b600073ffffffffffffffffffffffffffffffffffffffff82169050919050565b600061019c82610171565b9050919050565b6101ac81610191565b82525050565b60006020820190506101c760008301846101a3565b92915050565b600080fd5b6101db81610191565b81146101e657600080fd5b50565b6000815190506101f8816101d2565b92915050565b600060208284031215610214576102136101cd565b5b6000610222848285016101e9565b9150509291505056fea264697066735822122059701d449efe065413cca87cba904c4824eaf1fb7868215b6b00a46d023a8ac664736f6c63430008080033",
  "devdoc": {
    "kind": "dev",
    "methods": {},
    "version": 1
  },
  "userdoc": {
    "kind": "user",
    "methods": {},
    "version": 1
  },
  "storageLayout": {
    "storage": [],
    "types": null
  }
}