{
  "address": "0x09771911373371c841eFe003B75Ba12e8770FCb8",
  "abi": [
    {
      "anonymous": false,
      "inputs": [
        {
          "indexed": true,
          "internalType": "address",
          "name": "owner",
          "type": "address"
        },
        {
          "indexed": true,
          "internalType": "address",
          "name": "approved",
          "type": "address"
        },
        {
          "indexed": true,
          "internalType": "uint256",
          "name": "tokenId",
          "type": "uint256"
        }
      ],
      "name": "Approval",
      "type": "event"
    },
    {
      "anonymous": false,
      "inputs": [
        {
          "indexed": true,
          "internalType": "address",
          "name": "owner",
          "type": "address"
        },
        {
          "indexed": true,
          "internalType": "address",
          "name": "operator",
          "type": "address"
        },
        {
          "indexed": false,
          "internalType": "bool",
          "name": "approved",
          "type": "bool"
        }
      ],
      "name": "ApprovalForAll",
      "type": "event"
    },
    {
      "anonymous": false,
      "inputs": [
        {
          "indexed": true,
          "internalType": "address",
          "name": "receiver",
          "type": "address"
        },
        {
          "indexed": false,
          "internalType": "uint256",
          "name": "payment",
          "type": "uint256"
        }
      ],
      "name": "GasSponsorship",
      "type": "event"
    },
    {
      "anonymous": false,
      "inputs": [
        {
          "indexed": false,
          "internalType": "uint8",
          "name": "version",
          "type": "uint8"
        }
      ],
      "name": "Initialized",
      "type": "event"
    },
    {
      "anonymous": false,
      "inputs": [
        {
          "indexed": true,
          "internalType": "address",
          "name": "previousOwner",
          "type": "address"
        },
        {
          "indexed": true,
          "internalType": "address",
          "name": "newOwner",
          "type": "address"
        }
      ],
      "name": "OwnershipTransferred",
      "type": "event"
    },
    {
      "anonymous": false,
      "inputs": [
        {
          "indexed": true,
          "internalType": "address",
          "name": "from",
          "type": "address"
        },
        {
          "indexed": true,
          "internalType": "address",
          "name": "to",
          "type": "address"
        },
        {
          "indexed": true,
          "internalType": "uint256",
          "name": "tokenId",
          "type": "uint256"
        }
      ],
      "name": "Transfer",
      "type": "event"
    },
    {
      "inputs": [
        {
          "internalType": "address",
          "name": "to",
          "type": "address"
        },
        {
          "internalType": "uint256",
          "name": "tokenId",
          "type": "uint256"
        }
      ],
      "name": "approve",
      "outputs": [],
      "stateMutability": "nonpayable",
      "type": "function"
    },
    {
      "inputs": [
        {
          "internalType": "address",
          "name": "owner",
          "type": "address"
        }
      ],
      "name": "balanceOf",
      "outputs": [
        {
          "internalType": "uint256",
          "name": "",
          "type": "uint256"
        }
      ],
      "stateMutability": "view",
      "type": "function"
    },
    {
      "inputs": [],
      "name": "baseTokenURI",
      "outputs": [
        {
          "internalType": "string",
          "name": "",
          "type": "string"
        }
      ],
      "stateMutability": "view",
      "type": "function"
    },
    {
      "inputs": [],
      "name": "deposit",
      "outputs": [],
      "stateMutability": "payable",
      "type": "function"
    },
    {
      "inputs": [],
      "name": "gasSponsorship",
      "outputs": [
        {
          "internalType": "uint256",
          "name": "",
          "type": "uint256"
        }
      ],
      "stateMutability": "view",
      "type": "function"
    },
    {
      "inputs": [
        {
          "internalType": "uint256",
          "name": "tokenId",
          "type": "uint256"
        }
      ],
      "name": "getApproved",
      "outputs": [
        {
          "internalType": "address",
          "name": "",
          "type": "address"
        }
      ],
      "stateMutability": "view",
      "type": "function"
    },
    {
      "inputs": [
        {
          "internalType": "address",
          "name": "user",
          "type": "address"
        }
      ],
      "name": "getMintedCount",
      "outputs": [
        {
          "internalType": "uint256",
          "name": "",
          "type": "uint256"
        }
      ],
      "stateMutability": "view",
      "type": "function"
    },
    {
      "inputs": [
        {
          "internalType": "string",
          "name": "name_",
          "type": "string"
        },
        {
          "internalType": "string",
          "name": "symbol_",
          "type": "string"
        },
        {
          "internalType": "string",
          "name": "baseTokenURI_",
          "type": "string"
        },
        {
          "internalType": "uint256",
          "name": "maxSupply_",
          "type": "uint256"
        },
        {
          "internalType": "address",
          "name": "validator_",
          "type": "address"
        },
        {
          "internalType": "bool",
          "name": "transferrable_",
          "type": "bool"
        }
      ],
      "name": "init",
      "outputs": [],
      "stateMutability": "nonpayable",
      "type": "function"
    },
    {
      "inputs": [
        {
          "internalType": "address",
          "name": "owner",
          "type": "address"
        },
        {
          "internalType": "address",
          "name": "operator",
          "type": "address"
        }
      ],
      "name": "isApprovedForAll",
      "outputs": [
        {
          "internalType": "bool",
          "name": "",
          "type": "bool"
        }
      ],
      "stateMutability": "view",
      "type": "function"
    },
    {
      "inputs": [],
      "name": "maxSupply",
      "outputs": [
        {
          "internalType": "uint256",
          "name": "",
          "type": "uint256"
        }
      ],
      "stateMutability": "view",
      "type": "function"
    },
    {
      "inputs": [
        {
          "internalType": "address",
          "name": "recipient",
          "type": "address"
        },
        {
          "internalType": "address",
          "name": "refundReceiver",
          "type": "address"
        },
        {
          "internalType": "bytes",
          "name": "signature",
          "type": "bytes"
        }
      ],
      "name": "mint",
      "outputs": [],
      "stateMutability": "nonpayable",
      "type": "function"
    },
    {
      "inputs": [],
      "name": "name",
      "outputs": [
        {
          "internalType": "string",
          "name": "",
          "type": "string"
        }
      ],
      "stateMutability": "view",
      "type": "function"
    },
    {
      "inputs": [],
      "name": "owner",
      "outputs": [
        {
          "internalType": "address",
          "name": "",
          "type": "address"
        }
      ],
      "stateMutability": "view",
      "type": "function"
    },
    {
      "inputs": [
        {
          "internalType": "uint256",
          "name": "tokenId",
          "type": "uint256"
        }
      ],
      "name": "ownerOf",
      "outputs": [
        {
          "internalType": "address",
          "name": "",
          "type": "address"
        }
      ],
      "stateMutability": "view",
      "type": "function"
    },
    {
      "inputs": [],
      "name": "renounceOwnership",
      "outputs": [],
      "stateMutability": "nonpayable",
      "type": "function"
    },
    {
      "inputs": [
        {
          "internalType": "address",
          "name": "from",
          "type": "address"
        },
        {
          "internalType": "address",
          "name": "to",
          "type": "address"
        },
        {
          "internalType": "uint256",
          "name": "tokenId",
          "type": "uint256"
        }
      ],
      "name": "safeTransferFrom",
      "outputs": [],
      "stateMutability": "nonpayable",
      "type": "function"
    },
    {
      "inputs": [
        {
          "internalType": "address",
          "name": "from",
          "type": "address"
        },
        {
          "internalType": "address",
          "name": "to",
          "type": "address"
        },
        {
          "internalType": "uint256",
          "name": "tokenId",
          "type": "uint256"
        },
        {
          "internalType": "bytes",
          "name": "data",
          "type": "bytes"
        }
      ],
      "name": "safeTransferFrom",
      "outputs": [],
      "stateMutability": "nonpayable",
      "type": "function"
    },
    {
      "inputs": [
        {
          "internalType": "address",
          "name": "operator",
          "type": "address"
        },
        {
          "internalType": "bool",
          "name": "approved",
          "type": "bool"
        }
      ],
      "name": "setApprovalForAll",
      "outputs": [],
      "stateMutability": "nonpayable",
      "type": "function"
    },
    {
      "inputs": [
        {
          "internalType": "address",
          "name": "_validator",
          "type": "address"
        }
      ],
      "name": "setValidator",
      "outputs": [],
      "stateMutability": "nonpayable",
      "type": "function"
    },
    {
      "inputs": [
        {
          "internalType": "bytes4",
          "name": "interfaceId",
          "type": "bytes4"
        }
      ],
      "name": "supportsInterface",
      "outputs": [
        {
          "internalType": "bool",
          "name": "",
          "type": "bool"
        }
      ],
      "stateMutability": "view",
      "type": "function"
    },
    {
      "inputs": [],
      "name": "symbol",
      "outputs": [
        {
          "internalType": "string",
          "name": "",
          "type": "string"
        }
      ],
      "stateMutability": "view",
      "type": "function"
    },
    {
      "inputs": [],
      "name": "tokenId",
      "outputs": [
        {
          "internalType": "uint256",
          "name": "",
          "type": "uint256"
        }
      ],
      "stateMutability": "view",
      "type": "function"
    },
    {
      "inputs": [
        {
          "internalType": "uint256",
          "name": "",
          "type": "uint256"
        }
      ],
      "name": "tokenURI",
      "outputs": [
        {
          "internalType": "string",
          "name": "",
          "type": "string"
        }
      ],
      "stateMutability": "view",
      "type": "function"
    },
    {
      "inputs": [
        {
          "internalType": "address",
          "name": "from",
          "type": "address"
        },
        {
          "internalType": "address",
          "name": "to",
          "type": "address"
        },
        {
          "internalType": "uint256",
          "name": "tokenId",
          "type": "uint256"
        }
      ],
      "name": "transferFrom",
      "outputs": [],
      "stateMutability": "nonpayable",
      "type": "function"
    },
    {
      "inputs": [
        {
          "internalType": "address",
          "name": "newOwner",
          "type": "address"
        }
      ],
      "name": "transferOwnership",
      "outputs": [],
      "stateMutability": "nonpayable",
      "type": "function"
    },
    {
      "inputs": [],
      "name": "transferrable",
      "outputs": [
        {
          "internalType": "bool",
          "name": "",
          "type": "bool"
        }
      ],
      "stateMutability": "view",
      "type": "function"
    },
    {
      "inputs": [],
      "name": "validator",
      "outputs": [
        {
          "internalType": "address",
          "name": "",
          "type": "address"
        }
      ],
      "stateMutability": "view",
      "type": "function"
    },
    {
      "inputs": [
        {
          "internalType": "uint256",
          "name": "amount",
          "type": "uint256"
        }
      ],
      "name": "withdraw",
      "outputs": [],
      "stateMutability": "nonpayable",
      "type": "function"
    }
  ],
  "transactionHash": "0xf8de2dd6924febc9cb250dc4be07955a5c78152078ad91c3b11e9685b33c278c",
  "args": [],
  "numDeployments": 3,
  "solcInputHash": "890977a631316eec0f4f6f2e651f8e86",
  "bytecode": "0x6080604052600060cc5534801561001557600080fd5b506143b9806100256000396000f3fe6080604052600436106101b75760003560e01c806370a08231116100ec578063c87b56dd1161008a578063d5abeb0111610064578063d5abeb01146105eb578063e985e9c514610616578063f1ddecf914610653578063f2fde38b1461067c576101b7565b8063c87b56dd14610579578063d0e30db0146105b6578063d547cfb7146105c0576101b7565b806395d89b41116100c657806395d89b41146104bf57806397d6696b146104ea578063a22cb46514610527578063b88d4fde14610550576101b7565b806370a0823114610440578063715018a61461047d5780638da5cb5b14610494576101b7565b806322aa0eb1116101595780632e1a7d4d116101335780632e1a7d4d146103865780633a5381b5146103af57806342842e0e146103da5780636352211e14610403576101b7565b806322aa0eb11461030957806323b872dd14610334578063248ec42e1461035d576101b7565b8063081812fc11610195578063081812fc1461024f578063095ea7b31461028c5780631327d3d8146102b557806317d70f7c146102de576101b7565b806301ffc9a7146101bc578063047a7ef1146101f957806306fdde0314610224575b600080fd5b3480156101c857600080fd5b506101e360048036038101906101de9190612af2565b6106a5565b6040516101f09190612b3a565b60405180910390f35b34801561020557600080fd5b5061020e610787565b60405161021b9190612b3a565b60405180910390f35b34801561023057600080fd5b5061023961079a565b6040516102469190612bee565b60405180910390f35b34801561025b57600080fd5b5061027660048036038101906102719190612c46565b61082c565b6040516102839190612cb4565b60405180910390f35b34801561029857600080fd5b506102b360048036038101906102ae9190612cfb565b610872565b005b3480156102c157600080fd5b506102dc60048036038101906102d79190612d3b565b61098a565b005b3480156102ea57600080fd5b506102f36109d6565b6040516103009190612d77565b60405180910390f35b34801561031557600080fd5b5061031e6109dc565b60405161032b9190612d77565b60405180910390f35b34801561034057600080fd5b5061035b60048036038101906103569190612d92565b6109e2565b005b34801561036957600080fd5b50610384600480360381019061037f9190612f46565b610a42565b005b34801561039257600080fd5b506103ad60048036038101906103a89190612c46565b610c09565b005b3480156103bb57600080fd5b506103c4610c7c565b6040516103d19190612cb4565b60405180910390f35b3480156103e657600080fd5b5061040160048036038101906103fc9190612d92565b610ca2565b005b34801561040f57600080fd5b5061042a60048036038101906104259190612c46565b610cc2565b6040516104379190612cb4565b60405180910390f35b34801561044c57600080fd5b5061046760048036038101906104629190612d3b565b610d49565b6040516104749190612d77565b60405180910390f35b34801561048957600080fd5b50610492610e01565b005b3480156104a057600080fd5b506104a9610e15565b6040516104b69190612cb4565b60405180910390f35b3480156104cb57600080fd5b506104d4610e3f565b6040516104e19190612bee565b60405180910390f35b3480156104f657600080fd5b50610511600480360381019061050c9190612d3b565b610ed1565b60405161051e9190612d77565b60405180910390f35b34801561053357600080fd5b5061054e60048036038101906105499190613027565b610f1a565b005b34801561055c57600080fd5b5061057760048036038101906105729190613108565b610f30565b005b34801561058557600080fd5b506105a0600480360381019061059b9190612c46565b610f92565b6040516105ad9190612bee565b60405180910390f35b6105be611026565b005b3480156105cc57600080fd5b506105d5611041565b6040516105e29190612bee565b60405180910390f35b3480156105f757600080fd5b506106006110cf565b60405161060d9190612d77565b60405180910390f35b34801561062257600080fd5b5061063d6004803603810190610638919061318b565b6110d5565b60405161064a9190612b3a565b60405180910390f35b34801561065f57600080fd5b5061067a600480360381019061067591906131cb565b611169565b005b34801561068857600080fd5b506106a3600480360381019061069e9190612d3b565b611285565b005b60007f80ac58cd000000000000000000000000000000000000000000000000000000007bffffffffffffffffffffffffffffffffffffffffffffffffffffffff1916827bffffffffffffffffffffffffffffffffffffffffffffffffffffffff1916148061077057507f5b5e139f000000000000000000000000000000000000000000000000000000007bffffffffffffffffffffffffffffffffffffffffffffffffffffffff1916827bffffffffffffffffffffffffffffffffffffffffffffffffffffffff1916145b80610780575061077f82611309565b5b9050919050565b60cd60149054906101000a900460ff1681565b6060609780546107a990613269565b80601f01602080910402602001604051908101604052809291908181526020018280546107d590613269565b80156108225780601f106107f757610100808354040283529160200191610822565b820191906000526020600020905b81548152906001019060200180831161080557829003601f168201915b5050505050905090565b600061083782611373565b609b600083815260200190815260200160002060009054906101000a900473ffffffffffffffffffffffffffffffffffffffff169050919050565b600061087d82610cc2565b90508073ffffffffffffffffffffffffffffffffffffffff168373ffffffffffffffffffffffffffffffffffffffff1614156108ee576040517f08c379a00000000000000000000000000000000000000000000000000000000081526004016108e59061330d565b60405180910390fd5b8073ffffffffffffffffffffffffffffffffffffffff1661090d6113be565b73ffffffffffffffffffffffffffffffffffffffff16148061093c575061093b816109366113be565b6110d5565b5b61097b576040517f08c379a00000000000000000000000000000000000000000000000000000000081526004016109729061339f565b60405180910390fd5b61098583836113c6565b505050565b61099261147f565b8060cd60006101000a81548173ffffffffffffffffffffffffffffffffffffffff021916908373ffffffffffffffffffffffffffffffffffffffff16021790555050565b60cc5481565b60ce5481565b6109f36109ed6113be565b826114fd565b610a32576040517f08c379a0000000000000000000000000000000000000000000000000000000008152600401610a2990613431565b60405180910390fd5b610a3d838383611592565b505050565b60008060019054906101000a900460ff16159050808015610a735750600160008054906101000a900460ff1660ff16105b80610aa05750610a823061188c565b158015610a9f5750600160008054906101000a900460ff1660ff16145b5b610adf576040517f08c379a0000000000000000000000000000000000000000000000000000000008152600401610ad6906134c3565b60405180910390fd5b60016000806101000a81548160ff021916908360ff1602179055508015610b1c576001600060016101000a81548160ff0219169083151502179055505b610b2687876118af565b610b2e61190c565b8360cb819055508260cd60006101000a81548173ffffffffffffffffffffffffffffffffffffffff021916908373ffffffffffffffffffffffffffffffffffffffff1602179055508460ca9080519060200190610b8c9291906129e3565b508160cd60146101000a81548160ff0219169083151502179055508015610c005760008060016101000a81548160ff0219169083151502179055507f7f26b83ff96e1f2b6a682f133852f6798a09c465da95921460cefb38474024986001604051610bf79190613535565b60405180910390a15b50505050505050565b610c1161147f565b8060ce541015610c56576040517f08c379a0000000000000000000000000000000000000000000000000000000008152600401610c4d9061359c565b60405180910390fd5b8060ce6000828254610c6891906135eb565b92505081905550610c793382611965565b50565b60cd60009054906101000a900473ffffffffffffffffffffffffffffffffffffffff1681565b610cbd83838360405180602001604052806000815250610f30565b505050565b600080610cce83611a59565b9050600073ffffffffffffffffffffffffffffffffffffffff168173ffffffffffffffffffffffffffffffffffffffff161415610d40576040517f08c379a0000000000000000000000000000000000000000000000000000000008152600401610d379061366b565b60405180910390fd5b80915050919050565b60008073ffffffffffffffffffffffffffffffffffffffff168273ffffffffffffffffffffffffffffffffffffffff161415610dba576040517f08c379a0000000000000000000000000000000000000000000000000000000008152600401610db1906136fd565b60405180910390fd5b609a60008373ffffffffffffffffffffffffffffffffffffffff1673ffffffffffffffffffffffffffffffffffffffff168152602001908152602001600020549050919050565b610e0961147f565b610e136000611a96565b565b6000603360009054906101000a900473ffffffffffffffffffffffffffffffffffffffff16905090565b606060988054610e4e90613269565b80601f0160208091040260200160405190810160405280929190818152602001828054610e7a90613269565b8015610ec75780601f10610e9c57610100808354040283529160200191610ec7565b820191906000526020600020905b815481529060010190602001808311610eaa57829003601f168201915b5050505050905090565b600060c960008373ffffffffffffffffffffffffffffffffffffffff1673ffffffffffffffffffffffffffffffffffffffff168152602001908152602001600020549050919050565b610f2c610f256113be565b8383611b5c565b5050565b610f41610f3b6113be565b836114fd565b610f80576040517f08c379a0000000000000000000000000000000000000000000000000000000008152600401610f7790613431565b60405180910390fd5b610f8c84848484611cc9565b50505050565b606060ca8054610fa190613269565b80601f0160208091040260200160405190810160405280929190818152602001828054610fcd90613269565b801561101a5780601f10610fef5761010080835404028352916020019161101a565b820191906000526020600020905b815481529060010190602001808311610ffd57829003601f168201915b50505050509050919050565b3460ce6000828254611038919061371d565b92505081905550565b60ca805461104e90613269565b80601f016020809104026020016040519081016040528092919081815260200182805461107a90613269565b80156110c75780601f1061109c576101008083540402835291602001916110c7565b820191906000526020600020905b8154815290600101906020018083116110aa57829003601f168201915b505050505081565b60cb5481565b6000609c60008473ffffffffffffffffffffffffffffffffffffffff1673ffffffffffffffffffffffffffffffffffffffff16815260200190815260200160002060008373ffffffffffffffffffffffffffffffffffffffff1673ffffffffffffffffffffffffffffffffffffffff16815260200190815260200160002060009054906101000a900460ff16905092915050565b60005a9050600160cc6000828254611181919061371d565b9250508190555060cb5460cc5411156111cf576040517f08c379a00000000000000000000000000000000000000000000000000000000081526004016111c6906137bf565b60405180910390fd5b6111da848484611d25565b6111e2611e0c565b6111ee8460cc54611ee7565b600060ce5411801561122d5750600073ffffffffffffffffffffffffffffffffffffffff168373ffffffffffffffffffffffffffffffffffffffff1614155b1561127f5760003a61d6d85a8461124491906135eb565b61124e919061371d565b61125891906137df565b90508060ce600082825461126c91906135eb565b9250508190555061127d8185611f05565b505b50505050565b61128d61147f565b600073ffffffffffffffffffffffffffffffffffffffff168173ffffffffffffffffffffffffffffffffffffffff1614156112fd576040517f08c379a00000000000000000000000000000000000000000000000000000000081526004016112f4906138ab565b60405180910390fd5b61130681611a96565b50565b60007f01ffc9a7000000000000000000000000000000000000000000000000000000007bffffffffffffffffffffffffffffffffffffffffffffffffffffffff1916827bffffffffffffffffffffffffffffffffffffffffffffffffffffffff1916149050919050565b61137c81612004565b6113bb576040517f08c379a00000000000000000000000000000000000000000000000000000000081526004016113b29061366b565b60405180910390fd5b50565b600033905090565b81609b600083815260200190815260200160002060006101000a81548173ffffffffffffffffffffffffffffffffffffffff021916908373ffffffffffffffffffffffffffffffffffffffff160217905550808273ffffffffffffffffffffffffffffffffffffffff1661143983610cc2565b73ffffffffffffffffffffffffffffffffffffffff167f8c5be1e5ebec7d5bd14f71427d1e84f3dd0314c0f7b2291e5b200ac8c7c3b92560405160405180910390a45050565b6114876113be565b73ffffffffffffffffffffffffffffffffffffffff166114a5610e15565b73ffffffffffffffffffffffffffffffffffffffff16146114fb576040517f08c379a00000000000000000000000000000000000000000000000000000000081526004016114f290613917565b60405180910390fd5b565b60008061150983610cc2565b90508073ffffffffffffffffffffffffffffffffffffffff168473ffffffffffffffffffffffffffffffffffffffff16148061154b575061154a81856110d5565b5b8061158957508373ffffffffffffffffffffffffffffffffffffffff166115718461082c565b73ffffffffffffffffffffffffffffffffffffffff16145b91505092915050565b8273ffffffffffffffffffffffffffffffffffffffff166115b282610cc2565b73ffffffffffffffffffffffffffffffffffffffff1614611608576040517f08c379a00000000000000000000000000000000000000000000000000000000081526004016115ff906139a9565b60405180910390fd5b600073ffffffffffffffffffffffffffffffffffffffff168273ffffffffffffffffffffffffffffffffffffffff161415611678576040517f08c379a000000000000000000000000000000000000000000000000000000000815260040161166f90613a3b565b60405180910390fd5b6116858383836001612045565b8273ffffffffffffffffffffffffffffffffffffffff166116a582610cc2565b73ffffffffffffffffffffffffffffffffffffffff16146116fb576040517f08c379a00000000000000000000000000000000000000000000000000000000081526004016116f2906139a9565b60405180910390fd5b609b600082815260200190815260200160002060006101000a81549073ffffffffffffffffffffffffffffffffffffffff02191690556001609a60008573ffffffffffffffffffffffffffffffffffffffff1673ffffffffffffffffffffffffffffffffffffffff168152602001908152602001600020600082825403925050819055506001609a60008473ffffffffffffffffffffffffffffffffffffffff1673ffffffffffffffffffffffffffffffffffffffff16815260200190815260200160002060008282540192505081905550816099600083815260200190815260200160002060006101000a81548173ffffffffffffffffffffffffffffffffffffffff021916908373ffffffffffffffffffffffffffffffffffffffff160217905550808273ffffffffffffffffffffffffffffffffffffffff168473ffffffffffffffffffffffffffffffffffffffff167fddf252ad1be2c89b69c2b068fc378daa952ba7f163c4a11628f55a4df523b3ef60405160405180910390a4611887838383600161216b565b505050565b6000808273ffffffffffffffffffffffffffffffffffffffff163b119050919050565b600060019054906101000a900460ff166118fe576040517f08c379a00000000000000000000000000000000000000000000000000000000081526004016118f590613acd565b60405180910390fd5b61190882826121f7565b5050565b600060019054906101000a900460ff1661195b576040517f08c379a000000000000000000000000000000000000000000000000000000000815260040161195290613acd565b60405180910390fd5b611963612278565b565b804710156119a8576040517f08c379a000000000000000000000000000000000000000000000000000000000815260040161199f90613b39565b60405180910390fd5b60008273ffffffffffffffffffffffffffffffffffffffff16826040516119ce90613b8a565b60006040518083038185875af1925050503d8060008114611a0b576040519150601f19603f3d011682016040523d82523d6000602084013e611a10565b606091505b5050905080611a54576040517f08c379a0000000000000000000000000000000000000000000000000000000008152600401611a4b90613c11565b60405180910390fd5b505050565b60006099600083815260200190815260200160002060009054906101000a900473ffffffffffffffffffffffffffffffffffffffff169050919050565b6000603360009054906101000a900473ffffffffffffffffffffffffffffffffffffffff16905081603360006101000a81548173ffffffffffffffffffffffffffffffffffffffff021916908373ffffffffffffffffffffffffffffffffffffffff1602179055508173ffffffffffffffffffffffffffffffffffffffff168173ffffffffffffffffffffffffffffffffffffffff167f8be0079c531659141344cd1fd0a4f28419497f9722a3daafe3b4186f6b6457e060405160405180910390a35050565b8173ffffffffffffffffffffffffffffffffffffffff168373ffffffffffffffffffffffffffffffffffffffff161415611bcb576040517f08c379a0000000000000000000000000000000000000000000000000000000008152600401611bc290613c7d565b60405180910390fd5b80609c60008573ffffffffffffffffffffffffffffffffffffffff1673ffffffffffffffffffffffffffffffffffffffff16815260200190815260200160002060008473ffffffffffffffffffffffffffffffffffffffff1673ffffffffffffffffffffffffffffffffffffffff16815260200190815260200160002060006101000a81548160ff0219169083151502179055508173ffffffffffffffffffffffffffffffffffffffff168373ffffffffffffffffffffffffffffffffffffffff167f17307eab39ab6107e8899845ad3d59bd9653f200f220920489ca2b5937696c3183604051611cbc9190612b3a565b60405180910390a3505050565b611cd4848484611592565b611ce0848484846122d9565b611d1f576040517f08c379a0000000000000000000000000000000000000000000000000000000008152600401611d1690613d0f565b60405180910390fd5b50505050565b600046308585604051602001611d3e9493929190613d2f565b6040516020818303038152906040528051906020012090506000611d6182612470565b9050611d7683826124a090919063ffffffff16565b73ffffffffffffffffffffffffffffffffffffffff1660cd60009054906101000a900473ffffffffffffffffffffffffffffffffffffffff1673ffffffffffffffffffffffffffffffffffffffff1614611e05576040517f08c379a0000000000000000000000000000000000000000000000000000000008152600401611dfc90613dc0565b60405180910390fd5b5050505050565b600060c960003373ffffffffffffffffffffffffffffffffffffffff1673ffffffffffffffffffffffffffffffffffffffff1681526020019081526020016000205414611e8e576040517f08c379a0000000000000000000000000000000000000000000000000000000008152600401611e8590613e2c565b60405180910390fd5b600160c960003373ffffffffffffffffffffffffffffffffffffffff1673ffffffffffffffffffffffffffffffffffffffff1681526020019081526020016000206000828254611ede919061371d565b92505081905550565b611f018282604051806020016040528060008152506124c7565b5050565b60008173ffffffffffffffffffffffffffffffffffffffff1683604051611f2b90613b8a565b60006040518083038185875af1925050503d8060008114611f68576040519150601f19603f3d011682016040523d82523d6000602084013e611f6d565b606091505b5050905080611fb1576040517f08c379a0000000000000000000000000000000000000000000000000000000008152600401611fa890613e98565b60405180910390fd5b8173ffffffffffffffffffffffffffffffffffffffff167f3728afc7eaa9ba3128dbfdbf1b575e543cd11ed43eecdb8b2b25da1b8178569384604051611ff79190612d77565b60405180910390a2505050565b60008073ffffffffffffffffffffffffffffffffffffffff1661202683611a59565b73ffffffffffffffffffffffffffffffffffffffff1614159050919050565b600181111561216557600073ffffffffffffffffffffffffffffffffffffffff168473ffffffffffffffffffffffffffffffffffffffff16146120d95780609a60008673ffffffffffffffffffffffffffffffffffffffff1673ffffffffffffffffffffffffffffffffffffffff16815260200190815260200160002060008282546120d191906135eb565b925050819055505b600073ffffffffffffffffffffffffffffffffffffffff168373ffffffffffffffffffffffffffffffffffffffff16146121645780609a60008573ffffffffffffffffffffffffffffffffffffffff1673ffffffffffffffffffffffffffffffffffffffff168152602001908152602001600020600082825461215c919061371d565b925050819055505b5b50505050565b600073ffffffffffffffffffffffffffffffffffffffff168473ffffffffffffffffffffffffffffffffffffffff1614806121b2575060cd60149054906101000a900460ff165b6121f1576040517f08c379a00000000000000000000000000000000000000000000000000000000081526004016121e890613f04565b60405180910390fd5b50505050565b600060019054906101000a900460ff16612246576040517f08c379a000000000000000000000000000000000000000000000000000000000815260040161223d90613acd565b60405180910390fd5b816097908051906020019061225c9291906129e3565b5080609890805190602001906122739291906129e3565b505050565b600060019054906101000a900460ff166122c7576040517f08c379a00000000000000000000000000000000000000000000000000000000081526004016122be90613acd565b60405180910390fd5b6122d76122d26113be565b611a96565b565b60006122fa8473ffffffffffffffffffffffffffffffffffffffff1661188c565b15612463578373ffffffffffffffffffffffffffffffffffffffff1663150b7a026123236113be565b8786866040518563ffffffff1660e01b81526004016123459493929190613f79565b602060405180830381600087803b15801561235f57600080fd5b505af192505050801561239057506040513d601f19601f8201168201806040525081019061238d9190613fda565b60015b612413573d80600081146123c0576040519150601f19603f3d011682016040523d82523d6000602084013e6123c5565b606091505b5060008151141561240b576040517f08c379a000000000000000000000000000000000000000000000000000000000815260040161240290613d0f565b60405180910390fd5b805181602001fd5b63150b7a0260e01b7bffffffffffffffffffffffffffffffffffffffffffffffffffffffff1916817bffffffffffffffffffffffffffffffffffffffffffffffffffffffff191614915050612468565b600190505b949350505050565b6000816040516020016124839190614089565b604051602081830303815290604052805190602001209050919050565b60008060006124af8585612522565b915091506124bc81612574565b819250505092915050565b6124d183836126e2565b6124de60008484846122d9565b61251d576040517f08c379a000000000000000000000000000000000000000000000000000000000815260040161251490613d0f565b60405180910390fd5b505050565b6000806041835114156125645760008060006020860151925060408601519150606086015160001a905061255887828585612900565b9450945050505061256d565b60006002915091505b9250929050565b60006004811115612588576125876140af565b5b81600481111561259b5761259a6140af565b5b14156125a6576126df565b600160048111156125ba576125b96140af565b5b8160048111156125cd576125cc6140af565b5b141561260e576040517f08c379a00000000000000000000000000000000000000000000000000000000081526004016126059061412a565b60405180910390fd5b60026004811115612622576126216140af565b5b816004811115612635576126346140af565b5b1415612676576040517f08c379a000000000000000000000000000000000000000000000000000000000815260040161266d90614196565b60405180910390fd5b6003600481111561268a576126896140af565b5b81600481111561269d5761269c6140af565b5b14156126de576040517f08c379a00000000000000000000000000000000000000000000000000000000081526004016126d590614228565b60405180910390fd5b5b50565b600073ffffffffffffffffffffffffffffffffffffffff168273ffffffffffffffffffffffffffffffffffffffff161415612752576040517f08c379a000000000000000000000000000000000000000000000000000000000815260040161274990614294565b60405180910390fd5b61275b81612004565b1561279b576040517f08c379a000000000000000000000000000000000000000000000000000000000815260040161279290614300565b60405180910390fd5b6127a9600083836001612045565b6127b281612004565b156127f2576040517f08c379a00000000000000000000000000000000000000000000000000000000081526004016127e990614300565b60405180910390fd5b6001609a60008473ffffffffffffffffffffffffffffffffffffffff1673ffffffffffffffffffffffffffffffffffffffff16815260200190815260200160002060008282540192505081905550816099600083815260200190815260200160002060006101000a81548173ffffffffffffffffffffffffffffffffffffffff021916908373ffffffffffffffffffffffffffffffffffffffff160217905550808273ffffffffffffffffffffffffffffffffffffffff16600073ffffffffffffffffffffffffffffffffffffffff167fddf252ad1be2c89b69c2b068fc378daa952ba7f163c4a11628f55a4df523b3ef60405160405180910390a46128fc60008383600161216b565b5050565b6000807f7fffffffffffffffffffffffffffffff5d576e7357a4501ddfe92f46681b20a08360001c111561293b5760006003915091506129da565b600060018787878760405160008152602001604052604051612960949392919061433e565b6020604051602081039080840390855afa158015612982573d6000803e3d6000fd5b505050602060405103519050600073ffffffffffffffffffffffffffffffffffffffff168173ffffffffffffffffffffffffffffffffffffffff1614156129d1576000600192509250506129da565b80600092509250505b94509492505050565b8280546129ef90613269565b90600052602060002090601f016020900481019282612a115760008555612a58565b82601f10612a2a57805160ff1916838001178555612a58565b82800160010185558215612a58579182015b82811115612a57578251825591602001919060010190612a3c565b5b509050612a659190612a69565b5090565b5b80821115612a82576000816000905550600101612a6a565b5090565b6000604051905090565b600080fd5b600080fd5b60007fffffffff0000000000000000000000000000000000000000000000000000000082169050919050565b612acf81612a9a565b8114612ada57600080fd5b50565b600081359050612aec81612ac6565b92915050565b600060208284031215612b0857612b07612a90565b5b6000612b1684828501612add565b91505092915050565b60008115159050919050565b612b3481612b1f565b82525050565b6000602082019050612b4f6000830184612b2b565b92915050565b600081519050919050565b600082825260208201905092915050565b60005b83811015612b8f578082015181840152602081019050612b74565b83811115612b9e576000848401525b50505050565b6000601f19601f8301169050919050565b6000612bc082612b55565b612bca8185612b60565b9350612bda818560208601612b71565b612be381612ba4565b840191505092915050565b60006020820190508181036000830152612c088184612bb5565b905092915050565b6000819050919050565b612c2381612c10565b8114612c2e57600080fd5b50565b600081359050612c4081612c1a565b92915050565b600060208284031215612c5c57612c5b612a90565b5b6000612c6a84828501612c31565b91505092915050565b600073ffffffffffffffffffffffffffffffffffffffff82169050919050565b6000612c9e82612c73565b9050919050565b612cae81612c93565b82525050565b6000602082019050612cc96000830184612ca5565b92915050565b612cd881612c93565b8114612ce357600080fd5b50565b600081359050612cf581612ccf565b92915050565b60008060408385031215612d1257612d11612a90565b5b6000612d2085828601612ce6565b9250506020612d3185828601612c31565b9150509250929050565b600060208284031215612d5157612d50612a90565b5b6000612d5f84828501612ce6565b91505092915050565b612d7181612c10565b82525050565b6000602082019050612d8c6000830184612d68565b92915050565b600080600060608486031215612dab57612daa612a90565b5b6000612db986828701612ce6565b9350506020612dca86828701612ce6565b9250506040612ddb86828701612c31565b9150509250925092565b600080fd5b600080fd5b7f4e487b7100000000000000000000000000000000000000000000000000000000600052604160045260246000fd5b612e2782612ba4565b810181811067ffffffffffffffff82111715612e4657612e45612def565b5b80604052505050565b6000612e59612a86565b9050612e658282612e1e565b919050565b600067ffffffffffffffff821115612e8557612e84612def565b5b612e8e82612ba4565b9050602081019050919050565b82818337600083830152505050565b6000612ebd612eb884612e6a565b612e4f565b905082815260208101848484011115612ed957612ed8612dea565b5b612ee4848285612e9b565b509392505050565b600082601f830112612f0157612f00612de5565b5b8135612f11848260208601612eaa565b91505092915050565b612f2381612b1f565b8114612f2e57600080fd5b50565b600081359050612f4081612f1a565b92915050565b60008060008060008060c08789031215612f6357612f62612a90565b5b600087013567ffffffffffffffff811115612f8157612f80612a95565b5b612f8d89828a01612eec565b965050602087013567ffffffffffffffff811115612fae57612fad612a95565b5b612fba89828a01612eec565b955050604087013567ffffffffffffffff811115612fdb57612fda612a95565b5b612fe789828a01612eec565b9450506060612ff889828a01612c31565b935050608061300989828a01612ce6565b92505060a061301a89828a01612f31565b9150509295509295509295565b6000806040838503121561303e5761303d612a90565b5b600061304c85828601612ce6565b925050602061305d85828601612f31565b9150509250929050565b600067ffffffffffffffff82111561308257613081612def565b5b61308b82612ba4565b9050602081019050919050565b60006130ab6130a684613067565b612e4f565b9050828152602081018484840111156130c7576130c6612dea565b5b6130d2848285612e9b565b509392505050565b600082601f8301126130ef576130ee612de5565b5b81356130ff848260208601613098565b91505092915050565b6000806000806080858703121561312257613121612a90565b5b600061313087828801612ce6565b945050602061314187828801612ce6565b935050604061315287828801612c31565b925050606085013567ffffffffffffffff81111561317357613172612a95565b5b61317f878288016130da565b91505092959194509250565b600080604083850312156131a2576131a1612a90565b5b60006131b085828601612ce6565b92505060206131c185828601612ce6565b9150509250929050565b6000806000606084860312156131e4576131e3612a90565b5b60006131f286828701612ce6565b935050602061320386828701612ce6565b925050604084013567ffffffffffffffff81111561322457613223612a95565b5b613230868287016130da565b9150509250925092565b7f4e487b7100000000000000000000000000000000000000000000000000000000600052602260045260246000fd5b6000600282049050600182168061328157607f821691505b602082108114156132955761329461323a565b5b50919050565b7f4552433732313a20617070726f76616c20746f2063757272656e74206f776e6560008201527f7200000000000000000000000000000000000000000000000000000000000000602082015250565b60006132f7602183612b60565b91506133028261329b565b604082019050919050565b60006020820190508181036000830152613326816132ea565b9050919050565b7f4552433732313a20617070726f76652063616c6c6572206973206e6f7420746f60008201527f6b656e206f776e6572206f7220617070726f76656420666f7220616c6c000000602082015250565b6000613389603d83612b60565b91506133948261332d565b604082019050919050565b600060208201905081810360008301526133b88161337c565b9050919050565b7f4552433732313a2063616c6c6572206973206e6f7420746f6b656e206f776e6560008201527f72206f7220617070726f76656400000000000000000000000000000000000000602082015250565b600061341b602d83612b60565b9150613426826133bf565b604082019050919050565b6000602082019050818103600083015261344a8161340e565b9050919050565b7f496e697469616c697a61626c653a20636f6e747261637420697320616c72656160008201527f647920696e697469616c697a6564000000000000000000000000000000000000602082015250565b60006134ad602e83612b60565b91506134b882613451565b604082019050919050565b600060208201905081810360008301526134dc816134a0565b9050919050565b6000819050919050565b600060ff82169050919050565b6000819050919050565b600061351f61351a613515846134e3565b6134fa565b6134ed565b9050919050565b61352f81613504565b82525050565b600060208201905061354a6000830184613526565b92915050565b7f696e73756666696369656e742062616c616e6365000000000000000000000000600082015250565b6000613586601483612b60565b915061359182613550565b602082019050919050565b600060208201905081810360008301526135b581613579565b9050919050565b7f4e487b7100000000000000000000000000000000000000000000000000000000600052601160045260246000fd5b60006135f682612c10565b915061360183612c10565b925082821015613614576136136135bc565b5b828203905092915050565b7f4552433732313a20696e76616c696420746f6b656e2049440000000000000000600082015250565b6000613655601883612b60565b91506136608261361f565b602082019050919050565b6000602082019050818103600083015261368481613648565b9050919050565b7f4552433732313a2061646472657373207a65726f206973206e6f74206120766160008201527f6c6964206f776e65720000000000000000000000000000000000000000000000602082015250565b60006136e7602983612b60565b91506136f28261368b565b604082019050919050565b60006020820190508181036000830152613716816136da565b9050919050565b600061372882612c10565b915061373383612c10565b9250827fffffffffffffffffffffffffffffffffffffffffffffffffffffffffffffffff03821115613768576137676135bc565b5b828201905092915050565b7f457863656564696e67206d617820737570706c79000000000000000000000000600082015250565b60006137a9601483612b60565b91506137b482613773565b602082019050919050565b600060208201905081810360008301526137d88161379c565b9050919050565b60006137ea82612c10565b91506137f583612c10565b9250817fffffffffffffffffffffffffffffffffffffffffffffffffffffffffffffffff048311821515161561382e5761382d6135bc565b5b828202905092915050565b7f4f776e61626c653a206e6577206f776e657220697320746865207a65726f206160008201527f6464726573730000000000000000000000000000000000000000000000000000602082015250565b6000613895602683612b60565b91506138a082613839565b604082019050919050565b600060208201905081810360008301526138c481613888565b9050919050565b7f4f776e61626c653a2063616c6c6572206973206e6f7420746865206f776e6572600082015250565b6000613901602083612b60565b915061390c826138cb565b602082019050919050565b60006020820190508181036000830152613930816138f4565b9050919050565b7f4552433732313a207472616e736665722066726f6d20696e636f72726563742060008201527f6f776e6572000000000000000000000000000000000000000000000000000000602082015250565b6000613993602583612b60565b915061399e82613937565b604082019050919050565b600060208201905081810360008301526139c281613986565b9050919050565b7f4552433732313a207472616e7366657220746f20746865207a65726f2061646460008201527f7265737300000000000000000000000000000000000000000000000000000000602082015250565b6000613a25602483612b60565b9150613a30826139c9565b604082019050919050565b60006020820190508181036000830152613a5481613a18565b9050919050565b7f496e697469616c697a61626c653a20636f6e7472616374206973206e6f74206960008201527f6e697469616c697a696e67000000000000000000000000000000000000000000602082015250565b6000613ab7602b83612b60565b9150613ac282613a5b565b604082019050919050565b60006020820190508181036000830152613ae681613aaa565b9050919050565b7f416464726573733a20696e73756666696369656e742062616c616e6365000000600082015250565b6000613b23601d83612b60565b9150613b2e82613aed565b602082019050919050565b60006020820190508181036000830152613b5281613b16565b9050919050565b600081905092915050565b50565b6000613b74600083613b59565b9150613b7f82613b64565b600082019050919050565b6000613b9582613b67565b9150819050919050565b7f416464726573733a20756e61626c6520746f2073656e642076616c75652c207260008201527f6563697069656e74206d61792068617665207265766572746564000000000000602082015250565b6000613bfb603a83612b60565b9150613c0682613b9f565b604082019050919050565b60006020820190508181036000830152613c2a81613bee565b9050919050565b7f4552433732313a20617070726f766520746f2063616c6c657200000000000000600082015250565b6000613c67601983612b60565b9150613c7282613c31565b602082019050919050565b60006020820190508181036000830152613c9681613c5a565b9050919050565b7f4552433732313a207472616e7366657220746f206e6f6e20455243373231526560008201527f63656976657220696d706c656d656e7465720000000000000000000000000000602082015250565b6000613cf9603283612b60565b9150613d0482613c9d565b604082019050919050565b60006020820190508181036000830152613d2881613cec565b9050919050565b6000608082019050613d446000830187612d68565b613d516020830186612ca5565b613d5e6040830185612ca5565b613d6b6060830184612ca5565b95945050505050565b7f696e76616c6964207369676e6174757265000000000000000000000000000000600082015250565b6000613daa601183612b60565b9150613db582613d74565b602082019050919050565b60006020820190508181036000830152613dd981613d9d565b9050919050565b7f416c7265616479206d696e746564000000000000000000000000000000000000600082015250565b6000613e16600e83612b60565b9150613e2182613de0565b602082019050919050565b60006020820190508181036000830152613e4581613e09565b9050919050565b7f4845584c30323000000000000000000000000000000000000000000000000000600082015250565b6000613e82600783612b60565b9150613e8d82613e4c565b602082019050919050565b60006020820190508181036000830152613eb181613e75565b9050919050565b7f5472616e73666572206e6f7420616c6c6f776564000000000000000000000000600082015250565b6000613eee601483612b60565b9150613ef982613eb8565b602082019050919050565b60006020820190508181036000830152613f1d81613ee1565b9050919050565b600081519050919050565b600082825260208201905092915050565b6000613f4b82613f24565b613f558185613f2f565b9350613f65818560208601612b71565b613f6e81612ba4565b840191505092915050565b6000608082019050613f8e6000830187612ca5565b613f9b6020830186612ca5565b613fa86040830185612d68565b8181036060830152613fba8184613f40565b905095945050505050565b600081519050613fd481612ac6565b92915050565b600060208284031215613ff057613fef612a90565b5b6000613ffe84828501613fc5565b91505092915050565b600081905092915050565b7f19457468657265756d205369676e6564204d6573736167653a0a333200000000600082015250565b6000614048601c83614007565b915061405382614012565b601c82019050919050565b6000819050919050565b6000819050919050565b61408361407e8261405e565b614068565b82525050565b60006140948261403b565b91506140a08284614072565b60208201915081905092915050565b7f4e487b7100000000000000000000000000000000000000000000000000000000600052602160045260246000fd5b7f45434453413a20696e76616c6964207369676e61747572650000000000000000600082015250565b6000614114601883612b60565b915061411f826140de565b602082019050919050565b6000602082019050818103600083015261414381614107565b9050919050565b7f45434453413a20696e76616c6964207369676e6174757265206c656e67746800600082015250565b6000614180601f83612b60565b915061418b8261414a565b602082019050919050565b600060208201905081810360008301526141af81614173565b9050919050565b7f45434453413a20696e76616c6964207369676e6174757265202773272076616c60008201527f7565000000000000000000000000000000000000000000000000000000000000602082015250565b6000614212602283612b60565b915061421d826141b6565b604082019050919050565b6000602082019050818103600083015261424181614205565b9050919050565b7f4552433732313a206d696e7420746f20746865207a65726f2061646472657373600082015250565b600061427e602083612b60565b915061428982614248565b602082019050919050565b600060208201905081810360008301526142ad81614271565b9050919050565b7f4552433732313a20746f6b656e20616c7265616479206d696e74656400000000600082015250565b60006142ea601c83612b60565b91506142f5826142b4565b602082019050919050565b60006020820190508181036000830152614319816142dd565b9050919050565b6143298161405e565b82525050565b614338816134ed565b82525050565b60006080820190506143536000830187614320565b614360602083018661432f565b61436d6040830185614320565b61437a6060830184614320565b9594505050505056fea2646970667358221220a5e5d788643079e37e9459724b0f64c2cf0ccc0eaa2572f333abd2cb8a080da364736f6c63430008080033",
  "devdoc": {
    "kind": "dev",
    "methods": {
      "approve(address,uint256)": {
        "details": "See {IERC721-approve}."
      },
      "balanceOf(address)": {
        "details": "See {IERC721-balanceOf}."
      },
      "getApproved(uint256)": {
        "details": "See {IERC721-getApproved}."
      },
      "isApprovedForAll(address,address)": {
        "details": "See {IERC721-isApprovedForAll}."
      },
      "name()": {
        "details": "See {IERC721Metadata-name}."
      },
      "owner()": {
        "details": "Returns the address of the current owner."
      },
      "ownerOf(uint256)": {
        "details": "See {IERC721-ownerOf}."
      },
      "renounceOwnership()": {
        "details": "Leaves the contract without owner. It will not be possible to call `onlyOwner` functions anymore. Can only be called by the current owner. NOTE: Renouncing ownership will leave the contract without an owner, thereby removing any functionality that is only available to the owner."
      },
      "safeTransferFrom(address,address,uint256)": {
        "details": "See {IERC721-safeTransferFrom}."
      },
      "safeTransferFrom(address,address,uint256,bytes)": {
        "details": "See {IERC721-safeTransferFrom}."
      },
      "setApprovalForAll(address,bool)": {
        "details": "See {IERC721-setApprovalForAll}."
      },
      "supportsInterface(bytes4)": {
        "details": "See {IERC165-supportsInterface}."
      },
      "symbol()": {
        "details": "See {IERC721Metadata-symbol}."
      },
      "transferFrom(address,address,uint256)": {
        "details": "See {IERC721-transferFrom}."
      },
      "transferOwnership(address)": {
        "details": "Transfers ownership of the contract to a new account (`newOwner`). Can only be called by the current owner."
      }
    },
    "version": 1
  },
  "userdoc": {
    "kind": "user",
    "methods": {},
    "version": 1
  },
  "storageLayout": {
    "storage": [
      {
        "astId": 138,
        "contract": "contracts/tokens/HexlinkErc721Impl.sol:HexlinkErc721Impl",
        "label": "_initialized",
        "offset": 0,
        "slot": "0",
        "type": "t_uint8"
      },
      {
        "astId": 141,
        "contract": "contracts/tokens/HexlinkErc721Impl.sol:HexlinkErc721Impl",
        "label": "_initializing",
        "offset": 1,
        "slot": "0",
        "type": "t_bool"
      },
      {
        "astId": 1756,
        "contract": "contracts/tokens/HexlinkErc721Impl.sol:HexlinkErc721Impl",
        "label": "__gap",
        "offset": 0,
        "slot": "1",
        "type": "t_array(t_uint256)50_storage"
      },
      {
        "astId": 10,
        "contract": "contracts/tokens/HexlinkErc721Impl.sol:HexlinkErc721Impl",
        "label": "_owner",
        "offset": 0,
        "slot": "51",
        "type": "t_address"
      },
      {
        "astId": 130,
        "contract": "contracts/tokens/HexlinkErc721Impl.sol:HexlinkErc721Impl",
        "label": "__gap",
        "offset": 0,
        "slot": "52",
        "type": "t_array(t_uint256)49_storage"
      },
      {
        "astId": 1975,
        "contract": "contracts/tokens/HexlinkErc721Impl.sol:HexlinkErc721Impl",
        "label": "__gap",
        "offset": 0,
        "slot": "101",
        "type": "t_array(t_uint256)50_storage"
      },
      {
        "astId": 329,
        "contract": "contracts/tokens/HexlinkErc721Impl.sol:HexlinkErc721Impl",
        "label": "_name",
        "offset": 0,
        "slot": "151",
        "type": "t_string_storage"
      },
      {
        "astId": 331,
        "contract": "contracts/tokens/HexlinkErc721Impl.sol:HexlinkErc721Impl",
        "label": "_symbol",
        "offset": 0,
        "slot": "152",
        "type": "t_string_storage"
      },
      {
        "astId": 335,
        "contract": "contracts/tokens/HexlinkErc721Impl.sol:HexlinkErc721Impl",
        "label": "_owners",
        "offset": 0,
        "slot": "153",
        "type": "t_mapping(t_uint256,t_address)"
      },
      {
        "astId": 339,
        "contract": "contracts/tokens/HexlinkErc721Impl.sol:HexlinkErc721Impl",
        "label": "_balances",
        "offset": 0,
        "slot": "154",
        "type": "t_mapping(t_address,t_uint256)"
      },
      {
        "astId": 343,
        "contract": "contracts/tokens/HexlinkErc721Impl.sol:HexlinkErc721Impl",
        "label": "_tokenApprovals",
        "offset": 0,
        "slot": "155",
        "type": "t_mapping(t_uint256,t_address)"
      },
      {
        "astId": 349,
        "contract": "contracts/tokens/HexlinkErc721Impl.sol:HexlinkErc721Impl",
        "label": "_operatorApprovals",
        "offset": 0,
        "slot": "156",
        "type": "t_mapping(t_address,t_mapping(t_address,t_bool))"
      },
      {
        "astId": 1269,
        "contract": "contracts/tokens/HexlinkErc721Impl.sol:HexlinkErc721Impl",
        "label": "__gap",
        "offset": 0,
        "slot": "157",
        "type": "t_array(t_uint256)44_storage"
      },
      {
        "astId": 4688,
        "contract": "contracts/tokens/HexlinkErc721Impl.sol:HexlinkErc721Impl",
        "label": "minted_",
        "offset": 0,
        "slot": "201",
        "type": "t_mapping(t_address,t_uint256)"
      },
      {
        "astId": 4690,
        "contract": "contracts/tokens/HexlinkErc721Impl.sol:HexlinkErc721Impl",
        "label": "baseTokenURI",
        "offset": 0,
        "slot": "202",
        "type": "t_string_storage"
      },
      {
        "astId": 4692,
        "contract": "contracts/tokens/HexlinkErc721Impl.sol:HexlinkErc721Impl",
        "label": "maxSupply",
        "offset": 0,
        "slot": "203",
        "type": "t_uint256"
      },
      {
        "astId": 4695,
        "contract": "contracts/tokens/HexlinkErc721Impl.sol:HexlinkErc721Impl",
        "label": "tokenId",
        "offset": 0,
        "slot": "204",
        "type": "t_uint256"
      },
      {
        "astId": 4697,
        "contract": "contracts/tokens/HexlinkErc721Impl.sol:HexlinkErc721Impl",
        "label": "validator",
        "offset": 0,
        "slot": "205",
        "type": "t_address"
      },
      {
        "astId": 4699,
        "contract": "contracts/tokens/HexlinkErc721Impl.sol:HexlinkErc721Impl",
        "label": "transferrable",
        "offset": 20,
        "slot": "205",
        "type": "t_bool"
      },
      {
        "astId": 4701,
        "contract": "contracts/tokens/HexlinkErc721Impl.sol:HexlinkErc721Impl",
        "label": "gasSponsorship",
        "offset": 0,
        "slot": "206",
        "type": "t_uint256"
      }
    ],
    "types": {
      "t_address": {
        "encoding": "inplace",
        "label": "address",
        "numberOfBytes": "20"
      },
      "t_array(t_uint256)44_storage": {
        "base": "t_uint256",
        "encoding": "inplace",
        "label": "uint256[44]",
        "numberOfBytes": "1408"
      },
      "t_array(t_uint256)49_storage": {
        "base": "t_uint256",
        "encoding": "inplace",
        "label": "uint256[49]",
        "numberOfBytes": "1568"
      },
      "t_array(t_uint256)50_storage": {
        "base": "t_uint256",
        "encoding": "inplace",
        "label": "uint256[50]",
        "numberOfBytes": "1600"
      },
      "t_bool": {
        "encoding": "inplace",
        "label": "bool",
        "numberOfBytes": "1"
      },
      "t_mapping(t_address,t_bool)": {
        "encoding": "mapping",
        "key": "t_address",
        "label": "mapping(address => bool)",
        "numberOfBytes": "32",
        "value": "t_bool"
      },
      "t_mapping(t_address,t_mapping(t_address,t_bool))": {
        "encoding": "mapping",
        "key": "t_address",
        "label": "mapping(address => mapping(address => bool))",
        "numberOfBytes": "32",
        "value": "t_mapping(t_address,t_bool)"
      },
      "t_mapping(t_address,t_uint256)": {
        "encoding": "mapping",
        "key": "t_address",
        "label": "mapping(address => uint256)",
        "numberOfBytes": "32",
        "value": "t_uint256"
      },
      "t_mapping(t_uint256,t_address)": {
        "encoding": "mapping",
        "key": "t_uint256",
        "label": "mapping(uint256 => address)",
        "numberOfBytes": "32",
        "value": "t_address"
      },
      "t_string_storage": {
        "encoding": "bytes",
        "label": "string",
        "numberOfBytes": "32"
      },
      "t_uint256": {
        "encoding": "inplace",
        "label": "uint256",
        "numberOfBytes": "32"
      },
      "t_uint8": {
        "encoding": "inplace",
        "label": "uint8",
        "numberOfBytes": "1"
      }
    }
  }
}