{
  "address": "0x10b1A0BCdAd376419Dda56A060DB8F0B242FbC56",
  "abi": [
    {
      "inputs": [
        {
          "internalType": "address",
          "name": "_hexlink",
          "type": "address"
        },
        {
          "internalType": "address",
          "name": "_redPacket",
          "type": "address"
        }
      ],
      "stateMutability": "nonpayable",
      "type": "constructor"
    },
    {
      "anonymous": false,
      "inputs": [
        {
          "indexed": true,
          "internalType": "bytes32",
          "name": "name",
          "type": "bytes32"
        },
        {
          "indexed": true,
          "internalType": "address",
          "name": "impl",
          "type": "address"
        },
        {
          "indexed": false,
          "internalType": "address",
          "name": "account",
          "type": "address"
        }
      ],
      "name": "Deploy",
      "type": "event"
    },
    {
      "inputs": [
        {
          "internalType": "bytes32",
          "name": "salt",
          "type": "bytes32"
        },
        {
          "internalType": "bytes",
          "name": "txData",
          "type": "bytes"
        }
      ],
      "name": "deploy",
      "outputs": [
        {
          "internalType": "address",
          "name": "",
          "type": "address"
        }
      ],
      "stateMutability": "nonpayable",
      "type": "function"
    },
    {
      "inputs": [
        {
          "internalType": "bytes32",
          "name": "name",
          "type": "bytes32"
        },
        {
          "internalType": "bytes",
          "name": "initData",
          "type": "bytes"
        },
        {
          "internalType": "bytes",
          "name": "txData",
          "type": "bytes"
        },
        {
          "components": [
            {
              "internalType": "uint256",
              "name": "issuedAt",
              "type": "uint256"
            },
            {
              "internalType": "bytes32",
              "name": "identityType",
              "type": "bytes32"
            },
            {
              "internalType": "bytes32",
              "name": "authType",
              "type": "bytes32"
            },
            {
              "internalType": "bytes",
              "name": "signature",
              "type": "bytes"
            }
          ],
          "internalType": "struct AuthProof",
          "name": "proof",
          "type": "tuple"
        }
      ],
      "name": "deployAndCreateRedPacket",
      "outputs": [],
      "stateMutability": "payable",
      "type": "function"
    },
    {
      "inputs": [
        {
          "internalType": "bytes32",
          "name": "name",
          "type": "bytes32"
        },
        {
          "internalType": "bytes",
          "name": "txData",
          "type": "bytes"
        },
        {
          "components": [
            {
              "internalType": "uint256",
              "name": "issuedAt",
              "type": "uint256"
            },
            {
              "internalType": "bytes32",
              "name": "identityType",
              "type": "bytes32"
            },
            {
              "internalType": "bytes32",
              "name": "authType",
              "type": "bytes32"
            },
            {
              "internalType": "bytes",
              "name": "signature",
              "type": "bytes"
            }
          ],
          "internalType": "struct AuthProof[]",
          "name": "proofs",
          "type": "tuple[]"
        }
      ],
      "name": "redeployAndReset",
      "outputs": [],
      "stateMutability": "nonpayable",
      "type": "function"
    }
  ],
  "transactionHash": "0x53176a53b11c8e5300386aa03e39ca077e231c5fee6c1f0be2a0601403f9204e",
  "args": [
    "0x78317ef8b020Fe10e845ab8723403cF1e58Ef1Cc",
    "0x0deFb16796B8c4cB429A9e249ae21d21399e0A31"
  ],
  "numDeployments": 4,
  "solcInputHash": "0f24bdf7426aa2023cb24240fcb8e727",
  "bytecode": "0x60e06040523480156200001157600080fd5b50604051620016ed380380620016ed8339818101604052810190620000379190620001d4565b8173ffffffffffffffffffffffffffffffffffffffff1660808173ffffffffffffffffffffffffffffffffffffffff1660601b8152505060805160601c73ffffffffffffffffffffffffffffffffffffffff1663cd6a84b36040518163ffffffff1660e01b815260040160206040518083038186803b158015620000ba57600080fd5b505afa158015620000cf573d6000803e3d6000fd5b505050506040513d601f19601f82011682018060405250810190620000f591906200021b565b73ffffffffffffffffffffffffffffffffffffffff1660a08173ffffffffffffffffffffffffffffffffffffffff1660601b815250508073ffffffffffffffffffffffffffffffffffffffff1660c08173ffffffffffffffffffffffffffffffffffffffff1660601b8152505050506200024d565b600080fd5b600073ffffffffffffffffffffffffffffffffffffffff82169050919050565b60006200019c826200016f565b9050919050565b620001ae816200018f565b8114620001ba57600080fd5b50565b600081519050620001ce81620001a3565b92915050565b60008060408385031215620001ee57620001ed6200016a565b5b6000620001fe85828601620001bd565b92505060206200021185828601620001bd565b9150509250929050565b6000602082840312156200023457620002336200016a565b5b60006200024484828501620001bd565b91505092915050565b60805160601c60a05160601c60c05160601c6114566200029760003960005050600081816101f9015261029001526000818160bf01528181610352015261043e01526114566000f3fe6080604052600436106100345760003560e01c8063baf83bb014610039578063cdcb760a14610055578063e3db893314610092575b600080fd5b610053600480360381019061004e91906109b6565b6100bb565b005b34801561006157600080fd5b5061007c60048036038101906100779190610a79565b6101f1565b6040516100899190610b1a565b60405180910390f35b34801561009e57600080fd5b506100b960048036038101906100b49190610b8b565b610308565b005b60007f000000000000000000000000000000000000000000000000000000000000000073ffffffffffffffffffffffffffffffffffffffff1663f2b01a82888888866040518563ffffffff1660e01b815260040161011c9493929190610e44565b602060405180830381600087803b15801561013657600080fd5b505af115801561014a573d6000803e3d6000fd5b505050506040513d601f19601f8201168201806040525081019061016e9190610eb7565b905061017a813461053a565b6101e784848080601f016020809104026020016040519081016040528093929190818152602001838380828437600081840152601f19601f820116905080830192505050505050508273ffffffffffffffffffffffffffffffffffffffff1661062e90919063ffffffff16565b5050505050505050565b60008061021e7f00000000000000000000000000000000000000000000000000000000000000008661067a565b905061028d84848080601f016020809104026020016040519081016040528093929190818152602001838380828437600081840152601f19601f820116905080830192505050505050508273ffffffffffffffffffffffffffffffffffffffff1661062e90919063ffffffff16565b507f000000000000000000000000000000000000000000000000000000000000000073ffffffffffffffffffffffffffffffffffffffff16857fd2072acd88f7b2aa8b2ad0a228e28261caec5ae7ba5f4ba3e6afc475597fe068836040516102f59190610b1a565b60405180910390a3809150509392505050565b6000854260405160200161031d929190610ef3565b60405160208183030381529060405280519060200120905060006103428287876101f1565b90506002848490501415610430577f000000000000000000000000000000000000000000000000000000000000000073ffffffffffffffffffffffffffffffffffffffff1663643012c38883878760008181106103a2576103a1610f1c565b5b90506020028101906103b49190610f50565b888860018181106103c8576103c7610f1c565b5b90506020028101906103da9190610f50565b6040518563ffffffff1660e01b81526004016103f99493929190610f78565b600060405180830381600087803b15801561041357600080fd5b505af1158015610427573d6000803e3d6000fd5b50505050610531565b60018484905014156104f5577f000000000000000000000000000000000000000000000000000000000000000073ffffffffffffffffffffffffffffffffffffffff1663b7a24c0f88838787600081811061048e5761048d610f1c565b5b90506020028101906104a09190610f50565b6040518463ffffffff1660e01b81526004016104be93929190610fcb565b600060405180830381600087803b1580156104d857600080fd5b505af11580156104ec573d6000803e3d6000fd5b50505050610530565b6040517f08c379a000000000000000000000000000000000000000000000000000000000815260040161052790611066565b60405180910390fd5b5b50505050505050565b8047101561057d576040517f08c379a0000000000000000000000000000000000000000000000000000000008152600401610574906110d2565b60405180910390fd5b60008273ffffffffffffffffffffffffffffffffffffffff16826040516105a390611123565b60006040518083038185875af1925050503d80600081146105e0576040519150601f19603f3d011682016040523d82523d6000602084013e6105e5565b606091505b5050905080610629576040517f08c379a0000000000000000000000000000000000000000000000000000000008152600401610620906111aa565b60405180910390fd5b505050565b6060610672838360006040518060400160405280601e81526020017f416464726573733a206c6f772d6c6576656c2063616c6c206661696c65640000815250610737565b905092915050565b6000763d602d80600a3d3981f3363d3d373d3d3d363d730000008360601b60e81c176000526e5af43d82803e903d91602b57fd5bf38360781b1760205281603760096000f59050600073ffffffffffffffffffffffffffffffffffffffff168173ffffffffffffffffffffffffffffffffffffffff161415610731576040517f08c379a000000000000000000000000000000000000000000000000000000000815260040161072890611216565b60405180910390fd5b92915050565b60608247101561077c576040517f08c379a0000000000000000000000000000000000000000000000000000000008152600401610773906112a8565b60405180910390fd5b6000808673ffffffffffffffffffffffffffffffffffffffff1685876040516107a59190611337565b60006040518083038185875af1925050503d80600081146107e2576040519150601f19603f3d011682016040523d82523d6000602084013e6107e7565b606091505b50915091506107f887838387610804565b92505050949350505050565b606083156108675760008351141561085f5761081f8561087a565b61085e576040517f08c379a00000000000000000000000000000000000000000000000000000000081526004016108559061139a565b60405180910390fd5b5b829050610872565b610871838361089d565b5b949350505050565b6000808273ffffffffffffffffffffffffffffffffffffffff163b119050919050565b6000825111156108b05781518083602001fd5b806040517f08c379a00000000000000000000000000000000000000000000000000000000081526004016108e491906113fe565b60405180910390fd5b600080fd5b600080fd5b6000819050919050565b61090a816108f7565b811461091557600080fd5b50565b60008135905061092781610901565b92915050565b600080fd5b600080fd5b600080fd5b60008083601f8401126109525761095161092d565b5b8235905067ffffffffffffffff81111561096f5761096e610932565b5b60208301915083600182028301111561098b5761098a610937565b5b9250929050565b600080fd5b6000608082840312156109ad576109ac610992565b5b81905092915050565b600080600080600080608087890312156109d3576109d26108ed565b5b60006109e189828a01610918565b965050602087013567ffffffffffffffff811115610a0257610a016108f2565b5b610a0e89828a0161093c565b9550955050604087013567ffffffffffffffff811115610a3157610a306108f2565b5b610a3d89828a0161093c565b9350935050606087013567ffffffffffffffff811115610a6057610a5f6108f2565b5b610a6c89828a01610997565b9150509295509295509295565b600080600060408486031215610a9257610a916108ed565b5b6000610aa086828701610918565b935050602084013567ffffffffffffffff811115610ac157610ac06108f2565b5b610acd8682870161093c565b92509250509250925092565b600073ffffffffffffffffffffffffffffffffffffffff82169050919050565b6000610b0482610ad9565b9050919050565b610b1481610af9565b82525050565b6000602082019050610b2f6000830184610b0b565b92915050565b60008083601f840112610b4b57610b4a61092d565b5b8235905067ffffffffffffffff811115610b6857610b67610932565b5b602083019150836020820283011115610b8457610b83610937565b5b9250929050565b600080600080600060608688031215610ba757610ba66108ed565b5b6000610bb588828901610918565b955050602086013567ffffffffffffffff811115610bd657610bd56108f2565b5b610be28882890161093c565b9450945050604086013567ffffffffffffffff811115610c0557610c046108f2565b5b610c1188828901610b35565b92509250509295509295909350565b610c29816108f7565b82525050565b600082825260208201905092915050565b82818337600083830152505050565b6000601f19601f8301169050919050565b6000610c6c8385610c2f565b9350610c79838584610c40565b610c8283610c4f565b840190509392505050565b6000819050919050565b610ca081610c8d565b8114610cab57600080fd5b50565b600081359050610cbd81610c97565b92915050565b6000610cd26020840184610cae565b905092915050565b610ce381610c8d565b82525050565b6000610cf86020840184610918565b905092915050565b610d09816108f7565b82525050565b600080fd5b600080fd5b600080fd5b60008083356001602003843603038112610d3b57610d3a610d19565b5b83810192508235915060208301925067ffffffffffffffff821115610d6357610d62610d0f565b5b600182023603841315610d7957610d78610d14565b5b509250929050565b600082825260208201905092915050565b6000610d9e8385610d81565b9350610dab838584610c40565b610db483610c4f565b840190509392505050565b600060808301610dd26000840184610cc3565b610ddf6000860182610cda565b50610ded6020840184610ce9565b610dfa6020860182610d00565b50610e086040840184610ce9565b610e156040860182610d00565b50610e236060840184610d1e565b8583036060870152610e36838284610d92565b925050508091505092915050565b6000606082019050610e596000830187610c20565b8181036020830152610e6c818587610c60565b90508181036040830152610e808184610dbf565b905095945050505050565b610e9481610af9565b8114610e9f57600080fd5b50565b600081519050610eb181610e8b565b92915050565b600060208284031215610ecd57610ecc6108ed565b5b6000610edb84828501610ea2565b91505092915050565b610eed81610c8d565b82525050565b6000604082019050610f086000830185610c20565b610f156020830184610ee4565b9392505050565b7f4e487b7100000000000000000000000000000000000000000000000000000000600052603260045260246000fd5b600080fd5b600082356001608003833603038112610f6c57610f6b610f4b565b5b80830191505092915050565b6000608082019050610f8d6000830187610c20565b610f9a6020830186610b0b565b8181036040830152610fac8185610dbf565b90508181036060830152610fc08184610dbf565b905095945050505050565b6000606082019050610fe06000830186610c20565b610fed6020830185610b0b565b8181036040830152610fff8184610dbf565b9050949350505050565b600082825260208201905092915050565b7f4845584c30313400000000000000000000000000000000000000000000000000600082015250565b6000611050600783611009565b915061105b8261101a565b602082019050919050565b6000602082019050818103600083015261107f81611043565b9050919050565b7f416464726573733a20696e73756666696369656e742062616c616e6365000000600082015250565b60006110bc601d83611009565b91506110c782611086565b602082019050919050565b600060208201905081810360008301526110eb816110af565b9050919050565b600081905092915050565b50565b600061110d6000836110f2565b9150611118826110fd565b600082019050919050565b600061112e82611100565b9150819050919050565b7f416464726573733a20756e61626c6520746f2073656e642076616c75652c207260008201527f6563697069656e74206d61792068617665207265766572746564000000000000602082015250565b6000611194603a83611009565b915061119f82611138565b604082019050919050565b600060208201905081810360008301526111c381611187565b9050919050565b7f455243313136373a2063726561746532206661696c6564000000000000000000600082015250565b6000611200601783611009565b915061120b826111ca565b602082019050919050565b6000602082019050818103600083015261122f816111f3565b9050919050565b7f416464726573733a20696e73756666696369656e742062616c616e636520666f60008201527f722063616c6c0000000000000000000000000000000000000000000000000000602082015250565b6000611292602683611009565b915061129d82611236565b604082019050919050565b600060208201905081810360008301526112c181611285565b9050919050565b600081519050919050565b60005b838110156112f15780820151818401526020810190506112d6565b83811115611300576000848401525b50505050565b6000611311826112c8565b61131b81856110f2565b935061132b8185602086016112d3565b80840191505092915050565b60006113438284611306565b915081905092915050565b7f416464726573733a2063616c6c20746f206e6f6e2d636f6e7472616374000000600082015250565b6000611384601d83611009565b915061138f8261134e565b602082019050919050565b600060208201905081810360008301526113b381611377565b9050919050565b600081519050919050565b60006113d0826113ba565b6113da8185611009565b93506113ea8185602086016112d3565b6113f381610c4f565b840191505092915050565b6000602082019050818103600083015261141881846113c5565b90509291505056fea2646970667358221220149e9fe6f2bbce00ea10055629cb83120c43c11d24693b0f0e82204a7a25f1ca64736f6c63430008080033",
  "devdoc": {
    "kind": "dev",
    "methods": {},
    "version": 1
  },
  "userdoc": {
    "kind": "user",
    "methods": {},
    "version": 1
  },
  "storageLayout": {
    "storage": [],
    "types": null
  }
}