{
  "address": "0x8AbA92A15366437fFcd2764122D5757D517fcd67",
  "abi": [
    {
      "inputs": [
        {
          "internalType": "address",
          "name": "accountBase",
          "type": "address"
        }
      ],
      "stateMutability": "nonpayable",
      "type": "constructor"
    },
    {
      "inputs": [],
      "name": "Ownable__NotOwner",
      "type": "error"
    },
    {
      "inputs": [],
      "name": "Ownable__NotTransitiveOwner",
      "type": "error"
    },
    {
      "anonymous": false,
      "inputs": [
        {
          "indexed": false,
          "internalType": "address",
          "name": "previousAdmin",
          "type": "address"
        },
        {
          "indexed": false,
          "internalType": "address",
          "name": "newAdmin",
          "type": "address"
        }
      ],
      "name": "AdminChanged",
      "type": "event"
    },
    {
      "anonymous": false,
      "inputs": [
        {
          "indexed": true,
          "internalType": "address",
          "name": "beacon",
          "type": "address"
        }
      ],
      "name": "BeaconUpgraded",
      "type": "event"
    },
    {
      "anonymous": false,
      "inputs": [
        {
          "indexed": true,
          "internalType": "bytes32",
          "name": "name",
          "type": "bytes32"
        },
        {
          "indexed": true,
          "internalType": "address",
          "name": "account",
          "type": "address"
        }
      ],
      "name": "Deploy",
      "type": "event"
    },
    {
      "anonymous": false,
      "inputs": [
        {
          "indexed": true,
          "internalType": "address",
          "name": "previousOwner",
          "type": "address"
        },
        {
          "indexed": true,
          "internalType": "address",
          "name": "newOwner",
          "type": "address"
        }
      ],
      "name": "OwnershipTransferred",
      "type": "event"
    },
    {
      "anonymous": false,
      "inputs": [
        {
          "indexed": true,
          "internalType": "bytes32",
          "name": "name",
          "type": "bytes32"
        },
        {
          "indexed": true,
          "internalType": "address",
          "name": "account",
          "type": "address"
        }
      ],
      "name": "Reset",
      "type": "event"
    },
    {
      "anonymous": false,
      "inputs": [
        {
          "indexed": true,
          "internalType": "address",
          "name": "implementation",
          "type": "address"
        }
      ],
      "name": "Upgraded",
      "type": "event"
    },
    {
      "inputs": [],
      "name": "accountBase",
      "outputs": [
        {
          "internalType": "address",
          "name": "",
          "type": "address"
        }
      ],
      "stateMutability": "view",
      "type": "function"
    },
    {
      "inputs": [
        {
          "internalType": "bytes32",
          "name": "name",
          "type": "bytes32"
        }
      ],
      "name": "addressOfName",
      "outputs": [
        {
          "internalType": "address",
          "name": "",
          "type": "address"
        }
      ],
      "stateMutability": "view",
      "type": "function"
    },
    {
      "inputs": [
        {
          "internalType": "bytes32",
          "name": "name",
          "type": "bytes32"
        },
        {
          "components": [
            {
              "internalType": "uint256",
              "name": "issuedAt",
              "type": "uint256"
            },
            {
              "internalType": "bytes32",
              "name": "identityType",
              "type": "bytes32"
            },
            {
              "internalType": "bytes32",
              "name": "authType",
              "type": "bytes32"
            },
            {
              "internalType": "bytes",
              "name": "signature",
              "type": "bytes"
            }
          ],
          "internalType": "struct AuthProof",
          "name": "proof",
          "type": "tuple"
        }
      ],
      "name": "bumpNonce",
      "outputs": [],
      "stateMutability": "nonpayable",
      "type": "function"
    },
    {
      "inputs": [
        {
          "internalType": "bytes32",
          "name": "name",
          "type": "bytes32"
        },
        {
          "internalType": "bytes",
          "name": "txData",
          "type": "bytes"
        },
        {
          "components": [
            {
              "internalType": "uint256",
              "name": "issuedAt",
              "type": "uint256"
            },
            {
              "internalType": "bytes32",
              "name": "identityType",
              "type": "bytes32"
            },
            {
              "internalType": "bytes32",
              "name": "authType",
              "type": "bytes32"
            },
            {
              "internalType": "bytes",
              "name": "signature",
              "type": "bytes"
            }
          ],
          "internalType": "struct AuthProof",
          "name": "proof",
          "type": "tuple"
        }
      ],
      "name": "deploy",
      "outputs": [
        {
          "internalType": "address",
          "name": "",
          "type": "address"
        }
      ],
      "stateMutability": "payable",
      "type": "function"
    },
    {
      "inputs": [],
      "name": "implementation",
      "outputs": [
        {
          "internalType": "address",
          "name": "",
          "type": "address"
        }
      ],
      "stateMutability": "view",
      "type": "function"
    },
    {
      "inputs": [
        {
          "internalType": "address",
          "name": "owner",
          "type": "address"
        },
        {
          "internalType": "address",
          "name": "oracleRegistry",
          "type": "address"
        }
      ],
      "name": "init",
      "outputs": [],
      "stateMutability": "nonpayable",
      "type": "function"
    },
    {
      "inputs": [
        {
          "internalType": "bytes32",
          "name": "name",
          "type": "bytes32"
        }
      ],
      "name": "nonce",
      "outputs": [
        {
          "internalType": "uint96",
          "name": "",
          "type": "uint96"
        }
      ],
      "stateMutability": "view",
      "type": "function"
    },
    {
      "inputs": [],
      "name": "oracleRegistry",
      "outputs": [
        {
          "internalType": "address",
          "name": "",
          "type": "address"
        }
      ],
      "stateMutability": "view",
      "type": "function"
    },
    {
      "inputs": [],
      "name": "owner",
      "outputs": [
        {
          "internalType": "address",
          "name": "",
          "type": "address"
        }
      ],
      "stateMutability": "view",
      "type": "function"
    },
    {
      "inputs": [],
      "name": "proxiableUUID",
      "outputs": [
        {
          "internalType": "bytes32",
          "name": "",
          "type": "bytes32"
        }
      ],
      "stateMutability": "view",
      "type": "function"
    },
    {
      "inputs": [
        {
          "internalType": "bytes32",
          "name": "name",
          "type": "bytes32"
        },
        {
          "internalType": "address",
          "name": "account",
          "type": "address"
        },
        {
          "components": [
            {
              "internalType": "uint256",
              "name": "issuedAt",
              "type": "uint256"
            },
            {
              "internalType": "bytes32",
              "name": "identityType",
              "type": "bytes32"
            },
            {
              "internalType": "bytes32",
              "name": "authType",
              "type": "bytes32"
            },
            {
              "internalType": "bytes",
              "name": "signature",
              "type": "bytes"
            }
          ],
          "internalType": "struct AuthProof",
          "name": "proof",
          "type": "tuple"
        }
      ],
      "name": "reset",
      "outputs": [],
      "stateMutability": "nonpayable",
      "type": "function"
    },
    {
      "inputs": [
        {
          "internalType": "bytes32",
          "name": "name",
          "type": "bytes32"
        },
        {
          "internalType": "address",
          "name": "account",
          "type": "address"
        },
        {
          "components": [
            {
              "internalType": "uint256",
              "name": "issuedAt",
              "type": "uint256"
            },
            {
              "internalType": "bytes32",
              "name": "identityType",
              "type": "bytes32"
            },
            {
              "internalType": "bytes32",
              "name": "authType",
              "type": "bytes32"
            },
            {
              "internalType": "bytes",
              "name": "signature",
              "type": "bytes"
            }
          ],
          "internalType": "struct AuthProof",
          "name": "proof1",
          "type": "tuple"
        },
        {
          "components": [
            {
              "internalType": "uint256",
              "name": "issuedAt",
              "type": "uint256"
            },
            {
              "internalType": "bytes32",
              "name": "identityType",
              "type": "bytes32"
            },
            {
              "internalType": "bytes32",
              "name": "authType",
              "type": "bytes32"
            },
            {
              "internalType": "bytes",
              "name": "signature",
              "type": "bytes"
            }
          ],
          "internalType": "struct AuthProof",
          "name": "proof2",
          "type": "tuple"
        }
      ],
      "name": "reset2Fac",
      "outputs": [],
      "stateMutability": "nonpayable",
      "type": "function"
    },
    {
      "inputs": [
        {
          "internalType": "bytes32",
          "name": "name",
          "type": "bytes32"
        },
        {
          "internalType": "address",
          "name": "account",
          "type": "address"
        },
        {
          "components": [
            {
              "internalType": "uint256",
              "name": "issuedAt",
              "type": "uint256"
            },
            {
              "internalType": "bytes32",
              "name": "identityType",
              "type": "bytes32"
            },
            {
              "internalType": "bytes32",
              "name": "authType",
              "type": "bytes32"
            },
            {
              "internalType": "bytes",
              "name": "signature",
              "type": "bytes"
            }
          ],
          "internalType": "struct AuthProof",
          "name": "proof",
          "type": "tuple"
        }
      ],
      "name": "reset2Stage",
      "outputs": [],
      "stateMutability": "nonpayable",
      "type": "function"
    },
    {
      "inputs": [
        {
          "internalType": "address",
          "name": "oracleRegistry",
          "type": "address"
        }
      ],
      "name": "setOracleRegistry",
      "outputs": [],
      "stateMutability": "nonpayable",
      "type": "function"
    },
    {
      "inputs": [
        {
          "internalType": "address",
          "name": "account",
          "type": "address"
        }
      ],
      "name": "transferOwnership",
      "outputs": [],
      "stateMutability": "nonpayable",
      "type": "function"
    },
    {
      "inputs": [],
      "name": "ttl",
      "outputs": [
        {
          "internalType": "uint256",
          "name": "",
          "type": "uint256"
        }
      ],
      "stateMutability": "view",
      "type": "function"
    },
    {
      "inputs": [],
      "name": "twoStageLock",
      "outputs": [
        {
          "internalType": "uint256",
          "name": "",
          "type": "uint256"
        }
      ],
      "stateMutability": "view",
      "type": "function"
    },
    {
      "inputs": [
        {
          "internalType": "address",
          "name": "newImplementation",
          "type": "address"
        }
      ],
      "name": "upgradeTo",
      "outputs": [],
      "stateMutability": "nonpayable",
      "type": "function"
    },
    {
      "inputs": [
        {
          "internalType": "address",
          "name": "newImplementation",
          "type": "address"
        },
        {
          "internalType": "bytes",
          "name": "data",
          "type": "bytes"
        }
      ],
      "name": "upgradeToAndCall",
      "outputs": [],
      "stateMutability": "payable",
      "type": "function"
    }
  ],
  "transactionHash": "0x2cc648948504a550a2d57fd96328122fbbbc80a253c3873c2c3c82b974a3dff1",
  "args": [
    "0x12867215A6eCc37b41475c8596FD2416Eb135634"
  ],
  "numDeployments": 3,
  "solcInputHash": "1a0da7ea5a312c31449564a89aaa71ef",
  "bytecode": "0x60c06040523073ffffffffffffffffffffffffffffffffffffffff1660a09073ffffffffffffffffffffffffffffffffffffffff1660601b8152503480156200004757600080fd5b5060405162003b0c38038062003b0c83398181016040528101906200006d919062000117565b808073ffffffffffffffffffffffffffffffffffffffff1660808173ffffffffffffffffffffffffffffffffffffffff1660601b81525050505062000149565b600080fd5b600073ffffffffffffffffffffffffffffffffffffffff82169050919050565b6000620000df82620000b2565b9050919050565b620000f181620000d2565b8114620000fd57600080fd5b50565b6000815190506200011181620000e6565b92915050565b60006020828403121562000130576200012f620000ad565b5b6000620001408482850162000100565b91505092915050565b60805160601c60a05160601c61396d6200019f6000396000818161045d015281816104ec01528181610620015281816106af015261075f015260008181610bb501528181610cc701526115e7015261396d6000f3fe6080604052600436106101145760003560e01c80638165354e116100a0578063cd6a84b311610064578063cd6a84b31461037e578063f09a4016146103a9578063f2b01a82146103d2578063f2fde38b14610402578063f5a3e3dc1461042b57610114565b80638165354e1461029b5780638da5cb5b146102c4578063905da30f146102ef5780639cd6bc371461032c578063b7a24c0f1461035557610114565b80634f1ef286116100e75780634f1ef286146101c357806352d1902d146101df5780635c60da1b1461020a578063643012c3146102355780637eaa9c8c1461025e57610114565b80632ebdf1d2146101195780633659cfe6146101445780634bb93ab11461016d5780634e8b1dd514610198575b600080fd5b34801561012557600080fd5b5061012e610454565b60405161013b9190612265565b60405180910390f35b34801561015057600080fd5b5061016b600480360381019061016691906122f2565b61045b565b005b34801561017957600080fd5b506101826105e4565b60405161018f919061232e565b60405180910390f35b3480156101a457600080fd5b506101ad610617565b6040516101ba9190612265565b60405180910390f35b6101dd60048036038101906101d8919061248f565b61061e565b005b3480156101eb57600080fd5b506101f461075b565b6040516102019190612504565b60405180910390f35b34801561021657600080fd5b5061021f610814565b60405161022c919061232e565b60405180910390f35b34801561024157600080fd5b5061025c6004803603810190610257919061256f565b610823565b005b34801561026a57600080fd5b506102856004803603810190610280919061260e565b6108c0565b604051610292919061232e565b60405180910390f35b3480156102a757600080fd5b506102c260048036038101906102bd91906122f2565b610908565b005b3480156102d057600080fd5b506102d9610980565b6040516102e6919061232e565b60405180910390f35b3480156102fb57600080fd5b506103166004803603810190610311919061260e565b61098f565b6040516103239190612662565b60405180910390f35b34801561033857600080fd5b50610353600480360381019061034e919061267d565b6109c6565b005b34801561036157600080fd5b5061037c6004803603810190610377919061267d565b610b09565b005b34801561038a57600080fd5b50610393610bb3565b6040516103a0919061232e565b60405180910390f35b3480156103b557600080fd5b506103d060048036038101906103cb91906126ec565b610bd7565b005b6103ec60048036038101906103e7919061278c565b610c63565b6040516103f9919061232e565b60405180910390f35b34801561040e57600080fd5b50610429600480360381019061042491906122f2565b610e57565b005b34801561043757600080fd5b50610452600480360381019061044d919061281c565b610ecf565b005b6203f48081565b7f000000000000000000000000000000000000000000000000000000000000000073ffffffffffffffffffffffffffffffffffffffff163073ffffffffffffffffffffffffffffffffffffffff1614156104ea576040517f08c379a00000000000000000000000000000000000000000000000000000000081526004016104e1906128fb565b60405180910390fd5b7f000000000000000000000000000000000000000000000000000000000000000073ffffffffffffffffffffffffffffffffffffffff16610529610f4f565b73ffffffffffffffffffffffffffffffffffffffff161461057f576040517f08c379a00000000000000000000000000000000000000000000000000000000081526004016105769061298d565b60405180910390fd5b61058881610fa6565b6105e181600067ffffffffffffffff8111156105a7576105a6612364565b5b6040519080825280601f01601f1916602001820160405280156105d95781602001600182028036833780820191505090505b506000611015565b50565b60006105ee611192565b60000160009054906101000a900473ffffffffffffffffffffffffffffffffffffffff16905090565b6203f48081565b7f000000000000000000000000000000000000000000000000000000000000000073ffffffffffffffffffffffffffffffffffffffff163073ffffffffffffffffffffffffffffffffffffffff1614156106ad576040517f08c379a00000000000000000000000000000000000000000000000000000000081526004016106a4906128fb565b60405180910390fd5b7f000000000000000000000000000000000000000000000000000000000000000073ffffffffffffffffffffffffffffffffffffffff166106ec610f4f565b73ffffffffffffffffffffffffffffffffffffffff1614610742576040517f08c379a00000000000000000000000000000000000000000000000000000000081526004016107399061298d565b60405180910390fd5b61074b82610fa6565b61075782826001611015565b5050565b60007f000000000000000000000000000000000000000000000000000000000000000073ffffffffffffffffffffffffffffffffffffffff163073ffffffffffffffffffffffffffffffffffffffff16146107eb576040517f08c379a00000000000000000000000000000000000000000000000000000000081526004016107e290612a1f565b60405180910390fd5b7f360894a13ba1a3210667c828492db98dca3e2076cc3735a920a3ca505d382bbc60001b905090565b600061081e610f4f565b905090565b600061084e858560405160200161083a919061232e565b6040516020818303038152906040526111bf565b905061085b818484611336565b6108658585611397565b600181606001516108769190612a6e565b60008087815260200190815260200160002060000160146101000a8154816bffffffffffffffffffffffff02191690836bffffffffffffffffffffffff1602179055505050505050565b60006109018260008085815260200190815260200160002060000160009054906101000a900473ffffffffffffffffffffffffffffffffffffffff166114a3565b9050919050565b6109106114f0565b73ffffffffffffffffffffffffffffffffffffffff163373ffffffffffffffffffffffffffffffffffffffff1614610974576040517f2f7a8ee100000000000000000000000000000000000000000000000000000000815260040160405180910390fd5b61097d81611523565b50565b600061098a6114f0565b905090565b600080600083815260200190815260200160002060000160149054906101000a90046bffffffffffffffffffffffff169050919050565b60006109f184846040516020016109dd919061232e565b6040516020818303038152906040526111bf565b905060006109fe856115e0565b90508073ffffffffffffffffffffffffffffffffffffffff16826040015173ffffffffffffffffffffffffffffffffffffffff16148015610a5b5750610a598173ffffffffffffffffffffffffffffffffffffffff16611613565b155b610a9a576040517f08c379a0000000000000000000000000000000000000000000000000000000008152600401610a9190612afc565b60405180910390fd5b610aa48284611636565b610aae8585611397565b60018260600151610abf9190612a6e565b60008087815260200190815260200160002060000160146101000a8154816bffffffffffffffffffffffff02191690836bffffffffffffffffffffffff1602179055505050505050565b6000610b348484604051602001610b20919061232e565b6040516020818303038152906040526111bf565b90506000610b42828461168c565b90506002811415610bac57610b578585611397565b60018260600151610b689190612a6e565b60008087815260200190815260200160002060000160146101000a8154816bffffffffffffffffffffffff02191690836bffffffffffffffffffffffff1602179055505b5050505050565b7f000000000000000000000000000000000000000000000000000000000000000081565b600073ffffffffffffffffffffffffffffffffffffffff16610bf76114f0565b73ffffffffffffffffffffffffffffffffffffffff1614610c4d576040517f08c379a0000000000000000000000000000000000000000000000000000000008152600401610c4490612b68565b60405180910390fd5b610c56826117f5565b610c5f81611523565b5050565b600080610cb48686868080601f016020809104026020016040519081016040528093929190818152602001838380828437600081840152601f19601f820116905080830192505050505050506111bf565b9050610cc08184611636565b6000610cec7f000000000000000000000000000000000000000000000000000000000000000088611801565b90506000341115610d0257610d0181346118be565b5b60008173ffffffffffffffffffffffffffffffffffffffff168787604051610d2b929190612bb8565b6000604051808303816000865af19150503d8060008114610d68576040519150601f19603f3d011682016040523d82523d6000602084013e610d6d565b606091505b5050905080610db1576040517f08c379a0000000000000000000000000000000000000000000000000000000008152600401610da890612c1d565b60405180910390fd5b60018360600151610dc29190612a6e565b6000808a815260200190815260200160002060000160146101000a8154816bffffffffffffffffffffffff02191690836bffffffffffffffffffffffff1602179055508173ffffffffffffffffffffffffffffffffffffffff16887fa4ec87efbdf333e464825b3a3a757dc501a72b53041a352de91a3fbdcdae650960405160405180910390a3819350505050949350505050565b610e5f6114f0565b73ffffffffffffffffffffffffffffffffffffffff163373ffffffffffffffffffffffffffffffffffffffff1614610ec3576040517f2f7a8ee100000000000000000000000000000000000000000000000000000000815260040160405180910390fd5b610ecc816117f5565b50565b6000610eea83604051806020016040528060008152506111bf565b9050610ef68183611636565b60018160600151610f079190612a6e565b60008085815260200190815260200160002060000160146101000a8154816bffffffffffffffffffffffff02191690836bffffffffffffffffffffffff160217905550505050565b6000610f7d7f360894a13ba1a3210667c828492db98dca3e2076cc3735a920a3ca505d382bbc60001b6119b2565b60000160009054906101000a900473ffffffffffffffffffffffffffffffffffffffff16905090565b610fae6114f0565b73ffffffffffffffffffffffffffffffffffffffff163373ffffffffffffffffffffffffffffffffffffffff1614611012576040517f2f7a8ee100000000000000000000000000000000000000000000000000000000815260040160405180910390fd5b50565b6110417f4910fdfa16fed3260ed0e7147f7cc6da11a60208b5b9406d12a635614ffd914360001b6119bc565b60000160009054906101000a900460ff161561106557611060836119c6565b61118d565b8273ffffffffffffffffffffffffffffffffffffffff166352d1902d6040518163ffffffff1660e01b815260040160206040518083038186803b1580156110ab57600080fd5b505afa9250505080156110dc57506040513d601f19601f820116820180604052508101906110d99190612c52565b60015b61111b576040517f08c379a000000000000000000000000000000000000000000000000000000000815260040161111290612cf1565b60405180910390fd5b7f360894a13ba1a3210667c828492db98dca3e2076cc3735a920a3ca505d382bbc60001b8114611180576040517f08c379a000000000000000000000000000000000000000000000000000000000815260040161117790612d83565b60405180910390fd5b5061118c838383611a7f565b5b505050565b6000807ff884206727a14387141eace3d812a8da620a47f4bcb60b011186e317fde6785890508091505090565b6111c76121fa565b60008060008581526020019081526020016000206040518060400160405290816000820160009054906101000a900473ffffffffffffffffffffffffffffffffffffffff1673ffffffffffffffffffffffffffffffffffffffff1673ffffffffffffffffffffffffffffffffffffffff1681526020016000820160149054906101000a90046bffffffffffffffffffffffff166bffffffffffffffffffffffff166bffffffffffffffffffffffff16815250509050600080357fffffffff000000000000000000000000000000000000000000000000000000001684304685602001516040516020016112be959493929190612e66565b60405160208183030381529060405280519060200120905060405180608001604052808681526020018281526020016112fb8785600001516114a3565b73ffffffffffffffffffffffffffffffffffffffff16815260200183602001516bffffffffffffffffffffffff168152509250505092915050565b6113408383611636565b61134981611aab565b611388576040517f08c379a000000000000000000000000000000000000000000000000000000000815260040161137f90612f0c565b60405180910390fd5b6113928382611abe565b505050565b600073ffffffffffffffffffffffffffffffffffffffff168173ffffffffffffffffffffffffffffffffffffffff161415611407576040517f08c379a00000000000000000000000000000000000000000000000000000000081526004016113fe90612f78565b60405180910390fd5b8060008084815260200190815260200160002060000160006101000a81548173ffffffffffffffffffffffffffffffffffffffff021916908373ffffffffffffffffffffffffffffffffffffffff1602179055508073ffffffffffffffffffffffffffffffffffffffff16827f9ea66a51baa076262b5c824021c8d0594003137dc336d820c66ae07e2bdc78a660405160405180910390a35050565b60008073ffffffffffffffffffffffffffffffffffffffff168273ffffffffffffffffffffffffffffffffffffffff16146114de57816114e8565b6114e7836115e0565b5b905092915050565b60006114fa611d56565b60000160009054906101000a900473ffffffffffffffffffffffffffffffffffffffff16905090565b600073ffffffffffffffffffffffffffffffffffffffff168173ffffffffffffffffffffffffffffffffffffffff161415611593576040517f08c379a000000000000000000000000000000000000000000000000000000000815260040161158a90612fe4565b60405180910390fd5b8061159c611192565b60000160006101000a81548173ffffffffffffffffffffffffffffffffffffffff021916908373ffffffffffffffffffffffffffffffffffffffff16021790555050565b600061160c7f000000000000000000000000000000000000000000000000000000000000000083611d83565b9050919050565b6000808273ffffffffffffffffffffffffffffffffffffffff163b119050919050565b61163f81611d98565b61167e576040517f08c379a000000000000000000000000000000000000000000000000000000000815260040161167590613050565b60405180910390fd5b6116888282611abe565b5050565b600080611697611192565b905060008160010160008660000151815260200190815260200160002060008660200151815260200190815260200160002060405180604001604052908160008201548152602001600182015481525050905060008160000151141561177c576117018585611636565b428260010160008760000151815260200190815260200160002060008760200151815260200190815260200160002060000181905550836020013582600101600087600001518152602001908152602001600020600087602001518152602001908152602001600020600101819055506001925050506117ef565b61178584611aab565b6117de576203f480816000015161179c9190613070565b42116117dd576040517f08c379a00000000000000000000000000000000000000000000000000000000081526004016117d490613112565b60405180910390fd5b5b6117e88585611abe565b6002925050505b92915050565b6117fe81611dac565b50565b6000763d602d80600a3d3981f3363d3d373d3d3d363d730000008360601b60e81c176000526e5af43d82803e903d91602b57fd5bf38360781b1760205281603760096000f59050600073ffffffffffffffffffffffffffffffffffffffff168173ffffffffffffffffffffffffffffffffffffffff1614156118b8576040517f08c379a00000000000000000000000000000000000000000000000000000000081526004016118af9061317e565b60405180910390fd5b92915050565b80471015611901576040517f08c379a00000000000000000000000000000000000000000000000000000000081526004016118f8906131ea565b60405180910390fd5b60008273ffffffffffffffffffffffffffffffffffffffff168260405161192790613230565b60006040518083038185875af1925050503d8060008114611964576040519150601f19603f3d011682016040523d82523d6000602084013e611969565b606091505b50509050806119ad576040517f08c379a00000000000000000000000000000000000000000000000000000000081526004016119a4906132b7565b60405180910390fd5b505050565b6000819050919050565b6000819050919050565b6119cf81611613565b611a0e576040517f08c379a0000000000000000000000000000000000000000000000000000000008152600401611a0590613349565b60405180910390fd5b80611a3b7f360894a13ba1a3210667c828492db98dca3e2076cc3735a920a3ca505d382bbc60001b6119b2565b60000160006101000a81548173ffffffffffffffffffffffffffffffffffffffff021916908373ffffffffffffffffffffffffffffffffffffffff16021790555050565b611a8883611e7d565b600082511180611a955750805b15611aa657611aa48383611ecc565b505b505050565b60008060001b8260200135149050919050565b428160000135108015611ae25750426203f4808260000135611ae09190613070565b115b611b21576040517f08c379a0000000000000000000000000000000000000000000000000000000008152600401611b18906133b5565b60405180910390fd5b600082600001518360200151836000013584602001358560400135604051602001611b509594939291906133d5565b60405160208183030381529060405280519060200120905060008060001b836020013514611b8657611b8183611ef9565b611b8c565b83604001515b90508073ffffffffffffffffffffffffffffffffffffffff16631626ba7e83858060600190611bbb9190613437565b6040518463ffffffff1660e01b8152600401611bd9939291906134c7565b60206040518083038186803b158015611bf157600080fd5b505afa925050508015611c2257506040513d601f19601f82011682018060405250810190611c1f9190613525565b60015b611cc857611c2e61355f565b806308c379a01415611c8b5750611c43613581565b80611c4e5750611c8d565b806040517f08c379a0000000000000000000000000000000000000000000000000000000008152600401611c82919061365b565b60405180910390fd5b505b6040517f08c379a0000000000000000000000000000000000000000000000000000000008152600401611cbf906136c9565b60405180910390fd5b631626ba7e60e01b7bffffffffffffffffffffffffffffffffffffffffffffffffffffffff1916817bffffffffffffffffffffffffffffffffffffffffffffffffffffffff191614611d4f576040517f08c379a0000000000000000000000000000000000000000000000000000000008152600401611d4690613735565b60405180910390fd5b5050505050565b6000807f8a22373512790c48b83a1fe2efdd2888d4a917bcdc24d0adf63e60f67168046090508091505090565b6000611d9083833061204d565b905092915050565b60008060001b826020013514159050919050565b6000611db6611d56565b90508173ffffffffffffffffffffffffffffffffffffffff168160000160009054906101000a900473ffffffffffffffffffffffffffffffffffffffff1673ffffffffffffffffffffffffffffffffffffffff167f8be0079c531659141344cd1fd0a4f28419497f9722a3daafe3b4186f6b6457e060405160405180910390a3818160000160006101000a81548173ffffffffffffffffffffffffffffffffffffffff021916908373ffffffffffffffffffffffffffffffffffffffff1602179055505050565b611e86816119c6565b8073ffffffffffffffffffffffffffffffffffffffff167fbc7cd75a20ee27fd9adebab32041f755214dbc6bffa90cc0225b39da2e5c2d3b60405160405180910390a250565b6060611ef18383604051806060016040528060278152602001613911602791396120ae565b905092915050565b600080604051806040016040528084602001358152602001846040013581525090506000611f25611192565b60000160009054906101000a900473ffffffffffffffffffffffffffffffffffffffff1673ffffffffffffffffffffffffffffffffffffffff1663d2f18f19836040518263ffffffff1660e01b8152600401611f819190613793565b60206040518083038186803b158015611f9957600080fd5b505afa158015611fad573d6000803e3d6000fd5b505050506040513d601f19601f82011682018060405250810190611fd191906137c3565b9050600073ffffffffffffffffffffffffffffffffffffffff168173ffffffffffffffffffffffffffffffffffffffff161415612043576040517f08c379a000000000000000000000000000000000000000000000000000000000815260040161203a9061383c565b60405180910390fd5b8092505050919050565b60006040518260388201526f5af43d82803e903d91602b57fd5bf3ff6024820152846014820152733d602d80600a3d3981f3363d3d373d3d3d363d7381528360588201526037600c8201206078820152605560438201209150509392505050565b60606000808573ffffffffffffffffffffffffffffffffffffffff16856040516120d8919061388d565b600060405180830381855af49150503d8060008114612113576040519150601f19603f3d011682016040523d82523d6000602084013e612118565b606091505b509150915061212986838387612134565b925050509392505050565b606083156121975760008351141561218f5761214f85611613565b61218e576040517f08c379a0000000000000000000000000000000000000000000000000000000008152600401612185906138f0565b60405180910390fd5b5b8290506121a2565b6121a183836121aa565b5b949350505050565b6000825111156121bd5781518083602001fd5b806040517f08c379a00000000000000000000000000000000000000000000000000000000081526004016121f1919061365b565b60405180910390fd5b60405180608001604052806000801916815260200160008019168152602001600073ffffffffffffffffffffffffffffffffffffffff16815260200160006bffffffffffffffffffffffff1681525090565b6000819050919050565b61225f8161224c565b82525050565b600060208201905061227a6000830184612256565b92915050565b6000604051905090565b600080fd5b600080fd5b600073ffffffffffffffffffffffffffffffffffffffff82169050919050565b60006122bf82612294565b9050919050565b6122cf816122b4565b81146122da57600080fd5b50565b6000813590506122ec816122c6565b92915050565b6000602082840312156123085761230761228a565b5b6000612316848285016122dd565b91505092915050565b612328816122b4565b82525050565b6000602082019050612343600083018461231f565b92915050565b600080fd5b600080fd5b6000601f19601f8301169050919050565b7f4e487b7100000000000000000000000000000000000000000000000000000000600052604160045260246000fd5b61239c82612353565b810181811067ffffffffffffffff821117156123bb576123ba612364565b5b80604052505050565b60006123ce612280565b90506123da8282612393565b919050565b600067ffffffffffffffff8211156123fa576123f9612364565b5b61240382612353565b9050602081019050919050565b82818337600083830152505050565b600061243261242d846123df565b6123c4565b90508281526020810184848401111561244e5761244d61234e565b5b612459848285612410565b509392505050565b600082601f83011261247657612475612349565b5b813561248684826020860161241f565b91505092915050565b600080604083850312156124a6576124a561228a565b5b60006124b4858286016122dd565b925050602083013567ffffffffffffffff8111156124d5576124d461228f565b5b6124e185828601612461565b9150509250929050565b6000819050919050565b6124fe816124eb565b82525050565b600060208201905061251960008301846124f5565b92915050565b612528816124eb565b811461253357600080fd5b50565b6000813590506125458161251f565b92915050565b600080fd5b6000608082840312156125665761256561254b565b5b81905092915050565b600080600080608085870312156125895761258861228a565b5b600061259787828801612536565b94505060206125a8878288016122dd565b935050604085013567ffffffffffffffff8111156125c9576125c861228f565b5b6125d587828801612550565b925050606085013567ffffffffffffffff8111156125f6576125f561228f565b5b61260287828801612550565b91505092959194509250565b6000602082840312156126245761262361228a565b5b600061263284828501612536565b91505092915050565b60006bffffffffffffffffffffffff82169050919050565b61265c8161263b565b82525050565b60006020820190506126776000830184612653565b92915050565b6000806000606084860312156126965761269561228a565b5b60006126a486828701612536565b93505060206126b5868287016122dd565b925050604084013567ffffffffffffffff8111156126d6576126d561228f565b5b6126e286828701612550565b9150509250925092565b600080604083850312156127035761270261228a565b5b6000612711858286016122dd565b9250506020612722858286016122dd565b9150509250929050565b600080fd5b600080fd5b60008083601f84011261274c5761274b612349565b5b8235905067ffffffffffffffff8111156127695761276861272c565b5b60208301915083600182028301111561278557612784612731565b5b9250929050565b600080600080606085870312156127a6576127a561228a565b5b60006127b487828801612536565b945050602085013567ffffffffffffffff8111156127d5576127d461228f565b5b6127e187828801612736565b9350935050604085013567ffffffffffffffff8111156128045761280361228f565b5b61281087828801612550565b91505092959194509250565b600080604083850312156128335761283261228a565b5b600061284185828601612536565b925050602083013567ffffffffffffffff8111156128625761286161228f565b5b61286e85828601612550565b9150509250929050565b600082825260208201905092915050565b7f46756e6374696f6e206d7573742062652063616c6c6564207468726f7567682060008201527f64656c656761746563616c6c0000000000000000000000000000000000000000602082015250565b60006128e5602c83612878565b91506128f082612889565b604082019050919050565b60006020820190508181036000830152612914816128d8565b9050919050565b7f46756e6374696f6e206d7573742062652063616c6c6564207468726f7567682060008201527f6163746976652070726f78790000000000000000000000000000000000000000602082015250565b6000612977602c83612878565b91506129828261291b565b604082019050919050565b600060208201905081810360008301526129a68161296a565b9050919050565b7f555550535570677261646561626c653a206d757374206e6f742062652063616c60008201527f6c6564207468726f7567682064656c656761746563616c6c0000000000000000602082015250565b6000612a09603883612878565b9150612a14826129ad565b604082019050919050565b60006020820190508181036000830152612a38816129fc565b9050919050565b7f4e487b7100000000000000000000000000000000000000000000000000000000600052601160045260246000fd5b6000612a798261263b565b9150612a848361263b565b9250826bffffffffffffffffffffffff03821115612aa557612aa4612a3f565b5b828201905092915050565b7f4845584c30303900000000000000000000000000000000000000000000000000600082015250565b6000612ae6600783612878565b9150612af182612ab0565b602082019050919050565b60006020820190508181036000830152612b1581612ad9565b9050919050565b7f4845584c30313500000000000000000000000000000000000000000000000000600082015250565b6000612b52600783612878565b9150612b5d82612b1c565b602082019050919050565b60006020820190508181036000830152612b8181612b45565b9050919050565b600081905092915050565b6000612b9f8385612b88565b9350612bac838584612410565b82840190509392505050565b6000612bc5828486612b93565b91508190509392505050565b7f4845584c30323200000000000000000000000000000000000000000000000000600082015250565b6000612c07600783612878565b9150612c1282612bd1565b602082019050919050565b60006020820190508181036000830152612c3681612bfa565b9050919050565b600081519050612c4c8161251f565b92915050565b600060208284031215612c6857612c6761228a565b5b6000612c7684828501612c3d565b91505092915050565b7f45524331393637557067726164653a206e657720696d706c656d656e7461746960008201527f6f6e206973206e6f742055555053000000000000000000000000000000000000602082015250565b6000612cdb602e83612878565b9150612ce682612c7f565b604082019050919050565b60006020820190508181036000830152612d0a81612cce565b9050919050565b7f45524331393637557067726164653a20756e737570706f727465642070726f7860008201527f6961626c65555549440000000000000000000000000000000000000000000000602082015250565b6000612d6d602983612878565b9150612d7882612d11565b604082019050919050565b60006020820190508181036000830152612d9c81612d60565b9050919050565b60007fffffffff0000000000000000000000000000000000000000000000000000000082169050919050565b612dd881612da3565b82525050565b600081519050919050565b600082825260208201905092915050565b60005b83811015612e18578082015181840152602081019050612dfd565b83811115612e27576000848401525b50505050565b6000612e3882612dde565b612e428185612de9565b9350612e52818560208601612dfa565b612e5b81612353565b840191505092915050565b600060a082019050612e7b6000830188612dcf565b8181036020830152612e8d8187612e2d565b9050612e9c604083018661231f565b612ea96060830185612256565b612eb66080830184612653565b9695505050505050565b7f4845584c30303400000000000000000000000000000000000000000000000000600082015250565b6000612ef6600783612878565b9150612f0182612ec0565b602082019050919050565b60006020820190508181036000830152612f2581612ee9565b9050919050565b7f4845584c30313200000000000000000000000000000000000000000000000000600082015250565b6000612f62600783612878565b9150612f6d82612f2c565b602082019050919050565b60006020820190508181036000830152612f9181612f55565b9050919050565b7f4845584c30323000000000000000000000000000000000000000000000000000600082015250565b6000612fce600783612878565b9150612fd982612f98565b602082019050919050565b60006020820190508181036000830152612ffd81612fc1565b9050919050565b7f4845584c30303300000000000000000000000000000000000000000000000000600082015250565b600061303a600783612878565b915061304582613004565b602082019050919050565b600060208201905081810360008301526130698161302d565b9050919050565b600061307b8261224c565b91506130868361224c565b9250827fffffffffffffffffffffffffffffffffffffffffffffffffffffffffffffffff038211156130bb576130ba612a3f565b5b828201905092915050565b7f4845584c30303500000000000000000000000000000000000000000000000000600082015250565b60006130fc600783612878565b9150613107826130c6565b602082019050919050565b6000602082019050818103600083015261312b816130ef565b9050919050565b7f455243313136373a2063726561746532206661696c6564000000000000000000600082015250565b6000613168601783612878565b915061317382613132565b602082019050919050565b600060208201905081810360008301526131978161315b565b9050919050565b7f416464726573733a20696e73756666696369656e742062616c616e6365000000600082015250565b60006131d4601d83612878565b91506131df8261319e565b602082019050919050565b60006020820190508181036000830152613203816131c7565b9050919050565b50565b600061321a600083612b88565b91506132258261320a565b600082019050919050565b600061323b8261320d565b9150819050919050565b7f416464726573733a20756e61626c6520746f2073656e642076616c75652c207260008201527f6563697069656e74206d61792068617665207265766572746564000000000000602082015250565b60006132a1603a83612878565b91506132ac82613245565b604082019050919050565b600060208201905081810360008301526132d081613294565b9050919050565b7f455243313936373a206e657720696d706c656d656e746174696f6e206973206e60008201527f6f74206120636f6e747261637400000000000000000000000000000000000000602082015250565b6000613333602d83612878565b915061333e826132d7565b604082019050919050565b6000602082019050818103600083015261336281613326565b9050919050565b7f4845584c30303600000000000000000000000000000000000000000000000000600082015250565b600061339f600783612878565b91506133aa82613369565b602082019050919050565b600060208201905081810360008301526133ce81613392565b9050919050565b600060a0820190506133ea60008301886124f5565b6133f760208301876124f5565b6134046040830186612256565b61341160608301856124f5565b61341e60808301846124f5565b9695505050505050565b600080fd5b600080fd5b600080fd5b6000808335600160200384360303811261345457613453613428565b5b80840192508235915067ffffffffffffffff8211156134765761347561342d565b5b60208301925060018202360383131561349257613491613432565b5b509250929050565b60006134a68385612de9565b93506134b3838584612410565b6134bc83612353565b840190509392505050565b60006040820190506134dc60008301866124f5565b81810360208301526134ef81848661349a565b9050949350505050565b61350281612da3565b811461350d57600080fd5b50565b60008151905061351f816134f9565b92915050565b60006020828403121561353b5761353a61228a565b5b600061354984828501613510565b91505092915050565b60008160e01c9050919050565b600060033d111561357e5760046000803e61357b600051613552565b90505b90565b600060443d101561359157613614565b613599612280565b60043d036004823e80513d602482011167ffffffffffffffff821117156135c1575050613614565b808201805167ffffffffffffffff8111156135df5750505050613614565b80602083010160043d0385018111156135fc575050505050613614565b61360b82602001850186612393565b82955050505050505b90565b600081519050919050565b600061362d82613617565b6136378185612878565b9350613647818560208601612dfa565b61365081612353565b840191505092915050565b600060208201905081810360008301526136758184613622565b905092915050565b7f4845584c30303800000000000000000000000000000000000000000000000000600082015250565b60006136b3600783612878565b91506136be8261367d565b602082019050919050565b600060208201905081810360008301526136e2816136a6565b9050919050565b7f4845584c30303700000000000000000000000000000000000000000000000000600082015250565b600061371f600783612878565b915061372a826136e9565b602082019050919050565b6000602082019050818103600083015261374e81613712565b9050919050565b61375e816124eb565b82525050565b60408201600082015161377a6000850182613755565b50602082015161378d6020850182613755565b50505050565b60006040820190506137a86000830184613764565b92915050565b6000815190506137bd816122c6565b92915050565b6000602082840312156137d9576137d861228a565b5b60006137e7848285016137ae565b91505092915050565b7f4845584c30313700000000000000000000000000000000000000000000000000600082015250565b6000613826600783612878565b9150613831826137f0565b602082019050919050565b6000602082019050818103600083015261385581613819565b9050919050565b600061386782612dde565b6138718185612b88565b9350613881818560208601612dfa565b80840191505092915050565b6000613899828461385c565b915081905092915050565b7f416464726573733a2063616c6c20746f206e6f6e2d636f6e7472616374000000600082015250565b60006138da601d83612878565b91506138e5826138a4565b602082019050919050565b60006020820190508181036000830152613909816138cd565b905091905056fe416464726573733a206c6f772d6c6576656c2064656c65676174652063616c6c206661696c6564a264697066735822122005a3483d9501571be182adcf5a31eb4b03f6d942973da1c1ebf37917d73021e764736f6c63430008080033",
  "devdoc": {
    "kind": "dev",
    "methods": {
      "owner()": {
        "returns": {
          "_0": "conrtact owner"
        }
      },
      "proxiableUUID()": {
        "details": "Implementation of the ERC1822 {proxiableUUID} function. This returns the storage slot used by the implementation. It is used to validate the implementation's compatibility when performing an upgrade. IMPORTANT: A proxy pointing at a proxiable contract should not be considered proxiable itself, because this risks bricking a proxy that upgrades to it, by delegating to itself until out of gas. Thus it is critical that this function revert if invoked through a proxy. This is guaranteed by the `notDelegated` modifier."
      },
      "transferOwnership(address)": {
        "params": {
          "account": "address of new owner"
        }
      },
      "upgradeTo(address)": {
        "details": "Upgrade the implementation of the proxy to `newImplementation`. Calls {_authorizeUpgrade}. Emits an {Upgraded} event."
      },
      "upgradeToAndCall(address,bytes)": {
        "details": "Upgrade the implementation of the proxy to `newImplementation`, and subsequently execute the function call encoded in `data`. Calls {_authorizeUpgrade}. Emits an {Upgraded} event."
      }
    },
    "version": 1
  },
  "userdoc": {
    "kind": "user",
    "methods": {
      "owner()": {
        "notice": "get the ERC173 contract owner"
      },
      "transferOwnership(address)": {
        "notice": "transfer contract ownership to new account"
      }
    },
    "version": 1
  },
  "storageLayout": {
    "storage": [
      {
        "astId": 2221,
        "contract": "contracts/hexlink/HexlinkUpgradeable.sol:HexlinkUpgradeable",
        "label": "states",
        "offset": 0,
        "slot": "0",
        "type": "t_mapping(t_bytes32,t_struct(AccountState)2199_storage)"
      }
    ],
    "types": {
      "t_address": {
        "encoding": "inplace",
        "label": "address",
        "numberOfBytes": "20"
      },
      "t_bytes32": {
        "encoding": "inplace",
        "label": "bytes32",
        "numberOfBytes": "32"
      },
      "t_mapping(t_bytes32,t_struct(AccountState)2199_storage)": {
        "encoding": "mapping",
        "key": "t_bytes32",
        "label": "mapping(bytes32 => struct Hexlink.AccountState)",
        "numberOfBytes": "32",
        "value": "t_struct(AccountState)2199_storage"
      },
      "t_struct(AccountState)2199_storage": {
        "encoding": "inplace",
        "label": "struct Hexlink.AccountState",
        "members": [
          {
            "astId": 2196,
            "contract": "contracts/hexlink/HexlinkUpgradeable.sol:HexlinkUpgradeable",
            "label": "account",
            "offset": 0,
            "slot": "0",
            "type": "t_address"
          },
          {
            "astId": 2198,
            "contract": "contracts/hexlink/HexlinkUpgradeable.sol:HexlinkUpgradeable",
            "label": "nonce",
            "offset": 20,
            "slot": "0",
            "type": "t_uint96"
          }
        ],
        "numberOfBytes": "32"
      },
      "t_uint96": {
        "encoding": "inplace",
        "label": "uint96",
        "numberOfBytes": "12"
      }
    }
  }
}