{
  "address": "0x4d4b3D9c0Cc5F74eC459a1345fcd59206cd20e3f",
  "abi": [
    {
      "inputs": [],
      "stateMutability": "nonpayable",
      "type": "constructor"
    },
    {
      "anonymous": false,
      "inputs": [
        {
          "indexed": true,
          "internalType": "address",
          "name": "owner",
          "type": "address"
        },
        {
          "indexed": true,
          "internalType": "address",
          "name": "approved",
          "type": "address"
        },
        {
          "indexed": true,
          "internalType": "uint256",
          "name": "tokenId",
          "type": "uint256"
        }
      ],
      "name": "Approval",
      "type": "event"
    },
    {
      "anonymous": false,
      "inputs": [
        {
          "indexed": true,
          "internalType": "address",
          "name": "owner",
          "type": "address"
        },
        {
          "indexed": true,
          "internalType": "address",
          "name": "operator",
          "type": "address"
        },
        {
          "indexed": false,
          "internalType": "bool",
          "name": "approved",
          "type": "bool"
        }
      ],
      "name": "ApprovalForAll",
      "type": "event"
    },
    {
      "anonymous": false,
      "inputs": [
        {
          "indexed": true,
          "internalType": "address",
          "name": "from",
          "type": "address"
        },
        {
          "indexed": true,
          "internalType": "address",
          "name": "to",
          "type": "address"
        },
        {
          "indexed": true,
          "internalType": "uint256",
          "name": "tokenId",
          "type": "uint256"
        }
      ],
      "name": "Transfer",
      "type": "event"
    },
    {
      "inputs": [
        {
          "internalType": "address",
          "name": "to",
          "type": "address"
        },
        {
          "internalType": "uint256",
          "name": "tokenId",
          "type": "uint256"
        }
      ],
      "name": "approve",
      "outputs": [],
      "stateMutability": "nonpayable",
      "type": "function"
    },
    {
      "inputs": [
        {
          "internalType": "address",
          "name": "owner",
          "type": "address"
        }
      ],
      "name": "balanceOf",
      "outputs": [
        {
          "internalType": "uint256",
          "name": "",
          "type": "uint256"
        }
      ],
      "stateMutability": "view",
      "type": "function"
    },
    {
      "inputs": [],
      "name": "baseTokenURI",
      "outputs": [
        {
          "internalType": "string",
          "name": "",
          "type": "string"
        }
      ],
      "stateMutability": "view",
      "type": "function"
    },
    {
      "inputs": [
        {
          "internalType": "uint256",
          "name": "tokenId",
          "type": "uint256"
        }
      ],
      "name": "getApproved",
      "outputs": [
        {
          "internalType": "address",
          "name": "",
          "type": "address"
        }
      ],
      "stateMutability": "view",
      "type": "function"
    },
    {
      "inputs": [
        {
          "internalType": "address",
          "name": "owner",
          "type": "address"
        },
        {
          "internalType": "address",
          "name": "operator",
          "type": "address"
        }
      ],
      "name": "isApprovedForAll",
      "outputs": [
        {
          "internalType": "bool",
          "name": "",
          "type": "bool"
        }
      ],
      "stateMutability": "view",
      "type": "function"
    },
    {
      "inputs": [
        {
          "internalType": "address",
          "name": "recipient",
          "type": "address"
        }
      ],
      "name": "mintTo",
      "outputs": [
        {
          "internalType": "uint256",
          "name": "",
          "type": "uint256"
        }
      ],
      "stateMutability": "nonpayable",
      "type": "function"
    },
    {
      "inputs": [],
      "name": "name",
      "outputs": [
        {
          "internalType": "string",
          "name": "",
          "type": "string"
        }
      ],
      "stateMutability": "view",
      "type": "function"
    },
    {
      "inputs": [
        {
          "internalType": "uint256",
          "name": "tokenId",
          "type": "uint256"
        }
      ],
      "name": "ownerOf",
      "outputs": [
        {
          "internalType": "address",
          "name": "",
          "type": "address"
        }
      ],
      "stateMutability": "view",
      "type": "function"
    },
    {
      "inputs": [
        {
          "internalType": "address",
          "name": "from",
          "type": "address"
        },
        {
          "internalType": "address",
          "name": "to",
          "type": "address"
        },
        {
          "internalType": "uint256",
          "name": "tokenId",
          "type": "uint256"
        }
      ],
      "name": "safeTransferFrom",
      "outputs": [],
      "stateMutability": "nonpayable",
      "type": "function"
    },
    {
      "inputs": [
        {
          "internalType": "address",
          "name": "from",
          "type": "address"
        },
        {
          "internalType": "address",
          "name": "to",
          "type": "address"
        },
        {
          "internalType": "uint256",
          "name": "tokenId",
          "type": "uint256"
        },
        {
          "internalType": "bytes",
          "name": "data",
          "type": "bytes"
        }
      ],
      "name": "safeTransferFrom",
      "outputs": [],
      "stateMutability": "nonpayable",
      "type": "function"
    },
    {
      "inputs": [
        {
          "internalType": "address",
          "name": "operator",
          "type": "address"
        },
        {
          "internalType": "bool",
          "name": "approved",
          "type": "bool"
        }
      ],
      "name": "setApprovalForAll",
      "outputs": [],
      "stateMutability": "nonpayable",
      "type": "function"
    },
    {
      "inputs": [
        {
          "internalType": "string",
          "name": "_baseTokenURI",
          "type": "string"
        }
      ],
      "name": "setBaseTokenURI",
      "outputs": [],
      "stateMutability": "nonpayable",
      "type": "function"
    },
    {
      "inputs": [
        {
          "internalType": "bytes4",
          "name": "interfaceId",
          "type": "bytes4"
        }
      ],
      "name": "supportsInterface",
      "outputs": [
        {
          "internalType": "bool",
          "name": "",
          "type": "bool"
        }
      ],
      "stateMutability": "view",
      "type": "function"
    },
    {
      "inputs": [],
      "name": "symbol",
      "outputs": [
        {
          "internalType": "string",
          "name": "",
          "type": "string"
        }
      ],
      "stateMutability": "view",
      "type": "function"
    },
    {
      "inputs": [
        {
          "internalType": "uint256",
          "name": "tokenId",
          "type": "uint256"
        }
      ],
      "name": "tokenURI",
      "outputs": [
        {
          "internalType": "string",
          "name": "",
          "type": "string"
        }
      ],
      "stateMutability": "view",
      "type": "function"
    },
    {
      "inputs": [
        {
          "internalType": "address",
          "name": "from",
          "type": "address"
        },
        {
          "internalType": "address",
          "name": "to",
          "type": "address"
        },
        {
          "internalType": "uint256",
          "name": "tokenId",
          "type": "uint256"
        }
      ],
      "name": "transferFrom",
      "outputs": [],
      "stateMutability": "nonpayable",
      "type": "function"
    }
  ],
  "transactionHash": "0x8d2968cd477883747a77b74856c846efb66b86fd7e5578c7cbaadcc680c69389",
  "args": [],
  "numDeployments": 1,
  "solcInputHash": "66f81f85fa58eb5ab3b4a52aa9c68636",
  "bytecode": "0x60806040523480156200001157600080fd5b506040518060400160405280600a81526020017f4865786c696e6b4e4654000000000000000000000000000000000000000000008152506040518060400160405280600681526020017f4845584e46540000000000000000000000000000000000000000000000000000815250816000908051906020019062000096929190620000ea565b508060019080519060200190620000af929190620000ea565b5050506040518060800160405280605c815260200162002c3c605c913960079080519060200190620000e3929190620000ea565b50620001ff565b828054620000f890620001c9565b90600052602060002090601f0160209004810192826200011c576000855562000168565b82601f106200013757805160ff191683800117855562000168565b8280016001018555821562000168579182015b82811115620001675782518255916020019190600101906200014a565b5b5090506200017791906200017b565b5090565b5b80821115620001965760008160009055506001016200017c565b5090565b7f4e487b7100000000000000000000000000000000000000000000000000000000600052602260045260246000fd5b60006002820490506001821680620001e257607f821691505b60208210811415620001f957620001f86200019a565b5b50919050565b612a2d806200020f6000396000f3fe608060405234801561001057600080fd5b50600436106101005760003560e01c806370a0823111610097578063b88d4fde11610066578063b88d4fde146102bd578063c87b56dd146102d9578063d547cfb714610309578063e985e9c51461032757610100565b806370a0823114610223578063755edd171461025357806395d89b4114610283578063a22cb465146102a157610100565b806323b872dd116100d357806323b872dd1461019f57806330176e13146101bb57806342842e0e146101d75780636352211e146101f357610100565b806301ffc9a71461010557806306fdde0314610135578063081812fc14610153578063095ea7b314610183575b600080fd5b61011f600480360381019061011a9190611b7c565b610357565b60405161012c9190611bc4565b60405180910390f35b61013d610439565b60405161014a9190611c78565b60405180910390f35b61016d60048036038101906101689190611cd0565b6104cb565b60405161017a9190611d3e565b60405180910390f35b61019d60048036038101906101989190611d85565b610511565b005b6101b960048036038101906101b49190611dc5565b610629565b005b6101d560048036038101906101d09190611f4d565b610689565b005b6101f160048036038101906101ec9190611dc5565b6106a3565b005b61020d60048036038101906102089190611cd0565b6106c3565b60405161021a9190611d3e565b60405180910390f35b61023d60048036038101906102389190611f96565b61074a565b60405161024a9190611fd2565b60405180910390f35b61026d60048036038101906102689190611f96565b610802565b60405161027a9190611fd2565b60405180910390f35b61028b61082f565b6040516102989190611c78565b60405180910390f35b6102bb60048036038101906102b69190612019565b6108c1565b005b6102d760048036038101906102d291906120fa565b6108d7565b005b6102f360048036038101906102ee9190611cd0565b610939565b6040516103009190611c78565b60405180910390f35b6103116109a1565b60405161031e9190611c78565b60405180910390f35b610341600480360381019061033c919061217d565b610a2f565b60405161034e9190611bc4565b60405180910390f35b60007f80ac58cd000000000000000000000000000000000000000000000000000000007bffffffffffffffffffffffffffffffffffffffffffffffffffffffff1916827bffffffffffffffffffffffffffffffffffffffffffffffffffffffff1916148061042257507f5b5e139f000000000000000000000000000000000000000000000000000000007bffffffffffffffffffffffffffffffffffffffffffffffffffffffff1916827bffffffffffffffffffffffffffffffffffffffffffffffffffffffff1916145b80610432575061043182610ac3565b5b9050919050565b606060008054610448906121ec565b80601f0160208091040260200160405190810160405280929190818152602001828054610474906121ec565b80156104c15780601f10610496576101008083540402835291602001916104c1565b820191906000526020600020905b8154815290600101906020018083116104a457829003601f168201915b5050505050905090565b60006104d682610b2d565b6004600083815260200190815260200160002060009054906101000a900473ffffffffffffffffffffffffffffffffffffffff169050919050565b600061051c826106c3565b90508073ffffffffffffffffffffffffffffffffffffffff168373ffffffffffffffffffffffffffffffffffffffff16141561058d576040517f08c379a000000000000000000000000000000000000000000000000000000000815260040161058490612290565b60405180910390fd5b8073ffffffffffffffffffffffffffffffffffffffff166105ac610b78565b73ffffffffffffffffffffffffffffffffffffffff1614806105db57506105da816105d5610b78565b610a2f565b5b61061a576040517f08c379a000000000000000000000000000000000000000000000000000000000815260040161061190612322565b60405180910390fd5b6106248383610b80565b505050565b61063a610634610b78565b82610c39565b610679576040517f08c379a0000000000000000000000000000000000000000000000000000000008152600401610670906123b4565b60405180910390fd5b610684838383610cce565b505050565b806007908051906020019061069f929190611a6d565b5050565b6106be838383604051806020016040528060008152506108d7565b505050565b6000806106cf83610fc8565b9050600073ffffffffffffffffffffffffffffffffffffffff168173ffffffffffffffffffffffffffffffffffffffff161415610741576040517f08c379a000000000000000000000000000000000000000000000000000000000815260040161073890612420565b60405180910390fd5b80915050919050565b60008073ffffffffffffffffffffffffffffffffffffffff168273ffffffffffffffffffffffffffffffffffffffff1614156107bb576040517f08c379a00000000000000000000000000000000000000000000000000000000081526004016107b2906124b2565b60405180910390fd5b600360008373ffffffffffffffffffffffffffffffffffffffff1673ffffffffffffffffffffffffffffffffffffffff168152602001908152602001600020549050919050565b600061080e6006611005565b600061081a600661101b565b90506108268382611029565b80915050919050565b60606001805461083e906121ec565b80601f016020809104026020016040519081016040528092919081815260200182805461086a906121ec565b80156108b75780601f1061088c576101008083540402835291602001916108b7565b820191906000526020600020905b81548152906001019060200180831161089a57829003601f168201915b5050505050905090565b6108d36108cc610b78565b8383611047565b5050565b6108e86108e2610b78565b83610c39565b610927576040517f08c379a000000000000000000000000000000000000000000000000000000000815260040161091e906123b4565b60405180910390fd5b610933848484846111b4565b50505050565b606061094482610b2d565b600061094e611210565b9050600081511161096e5760405180602001604052806000815250610999565b80610978846112a2565b60405160200161098992919061250e565b6040516020818303038152906040525b915050919050565b600780546109ae906121ec565b80601f01602080910402602001604051908101604052809291908181526020018280546109da906121ec565b8015610a275780601f106109fc57610100808354040283529160200191610a27565b820191906000526020600020905b815481529060010190602001808311610a0a57829003601f168201915b505050505081565b6000600560008473ffffffffffffffffffffffffffffffffffffffff1673ffffffffffffffffffffffffffffffffffffffff16815260200190815260200160002060008373ffffffffffffffffffffffffffffffffffffffff1673ffffffffffffffffffffffffffffffffffffffff16815260200190815260200160002060009054906101000a900460ff16905092915050565b60007f01ffc9a7000000000000000000000000000000000000000000000000000000007bffffffffffffffffffffffffffffffffffffffffffffffffffffffff1916827bffffffffffffffffffffffffffffffffffffffffffffffffffffffff1916149050919050565b610b368161137a565b610b75576040517f08c379a0000000000000000000000000000000000000000000000000000000008152600401610b6c90612420565b60405180910390fd5b50565b600033905090565b816004600083815260200190815260200160002060006101000a81548173ffffffffffffffffffffffffffffffffffffffff021916908373ffffffffffffffffffffffffffffffffffffffff160217905550808273ffffffffffffffffffffffffffffffffffffffff16610bf3836106c3565b73ffffffffffffffffffffffffffffffffffffffff167f8c5be1e5ebec7d5bd14f71427d1e84f3dd0314c0f7b2291e5b200ac8c7c3b92560405160405180910390a45050565b600080610c45836106c3565b90508073ffffffffffffffffffffffffffffffffffffffff168473ffffffffffffffffffffffffffffffffffffffff161480610c875750610c868185610a2f565b5b80610cc557508373ffffffffffffffffffffffffffffffffffffffff16610cad846104cb565b73ffffffffffffffffffffffffffffffffffffffff16145b91505092915050565b8273ffffffffffffffffffffffffffffffffffffffff16610cee826106c3565b73ffffffffffffffffffffffffffffffffffffffff1614610d44576040517f08c379a0000000000000000000000000000000000000000000000000000000008152600401610d3b906125a4565b60405180910390fd5b600073ffffffffffffffffffffffffffffffffffffffff168273ffffffffffffffffffffffffffffffffffffffff161415610db4576040517f08c379a0000000000000000000000000000000000000000000000000000000008152600401610dab90612636565b60405180910390fd5b610dc183838360016113bb565b8273ffffffffffffffffffffffffffffffffffffffff16610de1826106c3565b73ffffffffffffffffffffffffffffffffffffffff1614610e37576040517f08c379a0000000000000000000000000000000000000000000000000000000008152600401610e2e906125a4565b60405180910390fd5b6004600082815260200190815260200160002060006101000a81549073ffffffffffffffffffffffffffffffffffffffff02191690556001600360008573ffffffffffffffffffffffffffffffffffffffff1673ffffffffffffffffffffffffffffffffffffffff168152602001908152602001600020600082825403925050819055506001600360008473ffffffffffffffffffffffffffffffffffffffff1673ffffffffffffffffffffffffffffffffffffffff16815260200190815260200160002060008282540192505081905550816002600083815260200190815260200160002060006101000a81548173ffffffffffffffffffffffffffffffffffffffff021916908373ffffffffffffffffffffffffffffffffffffffff160217905550808273ffffffffffffffffffffffffffffffffffffffff168473ffffffffffffffffffffffffffffffffffffffff167fddf252ad1be2c89b69c2b068fc378daa952ba7f163c4a11628f55a4df523b3ef60405160405180910390a4610fc383838360016114e1565b505050565b60006002600083815260200190815260200160002060009054906101000a900473ffffffffffffffffffffffffffffffffffffffff169050919050565b6001816000016000828254019250508190555050565b600081600001549050919050565b6110438282604051806020016040528060008152506114e7565b5050565b8173ffffffffffffffffffffffffffffffffffffffff168373ffffffffffffffffffffffffffffffffffffffff1614156110b6576040517f08c379a00000000000000000000000000000000000000000000000000000000081526004016110ad906126a2565b60405180910390fd5b80600560008573ffffffffffffffffffffffffffffffffffffffff1673ffffffffffffffffffffffffffffffffffffffff16815260200190815260200160002060008473ffffffffffffffffffffffffffffffffffffffff1673ffffffffffffffffffffffffffffffffffffffff16815260200190815260200160002060006101000a81548160ff0219169083151502179055508173ffffffffffffffffffffffffffffffffffffffff168373ffffffffffffffffffffffffffffffffffffffff167f17307eab39ab6107e8899845ad3d59bd9653f200f220920489ca2b5937696c31836040516111a79190611bc4565b60405180910390a3505050565b6111bf848484610cce565b6111cb84848484611542565b61120a576040517f08c379a000000000000000000000000000000000000000000000000000000000815260040161120190612734565b60405180910390fd5b50505050565b60606007805461121f906121ec565b80601f016020809104026020016040519081016040528092919081815260200182805461124b906121ec565b80156112985780601f1061126d57610100808354040283529160200191611298565b820191906000526020600020905b81548152906001019060200180831161127b57829003601f168201915b5050505050905090565b6060600060016112b1846116d9565b01905060008167ffffffffffffffff8111156112d0576112cf611e22565b5b6040519080825280601f01601f1916602001820160405280156113025781602001600182028036833780820191505090505b509050600082602001820190505b60011561136f578080600190039150507f3031323334353637383961626364656600000000000000000000000000000000600a86061a8153600a858161135957611358612754565b5b049450600085141561136a5761136f565b611310565b819350505050919050565b60008073ffffffffffffffffffffffffffffffffffffffff1661139c83610fc8565b73ffffffffffffffffffffffffffffffffffffffff1614159050919050565b60018111156114db57600073ffffffffffffffffffffffffffffffffffffffff168473ffffffffffffffffffffffffffffffffffffffff161461144f5780600360008673ffffffffffffffffffffffffffffffffffffffff1673ffffffffffffffffffffffffffffffffffffffff168152602001908152602001600020600082825461144791906127b2565b925050819055505b600073ffffffffffffffffffffffffffffffffffffffff168373ffffffffffffffffffffffffffffffffffffffff16146114da5780600360008573ffffffffffffffffffffffffffffffffffffffff1673ffffffffffffffffffffffffffffffffffffffff16815260200190815260200160002060008282546114d291906127e6565b925050819055505b5b50505050565b50505050565b6114f1838361182c565b6114fe6000848484611542565b61153d576040517f08c379a000000000000000000000000000000000000000000000000000000000815260040161153490612734565b60405180910390fd5b505050565b60006115638473ffffffffffffffffffffffffffffffffffffffff16611a4a565b156116cc578373ffffffffffffffffffffffffffffffffffffffff1663150b7a0261158c610b78565b8786866040518563ffffffff1660e01b81526004016115ae9493929190612891565b602060405180830381600087803b1580156115c857600080fd5b505af19250505080156115f957506040513d601f19601f820116820180604052508101906115f691906128f2565b60015b61167c573d8060008114611629576040519150601f19603f3d011682016040523d82523d6000602084013e61162e565b606091505b50600081511415611674576040517f08c379a000000000000000000000000000000000000000000000000000000000815260040161166b90612734565b60405180910390fd5b805181602001fd5b63150b7a0260e01b7bffffffffffffffffffffffffffffffffffffffffffffffffffffffff1916817bffffffffffffffffffffffffffffffffffffffffffffffffffffffff1916149150506116d1565b600190505b949350505050565b600080600090507a184f03e93ff9f4daa797ed6e38ed64bf6a1f0100000000000000008310611737577a184f03e93ff9f4daa797ed6e38ed64bf6a1f010000000000000000838161172d5761172c612754565b5b0492506040810190505b6d04ee2d6d415b85acef81000000008310611774576d04ee2d6d415b85acef8100000000838161176a57611769612754565b5b0492506020810190505b662386f26fc1000083106117a357662386f26fc10000838161179957611798612754565b5b0492506010810190505b6305f5e10083106117cc576305f5e10083816117c2576117c1612754565b5b0492506008810190505b61271083106117f15761271083816117e7576117e6612754565b5b0492506004810190505b60648310611814576064838161180a57611809612754565b5b0492506002810190505b600a8310611823576001810190505b80915050919050565b600073ffffffffffffffffffffffffffffffffffffffff168273ffffffffffffffffffffffffffffffffffffffff16141561189c576040517f08c379a00000000000000000000000000000000000000000000000000000000081526004016118939061296b565b60405180910390fd5b6118a58161137a565b156118e5576040517f08c379a00000000000000000000000000000000000000000000000000000000081526004016118dc906129d7565b60405180910390fd5b6118f36000838360016113bb565b6118fc8161137a565b1561193c576040517f08c379a0000000000000000000000000000000000000000000000000000000008152600401611933906129d7565b60405180910390fd5b6001600360008473ffffffffffffffffffffffffffffffffffffffff1673ffffffffffffffffffffffffffffffffffffffff16815260200190815260200160002060008282540192505081905550816002600083815260200190815260200160002060006101000a81548173ffffffffffffffffffffffffffffffffffffffff021916908373ffffffffffffffffffffffffffffffffffffffff160217905550808273ffffffffffffffffffffffffffffffffffffffff16600073ffffffffffffffffffffffffffffffffffffffff167fddf252ad1be2c89b69c2b068fc378daa952ba7f163c4a11628f55a4df523b3ef60405160405180910390a4611a466000838360016114e1565b5050565b6000808273ffffffffffffffffffffffffffffffffffffffff163b119050919050565b828054611a79906121ec565b90600052602060002090601f016020900481019282611a9b5760008555611ae2565b82601f10611ab457805160ff1916838001178555611ae2565b82800160010185558215611ae2579182015b82811115611ae1578251825591602001919060010190611ac6565b5b509050611aef9190611af3565b5090565b5b80821115611b0c576000816000905550600101611af4565b5090565b6000604051905090565b600080fd5b600080fd5b60007fffffffff0000000000000000000000000000000000000000000000000000000082169050919050565b611b5981611b24565b8114611b6457600080fd5b50565b600081359050611b7681611b50565b92915050565b600060208284031215611b9257611b91611b1a565b5b6000611ba084828501611b67565b91505092915050565b60008115159050919050565b611bbe81611ba9565b82525050565b6000602082019050611bd96000830184611bb5565b92915050565b600081519050919050565b600082825260208201905092915050565b60005b83811015611c19578082015181840152602081019050611bfe565b83811115611c28576000848401525b50505050565b6000601f19601f8301169050919050565b6000611c4a82611bdf565b611c548185611bea565b9350611c64818560208601611bfb565b611c6d81611c2e565b840191505092915050565b60006020820190508181036000830152611c928184611c3f565b905092915050565b6000819050919050565b611cad81611c9a565b8114611cb857600080fd5b50565b600081359050611cca81611ca4565b92915050565b600060208284031215611ce657611ce5611b1a565b5b6000611cf484828501611cbb565b91505092915050565b600073ffffffffffffffffffffffffffffffffffffffff82169050919050565b6000611d2882611cfd565b9050919050565b611d3881611d1d565b82525050565b6000602082019050611d536000830184611d2f565b92915050565b611d6281611d1d565b8114611d6d57600080fd5b50565b600081359050611d7f81611d59565b92915050565b60008060408385031215611d9c57611d9b611b1a565b5b6000611daa85828601611d70565b9250506020611dbb85828601611cbb565b9150509250929050565b600080600060608486031215611dde57611ddd611b1a565b5b6000611dec86828701611d70565b9350506020611dfd86828701611d70565b9250506040611e0e86828701611cbb565b9150509250925092565b600080fd5b600080fd5b7f4e487b7100000000000000000000000000000000000000000000000000000000600052604160045260246000fd5b611e5a82611c2e565b810181811067ffffffffffffffff82111715611e7957611e78611e22565b5b80604052505050565b6000611e8c611b10565b9050611e988282611e51565b919050565b600067ffffffffffffffff821115611eb857611eb7611e22565b5b611ec182611c2e565b9050602081019050919050565b82818337600083830152505050565b6000611ef0611eeb84611e9d565b611e82565b905082815260208101848484011115611f0c57611f0b611e1d565b5b611f17848285611ece565b509392505050565b600082601f830112611f3457611f33611e18565b5b8135611f44848260208601611edd565b91505092915050565b600060208284031215611f6357611f62611b1a565b5b600082013567ffffffffffffffff811115611f8157611f80611b1f565b5b611f8d84828501611f1f565b91505092915050565b600060208284031215611fac57611fab611b1a565b5b6000611fba84828501611d70565b91505092915050565b611fcc81611c9a565b82525050565b6000602082019050611fe76000830184611fc3565b92915050565b611ff681611ba9565b811461200157600080fd5b50565b60008135905061201381611fed565b92915050565b600080604083850312156120305761202f611b1a565b5b600061203e85828601611d70565b925050602061204f85828601612004565b9150509250929050565b600067ffffffffffffffff82111561207457612073611e22565b5b61207d82611c2e565b9050602081019050919050565b600061209d61209884612059565b611e82565b9050828152602081018484840111156120b9576120b8611e1d565b5b6120c4848285611ece565b509392505050565b600082601f8301126120e1576120e0611e18565b5b81356120f184826020860161208a565b91505092915050565b6000806000806080858703121561211457612113611b1a565b5b600061212287828801611d70565b945050602061213387828801611d70565b935050604061214487828801611cbb565b925050606085013567ffffffffffffffff81111561216557612164611b1f565b5b612171878288016120cc565b91505092959194509250565b6000806040838503121561219457612193611b1a565b5b60006121a285828601611d70565b92505060206121b385828601611d70565b9150509250929050565b7f4e487b7100000000000000000000000000000000000000000000000000000000600052602260045260246000fd5b6000600282049050600182168061220457607f821691505b60208210811415612218576122176121bd565b5b50919050565b7f4552433732313a20617070726f76616c20746f2063757272656e74206f776e6560008201527f7200000000000000000000000000000000000000000000000000000000000000602082015250565b600061227a602183611bea565b91506122858261221e565b604082019050919050565b600060208201905081810360008301526122a98161226d565b9050919050565b7f4552433732313a20617070726f76652063616c6c6572206973206e6f7420746f60008201527f6b656e206f776e6572206f7220617070726f76656420666f7220616c6c000000602082015250565b600061230c603d83611bea565b9150612317826122b0565b604082019050919050565b6000602082019050818103600083015261233b816122ff565b9050919050565b7f4552433732313a2063616c6c6572206973206e6f7420746f6b656e206f776e6560008201527f72206f7220617070726f76656400000000000000000000000000000000000000602082015250565b600061239e602d83611bea565b91506123a982612342565b604082019050919050565b600060208201905081810360008301526123cd81612391565b9050919050565b7f4552433732313a20696e76616c696420746f6b656e2049440000000000000000600082015250565b600061240a601883611bea565b9150612415826123d4565b602082019050919050565b60006020820190508181036000830152612439816123fd565b9050919050565b7f4552433732313a2061646472657373207a65726f206973206e6f74206120766160008201527f6c6964206f776e65720000000000000000000000000000000000000000000000602082015250565b600061249c602983611bea565b91506124a782612440565b604082019050919050565b600060208201905081810360008301526124cb8161248f565b9050919050565b600081905092915050565b60006124e882611bdf565b6124f281856124d2565b9350612502818560208601611bfb565b80840191505092915050565b600061251a82856124dd565b915061252682846124dd565b91508190509392505050565b7f4552433732313a207472616e736665722066726f6d20696e636f72726563742060008201527f6f776e6572000000000000000000000000000000000000000000000000000000602082015250565b600061258e602583611bea565b915061259982612532565b604082019050919050565b600060208201905081810360008301526125bd81612581565b9050919050565b7f4552433732313a207472616e7366657220746f20746865207a65726f2061646460008201527f7265737300000000000000000000000000000000000000000000000000000000602082015250565b6000612620602483611bea565b915061262b826125c4565b604082019050919050565b6000602082019050818103600083015261264f81612613565b9050919050565b7f4552433732313a20617070726f766520746f2063616c6c657200000000000000600082015250565b600061268c601983611bea565b915061269782612656565b602082019050919050565b600060208201905081810360008301526126bb8161267f565b9050919050565b7f4552433732313a207472616e7366657220746f206e6f6e20455243373231526560008201527f63656976657220696d706c656d656e7465720000000000000000000000000000602082015250565b600061271e603283611bea565b9150612729826126c2565b604082019050919050565b6000602082019050818103600083015261274d81612711565b9050919050565b7f4e487b7100000000000000000000000000000000000000000000000000000000600052601260045260246000fd5b7f4e487b7100000000000000000000000000000000000000000000000000000000600052601160045260246000fd5b60006127bd82611c9a565b91506127c883611c9a565b9250828210156127db576127da612783565b5b828203905092915050565b60006127f182611c9a565b91506127fc83611c9a565b9250827fffffffffffffffffffffffffffffffffffffffffffffffffffffffffffffffff0382111561283157612830612783565b5b828201905092915050565b600081519050919050565b600082825260208201905092915050565b60006128638261283c565b61286d8185612847565b935061287d818560208601611bfb565b61288681611c2e565b840191505092915050565b60006080820190506128a66000830187611d2f565b6128b36020830186611d2f565b6128c06040830185611fc3565b81810360608301526128d28184612858565b905095945050505050565b6000815190506128ec81611b50565b92915050565b60006020828403121561290857612907611b1a565b5b6000612916848285016128dd565b91505092915050565b7f4552433732313a206d696e7420746f20746865207a65726f2061646472657373600082015250565b6000612955602083611bea565b91506129608261291f565b602082019050919050565b6000602082019050818103600083015261298481612948565b9050919050565b7f4552433732313a20746f6b656e20616c7265616479206d696e74656400000000600082015250565b60006129c1601c83611bea565b91506129cc8261298b565b602082019050919050565b600060208201905081810360008301526129f0816129b4565b905091905056fea26469706673582212200711a248a480ba7a0e7350d20f6318ed9147dc88ad5c6a15694f724b6b2b9e5364736f6c6343000808003368747470733a2f2f62616679626569676869703464616e33627a7161756863646d77747068616b6563776a7a7a726577776732357133647733657161647673687432752e697066732e647765622e6c696e6b2f6d657461646174612f",
  "devdoc": {
    "kind": "dev",
    "methods": {
      "approve(address,uint256)": {
        "details": "See {IERC721-approve}."
      },
      "balanceOf(address)": {
        "details": "See {IERC721-balanceOf}."
      },
      "getApproved(uint256)": {
        "details": "See {IERC721-getApproved}."
      },
      "isApprovedForAll(address,address)": {
        "details": "See {IERC721-isApprovedForAll}."
      },
      "name()": {
        "details": "See {IERC721Metadata-name}."
      },
      "ownerOf(uint256)": {
        "details": "See {IERC721-ownerOf}."
      },
      "safeTransferFrom(address,address,uint256)": {
        "details": "See {IERC721-safeTransferFrom}."
      },
      "safeTransferFrom(address,address,uint256,bytes)": {
        "details": "See {IERC721-safeTransferFrom}."
      },
      "setApprovalForAll(address,bool)": {
        "details": "See {IERC721-setApprovalForAll}."
      },
      "setBaseTokenURI(string)": {
        "details": "Sets the base token URI prefix."
      },
      "supportsInterface(bytes4)": {
        "details": "See {IERC165-supportsInterface}."
      },
      "symbol()": {
        "details": "See {IERC721Metadata-symbol}."
      },
      "tokenURI(uint256)": {
        "details": "See {IERC721Metadata-tokenURI}."
      },
      "transferFrom(address,address,uint256)": {
        "details": "See {IERC721-transferFrom}."
      }
    },
    "stateVariables": {
      "baseTokenURI": {
        "details": "Base token URI used as a prefix by tokenURI()."
      }
    },
    "version": 1
  },
  "userdoc": {
    "kind": "user",
    "methods": {},
    "version": 1
  },
  "storageLayout": {
    "storage": [
      {
        "astId": 4247,
        "contract": "contracts/tokens/HexlinkNFT.sol:HexlinkNFT",
        "label": "_name",
        "offset": 0,
        "slot": "0",
        "type": "t_string_storage"
      },
      {
        "astId": 4249,
        "contract": "contracts/tokens/HexlinkNFT.sol:HexlinkNFT",
        "label": "_symbol",
        "offset": 0,
        "slot": "1",
        "type": "t_string_storage"
      },
      {
        "astId": 4253,
        "contract": "contracts/tokens/HexlinkNFT.sol:HexlinkNFT",
        "label": "_owners",
        "offset": 0,
        "slot": "2",
        "type": "t_mapping(t_uint256,t_address)"
      },
      {
        "astId": 4257,
        "contract": "contracts/tokens/HexlinkNFT.sol:HexlinkNFT",
        "label": "_balances",
        "offset": 0,
        "slot": "3",
        "type": "t_mapping(t_address,t_uint256)"
      },
      {
        "astId": 4261,
        "contract": "contracts/tokens/HexlinkNFT.sol:HexlinkNFT",
        "label": "_tokenApprovals",
        "offset": 0,
        "slot": "4",
        "type": "t_mapping(t_uint256,t_address)"
      },
      {
        "astId": 4267,
        "contract": "contracts/tokens/HexlinkNFT.sol:HexlinkNFT",
        "label": "_operatorApprovals",
        "offset": 0,
        "slot": "5",
        "type": "t_mapping(t_address,t_mapping(t_address,t_bool))"
      },
      {
        "astId": 11965,
        "contract": "contracts/tokens/HexlinkNFT.sol:HexlinkNFT",
        "label": "currentTokenId",
        "offset": 0,
        "slot": "6",
        "type": "t_struct(Counter)5685_storage"
      },
      {
        "astId": 11968,
        "contract": "contracts/tokens/HexlinkNFT.sol:HexlinkNFT",
        "label": "baseTokenURI",
        "offset": 0,
        "slot": "7",
        "type": "t_string_storage"
      }
    ],
    "types": {
      "t_address": {
        "encoding": "inplace",
        "label": "address",
        "numberOfBytes": "20"
      },
      "t_bool": {
        "encoding": "inplace",
        "label": "bool",
        "numberOfBytes": "1"
      },
      "t_mapping(t_address,t_bool)": {
        "encoding": "mapping",
        "key": "t_address",
        "label": "mapping(address => bool)",
        "numberOfBytes": "32",
        "value": "t_bool"
      },
      "t_mapping(t_address,t_mapping(t_address,t_bool))": {
        "encoding": "mapping",
        "key": "t_address",
        "label": "mapping(address => mapping(address => bool))",
        "numberOfBytes": "32",
        "value": "t_mapping(t_address,t_bool)"
      },
      "t_mapping(t_address,t_uint256)": {
        "encoding": "mapping",
        "key": "t_address",
        "label": "mapping(address => uint256)",
        "numberOfBytes": "32",
        "value": "t_uint256"
      },
      "t_mapping(t_uint256,t_address)": {
        "encoding": "mapping",
        "key": "t_uint256",
        "label": "mapping(uint256 => address)",
        "numberOfBytes": "32",
        "value": "t_address"
      },
      "t_string_storage": {
        "encoding": "bytes",
        "label": "string",
        "numberOfBytes": "32"
      },
      "t_struct(Counter)5685_storage": {
        "encoding": "inplace",
        "label": "struct Counters.Counter",
        "members": [
          {
            "astId": 5684,
            "contract": "contracts/tokens/HexlinkNFT.sol:HexlinkNFT",
            "label": "_value",
            "offset": 0,
            "slot": "0",
            "type": "t_uint256"
          }
        ],
        "numberOfBytes": "32"
      },
      "t_uint256": {
        "encoding": "inplace",
        "label": "uint256",
        "numberOfBytes": "32"
      }
    }
  }
}