{
  "address": "0x837594DA30404697f3309a656f5db6B15A5004fE",
  "abi": [
    {
      "anonymous": false,
      "inputs": [
        {
          "indexed": true,
          "internalType": "address",
          "name": "owner",
          "type": "address"
        },
        {
          "indexed": true,
          "internalType": "address",
          "name": "approved",
          "type": "address"
        },
        {
          "indexed": true,
          "internalType": "uint256",
          "name": "tokenId",
          "type": "uint256"
        }
      ],
      "name": "Approval",
      "type": "event"
    },
    {
      "anonymous": false,
      "inputs": [
        {
          "indexed": true,
          "internalType": "address",
          "name": "owner",
          "type": "address"
        },
        {
          "indexed": true,
          "internalType": "address",
          "name": "operator",
          "type": "address"
        },
        {
          "indexed": false,
          "internalType": "bool",
          "name": "approved",
          "type": "bool"
        }
      ],
      "name": "ApprovalForAll",
      "type": "event"
    },
    {
      "anonymous": false,
      "inputs": [
        {
          "indexed": true,
          "internalType": "address",
          "name": "receiver",
          "type": "address"
        },
        {
          "indexed": false,
          "internalType": "uint256",
          "name": "payment",
          "type": "uint256"
        }
      ],
      "name": "GasSponsorship",
      "type": "event"
    },
    {
      "anonymous": false,
      "inputs": [
        {
          "indexed": false,
          "internalType": "uint8",
          "name": "version",
          "type": "uint8"
        }
      ],
      "name": "Initialized",
      "type": "event"
    },
    {
      "anonymous": false,
      "inputs": [
        {
          "indexed": true,
          "internalType": "address",
          "name": "previousOwner",
          "type": "address"
        },
        {
          "indexed": true,
          "internalType": "address",
          "name": "newOwner",
          "type": "address"
        }
      ],
      "name": "OwnershipTransferred",
      "type": "event"
    },
    {
      "anonymous": false,
      "inputs": [
        {
          "indexed": true,
          "internalType": "address",
          "name": "from",
          "type": "address"
        },
        {
          "indexed": true,
          "internalType": "address",
          "name": "to",
          "type": "address"
        },
        {
          "indexed": true,
          "internalType": "uint256",
          "name": "tokenId",
          "type": "uint256"
        }
      ],
      "name": "Transfer",
      "type": "event"
    },
    {
      "inputs": [
        {
          "internalType": "address",
          "name": "to",
          "type": "address"
        },
        {
          "internalType": "uint256",
          "name": "tokenId",
          "type": "uint256"
        }
      ],
      "name": "approve",
      "outputs": [],
      "stateMutability": "nonpayable",
      "type": "function"
    },
    {
      "inputs": [
        {
          "internalType": "address",
          "name": "owner",
          "type": "address"
        }
      ],
      "name": "balanceOf",
      "outputs": [
        {
          "internalType": "uint256",
          "name": "",
          "type": "uint256"
        }
      ],
      "stateMutability": "view",
      "type": "function"
    },
    {
      "inputs": [],
      "name": "baseTokenURI",
      "outputs": [
        {
          "internalType": "string",
          "name": "",
          "type": "string"
        }
      ],
      "stateMutability": "view",
      "type": "function"
    },
    {
      "inputs": [],
      "name": "depositGasSponsorship",
      "outputs": [],
      "stateMutability": "payable",
      "type": "function"
    },
    {
      "inputs": [],
      "name": "gasSponsorship",
      "outputs": [
        {
          "internalType": "uint256",
          "name": "",
          "type": "uint256"
        }
      ],
      "stateMutability": "view",
      "type": "function"
    },
    {
      "inputs": [
        {
          "internalType": "uint256",
          "name": "tokenId",
          "type": "uint256"
        }
      ],
      "name": "getApproved",
      "outputs": [
        {
          "internalType": "address",
          "name": "",
          "type": "address"
        }
      ],
      "stateMutability": "view",
      "type": "function"
    },
    {
      "inputs": [
        {
          "internalType": "address",
          "name": "user",
          "type": "address"
        }
      ],
      "name": "getMintedCount",
      "outputs": [
        {
          "internalType": "uint256",
          "name": "",
          "type": "uint256"
        }
      ],
      "stateMutability": "view",
      "type": "function"
    },
    {
      "inputs": [
        {
          "internalType": "string",
          "name": "name_",
          "type": "string"
        },
        {
          "internalType": "string",
          "name": "symbol_",
          "type": "string"
        },
        {
          "internalType": "string",
          "name": "baseTokenURI_",
          "type": "string"
        },
        {
          "internalType": "uint256",
          "name": "maxSupply_",
          "type": "uint256"
        },
        {
          "internalType": "address",
          "name": "validator_",
          "type": "address"
        },
        {
          "internalType": "bool",
          "name": "transferrable_",
          "type": "bool"
        }
      ],
      "name": "init",
      "outputs": [],
      "stateMutability": "nonpayable",
      "type": "function"
    },
    {
      "inputs": [
        {
          "internalType": "address",
          "name": "owner",
          "type": "address"
        },
        {
          "internalType": "address",
          "name": "operator",
          "type": "address"
        }
      ],
      "name": "isApprovedForAll",
      "outputs": [
        {
          "internalType": "bool",
          "name": "",
          "type": "bool"
        }
      ],
      "stateMutability": "view",
      "type": "function"
    },
    {
      "inputs": [],
      "name": "maxSupply",
      "outputs": [
        {
          "internalType": "uint256",
          "name": "",
          "type": "uint256"
        }
      ],
      "stateMutability": "view",
      "type": "function"
    },
    {
      "inputs": [
        {
          "internalType": "address",
          "name": "recipient",
          "type": "address"
        },
        {
          "internalType": "address",
          "name": "refundReceiver",
          "type": "address"
        },
        {
          "internalType": "bytes",
          "name": "signature",
          "type": "bytes"
        }
      ],
      "name": "mint",
      "outputs": [],
      "stateMutability": "nonpayable",
      "type": "function"
    },
    {
      "inputs": [],
      "name": "name",
      "outputs": [
        {
          "internalType": "string",
          "name": "",
          "type": "string"
        }
      ],
      "stateMutability": "view",
      "type": "function"
    },
    {
      "inputs": [],
      "name": "owner",
      "outputs": [
        {
          "internalType": "address",
          "name": "",
          "type": "address"
        }
      ],
      "stateMutability": "view",
      "type": "function"
    },
    {
      "inputs": [
        {
          "internalType": "uint256",
          "name": "tokenId",
          "type": "uint256"
        }
      ],
      "name": "ownerOf",
      "outputs": [
        {
          "internalType": "address",
          "name": "",
          "type": "address"
        }
      ],
      "stateMutability": "view",
      "type": "function"
    },
    {
      "inputs": [],
      "name": "renounceOwnership",
      "outputs": [],
      "stateMutability": "nonpayable",
      "type": "function"
    },
    {
      "inputs": [
        {
          "internalType": "address",
          "name": "from",
          "type": "address"
        },
        {
          "internalType": "address",
          "name": "to",
          "type": "address"
        },
        {
          "internalType": "uint256",
          "name": "tokenId",
          "type": "uint256"
        }
      ],
      "name": "safeTransferFrom",
      "outputs": [],
      "stateMutability": "nonpayable",
      "type": "function"
    },
    {
      "inputs": [
        {
          "internalType": "address",
          "name": "from",
          "type": "address"
        },
        {
          "internalType": "address",
          "name": "to",
          "type": "address"
        },
        {
          "internalType": "uint256",
          "name": "tokenId",
          "type": "uint256"
        },
        {
          "internalType": "bytes",
          "name": "data",
          "type": "bytes"
        }
      ],
      "name": "safeTransferFrom",
      "outputs": [],
      "stateMutability": "nonpayable",
      "type": "function"
    },
    {
      "inputs": [
        {
          "internalType": "address",
          "name": "operator",
          "type": "address"
        },
        {
          "internalType": "bool",
          "name": "approved",
          "type": "bool"
        }
      ],
      "name": "setApprovalForAll",
      "outputs": [],
      "stateMutability": "nonpayable",
      "type": "function"
    },
    {
      "inputs": [
        {
          "internalType": "address",
          "name": "_validator",
          "type": "address"
        }
      ],
      "name": "setValidator",
      "outputs": [],
      "stateMutability": "nonpayable",
      "type": "function"
    },
    {
      "inputs": [
        {
          "internalType": "bytes4",
          "name": "interfaceId",
          "type": "bytes4"
        }
      ],
      "name": "supportsInterface",
      "outputs": [
        {
          "internalType": "bool",
          "name": "",
          "type": "bool"
        }
      ],
      "stateMutability": "view",
      "type": "function"
    },
    {
      "inputs": [],
      "name": "symbol",
      "outputs": [
        {
          "internalType": "string",
          "name": "",
          "type": "string"
        }
      ],
      "stateMutability": "view",
      "type": "function"
    },
    {
      "inputs": [],
      "name": "tokenId",
      "outputs": [
        {
          "internalType": "uint256",
          "name": "",
          "type": "uint256"
        }
      ],
      "stateMutability": "view",
      "type": "function"
    },
    {
      "inputs": [
        {
          "internalType": "uint256",
          "name": "",
          "type": "uint256"
        }
      ],
      "name": "tokenURI",
      "outputs": [
        {
          "internalType": "string",
          "name": "",
          "type": "string"
        }
      ],
      "stateMutability": "view",
      "type": "function"
    },
    {
      "inputs": [
        {
          "internalType": "address",
          "name": "from",
          "type": "address"
        },
        {
          "internalType": "address",
          "name": "to",
          "type": "address"
        },
        {
          "internalType": "uint256",
          "name": "tokenId",
          "type": "uint256"
        }
      ],
      "name": "transferFrom",
      "outputs": [],
      "stateMutability": "nonpayable",
      "type": "function"
    },
    {
      "inputs": [
        {
          "internalType": "address",
          "name": "newOwner",
          "type": "address"
        }
      ],
      "name": "transferOwnership",
      "outputs": [],
      "stateMutability": "nonpayable",
      "type": "function"
    },
    {
      "inputs": [],
      "name": "transferrable",
      "outputs": [
        {
          "internalType": "bool",
          "name": "",
          "type": "bool"
        }
      ],
      "stateMutability": "view",
      "type": "function"
    },
    {
      "inputs": [],
      "name": "validator",
      "outputs": [
        {
          "internalType": "address",
          "name": "",
          "type": "address"
        }
      ],
      "stateMutability": "view",
      "type": "function"
    }
  ],
  "transactionHash": "0xff8d56f0ae57c005ec8ef30ae26e57288fb356ddeca60bdbe39500c7feb095d4",
  "args": [],
  "numDeployments": 2,
  "solcInputHash": "a509295f11c78a88afeb1cc699f2f343",
  "bytecode": "0x6080604052600060cc5534801561001557600080fd5b506140a4806100256000396000f3fe60806040526004361061019c5760003560e01c80636352211e116100ec578063b88d4fde1161008a578063d5abeb0111610064578063d5abeb01146105a7578063e985e9c5146105d2578063f1ddecf91461060f578063f2fde38b146106385761019c565b8063b88d4fde14610516578063c87b56dd1461053f578063d547cfb71461057c5761019c565b80638da5cb5b116100c65780638da5cb5b1461045a57806395d89b411461048557806397d6696b146104b0578063a22cb465146104ed5761019c565b80636352211e146103c957806370a0823114610406578063715018a6146104435761019c565b806317d70f7c1161015957806323b872dd1161013357806323b872dd14610323578063248ec42e1461034c5780633a5381b51461037557806342842e0e146103a05761019c565b806317d70f7c146102c3578063180cf131146102ee57806322aa0eb1146102f85761019c565b806301ffc9a7146101a1578063047a7ef1146101de57806306fdde0314610209578063081812fc14610234578063095ea7b3146102715780631327d3d81461029a575b600080fd5b3480156101ad57600080fd5b506101c860048036038101906101c39190612947565b610661565b6040516101d5919061298f565b60405180910390f35b3480156101ea57600080fd5b506101f3610743565b604051610200919061298f565b60405180910390f35b34801561021557600080fd5b5061021e610756565b60405161022b9190612a43565b60405180910390f35b34801561024057600080fd5b5061025b60048036038101906102569190612a9b565b6107e8565b6040516102689190612b09565b60405180910390f35b34801561027d57600080fd5b5061029860048036038101906102939190612b50565b61082e565b005b3480156102a657600080fd5b506102c160048036038101906102bc9190612b90565b610946565b005b3480156102cf57600080fd5b506102d8610992565b6040516102e59190612bcc565b60405180910390f35b6102f6610998565b005b34801561030457600080fd5b5061030d6109b3565b60405161031a9190612bcc565b60405180910390f35b34801561032f57600080fd5b5061034a60048036038101906103459190612be7565b6109b9565b005b34801561035857600080fd5b50610373600480360381019061036e9190612d9b565b610a19565b005b34801561038157600080fd5b5061038a610be0565b6040516103979190612b09565b60405180910390f35b3480156103ac57600080fd5b506103c760048036038101906103c29190612be7565b610c06565b005b3480156103d557600080fd5b506103f060048036038101906103eb9190612a9b565b610c26565b6040516103fd9190612b09565b60405180910390f35b34801561041257600080fd5b5061042d60048036038101906104289190612b90565b610cad565b60405161043a9190612bcc565b60405180910390f35b34801561044f57600080fd5b50610458610d65565b005b34801561046657600080fd5b5061046f610d79565b60405161047c9190612b09565b60405180910390f35b34801561049157600080fd5b5061049a610da3565b6040516104a79190612a43565b60405180910390f35b3480156104bc57600080fd5b506104d760048036038101906104d29190612b90565b610e35565b6040516104e49190612bcc565b60405180910390f35b3480156104f957600080fd5b50610514600480360381019061050f9190612e7c565b610e7e565b005b34801561052257600080fd5b5061053d60048036038101906105389190612f5d565b610e94565b005b34801561054b57600080fd5b5061056660048036038101906105619190612a9b565b610ef6565b6040516105739190612a43565b60405180910390f35b34801561058857600080fd5b50610591610f8a565b60405161059e9190612a43565b60405180910390f35b3480156105b357600080fd5b506105bc611018565b6040516105c99190612bcc565b60405180910390f35b3480156105de57600080fd5b506105f960048036038101906105f49190612fe0565b61101e565b604051610606919061298f565b60405180910390f35b34801561061b57600080fd5b5061063660048036038101906106319190613020565b6110b2565b005b34801561064457600080fd5b5061065f600480360381019061065a9190612b90565b6111ce565b005b60007f80ac58cd000000000000000000000000000000000000000000000000000000007bffffffffffffffffffffffffffffffffffffffffffffffffffffffff1916827bffffffffffffffffffffffffffffffffffffffffffffffffffffffff1916148061072c57507f5b5e139f000000000000000000000000000000000000000000000000000000007bffffffffffffffffffffffffffffffffffffffffffffffffffffffff1916827bffffffffffffffffffffffffffffffffffffffffffffffffffffffff1916145b8061073c575061073b82611252565b5b9050919050565b60cd60149054906101000a900460ff1681565b606060978054610765906130be565b80601f0160208091040260200160405190810160405280929190818152602001828054610791906130be565b80156107de5780601f106107b3576101008083540402835291602001916107de565b820191906000526020600020905b8154815290600101906020018083116107c157829003601f168201915b5050505050905090565b60006107f3826112bc565b609b600083815260200190815260200160002060009054906101000a900473ffffffffffffffffffffffffffffffffffffffff169050919050565b600061083982610c26565b90508073ffffffffffffffffffffffffffffffffffffffff168373ffffffffffffffffffffffffffffffffffffffff1614156108aa576040517f08c379a00000000000000000000000000000000000000000000000000000000081526004016108a190613162565b60405180910390fd5b8073ffffffffffffffffffffffffffffffffffffffff166108c9611307565b73ffffffffffffffffffffffffffffffffffffffff1614806108f857506108f7816108f2611307565b61101e565b5b610937576040517f08c379a000000000000000000000000000000000000000000000000000000000815260040161092e906131f4565b60405180910390fd5b610941838361130f565b505050565b61094e6113c8565b8060cd60006101000a81548173ffffffffffffffffffffffffffffffffffffffff021916908373ffffffffffffffffffffffffffffffffffffffff16021790555050565b60cc5481565b3460ce60008282546109aa9190613243565b92505081905550565b60ce5481565b6109ca6109c4611307565b82611446565b610a09576040517f08c379a0000000000000000000000000000000000000000000000000000000008152600401610a009061330b565b60405180910390fd5b610a148383836114db565b505050565b60008060019054906101000a900460ff16159050808015610a4a5750600160008054906101000a900460ff1660ff16105b80610a775750610a59306117d5565b158015610a765750600160008054906101000a900460ff1660ff16145b5b610ab6576040517f08c379a0000000000000000000000000000000000000000000000000000000008152600401610aad9061339d565b60405180910390fd5b60016000806101000a81548160ff021916908360ff1602179055508015610af3576001600060016101000a81548160ff0219169083151502179055505b610afd87876117f8565b610b05611855565b8360cb819055508260cd60006101000a81548173ffffffffffffffffffffffffffffffffffffffff021916908373ffffffffffffffffffffffffffffffffffffffff1602179055508460ca9080519060200190610b63929190612838565b508160cd60146101000a81548160ff0219169083151502179055508015610bd75760008060016101000a81548160ff0219169083151502179055507f7f26b83ff96e1f2b6a682f133852f6798a09c465da95921460cefb38474024986001604051610bce919061340f565b60405180910390a15b50505050505050565b60cd60009054906101000a900473ffffffffffffffffffffffffffffffffffffffff1681565b610c2183838360405180602001604052806000815250610e94565b505050565b600080610c32836118ae565b9050600073ffffffffffffffffffffffffffffffffffffffff168173ffffffffffffffffffffffffffffffffffffffff161415610ca4576040517f08c379a0000000000000000000000000000000000000000000000000000000008152600401610c9b90613476565b60405180910390fd5b80915050919050565b60008073ffffffffffffffffffffffffffffffffffffffff168273ffffffffffffffffffffffffffffffffffffffff161415610d1e576040517f08c379a0000000000000000000000000000000000000000000000000000000008152600401610d1590613508565b60405180910390fd5b609a60008373ffffffffffffffffffffffffffffffffffffffff1673ffffffffffffffffffffffffffffffffffffffff168152602001908152602001600020549050919050565b610d6d6113c8565b610d7760006118eb565b565b6000603360009054906101000a900473ffffffffffffffffffffffffffffffffffffffff16905090565b606060988054610db2906130be565b80601f0160208091040260200160405190810160405280929190818152602001828054610dde906130be565b8015610e2b5780601f10610e0057610100808354040283529160200191610e2b565b820191906000526020600020905b815481529060010190602001808311610e0e57829003601f168201915b5050505050905090565b600060c960008373ffffffffffffffffffffffffffffffffffffffff1673ffffffffffffffffffffffffffffffffffffffff168152602001908152602001600020549050919050565b610e90610e89611307565b83836119b1565b5050565b610ea5610e9f611307565b83611446565b610ee4576040517f08c379a0000000000000000000000000000000000000000000000000000000008152600401610edb9061330b565b60405180910390fd5b610ef084848484611b1e565b50505050565b606060ca8054610f05906130be565b80601f0160208091040260200160405190810160405280929190818152602001828054610f31906130be565b8015610f7e5780601f10610f5357610100808354040283529160200191610f7e565b820191906000526020600020905b815481529060010190602001808311610f6157829003601f168201915b50505050509050919050565b60ca8054610f97906130be565b80601f0160208091040260200160405190810160405280929190818152602001828054610fc3906130be565b80156110105780601f10610fe557610100808354040283529160200191611010565b820191906000526020600020905b815481529060010190602001808311610ff357829003601f168201915b505050505081565b60cb5481565b6000609c60008473ffffffffffffffffffffffffffffffffffffffff1673ffffffffffffffffffffffffffffffffffffffff16815260200190815260200160002060008373ffffffffffffffffffffffffffffffffffffffff1673ffffffffffffffffffffffffffffffffffffffff16815260200190815260200160002060009054906101000a900460ff16905092915050565b60005a9050600160cc60008282546110ca9190613243565b9250508190555060cb5460cc541115611118576040517f08c379a000000000000000000000000000000000000000000000000000000000815260040161110f90613574565b60405180910390fd5b611123848484611b7a565b61112b611c61565b6111378460cc54611d3c565b600060ce541180156111765750600073ffffffffffffffffffffffffffffffffffffffff168373ffffffffffffffffffffffffffffffffffffffff1614155b156111c85760003a61d6d85a8461118d9190613594565b6111979190613243565b6111a191906135c8565b90508060ce60008282546111b59190613594565b925050819055506111c68185611d5a565b505b50505050565b6111d66113c8565b600073ffffffffffffffffffffffffffffffffffffffff168173ffffffffffffffffffffffffffffffffffffffff161415611246576040517f08c379a000000000000000000000000000000000000000000000000000000000815260040161123d90613694565b60405180910390fd5b61124f816118eb565b50565b60007f01ffc9a7000000000000000000000000000000000000000000000000000000007bffffffffffffffffffffffffffffffffffffffffffffffffffffffff1916827bffffffffffffffffffffffffffffffffffffffffffffffffffffffff1916149050919050565b6112c581611e59565b611304576040517f08c379a00000000000000000000000000000000000000000000000000000000081526004016112fb90613476565b60405180910390fd5b50565b600033905090565b81609b600083815260200190815260200160002060006101000a81548173ffffffffffffffffffffffffffffffffffffffff021916908373ffffffffffffffffffffffffffffffffffffffff160217905550808273ffffffffffffffffffffffffffffffffffffffff1661138283610c26565b73ffffffffffffffffffffffffffffffffffffffff167f8c5be1e5ebec7d5bd14f71427d1e84f3dd0314c0f7b2291e5b200ac8c7c3b92560405160405180910390a45050565b6113d0611307565b73ffffffffffffffffffffffffffffffffffffffff166113ee610d79565b73ffffffffffffffffffffffffffffffffffffffff1614611444576040517f08c379a000000000000000000000000000000000000000000000000000000000815260040161143b90613700565b60405180910390fd5b565b60008061145283610c26565b90508073ffffffffffffffffffffffffffffffffffffffff168473ffffffffffffffffffffffffffffffffffffffff1614806114945750611493818561101e565b5b806114d257508373ffffffffffffffffffffffffffffffffffffffff166114ba846107e8565b73ffffffffffffffffffffffffffffffffffffffff16145b91505092915050565b8273ffffffffffffffffffffffffffffffffffffffff166114fb82610c26565b73ffffffffffffffffffffffffffffffffffffffff1614611551576040517f08c379a000000000000000000000000000000000000000000000000000000000815260040161154890613792565b60405180910390fd5b600073ffffffffffffffffffffffffffffffffffffffff168273ffffffffffffffffffffffffffffffffffffffff1614156115c1576040517f08c379a00000000000000000000000000000000000000000000000000000000081526004016115b890613824565b60405180910390fd5b6115ce8383836001611e9a565b8273ffffffffffffffffffffffffffffffffffffffff166115ee82610c26565b73ffffffffffffffffffffffffffffffffffffffff1614611644576040517f08c379a000000000000000000000000000000000000000000000000000000000815260040161163b90613792565b60405180910390fd5b609b600082815260200190815260200160002060006101000a81549073ffffffffffffffffffffffffffffffffffffffff02191690556001609a60008573ffffffffffffffffffffffffffffffffffffffff1673ffffffffffffffffffffffffffffffffffffffff168152602001908152602001600020600082825403925050819055506001609a60008473ffffffffffffffffffffffffffffffffffffffff1673ffffffffffffffffffffffffffffffffffffffff16815260200190815260200160002060008282540192505081905550816099600083815260200190815260200160002060006101000a81548173ffffffffffffffffffffffffffffffffffffffff021916908373ffffffffffffffffffffffffffffffffffffffff160217905550808273ffffffffffffffffffffffffffffffffffffffff168473ffffffffffffffffffffffffffffffffffffffff167fddf252ad1be2c89b69c2b068fc378daa952ba7f163c4a11628f55a4df523b3ef60405160405180910390a46117d08383836001611fc0565b505050565b6000808273ffffffffffffffffffffffffffffffffffffffff163b119050919050565b600060019054906101000a900460ff16611847576040517f08c379a000000000000000000000000000000000000000000000000000000000815260040161183e906138b6565b60405180910390fd5b611851828261204c565b5050565b600060019054906101000a900460ff166118a4576040517f08c379a000000000000000000000000000000000000000000000000000000000815260040161189b906138b6565b60405180910390fd5b6118ac6120cd565b565b60006099600083815260200190815260200160002060009054906101000a900473ffffffffffffffffffffffffffffffffffffffff169050919050565b6000603360009054906101000a900473ffffffffffffffffffffffffffffffffffffffff16905081603360006101000a81548173ffffffffffffffffffffffffffffffffffffffff021916908373ffffffffffffffffffffffffffffffffffffffff1602179055508173ffffffffffffffffffffffffffffffffffffffff168173ffffffffffffffffffffffffffffffffffffffff167f8be0079c531659141344cd1fd0a4f28419497f9722a3daafe3b4186f6b6457e060405160405180910390a35050565b8173ffffffffffffffffffffffffffffffffffffffff168373ffffffffffffffffffffffffffffffffffffffff161415611a20576040517f08c379a0000000000000000000000000000000000000000000000000000000008152600401611a1790613922565b60405180910390fd5b80609c60008573ffffffffffffffffffffffffffffffffffffffff1673ffffffffffffffffffffffffffffffffffffffff16815260200190815260200160002060008473ffffffffffffffffffffffffffffffffffffffff1673ffffffffffffffffffffffffffffffffffffffff16815260200190815260200160002060006101000a81548160ff0219169083151502179055508173ffffffffffffffffffffffffffffffffffffffff168373ffffffffffffffffffffffffffffffffffffffff167f17307eab39ab6107e8899845ad3d59bd9653f200f220920489ca2b5937696c3183604051611b11919061298f565b60405180910390a3505050565b611b298484846114db565b611b358484848461212e565b611b74576040517f08c379a0000000000000000000000000000000000000000000000000000000008152600401611b6b906139b4565b60405180910390fd5b50505050565b600046308585604051602001611b9394939291906139d4565b6040516020818303038152906040528051906020012090506000611bb6826122c5565b9050611bcb83826122f590919063ffffffff16565b73ffffffffffffffffffffffffffffffffffffffff1660cd60009054906101000a900473ffffffffffffffffffffffffffffffffffffffff1673ffffffffffffffffffffffffffffffffffffffff1614611c5a576040517f08c379a0000000000000000000000000000000000000000000000000000000008152600401611c5190613a65565b60405180910390fd5b5050505050565b600060c960003373ffffffffffffffffffffffffffffffffffffffff1673ffffffffffffffffffffffffffffffffffffffff1681526020019081526020016000205414611ce3576040517f08c379a0000000000000000000000000000000000000000000000000000000008152600401611cda90613ad1565b60405180910390fd5b600160c960003373ffffffffffffffffffffffffffffffffffffffff1673ffffffffffffffffffffffffffffffffffffffff1681526020019081526020016000206000828254611d339190613243565b92505081905550565b611d5682826040518060200160405280600081525061231c565b5050565b60008173ffffffffffffffffffffffffffffffffffffffff1683604051611d8090613b22565b60006040518083038185875af1925050503d8060008114611dbd576040519150601f19603f3d011682016040523d82523d6000602084013e611dc2565b606091505b5050905080611e06576040517f08c379a0000000000000000000000000000000000000000000000000000000008152600401611dfd90613b83565b60405180910390fd5b8173ffffffffffffffffffffffffffffffffffffffff167f3728afc7eaa9ba3128dbfdbf1b575e543cd11ed43eecdb8b2b25da1b8178569384604051611e4c9190612bcc565b60405180910390a2505050565b60008073ffffffffffffffffffffffffffffffffffffffff16611e7b836118ae565b73ffffffffffffffffffffffffffffffffffffffff1614159050919050565b6001811115611fba57600073ffffffffffffffffffffffffffffffffffffffff168473ffffffffffffffffffffffffffffffffffffffff1614611f2e5780609a60008673ffffffffffffffffffffffffffffffffffffffff1673ffffffffffffffffffffffffffffffffffffffff1681526020019081526020016000206000828254611f269190613594565b925050819055505b600073ffffffffffffffffffffffffffffffffffffffff168373ffffffffffffffffffffffffffffffffffffffff1614611fb95780609a60008573ffffffffffffffffffffffffffffffffffffffff1673ffffffffffffffffffffffffffffffffffffffff1681526020019081526020016000206000828254611fb19190613243565b925050819055505b5b50505050565b600073ffffffffffffffffffffffffffffffffffffffff168473ffffffffffffffffffffffffffffffffffffffff161480612007575060cd60149054906101000a900460ff165b612046576040517f08c379a000000000000000000000000000000000000000000000000000000000815260040161203d90613bef565b60405180910390fd5b50505050565b600060019054906101000a900460ff1661209b576040517f08c379a0000000000000000000000000000000000000000000000000000000008152600401612092906138b6565b60405180910390fd5b81609790805190602001906120b1929190612838565b5080609890805190602001906120c8929190612838565b505050565b600060019054906101000a900460ff1661211c576040517f08c379a0000000000000000000000000000000000000000000000000000000008152600401612113906138b6565b60405180910390fd5b61212c612127611307565b6118eb565b565b600061214f8473ffffffffffffffffffffffffffffffffffffffff166117d5565b156122b8578373ffffffffffffffffffffffffffffffffffffffff1663150b7a02612178611307565b8786866040518563ffffffff1660e01b815260040161219a9493929190613c64565b602060405180830381600087803b1580156121b457600080fd5b505af19250505080156121e557506040513d601f19601f820116820180604052508101906121e29190613cc5565b60015b612268573d8060008114612215576040519150601f19603f3d011682016040523d82523d6000602084013e61221a565b606091505b50600081511415612260576040517f08c379a0000000000000000000000000000000000000000000000000000000008152600401612257906139b4565b60405180910390fd5b805181602001fd5b63150b7a0260e01b7bffffffffffffffffffffffffffffffffffffffffffffffffffffffff1916817bffffffffffffffffffffffffffffffffffffffffffffffffffffffff1916149150506122bd565b600190505b949350505050565b6000816040516020016122d89190613d74565b604051602081830303815290604052805190602001209050919050565b60008060006123048585612377565b91509150612311816123c9565b819250505092915050565b6123268383612537565b612333600084848461212e565b612372576040517f08c379a0000000000000000000000000000000000000000000000000000000008152600401612369906139b4565b60405180910390fd5b505050565b6000806041835114156123b95760008060006020860151925060408601519150606086015160001a90506123ad87828585612755565b945094505050506123c2565b60006002915091505b9250929050565b600060048111156123dd576123dc613d9a565b5b8160048111156123f0576123ef613d9a565b5b14156123fb57612534565b6001600481111561240f5761240e613d9a565b5b81600481111561242257612421613d9a565b5b1415612463576040517f08c379a000000000000000000000000000000000000000000000000000000000815260040161245a90613e15565b60405180910390fd5b6002600481111561247757612476613d9a565b5b81600481111561248a57612489613d9a565b5b14156124cb576040517f08c379a00000000000000000000000000000000000000000000000000000000081526004016124c290613e81565b60405180910390fd5b600360048111156124df576124de613d9a565b5b8160048111156124f2576124f1613d9a565b5b1415612533576040517f08c379a000000000000000000000000000000000000000000000000000000000815260040161252a90613f13565b60405180910390fd5b5b50565b600073ffffffffffffffffffffffffffffffffffffffff168273ffffffffffffffffffffffffffffffffffffffff1614156125a7576040517f08c379a000000000000000000000000000000000000000000000000000000000815260040161259e90613f7f565b60405180910390fd5b6125b081611e59565b156125f0576040517f08c379a00000000000000000000000000000000000000000000000000000000081526004016125e790613feb565b60405180910390fd5b6125fe600083836001611e9a565b61260781611e59565b15612647576040517f08c379a000000000000000000000000000000000000000000000000000000000815260040161263e90613feb565b60405180910390fd5b6001609a60008473ffffffffffffffffffffffffffffffffffffffff1673ffffffffffffffffffffffffffffffffffffffff16815260200190815260200160002060008282540192505081905550816099600083815260200190815260200160002060006101000a81548173ffffffffffffffffffffffffffffffffffffffff021916908373ffffffffffffffffffffffffffffffffffffffff160217905550808273ffffffffffffffffffffffffffffffffffffffff16600073ffffffffffffffffffffffffffffffffffffffff167fddf252ad1be2c89b69c2b068fc378daa952ba7f163c4a11628f55a4df523b3ef60405160405180910390a4612751600083836001611fc0565b5050565b6000807f7fffffffffffffffffffffffffffffff5d576e7357a4501ddfe92f46681b20a08360001c111561279057600060039150915061282f565b6000600187878787604051600081526020016040526040516127b59493929190614029565b6020604051602081039080840390855afa1580156127d7573d6000803e3d6000fd5b505050602060405103519050600073ffffffffffffffffffffffffffffffffffffffff168173ffffffffffffffffffffffffffffffffffffffff1614156128265760006001925092505061282f565b80600092509250505b94509492505050565b828054612844906130be565b90600052602060002090601f01602090048101928261286657600085556128ad565b82601f1061287f57805160ff19168380011785556128ad565b828001600101855582156128ad579182015b828111156128ac578251825591602001919060010190612891565b5b5090506128ba91906128be565b5090565b5b808211156128d75760008160009055506001016128bf565b5090565b6000604051905090565b600080fd5b600080fd5b60007fffffffff0000000000000000000000000000000000000000000000000000000082169050919050565b612924816128ef565b811461292f57600080fd5b50565b6000813590506129418161291b565b92915050565b60006020828403121561295d5761295c6128e5565b5b600061296b84828501612932565b91505092915050565b60008115159050919050565b61298981612974565b82525050565b60006020820190506129a46000830184612980565b92915050565b600081519050919050565b600082825260208201905092915050565b60005b838110156129e45780820151818401526020810190506129c9565b838111156129f3576000848401525b50505050565b6000601f19601f8301169050919050565b6000612a15826129aa565b612a1f81856129b5565b9350612a2f8185602086016129c6565b612a38816129f9565b840191505092915050565b60006020820190508181036000830152612a5d8184612a0a565b905092915050565b6000819050919050565b612a7881612a65565b8114612a8357600080fd5b50565b600081359050612a9581612a6f565b92915050565b600060208284031215612ab157612ab06128e5565b5b6000612abf84828501612a86565b91505092915050565b600073ffffffffffffffffffffffffffffffffffffffff82169050919050565b6000612af382612ac8565b9050919050565b612b0381612ae8565b82525050565b6000602082019050612b1e6000830184612afa565b92915050565b612b2d81612ae8565b8114612b3857600080fd5b50565b600081359050612b4a81612b24565b92915050565b60008060408385031215612b6757612b666128e5565b5b6000612b7585828601612b3b565b9250506020612b8685828601612a86565b9150509250929050565b600060208284031215612ba657612ba56128e5565b5b6000612bb484828501612b3b565b91505092915050565b612bc681612a65565b82525050565b6000602082019050612be16000830184612bbd565b92915050565b600080600060608486031215612c0057612bff6128e5565b5b6000612c0e86828701612b3b565b9350506020612c1f86828701612b3b565b9250506040612c3086828701612a86565b9150509250925092565b600080fd5b600080fd5b7f4e487b7100000000000000000000000000000000000000000000000000000000600052604160045260246000fd5b612c7c826129f9565b810181811067ffffffffffffffff82111715612c9b57612c9a612c44565b5b80604052505050565b6000612cae6128db565b9050612cba8282612c73565b919050565b600067ffffffffffffffff821115612cda57612cd9612c44565b5b612ce3826129f9565b9050602081019050919050565b82818337600083830152505050565b6000612d12612d0d84612cbf565b612ca4565b905082815260208101848484011115612d2e57612d2d612c3f565b5b612d39848285612cf0565b509392505050565b600082601f830112612d5657612d55612c3a565b5b8135612d66848260208601612cff565b91505092915050565b612d7881612974565b8114612d8357600080fd5b50565b600081359050612d9581612d6f565b92915050565b60008060008060008060c08789031215612db857612db76128e5565b5b600087013567ffffffffffffffff811115612dd657612dd56128ea565b5b612de289828a01612d41565b965050602087013567ffffffffffffffff811115612e0357612e026128ea565b5b612e0f89828a01612d41565b955050604087013567ffffffffffffffff811115612e3057612e2f6128ea565b5b612e3c89828a01612d41565b9450506060612e4d89828a01612a86565b9350506080612e5e89828a01612b3b565b92505060a0612e6f89828a01612d86565b9150509295509295509295565b60008060408385031215612e9357612e926128e5565b5b6000612ea185828601612b3b565b9250506020612eb285828601612d86565b9150509250929050565b600067ffffffffffffffff821115612ed757612ed6612c44565b5b612ee0826129f9565b9050602081019050919050565b6000612f00612efb84612ebc565b612ca4565b905082815260208101848484011115612f1c57612f1b612c3f565b5b612f27848285612cf0565b509392505050565b600082601f830112612f4457612f43612c3a565b5b8135612f54848260208601612eed565b91505092915050565b60008060008060808587031215612f7757612f766128e5565b5b6000612f8587828801612b3b565b9450506020612f9687828801612b3b565b9350506040612fa787828801612a86565b925050606085013567ffffffffffffffff811115612fc857612fc76128ea565b5b612fd487828801612f2f565b91505092959194509250565b60008060408385031215612ff757612ff66128e5565b5b600061300585828601612b3b565b925050602061301685828601612b3b565b9150509250929050565b600080600060608486031215613039576130386128e5565b5b600061304786828701612b3b565b935050602061305886828701612b3b565b925050604084013567ffffffffffffffff811115613079576130786128ea565b5b61308586828701612f2f565b9150509250925092565b7f4e487b7100000000000000000000000000000000000000000000000000000000600052602260045260246000fd5b600060028204905060018216806130d657607f821691505b602082108114156130ea576130e961308f565b5b50919050565b7f4552433732313a20617070726f76616c20746f2063757272656e74206f776e6560008201527f7200000000000000000000000000000000000000000000000000000000000000602082015250565b600061314c6021836129b5565b9150613157826130f0565b604082019050919050565b6000602082019050818103600083015261317b8161313f565b9050919050565b7f4552433732313a20617070726f76652063616c6c6572206973206e6f7420746f60008201527f6b656e206f776e6572206f7220617070726f76656420666f7220616c6c000000602082015250565b60006131de603d836129b5565b91506131e982613182565b604082019050919050565b6000602082019050818103600083015261320d816131d1565b9050919050565b7f4e487b7100000000000000000000000000000000000000000000000000000000600052601160045260246000fd5b600061324e82612a65565b915061325983612a65565b9250827fffffffffffffffffffffffffffffffffffffffffffffffffffffffffffffffff0382111561328e5761328d613214565b5b828201905092915050565b7f4552433732313a2063616c6c6572206973206e6f7420746f6b656e206f776e6560008201527f72206f7220617070726f76656400000000000000000000000000000000000000602082015250565b60006132f5602d836129b5565b915061330082613299565b604082019050919050565b60006020820190508181036000830152613324816132e8565b9050919050565b7f496e697469616c697a61626c653a20636f6e747261637420697320616c72656160008201527f647920696e697469616c697a6564000000000000000000000000000000000000602082015250565b6000613387602e836129b5565b91506133928261332b565b604082019050919050565b600060208201905081810360008301526133b68161337a565b9050919050565b6000819050919050565b600060ff82169050919050565b6000819050919050565b60006133f96133f46133ef846133bd565b6133d4565b6133c7565b9050919050565b613409816133de565b82525050565b60006020820190506134246000830184613400565b92915050565b7f4552433732313a20696e76616c696420746f6b656e2049440000000000000000600082015250565b60006134606018836129b5565b915061346b8261342a565b602082019050919050565b6000602082019050818103600083015261348f81613453565b9050919050565b7f4552433732313a2061646472657373207a65726f206973206e6f74206120766160008201527f6c6964206f776e65720000000000000000000000000000000000000000000000602082015250565b60006134f26029836129b5565b91506134fd82613496565b604082019050919050565b60006020820190508181036000830152613521816134e5565b9050919050565b7f457863656564696e67206d617820737570706c79000000000000000000000000600082015250565b600061355e6014836129b5565b915061356982613528565b602082019050919050565b6000602082019050818103600083015261358d81613551565b9050919050565b600061359f82612a65565b91506135aa83612a65565b9250828210156135bd576135bc613214565b5b828203905092915050565b60006135d382612a65565b91506135de83612a65565b9250817fffffffffffffffffffffffffffffffffffffffffffffffffffffffffffffffff048311821515161561361757613616613214565b5b828202905092915050565b7f4f776e61626c653a206e6577206f776e657220697320746865207a65726f206160008201527f6464726573730000000000000000000000000000000000000000000000000000602082015250565b600061367e6026836129b5565b915061368982613622565b604082019050919050565b600060208201905081810360008301526136ad81613671565b9050919050565b7f4f776e61626c653a2063616c6c6572206973206e6f7420746865206f776e6572600082015250565b60006136ea6020836129b5565b91506136f5826136b4565b602082019050919050565b60006020820190508181036000830152613719816136dd565b9050919050565b7f4552433732313a207472616e736665722066726f6d20696e636f72726563742060008201527f6f776e6572000000000000000000000000000000000000000000000000000000602082015250565b600061377c6025836129b5565b915061378782613720565b604082019050919050565b600060208201905081810360008301526137ab8161376f565b9050919050565b7f4552433732313a207472616e7366657220746f20746865207a65726f2061646460008201527f7265737300000000000000000000000000000000000000000000000000000000602082015250565b600061380e6024836129b5565b9150613819826137b2565b604082019050919050565b6000602082019050818103600083015261383d81613801565b9050919050565b7f496e697469616c697a61626c653a20636f6e7472616374206973206e6f74206960008201527f6e697469616c697a696e67000000000000000000000000000000000000000000602082015250565b60006138a0602b836129b5565b91506138ab82613844565b604082019050919050565b600060208201905081810360008301526138cf81613893565b9050919050565b7f4552433732313a20617070726f766520746f2063616c6c657200000000000000600082015250565b600061390c6019836129b5565b9150613917826138d6565b602082019050919050565b6000602082019050818103600083015261393b816138ff565b9050919050565b7f4552433732313a207472616e7366657220746f206e6f6e20455243373231526560008201527f63656976657220696d706c656d656e7465720000000000000000000000000000602082015250565b600061399e6032836129b5565b91506139a982613942565b604082019050919050565b600060208201905081810360008301526139cd81613991565b9050919050565b60006080820190506139e96000830187612bbd565b6139f66020830186612afa565b613a036040830185612afa565b613a106060830184612afa565b95945050505050565b7f696e76616c6964207369676e6174757265000000000000000000000000000000600082015250565b6000613a4f6011836129b5565b9150613a5a82613a19565b602082019050919050565b60006020820190508181036000830152613a7e81613a42565b9050919050565b7f416c7265616479206d696e746564000000000000000000000000000000000000600082015250565b6000613abb600e836129b5565b9150613ac682613a85565b602082019050919050565b60006020820190508181036000830152613aea81613aae565b9050919050565b600081905092915050565b50565b6000613b0c600083613af1565b9150613b1782613afc565b600082019050919050565b6000613b2d82613aff565b9150819050919050565b7f4845584c30323000000000000000000000000000000000000000000000000000600082015250565b6000613b6d6007836129b5565b9150613b7882613b37565b602082019050919050565b60006020820190508181036000830152613b9c81613b60565b9050919050565b7f5472616e73666572206e6f7420616c6c6f776564000000000000000000000000600082015250565b6000613bd96014836129b5565b9150613be482613ba3565b602082019050919050565b60006020820190508181036000830152613c0881613bcc565b9050919050565b600081519050919050565b600082825260208201905092915050565b6000613c3682613c0f565b613c408185613c1a565b9350613c508185602086016129c6565b613c59816129f9565b840191505092915050565b6000608082019050613c796000830187612afa565b613c866020830186612afa565b613c936040830185612bbd565b8181036060830152613ca58184613c2b565b905095945050505050565b600081519050613cbf8161291b565b92915050565b600060208284031215613cdb57613cda6128e5565b5b6000613ce984828501613cb0565b91505092915050565b600081905092915050565b7f19457468657265756d205369676e6564204d6573736167653a0a333200000000600082015250565b6000613d33601c83613cf2565b9150613d3e82613cfd565b601c82019050919050565b6000819050919050565b6000819050919050565b613d6e613d6982613d49565b613d53565b82525050565b6000613d7f82613d26565b9150613d8b8284613d5d565b60208201915081905092915050565b7f4e487b7100000000000000000000000000000000000000000000000000000000600052602160045260246000fd5b7f45434453413a20696e76616c6964207369676e61747572650000000000000000600082015250565b6000613dff6018836129b5565b9150613e0a82613dc9565b602082019050919050565b60006020820190508181036000830152613e2e81613df2565b9050919050565b7f45434453413a20696e76616c6964207369676e6174757265206c656e67746800600082015250565b6000613e6b601f836129b5565b9150613e7682613e35565b602082019050919050565b60006020820190508181036000830152613e9a81613e5e565b9050919050565b7f45434453413a20696e76616c6964207369676e6174757265202773272076616c60008201527f7565000000000000000000000000000000000000000000000000000000000000602082015250565b6000613efd6022836129b5565b9150613f0882613ea1565b604082019050919050565b60006020820190508181036000830152613f2c81613ef0565b9050919050565b7f4552433732313a206d696e7420746f20746865207a65726f2061646472657373600082015250565b6000613f696020836129b5565b9150613f7482613f33565b602082019050919050565b60006020820190508181036000830152613f9881613f5c565b9050919050565b7f4552433732313a20746f6b656e20616c7265616479206d696e74656400000000600082015250565b6000613fd5601c836129b5565b9150613fe082613f9f565b602082019050919050565b6000602082019050818103600083015261400481613fc8565b9050919050565b61401481613d49565b82525050565b614023816133c7565b82525050565b600060808201905061403e600083018761400b565b61404b602083018661401a565b614058604083018561400b565b614065606083018461400b565b9594505050505056fea2646970667358221220abe2d5d7f250cc901586f718624be6e4f4957859f802589d86a39712310d8b0464736f6c63430008080033",
  "devdoc": {
    "kind": "dev",
    "methods": {
      "approve(address,uint256)": {
        "details": "See {IERC721-approve}."
      },
      "balanceOf(address)": {
        "details": "See {IERC721-balanceOf}."
      },
      "getApproved(uint256)": {
        "details": "See {IERC721-getApproved}."
      },
      "isApprovedForAll(address,address)": {
        "details": "See {IERC721-isApprovedForAll}."
      },
      "name()": {
        "details": "See {IERC721Metadata-name}."
      },
      "owner()": {
        "details": "Returns the address of the current owner."
      },
      "ownerOf(uint256)": {
        "details": "See {IERC721-ownerOf}."
      },
      "renounceOwnership()": {
        "details": "Leaves the contract without owner. It will not be possible to call `onlyOwner` functions anymore. Can only be called by the current owner. NOTE: Renouncing ownership will leave the contract without an owner, thereby removing any functionality that is only available to the owner."
      },
      "safeTransferFrom(address,address,uint256)": {
        "details": "See {IERC721-safeTransferFrom}."
      },
      "safeTransferFrom(address,address,uint256,bytes)": {
        "details": "See {IERC721-safeTransferFrom}."
      },
      "setApprovalForAll(address,bool)": {
        "details": "See {IERC721-setApprovalForAll}."
      },
      "supportsInterface(bytes4)": {
        "details": "See {IERC165-supportsInterface}."
      },
      "symbol()": {
        "details": "See {IERC721Metadata-symbol}."
      },
      "transferFrom(address,address,uint256)": {
        "details": "See {IERC721-transferFrom}."
      },
      "transferOwnership(address)": {
        "details": "Transfers ownership of the contract to a new account (`newOwner`). Can only be called by the current owner."
      }
    },
    "version": 1
  },
  "userdoc": {
    "kind": "user",
    "methods": {},
    "version": 1
  },
  "storageLayout": {
    "storage": [
      {
        "astId": 138,
        "contract": "contracts/tokens/HexlinkErc721Impl.sol:HexlinkErc721Impl",
        "label": "_initialized",
        "offset": 0,
        "slot": "0",
        "type": "t_uint8"
      },
      {
        "astId": 141,
        "contract": "contracts/tokens/HexlinkErc721Impl.sol:HexlinkErc721Impl",
        "label": "_initializing",
        "offset": 1,
        "slot": "0",
        "type": "t_bool"
      },
      {
        "astId": 1756,
        "contract": "contracts/tokens/HexlinkErc721Impl.sol:HexlinkErc721Impl",
        "label": "__gap",
        "offset": 0,
        "slot": "1",
        "type": "t_array(t_uint256)50_storage"
      },
      {
        "astId": 10,
        "contract": "contracts/tokens/HexlinkErc721Impl.sol:HexlinkErc721Impl",
        "label": "_owner",
        "offset": 0,
        "slot": "51",
        "type": "t_address"
      },
      {
        "astId": 130,
        "contract": "contracts/tokens/HexlinkErc721Impl.sol:HexlinkErc721Impl",
        "label": "__gap",
        "offset": 0,
        "slot": "52",
        "type": "t_array(t_uint256)49_storage"
      },
      {
        "astId": 1975,
        "contract": "contracts/tokens/HexlinkErc721Impl.sol:HexlinkErc721Impl",
        "label": "__gap",
        "offset": 0,
        "slot": "101",
        "type": "t_array(t_uint256)50_storage"
      },
      {
        "astId": 329,
        "contract": "contracts/tokens/HexlinkErc721Impl.sol:HexlinkErc721Impl",
        "label": "_name",
        "offset": 0,
        "slot": "151",
        "type": "t_string_storage"
      },
      {
        "astId": 331,
        "contract": "contracts/tokens/HexlinkErc721Impl.sol:HexlinkErc721Impl",
        "label": "_symbol",
        "offset": 0,
        "slot": "152",
        "type": "t_string_storage"
      },
      {
        "astId": 335,
        "contract": "contracts/tokens/HexlinkErc721Impl.sol:HexlinkErc721Impl",
        "label": "_owners",
        "offset": 0,
        "slot": "153",
        "type": "t_mapping(t_uint256,t_address)"
      },
      {
        "astId": 339,
        "contract": "contracts/tokens/HexlinkErc721Impl.sol:HexlinkErc721Impl",
        "label": "_balances",
        "offset": 0,
        "slot": "154",
        "type": "t_mapping(t_address,t_uint256)"
      },
      {
        "astId": 343,
        "contract": "contracts/tokens/HexlinkErc721Impl.sol:HexlinkErc721Impl",
        "label": "_tokenApprovals",
        "offset": 0,
        "slot": "155",
        "type": "t_mapping(t_uint256,t_address)"
      },
      {
        "astId": 349,
        "contract": "contracts/tokens/HexlinkErc721Impl.sol:HexlinkErc721Impl",
        "label": "_operatorApprovals",
        "offset": 0,
        "slot": "156",
        "type": "t_mapping(t_address,t_mapping(t_address,t_bool))"
      },
      {
        "astId": 1269,
        "contract": "contracts/tokens/HexlinkErc721Impl.sol:HexlinkErc721Impl",
        "label": "__gap",
        "offset": 0,
        "slot": "157",
        "type": "t_array(t_uint256)44_storage"
      },
      {
        "astId": 6160,
        "contract": "contracts/tokens/HexlinkErc721Impl.sol:HexlinkErc721Impl",
        "label": "minted_",
        "offset": 0,
        "slot": "201",
        "type": "t_mapping(t_address,t_uint256)"
      },
      {
        "astId": 6162,
        "contract": "contracts/tokens/HexlinkErc721Impl.sol:HexlinkErc721Impl",
        "label": "baseTokenURI",
        "offset": 0,
        "slot": "202",
        "type": "t_string_storage"
      },
      {
        "astId": 6164,
        "contract": "contracts/tokens/HexlinkErc721Impl.sol:HexlinkErc721Impl",
        "label": "maxSupply",
        "offset": 0,
        "slot": "203",
        "type": "t_uint256"
      },
      {
        "astId": 6167,
        "contract": "contracts/tokens/HexlinkErc721Impl.sol:HexlinkErc721Impl",
        "label": "tokenId",
        "offset": 0,
        "slot": "204",
        "type": "t_uint256"
      },
      {
        "astId": 6169,
        "contract": "contracts/tokens/HexlinkErc721Impl.sol:HexlinkErc721Impl",
        "label": "validator",
        "offset": 0,
        "slot": "205",
        "type": "t_address"
      },
      {
        "astId": 6171,
        "contract": "contracts/tokens/HexlinkErc721Impl.sol:HexlinkErc721Impl",
        "label": "transferrable",
        "offset": 20,
        "slot": "205",
        "type": "t_bool"
      },
      {
        "astId": 6173,
        "contract": "contracts/tokens/HexlinkErc721Impl.sol:HexlinkErc721Impl",
        "label": "gasSponsorship",
        "offset": 0,
        "slot": "206",
        "type": "t_uint256"
      }
    ],
    "types": {
      "t_address": {
        "encoding": "inplace",
        "label": "address",
        "numberOfBytes": "20"
      },
      "t_array(t_uint256)44_storage": {
        "base": "t_uint256",
        "encoding": "inplace",
        "label": "uint256[44]",
        "numberOfBytes": "1408"
      },
      "t_array(t_uint256)49_storage": {
        "base": "t_uint256",
        "encoding": "inplace",
        "label": "uint256[49]",
        "numberOfBytes": "1568"
      },
      "t_array(t_uint256)50_storage": {
        "base": "t_uint256",
        "encoding": "inplace",
        "label": "uint256[50]",
        "numberOfBytes": "1600"
      },
      "t_bool": {
        "encoding": "inplace",
        "label": "bool",
        "numberOfBytes": "1"
      },
      "t_mapping(t_address,t_bool)": {
        "encoding": "mapping",
        "key": "t_address",
        "label": "mapping(address => bool)",
        "numberOfBytes": "32",
        "value": "t_bool"
      },
      "t_mapping(t_address,t_mapping(t_address,t_bool))": {
        "encoding": "mapping",
        "key": "t_address",
        "label": "mapping(address => mapping(address => bool))",
        "numberOfBytes": "32",
        "value": "t_mapping(t_address,t_bool)"
      },
      "t_mapping(t_address,t_uint256)": {
        "encoding": "mapping",
        "key": "t_address",
        "label": "mapping(address => uint256)",
        "numberOfBytes": "32",
        "value": "t_uint256"
      },
      "t_mapping(t_uint256,t_address)": {
        "encoding": "mapping",
        "key": "t_uint256",
        "label": "mapping(uint256 => address)",
        "numberOfBytes": "32",
        "value": "t_address"
      },
      "t_string_storage": {
        "encoding": "bytes",
        "label": "string",
        "numberOfBytes": "32"
      },
      "t_uint256": {
        "encoding": "inplace",
        "label": "uint256",
        "numberOfBytes": "32"
      },
      "t_uint8": {
        "encoding": "inplace",
        "label": "uint8",
        "numberOfBytes": "1"
      }
    }
  }
}