{
  "address": "0x8ba0d8e38ae3af4528767d745f63501be61d3716",
  "abi": [
    {
      "inputs": [
        {
          "internalType": "address",
          "name": "owner",
          "type": "address"
        },
        {
          "components": [
            {
              "internalType": "bytes32",
              "name": "identityType",
              "type": "bytes32"
            },
            {
              "internalType": "bytes32",
              "name": "authType",
              "type": "bytes32"
            }
          ],
          "internalType": "struct OracleSelector[]",
          "name": "selectors",
          "type": "tuple[]"
        },
        {
          "internalType": "address[]",
          "name": "oracles",
          "type": "address[]"
        }
      ],
      "stateMutability": "nonpayable",
      "type": "constructor"
    },
    {
      "anonymous": false,
      "inputs": [
        {
          "indexed": true,
          "internalType": "address",
          "name": "previousOwner",
          "type": "address"
        },
        {
          "indexed": true,
          "internalType": "address",
          "name": "newOwner",
          "type": "address"
        }
      ],
      "name": "OwnershipTransferred",
      "type": "event"
    },
    {
      "anonymous": false,
      "inputs": [
        {
          "components": [
            {
              "internalType": "bytes32",
              "name": "identityType",
              "type": "bytes32"
            },
            {
              "internalType": "bytes32",
              "name": "authType",
              "type": "bytes32"
            }
          ],
          "indexed": false,
          "internalType": "struct OracleSelector",
          "name": "selector",
          "type": "tuple"
        },
        {
          "indexed": false,
          "internalType": "address",
          "name": "oracle",
          "type": "address"
        }
      ],
      "name": "Register",
      "type": "event"
    },
    {
      "anonymous": false,
      "inputs": [
        {
          "components": [
            {
              "internalType": "bytes32",
              "name": "identityType",
              "type": "bytes32"
            },
            {
              "internalType": "bytes32",
              "name": "authType",
              "type": "bytes32"
            }
          ],
          "indexed": false,
          "internalType": "struct OracleSelector[]",
          "name": "selectors",
          "type": "tuple[]"
        },
        {
          "indexed": false,
          "internalType": "address[]",
          "name": "oracles",
          "type": "address[]"
        }
      ],
      "name": "RegisterBatch",
      "type": "event"
    },
    {
      "inputs": [
        {
          "components": [
            {
              "internalType": "bytes32",
              "name": "identityType",
              "type": "bytes32"
            },
            {
              "internalType": "bytes32",
              "name": "authType",
              "type": "bytes32"
            }
          ],
          "internalType": "struct OracleSelector",
          "name": "selector",
          "type": "tuple"
        }
      ],
      "name": "oracle",
      "outputs": [
        {
          "internalType": "address",
          "name": "",
          "type": "address"
        }
      ],
      "stateMutability": "view",
      "type": "function"
    },
    {
      "inputs": [],
      "name": "owner",
      "outputs": [
        {
          "internalType": "address",
          "name": "",
          "type": "address"
        }
      ],
      "stateMutability": "view",
      "type": "function"
    },
    {
      "inputs": [
        {
          "components": [
            {
              "internalType": "bytes32",
              "name": "identityType",
              "type": "bytes32"
            },
            {
              "internalType": "bytes32",
              "name": "authType",
              "type": "bytes32"
            }
          ],
          "internalType": "struct OracleSelector",
          "name": "selector",
          "type": "tuple"
        },
        {
          "internalType": "address",
          "name": "_oracle",
          "type": "address"
        }
      ],
      "name": "register",
      "outputs": [],
      "stateMutability": "nonpayable",
      "type": "function"
    },
    {
      "inputs": [
        {
          "components": [
            {
              "internalType": "bytes32",
              "name": "identityType",
              "type": "bytes32"
            },
            {
              "internalType": "bytes32",
              "name": "authType",
              "type": "bytes32"
            }
          ],
          "internalType": "struct OracleSelector[]",
          "name": "selectors",
          "type": "tuple[]"
        },
        {
          "internalType": "address[]",
          "name": "oracles",
          "type": "address[]"
        }
      ],
      "name": "registerBatch",
      "outputs": [],
      "stateMutability": "nonpayable",
      "type": "function"
    },
    {
      "inputs": [],
      "name": "renounceOwnership",
      "outputs": [],
      "stateMutability": "nonpayable",
      "type": "function"
    },
    {
      "inputs": [
        {
          "internalType": "address",
          "name": "newOwner",
          "type": "address"
        }
      ],
      "name": "transferOwnership",
      "outputs": [],
      "stateMutability": "nonpayable",
      "type": "function"
    }
  ],
  "transactionHash": "0xb69e616e28651302f971fa500aa93796b4ec1fde3454c1ec33a3595f88dec908",
  "args": [
    "0x8d64228b7E193C6A15496A6A46e12A745Db043B7",
    [
      {
        "identityType": "0xa28419e839eda1f8810510d0b578872b1165326edcf6e8575613087bd6b77e35",
        "authType": "0x1813eb643782d018c9cddc1a23367e88e4ac8a6c909385f7506f2aade99a7a61"
      },
      {
        "identityType": "0x2c9a8db65e0bf980ebde2838b620bdc1d111ff11cee92c61c9a9a5f460788244",
        "authType": "0x870db57a29b582d1dc77557832338d2df30b5c262da14fef287de0115bb9ba0a"
      }
    ],
    [
      "0xe3F49bA9689846A061CFE2C0f669fB063E99e6AE",
      "0xe2ef0a85B7Ace0d178424CF018A81FDa2E103C09"
    ]
  ],
  "numDeployments": 4,
  "solcInputHash": "74b9369ead8380d62bfd73f274396a29",
  "bytecode": "0x60806040523480156200001157600080fd5b5060405162001a5c38038062001a5c833981810160405281019062000037919062000717565b620000576200004b6200008360201b60201c565b6200008b60201b60201c565b62000068836200008b60201b60201c565b6200007a82826200014f60201b60201c565b50505062000a2f565b600033905090565b60008060009054906101000a900473ffffffffffffffffffffffffffffffffffffffff169050816000806101000a81548173ffffffffffffffffffffffffffffffffffffffff021916908373ffffffffffffffffffffffffffffffffffffffff1602179055508173ffffffffffffffffffffffffffffffffffffffff168173ffffffffffffffffffffffffffffffffffffffff167f8be0079c531659141344cd1fd0a4f28419497f9722a3daafe3b4186f6b6457e060405160405180910390a35050565b805182511462000196576040517f08c379a00000000000000000000000000000000000000000000000000000000081526004016200018d9062000812565b60405180910390fd5b60005b81518110156200020557620001ef838281518110620001bd57620001bc62000834565b5b6020026020010151838381518110620001db57620001da62000834565b5b60200260200101516200020a60201b60201c565b8080620001fc906200089c565b91505062000199565b505050565b6000801b8260000151141580156200024f5750600073ffffffffffffffffffffffffffffffffffffffff168173ffffffffffffffffffffffffffffffffffffffff1614155b62000291576040517f08c379a000000000000000000000000000000000000000000000000000000000815260040162000288906200093a565b60405180910390fd5b620002bd8173ffffffffffffffffffffffffffffffffffffffff166200036560201b620002b71760201c565b620002ff576040517f08c379a0000000000000000000000000000000000000000000000000000000008152600401620002f690620009ac565b60405180910390fd5b806001600062000315856200038860201b60201c565b815260200190815260200160002060006101000a81548173ffffffffffffffffffffffffffffffffffffffff021916908373ffffffffffffffffffffffffffffffffffffffff1602179055505050565b6000808273ffffffffffffffffffffffffffffffffffffffff163b119050919050565b6000816040516020016200039d919062000a12565b604051602081830303815290604052805190602001209050919050565b6000604051905090565b600080fd5b600080fd5b600073ffffffffffffffffffffffffffffffffffffffff82169050919050565b6000620003fb82620003ce565b9050919050565b6200040d81620003ee565b81146200041957600080fd5b50565b6000815190506200042d8162000402565b92915050565b600080fd5b6000601f19601f8301169050919050565b7f4e487b7100000000000000000000000000000000000000000000000000000000600052604160045260246000fd5b620004838262000438565b810181811067ffffffffffffffff82111715620004a557620004a462000449565b5b80604052505050565b6000620004ba620003ba565b9050620004c8828262000478565b919050565b600067ffffffffffffffff821115620004eb57620004ea62000449565b5b602082029050602081019050919050565b600080fd5b600080fd5b6000819050919050565b6200051b8162000506565b81146200052757600080fd5b50565b6000815190506200053b8162000510565b92915050565b6000604082840312156200055a576200055962000501565b5b620005666040620004ae565b9050600062000578848285016200052a565b60008301525060206200058e848285016200052a565b60208301525092915050565b6000620005b1620005ab84620004cd565b620004ae565b90508083825260208201905060408402830185811115620005d757620005d6620004fc565b5b835b81811015620006045780620005ef888262000541565b845260208401935050604081019050620005d9565b5050509392505050565b600082601f83011262000626576200062562000433565b5b8151620006388482602086016200059a565b91505092915050565b600067ffffffffffffffff8211156200065f576200065e62000449565b5b602082029050602081019050919050565b600062000687620006818462000641565b620004ae565b90508083825260208201905060208402830185811115620006ad57620006ac620004fc565b5b835b81811015620006da5780620006c588826200041c565b845260208401935050602081019050620006af565b5050509392505050565b600082601f830112620006fc57620006fb62000433565b5b81516200070e84826020860162000670565b91505092915050565b600080600060608486031215620007335762000732620003c4565b5b600062000743868287016200041c565b935050602084015167ffffffffffffffff811115620007675762000766620003c9565b5b62000775868287016200060e565b925050604084015167ffffffffffffffff811115620007995762000798620003c9565b5b620007a786828701620006e4565b9150509250925092565b600082825260208201905092915050565b7f4845584c30303100000000000000000000000000000000000000000000000000600082015250565b6000620007fa600783620007b1565b91506200080782620007c2565b602082019050919050565b600060208201905081810360008301526200082d81620007eb565b9050919050565b7f4e487b7100000000000000000000000000000000000000000000000000000000600052603260045260246000fd5b7f4e487b7100000000000000000000000000000000000000000000000000000000600052601160045260246000fd5b6000819050919050565b6000620008a98262000892565b91507fffffffffffffffffffffffffffffffffffffffffffffffffffffffffffffffff821415620008df57620008de62000863565b5b600182019050919050565b7f4845584c30303200000000000000000000000000000000000000000000000000600082015250565b600062000922600783620007b1565b91506200092f82620008ea565b602082019050919050565b60006020820190508181036000830152620009558162000913565b9050919050565b7f4845584c30313300000000000000000000000000000000000000000000000000600082015250565b600062000994600783620007b1565b9150620009a1826200095c565b602082019050919050565b60006020820190508181036000830152620009c78162000985565b9050919050565b620009d98162000506565b82525050565b604082016000820151620009f76000850182620009ce565b50602082015162000a0c6020850182620009ce565b50505050565b600060408201905062000a296000830184620009df565b92915050565b61101d8062000a3f6000396000f3fe608060405234801561001057600080fd5b50600436106100625760003560e01c806303cafa661461006757806327c07b8e14610083578063715018a61461009f5780638da5cb5b146100a9578063d2f18f19146100c7578063f2fde38b146100f7575b600080fd5b610081600480360381019061007c9190610952565b610113565b005b61009d600480360381019061009891906109ca565b610162565b005b6100a76101b1565b005b6100b16101c5565b6040516100be9190610a19565b60405180910390f35b6100e160048036038101906100dc9190610a34565b6101ee565b6040516100ee9190610a19565b60405180910390f35b610111600480360381019061010c9190610a61565b610233565b005b61011b6102da565b6101258282610358565b7fa1fc85ef3c85b4d934bbde88e6bcd678e779fe1323e6bfd7fdb9d84285b9c7f38282604051610156929190610c39565b60405180910390a15050565b61016a6102da565b61017482826103fe565b7fc70bfc425b92cb8e35c3f82f53e284d8aba2e6f62a8e2cad1ce1c4ffe5e290a582826040516101a5929190610c9f565b60405180910390a15050565b6101b96102da565b6101c3600061053d565b565b60008060009054906101000a900473ffffffffffffffffffffffffffffffffffffffff16905090565b6000600160006101fd84610601565b815260200190815260200160002060009054906101000a900473ffffffffffffffffffffffffffffffffffffffff169050919050565b61023b6102da565b600073ffffffffffffffffffffffffffffffffffffffff168173ffffffffffffffffffffffffffffffffffffffff1614156102ab576040517f08c379a00000000000000000000000000000000000000000000000000000000081526004016102a290610d4b565b60405180910390fd5b6102b48161053d565b50565b6000808273ffffffffffffffffffffffffffffffffffffffff163b119050919050565b6102e2610631565b73ffffffffffffffffffffffffffffffffffffffff166103006101c5565b73ffffffffffffffffffffffffffffffffffffffff1614610356576040517f08c379a000000000000000000000000000000000000000000000000000000000815260040161034d90610db7565b60405180910390fd5b565b805182511461039c576040517f08c379a000000000000000000000000000000000000000000000000000000000815260040161039390610e23565b60405180910390fd5b60005b81518110156103f9576103e68382815181106103be576103bd610e43565b5b60200260200101518383815181106103d9576103d8610e43565b5b60200260200101516103fe565b80806103f190610eab565b91505061039f565b505050565b6000801b8260000151141580156104425750600073ffffffffffffffffffffffffffffffffffffffff168173ffffffffffffffffffffffffffffffffffffffff1614155b610481576040517f08c379a000000000000000000000000000000000000000000000000000000000815260040161047890610f40565b60405180910390fd5b6104a08173ffffffffffffffffffffffffffffffffffffffff166102b7565b6104df576040517f08c379a00000000000000000000000000000000000000000000000000000000081526004016104d690610fac565b60405180910390fd5b80600160006104ed85610601565b815260200190815260200160002060006101000a81548173ffffffffffffffffffffffffffffffffffffffff021916908373ffffffffffffffffffffffffffffffffffffffff1602179055505050565b60008060009054906101000a900473ffffffffffffffffffffffffffffffffffffffff169050816000806101000a81548173ffffffffffffffffffffffffffffffffffffffff021916908373ffffffffffffffffffffffffffffffffffffffff1602179055508173ffffffffffffffffffffffffffffffffffffffff168173ffffffffffffffffffffffffffffffffffffffff167f8be0079c531659141344cd1fd0a4f28419497f9722a3daafe3b4186f6b6457e060405160405180910390a35050565b6000816040516020016106149190610fcc565b604051602081830303815290604052805190602001209050919050565b600033905090565b6000604051905090565b600080fd5b600080fd5b600080fd5b6000601f19601f8301169050919050565b7f4e487b7100000000000000000000000000000000000000000000000000000000600052604160045260246000fd5b61069b82610652565b810181811067ffffffffffffffff821117156106ba576106b9610663565b5b80604052505050565b60006106cd610639565b90506106d98282610692565b919050565b600067ffffffffffffffff8211156106f9576106f8610663565b5b602082029050602081019050919050565b600080fd5b600080fd5b6000819050919050565b61072781610714565b811461073257600080fd5b50565b6000813590506107448161071e565b92915050565b6000604082840312156107605761075f61070f565b5b61076a60406106c3565b9050600061077a84828501610735565b600083015250602061078e84828501610735565b60208301525092915050565b60006107ad6107a8846106de565b6106c3565b905080838252602082019050604084028301858111156107d0576107cf61070a565b5b835b818110156107f957806107e5888261074a565b8452602084019350506040810190506107d2565b5050509392505050565b600082601f8301126108185761081761064d565b5b813561082884826020860161079a565b91505092915050565b600067ffffffffffffffff82111561084c5761084b610663565b5b602082029050602081019050919050565b600073ffffffffffffffffffffffffffffffffffffffff82169050919050565b60006108888261085d565b9050919050565b6108988161087d565b81146108a357600080fd5b50565b6000813590506108b58161088f565b92915050565b60006108ce6108c984610831565b6106c3565b905080838252602082019050602084028301858111156108f1576108f061070a565b5b835b8181101561091a578061090688826108a6565b8452602084019350506020810190506108f3565b5050509392505050565b600082601f8301126109395761093861064d565b5b81356109498482602086016108bb565b91505092915050565b6000806040838503121561096957610968610643565b5b600083013567ffffffffffffffff81111561098757610986610648565b5b61099385828601610803565b925050602083013567ffffffffffffffff8111156109b4576109b3610648565b5b6109c085828601610924565b9150509250929050565b600080606083850312156109e1576109e0610643565b5b60006109ef8582860161074a565b9250506040610a00858286016108a6565b9150509250929050565b610a138161087d565b82525050565b6000602082019050610a2e6000830184610a0a565b92915050565b600060408284031215610a4a57610a49610643565b5b6000610a588482850161074a565b91505092915050565b600060208284031215610a7757610a76610643565b5b6000610a85848285016108a6565b91505092915050565b600081519050919050565b600082825260208201905092915050565b6000819050602082019050919050565b610ac381610714565b82525050565b604082016000820151610adf6000850182610aba565b506020820151610af26020850182610aba565b50505050565b6000610b048383610ac9565b60408301905092915050565b6000602082019050919050565b6000610b2882610a8e565b610b328185610a99565b9350610b3d83610aaa565b8060005b83811015610b6e578151610b558882610af8565b9750610b6083610b10565b925050600181019050610b41565b5085935050505092915050565b600081519050919050565b600082825260208201905092915050565b6000819050602082019050919050565b610bb08161087d565b82525050565b6000610bc28383610ba7565b60208301905092915050565b6000602082019050919050565b6000610be682610b7b565b610bf08185610b86565b9350610bfb83610b97565b8060005b83811015610c2c578151610c138882610bb6565b9750610c1e83610bce565b925050600181019050610bff565b5085935050505092915050565b60006040820190508181036000830152610c538185610b1d565b90508181036020830152610c678184610bdb565b90509392505050565b604082016000820151610c866000850182610aba565b506020820151610c996020850182610aba565b50505050565b6000606082019050610cb46000830185610c70565b610cc16040830184610a0a565b9392505050565b600082825260208201905092915050565b7f4f776e61626c653a206e6577206f776e657220697320746865207a65726f206160008201527f6464726573730000000000000000000000000000000000000000000000000000602082015250565b6000610d35602683610cc8565b9150610d4082610cd9565b604082019050919050565b60006020820190508181036000830152610d6481610d28565b9050919050565b7f4f776e61626c653a2063616c6c6572206973206e6f7420746865206f776e6572600082015250565b6000610da1602083610cc8565b9150610dac82610d6b565b602082019050919050565b60006020820190508181036000830152610dd081610d94565b9050919050565b7f4845584c30303100000000000000000000000000000000000000000000000000600082015250565b6000610e0d600783610cc8565b9150610e1882610dd7565b602082019050919050565b60006020820190508181036000830152610e3c81610e00565b9050919050565b7f4e487b7100000000000000000000000000000000000000000000000000000000600052603260045260246000fd5b7f4e487b7100000000000000000000000000000000000000000000000000000000600052601160045260246000fd5b6000819050919050565b6000610eb682610ea1565b91507fffffffffffffffffffffffffffffffffffffffffffffffffffffffffffffffff821415610ee957610ee8610e72565b5b600182019050919050565b7f4845584c30303200000000000000000000000000000000000000000000000000600082015250565b6000610f2a600783610cc8565b9150610f3582610ef4565b602082019050919050565b60006020820190508181036000830152610f5981610f1d565b9050919050565b7f4845584c30313300000000000000000000000000000000000000000000000000600082015250565b6000610f96600783610cc8565b9150610fa182610f60565b602082019050919050565b60006020820190508181036000830152610fc581610f89565b9050919050565b6000604082019050610fe16000830184610c70565b9291505056fea2646970667358221220f38631fb30be92f5f6d7935171b85fe965ede379ce52655f4fdac10bd5def62d64736f6c63430008080033",
  "devdoc": {
    "kind": "dev",
    "methods": {
      "owner()": {
        "details": "Returns the address of the current owner."
      },
      "renounceOwnership()": {
        "details": "Leaves the contract without owner. It will not be possible to call `onlyOwner` functions anymore. Can only be called by the current owner. NOTE: Renouncing ownership will leave the contract without an owner, thereby removing any functionality that is only available to the owner."
      },
      "transferOwnership(address)": {
        "details": "Transfers ownership of the contract to a new account (`newOwner`). Can only be called by the current owner."
      }
    },
    "version": 1
  },
  "userdoc": {
    "kind": "user",
    "methods": {},
    "version": 1
  },
  "storageLayout": {
    "storage": [
      {
        "astId": 7,
        "contract": "contracts/auth/IdentityOracleRegistry.sol:IdentityOracleRegistry",
        "label": "_owner",
        "offset": 0,
        "slot": "0",
        "type": "t_address"
      },
      {
        "astId": 2629,
        "contract": "contracts/auth/IdentityOracleRegistry.sol:IdentityOracleRegistry",
        "label": "oracles_",
        "offset": 0,
        "slot": "1",
        "type": "t_mapping(t_bytes32,t_address)"
      }
    ],
    "types": {
      "t_address": {
        "encoding": "inplace",
        "label": "address",
        "numberOfBytes": "20"
      },
      "t_bytes32": {
        "encoding": "inplace",
        "label": "bytes32",
        "numberOfBytes": "32"
      },
      "t_mapping(t_bytes32,t_address)": {
        "encoding": "mapping",
        "key": "t_bytes32",
        "label": "mapping(bytes32 => address)",
        "numberOfBytes": "32",
        "value": "t_address"
      }
    }
  }
}