{
  "address": "0xBEc6B4B1b8912E7B5fe108bE85c52Fd9D38edd1D",
  "abi": [
    {
      "inputs": [
        {
          "internalType": "address",
          "name": "owner",
          "type": "address"
        },
        {
          "components": [
            {
              "internalType": "uint256",
              "name": "identityType",
              "type": "uint256"
            },
            {
              "internalType": "uint256",
              "name": "authType",
              "type": "uint256"
            }
          ],
          "internalType": "struct OracleSelector[]",
          "name": "selectors",
          "type": "tuple[]"
        },
        {
          "internalType": "address[]",
          "name": "oracles",
          "type": "address[]"
        }
      ],
      "stateMutability": "nonpayable",
      "type": "constructor"
    },
    {
      "anonymous": false,
      "inputs": [
        {
          "indexed": true,
          "internalType": "address",
          "name": "previousOwner",
          "type": "address"
        },
        {
          "indexed": true,
          "internalType": "address",
          "name": "newOwner",
          "type": "address"
        }
      ],
      "name": "OwnershipTransferred",
      "type": "event"
    },
    {
      "anonymous": false,
      "inputs": [
        {
          "components": [
            {
              "internalType": "uint256",
              "name": "identityType",
              "type": "uint256"
            },
            {
              "internalType": "uint256",
              "name": "authType",
              "type": "uint256"
            }
          ],
          "indexed": false,
          "internalType": "struct OracleSelector",
          "name": "selector",
          "type": "tuple"
        },
        {
          "indexed": false,
          "internalType": "address",
          "name": "oracle",
          "type": "address"
        }
      ],
      "name": "Register",
      "type": "event"
    },
    {
      "anonymous": false,
      "inputs": [
        {
          "components": [
            {
              "internalType": "uint256",
              "name": "identityType",
              "type": "uint256"
            },
            {
              "internalType": "uint256",
              "name": "authType",
              "type": "uint256"
            }
          ],
          "indexed": false,
          "internalType": "struct OracleSelector[]",
          "name": "selectors",
          "type": "tuple[]"
        },
        {
          "indexed": false,
          "internalType": "address[]",
          "name": "oracles",
          "type": "address[]"
        }
      ],
      "name": "RegisterBatch",
      "type": "event"
    },
    {
      "inputs": [
        {
          "components": [
            {
              "internalType": "uint256",
              "name": "identityType",
              "type": "uint256"
            },
            {
              "internalType": "uint256",
              "name": "authType",
              "type": "uint256"
            }
          ],
          "internalType": "struct OracleSelector",
          "name": "selector",
          "type": "tuple"
        }
      ],
      "name": "oracle",
      "outputs": [
        {
          "internalType": "address",
          "name": "",
          "type": "address"
        }
      ],
      "stateMutability": "view",
      "type": "function"
    },
    {
      "inputs": [],
      "name": "owner",
      "outputs": [
        {
          "internalType": "address",
          "name": "",
          "type": "address"
        }
      ],
      "stateMutability": "view",
      "type": "function"
    },
    {
      "inputs": [
        {
          "components": [
            {
              "internalType": "uint256",
              "name": "identityType",
              "type": "uint256"
            },
            {
              "internalType": "uint256",
              "name": "authType",
              "type": "uint256"
            }
          ],
          "internalType": "struct OracleSelector",
          "name": "selector",
          "type": "tuple"
        },
        {
          "internalType": "address",
          "name": "_oracle",
          "type": "address"
        }
      ],
      "name": "register",
      "outputs": [],
      "stateMutability": "nonpayable",
      "type": "function"
    },
    {
      "inputs": [
        {
          "components": [
            {
              "internalType": "uint256",
              "name": "identityType",
              "type": "uint256"
            },
            {
              "internalType": "uint256",
              "name": "authType",
              "type": "uint256"
            }
          ],
          "internalType": "struct OracleSelector[]",
          "name": "selectors",
          "type": "tuple[]"
        },
        {
          "internalType": "address[]",
          "name": "oracles",
          "type": "address[]"
        }
      ],
      "name": "registerBatch",
      "outputs": [],
      "stateMutability": "nonpayable",
      "type": "function"
    },
    {
      "inputs": [],
      "name": "renounceOwnership",
      "outputs": [],
      "stateMutability": "nonpayable",
      "type": "function"
    },
    {
      "inputs": [
        {
          "internalType": "address",
          "name": "newOwner",
          "type": "address"
        }
      ],
      "name": "transferOwnership",
      "outputs": [],
      "stateMutability": "nonpayable",
      "type": "function"
    }
  ],
  "transactionHash": "0x5ff8a617a97c06bcd4ba195a17b109d6e155b5583abfcdff9044b48817dac3e7",
  "args": [
    "0x8d64228b7E193C6A15496A6A46e12A745Db043B7",
    [
      {
        "identityType": 1,
        "authType": 1
      },
      {
        "identityType": 4,
        "authType": 2
      }
    ],
    [
      "0xe3F49bA9689846A061CFE2C0f669fB063E99e6AE",
      "0xe2ef0a85B7Ace0d178424CF018A81FDa2E103C09"
    ]
  ],
  "numDeployments": 1,
  "solcInputHash": "66f81f85fa58eb5ab3b4a52aa9c68636",
  "bytecode": "0x60806040523480156200001157600080fd5b5060405162001a4438038062001a44833981810160405281019062000037919062000715565b620000576200004b6200008360201b60201c565b6200008b60201b60201c565b62000068836200008b60201b60201c565b6200007a82826200014f60201b60201c565b50505062000a23565b600033905090565b60008060009054906101000a900473ffffffffffffffffffffffffffffffffffffffff169050816000806101000a81548173ffffffffffffffffffffffffffffffffffffffff021916908373ffffffffffffffffffffffffffffffffffffffff1602179055508173ffffffffffffffffffffffffffffffffffffffff168173ffffffffffffffffffffffffffffffffffffffff167f8be0079c531659141344cd1fd0a4f28419497f9722a3daafe3b4186f6b6457e060405160405180910390a35050565b805182511462000196576040517f08c379a00000000000000000000000000000000000000000000000000000000081526004016200018d9062000810565b60405180910390fd5b60005b81518110156200020557620001ef838281518110620001bd57620001bc62000832565b5b6020026020010151838381518110620001db57620001da62000832565b5b60200260200101516200020a60201b60201c565b8080620001fc9062000890565b91505062000199565b505050565b60008260000151141580156200024d5750600073ffffffffffffffffffffffffffffffffffffffff168173ffffffffffffffffffffffffffffffffffffffff1614155b6200028f576040517f08c379a000000000000000000000000000000000000000000000000000000000815260040162000286906200092e565b60405180910390fd5b620002bb8173ffffffffffffffffffffffffffffffffffffffff166200036360201b620002b71760201c565b620002fd576040517f08c379a0000000000000000000000000000000000000000000000000000000008152600401620002f490620009a0565b60405180910390fd5b806001600062000313856200038660201b60201c565b815260200190815260200160002060006101000a81548173ffffffffffffffffffffffffffffffffffffffff021916908373ffffffffffffffffffffffffffffffffffffffff1602179055505050565b6000808273ffffffffffffffffffffffffffffffffffffffff163b119050919050565b6000816040516020016200039b919062000a06565b604051602081830303815290604052805190602001209050919050565b6000604051905090565b600080fd5b600080fd5b600073ffffffffffffffffffffffffffffffffffffffff82169050919050565b6000620003f982620003cc565b9050919050565b6200040b81620003ec565b81146200041757600080fd5b50565b6000815190506200042b8162000400565b92915050565b600080fd5b6000601f19601f8301169050919050565b7f4e487b7100000000000000000000000000000000000000000000000000000000600052604160045260246000fd5b620004818262000436565b810181811067ffffffffffffffff82111715620004a357620004a262000447565b5b80604052505050565b6000620004b8620003b8565b9050620004c6828262000476565b919050565b600067ffffffffffffffff821115620004e957620004e862000447565b5b602082029050602081019050919050565b600080fd5b600080fd5b6000819050919050565b620005198162000504565b81146200052557600080fd5b50565b60008151905062000539816200050e565b92915050565b600060408284031215620005585762000557620004ff565b5b620005646040620004ac565b90506000620005768482850162000528565b60008301525060206200058c8482850162000528565b60208301525092915050565b6000620005af620005a984620004cb565b620004ac565b90508083825260208201905060408402830185811115620005d557620005d4620004fa565b5b835b81811015620006025780620005ed88826200053f565b845260208401935050604081019050620005d7565b5050509392505050565b600082601f83011262000624576200062362000431565b5b81516200063684826020860162000598565b91505092915050565b600067ffffffffffffffff8211156200065d576200065c62000447565b5b602082029050602081019050919050565b6000620006856200067f846200063f565b620004ac565b90508083825260208201905060208402830185811115620006ab57620006aa620004fa565b5b835b81811015620006d85780620006c388826200041a565b845260208401935050602081019050620006ad565b5050509392505050565b600082601f830112620006fa57620006f962000431565b5b81516200070c8482602086016200066e565b91505092915050565b600080600060608486031215620007315762000730620003c2565b5b600062000741868287016200041a565b935050602084015167ffffffffffffffff811115620007655762000764620003c7565b5b62000773868287016200060c565b925050604084015167ffffffffffffffff811115620007975762000796620003c7565b5b620007a586828701620006e2565b9150509250925092565b600082825260208201905092915050565b7f4845584c30303100000000000000000000000000000000000000000000000000600082015250565b6000620007f8600783620007af565b91506200080582620007c0565b602082019050919050565b600060208201905081810360008301526200082b81620007e9565b9050919050565b7f4e487b7100000000000000000000000000000000000000000000000000000000600052603260045260246000fd5b7f4e487b7100000000000000000000000000000000000000000000000000000000600052601160045260246000fd5b60006200089d8262000504565b91507fffffffffffffffffffffffffffffffffffffffffffffffffffffffffffffffff821415620008d357620008d262000861565b5b600182019050919050565b7f4845584c30303200000000000000000000000000000000000000000000000000600082015250565b600062000916600783620007af565b91506200092382620008de565b602082019050919050565b60006020820190508181036000830152620009498162000907565b9050919050565b7f4845584c30313300000000000000000000000000000000000000000000000000600082015250565b600062000988600783620007af565b9150620009958262000950565b602082019050919050565b60006020820190508181036000830152620009bb8162000979565b9050919050565b620009cd8162000504565b82525050565b604082016000820151620009eb6000850182620009c2565b50602082015162000a006020850182620009c2565b50505050565b600060408201905062000a1d6000830184620009d3565b92915050565b6110118062000a336000396000f3fe608060405234801561001057600080fd5b50600436106100625760003560e01c8063321ab85f146100675780633aad2d9d14610083578063715018a6146100b35780638da5cb5b146100bd57806392b1e118146100db578063f2fde38b146100f7575b600080fd5b610081600480360381019061007c91906107c0565b610113565b005b61009d60048036038101906100989190610800565b610162565b6040516100aa919061083c565b60405180910390f35b6100bb6101a7565b005b6100c56101bb565b6040516100d2919061083c565b60405180910390f35b6100f560048036038101906100f091906109e7565b6101e4565b005b610111600480360381019061010c9190610a5f565b610233565b005b61011b6102da565b6101258282610358565b7f72cb755a07705c9b90b2b296ca4551a6035be7fc293dca8e27b1d5aacefeaf4f8282604051610156929190610aca565b60405180910390a15050565b60006001600061017184610495565b815260200190815260200160002060009054906101000a900473ffffffffffffffffffffffffffffffffffffffff169050919050565b6101af6102da565b6101b960006104c5565b565b60008060009054906101000a900473ffffffffffffffffffffffffffffffffffffffff16905090565b6101ec6102da565b6101f68282610589565b7fdcdf92c372ae961191cd01d099d8d7037dbb36af1ae14f04b32c1159cd26a4948282604051610227929190610c8f565b60405180910390a15050565b61023b6102da565b600073ffffffffffffffffffffffffffffffffffffffff168173ffffffffffffffffffffffffffffffffffffffff1614156102ab576040517f08c379a00000000000000000000000000000000000000000000000000000000081526004016102a290610d49565b60405180910390fd5b6102b4816104c5565b50565b6000808273ffffffffffffffffffffffffffffffffffffffff163b119050919050565b6102e261062f565b73ffffffffffffffffffffffffffffffffffffffff166103006101bb565b73ffffffffffffffffffffffffffffffffffffffff1614610356576040517f08c379a000000000000000000000000000000000000000000000000000000000815260040161034d90610db5565b60405180910390fd5b565b600082600001511415801561039a5750600073ffffffffffffffffffffffffffffffffffffffff168173ffffffffffffffffffffffffffffffffffffffff1614155b6103d9576040517f08c379a00000000000000000000000000000000000000000000000000000000081526004016103d090610e21565b60405180910390fd5b6103f88173ffffffffffffffffffffffffffffffffffffffff166102b7565b610437576040517f08c379a000000000000000000000000000000000000000000000000000000000815260040161042e90610e8d565b60405180910390fd5b806001600061044585610495565b815260200190815260200160002060006101000a81548173ffffffffffffffffffffffffffffffffffffffff021916908373ffffffffffffffffffffffffffffffffffffffff1602179055505050565b6000816040516020016104a89190610ead565b604051602081830303815290604052805190602001209050919050565b60008060009054906101000a900473ffffffffffffffffffffffffffffffffffffffff169050816000806101000a81548173ffffffffffffffffffffffffffffffffffffffff021916908373ffffffffffffffffffffffffffffffffffffffff1602179055508173ffffffffffffffffffffffffffffffffffffffff168173ffffffffffffffffffffffffffffffffffffffff167f8be0079c531659141344cd1fd0a4f28419497f9722a3daafe3b4186f6b6457e060405160405180910390a35050565b80518251146105cd576040517f08c379a00000000000000000000000000000000000000000000000000000000081526004016105c490610f14565b60405180910390fd5b60005b815181101561062a576106178382815181106105ef576105ee610f34565b5b602002602001015183838151811061060a57610609610f34565b5b6020026020010151610358565b808061062290610f92565b9150506105d0565b505050565b600033905090565b6000604051905090565b600080fd5b600080fd5b600080fd5b6000601f19601f8301169050919050565b7f4e487b7100000000000000000000000000000000000000000000000000000000600052604160045260246000fd5b61069982610650565b810181811067ffffffffffffffff821117156106b8576106b7610661565b5b80604052505050565b60006106cb610637565b90506106d78282610690565b919050565b6000819050919050565b6106ef816106dc565b81146106fa57600080fd5b50565b60008135905061070c816106e6565b92915050565b6000604082840312156107285761072761064b565b5b61073260406106c1565b90506000610742848285016106fd565b6000830152506020610756848285016106fd565b60208301525092915050565b600073ffffffffffffffffffffffffffffffffffffffff82169050919050565b600061078d82610762565b9050919050565b61079d81610782565b81146107a857600080fd5b50565b6000813590506107ba81610794565b92915050565b600080606083850312156107d7576107d6610641565b5b60006107e585828601610712565b92505060406107f6858286016107ab565b9150509250929050565b60006040828403121561081657610815610641565b5b600061082484828501610712565b91505092915050565b61083681610782565b82525050565b6000602082019050610851600083018461082d565b92915050565b600080fd5b600067ffffffffffffffff82111561087757610876610661565b5b602082029050602081019050919050565b600080fd5b60006108a061089b8461085c565b6106c1565b905080838252602082019050604084028301858111156108c3576108c2610888565b5b835b818110156108ec57806108d88882610712565b8452602084019350506040810190506108c5565b5050509392505050565b600082601f83011261090b5761090a610857565b5b813561091b84826020860161088d565b91505092915050565b600067ffffffffffffffff82111561093f5761093e610661565b5b602082029050602081019050919050565b600061096361095e84610924565b6106c1565b9050808382526020820190506020840283018581111561098657610985610888565b5b835b818110156109af578061099b88826107ab565b845260208401935050602081019050610988565b5050509392505050565b600082601f8301126109ce576109cd610857565b5b81356109de848260208601610950565b91505092915050565b600080604083850312156109fe576109fd610641565b5b600083013567ffffffffffffffff811115610a1c57610a1b610646565b5b610a28858286016108f6565b925050602083013567ffffffffffffffff811115610a4957610a48610646565b5b610a55858286016109b9565b9150509250929050565b600060208284031215610a7557610a74610641565b5b6000610a83848285016107ab565b91505092915050565b610a95816106dc565b82525050565b604082016000820151610ab16000850182610a8c565b506020820151610ac46020850182610a8c565b50505050565b6000606082019050610adf6000830185610a9b565b610aec604083018461082d565b9392505050565b600081519050919050565b600082825260208201905092915050565b6000819050602082019050919050565b604082016000820151610b356000850182610a8c565b506020820151610b486020850182610a8c565b50505050565b6000610b5a8383610b1f565b60408301905092915050565b6000602082019050919050565b6000610b7e82610af3565b610b888185610afe565b9350610b9383610b0f565b8060005b83811015610bc4578151610bab8882610b4e565b9750610bb683610b66565b925050600181019050610b97565b5085935050505092915050565b600081519050919050565b600082825260208201905092915050565b6000819050602082019050919050565b610c0681610782565b82525050565b6000610c188383610bfd565b60208301905092915050565b6000602082019050919050565b6000610c3c82610bd1565b610c468185610bdc565b9350610c5183610bed565b8060005b83811015610c82578151610c698882610c0c565b9750610c7483610c24565b925050600181019050610c55565b5085935050505092915050565b60006040820190508181036000830152610ca98185610b73565b90508181036020830152610cbd8184610c31565b90509392505050565b600082825260208201905092915050565b7f4f776e61626c653a206e6577206f776e657220697320746865207a65726f206160008201527f6464726573730000000000000000000000000000000000000000000000000000602082015250565b6000610d33602683610cc6565b9150610d3e82610cd7565b604082019050919050565b60006020820190508181036000830152610d6281610d26565b9050919050565b7f4f776e61626c653a2063616c6c6572206973206e6f7420746865206f776e6572600082015250565b6000610d9f602083610cc6565b9150610daa82610d69565b602082019050919050565b60006020820190508181036000830152610dce81610d92565b9050919050565b7f4845584c30303200000000000000000000000000000000000000000000000000600082015250565b6000610e0b600783610cc6565b9150610e1682610dd5565b602082019050919050565b60006020820190508181036000830152610e3a81610dfe565b9050919050565b7f4845584c30313300000000000000000000000000000000000000000000000000600082015250565b6000610e77600783610cc6565b9150610e8282610e41565b602082019050919050565b60006020820190508181036000830152610ea681610e6a565b9050919050565b6000604082019050610ec26000830184610a9b565b92915050565b7f4845584c30303100000000000000000000000000000000000000000000000000600082015250565b6000610efe600783610cc6565b9150610f0982610ec8565b602082019050919050565b60006020820190508181036000830152610f2d81610ef1565b9050919050565b7f4e487b7100000000000000000000000000000000000000000000000000000000600052603260045260246000fd5b7f4e487b7100000000000000000000000000000000000000000000000000000000600052601160045260246000fd5b6000610f9d826106dc565b91507fffffffffffffffffffffffffffffffffffffffffffffffffffffffffffffffff821415610fd057610fcf610f63565b5b60018201905091905056fea26469706673582212205995333b653f75637c5e86a5653df04dabd18b34fbe33d4f0f24f19f350838eb64736f6c63430008080033",
  "devdoc": {
    "kind": "dev",
    "methods": {
      "owner()": {
        "details": "Returns the address of the current owner."
      },
      "renounceOwnership()": {
        "details": "Leaves the contract without owner. It will not be possible to call `onlyOwner` functions anymore. Can only be called by the current owner. NOTE: Renouncing ownership will leave the contract without an owner, thereby removing any functionality that is only available to the owner."
      },
      "transferOwnership(address)": {
        "details": "Transfers ownership of the contract to a new account (`newOwner`). Can only be called by the current owner."
      }
    },
    "version": 1
  },
  "userdoc": {
    "kind": "user",
    "methods": {},
    "version": 1
  },
  "storageLayout": {
    "storage": [
      {
        "astId": 396,
        "contract": "contracts/auth/IdentityOracleRegistry.sol:IdentityOracleRegistry",
        "label": "_owner",
        "offset": 0,
        "slot": "0",
        "type": "t_address"
      },
      {
        "astId": 10838,
        "contract": "contracts/auth/IdentityOracleRegistry.sol:IdentityOracleRegistry",
        "label": "oracles_",
        "offset": 0,
        "slot": "1",
        "type": "t_mapping(t_bytes32,t_address)"
      }
    ],
    "types": {
      "t_address": {
        "encoding": "inplace",
        "label": "address",
        "numberOfBytes": "20"
      },
      "t_bytes32": {
        "encoding": "inplace",
        "label": "bytes32",
        "numberOfBytes": "32"
      },
      "t_mapping(t_bytes32,t_address)": {
        "encoding": "mapping",
        "key": "t_bytes32",
        "label": "mapping(bytes32 => address)",
        "numberOfBytes": "32",
        "value": "t_address"
      }
    }
  }
}