{
  "address": "0x6d5B650b068FdF12d72533D7D6A45C75D92ffcb8",
  "abi": [
    {
      "inputs": [],
      "name": "Ownable__NotOwner",
      "type": "error"
    },
    {
      "inputs": [],
      "name": "Ownable__NotTransitiveOwner",
      "type": "error"
    },
    {
      "anonymous": false,
      "inputs": [
        {
          "indexed": true,
          "internalType": "address",
          "name": "cloned",
          "type": "address"
        }
      ],
      "name": "Cloned",
      "type": "event"
    },
    {
      "anonymous": false,
      "inputs": [
        {
          "indexed": true,
          "internalType": "address",
          "name": "previousOwner",
          "type": "address"
        },
        {
          "indexed": true,
          "internalType": "address",
          "name": "newOwner",
          "type": "address"
        }
      ],
      "name": "OwnershipTransferred",
      "type": "event"
    },
    {
      "anonymous": false,
      "inputs": [
        {
          "indexed": true,
          "internalType": "address",
          "name": "validator",
          "type": "address"
        },
        {
          "indexed": false,
          "internalType": "bool",
          "name": "registered",
          "type": "bool"
        }
      ],
      "name": "Register",
      "type": "event"
    },
    {
      "anonymous": false,
      "inputs": [
        {
          "indexed": true,
          "internalType": "address[]",
          "name": "validators",
          "type": "address[]"
        },
        {
          "indexed": false,
          "internalType": "bool[]",
          "name": "registered",
          "type": "bool[]"
        }
      ],
      "name": "RegisterBatch",
      "type": "event"
    },
    {
      "inputs": [
        {
          "internalType": "bytes32",
          "name": "salt",
          "type": "bytes32"
        }
      ],
      "name": "clone",
      "outputs": [],
      "stateMutability": "nonpayable",
      "type": "function"
    },
    {
      "inputs": [
        {
          "internalType": "address",
          "name": "owner",
          "type": "address"
        },
        {
          "internalType": "address[]",
          "name": "validators",
          "type": "address[]"
        },
        {
          "internalType": "bool[]",
          "name": "registered",
          "type": "bool[]"
        }
      ],
      "name": "init",
      "outputs": [],
      "stateMutability": "nonpayable",
      "type": "function"
    },
    {
      "inputs": [
        {
          "internalType": "address",
          "name": "validator",
          "type": "address"
        }
      ],
      "name": "isRegistered",
      "outputs": [
        {
          "internalType": "bool",
          "name": "",
          "type": "bool"
        }
      ],
      "stateMutability": "view",
      "type": "function"
    },
    {
      "inputs": [
        {
          "internalType": "bytes32",
          "name": "message",
          "type": "bytes32"
        },
        {
          "internalType": "bytes",
          "name": "signature",
          "type": "bytes"
        }
      ],
      "name": "isValidSignature",
      "outputs": [
        {
          "internalType": "bytes4",
          "name": "",
          "type": "bytes4"
        }
      ],
      "stateMutability": "view",
      "type": "function"
    },
    {
      "inputs": [],
      "name": "owner",
      "outputs": [
        {
          "internalType": "address",
          "name": "",
          "type": "address"
        }
      ],
      "stateMutability": "view",
      "type": "function"
    },
    {
      "inputs": [
        {
          "internalType": "address",
          "name": "validator",
          "type": "address"
        },
        {
          "internalType": "bool",
          "name": "registered",
          "type": "bool"
        }
      ],
      "name": "register",
      "outputs": [],
      "stateMutability": "nonpayable",
      "type": "function"
    },
    {
      "inputs": [
        {
          "internalType": "address[]",
          "name": "validators",
          "type": "address[]"
        },
        {
          "internalType": "bool[]",
          "name": "registered",
          "type": "bool[]"
        }
      ],
      "name": "registerBatch",
      "outputs": [],
      "stateMutability": "nonpayable",
      "type": "function"
    },
    {
      "inputs": [
        {
          "internalType": "address",
          "name": "account",
          "type": "address"
        }
      ],
      "name": "transferOwnership",
      "outputs": [],
      "stateMutability": "nonpayable",
      "type": "function"
    }
  ],
  "transactionHash": "0x53e5efec5858b3b8212f350af66cd2e0ebed16bf289a04fc92fc09d3a60bc9d9",
  "args": [],
  "numDeployments": 1,
  "solcInputHash": "66f81f85fa58eb5ab3b4a52aa9c68636",
  "bytecode": "0x608060405234801561001057600080fd5b50611b48806100206000396000f3fe608060405234801561001057600080fd5b50600436106100885760003560e01c8063c3c5a5471161005b578063c3c5a54714610113578063da28d56d14610143578063e87ee4ed1461015f578063f2fde38b1461017b57610088565b80631626ba7e1461008d5780638da5cb5b146100bd578063a061f093146100db578063ab01b469146100f7575b600080fd5b6100a760048036038101906100a29190610ddd565b610197565b6040516100b49190610e74565b60405180910390f35b6100c56102df565b6040516100d29190610ed0565b60405180910390f35b6100f560048036038101906100f09190610eeb565b6102ee565b005b610111600480360381019061010c9190610f7c565b610343565b005b61012d60048036038101906101289190610fbc565b61040b565b60405161013a9190610ff8565b60405180910390f35b61015d6004803603810190610158919061119e565b610460565b005b61017960048036038101906101749190611229565b6104ee565b005b61019560048036038101906101909190610fbc565b6105b5565b005b6000806000838060200190518101906101b09190611382565b915091506000808373ffffffffffffffffffffffffffffffffffffffff1673ffffffffffffffffffffffffffffffffffffffff16815260200190815260200160002060009054906101000a900460ff1661023f576040517f08c379a00000000000000000000000000000000000000000000000000000000081526004016102369061143b565b60405180910390fd5b600061024a8661062d565b905061025f828261065d90919063ffffffff16565b73ffffffffffffffffffffffffffffffffffffffff168373ffffffffffffffffffffffffffffffffffffffff16146102cc576040517f08c379a00000000000000000000000000000000000000000000000000000000081526004016102c3906114a7565b60405180910390fd5b631626ba7e60e01b935050505092915050565b60006102e9610684565b905090565b60006102fa30836106b7565b90508073ffffffffffffffffffffffffffffffffffffffff167f783540fb4221a3238720dc7038937d0d79982bcf895274aa6ad179f82cf0d53c60405160405180910390a25050565b61034b610684565b73ffffffffffffffffffffffffffffffffffffffff163373ffffffffffffffffffffffffffffffffffffffff16146103af576040517f2f7a8ee100000000000000000000000000000000000000000000000000000000815260040160405180910390fd5b6103b98282610774565b8173ffffffffffffffffffffffffffffffffffffffff167fe5893cbe0f29b1ed4010af79004fcf5b6bdf713a7ccdc0b9e475e64ce2283df6826040516103ff9190610ff8565b60405180910390a25050565b60008060008373ffffffffffffffffffffffffffffffffffffffff1673ffffffffffffffffffffffffffffffffffffffff16815260200190815260200160002060009054906101000a900460ff169050919050565b600073ffffffffffffffffffffffffffffffffffffffff16610480610684565b73ffffffffffffffffffffffffffffffffffffffff16146104d6576040517f08c379a00000000000000000000000000000000000000000000000000000000081526004016104cd90611513565b60405180910390fd5b6104df8361083e565b6104e9828261084a565b505050565b6104f6610684565b73ffffffffffffffffffffffffffffffffffffffff163373ffffffffffffffffffffffffffffffffffffffff161461055a576040517f2f7a8ee100000000000000000000000000000000000000000000000000000000815260040160405180910390fd5b610564828261084a565b8160405161057291906115eb565b60405180910390207fbc651853d80923bed316daad32ad71d5ca50f4e1e33d9305b7b67b4d72cc32ea826040516105a991906116c0565b60405180910390a25050565b6105bd610684565b73ffffffffffffffffffffffffffffffffffffffff163373ffffffffffffffffffffffffffffffffffffffff1614610621576040517f2f7a8ee100000000000000000000000000000000000000000000000000000000815260040160405180910390fd5b61062a8161083e565b50565b600081604051602001610640919061175a565b604051602081830303815290604052805190602001209050919050565b600080600061066c85856108ac565b91509150610679816108fe565b819250505092915050565b600061068e610a6c565b60000160009054906101000a900473ffffffffffffffffffffffffffffffffffffffff16905090565b6000763d602d80600a3d3981f3363d3d373d3d3d363d730000008360601b60e81c176000526e5af43d82803e903d91602b57fd5bf38360781b1760205281603760096000f59050600073ffffffffffffffffffffffffffffffffffffffff168173ffffffffffffffffffffffffffffffffffffffff16141561076e576040517f08c379a0000000000000000000000000000000000000000000000000000000008152600401610765906117cc565b60405180910390fd5b92915050565b600073ffffffffffffffffffffffffffffffffffffffff168273ffffffffffffffffffffffffffffffffffffffff1614156107e4576040517f08c379a00000000000000000000000000000000000000000000000000000000081526004016107db90611838565b60405180910390fd5b806000808473ffffffffffffffffffffffffffffffffffffffff1673ffffffffffffffffffffffffffffffffffffffff16815260200190815260200160002060006101000a81548160ff0219169083151502179055505050565b61084781610a99565b50565b60005b82518110156108a75761089483828151811061086c5761086b611858565b5b602002602001015183838151811061088757610886611858565b5b6020026020010151610774565b808061089f906118c0565b91505061084d565b505050565b6000806041835114156108ee5760008060006020860151925060408601519150606086015160001a90506108e287828585610b6a565b945094505050506108f7565b60006002915091505b9250929050565b6000600481111561091257610911611909565b5b81600481111561092557610924611909565b5b141561093057610a69565b6001600481111561094457610943611909565b5b81600481111561095757610956611909565b5b1415610998576040517f08c379a000000000000000000000000000000000000000000000000000000000815260040161098f90611984565b60405180910390fd5b600260048111156109ac576109ab611909565b5b8160048111156109bf576109be611909565b5b1415610a00576040517f08c379a00000000000000000000000000000000000000000000000000000000081526004016109f7906119f0565b60405180910390fd5b60036004811115610a1457610a13611909565b5b816004811115610a2757610a26611909565b5b1415610a68576040517f08c379a0000000000000000000000000000000000000000000000000000000008152600401610a5f90611a82565b60405180910390fd5b5b50565b6000807f8a22373512790c48b83a1fe2efdd2888d4a917bcdc24d0adf63e60f67168046090508091505090565b6000610aa3610a6c565b90508173ffffffffffffffffffffffffffffffffffffffff168160000160009054906101000a900473ffffffffffffffffffffffffffffffffffffffff1673ffffffffffffffffffffffffffffffffffffffff167f8be0079c531659141344cd1fd0a4f28419497f9722a3daafe3b4186f6b6457e060405160405180910390a3818160000160006101000a81548173ffffffffffffffffffffffffffffffffffffffff021916908373ffffffffffffffffffffffffffffffffffffffff1602179055505050565b6000807f7fffffffffffffffffffffffffffffff5d576e7357a4501ddfe92f46681b20a08360001c1115610ba5576000600391509150610c44565b600060018787878760405160008152602001604052604051610bca9493929190611acd565b6020604051602081039080840390855afa158015610bec573d6000803e3d6000fd5b505050602060405103519050600073ffffffffffffffffffffffffffffffffffffffff168173ffffffffffffffffffffffffffffffffffffffff161415610c3b57600060019250925050610c44565b80600092509250505b94509492505050565b6000604051905090565b600080fd5b600080fd5b6000819050919050565b610c7481610c61565b8114610c7f57600080fd5b50565b600081359050610c9181610c6b565b92915050565b600080fd5b600080fd5b6000601f19601f8301169050919050565b7f4e487b7100000000000000000000000000000000000000000000000000000000600052604160045260246000fd5b610cea82610ca1565b810181811067ffffffffffffffff82111715610d0957610d08610cb2565b5b80604052505050565b6000610d1c610c4d565b9050610d288282610ce1565b919050565b600067ffffffffffffffff821115610d4857610d47610cb2565b5b610d5182610ca1565b9050602081019050919050565b82818337600083830152505050565b6000610d80610d7b84610d2d565b610d12565b905082815260208101848484011115610d9c57610d9b610c9c565b5b610da7848285610d5e565b509392505050565b600082601f830112610dc457610dc3610c97565b5b8135610dd4848260208601610d6d565b91505092915050565b60008060408385031215610df457610df3610c57565b5b6000610e0285828601610c82565b925050602083013567ffffffffffffffff811115610e2357610e22610c5c565b5b610e2f85828601610daf565b9150509250929050565b60007fffffffff0000000000000000000000000000000000000000000000000000000082169050919050565b610e6e81610e39565b82525050565b6000602082019050610e896000830184610e65565b92915050565b600073ffffffffffffffffffffffffffffffffffffffff82169050919050565b6000610eba82610e8f565b9050919050565b610eca81610eaf565b82525050565b6000602082019050610ee56000830184610ec1565b92915050565b600060208284031215610f0157610f00610c57565b5b6000610f0f84828501610c82565b91505092915050565b610f2181610eaf565b8114610f2c57600080fd5b50565b600081359050610f3e81610f18565b92915050565b60008115159050919050565b610f5981610f44565b8114610f6457600080fd5b50565b600081359050610f7681610f50565b92915050565b60008060408385031215610f9357610f92610c57565b5b6000610fa185828601610f2f565b9250506020610fb285828601610f67565b9150509250929050565b600060208284031215610fd257610fd1610c57565b5b6000610fe084828501610f2f565b91505092915050565b610ff281610f44565b82525050565b600060208201905061100d6000830184610fe9565b92915050565b600067ffffffffffffffff82111561102e5761102d610cb2565b5b602082029050602081019050919050565b600080fd5b600061105761105284611013565b610d12565b9050808382526020820190506020840283018581111561107a5761107961103f565b5b835b818110156110a3578061108f8882610f2f565b84526020840193505060208101905061107c565b5050509392505050565b600082601f8301126110c2576110c1610c97565b5b81356110d2848260208601611044565b91505092915050565b600067ffffffffffffffff8211156110f6576110f5610cb2565b5b602082029050602081019050919050565b600061111a611115846110db565b610d12565b9050808382526020820190506020840283018581111561113d5761113c61103f565b5b835b8181101561116657806111528882610f67565b84526020840193505060208101905061113f565b5050509392505050565b600082601f83011261118557611184610c97565b5b8135611195848260208601611107565b91505092915050565b6000806000606084860312156111b7576111b6610c57565b5b60006111c586828701610f2f565b935050602084013567ffffffffffffffff8111156111e6576111e5610c5c565b5b6111f2868287016110ad565b925050604084013567ffffffffffffffff81111561121357611212610c5c565b5b61121f86828701611170565b9150509250925092565b600080604083850312156112405761123f610c57565b5b600083013567ffffffffffffffff81111561125e5761125d610c5c565b5b61126a858286016110ad565b925050602083013567ffffffffffffffff81111561128b5761128a610c5c565b5b61129785828601611170565b9150509250929050565b60006112ac82610e8f565b9050919050565b6112bc816112a1565b81146112c757600080fd5b50565b6000815190506112d9816112b3565b92915050565b60005b838110156112fd5780820151818401526020810190506112e2565b8381111561130c576000848401525b50505050565b600061132561132084610d2d565b610d12565b90508281526020810184848401111561134157611340610c9c565b5b61134c8482856112df565b509392505050565b600082601f83011261136957611368610c97565b5b8151611379848260208601611312565b91505092915050565b6000806040838503121561139957611398610c57565b5b60006113a7858286016112ca565b925050602083015167ffffffffffffffff8111156113c8576113c7610c5c565b5b6113d485828601611354565b9150509250929050565b600082825260208201905092915050565b7f494f303032000000000000000000000000000000000000000000000000000000600082015250565b60006114256005836113de565b9150611430826113ef565b602082019050919050565b6000602082019050818103600083015261145481611418565b9050919050565b7f494f303033000000000000000000000000000000000000000000000000000000600082015250565b60006114916005836113de565b915061149c8261145b565b602082019050919050565b600060208201905081810360008301526114c081611484565b9050919050565b7f4845584c30313500000000000000000000000000000000000000000000000000600082015250565b60006114fd6007836113de565b9150611508826114c7565b602082019050919050565b6000602082019050818103600083015261152c816114f0565b9050919050565b600081519050919050565b600081905092915050565b6000819050602082019050919050565b61156281610eaf565b82525050565b60006115748383611559565b60208301905092915050565b6000602082019050919050565b600061159882611533565b6115a2818561153e565b93506115ad83611549565b8060005b838110156115de5781516115c58882611568565b97506115d083611580565b9250506001810190506115b1565b5085935050505092915050565b60006115f7828461158d565b915081905092915050565b600081519050919050565b600082825260208201905092915050565b6000819050602082019050919050565b61163781610f44565b82525050565b6000611649838361162e565b60208301905092915050565b6000602082019050919050565b600061166d82611602565b611677818561160d565b93506116828361161e565b8060005b838110156116b357815161169a888261163d565b97506116a583611655565b925050600181019050611686565b5085935050505092915050565b600060208201905081810360008301526116da8184611662565b905092915050565b600081905092915050565b7f19457468657265756d205369676e6564204d6573736167653a0a333200000000600082015250565b6000611723601c836116e2565b915061172e826116ed565b601c82019050919050565b6000819050919050565b61175461174f82610c61565b611739565b82525050565b600061176582611716565b91506117718284611743565b60208201915081905092915050565b7f455243313136373a2063726561746532206661696c6564000000000000000000600082015250565b60006117b66017836113de565b91506117c182611780565b602082019050919050565b600060208201905081810360008301526117e5816117a9565b9050919050565b7f494f303031000000000000000000000000000000000000000000000000000000600082015250565b60006118226005836113de565b915061182d826117ec565b602082019050919050565b6000602082019050818103600083015261185181611815565b9050919050565b7f4e487b7100000000000000000000000000000000000000000000000000000000600052603260045260246000fd5b7f4e487b7100000000000000000000000000000000000000000000000000000000600052601160045260246000fd5b6000819050919050565b60006118cb826118b6565b91507fffffffffffffffffffffffffffffffffffffffffffffffffffffffffffffffff8214156118fe576118fd611887565b5b600182019050919050565b7f4e487b7100000000000000000000000000000000000000000000000000000000600052602160045260246000fd5b7f45434453413a20696e76616c6964207369676e61747572650000000000000000600082015250565b600061196e6018836113de565b915061197982611938565b602082019050919050565b6000602082019050818103600083015261199d81611961565b9050919050565b7f45434453413a20696e76616c6964207369676e6174757265206c656e67746800600082015250565b60006119da601f836113de565b91506119e5826119a4565b602082019050919050565b60006020820190508181036000830152611a09816119cd565b9050919050565b7f45434453413a20696e76616c6964207369676e6174757265202773272076616c60008201527f7565000000000000000000000000000000000000000000000000000000000000602082015250565b6000611a6c6022836113de565b9150611a7782611a10565b604082019050919050565b60006020820190508181036000830152611a9b81611a5f565b9050919050565b611aab81610c61565b82525050565b600060ff82169050919050565b611ac781611ab1565b82525050565b6000608082019050611ae26000830187611aa2565b611aef6020830186611abe565b611afc6040830185611aa2565b611b096060830184611aa2565b9594505050505056fea264697066735822122049ebd60c154fd33aa84d4d74d509e6bc0f1b96326786bc21f9b5502677435d8364736f6c63430008080033",
  "devdoc": {
    "kind": "dev",
    "methods": {
      "owner()": {
        "returns": {
          "_0": "conrtact owner"
        }
      },
      "transferOwnership(address)": {
        "params": {
          "account": "address of new owner"
        }
      }
    },
    "version": 1
  },
  "userdoc": {
    "kind": "user",
    "methods": {
      "owner()": {
        "notice": "get the ERC173 contract owner"
      },
      "transferOwnership(address)": {
        "notice": "transfer contract ownership to new account"
      }
    },
    "version": 1
  },
  "storageLayout": {
    "storage": [
      {
        "astId": 11053,
        "contract": "contracts/auth/SimpleIdentityOracle.sol:SimpleIdentityOracle",
        "label": "validators_",
        "offset": 0,
        "slot": "0",
        "type": "t_mapping(t_address,t_bool)"
      }
    ],
    "types": {
      "t_address": {
        "encoding": "inplace",
        "label": "address",
        "numberOfBytes": "20"
      },
      "t_bool": {
        "encoding": "inplace",
        "label": "bool",
        "numberOfBytes": "1"
      },
      "t_mapping(t_address,t_bool)": {
        "encoding": "mapping",
        "key": "t_address",
        "label": "mapping(address => bool)",
        "numberOfBytes": "32",
        "value": "t_bool"
      }
    }
  }
}