{
  "address": "0x832F483a27Fb00aFca829047743202E5983Fb61a",
  "abi": [
    {
      "inputs": [],
      "name": "Ownable__NotOwner",
      "type": "error"
    },
    {
      "inputs": [],
      "name": "Ownable__NotTransitiveOwner",
      "type": "error"
    },
    {
      "anonymous": false,
      "inputs": [
        {
          "indexed": false,
          "internalType": "address",
          "name": "to",
          "type": "address"
        },
        {
          "indexed": false,
          "internalType": "uint256",
          "name": "amount",
          "type": "uint256"
        }
      ],
      "name": "GasPaid",
      "type": "event"
    },
    {
      "anonymous": false,
      "inputs": [
        {
          "indexed": true,
          "internalType": "address",
          "name": "previousOwner",
          "type": "address"
        },
        {
          "indexed": true,
          "internalType": "address",
          "name": "newOwner",
          "type": "address"
        }
      ],
      "name": "OwnershipTransferred",
      "type": "event"
    },
    {
      "stateMutability": "nonpayable",
      "type": "fallback"
    },
    {
      "inputs": [
        {
          "components": [
            {
              "internalType": "address",
              "name": "to",
              "type": "address"
            },
            {
              "internalType": "uint256",
              "name": "value",
              "type": "uint256"
            },
            {
              "internalType": "bytes",
              "name": "callData",
              "type": "bytes"
            },
            {
              "internalType": "uint256",
              "name": "callGasLimit",
              "type": "uint256"
            }
          ],
          "internalType": "struct BasicUserOp",
          "name": "op",
          "type": "tuple"
        }
      ],
      "name": "exec",
      "outputs": [],
      "stateMutability": "nonpayable",
      "type": "function"
    },
    {
      "inputs": [
        {
          "components": [
            {
              "internalType": "address",
              "name": "to",
              "type": "address"
            },
            {
              "internalType": "uint256",
              "name": "value",
              "type": "uint256"
            },
            {
              "internalType": "bytes",
              "name": "callData",
              "type": "bytes"
            },
            {
              "internalType": "uint256",
              "name": "callGasLimit",
              "type": "uint256"
            }
          ],
          "internalType": "struct BasicUserOp[]",
          "name": "ops",
          "type": "tuple[]"
        }
      ],
      "name": "execBatch",
      "outputs": [],
      "stateMutability": "nonpayable",
      "type": "function"
    },
    {
      "inputs": [
        {
          "internalType": "address",
          "name": "owner",
          "type": "address"
        },
        {
          "internalType": "bytes",
          "name": "data",
          "type": "bytes"
        }
      ],
      "name": "init",
      "outputs": [],
      "stateMutability": "nonpayable",
      "type": "function"
    },
    {
      "inputs": [
        {
          "internalType": "bytes32",
          "name": "message",
          "type": "bytes32"
        },
        {
          "internalType": "bytes",
          "name": "signature",
          "type": "bytes"
        }
      ],
      "name": "isValidSignature",
      "outputs": [
        {
          "internalType": "bytes4",
          "name": "",
          "type": "bytes4"
        }
      ],
      "stateMutability": "view",
      "type": "function"
    },
    {
      "inputs": [],
      "name": "nonce",
      "outputs": [
        {
          "internalType": "uint256",
          "name": "",
          "type": "uint256"
        }
      ],
      "stateMutability": "view",
      "type": "function"
    },
    {
      "inputs": [],
      "name": "owner",
      "outputs": [
        {
          "internalType": "address",
          "name": "",
          "type": "address"
        }
      ],
      "stateMutability": "view",
      "type": "function"
    },
    {
      "inputs": [
        {
          "internalType": "address",
          "name": "account",
          "type": "address"
        }
      ],
      "name": "transferOwnership",
      "outputs": [],
      "stateMutability": "nonpayable",
      "type": "function"
    },
    {
      "inputs": [
        {
          "internalType": "bytes",
          "name": "txData",
          "type": "bytes"
        },
        {
          "internalType": "uint256",
          "name": "_nonce",
          "type": "uint256"
        },
        {
          "internalType": "bytes",
          "name": "signature",
          "type": "bytes"
        }
      ],
      "name": "validateAndCall",
      "outputs": [],
      "stateMutability": "nonpayable",
      "type": "function"
    },
    {
      "inputs": [
        {
          "internalType": "bytes",
          "name": "txData",
          "type": "bytes"
        },
        {
          "internalType": "uint256",
          "name": "_nonce",
          "type": "uint256"
        },
        {
          "internalType": "bytes",
          "name": "signature",
          "type": "bytes"
        },
        {
          "components": [
            {
              "internalType": "address payable",
              "name": "receiver",
              "type": "address"
            },
            {
              "internalType": "address",
              "name": "token",
              "type": "address"
            },
            {
              "internalType": "uint256",
              "name": "base",
              "type": "uint256"
            },
            {
              "internalType": "uint256",
              "name": "price",
              "type": "uint256"
            }
          ],
          "internalType": "struct GasPayer.GasPayment",
          "name": "gas",
          "type": "tuple"
        }
      ],
      "name": "validateAndCallWithGasRefund",
      "outputs": [],
      "stateMutability": "nonpayable",
      "type": "function"
    },
    {
      "stateMutability": "payable",
      "type": "receive"
    }
  ],
  "transactionHash": "0x888b1ad8f6c1f0a989ef6222c5dcfff65f1ffd1c0455bb4fb1d69c4ced5909d6",
  "args": [],
  "numDeployments": 5,
  "solcInputHash": "0b4a8ebca61e6e74f3171269ff7912bc",
  "bytecode": "0x608060405234801561001057600080fd5b50612656806100206000396000f3fe60806040526004361061008a5760003560e01c80638da5cb5b116100595780638da5cb5b146101ac578063a8c94346146101d7578063affed0e014610200578063c0d91eaf1461022b578063f2fde38b1461025457610091565b80631626ba7e146100f45780635117f8fd146101315780638479cc0f1461015a5780638c88d3801461018357610091565b3661009157005b34801561009d57600080fd5b5060003660606000357fffffffff00000000000000000000000000000000000000000000000000000000166040516020016100d891906112a8565b6040516020818303038152906040529050915050805190602001f35b34801561010057600080fd5b5061011b60048036038101906101169190611372565b61027d565b60405161012891906112a8565b60405180910390f35b34801561013d57600080fd5b506101586004803603810190610153919061142c565b61029b565b005b34801561016657600080fd5b50610181600480360381019061017c9190611529565b6102cc565b005b34801561018f57600080fd5b506101aa60048036038101906101a59190611576565b61032d565b005b3480156101b857600080fd5b506101c1610478565b6040516101ce919061164c565b60405180910390f35b3480156101e357600080fd5b506101fe60048036038101906101f99190611686565b610487565b005b34801561020c57600080fd5b5061021561049b565b60405161022291906116de565b60405180910390f35b34801561023757600080fd5b50610252600480360381019061024d9190611866565b6104a4565b005b34801561026057600080fd5b5061027b600480360381019061027691906118c2565b61060e565b005b600061028a848484610686565b631626ba7e60e01b90509392505050565b60005a90506102ad878787878761032d565b6102c2825a836102bd919061191e565b610948565b5050505050505050565b6102d4610bfe565b600082829050905060005b81811015610327576103148484838181106102fd576102fc611952565b5b905060200281019061030f9190611990565b610cab565b808061031f906119b8565b9150506102df565b50505050565b6000858560005460405160200161034693929190611a3f565b60405160208183030381529060405280519060200120905083600080815480929190610371906119b8565b91905055146103b5576040517f08c379a00000000000000000000000000000000000000000000000000000000081526004016103ac90611ace565b60405180910390fd5b6103c0818484610686565b60003073ffffffffffffffffffffffffffffffffffffffff1687876040516103e9929190611b1e565b6000604051808303816000865af19150503d8060008114610426576040519150601f19603f3d011682016040523d82523d6000602084013e61042b565b606091505b505090508061046f576040517f08c379a000000000000000000000000000000000000000000000000000000000815260040161046690611b83565b60405180910390fd5b50505050505050565b6000610482610da1565b905090565b61048f610bfe565b61049881610cab565b50565b60008054905090565b600073ffffffffffffffffffffffffffffffffffffffff166104c4610da1565b73ffffffffffffffffffffffffffffffffffffffff161480156105145750600073ffffffffffffffffffffffffffffffffffffffff168273ffffffffffffffffffffffffffffffffffffffff1614155b610553576040517f08c379a000000000000000000000000000000000000000000000000000000000815260040161054a90611bef565b60405180910390fd5b61055c82610dd4565b60003073ffffffffffffffffffffffffffffffffffffffff16826040516105839190611c7e565b6000604051808303816000865af19150503d80600081146105c0576040519150601f19603f3d011682016040523d82523d6000602084013e6105c5565b606091505b5050905080610609576040517f08c379a000000000000000000000000000000000000000000000000000000000815260040161060090611ce1565b60405180910390fd5b505050565b610616610da1565b73ffffffffffffffffffffffffffffffffffffffff163373ffffffffffffffffffffffffffffffffffffffff161461067a576040517f2f7a8ee100000000000000000000000000000000000000000000000000000000815260040160405180910390fd5b61068381610dd4565b50565b6000610690610478565b9050600061069d85610de0565b90506106be8273ffffffffffffffffffffffffffffffffffffffff16610e10565b1561087c578173ffffffffffffffffffffffffffffffffffffffff16631626ba7e8286866040518463ffffffff1660e01b815260040161070093929190611d10565b60206040518083038186803b15801561071857600080fd5b505afa92505050801561074957506040513d601f19601f820116820180604052508101906107469190611d6e565b60015b6107ef57610755611da8565b806308c379a014156107b2575061076a611dca565b8061077557506107b4565b806040517f08c379a00000000000000000000000000000000000000000000000000000000081526004016107a99190611ea4565b60405180910390fd5b505b6040517f08c379a00000000000000000000000000000000000000000000000000000000081526004016107e690611f12565b60405180910390fd5b631626ba7e60e01b7bffffffffffffffffffffffffffffffffffffffffffffffffffffffff1916817bffffffffffffffffffffffffffffffffffffffffffffffffffffffff191614610876576040517f08c379a000000000000000000000000000000000000000000000000000000000815260040161086d90611f7e565b60405180910390fd5b50610941565b6108d384848080601f016020809104026020016040519081016040528093929190818152602001838380828437600081840152601f19601f8201169050808301925050505050505082610e3390919063ffffffff16565b73ffffffffffffffffffffffffffffffffffffffff168273ffffffffffffffffffffffffffffffffffffffff1614610940576040517f08c379a000000000000000000000000000000000000000000000000000000000815260040161093790611fea565b60405180910390fd5b5b5050505050565b60008073ffffffffffffffffffffffffffffffffffffffff168360000160208101906109749190612048565b73ffffffffffffffffffffffffffffffffffffffff1614610bf85782604001358261099f9190612075565b9150600073ffffffffffffffffffffffffffffffffffffffff168360200160208101906109cc91906118c2565b73ffffffffffffffffffffffffffffffffffffffff161415610ae7576000808460600135146109ff578360600135610a01565b3a5b90503a8111610a105780610a12565b3a5b90508083610a2091906120cb565b91506000846000016020810190610a379190612048565b73ffffffffffffffffffffffffffffffffffffffff1683604051610a5a9061214b565b60006040518083038185875af1925050503d8060008114610a97576040519150601f19603f3d011682016040523d82523d6000602084013e610a9c565b606091505b5050905080610ae0576040517f08c379a0000000000000000000000000000000000000000000000000000000008152600401610ad7906121ac565b60405180910390fd5b5050610bac565b826060013582610af791906120cb565b9050826020016020810190610b0c91906118c2565b73ffffffffffffffffffffffffffffffffffffffff1663a9059cbb846000016020810190610b3a9190612048565b836040518363ffffffff1660e01b8152600401610b5892919061222b565b602060405180830381600087803b158015610b7257600080fd5b505af1158015610b86573d6000803e3d6000fd5b505050506040513d601f19601f82011682018060405250810190610baa919061228c565b505b7f9472b7566e62841cb1b5595f7c1d891a3ed4fce14f99ab26df8991e5737d7feb836000016020810190610be09190612048565b83604051610bef92919061222b565b60405180910390a15b92915050565b610c06610478565b73ffffffffffffffffffffffffffffffffffffffff163373ffffffffffffffffffffffffffffffffffffffff161480610c6a57503073ffffffffffffffffffffffffffffffffffffffff163373ffffffffffffffffffffffffffffffffffffffff16145b610ca9576040517f08c379a0000000000000000000000000000000000000000000000000000000008152600401610ca090612305565b60405180910390fd5b565b600080826000016020810190610cc191906118c2565b73ffffffffffffffffffffffffffffffffffffffff1683602001356000856060013514610cf2578460600135610cf4565b5a5b90858060400190610d059190612325565b604051610d13929190611b1e565b600060405180830381858888f193505050503d8060008114610d51576040519150601f19603f3d011682016040523d82523d6000602084013e610d56565b606091505b5091509150610d9b82826040518060400160405280600881526020017f4845584c41303031000000000000000000000000000000000000000000000000815250610e5a565b50505050565b6000610dab610e7c565b60000160009054906101000a900473ffffffffffffffffffffffffffffffffffffffff16905090565b610ddd81610ea9565b50565b600081604051602001610df39190612400565b604051602081830303815290604052805190602001209050919050565b6000808273ffffffffffffffffffffffffffffffffffffffff163b119050919050565b6000806000610e428585610f7a565b91509150610e4f81610fcc565b819250505092915050565b60608315610e6a57829050610e75565b610e74838361113a565b5b9392505050565b6000807f8a22373512790c48b83a1fe2efdd2888d4a917bcdc24d0adf63e60f67168046090508091505090565b6000610eb3610e7c565b90508173ffffffffffffffffffffffffffffffffffffffff168160000160009054906101000a900473ffffffffffffffffffffffffffffffffffffffff1673ffffffffffffffffffffffffffffffffffffffff167f8be0079c531659141344cd1fd0a4f28419497f9722a3daafe3b4186f6b6457e060405160405180910390a3818160000160006101000a81548173ffffffffffffffffffffffffffffffffffffffff021916908373ffffffffffffffffffffffffffffffffffffffff1602179055505050565b600080604183511415610fbc5760008060006020860151925060408601519150606086015160001a9050610fb08782858561118a565b94509450505050610fc5565b60006002915091505b9250929050565b60006004811115610fe057610fdf612426565b5b816004811115610ff357610ff2612426565b5b1415610ffe57611137565b6001600481111561101257611011612426565b5b81600481111561102557611024612426565b5b1415611066576040517f08c379a000000000000000000000000000000000000000000000000000000000815260040161105d906124a1565b60405180910390fd5b6002600481111561107a57611079612426565b5b81600481111561108d5761108c612426565b5b14156110ce576040517f08c379a00000000000000000000000000000000000000000000000000000000081526004016110c59061250d565b60405180910390fd5b600360048111156110e2576110e1612426565b5b8160048111156110f5576110f4612426565b5b1415611136576040517f08c379a000000000000000000000000000000000000000000000000000000000815260040161112d9061259f565b60405180910390fd5b5b50565b60008251111561114d5781518083602001fd5b806040517f08c379a00000000000000000000000000000000000000000000000000000000081526004016111819190611ea4565b60405180910390fd5b6000807f7fffffffffffffffffffffffffffffff5d576e7357a4501ddfe92f46681b20a08360001c11156111c5576000600391509150611264565b6000600187878787604051600081526020016040526040516111ea94939291906125db565b6020604051602081039080840390855afa15801561120c573d6000803e3d6000fd5b505050602060405103519050600073ffffffffffffffffffffffffffffffffffffffff168173ffffffffffffffffffffffffffffffffffffffff16141561125b57600060019250925050611264565b80600092509250505b94509492505050565b60007fffffffff0000000000000000000000000000000000000000000000000000000082169050919050565b6112a28161126d565b82525050565b60006020820190506112bd6000830184611299565b92915050565b6000604051905090565b600080fd5b600080fd5b6000819050919050565b6112ea816112d7565b81146112f557600080fd5b50565b600081359050611307816112e1565b92915050565b600080fd5b600080fd5b600080fd5b60008083601f8401126113325761133161130d565b5b8235905067ffffffffffffffff81111561134f5761134e611312565b5b60208301915083600182028301111561136b5761136a611317565b5b9250929050565b60008060006040848603121561138b5761138a6112cd565b5b6000611399868287016112f8565b935050602084013567ffffffffffffffff8111156113ba576113b96112d2565b5b6113c68682870161131c565b92509250509250925092565b6000819050919050565b6113e5816113d2565b81146113f057600080fd5b50565b600081359050611402816113dc565b92915050565b600080fd5b60006080828403121561142357611422611408565b5b81905092915050565b60008060008060008060e08789031215611449576114486112cd565b5b600087013567ffffffffffffffff811115611467576114666112d2565b5b61147389828a0161131c565b9650965050602061148689828a016113f3565b945050604087013567ffffffffffffffff8111156114a7576114a66112d2565b5b6114b389828a0161131c565b935093505060606114c689828a0161140d565b9150509295509295509295565b60008083601f8401126114e9576114e861130d565b5b8235905067ffffffffffffffff81111561150657611505611312565b5b60208301915083602082028301111561152257611521611317565b5b9250929050565b600080602083850312156115405761153f6112cd565b5b600083013567ffffffffffffffff81111561155e5761155d6112d2565b5b61156a858286016114d3565b92509250509250929050565b600080600080600060608688031215611592576115916112cd565b5b600086013567ffffffffffffffff8111156115b0576115af6112d2565b5b6115bc8882890161131c565b955095505060206115cf888289016113f3565b935050604086013567ffffffffffffffff8111156115f0576115ef6112d2565b5b6115fc8882890161131c565b92509250509295509295909350565b600073ffffffffffffffffffffffffffffffffffffffff82169050919050565b60006116368261160b565b9050919050565b6116468161162b565b82525050565b6000602082019050611661600083018461163d565b92915050565b60006080828403121561167d5761167c611408565b5b81905092915050565b60006020828403121561169c5761169b6112cd565b5b600082013567ffffffffffffffff8111156116ba576116b96112d2565b5b6116c684828501611667565b91505092915050565b6116d8816113d2565b82525050565b60006020820190506116f360008301846116cf565b92915050565b6117028161162b565b811461170d57600080fd5b50565b60008135905061171f816116f9565b92915050565b600080fd5b6000601f19601f8301169050919050565b7f4e487b7100000000000000000000000000000000000000000000000000000000600052604160045260246000fd5b6117738261172a565b810181811067ffffffffffffffff821117156117925761179161173b565b5b80604052505050565b60006117a56112c3565b90506117b1828261176a565b919050565b600067ffffffffffffffff8211156117d1576117d061173b565b5b6117da8261172a565b9050602081019050919050565b82818337600083830152505050565b6000611809611804846117b6565b61179b565b90508281526020810184848401111561182557611824611725565b5b6118308482856117e7565b509392505050565b600082601f83011261184d5761184c61130d565b5b813561185d8482602086016117f6565b91505092915050565b6000806040838503121561187d5761187c6112cd565b5b600061188b85828601611710565b925050602083013567ffffffffffffffff8111156118ac576118ab6112d2565b5b6118b885828601611838565b9150509250929050565b6000602082840312156118d8576118d76112cd565b5b60006118e684828501611710565b91505092915050565b7f4e487b7100000000000000000000000000000000000000000000000000000000600052601160045260246000fd5b6000611929826113d2565b9150611934836113d2565b925082821015611947576119466118ef565b5b828203905092915050565b7f4e487b7100000000000000000000000000000000000000000000000000000000600052603260045260246000fd5b600080fd5b600080fd5b600080fd5b6000823560016080038336030381126119ac576119ab611981565b5b80830191505092915050565b60006119c3826113d2565b91507fffffffffffffffffffffffffffffffffffffffffffffffffffffffffffffffff8214156119f6576119f56118ef565b5b600182019050919050565b600082825260208201905092915050565b6000611a1e8385611a01565b9350611a2b8385846117e7565b611a348361172a565b840190509392505050565b60006040820190508181036000830152611a5a818587611a12565b9050611a6960208301846116cf565b949350505050565b600082825260208201905092915050565b7f4845584c41303038000000000000000000000000000000000000000000000000600082015250565b6000611ab8600883611a71565b9150611ac382611a82565b602082019050919050565b60006020820190508181036000830152611ae781611aab565b9050919050565b600081905092915050565b6000611b058385611aee565b9350611b128385846117e7565b82840190509392505050565b6000611b2b828486611af9565b91508190509392505050565b7f4845584c41303039000000000000000000000000000000000000000000000000600082015250565b6000611b6d600883611a71565b9150611b7882611b37565b602082019050919050565b60006020820190508181036000830152611b9c81611b60565b9050919050565b7f4845584c30313500000000000000000000000000000000000000000000000000600082015250565b6000611bd9600783611a71565b9150611be482611ba3565b602082019050919050565b60006020820190508181036000830152611c0881611bcc565b9050919050565b600081519050919050565b60005b83811015611c38578082015181840152602081019050611c1d565b83811115611c47576000848401525b50505050565b6000611c5882611c0f565b611c628185611aee565b9350611c72818560208601611c1a565b80840191505092915050565b6000611c8a8284611c4d565b915081905092915050565b7f4845584c30313300000000000000000000000000000000000000000000000000600082015250565b6000611ccb600783611a71565b9150611cd682611c95565b602082019050919050565b60006020820190508181036000830152611cfa81611cbe565b9050919050565b611d0a816112d7565b82525050565b6000604082019050611d256000830186611d01565b8181036020830152611d38818486611a12565b9050949350505050565b611d4b8161126d565b8114611d5657600080fd5b50565b600081519050611d6881611d42565b92915050565b600060208284031215611d8457611d836112cd565b5b6000611d9284828501611d59565b91505092915050565b60008160e01c9050919050565b600060033d1115611dc75760046000803e611dc4600051611d9b565b90505b90565b600060443d1015611dda57611e5d565b611de26112c3565b60043d036004823e80513d602482011167ffffffffffffffff82111715611e0a575050611e5d565b808201805167ffffffffffffffff811115611e285750505050611e5d565b80602083010160043d038501811115611e45575050505050611e5d565b611e548260200185018661176a565b82955050505050505b90565b600081519050919050565b6000611e7682611e60565b611e808185611a71565b9350611e90818560208601611c1a565b611e998161172a565b840191505092915050565b60006020820190508181036000830152611ebe8184611e6b565b905092915050565b7f4845584c41303033000000000000000000000000000000000000000000000000600082015250565b6000611efc600883611a71565b9150611f0782611ec6565b602082019050919050565b60006020820190508181036000830152611f2b81611eef565b9050919050565b7f4845584c41303032000000000000000000000000000000000000000000000000600082015250565b6000611f68600883611a71565b9150611f7382611f32565b602082019050919050565b60006020820190508181036000830152611f9781611f5b565b9050919050565b7f4845584c41303034000000000000000000000000000000000000000000000000600082015250565b6000611fd4600883611a71565b9150611fdf82611f9e565b602082019050919050565b6000602082019050818103600083015261200381611fc7565b9050919050565b60006120158261160b565b9050919050565b6120258161200a565b811461203057600080fd5b50565b6000813590506120428161201c565b92915050565b60006020828403121561205e5761205d6112cd565b5b600061206c84828501612033565b91505092915050565b6000612080826113d2565b915061208b836113d2565b9250827fffffffffffffffffffffffffffffffffffffffffffffffffffffffffffffffff038211156120c0576120bf6118ef565b5b828201905092915050565b60006120d6826113d2565b91506120e1836113d2565b9250817fffffffffffffffffffffffffffffffffffffffffffffffffffffffffffffffff048311821515161561211a576121196118ef565b5b828202905092915050565b50565b6000612135600083611aee565b915061214082612125565b600082019050919050565b600061215682612128565b9150819050919050565b7f4845584c30323000000000000000000000000000000000000000000000000000600082015250565b6000612196600783611a71565b91506121a182612160565b602082019050919050565b600060208201905081810360008301526121c581612189565b9050919050565b6000819050919050565b60006121f16121ec6121e78461160b565b6121cc565b61160b565b9050919050565b6000612203826121d6565b9050919050565b6000612215826121f8565b9050919050565b6122258161220a565b82525050565b6000604082019050612240600083018561221c565b61224d60208301846116cf565b9392505050565b60008115159050919050565b61226981612254565b811461227457600080fd5b50565b60008151905061228681612260565b92915050565b6000602082840312156122a2576122a16112cd565b5b60006122b084828501612277565b91505092915050565b7f4845584c41303131000000000000000000000000000000000000000000000000600082015250565b60006122ef600883611a71565b91506122fa826122b9565b602082019050919050565b6000602082019050818103600083015261231e816122e2565b9050919050565b6000808335600160200384360303811261234257612341611981565b5b80840192508235915067ffffffffffffffff82111561236457612363611986565b5b6020830192506001820236038313156123805761237f61198b565b5b509250929050565b600081905092915050565b7f19457468657265756d205369676e6564204d6573736167653a0a333200000000600082015250565b60006123c9601c83612388565b91506123d482612393565b601c82019050919050565b6000819050919050565b6123fa6123f5826112d7565b6123df565b82525050565b600061240b826123bc565b915061241782846123e9565b60208201915081905092915050565b7f4e487b7100000000000000000000000000000000000000000000000000000000600052602160045260246000fd5b7f45434453413a20696e76616c6964207369676e61747572650000000000000000600082015250565b600061248b601883611a71565b915061249682612455565b602082019050919050565b600060208201905081810360008301526124ba8161247e565b9050919050565b7f45434453413a20696e76616c6964207369676e6174757265206c656e67746800600082015250565b60006124f7601f83611a71565b9150612502826124c1565b602082019050919050565b60006020820190508181036000830152612526816124ea565b9050919050565b7f45434453413a20696e76616c6964207369676e6174757265202773272076616c60008201527f7565000000000000000000000000000000000000000000000000000000000000602082015250565b6000612589602283611a71565b91506125948261252d565b604082019050919050565b600060208201905081810360008301526125b88161257c565b9050919050565b600060ff82169050919050565b6125d5816125bf565b82525050565b60006080820190506125f06000830187611d01565b6125fd60208301866125cc565b61260a6040830185611d01565b6126176060830184611d01565b9594505050505056fea2646970667358221220b4403ff518219a1957c36e4a0d3226f76e007bf82ba2b8ddc813ed8880acc78264736f6c63430008080033",
  "devdoc": {
    "kind": "dev",
    "methods": {
      "owner()": {
        "returns": {
          "_0": "conrtact owner"
        }
      },
      "transferOwnership(address)": {
        "params": {
          "account": "address of new owner"
        }
      }
    },
    "version": 1
  },
  "userdoc": {
    "kind": "user",
    "methods": {
      "owner()": {
        "notice": "get the ERC173 contract owner"
      },
      "transferOwnership(address)": {
        "notice": "transfer contract ownership to new account"
      }
    },
    "version": 1
  },
  "storageLayout": {
    "storage": [
      {
        "astId": 2779,
        "contract": "contracts/account/AccountSimple.sol:AccountSimple",
        "label": "nonce_",
        "offset": 0,
        "slot": "0",
        "type": "t_uint256"
      }
    ],
    "types": {
      "t_uint256": {
        "encoding": "inplace",
        "label": "uint256",
        "numberOfBytes": "32"
      }
    }
  }
}