{
  "address": "0x7dce3a648579c457e1fd5dd0edcf3367dd1b1d57",
  "abi": [
    {
      "inputs": [],
      "name": "Ownable__NotOwner",
      "type": "error"
    },
    {
      "inputs": [],
      "name": "Ownable__NotTransitiveOwner",
      "type": "error"
    },
    {
      "anonymous": false,
      "inputs": [
        {
          "indexed": false,
          "internalType": "address",
          "name": "to",
          "type": "address"
        },
        {
          "indexed": false,
          "internalType": "uint256",
          "name": "amount",
          "type": "uint256"
        }
      ],
      "name": "GasPaid",
      "type": "event"
    },
    {
      "anonymous": false,
      "inputs": [
        {
          "indexed": true,
          "internalType": "address",
          "name": "previousOwner",
          "type": "address"
        },
        {
          "indexed": true,
          "internalType": "address",
          "name": "newOwner",
          "type": "address"
        }
      ],
      "name": "OwnershipTransferred",
      "type": "event"
    },
    {
      "stateMutability": "nonpayable",
      "type": "fallback"
    },
    {
      "inputs": [
        {
          "components": [
            {
              "internalType": "address",
              "name": "to",
              "type": "address"
            },
            {
              "internalType": "uint256",
              "name": "value",
              "type": "uint256"
            },
            {
              "internalType": "bytes",
              "name": "callData",
              "type": "bytes"
            },
            {
              "internalType": "uint256",
              "name": "callGasLimit",
              "type": "uint256"
            }
          ],
          "internalType": "struct BasicUserOp",
          "name": "op",
          "type": "tuple"
        }
      ],
      "name": "exec",
      "outputs": [],
      "stateMutability": "payable",
      "type": "function"
    },
    {
      "inputs": [
        {
          "components": [
            {
              "internalType": "address",
              "name": "to",
              "type": "address"
            },
            {
              "internalType": "uint256",
              "name": "value",
              "type": "uint256"
            },
            {
              "internalType": "bytes",
              "name": "callData",
              "type": "bytes"
            },
            {
              "internalType": "uint256",
              "name": "callGasLimit",
              "type": "uint256"
            }
          ],
          "internalType": "struct BasicUserOp[]",
          "name": "ops",
          "type": "tuple[]"
        }
      ],
      "name": "execBatch",
      "outputs": [],
      "stateMutability": "payable",
      "type": "function"
    },
    {
      "inputs": [
        {
          "internalType": "address",
          "name": "owner",
          "type": "address"
        },
        {
          "internalType": "bytes",
          "name": "data",
          "type": "bytes"
        }
      ],
      "name": "init",
      "outputs": [],
      "stateMutability": "nonpayable",
      "type": "function"
    },
    {
      "inputs": [
        {
          "internalType": "bytes32",
          "name": "message",
          "type": "bytes32"
        },
        {
          "internalType": "bytes",
          "name": "signature",
          "type": "bytes"
        }
      ],
      "name": "isValidSignature",
      "outputs": [
        {
          "internalType": "bytes4",
          "name": "",
          "type": "bytes4"
        }
      ],
      "stateMutability": "view",
      "type": "function"
    },
    {
      "inputs": [],
      "name": "nonce",
      "outputs": [
        {
          "internalType": "uint256",
          "name": "",
          "type": "uint256"
        }
      ],
      "stateMutability": "view",
      "type": "function"
    },
    {
      "inputs": [],
      "name": "owner",
      "outputs": [
        {
          "internalType": "address",
          "name": "",
          "type": "address"
        }
      ],
      "stateMutability": "view",
      "type": "function"
    },
    {
      "inputs": [
        {
          "internalType": "address",
          "name": "account",
          "type": "address"
        }
      ],
      "name": "transferOwnership",
      "outputs": [],
      "stateMutability": "nonpayable",
      "type": "function"
    },
    {
      "inputs": [
        {
          "internalType": "bytes",
          "name": "txData",
          "type": "bytes"
        },
        {
          "internalType": "uint256",
          "name": "_nonce",
          "type": "uint256"
        },
        {
          "internalType": "bytes",
          "name": "signature",
          "type": "bytes"
        }
      ],
      "name": "validateAndCall",
      "outputs": [],
      "stateMutability": "payable",
      "type": "function"
    },
    {
      "inputs": [
        {
          "internalType": "bytes",
          "name": "txData",
          "type": "bytes"
        },
        {
          "internalType": "uint256",
          "name": "_nonce",
          "type": "uint256"
        },
        {
          "internalType": "bytes",
          "name": "signature",
          "type": "bytes"
        },
        {
          "components": [
            {
              "internalType": "address payable",
              "name": "receiver",
              "type": "address"
            },
            {
              "internalType": "address",
              "name": "token",
              "type": "address"
            },
            {
              "internalType": "uint256",
              "name": "base",
              "type": "uint256"
            },
            {
              "internalType": "uint256",
              "name": "price",
              "type": "uint256"
            }
          ],
          "internalType": "struct GasPayer.GasPayment",
          "name": "gas",
          "type": "tuple"
        }
      ],
      "name": "validateAndCallWithGasRefund",
      "outputs": [],
      "stateMutability": "payable",
      "type": "function"
    },
    {
      "stateMutability": "payable",
      "type": "receive"
    }
  ],
  "transactionHash": "0xa6ff0333ea39f5ba6b976a2771f6ee43a40de7dccdfb2c757a0907d9d768e1c1",
  "args": [],
  "numDeployments": 7,
  "solcInputHash": "bf95ab66a616c3473c86f998cf27c5d4",
  "bytecode": "0x608060405234801561001057600080fd5b506127c2806100206000396000f3fe60806040526004361061008a5760003560e01c80638da5cb5b116100595780638da5cb5b14610185578063a8c94346146101b0578063affed0e0146101cc578063c0d91eaf146101f7578063f2fde38b1461022057610091565b80631626ba7e146100f45780635117f8fd146101315780638479cc0f1461014d5780638c88d3801461016957610091565b3661009157005b34801561009d57600080fd5b5060003660606000357fffffffff00000000000000000000000000000000000000000000000000000000166040516020016100d89190611382565b6040516020818303038152906040529050915050805190602001f35b34801561010057600080fd5b5061011b6004803603810190610116919061144c565b610249565b6040516101289190611382565b60405180910390f35b61014b60048036038101906101469190611506565b610267565b005b61016760048036038101906101629190611603565b610298565b005b610183600480360381019061017e9190611650565b6102f9565b005b34801561019157600080fd5b5061019a610444565b6040516101a79190611726565b60405180910390f35b6101ca60048036038101906101c59190611760565b610453565b005b3480156101d857600080fd5b506101e1610467565b6040516101ee91906117b8565b60405180910390f35b34801561020357600080fd5b5061021e60048036038101906102199190611940565b610470565b005b34801561022c57600080fd5b506102476004803603810190610242919061199c565b61058d565b005b6000610256848484610605565b631626ba7e60e01b90509392505050565b60005a905061027987878787876102f9565b61028e825a8361028991906119f8565b6108c7565b5050505050505050565b6102a0610b7d565b600082829050905060005b818110156102f3576102e08484838181106102c9576102c8611a2c565b5b90506020028101906102db9190611a6a565b610c2a565b80806102eb90611a92565b9150506102ab565b50505050565b6000858560005460405160200161031293929190611b19565b6040516020818303038152906040528051906020012090508360008081548092919061033d90611a92565b9190505514610381576040517f08c379a000000000000000000000000000000000000000000000000000000000815260040161037890611ba8565b60405180910390fd5b61038c818484610605565b60003073ffffffffffffffffffffffffffffffffffffffff1687876040516103b5929190611bf8565b6000604051808303816000865af19150503d80600081146103f2576040519150601f19603f3d011682016040523d82523d6000602084013e6103f7565b606091505b505090508061043b576040517f08c379a000000000000000000000000000000000000000000000000000000000815260040161043290611c5d565b60405180910390fd5b50505050505050565b600061044e610d20565b905090565b61045b610b7d565b61046481610c2a565b50565b60008054905090565b600073ffffffffffffffffffffffffffffffffffffffff16610490610d20565b73ffffffffffffffffffffffffffffffffffffffff161480156104e05750600073ffffffffffffffffffffffffffffffffffffffff168273ffffffffffffffffffffffffffffffffffffffff1614155b61051f576040517f08c379a000000000000000000000000000000000000000000000000000000000815260040161051690611cc9565b60405180910390fd5b61052882610d53565b610588816040518060400160405280600781526020017f4845584c303133000000000000000000000000000000000000000000000000008152503073ffffffffffffffffffffffffffffffffffffffff16610d5f9092919063ffffffff16565b505050565b610595610d20565b73ffffffffffffffffffffffffffffffffffffffff163373ffffffffffffffffffffffffffffffffffffffff16146105f9576040517f2f7a8ee100000000000000000000000000000000000000000000000000000000815260040160405180910390fd5b61060281610d53565b50565b600061060f610444565b9050600061061c85610d77565b905061063d8273ffffffffffffffffffffffffffffffffffffffff16610da7565b156107fb578173ffffffffffffffffffffffffffffffffffffffff16631626ba7e8286866040518463ffffffff1660e01b815260040161067f93929190611cf8565b60206040518083038186803b15801561069757600080fd5b505afa9250505080156106c857506040513d601f19601f820116820180604052508101906106c59190611d56565b60015b61076e576106d4611d90565b806308c379a0141561073157506106e9611db2565b806106f45750610733565b806040517f08c379a00000000000000000000000000000000000000000000000000000000081526004016107289190611ebf565b60405180910390fd5b505b6040517f08c379a000000000000000000000000000000000000000000000000000000000815260040161076590611f2d565b60405180910390fd5b631626ba7e60e01b7bffffffffffffffffffffffffffffffffffffffffffffffffffffffff1916817bffffffffffffffffffffffffffffffffffffffffffffffffffffffff1916146107f5576040517f08c379a00000000000000000000000000000000000000000000000000000000081526004016107ec90611f99565b60405180910390fd5b506108c0565b61085284848080601f016020809104026020016040519081016040528093929190818152602001838380828437600081840152601f19601f8201169050808301925050505050505082610dca90919063ffffffff16565b73ffffffffffffffffffffffffffffffffffffffff168273ffffffffffffffffffffffffffffffffffffffff16146108bf576040517f08c379a00000000000000000000000000000000000000000000000000000000081526004016108b690612005565b60405180910390fd5b5b5050505050565b60008073ffffffffffffffffffffffffffffffffffffffff168360000160208101906108f39190612063565b73ffffffffffffffffffffffffffffffffffffffff1614610b775782604001358261091e9190612090565b9150600073ffffffffffffffffffffffffffffffffffffffff1683602001602081019061094b919061199c565b73ffffffffffffffffffffffffffffffffffffffff161415610a665760008084606001351461097e578360600135610980565b3a5b90503a811161098f5780610991565b3a5b9050808361099f91906120e6565b915060008460000160208101906109b69190612063565b73ffffffffffffffffffffffffffffffffffffffff16836040516109d990612166565b60006040518083038185875af1925050503d8060008114610a16576040519150601f19603f3d011682016040523d82523d6000602084013e610a1b565b606091505b5050905080610a5f576040517f08c379a0000000000000000000000000000000000000000000000000000000008152600401610a56906121c7565b60405180910390fd5b5050610b2b565b826060013582610a7691906120e6565b9050826020016020810190610a8b919061199c565b73ffffffffffffffffffffffffffffffffffffffff1663a9059cbb846000016020810190610ab99190612063565b836040518363ffffffff1660e01b8152600401610ad7929190612246565b602060405180830381600087803b158015610af157600080fd5b505af1158015610b05573d6000803e3d6000fd5b505050506040513d601f19601f82011682018060405250810190610b2991906122a7565b505b7f9472b7566e62841cb1b5595f7c1d891a3ed4fce14f99ab26df8991e5737d7feb836000016020810190610b5f9190612063565b83604051610b6e929190612246565b60405180910390a15b92915050565b610b85610444565b73ffffffffffffffffffffffffffffffffffffffff163373ffffffffffffffffffffffffffffffffffffffff161480610be957503073ffffffffffffffffffffffffffffffffffffffff163373ffffffffffffffffffffffffffffffffffffffff16145b610c28576040517f08c379a0000000000000000000000000000000000000000000000000000000008152600401610c1f90612320565b60405180910390fd5b565b600080826000016020810190610c40919061199c565b73ffffffffffffffffffffffffffffffffffffffff1683602001356000856060013514610c71578460600135610c73565b5a5b90858060400190610c849190612340565b604051610c92929190611bf8565b600060405180830381858888f193505050503d8060008114610cd0576040519150601f19603f3d011682016040523d82523d6000602084013e610cd5565b606091505b5091509150610d1a82826040518060400160405280600881526020017f4845584c41303031000000000000000000000000000000000000000000000000815250610df1565b50505050565b6000610d2a610e13565b60000160009054906101000a900473ffffffffffffffffffffffffffffffffffffffff16905090565b610d5c81610e40565b50565b6060610d6e8484600085610f11565b90509392505050565b600081604051602001610d8a919061241b565b604051602081830303815290604052805190602001209050919050565b6000808273ffffffffffffffffffffffffffffffffffffffff163b119050919050565b6000806000610dd98585610fde565b91509150610de681611030565b819250505092915050565b60608315610e0157829050610e0c565b610e0b838361119e565b5b9392505050565b6000807f8a22373512790c48b83a1fe2efdd2888d4a917bcdc24d0adf63e60f67168046090508091505090565b6000610e4a610e13565b90508173ffffffffffffffffffffffffffffffffffffffff168160000160009054906101000a900473ffffffffffffffffffffffffffffffffffffffff1673ffffffffffffffffffffffffffffffffffffffff167f8be0079c531659141344cd1fd0a4f28419497f9722a3daafe3b4186f6b6457e060405160405180910390a3818160000160006101000a81548173ffffffffffffffffffffffffffffffffffffffff021916908373ffffffffffffffffffffffffffffffffffffffff1602179055505050565b606082471015610f56576040517f08c379a0000000000000000000000000000000000000000000000000000000008152600401610f4d906124b3565b60405180910390fd5b6000808673ffffffffffffffffffffffffffffffffffffffff168587604051610f7f919061250f565b60006040518083038185875af1925050503d8060008114610fbc576040519150601f19603f3d011682016040523d82523d6000602084013e610fc1565b606091505b5091509150610fd2878383876111ee565b92505050949350505050565b6000806041835114156110205760008060006020860151925060408601519150606086015160001a905061101487828585611264565b94509450505050611029565b60006002915091505b9250929050565b6000600481111561104457611043612526565b5b81600481111561105757611056612526565b5b14156110625761119b565b6001600481111561107657611075612526565b5b81600481111561108957611088612526565b5b14156110ca576040517f08c379a00000000000000000000000000000000000000000000000000000000081526004016110c1906125a1565b60405180910390fd5b600260048111156110de576110dd612526565b5b8160048111156110f1576110f0612526565b5b1415611132576040517f08c379a00000000000000000000000000000000000000000000000000000000081526004016111299061260d565b60405180910390fd5b6003600481111561114657611145612526565b5b81600481111561115957611158612526565b5b141561119a576040517f08c379a00000000000000000000000000000000000000000000000000000000081526004016111919061269f565b60405180910390fd5b5b50565b6000825111156111b15781518083602001fd5b806040517f08c379a00000000000000000000000000000000000000000000000000000000081526004016111e59190611ebf565b60405180910390fd5b60608315611251576000835114156112495761120985610da7565b611248576040517f08c379a000000000000000000000000000000000000000000000000000000000815260040161123f9061270b565b60405180910390fd5b5b82905061125c565b61125b838361119e565b5b949350505050565b6000807f7fffffffffffffffffffffffffffffff5d576e7357a4501ddfe92f46681b20a08360001c111561129f57600060039150915061133e565b6000600187878787604051600081526020016040526040516112c49493929190612747565b6020604051602081039080840390855afa1580156112e6573d6000803e3d6000fd5b505050602060405103519050600073ffffffffffffffffffffffffffffffffffffffff168173ffffffffffffffffffffffffffffffffffffffff1614156113355760006001925092505061133e565b80600092509250505b94509492505050565b60007fffffffff0000000000000000000000000000000000000000000000000000000082169050919050565b61137c81611347565b82525050565b60006020820190506113976000830184611373565b92915050565b6000604051905090565b600080fd5b600080fd5b6000819050919050565b6113c4816113b1565b81146113cf57600080fd5b50565b6000813590506113e1816113bb565b92915050565b600080fd5b600080fd5b600080fd5b60008083601f84011261140c5761140b6113e7565b5b8235905067ffffffffffffffff811115611429576114286113ec565b5b602083019150836001820283011115611445576114446113f1565b5b9250929050565b600080600060408486031215611465576114646113a7565b5b6000611473868287016113d2565b935050602084013567ffffffffffffffff811115611494576114936113ac565b5b6114a0868287016113f6565b92509250509250925092565b6000819050919050565b6114bf816114ac565b81146114ca57600080fd5b50565b6000813590506114dc816114b6565b92915050565b600080fd5b6000608082840312156114fd576114fc6114e2565b5b81905092915050565b60008060008060008060e08789031215611523576115226113a7565b5b600087013567ffffffffffffffff811115611541576115406113ac565b5b61154d89828a016113f6565b9650965050602061156089828a016114cd565b945050604087013567ffffffffffffffff811115611581576115806113ac565b5b61158d89828a016113f6565b935093505060606115a089828a016114e7565b9150509295509295509295565b60008083601f8401126115c3576115c26113e7565b5b8235905067ffffffffffffffff8111156115e0576115df6113ec565b5b6020830191508360208202830111156115fc576115fb6113f1565b5b9250929050565b6000806020838503121561161a576116196113a7565b5b600083013567ffffffffffffffff811115611638576116376113ac565b5b611644858286016115ad565b92509250509250929050565b60008060008060006060868803121561166c5761166b6113a7565b5b600086013567ffffffffffffffff81111561168a576116896113ac565b5b611696888289016113f6565b955095505060206116a9888289016114cd565b935050604086013567ffffffffffffffff8111156116ca576116c96113ac565b5b6116d6888289016113f6565b92509250509295509295909350565b600073ffffffffffffffffffffffffffffffffffffffff82169050919050565b6000611710826116e5565b9050919050565b61172081611705565b82525050565b600060208201905061173b6000830184611717565b92915050565b600060808284031215611757576117566114e2565b5b81905092915050565b600060208284031215611776576117756113a7565b5b600082013567ffffffffffffffff811115611794576117936113ac565b5b6117a084828501611741565b91505092915050565b6117b2816114ac565b82525050565b60006020820190506117cd60008301846117a9565b92915050565b6117dc81611705565b81146117e757600080fd5b50565b6000813590506117f9816117d3565b92915050565b600080fd5b6000601f19601f8301169050919050565b7f4e487b7100000000000000000000000000000000000000000000000000000000600052604160045260246000fd5b61184d82611804565b810181811067ffffffffffffffff8211171561186c5761186b611815565b5b80604052505050565b600061187f61139d565b905061188b8282611844565b919050565b600067ffffffffffffffff8211156118ab576118aa611815565b5b6118b482611804565b9050602081019050919050565b82818337600083830152505050565b60006118e36118de84611890565b611875565b9050828152602081018484840111156118ff576118fe6117ff565b5b61190a8482856118c1565b509392505050565b600082601f830112611927576119266113e7565b5b81356119378482602086016118d0565b91505092915050565b60008060408385031215611957576119566113a7565b5b6000611965858286016117ea565b925050602083013567ffffffffffffffff811115611986576119856113ac565b5b61199285828601611912565b9150509250929050565b6000602082840312156119b2576119b16113a7565b5b60006119c0848285016117ea565b91505092915050565b7f4e487b7100000000000000000000000000000000000000000000000000000000600052601160045260246000fd5b6000611a03826114ac565b9150611a0e836114ac565b925082821015611a2157611a206119c9565b5b828203905092915050565b7f4e487b7100000000000000000000000000000000000000000000000000000000600052603260045260246000fd5b600080fd5b600080fd5b600080fd5b600082356001608003833603038112611a8657611a85611a5b565b5b80830191505092915050565b6000611a9d826114ac565b91507fffffffffffffffffffffffffffffffffffffffffffffffffffffffffffffffff821415611ad057611acf6119c9565b5b600182019050919050565b600082825260208201905092915050565b6000611af88385611adb565b9350611b058385846118c1565b611b0e83611804565b840190509392505050565b60006040820190508181036000830152611b34818587611aec565b9050611b4360208301846117a9565b949350505050565b600082825260208201905092915050565b7f4845584c41303038000000000000000000000000000000000000000000000000600082015250565b6000611b92600883611b4b565b9150611b9d82611b5c565b602082019050919050565b60006020820190508181036000830152611bc181611b85565b9050919050565b600081905092915050565b6000611bdf8385611bc8565b9350611bec8385846118c1565b82840190509392505050565b6000611c05828486611bd3565b91508190509392505050565b7f4845584c41303039000000000000000000000000000000000000000000000000600082015250565b6000611c47600883611b4b565b9150611c5282611c11565b602082019050919050565b60006020820190508181036000830152611c7681611c3a565b9050919050565b7f4845584c30313500000000000000000000000000000000000000000000000000600082015250565b6000611cb3600783611b4b565b9150611cbe82611c7d565b602082019050919050565b60006020820190508181036000830152611ce281611ca6565b9050919050565b611cf2816113b1565b82525050565b6000604082019050611d0d6000830186611ce9565b8181036020830152611d20818486611aec565b9050949350505050565b611d3381611347565b8114611d3e57600080fd5b50565b600081519050611d5081611d2a565b92915050565b600060208284031215611d6c57611d6b6113a7565b5b6000611d7a84828501611d41565b91505092915050565b60008160e01c9050919050565b600060033d1115611daf5760046000803e611dac600051611d83565b90505b90565b600060443d1015611dc257611e45565b611dca61139d565b60043d036004823e80513d602482011167ffffffffffffffff82111715611df2575050611e45565b808201805167ffffffffffffffff811115611e105750505050611e45565b80602083010160043d038501811115611e2d575050505050611e45565b611e3c82602001850186611844565b82955050505050505b90565b600081519050919050565b60005b83811015611e71578082015181840152602081019050611e56565b83811115611e80576000848401525b50505050565b6000611e9182611e48565b611e9b8185611b4b565b9350611eab818560208601611e53565b611eb481611804565b840191505092915050565b60006020820190508181036000830152611ed98184611e86565b905092915050565b7f4845584c41303033000000000000000000000000000000000000000000000000600082015250565b6000611f17600883611b4b565b9150611f2282611ee1565b602082019050919050565b60006020820190508181036000830152611f4681611f0a565b9050919050565b7f4845584c41303032000000000000000000000000000000000000000000000000600082015250565b6000611f83600883611b4b565b9150611f8e82611f4d565b602082019050919050565b60006020820190508181036000830152611fb281611f76565b9050919050565b7f4845584c41303034000000000000000000000000000000000000000000000000600082015250565b6000611fef600883611b4b565b9150611ffa82611fb9565b602082019050919050565b6000602082019050818103600083015261201e81611fe2565b9050919050565b6000612030826116e5565b9050919050565b61204081612025565b811461204b57600080fd5b50565b60008135905061205d81612037565b92915050565b600060208284031215612079576120786113a7565b5b60006120878482850161204e565b91505092915050565b600061209b826114ac565b91506120a6836114ac565b9250827fffffffffffffffffffffffffffffffffffffffffffffffffffffffffffffffff038211156120db576120da6119c9565b5b828201905092915050565b60006120f1826114ac565b91506120fc836114ac565b9250817fffffffffffffffffffffffffffffffffffffffffffffffffffffffffffffffff0483118215151615612135576121346119c9565b5b828202905092915050565b50565b6000612150600083611bc8565b915061215b82612140565b600082019050919050565b600061217182612143565b9150819050919050565b7f4845584c30323000000000000000000000000000000000000000000000000000600082015250565b60006121b1600783611b4b565b91506121bc8261217b565b602082019050919050565b600060208201905081810360008301526121e0816121a4565b9050919050565b6000819050919050565b600061220c612207612202846116e5565b6121e7565b6116e5565b9050919050565b600061221e826121f1565b9050919050565b600061223082612213565b9050919050565b61224081612225565b82525050565b600060408201905061225b6000830185612237565b61226860208301846117a9565b9392505050565b60008115159050919050565b6122848161226f565b811461228f57600080fd5b50565b6000815190506122a18161227b565b92915050565b6000602082840312156122bd576122bc6113a7565b5b60006122cb84828501612292565b91505092915050565b7f4845584c41303131000000000000000000000000000000000000000000000000600082015250565b600061230a600883611b4b565b9150612315826122d4565b602082019050919050565b60006020820190508181036000830152612339816122fd565b9050919050565b6000808335600160200384360303811261235d5761235c611a5b565b5b80840192508235915067ffffffffffffffff82111561237f5761237e611a60565b5b60208301925060018202360383131561239b5761239a611a65565b5b509250929050565b600081905092915050565b7f19457468657265756d205369676e6564204d6573736167653a0a333200000000600082015250565b60006123e4601c836123a3565b91506123ef826123ae565b601c82019050919050565b6000819050919050565b612415612410826113b1565b6123fa565b82525050565b6000612426826123d7565b91506124328284612404565b60208201915081905092915050565b7f416464726573733a20696e73756666696369656e742062616c616e636520666f60008201527f722063616c6c0000000000000000000000000000000000000000000000000000602082015250565b600061249d602683611b4b565b91506124a882612441565b604082019050919050565b600060208201905081810360008301526124cc81612490565b9050919050565b600081519050919050565b60006124e9826124d3565b6124f38185611bc8565b9350612503818560208601611e53565b80840191505092915050565b600061251b82846124de565b915081905092915050565b7f4e487b7100000000000000000000000000000000000000000000000000000000600052602160045260246000fd5b7f45434453413a20696e76616c6964207369676e61747572650000000000000000600082015250565b600061258b601883611b4b565b915061259682612555565b602082019050919050565b600060208201905081810360008301526125ba8161257e565b9050919050565b7f45434453413a20696e76616c6964207369676e6174757265206c656e67746800600082015250565b60006125f7601f83611b4b565b9150612602826125c1565b602082019050919050565b60006020820190508181036000830152612626816125ea565b9050919050565b7f45434453413a20696e76616c6964207369676e6174757265202773272076616c60008201527f7565000000000000000000000000000000000000000000000000000000000000602082015250565b6000612689602283611b4b565b91506126948261262d565b604082019050919050565b600060208201905081810360008301526126b88161267c565b9050919050565b7f416464726573733a2063616c6c20746f206e6f6e2d636f6e7472616374000000600082015250565b60006126f5601d83611b4b565b9150612700826126bf565b602082019050919050565b60006020820190508181036000830152612724816126e8565b9050919050565b600060ff82169050919050565b6127418161272b565b82525050565b600060808201905061275c6000830187611ce9565b6127696020830186612738565b6127766040830185611ce9565b6127836060830184611ce9565b9594505050505056fea2646970667358221220e45037335c897d8de437fbd32c4e347588dce2f6344189131e18df97f0c6847d64736f6c63430008080033",
  "devdoc": {
    "kind": "dev",
    "methods": {
      "owner()": {
        "returns": {
          "_0": "conrtact owner"
        }
      },
      "transferOwnership(address)": {
        "params": {
          "account": "address of new owner"
        }
      }
    },
    "version": 1
  },
  "userdoc": {
    "kind": "user",
    "methods": {
      "owner()": {
        "notice": "get the ERC173 contract owner"
      },
      "transferOwnership(address)": {
        "notice": "transfer contract ownership to new account"
      }
    },
    "version": 1
  },
  "storageLayout": {
    "storage": [
      {
        "astId": 3458,
        "contract": "contracts/account/AccountSimple.sol:AccountSimple",
        "label": "nonce_",
        "offset": 0,
        "slot": "0",
        "type": "t_uint256"
      }
    ],
    "types": {
      "t_uint256": {
        "encoding": "inplace",
        "label": "uint256",
        "numberOfBytes": "32"
      }
    }
  }
}