{
  "address": "0x550f0B044b5FeB2370dC549fB73C76c7189fD8F0",
  "abi": [
    {
      "inputs": [],
      "name": "Ownable__NotOwner",
      "type": "error"
    },
    {
      "inputs": [],
      "name": "Ownable__NotTransitiveOwner",
      "type": "error"
    },
    {
      "anonymous": false,
      "inputs": [
        {
          "indexed": true,
          "internalType": "bytes32",
          "name": "request",
          "type": "bytes32"
        },
        {
          "indexed": false,
          "internalType": "uint256",
          "name": "payment",
          "type": "uint256"
        }
      ],
      "name": "GasPayment",
      "type": "event"
    },
    {
      "anonymous": false,
      "inputs": [
        {
          "indexed": true,
          "internalType": "address",
          "name": "previousOwner",
          "type": "address"
        },
        {
          "indexed": true,
          "internalType": "address",
          "name": "newOwner",
          "type": "address"
        }
      ],
      "name": "OwnershipTransferred",
      "type": "event"
    },
    {
      "stateMutability": "nonpayable",
      "type": "fallback"
    },
    {
      "inputs": [
        {
          "components": [
            {
              "internalType": "address",
              "name": "to",
              "type": "address"
            },
            {
              "internalType": "uint256",
              "name": "value",
              "type": "uint256"
            },
            {
              "internalType": "bytes",
              "name": "callData",
              "type": "bytes"
            },
            {
              "internalType": "uint256",
              "name": "callGasLimit",
              "type": "uint256"
            }
          ],
          "internalType": "struct BasicUserOp",
          "name": "op",
          "type": "tuple"
        }
      ],
      "name": "exec",
      "outputs": [],
      "stateMutability": "nonpayable",
      "type": "function"
    },
    {
      "inputs": [
        {
          "components": [
            {
              "internalType": "address",
              "name": "to",
              "type": "address"
            },
            {
              "internalType": "uint256",
              "name": "value",
              "type": "uint256"
            },
            {
              "internalType": "bytes",
              "name": "callData",
              "type": "bytes"
            },
            {
              "internalType": "uint256",
              "name": "callGasLimit",
              "type": "uint256"
            }
          ],
          "internalType": "struct BasicUserOp[]",
          "name": "ops",
          "type": "tuple[]"
        }
      ],
      "name": "execBatch",
      "outputs": [],
      "stateMutability": "nonpayable",
      "type": "function"
    },
    {
      "inputs": [
        {
          "internalType": "address",
          "name": "owner",
          "type": "address"
        }
      ],
      "name": "init",
      "outputs": [],
      "stateMutability": "nonpayable",
      "type": "function"
    },
    {
      "inputs": [
        {
          "internalType": "bytes32",
          "name": "message",
          "type": "bytes32"
        },
        {
          "internalType": "bytes",
          "name": "signature",
          "type": "bytes"
        }
      ],
      "name": "isValidSignature",
      "outputs": [
        {
          "internalType": "bytes4",
          "name": "",
          "type": "bytes4"
        }
      ],
      "stateMutability": "view",
      "type": "function"
    },
    {
      "inputs": [],
      "name": "nonce",
      "outputs": [
        {
          "internalType": "uint256",
          "name": "",
          "type": "uint256"
        }
      ],
      "stateMutability": "view",
      "type": "function"
    },
    {
      "inputs": [],
      "name": "owner",
      "outputs": [
        {
          "internalType": "address",
          "name": "",
          "type": "address"
        }
      ],
      "stateMutability": "view",
      "type": "function"
    },
    {
      "inputs": [
        {
          "internalType": "address",
          "name": "account",
          "type": "address"
        }
      ],
      "name": "transferOwnership",
      "outputs": [],
      "stateMutability": "nonpayable",
      "type": "function"
    },
    {
      "inputs": [
        {
          "internalType": "bytes",
          "name": "txData",
          "type": "bytes"
        },
        {
          "components": [
            {
              "internalType": "address",
              "name": "token",
              "type": "address"
            },
            {
              "internalType": "uint256",
              "name": "price",
              "type": "uint256"
            },
            {
              "internalType": "uint256",
              "name": "core",
              "type": "uint256"
            },
            {
              "internalType": "uint256",
              "name": "base",
              "type": "uint256"
            },
            {
              "internalType": "address payable",
              "name": "refundReceiver",
              "type": "address"
            }
          ],
          "internalType": "struct AccountSimple.GasObject",
          "name": "gas",
          "type": "tuple"
        },
        {
          "internalType": "uint256",
          "name": "_nonce",
          "type": "uint256"
        },
        {
          "internalType": "bytes",
          "name": "signature",
          "type": "bytes"
        }
      ],
      "name": "validateAndCall",
      "outputs": [],
      "stateMutability": "nonpayable",
      "type": "function"
    },
    {
      "stateMutability": "payable",
      "type": "receive"
    }
  ],
  "transactionHash": "0x3c96bee71d697261cfd558d5389e8b735cf4e07d6c169a38202c1f40a7013d25",
  "args": [],
  "numDeployments": 1,
  "solcInputHash": "4330f978c8bef561affc504ecb159e90",
  "bytecode": "0x608060405234801561001057600080fd5b506125a6806100206000396000f3fe60806040526004361061007f5760003560e01c80638da5cb5b1161004e5780638da5cb5b146101a1578063a8c94346146101cc578063affed0e0146101f5578063f2fde38b1461022057610086565b80631626ba7e146100e957806319ab453c14610126578063729fcf101461014f5780638479cc0f1461017857610086565b3661008657005b34801561009257600080fd5b5060003660606000357fffffffff00000000000000000000000000000000000000000000000000000000166040516020016100cd91906112b2565b6040516020818303038152906040529050915050805190602001f35b3480156100f557600080fd5b50610110600480360381019061010b919061137c565b610249565b60405161011d91906112b2565b60405180910390f35b34801561013257600080fd5b5061014d6004803603810190610148919061143a565b610267565b005b34801561015b57600080fd5b50610176600480360381019061017191906114c1565b610359565b005b34801561018457600080fd5b5061019f600480360381019061019a91906115bf565b61052c565b005b3480156101ad57600080fd5b506101b661058d565b6040516101c3919061161b565b60405180910390f35b3480156101d857600080fd5b506101f360048036038101906101ee9190611655565b61059c565b005b34801561020157600080fd5b5061020a6105b0565b60405161021791906116ad565b60405180910390f35b34801561022c57600080fd5b506102476004803603810190610242919061143a565b6105b9565b005b6000610256848484610631565b631626ba7e60e01b90509392505050565b600073ffffffffffffffffffffffffffffffffffffffff166102876108f3565b73ffffffffffffffffffffffffffffffffffffffff16146102dd576040517f08c379a00000000000000000000000000000000000000000000000000000000081526004016102d490611725565b60405180910390fd5b600073ffffffffffffffffffffffffffffffffffffffff168173ffffffffffffffffffffffffffffffffffffffff16141561034d576040517f08c379a000000000000000000000000000000000000000000000000000000000815260040161034490611791565b60405180910390fd5b61035681610926565b50565b60005a90506000878787600054604051602001610379949392919061194f565b604051602081830303815290604052805190602001209050846000808154809291906103a4906119be565b91905055146103e8576040517f08c379a00000000000000000000000000000000000000000000000000000000081526004016103df90611a53565b60405180910390fd5b6103f3818585610631565b60008087604001351461040a57866040013561040c565b5a5b905060003073ffffffffffffffffffffffffffffffffffffffff16828b8b604051610438929190611aa3565b60006040518083038160008787f1925050503d8060008114610476576040519150601f19603f3d011682016040523d82523d6000602084013e61047b565b606091505b50509050806104bf576040517f08c379a00000000000000000000000000000000000000000000000000000000081526004016104b690611b08565b60405180910390fd5b60006104e589606001355a876104d59190611b28565b6104df9190611b5c565b8a610932565b9050837fae67a4e3ea510ffe267d62d57fec56200beee24da2201c340cc81eea49fbd2da8260405161051791906116ad565b60405180910390a25050505050505050505050565b610534610aab565b600082829050905060005b818110156105875761057484848381811061055d5761055c611bb2565b5b905060200281019061056f9190611bf0565b610b58565b808061057f906119be565b91505061053f565b50505050565b60006105976108f3565b905090565b6105a4610aab565b6105ad81610b58565b50565b60008054905090565b6105c16108f3565b73ffffffffffffffffffffffffffffffffffffffff163373ffffffffffffffffffffffffffffffffffffffff1614610625576040517f2f7a8ee100000000000000000000000000000000000000000000000000000000815260040160405180910390fd5b61062e81610926565b50565b600061063b61058d565b9050600061064885610c4e565b90506106698273ffffffffffffffffffffffffffffffffffffffff16610c7e565b15610827578173ffffffffffffffffffffffffffffffffffffffff16631626ba7e8286866040518463ffffffff1660e01b81526004016106ab93929190611c27565b60206040518083038186803b1580156106c357600080fd5b505afa9250505080156106f457506040513d601f19601f820116820180604052508101906106f19190611c85565b60015b61079a57610700611cbf565b806308c379a0141561075d5750610715611d41565b80610720575061075f565b806040517f08c379a00000000000000000000000000000000000000000000000000000000081526004016107549190611e4e565b60405180910390fd5b505b6040517f08c379a000000000000000000000000000000000000000000000000000000000815260040161079190611ebc565b60405180910390fd5b631626ba7e60e01b7bffffffffffffffffffffffffffffffffffffffffffffffffffffffff1916817bffffffffffffffffffffffffffffffffffffffffffffffffffffffff191614610821576040517f08c379a000000000000000000000000000000000000000000000000000000000815260040161081890611f28565b60405180910390fd5b506108ec565b61087e84848080601f016020809104026020016040519081016040528093929190818152602001838380828437600081840152601f19601f8201169050808301925050505050505082610ca190919063ffffffff16565b73ffffffffffffffffffffffffffffffffffffffff168273ffffffffffffffffffffffffffffffffffffffff16146108eb576040517f08c379a00000000000000000000000000000000000000000000000000000000081526004016108e290611f94565b60405180910390fd5b5b5050505050565b60006108fd610cc8565b60000160009054906101000a900473ffffffffffffffffffffffffffffffffffffffff16905090565b61092f81610cf5565b50565b600080600073ffffffffffffffffffffffffffffffffffffffff168360800160208101906109609190611fb4565b73ffffffffffffffffffffffffffffffffffffffff16146109935782608001602081019061098e9190611fb4565b610995565b325b9050600073ffffffffffffffffffffffffffffffffffffffff168360000160208101906109c2919061143a565b73ffffffffffffffffffffffffffffffffffffffff161415610a26576000808460200135146109f55783602001356109f7565b3a5b905080846060013586610a0a9190611b5c565b610a149190611fe1565b9250610a208284610dc6565b50610aa4565b8260200135836060013585610a3b9190611b5c565b610a459190611fe1565b9150610a64836000016020810190610a5d919061143a565b8284610eba565b610aa3576040517f08c379a0000000000000000000000000000000000000000000000000000000008152600401610a9a90612087565b60405180910390fd5b5b5092915050565b610ab361058d565b73ffffffffffffffffffffffffffffffffffffffff163373ffffffffffffffffffffffffffffffffffffffff161480610b1757503073ffffffffffffffffffffffffffffffffffffffff163373ffffffffffffffffffffffffffffffffffffffff16145b610b56576040517f08c379a0000000000000000000000000000000000000000000000000000000008152600401610b4d906120f3565b60405180910390fd5b565b600080826000016020810190610b6e919061143a565b73ffffffffffffffffffffffffffffffffffffffff1683602001356000856060013514610b9f578460600135610ba1565b5a5b90858060400190610bb29190612113565b604051610bc0929190611aa3565b600060405180830381858888f193505050503d8060008114610bfe576040519150601f19603f3d011682016040523d82523d6000602084013e610c03565b606091505b5091509150610c4882826040518060400160405280600881526020017f4845584c41303031000000000000000000000000000000000000000000000000815250610f62565b50505050565b600081604051602001610c6191906121ee565b604051602081830303815290604052805190602001209050919050565b6000808273ffffffffffffffffffffffffffffffffffffffff163b119050919050565b6000806000610cb08585610f84565b91509150610cbd81610fd6565b819250505092915050565b6000807f8a22373512790c48b83a1fe2efdd2888d4a917bcdc24d0adf63e60f67168046090508091505090565b6000610cff610cc8565b90508173ffffffffffffffffffffffffffffffffffffffff168160000160009054906101000a900473ffffffffffffffffffffffffffffffffffffffff1673ffffffffffffffffffffffffffffffffffffffff167f8be0079c531659141344cd1fd0a4f28419497f9722a3daafe3b4186f6b6457e060405160405180910390a3818160000160006101000a81548173ffffffffffffffffffffffffffffffffffffffff021916908373ffffffffffffffffffffffffffffffffffffffff1602179055505050565b80471015610e09576040517f08c379a0000000000000000000000000000000000000000000000000000000008152600401610e0090612260565b60405180910390fd5b60008273ffffffffffffffffffffffffffffffffffffffff1682604051610e2f906122a6565b60006040518083038185875af1925050503d8060008114610e6c576040519150601f19603f3d011682016040523d82523d6000602084013e610e71565b606091505b5050905080610eb5576040517f08c379a0000000000000000000000000000000000000000000000000000000008152600401610eac9061232d565b60405180910390fd5b505050565b60008063a9059cbb8484604051602401610ed592919061234d565b6040516020818303038152906040529060e01b6020820180517bffffffffffffffffffffffffffffffffffffffffffffffffffffffff83818316178352505050509050602060008251602084016000896127105a03f13d60008114610f455760208114610f4d5760009350610f58565b819350610f58565b600051158215171593505b5050509392505050565b60608315610f7257829050610f7d565b610f7c8383611144565b5b9392505050565b600080604183511415610fc65760008060006020860151925060408601519150606086015160001a9050610fba87828585611194565b94509450505050610fcf565b60006002915091505b9250929050565b60006004811115610fea57610fe9612376565b5b816004811115610ffd57610ffc612376565b5b141561100857611141565b6001600481111561101c5761101b612376565b5b81600481111561102f5761102e612376565b5b1415611070576040517f08c379a0000000000000000000000000000000000000000000000000000000008152600401611067906123f1565b60405180910390fd5b6002600481111561108457611083612376565b5b81600481111561109757611096612376565b5b14156110d8576040517f08c379a00000000000000000000000000000000000000000000000000000000081526004016110cf9061245d565b60405180910390fd5b600360048111156110ec576110eb612376565b5b8160048111156110ff576110fe612376565b5b1415611140576040517f08c379a0000000000000000000000000000000000000000000000000000000008152600401611137906124ef565b60405180910390fd5b5b50565b6000825111156111575781518083602001fd5b806040517f08c379a000000000000000000000000000000000000000000000000000000000815260040161118b9190611e4e565b60405180910390fd5b6000807f7fffffffffffffffffffffffffffffff5d576e7357a4501ddfe92f46681b20a08360001c11156111cf57600060039150915061126e565b6000600187878787604051600081526020016040526040516111f4949392919061252b565b6020604051602081039080840390855afa158015611216573d6000803e3d6000fd5b505050602060405103519050600073ffffffffffffffffffffffffffffffffffffffff168173ffffffffffffffffffffffffffffffffffffffff1614156112655760006001925092505061126e565b80600092509250505b94509492505050565b60007fffffffff0000000000000000000000000000000000000000000000000000000082169050919050565b6112ac81611277565b82525050565b60006020820190506112c760008301846112a3565b92915050565b6000604051905090565b600080fd5b600080fd5b6000819050919050565b6112f4816112e1565b81146112ff57600080fd5b50565b600081359050611311816112eb565b92915050565b600080fd5b600080fd5b600080fd5b60008083601f84011261133c5761133b611317565b5b8235905067ffffffffffffffff8111156113595761135861131c565b5b60208301915083600182028301111561137557611374611321565b5b9250929050565b600080600060408486031215611395576113946112d7565b5b60006113a386828701611302565b935050602084013567ffffffffffffffff8111156113c4576113c36112dc565b5b6113d086828701611326565b92509250509250925092565b600073ffffffffffffffffffffffffffffffffffffffff82169050919050565b6000611407826113dc565b9050919050565b611417816113fc565b811461142257600080fd5b50565b6000813590506114348161140e565b92915050565b6000602082840312156114505761144f6112d7565b5b600061145e84828501611425565b91505092915050565b600080fd5b600060a0828403121561148257611481611467565b5b81905092915050565b6000819050919050565b61149e8161148b565b81146114a957600080fd5b50565b6000813590506114bb81611495565b92915050565b60008060008060008061010087890312156114df576114de6112d7565b5b600087013567ffffffffffffffff8111156114fd576114fc6112dc565b5b61150989828a01611326565b9650965050602061151c89828a0161146c565b94505060c061152d89828a016114ac565b93505060e087013567ffffffffffffffff81111561154e5761154d6112dc565b5b61155a89828a01611326565b92509250509295509295509295565b60008083601f84011261157f5761157e611317565b5b8235905067ffffffffffffffff81111561159c5761159b61131c565b5b6020830191508360208202830111156115b8576115b7611321565b5b9250929050565b600080602083850312156115d6576115d56112d7565b5b600083013567ffffffffffffffff8111156115f4576115f36112dc565b5b61160085828601611569565b92509250509250929050565b611615816113fc565b82525050565b6000602082019050611630600083018461160c565b92915050565b60006080828403121561164c5761164b611467565b5b81905092915050565b60006020828403121561166b5761166a6112d7565b5b600082013567ffffffffffffffff811115611689576116886112dc565b5b61169584828501611636565b91505092915050565b6116a78161148b565b82525050565b60006020820190506116c2600083018461169e565b92915050565b600082825260208201905092915050565b7f4845584c30313500000000000000000000000000000000000000000000000000600082015250565b600061170f6007836116c8565b915061171a826116d9565b602082019050919050565b6000602082019050818103600083015261173e81611702565b9050919050565b7f4845584c30313900000000000000000000000000000000000000000000000000600082015250565b600061177b6007836116c8565b915061178682611745565b602082019050919050565b600060208201905081810360008301526117aa8161176e565b9050919050565b600082825260208201905092915050565b82818337600083830152505050565b6000601f19601f8301169050919050565b60006117ee83856117b1565b93506117fb8385846117c2565b611804836117d1565b840190509392505050565b600061181e6020840184611425565b905092915050565b61182f816113fc565b82525050565b600061184460208401846114ac565b905092915050565b6118558161148b565b82525050565b6000611866826113dc565b9050919050565b6118768161185b565b811461188157600080fd5b50565b6000813590506118938161186d565b92915050565b60006118a86020840184611884565b905092915050565b6118b98161185b565b82525050565b60a082016118d0600083018361180f565b6118dd6000850182611826565b506118eb6020830183611835565b6118f8602085018261184c565b506119066040830183611835565b611913604085018261184c565b506119216060830183611835565b61192e606085018261184c565b5061193c6080830183611899565b61194960808501826118b0565b50505050565b600060e082019050818103600083015261196a8186886117e2565b905061197960208301856118bf565b61198660c083018461169e565b95945050505050565b7f4e487b7100000000000000000000000000000000000000000000000000000000600052601160045260246000fd5b60006119c98261148b565b91507fffffffffffffffffffffffffffffffffffffffffffffffffffffffffffffffff8214156119fc576119fb61198f565b5b600182019050919050565b7f4845584c41303038000000000000000000000000000000000000000000000000600082015250565b6000611a3d6008836116c8565b9150611a4882611a07565b602082019050919050565b60006020820190508181036000830152611a6c81611a30565b9050919050565b600081905092915050565b6000611a8a8385611a73565b9350611a978385846117c2565b82840190509392505050565b6000611ab0828486611a7e565b91508190509392505050565b7f4845584c41303039000000000000000000000000000000000000000000000000600082015250565b6000611af26008836116c8565b9150611afd82611abc565b602082019050919050565b60006020820190508181036000830152611b2181611ae5565b9050919050565b6000611b338261148b565b9150611b3e8361148b565b925082821015611b5157611b5061198f565b5b828203905092915050565b6000611b678261148b565b9150611b728361148b565b9250827fffffffffffffffffffffffffffffffffffffffffffffffffffffffffffffffff03821115611ba757611ba661198f565b5b828201905092915050565b7f4e487b7100000000000000000000000000000000000000000000000000000000600052603260045260246000fd5b600080fd5b600080fd5b600080fd5b600082356001608003833603038112611c0c57611c0b611be1565b5b80830191505092915050565b611c21816112e1565b82525050565b6000604082019050611c3c6000830186611c18565b8181036020830152611c4f8184866117e2565b9050949350505050565b611c6281611277565b8114611c6d57600080fd5b50565b600081519050611c7f81611c59565b92915050565b600060208284031215611c9b57611c9a6112d7565b5b6000611ca984828501611c70565b91505092915050565b60008160e01c9050919050565b600060033d1115611cde5760046000803e611cdb600051611cb2565b90505b90565b7f4e487b7100000000000000000000000000000000000000000000000000000000600052604160045260246000fd5b611d19826117d1565b810181811067ffffffffffffffff82111715611d3857611d37611ce1565b5b80604052505050565b600060443d1015611d5157611dd4565b611d596112cd565b60043d036004823e80513d602482011167ffffffffffffffff82111715611d81575050611dd4565b808201805167ffffffffffffffff811115611d9f5750505050611dd4565b80602083010160043d038501811115611dbc575050505050611dd4565b611dcb82602001850186611d10565b82955050505050505b90565b600081519050919050565b60005b83811015611e00578082015181840152602081019050611de5565b83811115611e0f576000848401525b50505050565b6000611e2082611dd7565b611e2a81856116c8565b9350611e3a818560208601611de2565b611e43816117d1565b840191505092915050565b60006020820190508181036000830152611e688184611e15565b905092915050565b7f4845584c41303033000000000000000000000000000000000000000000000000600082015250565b6000611ea66008836116c8565b9150611eb182611e70565b602082019050919050565b60006020820190508181036000830152611ed581611e99565b9050919050565b7f4845584c41303032000000000000000000000000000000000000000000000000600082015250565b6000611f126008836116c8565b9150611f1d82611edc565b602082019050919050565b60006020820190508181036000830152611f4181611f05565b9050919050565b7f4845584c41303034000000000000000000000000000000000000000000000000600082015250565b6000611f7e6008836116c8565b9150611f8982611f48565b602082019050919050565b60006020820190508181036000830152611fad81611f71565b9050919050565b600060208284031215611fca57611fc96112d7565b5b6000611fd884828501611884565b91505092915050565b6000611fec8261148b565b9150611ff78361148b565b9250817fffffffffffffffffffffffffffffffffffffffffffffffffffffffffffffffff04831182151516156120305761202f61198f565b5b828202905092915050565b7f4845584c41303133000000000000000000000000000000000000000000000000600082015250565b60006120716008836116c8565b915061207c8261203b565b602082019050919050565b600060208201905081810360008301526120a081612064565b9050919050565b7f4845584c41303131000000000000000000000000000000000000000000000000600082015250565b60006120dd6008836116c8565b91506120e8826120a7565b602082019050919050565b6000602082019050818103600083015261210c816120d0565b9050919050565b600080833560016020038436030381126121305761212f611be1565b5b80840192508235915067ffffffffffffffff82111561215257612151611be6565b5b60208301925060018202360383131561216e5761216d611beb565b5b509250929050565b600081905092915050565b7f19457468657265756d205369676e6564204d6573736167653a0a333200000000600082015250565b60006121b7601c83612176565b91506121c282612181565b601c82019050919050565b6000819050919050565b6121e86121e3826112e1565b6121cd565b82525050565b60006121f9826121aa565b915061220582846121d7565b60208201915081905092915050565b7f416464726573733a20696e73756666696369656e742062616c616e6365000000600082015250565b600061224a601d836116c8565b915061225582612214565b602082019050919050565b600060208201905081810360008301526122798161223d565b9050919050565b50565b6000612290600083611a73565b915061229b82612280565b600082019050919050565b60006122b182612283565b9150819050919050565b7f416464726573733a20756e61626c6520746f2073656e642076616c75652c207260008201527f6563697069656e74206d61792068617665207265766572746564000000000000602082015250565b6000612317603a836116c8565b9150612322826122bb565b604082019050919050565b600060208201905081810360008301526123468161230a565b9050919050565b6000604082019050612362600083018561160c565b61236f602083018461169e565b9392505050565b7f4e487b7100000000000000000000000000000000000000000000000000000000600052602160045260246000fd5b7f45434453413a20696e76616c6964207369676e61747572650000000000000000600082015250565b60006123db6018836116c8565b91506123e6826123a5565b602082019050919050565b6000602082019050818103600083015261240a816123ce565b9050919050565b7f45434453413a20696e76616c6964207369676e6174757265206c656e67746800600082015250565b6000612447601f836116c8565b915061245282612411565b602082019050919050565b600060208201905081810360008301526124768161243a565b9050919050565b7f45434453413a20696e76616c6964207369676e6174757265202773272076616c60008201527f7565000000000000000000000000000000000000000000000000000000000000602082015250565b60006124d96022836116c8565b91506124e48261247d565b604082019050919050565b60006020820190508181036000830152612508816124cc565b9050919050565b600060ff82169050919050565b6125258161250f565b82525050565b60006080820190506125406000830187611c18565b61254d602083018661251c565b61255a6040830185611c18565b6125676060830184611c18565b9594505050505056fea26469706673582212206b30bbee5d959b518dcd1bb75a269ac671bf799601445f50bd7ac78cab18223d64736f6c63430008080033",
  "devdoc": {
    "kind": "dev",
    "methods": {
      "owner()": {
        "returns": {
          "_0": "conrtact owner"
        }
      },
      "transferOwnership(address)": {
        "params": {
          "account": "address of new owner"
        }
      }
    },
    "version": 1
  },
  "userdoc": {
    "kind": "user",
    "methods": {
      "owner()": {
        "notice": "get the ERC173 contract owner"
      },
      "transferOwnership(address)": {
        "notice": "transfer contract ownership to new account"
      }
    },
    "version": 1
  },
  "storageLayout": {
    "storage": [
      {
        "astId": 2716,
        "contract": "contracts/account/AccountSimple.sol:AccountSimple",
        "label": "nonce_",
        "offset": 0,
        "slot": "0",
        "type": "t_uint256"
      }
    ],
    "types": {
      "t_uint256": {
        "encoding": "inplace",
        "label": "uint256",
        "numberOfBytes": "32"
      }
    }
  }
}