{
  "address": "0x150dC1A070AD40292b991b372C1C585E918c78de",
  "abi": [
    {
      "inputs": [],
      "name": "Ownable__NotOwner",
      "type": "error"
    },
    {
      "inputs": [],
      "name": "Ownable__NotTransitiveOwner",
      "type": "error"
    },
    {
      "anonymous": false,
      "inputs": [
        {
          "indexed": true,
          "internalType": "bytes32",
          "name": "ref",
          "type": "bytes32"
        },
        {
          "indexed": true,
          "internalType": "address",
          "name": "receipt",
          "type": "address"
        },
        {
          "indexed": false,
          "internalType": "address",
          "name": "token",
          "type": "address"
        },
        {
          "indexed": false,
          "internalType": "uint256",
          "name": "amount",
          "type": "uint256"
        }
      ],
      "name": "Deposit",
      "type": "event"
    },
    {
      "anonymous": false,
      "inputs": [
        {
          "indexed": false,
          "internalType": "uint256",
          "name": "payment",
          "type": "uint256"
        }
      ],
      "name": "GasPaid",
      "type": "event"
    },
    {
      "anonymous": false,
      "inputs": [
        {
          "indexed": true,
          "internalType": "address",
          "name": "previousOwner",
          "type": "address"
        },
        {
          "indexed": true,
          "internalType": "address",
          "name": "newOwner",
          "type": "address"
        }
      ],
      "name": "OwnershipTransferred",
      "type": "event"
    },
    {
      "stateMutability": "nonpayable",
      "type": "fallback"
    },
    {
      "inputs": [
        {
          "internalType": "bytes32",
          "name": "ref",
          "type": "bytes32"
        },
        {
          "internalType": "address",
          "name": "receipt",
          "type": "address"
        },
        {
          "internalType": "address",
          "name": "token",
          "type": "address"
        },
        {
          "internalType": "uint256",
          "name": "amount",
          "type": "uint256"
        }
      ],
      "name": "deposit",
      "outputs": [],
      "stateMutability": "nonpayable",
      "type": "function"
    },
    {
      "inputs": [
        {
          "components": [
            {
              "internalType": "address",
              "name": "to",
              "type": "address"
            },
            {
              "internalType": "uint256",
              "name": "value",
              "type": "uint256"
            },
            {
              "internalType": "bytes",
              "name": "callData",
              "type": "bytes"
            },
            {
              "internalType": "uint256",
              "name": "callGasLimit",
              "type": "uint256"
            }
          ],
          "internalType": "struct Op",
          "name": "op",
          "type": "tuple"
        }
      ],
      "name": "exec",
      "outputs": [],
      "stateMutability": "payable",
      "type": "function"
    },
    {
      "inputs": [
        {
          "components": [
            {
              "internalType": "address",
              "name": "to",
              "type": "address"
            },
            {
              "internalType": "uint256",
              "name": "value",
              "type": "uint256"
            },
            {
              "internalType": "bytes",
              "name": "callData",
              "type": "bytes"
            },
            {
              "internalType": "uint256",
              "name": "callGasLimit",
              "type": "uint256"
            }
          ],
          "internalType": "struct Op[]",
          "name": "ops",
          "type": "tuple[]"
        }
      ],
      "name": "execBatch",
      "outputs": [],
      "stateMutability": "payable",
      "type": "function"
    },
    {
      "inputs": [
        {
          "internalType": "address",
          "name": "owner",
          "type": "address"
        },
        {
          "internalType": "bytes",
          "name": "data",
          "type": "bytes"
        }
      ],
      "name": "init",
      "outputs": [],
      "stateMutability": "nonpayable",
      "type": "function"
    },
    {
      "inputs": [
        {
          "internalType": "bytes32",
          "name": "message",
          "type": "bytes32"
        },
        {
          "internalType": "bytes",
          "name": "signature",
          "type": "bytes"
        }
      ],
      "name": "isValidSignature",
      "outputs": [
        {
          "internalType": "bytes4",
          "name": "",
          "type": "bytes4"
        }
      ],
      "stateMutability": "view",
      "type": "function"
    },
    {
      "inputs": [],
      "name": "nonce",
      "outputs": [
        {
          "internalType": "uint256",
          "name": "",
          "type": "uint256"
        }
      ],
      "stateMutability": "view",
      "type": "function"
    },
    {
      "inputs": [],
      "name": "owner",
      "outputs": [
        {
          "internalType": "address",
          "name": "",
          "type": "address"
        }
      ],
      "stateMutability": "view",
      "type": "function"
    },
    {
      "inputs": [
        {
          "internalType": "address",
          "name": "account",
          "type": "address"
        }
      ],
      "name": "transferOwnership",
      "outputs": [],
      "stateMutability": "nonpayable",
      "type": "function"
    },
    {
      "inputs": [
        {
          "internalType": "bytes",
          "name": "txData",
          "type": "bytes"
        },
        {
          "internalType": "uint256",
          "name": "_nonce",
          "type": "uint256"
        },
        {
          "internalType": "bytes",
          "name": "signature",
          "type": "bytes"
        }
      ],
      "name": "validateAndCall",
      "outputs": [],
      "stateMutability": "payable",
      "type": "function"
    },
    {
      "inputs": [
        {
          "internalType": "bytes",
          "name": "txData",
          "type": "bytes"
        },
        {
          "internalType": "uint256",
          "name": "_nonce",
          "type": "uint256"
        },
        {
          "components": [
            {
              "internalType": "address",
              "name": "swapper",
              "type": "address"
            },
            {
              "internalType": "address",
              "name": "token",
              "type": "address"
            },
            {
              "internalType": "address",
              "name": "receiver",
              "type": "address"
            },
            {
              "internalType": "uint256",
              "name": "baseGas",
              "type": "uint256"
            }
          ],
          "internalType": "struct GasPayer.GasPayment",
          "name": "gas",
          "type": "tuple"
        },
        {
          "internalType": "bytes",
          "name": "signature",
          "type": "bytes"
        }
      ],
      "name": "validateAndCallWithGasRefund",
      "outputs": [],
      "stateMutability": "payable",
      "type": "function"
    },
    {
      "stateMutability": "payable",
      "type": "receive"
    }
  ],
  "transactionHash": "0x06d921a708b04ad3987ec24240bbfaff65b03b800a32e02567290892be4e02df",
  "args": [],
  "numDeployments": 14,
  "solcInputHash": "74330437c7831874851478e333eda15b",
  "bytecode": "0x608060405234801561001057600080fd5b50612ce3806100206000396000f3fe6080604052600436106100955760003560e01c8063affed0e011610059578063affed0e0146101bb578063c0d91eaf146101e6578063cff834fe1461020f578063e5eb95841461022b578063f2fde38b146102545761009c565b80631626ba7e146100ff5780638479cc0f1461013c5780638c88d380146101585780638da5cb5b14610174578063a8c943461461019f5761009c565b3661009c57005b3480156100a857600080fd5b5060003660606000357fffffffff00000000000000000000000000000000000000000000000000000000166040516020016100e391906116d0565b6040516020818303038152906040529050915050805190602001f35b34801561010b57600080fd5b506101266004803603810190610121919061179a565b61027d565b60405161013391906116d0565b60405180910390f35b61015660048036038101906101519190611850565b61029b565b005b610172600480360381019061016d91906118d3565b6102fc565b005b34801561018057600080fd5b50610189610343565b60405161019691906119a9565b60405180910390f35b6101b960048036038101906101b491906119e8565b610352565b005b3480156101c757600080fd5b506101d0610366565b6040516101dd9190611a40565b60405180910390f35b3480156101f257600080fd5b5061020d60048036038101906102089190611bc8565b61036f565b005b61022960048036038101906102249190611c43565b61048c565b005b34801561023757600080fd5b50610252600480360381019061024d9190611cea565b6104f2565b005b34801561026057600080fd5b5061027b60048036038101906102769190611d51565b610624565b005b600061028a84848461069c565b631626ba7e60e01b90509392505050565b6102a361095e565b600082829050905060005b818110156102f6576102e38484838181106102cc576102cb611d7e565b5b90506020028101906102de9190611dbc565b610a0b565b80806102ee90611e13565b9150506102ae565b50505050565b6000858560005460405160200161031593929190611e9a565b60405160208183030381529060405280519060200120905061033b818787878787610b01565b505050505050565b600061034d610c1f565b905090565b61035a61095e565b61036381610a0b565b50565b60008054905090565b600073ffffffffffffffffffffffffffffffffffffffff1661038f610c1f565b73ffffffffffffffffffffffffffffffffffffffff161480156103df5750600073ffffffffffffffffffffffffffffffffffffffff168273ffffffffffffffffffffffffffffffffffffffff1614155b61041e576040517f08c379a000000000000000000000000000000000000000000000000000000000815260040161041590611f29565b60405180910390fd5b61042782610c52565b610487816040518060400160405280600781526020017f4845584c303133000000000000000000000000000000000000000000000000008152503073ffffffffffffffffffffffffffffffffffffffff16610c5e9092919063ffffffff16565b505050565b60005a905060008787600054876040516020016104ac949392919061200a565b6040516020818303038152906040528051906020012090506104d2818989898888610b01565b6104e7855a846104e2919061204a565b610c76565b505050505050505050565b6104fa61095e565b600073ffffffffffffffffffffffffffffffffffffffff168273ffffffffffffffffffffffffffffffffffffffff16141561053e576105398382610fd1565b6105cd565b8173ffffffffffffffffffffffffffffffffffffffff1663a9059cbb84836040518363ffffffff1660e01b815260040161057992919061207e565b602060405180830381600087803b15801561059357600080fd5b505af11580156105a7573d6000803e3d6000fd5b505050506040513d601f19601f820116820180604052508101906105cb91906120df565b505b8273ffffffffffffffffffffffffffffffffffffffff16847fc95ddcaddf83340b68d0d44c01b1703f5d28d0611a3fd87e69d79ba7e2ac21d3848460405161061692919061207e565b60405180910390a350505050565b61062c610c1f565b73ffffffffffffffffffffffffffffffffffffffff163373ffffffffffffffffffffffffffffffffffffffff1614610690576040517f2f7a8ee100000000000000000000000000000000000000000000000000000000815260040160405180910390fd5b61069981610c52565b50565b60006106a6610343565b905060006106b3856110c5565b90506106d48273ffffffffffffffffffffffffffffffffffffffff166110f5565b15610892578173ffffffffffffffffffffffffffffffffffffffff16631626ba7e8286866040518463ffffffff1660e01b81526004016107169392919061211b565b60206040518083038186803b15801561072e57600080fd5b505afa92505050801561075f57506040513d601f19601f8201168201806040525081019061075c9190612179565b60015b6108055761076b6121b3565b806308c379a014156107c857506107806121d5565b8061078b57506107ca565b806040517f08c379a00000000000000000000000000000000000000000000000000000000081526004016107bf91906122e2565b60405180910390fd5b505b6040517f08c379a00000000000000000000000000000000000000000000000000000000081526004016107fc90612350565b60405180910390fd5b631626ba7e60e01b7bffffffffffffffffffffffffffffffffffffffffffffffffffffffff1916817bffffffffffffffffffffffffffffffffffffffffffffffffffffffff19161461088c576040517f08c379a0000000000000000000000000000000000000000000000000000000008152600401610883906123bc565b60405180910390fd5b50610957565b6108e984848080601f016020809104026020016040519081016040528093929190818152602001838380828437600081840152601f19601f820116905080830192505050505050508261111890919063ffffffff16565b73ffffffffffffffffffffffffffffffffffffffff168273ffffffffffffffffffffffffffffffffffffffff1614610956576040517f08c379a000000000000000000000000000000000000000000000000000000000815260040161094d90612428565b60405180910390fd5b5b5050505050565b610966610343565b73ffffffffffffffffffffffffffffffffffffffff163373ffffffffffffffffffffffffffffffffffffffff1614806109ca57503073ffffffffffffffffffffffffffffffffffffffff163373ffffffffffffffffffffffffffffffffffffffff16145b610a09576040517f08c379a0000000000000000000000000000000000000000000000000000000008152600401610a0090612494565b60405180910390fd5b565b600080826000016020810190610a219190611d51565b73ffffffffffffffffffffffffffffffffffffffff1683602001356000856060013514610a52578460600135610a54565b5a5b90858060400190610a6591906124b4565b604051610a73929190612547565b600060405180830381858888f193505050503d8060008114610ab1576040519150601f19603f3d011682016040523d82523d6000602084013e610ab6565b606091505b5091509150610afb82826040518060400160405280600881526020017f4845584c4130303100000000000000000000000000000000000000000000000081525061113f565b50505050565b82600080815480929190610b1490611e13565b9190505514610b58576040517f08c379a0000000000000000000000000000000000000000000000000000000008152600401610b4f906125ac565b60405180910390fd5b610b6386838361069c565b6000803073ffffffffffffffffffffffffffffffffffffffff168787604051610b8d929190612547565b6000604051808303816000865af19150503d8060008114610bca576040519150601f19603f3d011682016040523d82523d6000602084013e610bcf565b606091505b5091509150610c1482826040518060400160405280600881526020017f4845584c4130303900000000000000000000000000000000000000000000000081525061113f565b505050505050505050565b6000610c29611161565b60000160009054906101000a900473ffffffffffffffffffffffffffffffffffffffff16905090565b610c5b8161118e565b50565b6060610c6d848460008561125f565b90509392505050565b60008073ffffffffffffffffffffffffffffffffffffffff16836020016020810190610ca29190611d51565b73ffffffffffffffffffffffffffffffffffffffff1614610f4a5762013880836060013583610cd191906125cc565b610cdb91906125cc565b91503a82610ce99190612622565b90506000836000016020810190610d009190611d51565b73ffffffffffffffffffffffffffffffffffffffff1663b95ed06f856020016020810190610d2e9190611d51565b6040518263ffffffff1660e01b8152600401610d4a91906119a9565b60206040518083038186803b158015610d6257600080fd5b505afa158015610d76573d6000803e3d6000fd5b505050506040513d601f19601f82011682018060405250810190610d9a9190612691565b905060006001670de0b6b3a76400008385610db59190612622565b610dbf91906126ed565b610dc991906125cc565b9050846020016020810190610dde9190611d51565b73ffffffffffffffffffffffffffffffffffffffff1663095ea7b3866000016020810190610e0c9190611d51565b836040518363ffffffff1660e01b8152600401610e2a92919061207e565b602060405180830381600087803b158015610e4457600080fd5b505af1158015610e58573d6000803e3d6000fd5b505050506040513d601f19601f82011682018060405250810190610e7c91906120df565b50846000016020810190610e909190611d51565b73ffffffffffffffffffffffffffffffffffffffff16632b23c4d0866020016020810190610ebe9190611d51565b85886040016020810190610ed29190611d51565b6040518463ffffffff1660e01b8152600401610ef093929190612744565b602060405180830381600087803b158015610f0a57600080fd5b505af1158015610f1e573d6000803e3d6000fd5b505050506040513d601f19601f82011682018060405250810190610f429190612691565b505050610f94565b61c350836060013583610f5d91906125cc565b610f6791906125cc565b91503a82610f759190612622565b9050610f93836040016020810190610f8d9190611d51565b82610fd1565b5b7fafa36a02a5681da91c622c07a6beef894428bbeaa07e97a875d711afca4aced181604051610fc39190611a40565b60405180910390a192915050565b80471015611014576040517f08c379a000000000000000000000000000000000000000000000000000000000815260040161100b906127da565b60405180910390fd5b60008273ffffffffffffffffffffffffffffffffffffffff168260405161103a9061281d565b60006040518083038185875af1925050503d8060008114611077576040519150601f19603f3d011682016040523d82523d6000602084013e61107c565b606091505b50509050806110c0576040517f08c379a00000000000000000000000000000000000000000000000000000000081526004016110b7906128a4565b60405180910390fd5b505050565b6000816040516020016110d8919061293c565b604051602081830303815290604052805190602001209050919050565b6000808273ffffffffffffffffffffffffffffffffffffffff163b119050919050565b6000806000611127858561132c565b915091506111348161137e565b819250505092915050565b6060831561114f5782905061115a565b61115983836114ec565b5b9392505050565b6000807f8a22373512790c48b83a1fe2efdd2888d4a917bcdc24d0adf63e60f67168046090508091505090565b6000611198611161565b90508173ffffffffffffffffffffffffffffffffffffffff168160000160009054906101000a900473ffffffffffffffffffffffffffffffffffffffff1673ffffffffffffffffffffffffffffffffffffffff167f8be0079c531659141344cd1fd0a4f28419497f9722a3daafe3b4186f6b6457e060405160405180910390a3818160000160006101000a81548173ffffffffffffffffffffffffffffffffffffffff021916908373ffffffffffffffffffffffffffffffffffffffff1602179055505050565b6060824710156112a4576040517f08c379a000000000000000000000000000000000000000000000000000000000815260040161129b906129d4565b60405180910390fd5b6000808673ffffffffffffffffffffffffffffffffffffffff1685876040516112cd9190612a30565b60006040518083038185875af1925050503d806000811461130a576040519150601f19603f3d011682016040523d82523d6000602084013e61130f565b606091505b50915091506113208783838761153c565b92505050949350505050565b60008060418351141561136e5760008060006020860151925060408601519150606086015160001a9050611362878285856115b2565b94509450505050611377565b60006002915091505b9250929050565b6000600481111561139257611391612a47565b5b8160048111156113a5576113a4612a47565b5b14156113b0576114e9565b600160048111156113c4576113c3612a47565b5b8160048111156113d7576113d6612a47565b5b1415611418576040517f08c379a000000000000000000000000000000000000000000000000000000000815260040161140f90612ac2565b60405180910390fd5b6002600481111561142c5761142b612a47565b5b81600481111561143f5761143e612a47565b5b1415611480576040517f08c379a000000000000000000000000000000000000000000000000000000000815260040161147790612b2e565b60405180910390fd5b6003600481111561149457611493612a47565b5b8160048111156114a7576114a6612a47565b5b14156114e8576040517f08c379a00000000000000000000000000000000000000000000000000000000081526004016114df90612bc0565b60405180910390fd5b5b50565b6000825111156114ff5781518083602001fd5b806040517f08c379a000000000000000000000000000000000000000000000000000000000815260040161153391906122e2565b60405180910390fd5b6060831561159f5760008351141561159757611557856110f5565b611596576040517f08c379a000000000000000000000000000000000000000000000000000000000815260040161158d90612c2c565b60405180910390fd5b5b8290506115aa565b6115a983836114ec565b5b949350505050565b6000807f7fffffffffffffffffffffffffffffff5d576e7357a4501ddfe92f46681b20a08360001c11156115ed57600060039150915061168c565b6000600187878787604051600081526020016040526040516116129493929190612c68565b6020604051602081039080840390855afa158015611634573d6000803e3d6000fd5b505050602060405103519050600073ffffffffffffffffffffffffffffffffffffffff168173ffffffffffffffffffffffffffffffffffffffff1614156116835760006001925092505061168c565b80600092509250505b94509492505050565b60007fffffffff0000000000000000000000000000000000000000000000000000000082169050919050565b6116ca81611695565b82525050565b60006020820190506116e560008301846116c1565b92915050565b6000604051905090565b600080fd5b600080fd5b6000819050919050565b611712816116ff565b811461171d57600080fd5b50565b60008135905061172f81611709565b92915050565b600080fd5b600080fd5b600080fd5b60008083601f84011261175a57611759611735565b5b8235905067ffffffffffffffff8111156117775761177661173a565b5b6020830191508360018202830111156117935761179261173f565b5b9250929050565b6000806000604084860312156117b3576117b26116f5565b5b60006117c186828701611720565b935050602084013567ffffffffffffffff8111156117e2576117e16116fa565b5b6117ee86828701611744565b92509250509250925092565b60008083601f8401126118105761180f611735565b5b8235905067ffffffffffffffff81111561182d5761182c61173a565b5b6020830191508360208202830111156118495761184861173f565b5b9250929050565b60008060208385031215611867576118666116f5565b5b600083013567ffffffffffffffff811115611885576118846116fa565b5b611891858286016117fa565b92509250509250929050565b6000819050919050565b6118b08161189d565b81146118bb57600080fd5b50565b6000813590506118cd816118a7565b92915050565b6000806000806000606086880312156118ef576118ee6116f5565b5b600086013567ffffffffffffffff81111561190d5761190c6116fa565b5b61191988828901611744565b9550955050602061192c888289016118be565b935050604086013567ffffffffffffffff81111561194d5761194c6116fa565b5b61195988828901611744565b92509250509295509295909350565b600073ffffffffffffffffffffffffffffffffffffffff82169050919050565b600061199382611968565b9050919050565b6119a381611988565b82525050565b60006020820190506119be600083018461199a565b92915050565b600080fd5b6000608082840312156119df576119de6119c4565b5b81905092915050565b6000602082840312156119fe576119fd6116f5565b5b600082013567ffffffffffffffff811115611a1c57611a1b6116fa565b5b611a28848285016119c9565b91505092915050565b611a3a8161189d565b82525050565b6000602082019050611a556000830184611a31565b92915050565b611a6481611988565b8114611a6f57600080fd5b50565b600081359050611a8181611a5b565b92915050565b600080fd5b6000601f19601f8301169050919050565b7f4e487b7100000000000000000000000000000000000000000000000000000000600052604160045260246000fd5b611ad582611a8c565b810181811067ffffffffffffffff82111715611af457611af3611a9d565b5b80604052505050565b6000611b076116eb565b9050611b138282611acc565b919050565b600067ffffffffffffffff821115611b3357611b32611a9d565b5b611b3c82611a8c565b9050602081019050919050565b82818337600083830152505050565b6000611b6b611b6684611b18565b611afd565b905082815260208101848484011115611b8757611b86611a87565b5b611b92848285611b49565b509392505050565b600082601f830112611baf57611bae611735565b5b8135611bbf848260208601611b58565b91505092915050565b60008060408385031215611bdf57611bde6116f5565b5b6000611bed85828601611a72565b925050602083013567ffffffffffffffff811115611c0e57611c0d6116fa565b5b611c1a85828601611b9a565b9150509250929050565b600060808284031215611c3a57611c396119c4565b5b81905092915050565b60008060008060008060e08789031215611c6057611c5f6116f5565b5b600087013567ffffffffffffffff811115611c7e57611c7d6116fa565b5b611c8a89828a01611744565b96509650506020611c9d89828a016118be565b9450506040611cae89828a01611c24565b93505060c087013567ffffffffffffffff811115611ccf57611cce6116fa565b5b611cdb89828a01611744565b92509250509295509295509295565b60008060008060808587031215611d0457611d036116f5565b5b6000611d1287828801611720565b9450506020611d2387828801611a72565b9350506040611d3487828801611a72565b9250506060611d45878288016118be565b91505092959194509250565b600060208284031215611d6757611d666116f5565b5b6000611d7584828501611a72565b91505092915050565b7f4e487b7100000000000000000000000000000000000000000000000000000000600052603260045260246000fd5b600080fd5b600080fd5b600080fd5b600082356001608003833603038112611dd857611dd7611dad565b5b80830191505092915050565b7f4e487b7100000000000000000000000000000000000000000000000000000000600052601160045260246000fd5b6000611e1e8261189d565b91507fffffffffffffffffffffffffffffffffffffffffffffffffffffffffffffffff821415611e5157611e50611de4565b5b600182019050919050565b600082825260208201905092915050565b6000611e798385611e5c565b9350611e86838584611b49565b611e8f83611a8c565b840190509392505050565b60006040820190508181036000830152611eb5818587611e6d565b9050611ec46020830184611a31565b949350505050565b600082825260208201905092915050565b7f4845584c30313500000000000000000000000000000000000000000000000000600082015250565b6000611f13600783611ecc565b9150611f1e82611edd565b602082019050919050565b60006020820190508181036000830152611f4281611f06565b9050919050565b6000611f586020840184611a72565b905092915050565b611f6981611988565b82525050565b6000611f7e60208401846118be565b905092915050565b611f8f8161189d565b82525050565b60808201611fa66000830183611f49565b611fb36000850182611f60565b50611fc16020830183611f49565b611fce6020850182611f60565b50611fdc6040830183611f49565b611fe96040850182611f60565b50611ff76060830183611f6f565b6120046060850182611f86565b50505050565b600060c0820190508181036000830152612025818688611e6d565b90506120346020830185611a31565b6120416040830184611f95565b95945050505050565b60006120558261189d565b91506120608361189d565b92508282101561207357612072611de4565b5b828203905092915050565b6000604082019050612093600083018561199a565b6120a06020830184611a31565b9392505050565b60008115159050919050565b6120bc816120a7565b81146120c757600080fd5b50565b6000815190506120d9816120b3565b92915050565b6000602082840312156120f5576120f46116f5565b5b6000612103848285016120ca565b91505092915050565b612115816116ff565b82525050565b6000604082019050612130600083018661210c565b8181036020830152612143818486611e6d565b9050949350505050565b61215681611695565b811461216157600080fd5b50565b6000815190506121738161214d565b92915050565b60006020828403121561218f5761218e6116f5565b5b600061219d84828501612164565b91505092915050565b60008160e01c9050919050565b600060033d11156121d25760046000803e6121cf6000516121a6565b90505b90565b600060443d10156121e557612268565b6121ed6116eb565b60043d036004823e80513d602482011167ffffffffffffffff82111715612215575050612268565b808201805167ffffffffffffffff8111156122335750505050612268565b80602083010160043d038501811115612250575050505050612268565b61225f82602001850186611acc565b82955050505050505b90565b600081519050919050565b60005b83811015612294578082015181840152602081019050612279565b838111156122a3576000848401525b50505050565b60006122b48261226b565b6122be8185611ecc565b93506122ce818560208601612276565b6122d781611a8c565b840191505092915050565b600060208201905081810360008301526122fc81846122a9565b905092915050565b7f4845584c41303033000000000000000000000000000000000000000000000000600082015250565b600061233a600883611ecc565b915061234582612304565b602082019050919050565b600060208201905081810360008301526123698161232d565b9050919050565b7f4845584c41303032000000000000000000000000000000000000000000000000600082015250565b60006123a6600883611ecc565b91506123b182612370565b602082019050919050565b600060208201905081810360008301526123d581612399565b9050919050565b7f4845584c41303034000000000000000000000000000000000000000000000000600082015250565b6000612412600883611ecc565b915061241d826123dc565b602082019050919050565b6000602082019050818103600083015261244181612405565b9050919050565b7f4845584c41303131000000000000000000000000000000000000000000000000600082015250565b600061247e600883611ecc565b915061248982612448565b602082019050919050565b600060208201905081810360008301526124ad81612471565b9050919050565b600080833560016020038436030381126124d1576124d0611dad565b5b80840192508235915067ffffffffffffffff8211156124f3576124f2611db2565b5b60208301925060018202360383131561250f5761250e611db7565b5b509250929050565b600081905092915050565b600061252e8385612517565b935061253b838584611b49565b82840190509392505050565b6000612554828486612522565b91508190509392505050565b7f4845584c41303038000000000000000000000000000000000000000000000000600082015250565b6000612596600883611ecc565b91506125a182612560565b602082019050919050565b600060208201905081810360008301526125c581612589565b9050919050565b60006125d78261189d565b91506125e28361189d565b9250827fffffffffffffffffffffffffffffffffffffffffffffffffffffffffffffffff0382111561261757612616611de4565b5b828201905092915050565b600061262d8261189d565b91506126388361189d565b9250817fffffffffffffffffffffffffffffffffffffffffffffffffffffffffffffffff048311821515161561267157612670611de4565b5b828202905092915050565b60008151905061268b816118a7565b92915050565b6000602082840312156126a7576126a66116f5565b5b60006126b58482850161267c565b91505092915050565b7f4e487b7100000000000000000000000000000000000000000000000000000000600052601260045260246000fd5b60006126f88261189d565b91506127038361189d565b925082612713576127126126be565b5b828204905092915050565b50565b600061272e600083611e5c565b91506127398261271e565b600082019050919050565b6000608082019050612759600083018661199a565b6127666020830185611a31565b612773604083018461199a565b818103606083015261278481612721565b9050949350505050565b7f416464726573733a20696e73756666696369656e742062616c616e6365000000600082015250565b60006127c4601d83611ecc565b91506127cf8261278e565b602082019050919050565b600060208201905081810360008301526127f3816127b7565b9050919050565b6000612807600083612517565b91506128128261271e565b600082019050919050565b6000612828826127fa565b9150819050919050565b7f416464726573733a20756e61626c6520746f2073656e642076616c75652c207260008201527f6563697069656e74206d61792068617665207265766572746564000000000000602082015250565b600061288e603a83611ecc565b915061289982612832565b604082019050919050565b600060208201905081810360008301526128bd81612881565b9050919050565b600081905092915050565b7f19457468657265756d205369676e6564204d6573736167653a0a333200000000600082015250565b6000612905601c836128c4565b9150612910826128cf565b601c82019050919050565b6000819050919050565b612936612931826116ff565b61291b565b82525050565b6000612947826128f8565b91506129538284612925565b60208201915081905092915050565b7f416464726573733a20696e73756666696369656e742062616c616e636520666f60008201527f722063616c6c0000000000000000000000000000000000000000000000000000602082015250565b60006129be602683611ecc565b91506129c982612962565b604082019050919050565b600060208201905081810360008301526129ed816129b1565b9050919050565b600081519050919050565b6000612a0a826129f4565b612a148185612517565b9350612a24818560208601612276565b80840191505092915050565b6000612a3c82846129ff565b915081905092915050565b7f4e487b7100000000000000000000000000000000000000000000000000000000600052602160045260246000fd5b7f45434453413a20696e76616c6964207369676e61747572650000000000000000600082015250565b6000612aac601883611ecc565b9150612ab782612a76565b602082019050919050565b60006020820190508181036000830152612adb81612a9f565b9050919050565b7f45434453413a20696e76616c6964207369676e6174757265206c656e67746800600082015250565b6000612b18601f83611ecc565b9150612b2382612ae2565b602082019050919050565b60006020820190508181036000830152612b4781612b0b565b9050919050565b7f45434453413a20696e76616c6964207369676e6174757265202773272076616c60008201527f7565000000000000000000000000000000000000000000000000000000000000602082015250565b6000612baa602283611ecc565b9150612bb582612b4e565b604082019050919050565b60006020820190508181036000830152612bd981612b9d565b9050919050565b7f416464726573733a2063616c6c20746f206e6f6e2d636f6e7472616374000000600082015250565b6000612c16601d83611ecc565b9150612c2182612be0565b602082019050919050565b60006020820190508181036000830152612c4581612c09565b9050919050565b600060ff82169050919050565b612c6281612c4c565b82525050565b6000608082019050612c7d600083018761210c565b612c8a6020830186612c59565b612c97604083018561210c565b612ca4606083018461210c565b9594505050505056fea2646970667358221220d9b70c30aad5ec765068898291d33beab0cc961b21ad636ff082f363c746b84664736f6c63430008080033",
  "devdoc": {
    "kind": "dev",
    "methods": {
      "owner()": {
        "returns": {
          "_0": "conrtact owner"
        }
      },
      "transferOwnership(address)": {
        "params": {
          "account": "address of new owner"
        }
      }
    },
    "version": 1
  },
  "userdoc": {
    "kind": "user",
    "methods": {
      "owner()": {
        "notice": "get the ERC173 contract owner"
      },
      "transferOwnership(address)": {
        "notice": "transfer contract ownership to new account"
      }
    },
    "version": 1
  },
  "storageLayout": {
    "storage": [
      {
        "astId": 2844,
        "contract": "contracts/account/AccountSimple.sol:AccountSimple",
        "label": "nonce_",
        "offset": 0,
        "slot": "0",
        "type": "t_uint256"
      }
    ],
    "types": {
      "t_uint256": {
        "encoding": "inplace",
        "label": "uint256",
        "numberOfBytes": "32"
      }
    }
  }
}