{
  "address": "0xa44D43A323bE8250a6759200695a54019fc230D9",
  "abi": [
    {
      "inputs": [
        {
          "internalType": "address",
          "name": "_swapRouter",
          "type": "address"
        },
        {
          "internalType": "address",
          "name": "_wrapped",
          "type": "address"
        }
      ],
      "stateMutability": "nonpayable",
      "type": "constructor"
    },
    {
      "anonymous": false,
      "inputs": [
        {
          "indexed": true,
          "internalType": "address",
          "name": "from",
          "type": "address"
        },
        {
          "indexed": true,
          "internalType": "address",
          "name": "operator",
          "type": "address"
        },
        {
          "indexed": false,
          "internalType": "bool",
          "name": "approval",
          "type": "bool"
        }
      ],
      "name": "Approval",
      "type": "event"
    },
    {
      "anonymous": false,
      "inputs": [
        {
          "indexed": true,
          "internalType": "address",
          "name": "from",
          "type": "address"
        },
        {
          "indexed": false,
          "internalType": "uint256",
          "name": "amount",
          "type": "uint256"
        }
      ],
      "name": "Deposit",
      "type": "event"
    },
    {
      "anonymous": false,
      "inputs": [
        {
          "indexed": true,
          "internalType": "address",
          "name": "from",
          "type": "address"
        },
        {
          "indexed": true,
          "internalType": "address",
          "name": "to",
          "type": "address"
        },
        {
          "indexed": false,
          "internalType": "uint256",
          "name": "amount",
          "type": "uint256"
        }
      ],
      "name": "Payment",
      "type": "event"
    },
    {
      "anonymous": false,
      "inputs": [
        {
          "indexed": true,
          "internalType": "address",
          "name": "to",
          "type": "address"
        },
        {
          "indexed": false,
          "internalType": "uint256",
          "name": "amount",
          "type": "uint256"
        }
      ],
      "name": "Withdraw",
      "type": "event"
    },
    {
      "inputs": [
        {
          "internalType": "address",
          "name": "operator",
          "type": "address"
        },
        {
          "internalType": "bool",
          "name": "approval",
          "type": "bool"
        }
      ],
      "name": "approve",
      "outputs": [],
      "stateMutability": "nonpayable",
      "type": "function"
    },
    {
      "inputs": [
        {
          "internalType": "address",
          "name": "owner",
          "type": "address"
        },
        {
          "internalType": "address",
          "name": "operator",
          "type": "address"
        }
      ],
      "name": "approved",
      "outputs": [
        {
          "internalType": "bool",
          "name": "",
          "type": "bool"
        }
      ],
      "stateMutability": "view",
      "type": "function"
    },
    {
      "inputs": [],
      "name": "depositNativeCoin",
      "outputs": [],
      "stateMutability": "payable",
      "type": "function"
    },
    {
      "inputs": [
        {
          "internalType": "address",
          "name": "user",
          "type": "address"
        }
      ],
      "name": "depositOf",
      "outputs": [
        {
          "internalType": "uint256",
          "name": "",
          "type": "uint256"
        }
      ],
      "stateMutability": "view",
      "type": "function"
    },
    {
      "inputs": [
        {
          "internalType": "address",
          "name": "token",
          "type": "address"
        },
        {
          "internalType": "uint256",
          "name": "amount",
          "type": "uint256"
        }
      ],
      "name": "depositToken",
      "outputs": [],
      "stateMutability": "payable",
      "type": "function"
    },
    {
      "inputs": [
        {
          "internalType": "address",
          "name": "from",
          "type": "address"
        },
        {
          "internalType": "address",
          "name": "to",
          "type": "address"
        },
        {
          "internalType": "uint256",
          "name": "amount",
          "type": "uint256"
        }
      ],
      "name": "pay",
      "outputs": [],
      "stateMutability": "nonpayable",
      "type": "function"
    },
    {
      "inputs": [],
      "name": "swapRouter",
      "outputs": [
        {
          "internalType": "contract ISwapRouter",
          "name": "",
          "type": "address"
        }
      ],
      "stateMutability": "view",
      "type": "function"
    },
    {
      "inputs": [
        {
          "internalType": "uint256",
          "name": "amount",
          "type": "uint256"
        }
      ],
      "name": "withdraw",
      "outputs": [],
      "stateMutability": "nonpayable",
      "type": "function"
    },
    {
      "inputs": [],
      "name": "wrapped",
      "outputs": [
        {
          "internalType": "address",
          "name": "",
          "type": "address"
        }
      ],
      "stateMutability": "view",
      "type": "function"
    }
  ],
  "transactionHash": "0x191bd3ca39617e654d0327316a033d7bdb0050f6eb9f679cf6a9c6dbfa59aa62",
  "args": [
    "0xE592427A0AEce92De3Edee1F18E0157C05861564",
    "0xb4fbf271143f4fbf7b91a5ded31805e42b2208d6"
  ],
  "numDeployments": 1,
  "solcInputHash": "3fdbe8cf272719058cfea055ff774cab",
  "bytecode": "0x60c06040523480156200001157600080fd5b5060405162001bca38038062001bca833981810160405281019062000037919062000117565b8173ffffffffffffffffffffffffffffffffffffffff1660808173ffffffffffffffffffffffffffffffffffffffff1660601b815250508073ffffffffffffffffffffffffffffffffffffffff1660a08173ffffffffffffffffffffffffffffffffffffffff1660601b8152505050506200015e565b600080fd5b600073ffffffffffffffffffffffffffffffffffffffff82169050919050565b6000620000df82620000b2565b9050919050565b620000f181620000d2565b8114620000fd57600080fd5b50565b6000815190506200011181620000e6565b92915050565b60008060408385031215620001315762000130620000ad565b5b6000620001418582860162000100565b9250506020620001548582860162000100565b9150509250929050565b60805160601c60a05160601c611a1d620001ad600039600081816103b10152818161042e0152818161060301526107ed01526000818161038a015281816104c30152610a760152611a1d6000f3fe6080604052600436106100865760003560e01c806350e70d481161005957806350e70d48146101365780637ddabb2314610161578063b3d761881461016b578063c31c9c0714610194578063f4b16045146101bf57610086565b806323e3fbd51461008b5780632e1a7d4d146100c8578063338b5dea146100f15780633d140d211461010d575b600080fd5b34801561009757600080fd5b506100b260048036038101906100ad9190610fda565b6101fc565b6040516100bf9190611020565b60405180910390f35b3480156100d457600080fd5b506100ef60048036038101906100ea9190611067565b610244565b005b61010b60048036038101906101069190611094565b6102f4565b005b34801561011957600080fd5b50610134600480360381019061012f919061110c565b6106ee565b005b34801561014257600080fd5b5061014b6107eb565b604051610158919061115b565b60405180910390f35b61016961080f565b005b34801561017757600080fd5b50610192600480360381019061018d9190611176565b6108b4565b005b3480156101a057600080fd5b506101a9610a74565b6040516101b69190611228565b60405180910390f35b3480156101cb57600080fd5b506101e660048036038101906101e19190611243565b610a98565b6040516101f39190611292565b60405180910390f35b60008060008373ffffffffffffffffffffffffffffffffffffffff1673ffffffffffffffffffffffffffffffffffffffff168152602001908152602001600020549050919050565b806000803373ffffffffffffffffffffffffffffffffffffffff1673ffffffffffffffffffffffffffffffffffffffff168152602001908152602001600020600082825461029291906112dc565b925050819055506102a33382610b2c565b3373ffffffffffffffffffffffffffffffffffffffff167f884edad9ce6fa2440d8a54cc123490eb96d2768479d49ff9c7366125a9424364826040516102e99190611020565b60405180910390a250565b8173ffffffffffffffffffffffffffffffffffffffff166323b872dd3330846040518463ffffffff1660e01b815260040161033193929190611310565b602060405180830381600087803b15801561034b57600080fd5b505af115801561035f573d6000803e3d6000fd5b505050506040513d601f19601f82011682018060405250810190610383919061135c565b506103af827f000000000000000000000000000000000000000000000000000000000000000083610c20565b7f000000000000000000000000000000000000000000000000000000000000000073ffffffffffffffffffffffffffffffffffffffff168273ffffffffffffffffffffffffffffffffffffffff16146105705760006040518061010001604052808473ffffffffffffffffffffffffffffffffffffffff1681526020017f000000000000000000000000000000000000000000000000000000000000000073ffffffffffffffffffffffffffffffffffffffff168152602001610bb862ffffff1681526020013073ffffffffffffffffffffffffffffffffffffffff16815260200142815260200183815260200160008152602001600073ffffffffffffffffffffffffffffffffffffffff1681525090507f000000000000000000000000000000000000000000000000000000000000000073ffffffffffffffffffffffffffffffffffffffff1663414bf389826040518263ffffffff1660e01b815260040161051a9190611476565b602060405180830381600087803b15801561053457600080fd5b505af1158015610548573d6000803e3d6000fd5b505050506040513d601f19601f8201168201806040525081019061056c91906114a7565b9150505b610646816040516024016105849190611020565b6040516020818303038152906040527f2e1a7d4d000000000000000000000000000000000000000000000000000000007bffffffffffffffffffffffffffffffffffffffffffffffffffffffff19166020820180517bffffffffffffffffffffffffffffffffffffffffffffffffffffffff83818316178352505050507f000000000000000000000000000000000000000000000000000000000000000073ffffffffffffffffffffffffffffffffffffffff16610d7590919063ffffffff16565b50806000803373ffffffffffffffffffffffffffffffffffffffff1673ffffffffffffffffffffffffffffffffffffffff168152602001908152602001600020600082825461069591906114d4565b925050819055503373ffffffffffffffffffffffffffffffffffffffff167fe1fffcc4923d04b559f4d29a8bfc6cda04eb5b0d3c460751c2402c5c5cc9109c826040516106e29190611020565b60405180910390a25050565b80600160003373ffffffffffffffffffffffffffffffffffffffff1673ffffffffffffffffffffffffffffffffffffffff16815260200190815260200160002060008473ffffffffffffffffffffffffffffffffffffffff1673ffffffffffffffffffffffffffffffffffffffff16815260200190815260200160002060006101000a81548160ff0219169083151502179055508173ffffffffffffffffffffffffffffffffffffffff163373ffffffffffffffffffffffffffffffffffffffff167f1d3e246ebbc933bf65d3290db9f93d67ab91a12d2b19308a35806e04d1c174c5836040516107df9190611292565b60405180910390a35050565b7f000000000000000000000000000000000000000000000000000000000000000081565b346000803373ffffffffffffffffffffffffffffffffffffffff1673ffffffffffffffffffffffffffffffffffffffff168152602001908152602001600020600082825461085d91906114d4565b925050819055503373ffffffffffffffffffffffffffffffffffffffff167fe1fffcc4923d04b559f4d29a8bfc6cda04eb5b0d3c460751c2402c5c5cc9109c346040516108aa9190611020565b60405180910390a2565b3373ffffffffffffffffffffffffffffffffffffffff168373ffffffffffffffffffffffffffffffffffffffff1614806108f457506108f33384610a98565b5b610933576040517f08c379a000000000000000000000000000000000000000000000000000000000815260040161092a90611587565b60405180910390fd5b806000808573ffffffffffffffffffffffffffffffffffffffff1673ffffffffffffffffffffffffffffffffffffffff1681526020019081526020016000205410156109b4576040517f08c379a00000000000000000000000000000000000000000000000000000000081526004016109ab906115f3565b60405180910390fd5b806000808573ffffffffffffffffffffffffffffffffffffffff1673ffffffffffffffffffffffffffffffffffffffff16815260200190815260200160002060008282540392505081905550610a0a8282610b2c565b8173ffffffffffffffffffffffffffffffffffffffff168373ffffffffffffffffffffffffffffffffffffffff167f8ed7db30df47fbd87811a5e8a95a94838f0c0241263d9a1865d6a2a3e10516e283604051610a679190611020565b60405180910390a3505050565b7f000000000000000000000000000000000000000000000000000000000000000081565b6000600160008473ffffffffffffffffffffffffffffffffffffffff1673ffffffffffffffffffffffffffffffffffffffff16815260200190815260200160002060008373ffffffffffffffffffffffffffffffffffffffff1673ffffffffffffffffffffffffffffffffffffffff16815260200190815260200160002060009054906101000a900460ff16905092915050565b80471015610b6f576040517f08c379a0000000000000000000000000000000000000000000000000000000008152600401610b669061165f565b60405180910390fd5b60008273ffffffffffffffffffffffffffffffffffffffff1682604051610b95906116b0565b60006040518083038185875af1925050503d8060008114610bd2576040519150601f19603f3d011682016040523d82523d6000602084013e610bd7565b606091505b5050905080610c1b576040517f08c379a0000000000000000000000000000000000000000000000000000000008152600401610c1290611737565b60405180910390fd5b505050565b6000808473ffffffffffffffffffffffffffffffffffffffff1663095ea7b360e01b8585604051602401610c55929190611757565b604051602081830303815290604052907bffffffffffffffffffffffffffffffffffffffffffffffffffffffff19166020820180517bffffffffffffffffffffffffffffffffffffffffffffffffffffffff8381831617835250505050604051610cbf91906117ef565b6000604051808303816000865af19150503d8060008114610cfc576040519150601f19603f3d011682016040523d82523d6000602084013e610d01565b606091505b5091509150818015610d2f5750600081511480610d2e575080806020019051810190610d2d919061135c565b5b5b610d6e576040517f08c379a0000000000000000000000000000000000000000000000000000000008152600401610d6590611852565b60405180910390fd5b5050505050565b6060610db9838360006040518060400160405280601e81526020017f416464726573733a206c6f772d6c6576656c2063616c6c206661696c65640000815250610dc1565b905092915050565b606082471015610e06576040517f08c379a0000000000000000000000000000000000000000000000000000000008152600401610dfd906118e4565b60405180910390fd5b6000808673ffffffffffffffffffffffffffffffffffffffff168587604051610e2f91906117ef565b60006040518083038185875af1925050503d8060008114610e6c576040519150601f19603f3d011682016040523d82523d6000602084013e610e71565b606091505b5091509150610e8287838387610e8e565b92505050949350505050565b60608315610ef157600083511415610ee957610ea985610f04565b610ee8576040517f08c379a0000000000000000000000000000000000000000000000000000000008152600401610edf90611950565b60405180910390fd5b5b829050610efc565b610efb8383610f27565b5b949350505050565b6000808273ffffffffffffffffffffffffffffffffffffffff163b119050919050565b600082511115610f3a5781518083602001fd5b806040517f08c379a0000000000000000000000000000000000000000000000000000000008152600401610f6e91906119c5565b60405180910390fd5b600080fd5b600073ffffffffffffffffffffffffffffffffffffffff82169050919050565b6000610fa782610f7c565b9050919050565b610fb781610f9c565b8114610fc257600080fd5b50565b600081359050610fd481610fae565b92915050565b600060208284031215610ff057610fef610f77565b5b6000610ffe84828501610fc5565b91505092915050565b6000819050919050565b61101a81611007565b82525050565b60006020820190506110356000830184611011565b92915050565b61104481611007565b811461104f57600080fd5b50565b6000813590506110618161103b565b92915050565b60006020828403121561107d5761107c610f77565b5b600061108b84828501611052565b91505092915050565b600080604083850312156110ab576110aa610f77565b5b60006110b985828601610fc5565b92505060206110ca85828601611052565b9150509250929050565b60008115159050919050565b6110e9816110d4565b81146110f457600080fd5b50565b600081359050611106816110e0565b92915050565b6000806040838503121561112357611122610f77565b5b600061113185828601610fc5565b9250506020611142858286016110f7565b9150509250929050565b61115581610f9c565b82525050565b6000602082019050611170600083018461114c565b92915050565b60008060006060848603121561118f5761118e610f77565b5b600061119d86828701610fc5565b93505060206111ae86828701610fc5565b92505060406111bf86828701611052565b9150509250925092565b6000819050919050565b60006111ee6111e96111e484610f7c565b6111c9565b610f7c565b9050919050565b6000611200826111d3565b9050919050565b6000611212826111f5565b9050919050565b61122281611207565b82525050565b600060208201905061123d6000830184611219565b92915050565b6000806040838503121561125a57611259610f77565b5b600061126885828601610fc5565b925050602061127985828601610fc5565b9150509250929050565b61128c816110d4565b82525050565b60006020820190506112a76000830184611283565b92915050565b7f4e487b7100000000000000000000000000000000000000000000000000000000600052601160045260246000fd5b60006112e782611007565b91506112f283611007565b925082821015611305576113046112ad565b5b828203905092915050565b6000606082019050611325600083018661114c565b611332602083018561114c565b61133f6040830184611011565b949350505050565b600081519050611356816110e0565b92915050565b60006020828403121561137257611371610f77565b5b600061138084828501611347565b91505092915050565b61139281610f9c565b82525050565b600062ffffff82169050919050565b6113b081611398565b82525050565b6113bf81611007565b82525050565b6113ce81610f7c565b82525050565b610100820160008201516113eb6000850182611389565b5060208201516113fe6020850182611389565b50604082015161141160408501826113a7565b5060608201516114246060850182611389565b50608082015161143760808501826113b6565b5060a082015161144a60a08501826113b6565b5060c082015161145d60c08501826113b6565b5060e082015161147060e08501826113c5565b50505050565b60006101008201905061148c60008301846113d4565b92915050565b6000815190506114a18161103b565b92915050565b6000602082840312156114bd576114bc610f77565b5b60006114cb84828501611492565b91505092915050565b60006114df82611007565b91506114ea83611007565b9250827fffffffffffffffffffffffffffffffffffffffffffffffffffffffffffffffff0382111561151f5761151e6112ad565b5b828201905092915050565b600082825260208201905092915050565b7f556e617574686f72697a65640000000000000000000000000000000000000000600082015250565b6000611571600c8361152a565b915061157c8261153b565b602082019050919050565b600060208201905081810360008301526115a081611564565b9050919050565b7f496e73756666696369656e742062616c616e6365000000000000000000000000600082015250565b60006115dd60148361152a565b91506115e8826115a7565b602082019050919050565b6000602082019050818103600083015261160c816115d0565b9050919050565b7f416464726573733a20696e73756666696369656e742062616c616e6365000000600082015250565b6000611649601d8361152a565b915061165482611613565b602082019050919050565b600060208201905081810360008301526116788161163c565b9050919050565b600081905092915050565b50565b600061169a60008361167f565b91506116a58261168a565b600082019050919050565b60006116bb8261168d565b9150819050919050565b7f416464726573733a20756e61626c6520746f2073656e642076616c75652c207260008201527f6563697069656e74206d61792068617665207265766572746564000000000000602082015250565b6000611721603a8361152a565b915061172c826116c5565b604082019050919050565b6000602082019050818103600083015261175081611714565b9050919050565b600060408201905061176c600083018561114c565b6117796020830184611011565b9392505050565b600081519050919050565b60005b838110156117a957808201518184015260208101905061178e565b838111156117b8576000848401525b50505050565b60006117c982611780565b6117d3818561167f565b93506117e381856020860161178b565b80840191505092915050565b60006117fb82846117be565b915081905092915050565b7f5341000000000000000000000000000000000000000000000000000000000000600082015250565b600061183c60028361152a565b915061184782611806565b602082019050919050565b6000602082019050818103600083015261186b8161182f565b9050919050565b7f416464726573733a20696e73756666696369656e742062616c616e636520666f60008201527f722063616c6c0000000000000000000000000000000000000000000000000000602082015250565b60006118ce60268361152a565b91506118d982611872565b604082019050919050565b600060208201905081810360008301526118fd816118c1565b9050919050565b7f416464726573733a2063616c6c20746f206e6f6e2d636f6e7472616374000000600082015250565b600061193a601d8361152a565b915061194582611904565b602082019050919050565b600060208201905081810360008301526119698161192d565b9050919050565b600081519050919050565b6000601f19601f8301169050919050565b600061199782611970565b6119a1818561152a565b93506119b181856020860161178b565b6119ba8161197b565b840191505092915050565b600060208201905081810360008301526119df818461198c565b90509291505056fea2646970667358221220e2487ba25c1e99c120d76efe4b4f870e8d520601cd42c9931a74dd8376e5dd4064736f6c63430008080033",
  "devdoc": {
    "kind": "dev",
    "methods": {},
    "version": 1
  },
  "userdoc": {
    "kind": "user",
    "methods": {},
    "version": 1
  },
  "storageLayout": {
    "storage": [
      {
        "astId": 4213,
        "contract": "contracts/apps/GasStation.sol:GasStation",
        "label": "deposits_",
        "offset": 0,
        "slot": "0",
        "type": "t_mapping(t_address,t_uint256)"
      },
      {
        "astId": 4219,
        "contract": "contracts/apps/GasStation.sol:GasStation",
        "label": "approval_",
        "offset": 0,
        "slot": "1",
        "type": "t_mapping(t_address,t_mapping(t_address,t_bool))"
      }
    ],
    "types": {
      "t_address": {
        "encoding": "inplace",
        "label": "address",
        "numberOfBytes": "20"
      },
      "t_bool": {
        "encoding": "inplace",
        "label": "bool",
        "numberOfBytes": "1"
      },
      "t_mapping(t_address,t_bool)": {
        "encoding": "mapping",
        "key": "t_address",
        "label": "mapping(address => bool)",
        "numberOfBytes": "32",
        "value": "t_bool"
      },
      "t_mapping(t_address,t_mapping(t_address,t_bool))": {
        "encoding": "mapping",
        "key": "t_address",
        "label": "mapping(address => mapping(address => bool))",
        "numberOfBytes": "32",
        "value": "t_mapping(t_address,t_bool)"
      },
      "t_mapping(t_address,t_uint256)": {
        "encoding": "mapping",
        "key": "t_address",
        "label": "mapping(address => uint256)",
        "numberOfBytes": "32",
        "value": "t_uint256"
      },
      "t_uint256": {
        "encoding": "inplace",
        "label": "uint256",
        "numberOfBytes": "32"
      }
    }
  }
}