{
  "address": "0xA8ABF3c80bC6B80018731A6B3003f672d85B2e13",
  "abi": [
    {
      "anonymous": false,
      "inputs": [
        {
          "indexed": false,
          "internalType": "address",
          "name": "previousAdmin",
          "type": "address"
        },
        {
          "indexed": false,
          "internalType": "address",
          "name": "newAdmin",
          "type": "address"
        }
      ],
      "name": "AdminChanged",
      "type": "event"
    },
    {
      "anonymous": false,
      "inputs": [
        {
          "indexed": true,
          "internalType": "address",
          "name": "beacon",
          "type": "address"
        }
      ],
      "name": "BeaconUpgraded",
      "type": "event"
    },
    {
      "anonymous": false,
      "inputs": [
        {
          "indexed": true,
          "internalType": "bytes32",
          "name": "PacketId",
          "type": "bytes32"
        },
        {
          "indexed": false,
          "internalType": "address",
          "name": "claimer",
          "type": "address"
        },
        {
          "indexed": false,
          "internalType": "uint256",
          "name": "amount",
          "type": "uint256"
        }
      ],
      "name": "Claimed",
      "type": "event"
    },
    {
      "anonymous": false,
      "inputs": [
        {
          "indexed": true,
          "internalType": "bytes32",
          "name": "PacketId",
          "type": "bytes32"
        },
        {
          "indexed": false,
          "internalType": "address",
          "name": "creator",
          "type": "address"
        },
        {
          "components": [
            {
              "internalType": "address",
              "name": "token",
              "type": "address"
            },
            {
              "internalType": "bytes32",
              "name": "salt",
              "type": "bytes32"
            },
            {
              "internalType": "uint256",
              "name": "balance",
              "type": "uint256"
            },
            {
              "internalType": "address",
              "name": "validator",
              "type": "address"
            },
            {
              "internalType": "uint32",
              "name": "split",
              "type": "uint32"
            },
            {
              "internalType": "uint8",
              "name": "mode",
              "type": "uint8"
            }
          ],
          "indexed": false,
          "internalType": "struct HappyRedPacket.RedPacketData",
          "name": "packet",
          "type": "tuple"
        }
      ],
      "name": "Created",
      "type": "event"
    },
    {
      "anonymous": false,
      "inputs": [
        {
          "indexed": true,
          "internalType": "address",
          "name": "previousOwner",
          "type": "address"
        },
        {
          "indexed": true,
          "internalType": "address",
          "name": "newOwner",
          "type": "address"
        }
      ],
      "name": "OwnershipTransferred",
      "type": "event"
    },
    {
      "anonymous": false,
      "inputs": [
        {
          "indexed": true,
          "internalType": "address",
          "name": "implementation",
          "type": "address"
        }
      ],
      "name": "Upgraded",
      "type": "event"
    },
    {
      "inputs": [
        {
          "components": [
            {
              "internalType": "address",
              "name": "creator",
              "type": "address"
            },
            {
              "components": [
                {
                  "internalType": "address",
                  "name": "token",
                  "type": "address"
                },
                {
                  "internalType": "bytes32",
                  "name": "salt",
                  "type": "bytes32"
                },
                {
                  "internalType": "uint256",
                  "name": "balance",
                  "type": "uint256"
                },
                {
                  "internalType": "address",
                  "name": "validator",
                  "type": "address"
                },
                {
                  "internalType": "uint32",
                  "name": "split",
                  "type": "uint32"
                },
                {
                  "internalType": "uint8",
                  "name": "mode",
                  "type": "uint8"
                }
              ],
              "internalType": "struct HappyRedPacket.RedPacketData",
              "name": "packet",
              "type": "tuple"
            },
            {
              "internalType": "address",
              "name": "claimer",
              "type": "address"
            },
            {
              "internalType": "bytes",
              "name": "signature",
              "type": "bytes"
            }
          ],
          "internalType": "struct HappyRedPacket.RedPacketClaim[]",
          "name": "claims",
          "type": "tuple[]"
        }
      ],
      "name": "batchClaim",
      "outputs": [],
      "stateMutability": "nonpayable",
      "type": "function"
    },
    {
      "inputs": [
        {
          "components": [
            {
              "internalType": "address",
              "name": "creator",
              "type": "address"
            },
            {
              "components": [
                {
                  "internalType": "address",
                  "name": "token",
                  "type": "address"
                },
                {
                  "internalType": "bytes32",
                  "name": "salt",
                  "type": "bytes32"
                },
                {
                  "internalType": "uint256",
                  "name": "balance",
                  "type": "uint256"
                },
                {
                  "internalType": "address",
                  "name": "validator",
                  "type": "address"
                },
                {
                  "internalType": "uint32",
                  "name": "split",
                  "type": "uint32"
                },
                {
                  "internalType": "uint8",
                  "name": "mode",
                  "type": "uint8"
                }
              ],
              "internalType": "struct HappyRedPacket.RedPacketData",
              "name": "packet",
              "type": "tuple"
            },
            {
              "internalType": "address",
              "name": "claimer",
              "type": "address"
            },
            {
              "internalType": "bytes",
              "name": "signature",
              "type": "bytes"
            }
          ],
          "internalType": "struct HappyRedPacket.RedPacketClaim",
          "name": "c",
          "type": "tuple"
        }
      ],
      "name": "claim",
      "outputs": [],
      "stateMutability": "nonpayable",
      "type": "function"
    },
    {
      "inputs": [
        {
          "components": [
            {
              "internalType": "address",
              "name": "token",
              "type": "address"
            },
            {
              "internalType": "bytes32",
              "name": "salt",
              "type": "bytes32"
            },
            {
              "internalType": "uint256",
              "name": "balance",
              "type": "uint256"
            },
            {
              "internalType": "address",
              "name": "validator",
              "type": "address"
            },
            {
              "internalType": "uint32",
              "name": "split",
              "type": "uint32"
            },
            {
              "internalType": "uint8",
              "name": "mode",
              "type": "uint8"
            }
          ],
          "internalType": "struct HappyRedPacket.RedPacketData",
          "name": "pd",
          "type": "tuple"
        }
      ],
      "name": "create",
      "outputs": [],
      "stateMutability": "payable",
      "type": "function"
    },
    {
      "inputs": [
        {
          "internalType": "bytes32",
          "name": "id",
          "type": "bytes32"
        }
      ],
      "name": "getPacket",
      "outputs": [
        {
          "components": [
            {
              "internalType": "uint256",
              "name": "createdAt",
              "type": "uint256"
            },
            {
              "internalType": "uint256",
              "name": "balance",
              "type": "uint256"
            },
            {
              "internalType": "uint32",
              "name": "split",
              "type": "uint32"
            }
          ],
          "internalType": "struct HappyRedPacket.RedPacket",
          "name": "",
          "type": "tuple"
        }
      ],
      "stateMutability": "view",
      "type": "function"
    },
    {
      "inputs": [],
      "name": "implementation",
      "outputs": [
        {
          "internalType": "address",
          "name": "",
          "type": "address"
        }
      ],
      "stateMutability": "view",
      "type": "function"
    },
    {
      "inputs": [
        {
          "internalType": "address",
          "name": "newOwner",
          "type": "address"
        }
      ],
      "name": "initOwner",
      "outputs": [],
      "stateMutability": "nonpayable",
      "type": "function"
    },
    {
      "inputs": [],
      "name": "owner",
      "outputs": [
        {
          "internalType": "address",
          "name": "",
          "type": "address"
        }
      ],
      "stateMutability": "view",
      "type": "function"
    },
    {
      "inputs": [],
      "name": "proxiableUUID",
      "outputs": [
        {
          "internalType": "bytes32",
          "name": "",
          "type": "bytes32"
        }
      ],
      "stateMutability": "view",
      "type": "function"
    },
    {
      "inputs": [
        {
          "components": [
            {
              "internalType": "address",
              "name": "token",
              "type": "address"
            },
            {
              "internalType": "bytes32",
              "name": "salt",
              "type": "bytes32"
            },
            {
              "internalType": "uint256",
              "name": "balance",
              "type": "uint256"
            },
            {
              "internalType": "address",
              "name": "validator",
              "type": "address"
            },
            {
              "internalType": "uint32",
              "name": "split",
              "type": "uint32"
            },
            {
              "internalType": "uint8",
              "name": "mode",
              "type": "uint8"
            }
          ],
          "internalType": "struct HappyRedPacket.RedPacketData",
          "name": "pd",
          "type": "tuple"
        }
      ],
      "name": "refund",
      "outputs": [],
      "stateMutability": "nonpayable",
      "type": "function"
    },
    {
      "inputs": [],
      "name": "renounceOwnership",
      "outputs": [],
      "stateMutability": "nonpayable",
      "type": "function"
    },
    {
      "inputs": [
        {
          "internalType": "address",
          "name": "newOwner",
          "type": "address"
        }
      ],
      "name": "transferOwnership",
      "outputs": [],
      "stateMutability": "nonpayable",
      "type": "function"
    },
    {
      "inputs": [
        {
          "internalType": "address",
          "name": "newImplementation",
          "type": "address"
        }
      ],
      "name": "upgradeTo",
      "outputs": [],
      "stateMutability": "nonpayable",
      "type": "function"
    },
    {
      "inputs": [
        {
          "internalType": "address",
          "name": "newImplementation",
          "type": "address"
        },
        {
          "internalType": "bytes",
          "name": "data",
          "type": "bytes"
        }
      ],
      "name": "upgradeToAndCall",
      "outputs": [],
      "stateMutability": "payable",
      "type": "function"
    }
  ],
  "transactionHash": "0x40c6b1bfb04d3a12f3c6228b302f5af85cf565930c0722bc02b74653d707db6a",
  "args": [],
  "numDeployments": 12,
  "solcInputHash": "c6e7bdd316b637d7e602ac8ada8f711c",
  "bytecode": "0x60a06040523073ffffffffffffffffffffffffffffffffffffffff1660809073ffffffffffffffffffffffffffffffffffffffff1660601b8152503480156200004757600080fd5b50620000686200005c6200006e60201b60201c565b6200007660201b60201c565b6200013a565b600033905090565b60008060009054906101000a900473ffffffffffffffffffffffffffffffffffffffff169050816000806101000a81548173ffffffffffffffffffffffffffffffffffffffff021916908373ffffffffffffffffffffffffffffffffffffffff1602179055508173ffffffffffffffffffffffffffffffffffffffff168173ffffffffffffffffffffffffffffffffffffffff167f8be0079c531659141344cd1fd0a4f28419497f9722a3daafe3b4186f6b6457e060405160405180910390a35050565b60805160601c6137dd6200017560003960008181610425015281816104b40152818161060101528181610690015261074001526137dd6000f3fe6080604052600436106100c25760003560e01c80635c60da1b1161007f5780638da5cb5b116100595780638da5cb5b14610231578063eed46b6f1461025c578063ef2370a914610285578063f2fde38b146102a1576100c2565b80635c60da1b146101c65780636ed85d0d146101f1578063715018a61461021a576100c2565b80630b524856146100c75780630d009297146101045780633659cfe61461012d57806336e488e9146101565780634f1ef2861461017f57806352d1902d1461019b575b600080fd5b3480156100d357600080fd5b506100ee60048036038101906100e99190611dbc565b6102ca565b6040516100fb9190611e63565b60405180910390f35b34801561011057600080fd5b5061012b60048036038101906101269190611edc565b610331565b005b34801561013957600080fd5b50610154600480360381019061014f9190611edc565b610423565b005b34801561016257600080fd5b5061017d60048036038101906101789190611f6e565b6105ac565b005b610199600480360381019061019491906120fc565b6105ff565b005b3480156101a757600080fd5b506101b061073c565b6040516101bd9190612167565b60405180910390f35b3480156101d257600080fd5b506101db6107f5565b6040516101e89190612191565b60405180910390f35b3480156101fd57600080fd5b50610218600480360381019061021391906121d1565b610804565b005b34801561022657600080fd5b5061022f610a25565b005b34801561023d57600080fd5b50610246610a39565b6040516102539190612191565b60405180910390f35b34801561026857600080fd5b50610283600480360381019061027e9190612239565b610a62565b005b61029f600480360381019061029a9190612239565b610b29565b005b3480156102ad57600080fd5b506102c860048036038101906102c39190611edc565b610e30565b005b6102d2611d4b565b6001600083815260200190815260200160002060405180606001604052908160008201548152602001600182015481526020016002820160009054906101000a900463ffffffff1663ffffffff1663ffffffff16815250509050919050565b600073ffffffffffffffffffffffffffffffffffffffff16610351610a39565b73ffffffffffffffffffffffffffffffffffffffff16146103a7576040517f08c379a000000000000000000000000000000000000000000000000000000000815260040161039e906122c3565b60405180910390fd5b600073ffffffffffffffffffffffffffffffffffffffff168173ffffffffffffffffffffffffffffffffffffffff161415610417576040517f08c379a000000000000000000000000000000000000000000000000000000000815260040161040e9061232f565b60405180910390fd5b61042081610eb4565b50565b7f000000000000000000000000000000000000000000000000000000000000000073ffffffffffffffffffffffffffffffffffffffff163073ffffffffffffffffffffffffffffffffffffffff1614156104b2576040517f08c379a00000000000000000000000000000000000000000000000000000000081526004016104a9906123c1565b60405180910390fd5b7f000000000000000000000000000000000000000000000000000000000000000073ffffffffffffffffffffffffffffffffffffffff166104f1610f78565b73ffffffffffffffffffffffffffffffffffffffff1614610547576040517f08c379a000000000000000000000000000000000000000000000000000000000815260040161053e90612453565b60405180910390fd5b61055081610fcf565b6105a981600067ffffffffffffffff81111561056f5761056e611fd1565b5b6040519080825280601f01601f1916602001820160405280156105a15781602001600182028036833780820191505090505b506000610fda565b50565b60005b828290508110156105fa576105e78383838181106105d0576105cf612473565b5b90506020028101906105e291906124b1565b610804565b80806105f290612509565b9150506105af565b505050565b7f000000000000000000000000000000000000000000000000000000000000000073ffffffffffffffffffffffffffffffffffffffff163073ffffffffffffffffffffffffffffffffffffffff16141561068e576040517f08c379a0000000000000000000000000000000000000000000000000000000008152600401610685906123c1565b60405180910390fd5b7f000000000000000000000000000000000000000000000000000000000000000073ffffffffffffffffffffffffffffffffffffffff166106cd610f78565b73ffffffffffffffffffffffffffffffffffffffff1614610723576040517f08c379a000000000000000000000000000000000000000000000000000000000815260040161071a90612453565b60405180910390fd5b61072c82610fcf565b61073882826001610fda565b5050565b60007f000000000000000000000000000000000000000000000000000000000000000073ffffffffffffffffffffffffffffffffffffffff163073ffffffffffffffffffffffffffffffffffffffff16146107cc576040517f08c379a00000000000000000000000000000000000000000000000000000000081526004016107c3906125c4565b60405180910390fd5b7f360894a13ba1a3210667c828492db98dca3e2076cc3735a920a3ca505d382bbc60001b905090565b60006107ff610f78565b905090565b600061082582600001602081019061081c9190611edc565b83602001611157565b905060008280610100019061083a91906125e4565b905014156108ca578160200160600160208101906108589190611edc565b73ffffffffffffffffffffffffffffffffffffffff163373ffffffffffffffffffffffffffffffffffffffff16146108c5576040517f08c379a00000000000000000000000000000000000000000000000000000000081526004016108bc90612693565b60405180910390fd5b610a01565b6000818360e00160208101906108e09190611edc565b6040516020016108f19291906126b3565b60405160208183030381529060405280519060200120905060006109148261118e565b905061097c8480610100019061092a91906125e4565b8080601f016020809104026020016040519081016040528093929190818152602001838380828437600081840152601f19601f82011690508083019250505050505050826111be90919063ffffffff16565b73ffffffffffffffffffffffffffffffffffffffff168460200160600160208101906109a89190611edc565b73ffffffffffffffffffffffffffffffffffffffff16146109fe576040517f08c379a00000000000000000000000000000000000000000000000000000000081526004016109f590612728565b60405180910390fd5b50505b610a2181836020018460e0016020810190610a1c9190611edc565b6111e5565b5050565b610a2d611339565b610a376000610eb4565b565b60008060009054906101000a900473ffffffffffffffffffffffffffffffffffffffff16905090565b6000610a6e3383611157565b905062015180600160008381526020019081526020016000206000015442610a969190612748565b11610ad6576040517f08c379a0000000000000000000000000000000000000000000000000000000008152600401610acd906127c8565b60405180910390fd5b610b09826000016020810190610aec9190611edc565b3360016000858152602001908152602001600020600101546113b7565b600060016000838152602001908152602001600020600101819055505050565b60018160a0016020810190610b3e9190612821565b60ff161480610b62575060028160a0016020810190610b5d9190612821565b60ff16145b610ba1576040517f08c379a0000000000000000000000000000000000000000000000000000000008152600401610b989061289a565b60405180910390fd5b6000610bad3383611157565b90506000600160008381526020019081526020016000206000015414610c08576040517f08c379a0000000000000000000000000000000000000000000000000000000008152600401610bff90612906565b60405180910390fd5b600073ffffffffffffffffffffffffffffffffffffffff16826000016020810190610c339190611edc565b73ffffffffffffffffffffffffffffffffffffffff1614610cf957816000016020810190610c619190611edc565b73ffffffffffffffffffffffffffffffffffffffff166323b872dd333085604001356040518463ffffffff1660e01b8152600401610ca193929190612935565b602060405180830381600087803b158015610cbb57600080fd5b505af1158015610ccf573d6000803e3d6000fd5b505050506040513d601f19601f82011682018060405250810190610cf391906129a4565b50610d41565b8160400135341015610d40576040517f08c379a0000000000000000000000000000000000000000000000000000000008152600401610d3790612a1d565b60405180910390fd5b5b8160400135600160008381526020019081526020016000206001016000828254610d6b9190612a3d565b92505081905550816080016020810190610d859190612abf565b6001600083815260200190815260200160002060020160008282829054906101000a900463ffffffff16610db99190612aec565b92506101000a81548163ffffffff021916908363ffffffff160217905550426001600083815260200190815260200160002060000181905550807f5c85091c17a5842c079f33795b436b8d466c439605ca6224eb0c0c59624e15a63384604051610e24929190612c9d565b60405180910390a25050565b610e38611339565b600073ffffffffffffffffffffffffffffffffffffffff168173ffffffffffffffffffffffffffffffffffffffff161415610ea8576040517f08c379a0000000000000000000000000000000000000000000000000000000008152600401610e9f90612d38565b60405180910390fd5b610eb181610eb4565b50565b60008060009054906101000a900473ffffffffffffffffffffffffffffffffffffffff169050816000806101000a81548173ffffffffffffffffffffffffffffffffffffffff021916908373ffffffffffffffffffffffffffffffffffffffff1602179055508173ffffffffffffffffffffffffffffffffffffffff168173ffffffffffffffffffffffffffffffffffffffff167f8be0079c531659141344cd1fd0a4f28419497f9722a3daafe3b4186f6b6457e060405160405180910390a35050565b6000610fa67f360894a13ba1a3210667c828492db98dca3e2076cc3735a920a3ca505d382bbc60001b61148f565b60000160009054906101000a900473ffffffffffffffffffffffffffffffffffffffff16905090565b610fd7611339565b50565b6110067f4910fdfa16fed3260ed0e7147f7cc6da11a60208b5b9406d12a635614ffd914360001b611499565b60000160009054906101000a900460ff161561102a57611025836114a3565b611152565b8273ffffffffffffffffffffffffffffffffffffffff166352d1902d6040518163ffffffff1660e01b815260040160206040518083038186803b15801561107057600080fd5b505afa9250505080156110a157506040513d601f19601f8201168201806040525081019061109e9190612d6d565b60015b6110e0576040517f08c379a00000000000000000000000000000000000000000000000000000000081526004016110d790612e0c565b60405180910390fd5b7f360894a13ba1a3210667c828492db98dca3e2076cc3735a920a3ca505d382bbc60001b8114611145576040517f08c379a000000000000000000000000000000000000000000000000000000000815260040161113c90612e9e565b60405180910390fd5b5061115183838361155c565b5b505050565b6000463084846040516020016111709493929190612ebe565b60405160208183030381529060405280519060200120905092915050565b6000816040516020016111a19190612f7c565b604051602081830303815290604052805190602001209050919050565b60008060006111cd8585611588565b915091506111da816115da565b819250505092915050565b6111ef8382611748565b60006001600085815260200190815260200160002060405180606001604052908160008201548152602001600182015481526020016002820160009054906101000a900463ffffffff1663ffffffff1663ffffffff16815250509050600061126a838560a00160208101906112649190612821565b84611847565b905080826020015161127c9190612748565b6001600087815260200190815260200160002060010181905550600182604001516112a79190612fa2565b6001600087815260200190815260200160002060020160006101000a81548163ffffffff021916908363ffffffff1602179055506112f88460000160208101906112f19190611edc565b84836113b7565b847f0508a8b4117d9a7b3d8f5895f6413e61b4f9a2df35afbfb41e78d0ecfff1843f848360405161132a929190612fd6565b60405180910390a25050505050565b611341611981565b73ffffffffffffffffffffffffffffffffffffffff1661135f610a39565b73ffffffffffffffffffffffffffffffffffffffff16146113b5576040517f08c379a00000000000000000000000000000000000000000000000000000000081526004016113ac9061304b565b60405180910390fd5b565b600073ffffffffffffffffffffffffffffffffffffffff168373ffffffffffffffffffffffffffffffffffffffff1614156113fb576113f68282611989565b61148a565b8273ffffffffffffffffffffffffffffffffffffffff1663a9059cbb83836040518363ffffffff1660e01b8152600401611436929190612fd6565b602060405180830381600087803b15801561145057600080fd5b505af1158015611464573d6000803e3d6000fd5b505050506040513d601f19601f8201168201806040525081019061148891906129a4565b505b505050565b6000819050919050565b6000819050919050565b6114ac81611a7d565b6114eb576040517f08c379a00000000000000000000000000000000000000000000000000000000081526004016114e2906130dd565b60405180910390fd5b806115187f360894a13ba1a3210667c828492db98dca3e2076cc3735a920a3ca505d382bbc60001b61148f565b60000160006101000a81548173ffffffffffffffffffffffffffffffffffffffff021916908373ffffffffffffffffffffffffffffffffffffffff16021790555050565b61156583611aa0565b6000825111806115725750805b15611583576115818383611aef565b505b505050565b6000806041835114156115ca5760008060006020860151925060408601519150606086015160001a90506115be87828585611b1c565b945094505050506115d3565b60006002915091505b9250929050565b600060048111156115ee576115ed6130fd565b5b816004811115611601576116006130fd565b5b141561160c57611745565b600160048111156116205761161f6130fd565b5b816004811115611633576116326130fd565b5b1415611674576040517f08c379a000000000000000000000000000000000000000000000000000000000815260040161166b90613178565b60405180910390fd5b60026004811115611688576116876130fd565b5b81600481111561169b5761169a6130fd565b5b14156116dc576040517f08c379a00000000000000000000000000000000000000000000000000000000081526004016116d3906131e4565b60405180910390fd5b600360048111156116f0576116ef6130fd565b5b816004811115611703576117026130fd565b5b1415611744576040517f08c379a000000000000000000000000000000000000000000000000000000000815260040161173b90613276565b60405180910390fd5b5b50565b60006002600084815260200190815260200160002060008373ffffffffffffffffffffffffffffffffffffffff1673ffffffffffffffffffffffffffffffffffffffff16815260200190815260200160002054146117db576040517f08c379a00000000000000000000000000000000000000000000000000000000081526004016117d2906132e2565b60405180910390fd5b60016002600084815260200190815260200160002060008373ffffffffffffffffffffffffffffffffffffffff1673ffffffffffffffffffffffffffffffffffffffff168152602001908152602001600020600082825461183c9190612a3d565b925050819055505050565b600080826020015111801561186657506000826040015163ffffffff16115b6118a5576040517f08c379a000000000000000000000000000000000000000000000000000000000815260040161189c9061334e565b60405180910390fd5b6001826040015163ffffffff1614156118c4578160200151905061196c565b60018360ff1614156118f157816040015163ffffffff1682602001516118ea919061339d565b905061196b565b60028360ff16141561196a576000844442604051602001611914939291906133ce565b6040516020818303038152906040528051906020012060001c905060006002846040015163ffffffff16856020015161194d919061339d565b6119579190613405565b90508082611965919061345f565b925050505b5b5b600081141561197a57600190505b9392505050565b600033905090565b804710156119cc576040517f08c379a00000000000000000000000000000000000000000000000000000000081526004016119c3906134dc565b60405180910390fd5b60008273ffffffffffffffffffffffffffffffffffffffff16826040516119f29061352d565b60006040518083038185875af1925050503d8060008114611a2f576040519150601f19603f3d011682016040523d82523d6000602084013e611a34565b606091505b5050905080611a78576040517f08c379a0000000000000000000000000000000000000000000000000000000008152600401611a6f906135b4565b60405180910390fd5b505050565b6000808273ffffffffffffffffffffffffffffffffffffffff163b119050919050565b611aa9816114a3565b8073ffffffffffffffffffffffffffffffffffffffff167fbc7cd75a20ee27fd9adebab32041f755214dbc6bffa90cc0225b39da2e5c2d3b60405160405180910390a250565b6060611b14838360405180606001604052806027815260200161378160279139611bff565b905092915050565b6000807f7fffffffffffffffffffffffffffffff5d576e7357a4501ddfe92f46681b20a08360001c1115611b57576000600391509150611bf6565b600060018787878760405160008152602001604052604051611b7c94939291906135e3565b6020604051602081039080840390855afa158015611b9e573d6000803e3d6000fd5b505050602060405103519050600073ffffffffffffffffffffffffffffffffffffffff168173ffffffffffffffffffffffffffffffffffffffff161415611bed57600060019250925050611bf6565b80600092509250505b94509492505050565b60606000808573ffffffffffffffffffffffffffffffffffffffff1685604051611c299190613697565b600060405180830381855af49150503d8060008114611c64576040519150601f19603f3d011682016040523d82523d6000602084013e611c69565b606091505b5091509150611c7a86838387611c85565b925050509392505050565b60608315611ce857600083511415611ce057611ca085611a7d565b611cdf576040517f08c379a0000000000000000000000000000000000000000000000000000000008152600401611cd6906136fa565b60405180910390fd5b5b829050611cf3565b611cf28383611cfb565b5b949350505050565b600082511115611d0e5781518083602001fd5b806040517f08c379a0000000000000000000000000000000000000000000000000000000008152600401611d42919061375e565b60405180910390fd5b60405180606001604052806000815260200160008152602001600063ffffffff1681525090565b6000604051905090565b600080fd5b600080fd5b6000819050919050565b611d9981611d86565b8114611da457600080fd5b50565b600081359050611db681611d90565b92915050565b600060208284031215611dd257611dd1611d7c565b5b6000611de084828501611da7565b91505092915050565b6000819050919050565b611dfc81611de9565b82525050565b600063ffffffff82169050919050565b611e1b81611e02565b82525050565b606082016000820151611e376000850182611df3565b506020820151611e4a6020850182611df3565b506040820151611e5d6040850182611e12565b50505050565b6000606082019050611e786000830184611e21565b92915050565b600073ffffffffffffffffffffffffffffffffffffffff82169050919050565b6000611ea982611e7e565b9050919050565b611eb981611e9e565b8114611ec457600080fd5b50565b600081359050611ed681611eb0565b92915050565b600060208284031215611ef257611ef1611d7c565b5b6000611f0084828501611ec7565b91505092915050565b600080fd5b600080fd5b600080fd5b60008083601f840112611f2e57611f2d611f09565b5b8235905067ffffffffffffffff811115611f4b57611f4a611f0e565b5b602083019150836020820283011115611f6757611f66611f13565b5b9250929050565b60008060208385031215611f8557611f84611d7c565b5b600083013567ffffffffffffffff811115611fa357611fa2611d81565b5b611faf85828601611f18565b92509250509250929050565b600080fd5b6000601f19601f8301169050919050565b7f4e487b7100000000000000000000000000000000000000000000000000000000600052604160045260246000fd5b61200982611fc0565b810181811067ffffffffffffffff8211171561202857612027611fd1565b5b80604052505050565b600061203b611d72565b90506120478282612000565b919050565b600067ffffffffffffffff82111561206757612066611fd1565b5b61207082611fc0565b9050602081019050919050565b82818337600083830152505050565b600061209f61209a8461204c565b612031565b9050828152602081018484840111156120bb576120ba611fbb565b5b6120c684828561207d565b509392505050565b600082601f8301126120e3576120e2611f09565b5b81356120f384826020860161208c565b91505092915050565b6000806040838503121561211357612112611d7c565b5b600061212185828601611ec7565b925050602083013567ffffffffffffffff81111561214257612141611d81565b5b61214e858286016120ce565b9150509250929050565b61216181611d86565b82525050565b600060208201905061217c6000830184612158565b92915050565b61218b81611e9e565b82525050565b60006020820190506121a66000830184612182565b92915050565b600080fd5b600061012082840312156121c8576121c76121ac565b5b81905092915050565b6000602082840312156121e7576121e6611d7c565b5b600082013567ffffffffffffffff81111561220557612204611d81565b5b612211848285016121b1565b91505092915050565b600060c082840312156122305761222f6121ac565b5b81905092915050565b600060c0828403121561224f5761224e611d7c565b5b600061225d8482850161221a565b91505092915050565b600082825260208201905092915050565b7f4f776e657220616c726561647920736574000000000000000000000000000000600082015250565b60006122ad601183612266565b91506122b882612277565b602082019050919050565b600060208201905081810360008301526122dc816122a0565b9050919050565b7f4f776e65722063616e6e6f742062652061646472657373207a65726f00000000600082015250565b6000612319601c83612266565b9150612324826122e3565b602082019050919050565b600060208201905081810360008301526123488161230c565b9050919050565b7f46756e6374696f6e206d7573742062652063616c6c6564207468726f7567682060008201527f64656c656761746563616c6c0000000000000000000000000000000000000000602082015250565b60006123ab602c83612266565b91506123b68261234f565b604082019050919050565b600060208201905081810360008301526123da8161239e565b9050919050565b7f46756e6374696f6e206d7573742062652063616c6c6564207468726f7567682060008201527f6163746976652070726f78790000000000000000000000000000000000000000602082015250565b600061243d602c83612266565b9150612448826123e1565b604082019050919050565b6000602082019050818103600083015261246c81612430565b9050919050565b7f4e487b7100000000000000000000000000000000000000000000000000000000600052603260045260246000fd5b600080fd5b600080fd5b600080fd5b600082356001610120038336030381126124ce576124cd6124a2565b5b80830191505092915050565b7f4e487b7100000000000000000000000000000000000000000000000000000000600052601160045260246000fd5b600061251482611de9565b91507fffffffffffffffffffffffffffffffffffffffffffffffffffffffffffffffff821415612547576125466124da565b5b600182019050919050565b7f555550535570677261646561626c653a206d757374206e6f742062652063616c60008201527f6c6564207468726f7567682064656c656761746563616c6c0000000000000000602082015250565b60006125ae603883612266565b91506125b982612552565b604082019050919050565b600060208201905081810360008301526125dd816125a1565b9050919050565b60008083356001602003843603038112612601576126006124a2565b5b80840192508235915067ffffffffffffffff821115612623576126226124a7565b5b60208301925060018202360383131561263f5761263e6124ac565b5b509250929050565b7f556e617574686f72697a65640000000000000000000000000000000000000000600082015250565b600061267d600c83612266565b915061268882612647565b602082019050919050565b600060208201905081810360008301526126ac81612670565b9050919050565b60006040820190506126c86000830185612158565b6126d56020830184612182565b9392505050565b7f496e76616c6964207369676e6174757265000000000000000000000000000000600082015250565b6000612712601183612266565b915061271d826126dc565b602082019050919050565b6000602082019050818103600083015261274181612705565b9050919050565b600061275382611de9565b915061275e83611de9565b925082821015612771576127706124da565b5b828203905092915050565b7f5061636b6574206c6f636b656400000000000000000000000000000000000000600082015250565b60006127b2600d83612266565b91506127bd8261277c565b602082019050919050565b600060208201905081810360008301526127e1816127a5565b9050919050565b600060ff82169050919050565b6127fe816127e8565b811461280957600080fd5b50565b60008135905061281b816127f5565b92915050565b60006020828403121561283757612836611d7c565b5b60006128458482850161280c565b91505092915050565b7f496e76616c6964206d6f64650000000000000000000000000000000000000000600082015250565b6000612884600c83612266565b915061288f8261284e565b602082019050919050565b600060208201905081810360008301526128b381612877565b9050919050565b7f5061636b657420616c7265616479206372656174656400000000000000000000600082015250565b60006128f0601683612266565b91506128fb826128ba565b602082019050919050565b6000602082019050818103600083015261291f816128e3565b9050919050565b61292f81611de9565b82525050565b600060608201905061294a6000830186612182565b6129576020830185612182565b6129646040830184612926565b949350505050565b60008115159050919050565b6129818161296c565b811461298c57600080fd5b50565b60008151905061299e81612978565b92915050565b6000602082840312156129ba576129b9611d7c565b5b60006129c88482850161298f565b91505092915050565b7f496e73756666696369656e742062616c616e6365000000000000000000000000600082015250565b6000612a07601483612266565b9150612a12826129d1565b602082019050919050565b60006020820190508181036000830152612a36816129fa565b9050919050565b6000612a4882611de9565b9150612a5383611de9565b9250827fffffffffffffffffffffffffffffffffffffffffffffffffffffffffffffffff03821115612a8857612a876124da565b5b828201905092915050565b612a9c81611e02565b8114612aa757600080fd5b50565b600081359050612ab981612a93565b92915050565b600060208284031215612ad557612ad4611d7c565b5b6000612ae384828501612aaa565b91505092915050565b6000612af782611e02565b9150612b0283611e02565b92508263ffffffff03821115612b1b57612b1a6124da565b5b828201905092915050565b6000612b356020840184611ec7565b905092915050565b612b4681611e9e565b82525050565b6000612b5b6020840184611da7565b905092915050565b612b6c81611d86565b82525050565b612b7b81611de9565b8114612b8657600080fd5b50565b600081359050612b9881612b72565b92915050565b6000612bad6020840184612b89565b905092915050565b6000612bc46020840184612aaa565b905092915050565b6000612bdb602084018461280c565b905092915050565b612bec816127e8565b82525050565b60c08201612c036000830183612b26565b612c106000850182612b3d565b50612c1e6020830183612b4c565b612c2b6020850182612b63565b50612c396040830183612b9e565b612c466040850182611df3565b50612c546060830183612b26565b612c616060850182612b3d565b50612c6f6080830183612bb5565b612c7c6080850182611e12565b50612c8a60a0830183612bcc565b612c9760a0850182612be3565b50505050565b600060e082019050612cb26000830185612182565b612cbf6020830184612bf2565b9392505050565b7f4f776e61626c653a206e6577206f776e657220697320746865207a65726f206160008201527f6464726573730000000000000000000000000000000000000000000000000000602082015250565b6000612d22602683612266565b9150612d2d82612cc6565b604082019050919050565b60006020820190508181036000830152612d5181612d15565b9050919050565b600081519050612d6781611d90565b92915050565b600060208284031215612d8357612d82611d7c565b5b6000612d9184828501612d58565b91505092915050565b7f45524331393637557067726164653a206e657720696d706c656d656e7461746960008201527f6f6e206973206e6f742055555053000000000000000000000000000000000000602082015250565b6000612df6602e83612266565b9150612e0182612d9a565b604082019050919050565b60006020820190508181036000830152612e2581612de9565b9050919050565b7f45524331393637557067726164653a20756e737570706f727465642070726f7860008201527f6961626c65555549440000000000000000000000000000000000000000000000602082015250565b6000612e88602983612266565b9150612e9382612e2c565b604082019050919050565b60006020820190508181036000830152612eb781612e7b565b9050919050565b600061012082019050612ed46000830187612926565b612ee16020830186612182565b612eee6040830185612182565b612efb6060830184612bf2565b95945050505050565b600081905092915050565b7f19457468657265756d205369676e6564204d6573736167653a0a333200000000600082015250565b6000612f45601c83612f04565b9150612f5082612f0f565b601c82019050919050565b6000819050919050565b612f76612f7182611d86565b612f5b565b82525050565b6000612f8782612f38565b9150612f938284612f65565b60208201915081905092915050565b6000612fad82611e02565b9150612fb883611e02565b925082821015612fcb57612fca6124da565b5b828203905092915050565b6000604082019050612feb6000830185612182565b612ff86020830184612926565b9392505050565b7f4f776e61626c653a2063616c6c6572206973206e6f7420746865206f776e6572600082015250565b6000613035602083612266565b915061304082612fff565b602082019050919050565b6000602082019050818103600083015261306481613028565b9050919050565b7f455243313936373a206e657720696d706c656d656e746174696f6e206973206e60008201527f6f74206120636f6e747261637400000000000000000000000000000000000000602082015250565b60006130c7602d83612266565b91506130d28261306b565b604082019050919050565b600060208201905081810360008301526130f6816130ba565b9050919050565b7f4e487b7100000000000000000000000000000000000000000000000000000000600052602160045260246000fd5b7f45434453413a20696e76616c6964207369676e61747572650000000000000000600082015250565b6000613162601883612266565b915061316d8261312c565b602082019050919050565b6000602082019050818103600083015261319181613155565b9050919050565b7f45434453413a20696e76616c6964207369676e6174757265206c656e67746800600082015250565b60006131ce601f83612266565b91506131d982613198565b602082019050919050565b600060208201905081810360008301526131fd816131c1565b9050919050565b7f45434453413a20696e76616c6964207369676e6174757265202773272076616c60008201527f7565000000000000000000000000000000000000000000000000000000000000602082015250565b6000613260602283612266565b915061326b82613204565b604082019050919050565b6000602082019050818103600083015261328f81613253565b9050919050565b7f416c726561647920636c61696d65640000000000000000000000000000000000600082015250565b60006132cc600f83612266565b91506132d782613296565b602082019050919050565b600060208201905081810360008301526132fb816132bf565b9050919050565b7f456d707479205061636b65740000000000000000000000000000000000000000600082015250565b6000613338600c83612266565b915061334382613302565b602082019050919050565b600060208201905081810360008301526133678161332b565b9050919050565b7f4e487b7100000000000000000000000000000000000000000000000000000000600052601260045260246000fd5b60006133a882611de9565b91506133b383611de9565b9250826133c3576133c261336e565b5b828204905092915050565b60006060820190506133e36000830186612182565b6133f06020830185612926565b6133fd6040830184612926565b949350505050565b600061341082611de9565b915061341b83611de9565b9250817fffffffffffffffffffffffffffffffffffffffffffffffffffffffffffffffff0483118215151615613454576134536124da565b5b828202905092915050565b600061346a82611de9565b915061347583611de9565b9250826134855761348461336e565b5b828206905092915050565b7f416464726573733a20696e73756666696369656e742062616c616e6365000000600082015250565b60006134c6601d83612266565b91506134d182613490565b602082019050919050565b600060208201905081810360008301526134f5816134b9565b9050919050565b600081905092915050565b50565b60006135176000836134fc565b915061352282613507565b600082019050919050565b60006135388261350a565b9150819050919050565b7f416464726573733a20756e61626c6520746f2073656e642076616c75652c207260008201527f6563697069656e74206d61792068617665207265766572746564000000000000602082015250565b600061359e603a83612266565b91506135a982613542565b604082019050919050565b600060208201905081810360008301526135cd81613591565b9050919050565b6135dd816127e8565b82525050565b60006080820190506135f86000830187612158565b61360560208301866135d4565b6136126040830185612158565b61361f6060830184612158565b95945050505050565b600081519050919050565b60005b83811015613651578082015181840152602081019050613636565b83811115613660576000848401525b50505050565b600061367182613628565b61367b81856134fc565b935061368b818560208601613633565b80840191505092915050565b60006136a38284613666565b915081905092915050565b7f416464726573733a2063616c6c20746f206e6f6e2d636f6e7472616374000000600082015250565b60006136e4601d83612266565b91506136ef826136ae565b602082019050919050565b60006020820190508181036000830152613713816136d7565b9050919050565b600081519050919050565b60006137308261371a565b61373a8185612266565b935061374a818560208601613633565b61375381611fc0565b840191505092915050565b600060208201905081810360008301526137788184613725565b90509291505056fe416464726573733a206c6f772d6c6576656c2064656c65676174652063616c6c206661696c6564a26469706673582212205b6dff088b1e95798c951bef88f9be3d39ece5cdd8d1d25151d85d75e1f770e964736f6c63430008080033",
  "devdoc": {
    "kind": "dev",
    "methods": {
      "owner()": {
        "details": "Returns the address of the current owner."
      },
      "proxiableUUID()": {
        "details": "Implementation of the ERC1822 {proxiableUUID} function. This returns the storage slot used by the implementation. It is used to validate the implementation's compatibility when performing an upgrade. IMPORTANT: A proxy pointing at a proxiable contract should not be considered proxiable itself, because this risks bricking a proxy that upgrades to it, by delegating to itself until out of gas. Thus it is critical that this function revert if invoked through a proxy. This is guaranteed by the `notDelegated` modifier."
      },
      "renounceOwnership()": {
        "details": "Leaves the contract without owner. It will not be possible to call `onlyOwner` functions anymore. Can only be called by the current owner. NOTE: Renouncing ownership will leave the contract without an owner, thereby removing any functionality that is only available to the owner."
      },
      "transferOwnership(address)": {
        "details": "Transfers ownership of the contract to a new account (`newOwner`). Can only be called by the current owner."
      },
      "upgradeTo(address)": {
        "details": "Upgrade the implementation of the proxy to `newImplementation`. Calls {_authorizeUpgrade}. Emits an {Upgraded} event."
      },
      "upgradeToAndCall(address,bytes)": {
        "details": "Upgrade the implementation of the proxy to `newImplementation`, and subsequently execute the function call encoded in `data`. Calls {_authorizeUpgrade}. Emits an {Upgraded} event."
      }
    },
    "version": 1
  },
  "userdoc": {
    "kind": "user",
    "methods": {},
    "version": 1
  },
  "storageLayout": {
    "storage": [
      {
        "astId": 7,
        "contract": "contracts/apps/HappyRedPacket.sol:HappyRedPacket",
        "label": "_owner",
        "offset": 0,
        "slot": "0",
        "type": "t_address"
      },
      {
        "astId": 2529,
        "contract": "contracts/apps/HappyRedPacket.sol:HappyRedPacket",
        "label": "packets_",
        "offset": 0,
        "slot": "1",
        "type": "t_mapping(t_bytes32,t_struct(RedPacket)2524_storage)"
      },
      {
        "astId": 2535,
        "contract": "contracts/apps/HappyRedPacket.sol:HappyRedPacket",
        "label": "count_",
        "offset": 0,
        "slot": "2",
        "type": "t_mapping(t_bytes32,t_mapping(t_address,t_uint256))"
      }
    ],
    "types": {
      "t_address": {
        "encoding": "inplace",
        "label": "address",
        "numberOfBytes": "20"
      },
      "t_bytes32": {
        "encoding": "inplace",
        "label": "bytes32",
        "numberOfBytes": "32"
      },
      "t_mapping(t_address,t_uint256)": {
        "encoding": "mapping",
        "key": "t_address",
        "label": "mapping(address => uint256)",
        "numberOfBytes": "32",
        "value": "t_uint256"
      },
      "t_mapping(t_bytes32,t_mapping(t_address,t_uint256))": {
        "encoding": "mapping",
        "key": "t_bytes32",
        "label": "mapping(bytes32 => mapping(address => uint256))",
        "numberOfBytes": "32",
        "value": "t_mapping(t_address,t_uint256)"
      },
      "t_mapping(t_bytes32,t_struct(RedPacket)2524_storage)": {
        "encoding": "mapping",
        "key": "t_bytes32",
        "label": "mapping(bytes32 => struct HappyRedPacket.RedPacket)",
        "numberOfBytes": "32",
        "value": "t_struct(RedPacket)2524_storage"
      },
      "t_struct(RedPacket)2524_storage": {
        "encoding": "inplace",
        "label": "struct HappyRedPacket.RedPacket",
        "members": [
          {
            "astId": 2519,
            "contract": "contracts/apps/HappyRedPacket.sol:HappyRedPacket",
            "label": "createdAt",
            "offset": 0,
            "slot": "0",
            "type": "t_uint256"
          },
          {
            "astId": 2521,
            "contract": "contracts/apps/HappyRedPacket.sol:HappyRedPacket",
            "label": "balance",
            "offset": 0,
            "slot": "1",
            "type": "t_uint256"
          },
          {
            "astId": 2523,
            "contract": "contracts/apps/HappyRedPacket.sol:HappyRedPacket",
            "label": "split",
            "offset": 0,
            "slot": "2",
            "type": "t_uint32"
          }
        ],
        "numberOfBytes": "96"
      },
      "t_uint256": {
        "encoding": "inplace",
        "label": "uint256",
        "numberOfBytes": "32"
      },
      "t_uint32": {
        "encoding": "inplace",
        "label": "uint32",
        "numberOfBytes": "4"
      }
    }
  }
}