{
  "address": "0x36e21785316978491f6a0CF420af3d37848cE2dF",
  "abi": [
    {
      "anonymous": false,
      "inputs": [
        {
          "indexed": true,
          "internalType": "bytes32",
          "name": "PacketId",
          "type": "bytes32"
        },
        {
          "indexed": false,
          "internalType": "address",
          "name": "claimer",
          "type": "address"
        },
        {
          "indexed": false,
          "internalType": "uint256",
          "name": "amount",
          "type": "uint256"
        }
      ],
      "name": "Claimed",
      "type": "event"
    },
    {
      "anonymous": false,
      "inputs": [
        {
          "indexed": true,
          "internalType": "bytes32",
          "name": "PacketId",
          "type": "bytes32"
        },
        {
          "indexed": false,
          "internalType": "address",
          "name": "creator",
          "type": "address"
        },
        {
          "components": [
            {
              "internalType": "address",
              "name": "token",
              "type": "address"
            },
            {
              "internalType": "bytes32",
              "name": "salt",
              "type": "bytes32"
            },
            {
              "internalType": "uint256",
              "name": "balance",
              "type": "uint256"
            },
            {
              "internalType": "address",
              "name": "validator",
              "type": "address"
            },
            {
              "internalType": "uint32",
              "name": "split",
              "type": "uint32"
            },
            {
              "internalType": "uint8",
              "name": "mode",
              "type": "uint8"
            }
          ],
          "indexed": false,
          "internalType": "struct HappyRedPacket.RedPacketData",
          "name": "packet",
          "type": "tuple"
        }
      ],
      "name": "Created",
      "type": "event"
    },
    {
      "inputs": [
        {
          "internalType": "address",
          "name": "creator",
          "type": "address"
        },
        {
          "components": [
            {
              "internalType": "address",
              "name": "token",
              "type": "address"
            },
            {
              "internalType": "bytes32",
              "name": "salt",
              "type": "bytes32"
            },
            {
              "internalType": "uint256",
              "name": "balance",
              "type": "uint256"
            },
            {
              "internalType": "address",
              "name": "validator",
              "type": "address"
            },
            {
              "internalType": "uint32",
              "name": "split",
              "type": "uint32"
            },
            {
              "internalType": "uint8",
              "name": "mode",
              "type": "uint8"
            }
          ],
          "internalType": "struct HappyRedPacket.RedPacketData",
          "name": "pd",
          "type": "tuple"
        },
        {
          "internalType": "address",
          "name": "claimer",
          "type": "address"
        },
        {
          "internalType": "address",
          "name": "refundReceiver",
          "type": "address"
        },
        {
          "internalType": "bytes",
          "name": "signature",
          "type": "bytes"
        }
      ],
      "name": "claim",
      "outputs": [],
      "stateMutability": "nonpayable",
      "type": "function"
    },
    {
      "inputs": [
        {
          "components": [
            {
              "internalType": "address",
              "name": "token",
              "type": "address"
            },
            {
              "internalType": "bytes32",
              "name": "salt",
              "type": "bytes32"
            },
            {
              "internalType": "uint256",
              "name": "balance",
              "type": "uint256"
            },
            {
              "internalType": "address",
              "name": "validator",
              "type": "address"
            },
            {
              "internalType": "uint32",
              "name": "split",
              "type": "uint32"
            },
            {
              "internalType": "uint8",
              "name": "mode",
              "type": "uint8"
            }
          ],
          "internalType": "struct HappyRedPacket.RedPacketData",
          "name": "pd",
          "type": "tuple"
        }
      ],
      "name": "create",
      "outputs": [],
      "stateMutability": "payable",
      "type": "function"
    },
    {
      "inputs": [
        {
          "internalType": "bytes32",
          "name": "id",
          "type": "bytes32"
        }
      ],
      "name": "getPacket",
      "outputs": [
        {
          "components": [
            {
              "internalType": "uint256",
              "name": "createdAt",
              "type": "uint256"
            },
            {
              "internalType": "uint256",
              "name": "balance",
              "type": "uint256"
            },
            {
              "internalType": "uint32",
              "name": "split",
              "type": "uint32"
            }
          ],
          "internalType": "struct HappyRedPacket.RedPacket",
          "name": "",
          "type": "tuple"
        }
      ],
      "stateMutability": "view",
      "type": "function"
    },
    {
      "inputs": [
        {
          "internalType": "address",
          "name": "token",
          "type": "address"
        },
        {
          "internalType": "bytes32",
          "name": "salt",
          "type": "bytes32"
        }
      ],
      "name": "refund",
      "outputs": [],
      "stateMutability": "nonpayable",
      "type": "function"
    }
  ],
  "transactionHash": "0xc1437b347c590689f379f0dc5840d1fe23b2bd92d6fd02f9ba97a5eb38808e91",
  "args": [],
  "numDeployments": 6,
  "solcInputHash": "cf36394816f9fe9677582546fbac1bdb",
  "bytecode": "0x608060405234801561001057600080fd5b50611eb1806100206000396000f3fe60806040526004361061003f5760003560e01c80630b5248561461004457806337b6ee7e1461008157806343da7568146100aa578063ef2370a9146100d3575b600080fd5b34801561005057600080fd5b5061006b60048036038101906100669190610ec0565b6100ef565b6040516100789190610f67565b60405180910390f35b34801561008d57600080fd5b506100a860048036038101906100a39190610fe0565b610155565b005b3480156100b657600080fd5b506100d160048036038101906100cc9190611247565b610209565b005b6100ed60048036038101906100e891906112e4565b61054f565b005b6100f7610e4f565b60008083815260200190815260200160002060405180606001604052908160008201548152602001600182015481526020016002820160009054906101000a900463ffffffff1663ffffffff1663ffffffff16815250509050919050565b6000610162338484610815565b90506201518060008083815260200190815260200160002060000154426101899190611340565b116101c9576040517f08c379a00000000000000000000000000000000000000000000000000000000081526004016101c0906113d1565b60405180910390fd5b6101e983336000808581526020019081526020016000206001015461084f565b600080600083815260200190815260200160002060010181905550505050565b600061021e8787600001518860200151610815565b905060006001600083815260200190815260200160002060008773ffffffffffffffffffffffffffffffffffffffff1673ffffffffffffffffffffffffffffffffffffffff16815260200190815260200160002054146102b3576040517f08c379a00000000000000000000000000000000000000000000000000000000081526004016102aa9061143d565b60405180910390fd5b60008186866040516020016102ca9392919061147b565b60405160208183030381529060405280519060200120905060006102ed82610927565b905061034685858080601f016020809104026020016040519081016040528093929190818152602001838380828437600081840152601f19601f820116905080830192505050505050508261095790919063ffffffff16565b73ffffffffffffffffffffffffffffffffffffffff16886060015173ffffffffffffffffffffffffffffffffffffffff16146103b7576040517f08c379a00000000000000000000000000000000000000000000000000000000081526004016103ae906114fe565b60405180910390fd5b600180600085815260200190815260200160002060008973ffffffffffffffffffffffffffffffffffffffff1673ffffffffffffffffffffffffffffffffffffffff1681526020019081526020016000206000828254610417919061151e565b92505081905550600080600085815260200190815260200160002060405180606001604052908160008201548152602001600182015481526020016002820160009054906101000a900463ffffffff1663ffffffff1663ffffffff16815250509050600061048a898b60a001518461097e565b905080826020015161049c9190611340565b60008087815260200190815260200160002060010181905550600182604001516104c69190611574565b60008087815260200190815260200160002060020160006101000a81548163ffffffff021916908363ffffffff1602179055506105088a600001518a8361084f565b847f0508a8b4117d9a7b3d8f5895f6413e61b4f9a2df35afbfb41e78d0ecfff1843f8a8360405161053a9291906115b7565b60405180910390a25050505050505050505050565b60018160a0015160ff16148061056c575060028160a0015160ff16145b6105ab576040517f08c379a00000000000000000000000000000000000000000000000000000000081526004016105a29061162c565b60405180910390fd5b60006105c03383600001518460200151610815565b90506000806000838152602001908152602001600020600001541461061a576040517f08c379a000000000000000000000000000000000000000000000000000000000815260040161061190611698565b60405180910390fd5b600073ffffffffffffffffffffffffffffffffffffffff16826000015173ffffffffffffffffffffffffffffffffffffffff16146106ef57816000015173ffffffffffffffffffffffffffffffffffffffff166323b872dd333085604001516040518463ffffffff1660e01b8152600401610697939291906116b8565b602060405180830381600087803b1580156106b157600080fd5b505af11580156106c5573d6000803e3d6000fd5b505050506040513d601f19601f820116820180604052508101906106e99190611727565b50610737565b8160400151341015610736576040517f08c379a000000000000000000000000000000000000000000000000000000000815260040161072d906117a0565b60405180910390fd5b5b81604001516000808381526020019081526020016000206001016000828254610760919061151e565b92505081905550816080015160008083815260200190815260200160002060020160008282829054906101000a900463ffffffff1661079f91906117c0565b92506101000a81548163ffffffff021916908363ffffffff1602179055504260008083815260200190815260200160002060000181905550807f5c85091c17a5842c079f33795b436b8d466c439605ca6224eb0c0c59624e15a633846040516108099291906118a2565b60405180910390a25050565b600046308585856040516020016108309594939291906118cb565b6040516020818303038152906040528051906020012090509392505050565b600073ffffffffffffffffffffffffffffffffffffffff168373ffffffffffffffffffffffffffffffffffffffff1614156108935761088e8282610ab8565b610922565b8273ffffffffffffffffffffffffffffffffffffffff1663a9059cbb83836040518363ffffffff1660e01b81526004016108ce9291906115b7565b602060405180830381600087803b1580156108e857600080fd5b505af11580156108fc573d6000803e3d6000fd5b505050506040513d601f19601f820116820180604052508101906109209190611727565b505b505050565b60008160405160200161093a9190611996565b604051602081830303815290604052805190602001209050919050565b60008060006109668585610bac565b9150915061097381610bfe565b819250505092915050565b600080826020015111801561099d57506000826040015163ffffffff16115b6109dc576040517f08c379a00000000000000000000000000000000000000000000000000000000081526004016109d390611a08565b60405180910390fd5b6001826040015163ffffffff1614156109fb5781602001519050610aa3565b60018360ff161415610a2857816040015163ffffffff168260200151610a219190611a57565b9050610aa2565b60028360ff161415610aa1576000844442604051602001610a4b93929190611a88565b6040516020818303038152906040528051906020012060001c905060006002846040015163ffffffff168560200151610a849190611a57565b610a8e9190611abf565b90508082610a9c9190611b19565b925050505b5b5b6000811415610ab157600190505b9392505050565b80471015610afb576040517f08c379a0000000000000000000000000000000000000000000000000000000008152600401610af290611b96565b60405180910390fd5b60008273ffffffffffffffffffffffffffffffffffffffff1682604051610b2190611be7565b60006040518083038185875af1925050503d8060008114610b5e576040519150601f19603f3d011682016040523d82523d6000602084013e610b63565b606091505b5050905080610ba7576040517f08c379a0000000000000000000000000000000000000000000000000000000008152600401610b9e90611c6e565b60405180910390fd5b505050565b600080604183511415610bee5760008060006020860151925060408601519150606086015160001a9050610be287828585610d6c565b94509450505050610bf7565b60006002915091505b9250929050565b60006004811115610c1257610c11611c8e565b5b816004811115610c2557610c24611c8e565b5b1415610c3057610d69565b60016004811115610c4457610c43611c8e565b5b816004811115610c5757610c56611c8e565b5b1415610c98576040517f08c379a0000000000000000000000000000000000000000000000000000000008152600401610c8f90611d09565b60405180910390fd5b60026004811115610cac57610cab611c8e565b5b816004811115610cbf57610cbe611c8e565b5b1415610d00576040517f08c379a0000000000000000000000000000000000000000000000000000000008152600401610cf790611d75565b60405180910390fd5b60036004811115610d1457610d13611c8e565b5b816004811115610d2757610d26611c8e565b5b1415610d68576040517f08c379a0000000000000000000000000000000000000000000000000000000008152600401610d5f90611e07565b60405180910390fd5b5b50565b6000807f7fffffffffffffffffffffffffffffff5d576e7357a4501ddfe92f46681b20a08360001c1115610da7576000600391509150610e46565b600060018787878760405160008152602001604052604051610dcc9493929190611e36565b6020604051602081039080840390855afa158015610dee573d6000803e3d6000fd5b505050602060405103519050600073ffffffffffffffffffffffffffffffffffffffff168173ffffffffffffffffffffffffffffffffffffffff161415610e3d57600060019250925050610e46565b80600092509250505b94509492505050565b60405180606001604052806000815260200160008152602001600063ffffffff1681525090565b6000604051905090565b600080fd5b600080fd5b6000819050919050565b610e9d81610e8a565b8114610ea857600080fd5b50565b600081359050610eba81610e94565b92915050565b600060208284031215610ed657610ed5610e80565b5b6000610ee484828501610eab565b91505092915050565b6000819050919050565b610f0081610eed565b82525050565b600063ffffffff82169050919050565b610f1f81610f06565b82525050565b606082016000820151610f3b6000850182610ef7565b506020820151610f4e6020850182610ef7565b506040820151610f616040850182610f16565b50505050565b6000606082019050610f7c6000830184610f25565b92915050565b600073ffffffffffffffffffffffffffffffffffffffff82169050919050565b6000610fad82610f82565b9050919050565b610fbd81610fa2565b8114610fc857600080fd5b50565b600081359050610fda81610fb4565b92915050565b60008060408385031215610ff757610ff6610e80565b5b600061100585828601610fcb565b925050602061101685828601610eab565b9150509250929050565b600080fd5b6000601f19601f8301169050919050565b7f4e487b7100000000000000000000000000000000000000000000000000000000600052604160045260246000fd5b61106e82611025565b810181811067ffffffffffffffff8211171561108d5761108c611036565b5b80604052505050565b60006110a0610e76565b90506110ac8282611065565b919050565b6110ba81610eed565b81146110c557600080fd5b50565b6000813590506110d7816110b1565b92915050565b6110e681610f06565b81146110f157600080fd5b50565b600081359050611103816110dd565b92915050565b600060ff82169050919050565b61111f81611109565b811461112a57600080fd5b50565b60008135905061113c81611116565b92915050565b600060c0828403121561115857611157611020565b5b61116260c0611096565b9050600061117284828501610fcb565b600083015250602061118684828501610eab565b602083015250604061119a848285016110c8565b60408301525060606111ae84828501610fcb565b60608301525060806111c2848285016110f4565b60808301525060a06111d68482850161112d565b60a08301525092915050565b600080fd5b600080fd5b600080fd5b60008083601f840112611207576112066111e2565b5b8235905067ffffffffffffffff811115611224576112236111e7565b5b6020830191508360018202830111156112405761123f6111ec565b5b9250929050565b600080600080600080610140878903121561126557611264610e80565b5b600061127389828a01610fcb565b965050602061128489828a01611142565b95505060e061129589828a01610fcb565b9450506101006112a789828a01610fcb565b93505061012087013567ffffffffffffffff8111156112c9576112c8610e85565b5b6112d589828a016111f1565b92509250509295509295509295565b600060c082840312156112fa576112f9610e80565b5b600061130884828501611142565b91505092915050565b7f4e487b7100000000000000000000000000000000000000000000000000000000600052601160045260246000fd5b600061134b82610eed565b915061135683610eed565b92508282101561136957611368611311565b5b828203905092915050565b600082825260208201905092915050565b7f5061636b6574206c6f636b656400000000000000000000000000000000000000600082015250565b60006113bb600d83611374565b91506113c682611385565b602082019050919050565b600060208201905081810360008301526113ea816113ae565b9050919050565b7f416c726561647920636c61696d65640000000000000000000000000000000000600082015250565b6000611427600f83611374565b9150611432826113f1565b602082019050919050565b600060208201905081810360008301526114568161141a565b9050919050565b61146681610e8a565b82525050565b61147581610fa2565b82525050565b6000606082019050611490600083018661145d565b61149d602083018561146c565b6114aa604083018461146c565b949350505050565b7f496e76616c6964207369676e6174757265000000000000000000000000000000600082015250565b60006114e8601183611374565b91506114f3826114b2565b602082019050919050565b60006020820190508181036000830152611517816114db565b9050919050565b600061152982610eed565b915061153483610eed565b9250827fffffffffffffffffffffffffffffffffffffffffffffffffffffffffffffffff0382111561156957611568611311565b5b828201905092915050565b600061157f82610f06565b915061158a83610f06565b92508282101561159d5761159c611311565b5b828203905092915050565b6115b181610eed565b82525050565b60006040820190506115cc600083018561146c565b6115d960208301846115a8565b9392505050565b7f496e76616c6964206d6f64650000000000000000000000000000000000000000600082015250565b6000611616600c83611374565b9150611621826115e0565b602082019050919050565b6000602082019050818103600083015261164581611609565b9050919050565b7f5061636b657420616c7265616479206372656174656400000000000000000000600082015250565b6000611682601683611374565b915061168d8261164c565b602082019050919050565b600060208201905081810360008301526116b181611675565b9050919050565b60006060820190506116cd600083018661146c565b6116da602083018561146c565b6116e760408301846115a8565b949350505050565b60008115159050919050565b611704816116ef565b811461170f57600080fd5b50565b600081519050611721816116fb565b92915050565b60006020828403121561173d5761173c610e80565b5b600061174b84828501611712565b91505092915050565b7f496e73756666696369656e742062616c616e6365000000000000000000000000600082015250565b600061178a601483611374565b915061179582611754565b602082019050919050565b600060208201905081810360008301526117b98161177d565b9050919050565b60006117cb82610f06565b91506117d683610f06565b92508263ffffffff038211156117ef576117ee611311565b5b828201905092915050565b61180381610fa2565b82525050565b61181281610e8a565b82525050565b61182181611109565b82525050565b60c08201600082015161183d60008501826117fa565b5060208201516118506020850182611809565b5060408201516118636040850182610ef7565b50606082015161187660608501826117fa565b5060808201516118896080850182610f16565b5060a082015161189c60a0850182611818565b50505050565b600060e0820190506118b7600083018561146c565b6118c46020830184611827565b9392505050565b600060a0820190506118e060008301886115a8565b6118ed602083018761146c565b6118fa604083018661146c565b611907606083018561146c565b611914608083018461145d565b9695505050505050565b600081905092915050565b7f19457468657265756d205369676e6564204d6573736167653a0a333200000000600082015250565b600061195f601c8361191e565b915061196a82611929565b601c82019050919050565b6000819050919050565b61199061198b82610e8a565b611975565b82525050565b60006119a182611952565b91506119ad828461197f565b60208201915081905092915050565b7f456d707479205061636b65740000000000000000000000000000000000000000600082015250565b60006119f2600c83611374565b91506119fd826119bc565b602082019050919050565b60006020820190508181036000830152611a21816119e5565b9050919050565b7f4e487b7100000000000000000000000000000000000000000000000000000000600052601260045260246000fd5b6000611a6282610eed565b9150611a6d83610eed565b925082611a7d57611a7c611a28565b5b828204905092915050565b6000606082019050611a9d600083018661146c565b611aaa60208301856115a8565b611ab760408301846115a8565b949350505050565b6000611aca82610eed565b9150611ad583610eed565b9250817fffffffffffffffffffffffffffffffffffffffffffffffffffffffffffffffff0483118215151615611b0e57611b0d611311565b5b828202905092915050565b6000611b2482610eed565b9150611b2f83610eed565b925082611b3f57611b3e611a28565b5b828206905092915050565b7f416464726573733a20696e73756666696369656e742062616c616e6365000000600082015250565b6000611b80601d83611374565b9150611b8b82611b4a565b602082019050919050565b60006020820190508181036000830152611baf81611b73565b9050919050565b600081905092915050565b50565b6000611bd1600083611bb6565b9150611bdc82611bc1565b600082019050919050565b6000611bf282611bc4565b9150819050919050565b7f416464726573733a20756e61626c6520746f2073656e642076616c75652c207260008201527f6563697069656e74206d61792068617665207265766572746564000000000000602082015250565b6000611c58603a83611374565b9150611c6382611bfc565b604082019050919050565b60006020820190508181036000830152611c8781611c4b565b9050919050565b7f4e487b7100000000000000000000000000000000000000000000000000000000600052602160045260246000fd5b7f45434453413a20696e76616c6964207369676e61747572650000000000000000600082015250565b6000611cf3601883611374565b9150611cfe82611cbd565b602082019050919050565b60006020820190508181036000830152611d2281611ce6565b9050919050565b7f45434453413a20696e76616c6964207369676e6174757265206c656e67746800600082015250565b6000611d5f601f83611374565b9150611d6a82611d29565b602082019050919050565b60006020820190508181036000830152611d8e81611d52565b9050919050565b7f45434453413a20696e76616c6964207369676e6174757265202773272076616c60008201527f7565000000000000000000000000000000000000000000000000000000000000602082015250565b6000611df1602283611374565b9150611dfc82611d95565b604082019050919050565b60006020820190508181036000830152611e2081611de4565b9050919050565b611e3081611109565b82525050565b6000608082019050611e4b600083018761145d565b611e586020830186611e27565b611e65604083018561145d565b611e72606083018461145d565b9594505050505056fea2646970667358221220580d7124040f1a5de170f5dac0c556d4e74852433d0d29923f49fb86b9b5ff4364736f6c63430008080033",
  "devdoc": {
    "kind": "dev",
    "methods": {},
    "version": 1
  },
  "userdoc": {
    "kind": "user",
    "methods": {},
    "version": 1
  },
  "storageLayout": {
    "storage": [
      {
        "astId": 2000,
        "contract": "contracts/apps/HappyRedPacket.sol:HappyRedPacket",
        "label": "packets_",
        "offset": 0,
        "slot": "0",
        "type": "t_mapping(t_bytes32,t_struct(RedPacket)1995_storage)"
      },
      {
        "astId": 2006,
        "contract": "contracts/apps/HappyRedPacket.sol:HappyRedPacket",
        "label": "count_",
        "offset": 0,
        "slot": "1",
        "type": "t_mapping(t_bytes32,t_mapping(t_address,t_uint256))"
      }
    ],
    "types": {
      "t_address": {
        "encoding": "inplace",
        "label": "address",
        "numberOfBytes": "20"
      },
      "t_bytes32": {
        "encoding": "inplace",
        "label": "bytes32",
        "numberOfBytes": "32"
      },
      "t_mapping(t_address,t_uint256)": {
        "encoding": "mapping",
        "key": "t_address",
        "label": "mapping(address => uint256)",
        "numberOfBytes": "32",
        "value": "t_uint256"
      },
      "t_mapping(t_bytes32,t_mapping(t_address,t_uint256))": {
        "encoding": "mapping",
        "key": "t_bytes32",
        "label": "mapping(bytes32 => mapping(address => uint256))",
        "numberOfBytes": "32",
        "value": "t_mapping(t_address,t_uint256)"
      },
      "t_mapping(t_bytes32,t_struct(RedPacket)1995_storage)": {
        "encoding": "mapping",
        "key": "t_bytes32",
        "label": "mapping(bytes32 => struct HappyRedPacket.RedPacket)",
        "numberOfBytes": "32",
        "value": "t_struct(RedPacket)1995_storage"
      },
      "t_struct(RedPacket)1995_storage": {
        "encoding": "inplace",
        "label": "struct HappyRedPacket.RedPacket",
        "members": [
          {
            "astId": 1990,
            "contract": "contracts/apps/HappyRedPacket.sol:HappyRedPacket",
            "label": "createdAt",
            "offset": 0,
            "slot": "0",
            "type": "t_uint256"
          },
          {
            "astId": 1992,
            "contract": "contracts/apps/HappyRedPacket.sol:HappyRedPacket",
            "label": "balance",
            "offset": 0,
            "slot": "1",
            "type": "t_uint256"
          },
          {
            "astId": 1994,
            "contract": "contracts/apps/HappyRedPacket.sol:HappyRedPacket",
            "label": "split",
            "offset": 0,
            "slot": "2",
            "type": "t_uint32"
          }
        ],
        "numberOfBytes": "96"
      },
      "t_uint256": {
        "encoding": "inplace",
        "label": "uint256",
        "numberOfBytes": "32"
      },
      "t_uint32": {
        "encoding": "inplace",
        "label": "uint32",
        "numberOfBytes": "4"
      }
    }
  }
}