{
  "address": "0x09771911373371c841eFe003B75Ba12e8770FCb8",
  "abi": [
    {
      "anonymous": false,
      "inputs": [
        {
          "indexed": false,
          "internalType": "address",
          "name": "previousAdmin",
          "type": "address"
        },
        {
          "indexed": false,
          "internalType": "address",
          "name": "newAdmin",
          "type": "address"
        }
      ],
      "name": "AdminChanged",
      "type": "event"
    },
    {
      "anonymous": false,
      "inputs": [
        {
          "indexed": true,
          "internalType": "address",
          "name": "beacon",
          "type": "address"
        }
      ],
      "name": "BeaconUpgraded",
      "type": "event"
    },
    {
      "anonymous": false,
      "inputs": [
        {
          "indexed": true,
          "internalType": "bytes32",
          "name": "PacketId",
          "type": "bytes32"
        },
        {
          "indexed": false,
          "internalType": "address",
          "name": "claimer",
          "type": "address"
        },
        {
          "indexed": false,
          "internalType": "uint256",
          "name": "amount",
          "type": "uint256"
        }
      ],
      "name": "Claimed",
      "type": "event"
    },
    {
      "anonymous": false,
      "inputs": [
        {
          "indexed": true,
          "internalType": "bytes32",
          "name": "PacketId",
          "type": "bytes32"
        },
        {
          "indexed": false,
          "internalType": "address",
          "name": "creator",
          "type": "address"
        },
        {
          "components": [
            {
              "internalType": "address",
              "name": "token",
              "type": "address"
            },
            {
              "internalType": "bytes32",
              "name": "salt",
              "type": "bytes32"
            },
            {
              "internalType": "uint256",
              "name": "balance",
              "type": "uint256"
            },
            {
              "internalType": "address",
              "name": "validator",
              "type": "address"
            },
            {
              "internalType": "uint32",
              "name": "split",
              "type": "uint32"
            },
            {
              "internalType": "uint8",
              "name": "mode",
              "type": "uint8"
            }
          ],
          "indexed": false,
          "internalType": "struct HappyRedPacket.RedPacketData",
          "name": "packet",
          "type": "tuple"
        }
      ],
      "name": "Created",
      "type": "event"
    },
    {
      "anonymous": false,
      "inputs": [
        {
          "indexed": true,
          "internalType": "address",
          "name": "previousOwner",
          "type": "address"
        },
        {
          "indexed": true,
          "internalType": "address",
          "name": "newOwner",
          "type": "address"
        }
      ],
      "name": "OwnershipTransferred",
      "type": "event"
    },
    {
      "anonymous": false,
      "inputs": [
        {
          "indexed": true,
          "internalType": "address",
          "name": "implementation",
          "type": "address"
        }
      ],
      "name": "Upgraded",
      "type": "event"
    },
    {
      "inputs": [
        {
          "internalType": "address",
          "name": "creator",
          "type": "address"
        },
        {
          "components": [
            {
              "internalType": "address",
              "name": "token",
              "type": "address"
            },
            {
              "internalType": "bytes32",
              "name": "salt",
              "type": "bytes32"
            },
            {
              "internalType": "uint256",
              "name": "balance",
              "type": "uint256"
            },
            {
              "internalType": "address",
              "name": "validator",
              "type": "address"
            },
            {
              "internalType": "uint32",
              "name": "split",
              "type": "uint32"
            },
            {
              "internalType": "uint8",
              "name": "mode",
              "type": "uint8"
            }
          ],
          "internalType": "struct HappyRedPacket.RedPacketData",
          "name": "pd",
          "type": "tuple"
        },
        {
          "internalType": "address",
          "name": "claimer",
          "type": "address"
        },
        {
          "internalType": "bytes",
          "name": "signature",
          "type": "bytes"
        }
      ],
      "name": "claim",
      "outputs": [],
      "stateMutability": "nonpayable",
      "type": "function"
    },
    {
      "inputs": [
        {
          "components": [
            {
              "internalType": "address",
              "name": "token",
              "type": "address"
            },
            {
              "internalType": "bytes32",
              "name": "salt",
              "type": "bytes32"
            },
            {
              "internalType": "uint256",
              "name": "balance",
              "type": "uint256"
            },
            {
              "internalType": "address",
              "name": "validator",
              "type": "address"
            },
            {
              "internalType": "uint32",
              "name": "split",
              "type": "uint32"
            },
            {
              "internalType": "uint8",
              "name": "mode",
              "type": "uint8"
            }
          ],
          "internalType": "struct HappyRedPacket.RedPacketData",
          "name": "pd",
          "type": "tuple"
        }
      ],
      "name": "create",
      "outputs": [],
      "stateMutability": "payable",
      "type": "function"
    },
    {
      "inputs": [
        {
          "internalType": "bytes32",
          "name": "id",
          "type": "bytes32"
        }
      ],
      "name": "getPacket",
      "outputs": [
        {
          "components": [
            {
              "internalType": "uint256",
              "name": "createdAt",
              "type": "uint256"
            },
            {
              "internalType": "uint256",
              "name": "balance",
              "type": "uint256"
            },
            {
              "internalType": "uint32",
              "name": "split",
              "type": "uint32"
            }
          ],
          "internalType": "struct HappyRedPacket.RedPacket",
          "name": "",
          "type": "tuple"
        }
      ],
      "stateMutability": "view",
      "type": "function"
    },
    {
      "inputs": [],
      "name": "implementation",
      "outputs": [
        {
          "internalType": "address",
          "name": "",
          "type": "address"
        }
      ],
      "stateMutability": "view",
      "type": "function"
    },
    {
      "inputs": [
        {
          "internalType": "address",
          "name": "newOwner",
          "type": "address"
        }
      ],
      "name": "initOwner",
      "outputs": [],
      "stateMutability": "nonpayable",
      "type": "function"
    },
    {
      "inputs": [],
      "name": "owner",
      "outputs": [
        {
          "internalType": "address",
          "name": "",
          "type": "address"
        }
      ],
      "stateMutability": "view",
      "type": "function"
    },
    {
      "inputs": [],
      "name": "proxiableUUID",
      "outputs": [
        {
          "internalType": "bytes32",
          "name": "",
          "type": "bytes32"
        }
      ],
      "stateMutability": "view",
      "type": "function"
    },
    {
      "inputs": [
        {
          "internalType": "address",
          "name": "token",
          "type": "address"
        },
        {
          "internalType": "bytes32",
          "name": "salt",
          "type": "bytes32"
        }
      ],
      "name": "refund",
      "outputs": [],
      "stateMutability": "nonpayable",
      "type": "function"
    },
    {
      "inputs": [],
      "name": "renounceOwnership",
      "outputs": [],
      "stateMutability": "nonpayable",
      "type": "function"
    },
    {
      "inputs": [
        {
          "internalType": "address",
          "name": "newOwner",
          "type": "address"
        }
      ],
      "name": "transferOwnership",
      "outputs": [],
      "stateMutability": "nonpayable",
      "type": "function"
    },
    {
      "inputs": [
        {
          "internalType": "address",
          "name": "newImplementation",
          "type": "address"
        }
      ],
      "name": "upgradeTo",
      "outputs": [],
      "stateMutability": "nonpayable",
      "type": "function"
    },
    {
      "inputs": [
        {
          "internalType": "address",
          "name": "newImplementation",
          "type": "address"
        },
        {
          "internalType": "bytes",
          "name": "data",
          "type": "bytes"
        }
      ],
      "name": "upgradeToAndCall",
      "outputs": [],
      "stateMutability": "payable",
      "type": "function"
    }
  ],
  "transactionHash": "0xde67f8fea60f3d625495166b5cedbf9e6348c83c4aaf5a5b88e9777833c617e2",
  "args": [],
  "numDeployments": 8,
  "solcInputHash": "2f3eb6bad1aa18d7ab60e93237974e6c",
  "bytecode": "0x60a06040523073ffffffffffffffffffffffffffffffffffffffff1660809073ffffffffffffffffffffffffffffffffffffffff1660601b8152503480156200004757600080fd5b50620000686200005c6200006e60201b60201c565b6200007660201b60201c565b6200013a565b600033905090565b60008060009054906101000a900473ffffffffffffffffffffffffffffffffffffffff169050816000806101000a81548173ffffffffffffffffffffffffffffffffffffffff021916908373ffffffffffffffffffffffffffffffffffffffff1602179055508173ffffffffffffffffffffffffffffffffffffffff168173ffffffffffffffffffffffffffffffffffffffff167f8be0079c531659141344cd1fd0a4f28419497f9722a3daafe3b4186f6b6457e060405160405180910390a35050565b60805160601c61342d6200017560003960008181610760015281816107ef015281816109a001528181610a2f0152610adf015261342d6000f3fe6080604052600436106100a75760003560e01c806352d1902d1161006457806352d1902d146101a95780635c60da1b146101d4578063715018a6146101ff5780638da5cb5b14610216578063ef2370a914610241578063f2fde38b1461025d576100a7565b806307988198146100ac5780630b524856146100d55780630d009297146101125780633659cfe61461013b57806337b6ee7e146101645780634f1ef2861461018d575b600080fd5b3480156100b857600080fd5b506100d360048036038101906100ce9190611e85565b610286565b005b3480156100e157600080fd5b506100fc60048036038101906100f79190611f0f565b610605565b6040516101099190611f9c565b60405180910390f35b34801561011e57600080fd5b5061013960048036038101906101349190611fb7565b61066c565b005b34801561014757600080fd5b50610162600480360381019061015d9190611fb7565b61075e565b005b34801561017057600080fd5b5061018b60048036038101906101869190611fe4565b6108e7565b005b6101a760048036038101906101a291906120d9565b61099e565b005b3480156101b557600080fd5b506101be610adb565b6040516101cb9190612144565b60405180910390f35b3480156101e057600080fd5b506101e9610b94565b6040516101f6919061216e565b60405180910390f35b34801561020b57600080fd5b50610214610ba3565b005b34801561022257600080fd5b5061022b610bb7565b604051610238919061216e565b60405180910390f35b61025b60048036038101906102569190612189565b610be0565b005b34801561026957600080fd5b50610284600480360381019061027f9190611fb7565b610eaa565b005b600061029b8686600001518760200151610f2e565b905060006002600083815260200190815260200160002060008673ffffffffffffffffffffffffffffffffffffffff1673ffffffffffffffffffffffffffffffffffffffff1681526020019081526020016000205414610330576040517f08c379a000000000000000000000000000000000000000000000000000000000815260040161032790612213565b60405180910390fd5b60016002600083815260200190815260200160002060008673ffffffffffffffffffffffffffffffffffffffff1673ffffffffffffffffffffffffffffffffffffffff16815260200190815260200160002060008282546103919190612262565b92505081905550846060015173ffffffffffffffffffffffffffffffffffffffff163373ffffffffffffffffffffffffffffffffffffffff16146104d457600081856040516020016103e49291906122b8565b604051602081830303815290604052805190602001209050600061040782610f68565b905061046085858080601f016020809104026020016040519081016040528093929190818152602001838380828437600081840152601f19601f8201169050808301925050505050505082610f9890919063ffffffff16565b73ffffffffffffffffffffffffffffffffffffffff16876060015173ffffffffffffffffffffffffffffffffffffffff16146104d1576040517f08c379a00000000000000000000000000000000000000000000000000000000081526004016104c89061232d565b60405180910390fd5b50505b60006001600083815260200190815260200160002060405180606001604052908160008201548152602001600182015481526020016002820160009054906101000a900463ffffffff1663ffffffff1663ffffffff168152505090506000610541868860a0015184610fbf565b9050808260200151610553919061234d565b60016000858152602001908152602001600020600101819055506001826040015161057e9190612381565b6001600085815260200190815260200160002060020160006101000a81548163ffffffff021916908363ffffffff1602179055506105c1876000015187836110f9565b827f0508a8b4117d9a7b3d8f5895f6413e61b4f9a2df35afbfb41e78d0ecfff1843f87836040516105f39291906123c4565b60405180910390a25050505050505050565b61060d611b75565b6001600083815260200190815260200160002060405180606001604052908160008201548152602001600182015481526020016002820160009054906101000a900463ffffffff1663ffffffff1663ffffffff16815250509050919050565b600073ffffffffffffffffffffffffffffffffffffffff1661068c610bb7565b73ffffffffffffffffffffffffffffffffffffffff16146106e2576040517f08c379a00000000000000000000000000000000000000000000000000000000081526004016106d990612439565b60405180910390fd5b600073ffffffffffffffffffffffffffffffffffffffff168173ffffffffffffffffffffffffffffffffffffffff161415610752576040517f08c379a0000000000000000000000000000000000000000000000000000000008152600401610749906124a5565b60405180910390fd5b61075b816111d1565b50565b7f000000000000000000000000000000000000000000000000000000000000000073ffffffffffffffffffffffffffffffffffffffff163073ffffffffffffffffffffffffffffffffffffffff1614156107ed576040517f08c379a00000000000000000000000000000000000000000000000000000000081526004016107e490612537565b60405180910390fd5b7f000000000000000000000000000000000000000000000000000000000000000073ffffffffffffffffffffffffffffffffffffffff1661082c611295565b73ffffffffffffffffffffffffffffffffffffffff1614610882576040517f08c379a0000000000000000000000000000000000000000000000000000000008152600401610879906125c9565b60405180910390fd5b61088b816112ec565b6108e481600067ffffffffffffffff8111156108aa576108a9611c24565b5b6040519080825280601f01601f1916602001820160405280156108dc5781602001600182028036833780820191505090505b5060006112f7565b50565b60006108f4338484610f2e565b90506201518060016000838152602001908152602001600020600001544261091c919061234d565b1161095c576040517f08c379a000000000000000000000000000000000000000000000000000000000815260040161095390612635565b60405180910390fd5b61097d833360016000858152602001908152602001600020600101546110f9565b60006001600083815260200190815260200160002060010181905550505050565b7f000000000000000000000000000000000000000000000000000000000000000073ffffffffffffffffffffffffffffffffffffffff163073ffffffffffffffffffffffffffffffffffffffff161415610a2d576040517f08c379a0000000000000000000000000000000000000000000000000000000008152600401610a2490612537565b60405180910390fd5b7f000000000000000000000000000000000000000000000000000000000000000073ffffffffffffffffffffffffffffffffffffffff16610a6c611295565b73ffffffffffffffffffffffffffffffffffffffff1614610ac2576040517f08c379a0000000000000000000000000000000000000000000000000000000008152600401610ab9906125c9565b60405180910390fd5b610acb826112ec565b610ad7828260016112f7565b5050565b60007f000000000000000000000000000000000000000000000000000000000000000073ffffffffffffffffffffffffffffffffffffffff163073ffffffffffffffffffffffffffffffffffffffff1614610b6b576040517f08c379a0000000000000000000000000000000000000000000000000000000008152600401610b62906126c7565b60405180910390fd5b7f360894a13ba1a3210667c828492db98dca3e2076cc3735a920a3ca505d382bbc60001b905090565b6000610b9e611295565b905090565b610bab611474565b610bb560006111d1565b565b60008060009054906101000a900473ffffffffffffffffffffffffffffffffffffffff16905090565b60018160a0015160ff161480610bfd575060028160a0015160ff16145b610c3c576040517f08c379a0000000000000000000000000000000000000000000000000000000008152600401610c3390612733565b60405180910390fd5b6000610c513383600001518460200151610f2e565b90506000600160008381526020019081526020016000206000015414610cac576040517f08c379a0000000000000000000000000000000000000000000000000000000008152600401610ca39061279f565b60405180910390fd5b600073ffffffffffffffffffffffffffffffffffffffff16826000015173ffffffffffffffffffffffffffffffffffffffff1614610d8157816000015173ffffffffffffffffffffffffffffffffffffffff166323b872dd333085604001516040518463ffffffff1660e01b8152600401610d29939291906127bf565b602060405180830381600087803b158015610d4357600080fd5b505af1158015610d57573d6000803e3d6000fd5b505050506040513d601f19601f82011682018060405250810190610d7b919061282e565b50610dc9565b8160400151341015610dc8576040517f08c379a0000000000000000000000000000000000000000000000000000000008152600401610dbf906128a7565b60405180910390fd5b5b8160400151600160008381526020019081526020016000206001016000828254610df39190612262565b9250508190555081608001516001600083815260200190815260200160002060020160008282829054906101000a900463ffffffff16610e3391906128c7565b92506101000a81548163ffffffff021916908363ffffffff160217905550426001600083815260200190815260200160002060000181905550807f5c85091c17a5842c079f33795b436b8d466c439605ca6224eb0c0c59624e15a63384604051610e9e9291906129a9565b60405180910390a25050565b610eb2611474565b600073ffffffffffffffffffffffffffffffffffffffff168173ffffffffffffffffffffffffffffffffffffffff161415610f22576040517f08c379a0000000000000000000000000000000000000000000000000000000008152600401610f1990612a44565b60405180910390fd5b610f2b816111d1565b50565b60004630858585604051602001610f49959493929190612a64565b6040516020818303038152906040528051906020012090509392505050565b600081604051602001610f7b9190612b2f565b604051602081830303815290604052805190602001209050919050565b6000806000610fa785856114f2565b91509150610fb481611544565b819250505092915050565b6000808260200151118015610fde57506000826040015163ffffffff16115b61101d576040517f08c379a000000000000000000000000000000000000000000000000000000000815260040161101490612ba1565b60405180910390fd5b6001826040015163ffffffff16141561103c57816020015190506110e4565b60018360ff16141561106957816040015163ffffffff1682602001516110629190612bf0565b90506110e3565b60028360ff1614156110e257600084444260405160200161108c93929190612c21565b6040516020818303038152906040528051906020012060001c905060006002846040015163ffffffff1685602001516110c59190612bf0565b6110cf9190612c58565b905080826110dd9190612cb2565b925050505b5b5b60008114156110f257600190505b9392505050565b600073ffffffffffffffffffffffffffffffffffffffff168373ffffffffffffffffffffffffffffffffffffffff16141561113d5761113882826116b2565b6111cc565b8273ffffffffffffffffffffffffffffffffffffffff1663a9059cbb83836040518363ffffffff1660e01b81526004016111789291906123c4565b602060405180830381600087803b15801561119257600080fd5b505af11580156111a6573d6000803e3d6000fd5b505050506040513d601f19601f820116820180604052508101906111ca919061282e565b505b505050565b60008060009054906101000a900473ffffffffffffffffffffffffffffffffffffffff169050816000806101000a81548173ffffffffffffffffffffffffffffffffffffffff021916908373ffffffffffffffffffffffffffffffffffffffff1602179055508173ffffffffffffffffffffffffffffffffffffffff168173ffffffffffffffffffffffffffffffffffffffff167f8be0079c531659141344cd1fd0a4f28419497f9722a3daafe3b4186f6b6457e060405160405180910390a35050565b60006112c37f360894a13ba1a3210667c828492db98dca3e2076cc3735a920a3ca505d382bbc60001b6117a6565b60000160009054906101000a900473ffffffffffffffffffffffffffffffffffffffff16905090565b6112f4611474565b50565b6113237f4910fdfa16fed3260ed0e7147f7cc6da11a60208b5b9406d12a635614ffd914360001b6117b0565b60000160009054906101000a900460ff161561134757611342836117ba565b61146f565b8273ffffffffffffffffffffffffffffffffffffffff166352d1902d6040518163ffffffff1660e01b815260040160206040518083038186803b15801561138d57600080fd5b505afa9250505080156113be57506040513d601f19601f820116820180604052508101906113bb9190612cf8565b60015b6113fd576040517f08c379a00000000000000000000000000000000000000000000000000000000081526004016113f490612d97565b60405180910390fd5b7f360894a13ba1a3210667c828492db98dca3e2076cc3735a920a3ca505d382bbc60001b8114611462576040517f08c379a000000000000000000000000000000000000000000000000000000000815260040161145990612e29565b60405180910390fd5b5061146e838383611873565b5b505050565b61147c61189f565b73ffffffffffffffffffffffffffffffffffffffff1661149a610bb7565b73ffffffffffffffffffffffffffffffffffffffff16146114f0576040517f08c379a00000000000000000000000000000000000000000000000000000000081526004016114e790612e95565b60405180910390fd5b565b6000806041835114156115345760008060006020860151925060408601519150606086015160001a9050611528878285856118a7565b9450945050505061153d565b60006002915091505b9250929050565b6000600481111561155857611557612eb5565b5b81600481111561156b5761156a612eb5565b5b1415611576576116af565b6001600481111561158a57611589612eb5565b5b81600481111561159d5761159c612eb5565b5b14156115de576040517f08c379a00000000000000000000000000000000000000000000000000000000081526004016115d590612f30565b60405180910390fd5b600260048111156115f2576115f1612eb5565b5b81600481111561160557611604612eb5565b5b1415611646576040517f08c379a000000000000000000000000000000000000000000000000000000000815260040161163d90612f9c565b60405180910390fd5b6003600481111561165a57611659612eb5565b5b81600481111561166d5761166c612eb5565b5b14156116ae576040517f08c379a00000000000000000000000000000000000000000000000000000000081526004016116a59061302e565b60405180910390fd5b5b50565b804710156116f5576040517f08c379a00000000000000000000000000000000000000000000000000000000081526004016116ec9061309a565b60405180910390fd5b60008273ffffffffffffffffffffffffffffffffffffffff168260405161171b906130eb565b60006040518083038185875af1925050503d8060008114611758576040519150601f19603f3d011682016040523d82523d6000602084013e61175d565b606091505b50509050806117a1576040517f08c379a000000000000000000000000000000000000000000000000000000000815260040161179890613172565b60405180910390fd5b505050565b6000819050919050565b6000819050919050565b6117c38161198a565b611802576040517f08c379a00000000000000000000000000000000000000000000000000000000081526004016117f990613204565b60405180910390fd5b8061182f7f360894a13ba1a3210667c828492db98dca3e2076cc3735a920a3ca505d382bbc60001b6117a6565b60000160006101000a81548173ffffffffffffffffffffffffffffffffffffffff021916908373ffffffffffffffffffffffffffffffffffffffff16021790555050565b61187c836119ad565b6000825111806118895750805b1561189a5761189883836119fc565b505b505050565b600033905090565b6000807f7fffffffffffffffffffffffffffffff5d576e7357a4501ddfe92f46681b20a08360001c11156118e2576000600391509150611981565b6000600187878787604051600081526020016040526040516119079493929190613233565b6020604051602081039080840390855afa158015611929573d6000803e3d6000fd5b505050602060405103519050600073ffffffffffffffffffffffffffffffffffffffff168173ffffffffffffffffffffffffffffffffffffffff16141561197857600060019250925050611981565b80600092509250505b94509492505050565b6000808273ffffffffffffffffffffffffffffffffffffffff163b119050919050565b6119b6816117ba565b8073ffffffffffffffffffffffffffffffffffffffff167fbc7cd75a20ee27fd9adebab32041f755214dbc6bffa90cc0225b39da2e5c2d3b60405160405180910390a250565b6060611a2183836040518060600160405280602781526020016133d160279139611a29565b905092915050565b60606000808573ffffffffffffffffffffffffffffffffffffffff1685604051611a5391906132e7565b600060405180830381855af49150503d8060008114611a8e576040519150601f19603f3d011682016040523d82523d6000602084013e611a93565b606091505b5091509150611aa486838387611aaf565b925050509392505050565b60608315611b1257600083511415611b0a57611aca8561198a565b611b09576040517f08c379a0000000000000000000000000000000000000000000000000000000008152600401611b009061334a565b60405180910390fd5b5b829050611b1d565b611b1c8383611b25565b5b949350505050565b600082511115611b385781518083602001fd5b806040517f08c379a0000000000000000000000000000000000000000000000000000000008152600401611b6c91906133ae565b60405180910390fd5b60405180606001604052806000815260200160008152602001600063ffffffff1681525090565b6000604051905090565b600080fd5b600080fd5b600073ffffffffffffffffffffffffffffffffffffffff82169050919050565b6000611bdb82611bb0565b9050919050565b611beb81611bd0565b8114611bf657600080fd5b50565b600081359050611c0881611be2565b92915050565b600080fd5b6000601f19601f8301169050919050565b7f4e487b7100000000000000000000000000000000000000000000000000000000600052604160045260246000fd5b611c5c82611c13565b810181811067ffffffffffffffff82111715611c7b57611c7a611c24565b5b80604052505050565b6000611c8e611b9c565b9050611c9a8282611c53565b919050565b6000819050919050565b611cb281611c9f565b8114611cbd57600080fd5b50565b600081359050611ccf81611ca9565b92915050565b6000819050919050565b611ce881611cd5565b8114611cf357600080fd5b50565b600081359050611d0581611cdf565b92915050565b600063ffffffff82169050919050565b611d2481611d0b565b8114611d2f57600080fd5b50565b600081359050611d4181611d1b565b92915050565b600060ff82169050919050565b611d5d81611d47565b8114611d6857600080fd5b50565b600081359050611d7a81611d54565b92915050565b600060c08284031215611d9657611d95611c0e565b5b611da060c0611c84565b90506000611db084828501611bf9565b6000830152506020611dc484828501611cc0565b6020830152506040611dd884828501611cf6565b6040830152506060611dec84828501611bf9565b6060830152506080611e0084828501611d32565b60808301525060a0611e1484828501611d6b565b60a08301525092915050565b600080fd5b600080fd5b600080fd5b60008083601f840112611e4557611e44611e20565b5b8235905067ffffffffffffffff811115611e6257611e61611e25565b5b602083019150836001820283011115611e7e57611e7d611e2a565b5b9250929050565b60008060008060006101208688031215611ea257611ea1611ba6565b5b6000611eb088828901611bf9565b9550506020611ec188828901611d80565b94505060e0611ed288828901611bf9565b93505061010086013567ffffffffffffffff811115611ef457611ef3611bab565b5b611f0088828901611e2f565b92509250509295509295909350565b600060208284031215611f2557611f24611ba6565b5b6000611f3384828501611cc0565b91505092915050565b611f4581611cd5565b82525050565b611f5481611d0b565b82525050565b606082016000820151611f706000850182611f3c565b506020820151611f836020850182611f3c565b506040820151611f966040850182611f4b565b50505050565b6000606082019050611fb16000830184611f5a565b92915050565b600060208284031215611fcd57611fcc611ba6565b5b6000611fdb84828501611bf9565b91505092915050565b60008060408385031215611ffb57611ffa611ba6565b5b600061200985828601611bf9565b925050602061201a85828601611cc0565b9150509250929050565b600080fd5b600067ffffffffffffffff82111561204457612043611c24565b5b61204d82611c13565b9050602081019050919050565b82818337600083830152505050565b600061207c61207784612029565b611c84565b90508281526020810184848401111561209857612097612024565b5b6120a384828561205a565b509392505050565b600082601f8301126120c0576120bf611e20565b5b81356120d0848260208601612069565b91505092915050565b600080604083850312156120f0576120ef611ba6565b5b60006120fe85828601611bf9565b925050602083013567ffffffffffffffff81111561211f5761211e611bab565b5b61212b858286016120ab565b9150509250929050565b61213e81611c9f565b82525050565b60006020820190506121596000830184612135565b92915050565b61216881611bd0565b82525050565b6000602082019050612183600083018461215f565b92915050565b600060c0828403121561219f5761219e611ba6565b5b60006121ad84828501611d80565b91505092915050565b600082825260208201905092915050565b7f416c726561647920636c61696d65640000000000000000000000000000000000600082015250565b60006121fd600f836121b6565b9150612208826121c7565b602082019050919050565b6000602082019050818103600083015261222c816121f0565b9050919050565b7f4e487b7100000000000000000000000000000000000000000000000000000000600052601160045260246000fd5b600061226d82611cd5565b915061227883611cd5565b9250827fffffffffffffffffffffffffffffffffffffffffffffffffffffffffffffffff038211156122ad576122ac612233565b5b828201905092915050565b60006040820190506122cd6000830185612135565b6122da602083018461215f565b9392505050565b7f496e76616c6964207369676e6174757265000000000000000000000000000000600082015250565b60006123176011836121b6565b9150612322826122e1565b602082019050919050565b600060208201905081810360008301526123468161230a565b9050919050565b600061235882611cd5565b915061236383611cd5565b92508282101561237657612375612233565b5b828203905092915050565b600061238c82611d0b565b915061239783611d0b565b9250828210156123aa576123a9612233565b5b828203905092915050565b6123be81611cd5565b82525050565b60006040820190506123d9600083018561215f565b6123e660208301846123b5565b9392505050565b7f4f776e657220616c726561647920736574000000000000000000000000000000600082015250565b60006124236011836121b6565b915061242e826123ed565b602082019050919050565b6000602082019050818103600083015261245281612416565b9050919050565b7f4f776e65722063616e6e6f742062652061646472657373207a65726f00000000600082015250565b600061248f601c836121b6565b915061249a82612459565b602082019050919050565b600060208201905081810360008301526124be81612482565b9050919050565b7f46756e6374696f6e206d7573742062652063616c6c6564207468726f7567682060008201527f64656c656761746563616c6c0000000000000000000000000000000000000000602082015250565b6000612521602c836121b6565b915061252c826124c5565b604082019050919050565b6000602082019050818103600083015261255081612514565b9050919050565b7f46756e6374696f6e206d7573742062652063616c6c6564207468726f7567682060008201527f6163746976652070726f78790000000000000000000000000000000000000000602082015250565b60006125b3602c836121b6565b91506125be82612557565b604082019050919050565b600060208201905081810360008301526125e2816125a6565b9050919050565b7f5061636b6574206c6f636b656400000000000000000000000000000000000000600082015250565b600061261f600d836121b6565b915061262a826125e9565b602082019050919050565b6000602082019050818103600083015261264e81612612565b9050919050565b7f555550535570677261646561626c653a206d757374206e6f742062652063616c60008201527f6c6564207468726f7567682064656c656761746563616c6c0000000000000000602082015250565b60006126b16038836121b6565b91506126bc82612655565b604082019050919050565b600060208201905081810360008301526126e0816126a4565b9050919050565b7f496e76616c6964206d6f64650000000000000000000000000000000000000000600082015250565b600061271d600c836121b6565b9150612728826126e7565b602082019050919050565b6000602082019050818103600083015261274c81612710565b9050919050565b7f5061636b657420616c7265616479206372656174656400000000000000000000600082015250565b60006127896016836121b6565b915061279482612753565b602082019050919050565b600060208201905081810360008301526127b88161277c565b9050919050565b60006060820190506127d4600083018661215f565b6127e1602083018561215f565b6127ee60408301846123b5565b949350505050565b60008115159050919050565b61280b816127f6565b811461281657600080fd5b50565b60008151905061282881612802565b92915050565b60006020828403121561284457612843611ba6565b5b600061285284828501612819565b91505092915050565b7f496e73756666696369656e742062616c616e6365000000000000000000000000600082015250565b60006128916014836121b6565b915061289c8261285b565b602082019050919050565b600060208201905081810360008301526128c081612884565b9050919050565b60006128d282611d0b565b91506128dd83611d0b565b92508263ffffffff038211156128f6576128f5612233565b5b828201905092915050565b61290a81611bd0565b82525050565b61291981611c9f565b82525050565b61292881611d47565b82525050565b60c0820160008201516129446000850182612901565b5060208201516129576020850182612910565b50604082015161296a6040850182611f3c565b50606082015161297d6060850182612901565b5060808201516129906080850182611f4b565b5060a08201516129a360a085018261291f565b50505050565b600060e0820190506129be600083018561215f565b6129cb602083018461292e565b9392505050565b7f4f776e61626c653a206e6577206f776e657220697320746865207a65726f206160008201527f6464726573730000000000000000000000000000000000000000000000000000602082015250565b6000612a2e6026836121b6565b9150612a39826129d2565b604082019050919050565b60006020820190508181036000830152612a5d81612a21565b9050919050565b600060a082019050612a7960008301886123b5565b612a86602083018761215f565b612a93604083018661215f565b612aa0606083018561215f565b612aad6080830184612135565b9695505050505050565b600081905092915050565b7f19457468657265756d205369676e6564204d6573736167653a0a333200000000600082015250565b6000612af8601c83612ab7565b9150612b0382612ac2565b601c82019050919050565b6000819050919050565b612b29612b2482611c9f565b612b0e565b82525050565b6000612b3a82612aeb565b9150612b468284612b18565b60208201915081905092915050565b7f456d707479205061636b65740000000000000000000000000000000000000000600082015250565b6000612b8b600c836121b6565b9150612b9682612b55565b602082019050919050565b60006020820190508181036000830152612bba81612b7e565b9050919050565b7f4e487b7100000000000000000000000000000000000000000000000000000000600052601260045260246000fd5b6000612bfb82611cd5565b9150612c0683611cd5565b925082612c1657612c15612bc1565b5b828204905092915050565b6000606082019050612c36600083018661215f565b612c4360208301856123b5565b612c5060408301846123b5565b949350505050565b6000612c6382611cd5565b9150612c6e83611cd5565b9250817fffffffffffffffffffffffffffffffffffffffffffffffffffffffffffffffff0483118215151615612ca757612ca6612233565b5b828202905092915050565b6000612cbd82611cd5565b9150612cc883611cd5565b925082612cd857612cd7612bc1565b5b828206905092915050565b600081519050612cf281611ca9565b92915050565b600060208284031215612d0e57612d0d611ba6565b5b6000612d1c84828501612ce3565b91505092915050565b7f45524331393637557067726164653a206e657720696d706c656d656e7461746960008201527f6f6e206973206e6f742055555053000000000000000000000000000000000000602082015250565b6000612d81602e836121b6565b9150612d8c82612d25565b604082019050919050565b60006020820190508181036000830152612db081612d74565b9050919050565b7f45524331393637557067726164653a20756e737570706f727465642070726f7860008201527f6961626c65555549440000000000000000000000000000000000000000000000602082015250565b6000612e136029836121b6565b9150612e1e82612db7565b604082019050919050565b60006020820190508181036000830152612e4281612e06565b9050919050565b7f4f776e61626c653a2063616c6c6572206973206e6f7420746865206f776e6572600082015250565b6000612e7f6020836121b6565b9150612e8a82612e49565b602082019050919050565b60006020820190508181036000830152612eae81612e72565b9050919050565b7f4e487b7100000000000000000000000000000000000000000000000000000000600052602160045260246000fd5b7f45434453413a20696e76616c6964207369676e61747572650000000000000000600082015250565b6000612f1a6018836121b6565b9150612f2582612ee4565b602082019050919050565b60006020820190508181036000830152612f4981612f0d565b9050919050565b7f45434453413a20696e76616c6964207369676e6174757265206c656e67746800600082015250565b6000612f86601f836121b6565b9150612f9182612f50565b602082019050919050565b60006020820190508181036000830152612fb581612f79565b9050919050565b7f45434453413a20696e76616c6964207369676e6174757265202773272076616c60008201527f7565000000000000000000000000000000000000000000000000000000000000602082015250565b60006130186022836121b6565b915061302382612fbc565b604082019050919050565b600060208201905081810360008301526130478161300b565b9050919050565b7f416464726573733a20696e73756666696369656e742062616c616e6365000000600082015250565b6000613084601d836121b6565b915061308f8261304e565b602082019050919050565b600060208201905081810360008301526130b381613077565b9050919050565b600081905092915050565b50565b60006130d56000836130ba565b91506130e0826130c5565b600082019050919050565b60006130f6826130c8565b9150819050919050565b7f416464726573733a20756e61626c6520746f2073656e642076616c75652c207260008201527f6563697069656e74206d61792068617665207265766572746564000000000000602082015250565b600061315c603a836121b6565b915061316782613100565b604082019050919050565b6000602082019050818103600083015261318b8161314f565b9050919050565b7f455243313936373a206e657720696d706c656d656e746174696f6e206973206e60008201527f6f74206120636f6e747261637400000000000000000000000000000000000000602082015250565b60006131ee602d836121b6565b91506131f982613192565b604082019050919050565b6000602082019050818103600083015261321d816131e1565b9050919050565b61322d81611d47565b82525050565b60006080820190506132486000830187612135565b6132556020830186613224565b6132626040830185612135565b61326f6060830184612135565b95945050505050565b600081519050919050565b60005b838110156132a1578082015181840152602081019050613286565b838111156132b0576000848401525b50505050565b60006132c182613278565b6132cb81856130ba565b93506132db818560208601613283565b80840191505092915050565b60006132f382846132b6565b915081905092915050565b7f416464726573733a2063616c6c20746f206e6f6e2d636f6e7472616374000000600082015250565b6000613334601d836121b6565b915061333f826132fe565b602082019050919050565b6000602082019050818103600083015261336381613327565b9050919050565b600081519050919050565b60006133808261336a565b61338a81856121b6565b935061339a818560208601613283565b6133a381611c13565b840191505092915050565b600060208201905081810360008301526133c88184613375565b90509291505056fe416464726573733a206c6f772d6c6576656c2064656c65676174652063616c6c206661696c6564a264697066735822122029dd6399815476a880426d4155c495737c8c0ad3ae02f95a126aef1dc79bd8e264736f6c63430008080033",
  "devdoc": {
    "kind": "dev",
    "methods": {
      "owner()": {
        "details": "Returns the address of the current owner."
      },
      "proxiableUUID()": {
        "details": "Implementation of the ERC1822 {proxiableUUID} function. This returns the storage slot used by the implementation. It is used to validate the implementation's compatibility when performing an upgrade. IMPORTANT: A proxy pointing at a proxiable contract should not be considered proxiable itself, because this risks bricking a proxy that upgrades to it, by delegating to itself until out of gas. Thus it is critical that this function revert if invoked through a proxy. This is guaranteed by the `notDelegated` modifier."
      },
      "renounceOwnership()": {
        "details": "Leaves the contract without owner. It will not be possible to call `onlyOwner` functions anymore. Can only be called by the current owner. NOTE: Renouncing ownership will leave the contract without an owner, thereby removing any functionality that is only available to the owner."
      },
      "transferOwnership(address)": {
        "details": "Transfers ownership of the contract to a new account (`newOwner`). Can only be called by the current owner."
      },
      "upgradeTo(address)": {
        "details": "Upgrade the implementation of the proxy to `newImplementation`. Calls {_authorizeUpgrade}. Emits an {Upgraded} event."
      },
      "upgradeToAndCall(address,bytes)": {
        "details": "Upgrade the implementation of the proxy to `newImplementation`, and subsequently execute the function call encoded in `data`. Calls {_authorizeUpgrade}. Emits an {Upgraded} event."
      }
    },
    "version": 1
  },
  "userdoc": {
    "kind": "user",
    "methods": {},
    "version": 1
  },
  "storageLayout": {
    "storage": [
      {
        "astId": 7,
        "contract": "contracts/apps/HappyRedPacket.sol:HappyRedPacket",
        "label": "_owner",
        "offset": 0,
        "slot": "0",
        "type": "t_address"
      },
      {
        "astId": 2519,
        "contract": "contracts/apps/HappyRedPacket.sol:HappyRedPacket",
        "label": "packets_",
        "offset": 0,
        "slot": "1",
        "type": "t_mapping(t_bytes32,t_struct(RedPacket)2514_storage)"
      },
      {
        "astId": 2525,
        "contract": "contracts/apps/HappyRedPacket.sol:HappyRedPacket",
        "label": "count_",
        "offset": 0,
        "slot": "2",
        "type": "t_mapping(t_bytes32,t_mapping(t_address,t_uint256))"
      }
    ],
    "types": {
      "t_address": {
        "encoding": "inplace",
        "label": "address",
        "numberOfBytes": "20"
      },
      "t_bytes32": {
        "encoding": "inplace",
        "label": "bytes32",
        "numberOfBytes": "32"
      },
      "t_mapping(t_address,t_uint256)": {
        "encoding": "mapping",
        "key": "t_address",
        "label": "mapping(address => uint256)",
        "numberOfBytes": "32",
        "value": "t_uint256"
      },
      "t_mapping(t_bytes32,t_mapping(t_address,t_uint256))": {
        "encoding": "mapping",
        "key": "t_bytes32",
        "label": "mapping(bytes32 => mapping(address => uint256))",
        "numberOfBytes": "32",
        "value": "t_mapping(t_address,t_uint256)"
      },
      "t_mapping(t_bytes32,t_struct(RedPacket)2514_storage)": {
        "encoding": "mapping",
        "key": "t_bytes32",
        "label": "mapping(bytes32 => struct HappyRedPacket.RedPacket)",
        "numberOfBytes": "32",
        "value": "t_struct(RedPacket)2514_storage"
      },
      "t_struct(RedPacket)2514_storage": {
        "encoding": "inplace",
        "label": "struct HappyRedPacket.RedPacket",
        "members": [
          {
            "astId": 2509,
            "contract": "contracts/apps/HappyRedPacket.sol:HappyRedPacket",
            "label": "createdAt",
            "offset": 0,
            "slot": "0",
            "type": "t_uint256"
          },
          {
            "astId": 2511,
            "contract": "contracts/apps/HappyRedPacket.sol:HappyRedPacket",
            "label": "balance",
            "offset": 0,
            "slot": "1",
            "type": "t_uint256"
          },
          {
            "astId": 2513,
            "contract": "contracts/apps/HappyRedPacket.sol:HappyRedPacket",
            "label": "split",
            "offset": 0,
            "slot": "2",
            "type": "t_uint32"
          }
        ],
        "numberOfBytes": "96"
      },
      "t_uint256": {
        "encoding": "inplace",
        "label": "uint256",
        "numberOfBytes": "32"
      },
      "t_uint32": {
        "encoding": "inplace",
        "label": "uint32",
        "numberOfBytes": "4"
      }
    }
  }
}