{
  "address": "0xD6150A0fE5cDf506Ad5E4C6F301b6B056f25d3d7",
  "abi": [
    {
      "anonymous": false,
      "inputs": [
        {
          "indexed": false,
          "internalType": "address",
          "name": "previousAdmin",
          "type": "address"
        },
        {
          "indexed": false,
          "internalType": "address",
          "name": "newAdmin",
          "type": "address"
        }
      ],
      "name": "AdminChanged",
      "type": "event"
    },
    {
      "anonymous": false,
      "inputs": [
        {
          "indexed": true,
          "internalType": "address",
          "name": "beacon",
          "type": "address"
        }
      ],
      "name": "BeaconUpgraded",
      "type": "event"
    },
    {
      "anonymous": false,
      "inputs": [
        {
          "indexed": true,
          "internalType": "bytes32",
          "name": "PacketId",
          "type": "bytes32"
        },
        {
          "indexed": false,
          "internalType": "address",
          "name": "claimer",
          "type": "address"
        },
        {
          "indexed": false,
          "internalType": "uint256",
          "name": "amount",
          "type": "uint256"
        }
      ],
      "name": "Claimed",
      "type": "event"
    },
    {
      "anonymous": false,
      "inputs": [
        {
          "indexed": true,
          "internalType": "bytes32",
          "name": "PacketId",
          "type": "bytes32"
        },
        {
          "indexed": false,
          "internalType": "address",
          "name": "creator",
          "type": "address"
        },
        {
          "components": [
            {
              "internalType": "address",
              "name": "token",
              "type": "address"
            },
            {
              "internalType": "bytes32",
              "name": "salt",
              "type": "bytes32"
            },
            {
              "internalType": "uint256",
              "name": "balance",
              "type": "uint256"
            },
            {
              "internalType": "address",
              "name": "validator",
              "type": "address"
            },
            {
              "internalType": "uint32",
              "name": "split",
              "type": "uint32"
            },
            {
              "internalType": "uint8",
              "name": "mode",
              "type": "uint8"
            }
          ],
          "indexed": false,
          "internalType": "struct HappyRedPacket.RedPacketData",
          "name": "packet",
          "type": "tuple"
        }
      ],
      "name": "Created",
      "type": "event"
    },
    {
      "anonymous": false,
      "inputs": [
        {
          "indexed": true,
          "internalType": "address",
          "name": "previousOwner",
          "type": "address"
        },
        {
          "indexed": true,
          "internalType": "address",
          "name": "newOwner",
          "type": "address"
        }
      ],
      "name": "OwnershipTransferred",
      "type": "event"
    },
    {
      "anonymous": false,
      "inputs": [
        {
          "indexed": true,
          "internalType": "address",
          "name": "implementation",
          "type": "address"
        }
      ],
      "name": "Upgraded",
      "type": "event"
    },
    {
      "inputs": [
        {
          "internalType": "address",
          "name": "creator",
          "type": "address"
        },
        {
          "components": [
            {
              "internalType": "address",
              "name": "token",
              "type": "address"
            },
            {
              "internalType": "bytes32",
              "name": "salt",
              "type": "bytes32"
            },
            {
              "internalType": "uint256",
              "name": "balance",
              "type": "uint256"
            },
            {
              "internalType": "address",
              "name": "validator",
              "type": "address"
            },
            {
              "internalType": "uint32",
              "name": "split",
              "type": "uint32"
            },
            {
              "internalType": "uint8",
              "name": "mode",
              "type": "uint8"
            }
          ],
          "internalType": "struct HappyRedPacket.RedPacketData",
          "name": "pd",
          "type": "tuple"
        },
        {
          "internalType": "address",
          "name": "claimer",
          "type": "address"
        },
        {
          "internalType": "bytes",
          "name": "signature",
          "type": "bytes"
        }
      ],
      "name": "claim",
      "outputs": [],
      "stateMutability": "nonpayable",
      "type": "function"
    },
    {
      "inputs": [
        {
          "internalType": "address",
          "name": "creator",
          "type": "address"
        },
        {
          "components": [
            {
              "internalType": "address",
              "name": "token",
              "type": "address"
            },
            {
              "internalType": "bytes32",
              "name": "salt",
              "type": "bytes32"
            },
            {
              "internalType": "uint256",
              "name": "balance",
              "type": "uint256"
            },
            {
              "internalType": "address",
              "name": "validator",
              "type": "address"
            },
            {
              "internalType": "uint32",
              "name": "split",
              "type": "uint32"
            },
            {
              "internalType": "uint8",
              "name": "mode",
              "type": "uint8"
            }
          ],
          "internalType": "struct HappyRedPacket.RedPacketData",
          "name": "pd",
          "type": "tuple"
        },
        {
          "internalType": "address",
          "name": "claimer",
          "type": "address"
        }
      ],
      "name": "claimWithoutSignature",
      "outputs": [],
      "stateMutability": "nonpayable",
      "type": "function"
    },
    {
      "inputs": [
        {
          "components": [
            {
              "internalType": "address",
              "name": "token",
              "type": "address"
            },
            {
              "internalType": "bytes32",
              "name": "salt",
              "type": "bytes32"
            },
            {
              "internalType": "uint256",
              "name": "balance",
              "type": "uint256"
            },
            {
              "internalType": "address",
              "name": "validator",
              "type": "address"
            },
            {
              "internalType": "uint32",
              "name": "split",
              "type": "uint32"
            },
            {
              "internalType": "uint8",
              "name": "mode",
              "type": "uint8"
            }
          ],
          "internalType": "struct HappyRedPacket.RedPacketData",
          "name": "pd",
          "type": "tuple"
        }
      ],
      "name": "create",
      "outputs": [],
      "stateMutability": "payable",
      "type": "function"
    },
    {
      "inputs": [
        {
          "internalType": "bytes32",
          "name": "id",
          "type": "bytes32"
        }
      ],
      "name": "getPacket",
      "outputs": [
        {
          "components": [
            {
              "internalType": "uint256",
              "name": "createdAt",
              "type": "uint256"
            },
            {
              "internalType": "uint256",
              "name": "balance",
              "type": "uint256"
            },
            {
              "internalType": "uint32",
              "name": "split",
              "type": "uint32"
            }
          ],
          "internalType": "struct HappyRedPacket.RedPacket",
          "name": "",
          "type": "tuple"
        }
      ],
      "stateMutability": "view",
      "type": "function"
    },
    {
      "inputs": [],
      "name": "implementation",
      "outputs": [
        {
          "internalType": "address",
          "name": "",
          "type": "address"
        }
      ],
      "stateMutability": "view",
      "type": "function"
    },
    {
      "inputs": [
        {
          "internalType": "address",
          "name": "newOwner",
          "type": "address"
        }
      ],
      "name": "initOwner",
      "outputs": [],
      "stateMutability": "nonpayable",
      "type": "function"
    },
    {
      "inputs": [],
      "name": "owner",
      "outputs": [
        {
          "internalType": "address",
          "name": "",
          "type": "address"
        }
      ],
      "stateMutability": "view",
      "type": "function"
    },
    {
      "inputs": [],
      "name": "proxiableUUID",
      "outputs": [
        {
          "internalType": "bytes32",
          "name": "",
          "type": "bytes32"
        }
      ],
      "stateMutability": "view",
      "type": "function"
    },
    {
      "inputs": [
        {
          "components": [
            {
              "internalType": "address",
              "name": "token",
              "type": "address"
            },
            {
              "internalType": "bytes32",
              "name": "salt",
              "type": "bytes32"
            },
            {
              "internalType": "uint256",
              "name": "balance",
              "type": "uint256"
            },
            {
              "internalType": "address",
              "name": "validator",
              "type": "address"
            },
            {
              "internalType": "uint32",
              "name": "split",
              "type": "uint32"
            },
            {
              "internalType": "uint8",
              "name": "mode",
              "type": "uint8"
            }
          ],
          "internalType": "struct HappyRedPacket.RedPacketData",
          "name": "pd",
          "type": "tuple"
        }
      ],
      "name": "refund",
      "outputs": [],
      "stateMutability": "nonpayable",
      "type": "function"
    },
    {
      "inputs": [],
      "name": "renounceOwnership",
      "outputs": [],
      "stateMutability": "nonpayable",
      "type": "function"
    },
    {
      "inputs": [
        {
          "internalType": "address",
          "name": "newOwner",
          "type": "address"
        }
      ],
      "name": "transferOwnership",
      "outputs": [],
      "stateMutability": "nonpayable",
      "type": "function"
    },
    {
      "inputs": [
        {
          "internalType": "address",
          "name": "newImplementation",
          "type": "address"
        }
      ],
      "name": "upgradeTo",
      "outputs": [],
      "stateMutability": "nonpayable",
      "type": "function"
    },
    {
      "inputs": [
        {
          "internalType": "address",
          "name": "newImplementation",
          "type": "address"
        },
        {
          "internalType": "bytes",
          "name": "data",
          "type": "bytes"
        }
      ],
      "name": "upgradeToAndCall",
      "outputs": [],
      "stateMutability": "payable",
      "type": "function"
    }
  ],
  "transactionHash": "0x585170981c7614ee1c0154a7156933bcdf8f5c53147deacc8629a228290e5b30",
  "args": [],
  "numDeployments": 9,
  "solcInputHash": "a9c5cb8803e276f1fb3d94f497691451",
  "bytecode": "0x60a06040523073ffffffffffffffffffffffffffffffffffffffff1660809073ffffffffffffffffffffffffffffffffffffffff1660601b8152503480156200004757600080fd5b50620000686200005c6200006e60201b60201c565b6200007660201b60201c565b6200013a565b600033905090565b60008060009054906101000a900473ffffffffffffffffffffffffffffffffffffffff169050816000806101000a81548173ffffffffffffffffffffffffffffffffffffffff021916908373ffffffffffffffffffffffffffffffffffffffff1602179055508173ffffffffffffffffffffffffffffffffffffffff168173ffffffffffffffffffffffffffffffffffffffff167f8be0079c531659141344cd1fd0a4f28419497f9722a3daafe3b4186f6b6457e060405160405180910390a35050565b60805160601c61365a6200017560003960008181610562015281816105f1015281816106eb0152818161077a015261082a015261365a6000f3fe6080604052600436106100c25760003560e01c80635c60da1b1161007f578063aac52f0611610059578063aac52f0614610233578063eed46b6f1461025c578063ef2370a914610285578063f2fde38b146102a1576100c2565b80635c60da1b146101c6578063715018a6146101f15780638da5cb5b14610208576100c2565b806307988198146100c75780630b524856146100f05780630d0092971461012d5780633659cfe6146101565780634f1ef2861461017f57806352d1902d1461019b575b600080fd5b3480156100d357600080fd5b506100ee60048036038101906100e99190611dd5565b6102ca565b005b3480156100fc57600080fd5b5061011760048036038101906101129190611e95565b610407565b6040516101249190611f3c565b60405180910390f35b34801561013957600080fd5b50610154600480360381019061014f9190611f57565b61046e565b005b34801561016257600080fd5b5061017d60048036038101906101789190611f57565b610560565b005b610199600480360381019061019491906120c5565b6106e9565b005b3480156101a757600080fd5b506101b0610826565b6040516101bd9190612130565b60405180910390f35b3480156101d257600080fd5b506101db6108df565b6040516101e8919061215a565b60405180910390f35b3480156101fd57600080fd5b506102066108ee565b005b34801561021457600080fd5b5061021d610902565b60405161022a919061215a565b60405180910390f35b34801561023f57600080fd5b5061025a60048036038101906102559190612175565b61092b565b005b34801561026857600080fd5b50610283600480360381019061027e91906121c9565b6109d4565b005b61029f600480360381019061029a91906121c9565b610a9b565b005b3480156102ad57600080fd5b506102c860048036038101906102c39190611f57565b610da2565b005b60006102d68686610e26565b90506102e28185610e5d565b600081856040516020016102f79291906121f6565b604051602081830303815290604052805190602001209050600061031a82610f5c565b905061037385858080601f016020809104026020016040519081016040528093929190818152602001838380828437600081840152601f19601f8201169050808301925050505050505082610f8c90919063ffffffff16565b73ffffffffffffffffffffffffffffffffffffffff1687606001602081019061039c9190611f57565b73ffffffffffffffffffffffffffffffffffffffff16146103f2576040517f08c379a00000000000000000000000000000000000000000000000000000000081526004016103e99061227c565b60405180910390fd5b6103fd838888610fb3565b5050505050505050565b61040f611cb3565b6001600083815260200190815260200160002060405180606001604052908160008201548152602001600182015481526020016002820160009054906101000a900463ffffffff1663ffffffff1663ffffffff16815250509050919050565b600073ffffffffffffffffffffffffffffffffffffffff1661048e610902565b73ffffffffffffffffffffffffffffffffffffffff16146104e4576040517f08c379a00000000000000000000000000000000000000000000000000000000081526004016104db906122e8565b60405180910390fd5b600073ffffffffffffffffffffffffffffffffffffffff168173ffffffffffffffffffffffffffffffffffffffff161415610554576040517f08c379a000000000000000000000000000000000000000000000000000000000815260040161054b90612354565b60405180910390fd5b61055d816110fd565b50565b7f000000000000000000000000000000000000000000000000000000000000000073ffffffffffffffffffffffffffffffffffffffff163073ffffffffffffffffffffffffffffffffffffffff1614156105ef576040517f08c379a00000000000000000000000000000000000000000000000000000000081526004016105e6906123e6565b60405180910390fd5b7f000000000000000000000000000000000000000000000000000000000000000073ffffffffffffffffffffffffffffffffffffffff1661062e6111c1565b73ffffffffffffffffffffffffffffffffffffffff1614610684576040517f08c379a000000000000000000000000000000000000000000000000000000000815260040161067b90612478565b60405180910390fd5b61068d81611218565b6106e681600067ffffffffffffffff8111156106ac576106ab611f9a565b5b6040519080825280601f01601f1916602001820160405280156106de5781602001600182028036833780820191505090505b506000611223565b50565b7f000000000000000000000000000000000000000000000000000000000000000073ffffffffffffffffffffffffffffffffffffffff163073ffffffffffffffffffffffffffffffffffffffff161415610778576040517f08c379a000000000000000000000000000000000000000000000000000000000815260040161076f906123e6565b60405180910390fd5b7f000000000000000000000000000000000000000000000000000000000000000073ffffffffffffffffffffffffffffffffffffffff166107b76111c1565b73ffffffffffffffffffffffffffffffffffffffff161461080d576040517f08c379a000000000000000000000000000000000000000000000000000000000815260040161080490612478565b60405180910390fd5b61081682611218565b61082282826001611223565b5050565b60007f000000000000000000000000000000000000000000000000000000000000000073ffffffffffffffffffffffffffffffffffffffff163073ffffffffffffffffffffffffffffffffffffffff16146108b6576040517f08c379a00000000000000000000000000000000000000000000000000000000081526004016108ad9061250a565b60405180910390fd5b7f360894a13ba1a3210667c828492db98dca3e2076cc3735a920a3ca505d382bbc60001b905090565b60006108e96111c1565b905090565b6108f66113a0565b61090060006110fd565b565b60008060009054906101000a900473ffffffffffffffffffffffffffffffffffffffff16905090565b81606001602081019061093e9190611f57565b73ffffffffffffffffffffffffffffffffffffffff163373ffffffffffffffffffffffffffffffffffffffff16146109ab576040517f08c379a00000000000000000000000000000000000000000000000000000000081526004016109a290612576565b60405180910390fd5b60006109b78484610e26565b90506109c38183610e5d565b6109ce818484610fb3565b50505050565b60006109e03383610e26565b905062015180600160008381526020019081526020016000206000015442610a0891906125c5565b11610a48576040517f08c379a0000000000000000000000000000000000000000000000000000000008152600401610a3f90612645565b60405180910390fd5b610a7b826000016020810190610a5e9190611f57565b33600160008581526020019081526020016000206001015461141e565b600060016000838152602001908152602001600020600101819055505050565b60018160a0016020810190610ab0919061269e565b60ff161480610ad4575060028160a0016020810190610acf919061269e565b60ff16145b610b13576040517f08c379a0000000000000000000000000000000000000000000000000000000008152600401610b0a90612717565b60405180910390fd5b6000610b1f3383610e26565b90506000600160008381526020019081526020016000206000015414610b7a576040517f08c379a0000000000000000000000000000000000000000000000000000000008152600401610b7190612783565b60405180910390fd5b600073ffffffffffffffffffffffffffffffffffffffff16826000016020810190610ba59190611f57565b73ffffffffffffffffffffffffffffffffffffffff1614610c6b57816000016020810190610bd39190611f57565b73ffffffffffffffffffffffffffffffffffffffff166323b872dd333085604001356040518463ffffffff1660e01b8152600401610c13939291906127b2565b602060405180830381600087803b158015610c2d57600080fd5b505af1158015610c41573d6000803e3d6000fd5b505050506040513d601f19601f82011682018060405250810190610c659190612821565b50610cb3565b8160400135341015610cb2576040517f08c379a0000000000000000000000000000000000000000000000000000000008152600401610ca99061289a565b60405180910390fd5b5b8160400135600160008381526020019081526020016000206001016000828254610cdd91906128ba565b92505081905550816080016020810190610cf7919061293c565b6001600083815260200190815260200160002060020160008282829054906101000a900463ffffffff16610d2b9190612969565b92506101000a81548163ffffffff021916908363ffffffff160217905550426001600083815260200190815260200160002060000181905550807f5c85091c17a5842c079f33795b436b8d466c439605ca6224eb0c0c59624e15a63384604051610d96929190612b1a565b60405180910390a25050565b610daa6113a0565b600073ffffffffffffffffffffffffffffffffffffffff168173ffffffffffffffffffffffffffffffffffffffff161415610e1a576040517f08c379a0000000000000000000000000000000000000000000000000000000008152600401610e1190612bb5565b60405180910390fd5b610e23816110fd565b50565b600046308484604051602001610e3f9493929190612bd5565b60405160208183030381529060405280519060200120905092915050565b60006002600084815260200190815260200160002060008373ffffffffffffffffffffffffffffffffffffffff1673ffffffffffffffffffffffffffffffffffffffff1681526020019081526020016000205414610ef0576040517f08c379a0000000000000000000000000000000000000000000000000000000008152600401610ee790612c67565b60405180910390fd5b60016002600084815260200190815260200160002060008373ffffffffffffffffffffffffffffffffffffffff1673ffffffffffffffffffffffffffffffffffffffff1681526020019081526020016000206000828254610f5191906128ba565b925050819055505050565b600081604051602001610f6f9190612cff565b604051602081830303815290604052805190602001209050919050565b6000806000610f9b85856114f6565b91509150610fa881611548565b819250505092915050565b60006001600085815260200190815260200160002060405180606001604052908160008201548152602001600182015481526020016002820160009054906101000a900463ffffffff1663ffffffff1663ffffffff16815250509050600061102e838560a0016020810190611028919061269e565b846116b6565b905080826020015161104091906125c5565b60016000878152602001908152602001600020600101819055506001826040015161106b9190612d25565b6001600087815260200190815260200160002060020160006101000a81548163ffffffff021916908363ffffffff1602179055506110bc8460000160208101906110b59190611f57565b848361141e565b847f0508a8b4117d9a7b3d8f5895f6413e61b4f9a2df35afbfb41e78d0ecfff1843f84836040516110ee929190612d59565b60405180910390a25050505050565b60008060009054906101000a900473ffffffffffffffffffffffffffffffffffffffff169050816000806101000a81548173ffffffffffffffffffffffffffffffffffffffff021916908373ffffffffffffffffffffffffffffffffffffffff1602179055508173ffffffffffffffffffffffffffffffffffffffff168173ffffffffffffffffffffffffffffffffffffffff167f8be0079c531659141344cd1fd0a4f28419497f9722a3daafe3b4186f6b6457e060405160405180910390a35050565b60006111ef7f360894a13ba1a3210667c828492db98dca3e2076cc3735a920a3ca505d382bbc60001b6117f0565b60000160009054906101000a900473ffffffffffffffffffffffffffffffffffffffff16905090565b6112206113a0565b50565b61124f7f4910fdfa16fed3260ed0e7147f7cc6da11a60208b5b9406d12a635614ffd914360001b6117fa565b60000160009054906101000a900460ff16156112735761126e83611804565b61139b565b8273ffffffffffffffffffffffffffffffffffffffff166352d1902d6040518163ffffffff1660e01b815260040160206040518083038186803b1580156112b957600080fd5b505afa9250505080156112ea57506040513d601f19601f820116820180604052508101906112e79190612d97565b60015b611329576040517f08c379a000000000000000000000000000000000000000000000000000000000815260040161132090612e36565b60405180910390fd5b7f360894a13ba1a3210667c828492db98dca3e2076cc3735a920a3ca505d382bbc60001b811461138e576040517f08c379a000000000000000000000000000000000000000000000000000000000815260040161138590612ec8565b60405180910390fd5b5061139a8383836118bd565b5b505050565b6113a86118e9565b73ffffffffffffffffffffffffffffffffffffffff166113c6610902565b73ffffffffffffffffffffffffffffffffffffffff161461141c576040517f08c379a000000000000000000000000000000000000000000000000000000000815260040161141390612f34565b60405180910390fd5b565b600073ffffffffffffffffffffffffffffffffffffffff168373ffffffffffffffffffffffffffffffffffffffff1614156114625761145d82826118f1565b6114f1565b8273ffffffffffffffffffffffffffffffffffffffff1663a9059cbb83836040518363ffffffff1660e01b815260040161149d929190612d59565b602060405180830381600087803b1580156114b757600080fd5b505af11580156114cb573d6000803e3d6000fd5b505050506040513d601f19601f820116820180604052508101906114ef9190612821565b505b505050565b6000806041835114156115385760008060006020860151925060408601519150606086015160001a905061152c878285856119e5565b94509450505050611541565b60006002915091505b9250929050565b6000600481111561155c5761155b612f54565b5b81600481111561156f5761156e612f54565b5b141561157a576116b3565b6001600481111561158e5761158d612f54565b5b8160048111156115a1576115a0612f54565b5b14156115e2576040517f08c379a00000000000000000000000000000000000000000000000000000000081526004016115d990612fcf565b60405180910390fd5b600260048111156115f6576115f5612f54565b5b81600481111561160957611608612f54565b5b141561164a576040517f08c379a00000000000000000000000000000000000000000000000000000000081526004016116419061303b565b60405180910390fd5b6003600481111561165e5761165d612f54565b5b81600481111561167157611670612f54565b5b14156116b2576040517f08c379a00000000000000000000000000000000000000000000000000000000081526004016116a9906130cd565b60405180910390fd5b5b50565b60008082602001511180156116d557506000826040015163ffffffff16115b611714576040517f08c379a000000000000000000000000000000000000000000000000000000000815260040161170b90613139565b60405180910390fd5b6001826040015163ffffffff16141561173357816020015190506117db565b60018360ff16141561176057816040015163ffffffff1682602001516117599190613188565b90506117da565b60028360ff1614156117d9576000844442604051602001611783939291906131b9565b6040516020818303038152906040528051906020012060001c905060006002846040015163ffffffff1685602001516117bc9190613188565b6117c691906131f0565b905080826117d4919061324a565b925050505b5b5b60008114156117e957600190505b9392505050565b6000819050919050565b6000819050919050565b61180d81611ac8565b61184c576040517f08c379a0000000000000000000000000000000000000000000000000000000008152600401611843906132ed565b60405180910390fd5b806118797f360894a13ba1a3210667c828492db98dca3e2076cc3735a920a3ca505d382bbc60001b6117f0565b60000160006101000a81548173ffffffffffffffffffffffffffffffffffffffff021916908373ffffffffffffffffffffffffffffffffffffffff16021790555050565b6118c683611aeb565b6000825111806118d35750805b156118e4576118e28383611b3a565b505b505050565b600033905090565b80471015611934576040517f08c379a000000000000000000000000000000000000000000000000000000000815260040161192b90613359565b60405180910390fd5b60008273ffffffffffffffffffffffffffffffffffffffff168260405161195a906133aa565b60006040518083038185875af1925050503d8060008114611997576040519150601f19603f3d011682016040523d82523d6000602084013e61199c565b606091505b50509050806119e0576040517f08c379a00000000000000000000000000000000000000000000000000000000081526004016119d790613431565b60405180910390fd5b505050565b6000807f7fffffffffffffffffffffffffffffff5d576e7357a4501ddfe92f46681b20a08360001c1115611a20576000600391509150611abf565b600060018787878760405160008152602001604052604051611a459493929190613460565b6020604051602081039080840390855afa158015611a67573d6000803e3d6000fd5b505050602060405103519050600073ffffffffffffffffffffffffffffffffffffffff168173ffffffffffffffffffffffffffffffffffffffff161415611ab657600060019250925050611abf565b80600092509250505b94509492505050565b6000808273ffffffffffffffffffffffffffffffffffffffff163b119050919050565b611af481611804565b8073ffffffffffffffffffffffffffffffffffffffff167fbc7cd75a20ee27fd9adebab32041f755214dbc6bffa90cc0225b39da2e5c2d3b60405160405180910390a250565b6060611b5f83836040518060600160405280602781526020016135fe60279139611b67565b905092915050565b60606000808573ffffffffffffffffffffffffffffffffffffffff1685604051611b919190613514565b600060405180830381855af49150503d8060008114611bcc576040519150601f19603f3d011682016040523d82523d6000602084013e611bd1565b606091505b5091509150611be286838387611bed565b925050509392505050565b60608315611c5057600083511415611c4857611c0885611ac8565b611c47576040517f08c379a0000000000000000000000000000000000000000000000000000000008152600401611c3e90613577565b60405180910390fd5b5b829050611c5b565b611c5a8383611c63565b5b949350505050565b600082511115611c765781518083602001fd5b806040517f08c379a0000000000000000000000000000000000000000000000000000000008152600401611caa91906135db565b60405180910390fd5b60405180606001604052806000815260200160008152602001600063ffffffff1681525090565b6000604051905090565b600080fd5b600080fd5b600073ffffffffffffffffffffffffffffffffffffffff82169050919050565b6000611d1982611cee565b9050919050565b611d2981611d0e565b8114611d3457600080fd5b50565b600081359050611d4681611d20565b92915050565b600080fd5b600060c08284031215611d6757611d66611d4c565b5b81905092915050565b600080fd5b600080fd5b600080fd5b60008083601f840112611d9557611d94611d70565b5b8235905067ffffffffffffffff811115611db257611db1611d75565b5b602083019150836001820283011115611dce57611dcd611d7a565b5b9250929050565b60008060008060006101208688031215611df257611df1611ce4565b5b6000611e0088828901611d37565b9550506020611e1188828901611d51565b94505060e0611e2288828901611d37565b93505061010086013567ffffffffffffffff811115611e4457611e43611ce9565b5b611e5088828901611d7f565b92509250509295509295909350565b6000819050919050565b611e7281611e5f565b8114611e7d57600080fd5b50565b600081359050611e8f81611e69565b92915050565b600060208284031215611eab57611eaa611ce4565b5b6000611eb984828501611e80565b91505092915050565b6000819050919050565b611ed581611ec2565b82525050565b600063ffffffff82169050919050565b611ef481611edb565b82525050565b606082016000820151611f106000850182611ecc565b506020820151611f236020850182611ecc565b506040820151611f366040850182611eeb565b50505050565b6000606082019050611f516000830184611efa565b92915050565b600060208284031215611f6d57611f6c611ce4565b5b6000611f7b84828501611d37565b91505092915050565b600080fd5b6000601f19601f8301169050919050565b7f4e487b7100000000000000000000000000000000000000000000000000000000600052604160045260246000fd5b611fd282611f89565b810181811067ffffffffffffffff82111715611ff157611ff0611f9a565b5b80604052505050565b6000612004611cda565b90506120108282611fc9565b919050565b600067ffffffffffffffff8211156120305761202f611f9a565b5b61203982611f89565b9050602081019050919050565b82818337600083830152505050565b600061206861206384612015565b611ffa565b90508281526020810184848401111561208457612083611f84565b5b61208f848285612046565b509392505050565b600082601f8301126120ac576120ab611d70565b5b81356120bc848260208601612055565b91505092915050565b600080604083850312156120dc576120db611ce4565b5b60006120ea85828601611d37565b925050602083013567ffffffffffffffff81111561210b5761210a611ce9565b5b61211785828601612097565b9150509250929050565b61212a81611e5f565b82525050565b60006020820190506121456000830184612121565b92915050565b61215481611d0e565b82525050565b600060208201905061216f600083018461214b565b92915050565b6000806000610100848603121561218f5761218e611ce4565b5b600061219d86828701611d37565b93505060206121ae86828701611d51565b92505060e06121bf86828701611d37565b9150509250925092565b600060c082840312156121df576121de611ce4565b5b60006121ed84828501611d51565b91505092915050565b600060408201905061220b6000830185612121565b612218602083018461214b565b9392505050565b600082825260208201905092915050565b7f496e76616c6964207369676e6174757265000000000000000000000000000000600082015250565b600061226660118361221f565b915061227182612230565b602082019050919050565b6000602082019050818103600083015261229581612259565b9050919050565b7f4f776e657220616c726561647920736574000000000000000000000000000000600082015250565b60006122d260118361221f565b91506122dd8261229c565b602082019050919050565b60006020820190508181036000830152612301816122c5565b9050919050565b7f4f776e65722063616e6e6f742062652061646472657373207a65726f00000000600082015250565b600061233e601c8361221f565b915061234982612308565b602082019050919050565b6000602082019050818103600083015261236d81612331565b9050919050565b7f46756e6374696f6e206d7573742062652063616c6c6564207468726f7567682060008201527f64656c656761746563616c6c0000000000000000000000000000000000000000602082015250565b60006123d0602c8361221f565b91506123db82612374565b604082019050919050565b600060208201905081810360008301526123ff816123c3565b9050919050565b7f46756e6374696f6e206d7573742062652063616c6c6564207468726f7567682060008201527f6163746976652070726f78790000000000000000000000000000000000000000602082015250565b6000612462602c8361221f565b915061246d82612406565b604082019050919050565b6000602082019050818103600083015261249181612455565b9050919050565b7f555550535570677261646561626c653a206d757374206e6f742062652063616c60008201527f6c6564207468726f7567682064656c656761746563616c6c0000000000000000602082015250565b60006124f460388361221f565b91506124ff82612498565b604082019050919050565b60006020820190508181036000830152612523816124e7565b9050919050565b7f556e617574686f72697a6564206f70657261746f720000000000000000000000600082015250565b600061256060158361221f565b915061256b8261252a565b602082019050919050565b6000602082019050818103600083015261258f81612553565b9050919050565b7f4e487b7100000000000000000000000000000000000000000000000000000000600052601160045260246000fd5b60006125d082611ec2565b91506125db83611ec2565b9250828210156125ee576125ed612596565b5b828203905092915050565b7f5061636b6574206c6f636b656400000000000000000000000000000000000000600082015250565b600061262f600d8361221f565b915061263a826125f9565b602082019050919050565b6000602082019050818103600083015261265e81612622565b9050919050565b600060ff82169050919050565b61267b81612665565b811461268657600080fd5b50565b60008135905061269881612672565b92915050565b6000602082840312156126b4576126b3611ce4565b5b60006126c284828501612689565b91505092915050565b7f496e76616c6964206d6f64650000000000000000000000000000000000000000600082015250565b6000612701600c8361221f565b915061270c826126cb565b602082019050919050565b60006020820190508181036000830152612730816126f4565b9050919050565b7f5061636b657420616c7265616479206372656174656400000000000000000000600082015250565b600061276d60168361221f565b915061277882612737565b602082019050919050565b6000602082019050818103600083015261279c81612760565b9050919050565b6127ac81611ec2565b82525050565b60006060820190506127c7600083018661214b565b6127d4602083018561214b565b6127e160408301846127a3565b949350505050565b60008115159050919050565b6127fe816127e9565b811461280957600080fd5b50565b60008151905061281b816127f5565b92915050565b60006020828403121561283757612836611ce4565b5b60006128458482850161280c565b91505092915050565b7f496e73756666696369656e742062616c616e6365000000000000000000000000600082015250565b600061288460148361221f565b915061288f8261284e565b602082019050919050565b600060208201905081810360008301526128b381612877565b9050919050565b60006128c582611ec2565b91506128d083611ec2565b9250827fffffffffffffffffffffffffffffffffffffffffffffffffffffffffffffffff0382111561290557612904612596565b5b828201905092915050565b61291981611edb565b811461292457600080fd5b50565b60008135905061293681612910565b92915050565b60006020828403121561295257612951611ce4565b5b600061296084828501612927565b91505092915050565b600061297482611edb565b915061297f83611edb565b92508263ffffffff0382111561299857612997612596565b5b828201905092915050565b60006129b26020840184611d37565b905092915050565b6129c381611d0e565b82525050565b60006129d86020840184611e80565b905092915050565b6129e981611e5f565b82525050565b6129f881611ec2565b8114612a0357600080fd5b50565b600081359050612a15816129ef565b92915050565b6000612a2a6020840184612a06565b905092915050565b6000612a416020840184612927565b905092915050565b6000612a586020840184612689565b905092915050565b612a6981612665565b82525050565b60c08201612a8060008301836129a3565b612a8d60008501826129ba565b50612a9b60208301836129c9565b612aa860208501826129e0565b50612ab66040830183612a1b565b612ac36040850182611ecc565b50612ad160608301836129a3565b612ade60608501826129ba565b50612aec6080830183612a32565b612af96080850182611eeb565b50612b0760a0830183612a49565b612b1460a0850182612a60565b50505050565b600060e082019050612b2f600083018561214b565b612b3c6020830184612a6f565b9392505050565b7f4f776e61626c653a206e6577206f776e657220697320746865207a65726f206160008201527f6464726573730000000000000000000000000000000000000000000000000000602082015250565b6000612b9f60268361221f565b9150612baa82612b43565b604082019050919050565b60006020820190508181036000830152612bce81612b92565b9050919050565b600061012082019050612beb60008301876127a3565b612bf8602083018661214b565b612c05604083018561214b565b612c126060830184612a6f565b95945050505050565b7f416c726561647920636c61696d65640000000000000000000000000000000000600082015250565b6000612c51600f8361221f565b9150612c5c82612c1b565b602082019050919050565b60006020820190508181036000830152612c8081612c44565b9050919050565b600081905092915050565b7f19457468657265756d205369676e6564204d6573736167653a0a333200000000600082015250565b6000612cc8601c83612c87565b9150612cd382612c92565b601c82019050919050565b6000819050919050565b612cf9612cf482611e5f565b612cde565b82525050565b6000612d0a82612cbb565b9150612d168284612ce8565b60208201915081905092915050565b6000612d3082611edb565b9150612d3b83611edb565b925082821015612d4e57612d4d612596565b5b828203905092915050565b6000604082019050612d6e600083018561214b565b612d7b60208301846127a3565b9392505050565b600081519050612d9181611e69565b92915050565b600060208284031215612dad57612dac611ce4565b5b6000612dbb84828501612d82565b91505092915050565b7f45524331393637557067726164653a206e657720696d706c656d656e7461746960008201527f6f6e206973206e6f742055555053000000000000000000000000000000000000602082015250565b6000612e20602e8361221f565b9150612e2b82612dc4565b604082019050919050565b60006020820190508181036000830152612e4f81612e13565b9050919050565b7f45524331393637557067726164653a20756e737570706f727465642070726f7860008201527f6961626c65555549440000000000000000000000000000000000000000000000602082015250565b6000612eb260298361221f565b9150612ebd82612e56565b604082019050919050565b60006020820190508181036000830152612ee181612ea5565b9050919050565b7f4f776e61626c653a2063616c6c6572206973206e6f7420746865206f776e6572600082015250565b6000612f1e60208361221f565b9150612f2982612ee8565b602082019050919050565b60006020820190508181036000830152612f4d81612f11565b9050919050565b7f4e487b7100000000000000000000000000000000000000000000000000000000600052602160045260246000fd5b7f45434453413a20696e76616c6964207369676e61747572650000000000000000600082015250565b6000612fb960188361221f565b9150612fc482612f83565b602082019050919050565b60006020820190508181036000830152612fe881612fac565b9050919050565b7f45434453413a20696e76616c6964207369676e6174757265206c656e67746800600082015250565b6000613025601f8361221f565b915061303082612fef565b602082019050919050565b6000602082019050818103600083015261305481613018565b9050919050565b7f45434453413a20696e76616c6964207369676e6174757265202773272076616c60008201527f7565000000000000000000000000000000000000000000000000000000000000602082015250565b60006130b760228361221f565b91506130c28261305b565b604082019050919050565b600060208201905081810360008301526130e6816130aa565b9050919050565b7f456d707479205061636b65740000000000000000000000000000000000000000600082015250565b6000613123600c8361221f565b915061312e826130ed565b602082019050919050565b6000602082019050818103600083015261315281613116565b9050919050565b7f4e487b7100000000000000000000000000000000000000000000000000000000600052601260045260246000fd5b600061319382611ec2565b915061319e83611ec2565b9250826131ae576131ad613159565b5b828204905092915050565b60006060820190506131ce600083018661214b565b6131db60208301856127a3565b6131e860408301846127a3565b949350505050565b60006131fb82611ec2565b915061320683611ec2565b9250817fffffffffffffffffffffffffffffffffffffffffffffffffffffffffffffffff048311821515161561323f5761323e612596565b5b828202905092915050565b600061325582611ec2565b915061326083611ec2565b9250826132705761326f613159565b5b828206905092915050565b7f455243313936373a206e657720696d706c656d656e746174696f6e206973206e60008201527f6f74206120636f6e747261637400000000000000000000000000000000000000602082015250565b60006132d7602d8361221f565b91506132e28261327b565b604082019050919050565b60006020820190508181036000830152613306816132ca565b9050919050565b7f416464726573733a20696e73756666696369656e742062616c616e6365000000600082015250565b6000613343601d8361221f565b915061334e8261330d565b602082019050919050565b6000602082019050818103600083015261337281613336565b9050919050565b600081905092915050565b50565b6000613394600083613379565b915061339f82613384565b600082019050919050565b60006133b582613387565b9150819050919050565b7f416464726573733a20756e61626c6520746f2073656e642076616c75652c207260008201527f6563697069656e74206d61792068617665207265766572746564000000000000602082015250565b600061341b603a8361221f565b9150613426826133bf565b604082019050919050565b6000602082019050818103600083015261344a8161340e565b9050919050565b61345a81612665565b82525050565b60006080820190506134756000830187612121565b6134826020830186613451565b61348f6040830185612121565b61349c6060830184612121565b95945050505050565b600081519050919050565b60005b838110156134ce5780820151818401526020810190506134b3565b838111156134dd576000848401525b50505050565b60006134ee826134a5565b6134f88185613379565b93506135088185602086016134b0565b80840191505092915050565b600061352082846134e3565b915081905092915050565b7f416464726573733a2063616c6c20746f206e6f6e2d636f6e7472616374000000600082015250565b6000613561601d8361221f565b915061356c8261352b565b602082019050919050565b6000602082019050818103600083015261359081613554565b9050919050565b600081519050919050565b60006135ad82613597565b6135b7818561221f565b93506135c78185602086016134b0565b6135d081611f89565b840191505092915050565b600060208201905081810360008301526135f581846135a2565b90509291505056fe416464726573733a206c6f772d6c6576656c2064656c65676174652063616c6c206661696c6564a26469706673582212202465115075c7b6e5270ec7f1cd02cb534affa019363fc2fcbe80af202699895964736f6c63430008080033",
  "devdoc": {
    "kind": "dev",
    "methods": {
      "owner()": {
        "details": "Returns the address of the current owner."
      },
      "proxiableUUID()": {
        "details": "Implementation of the ERC1822 {proxiableUUID} function. This returns the storage slot used by the implementation. It is used to validate the implementation's compatibility when performing an upgrade. IMPORTANT: A proxy pointing at a proxiable contract should not be considered proxiable itself, because this risks bricking a proxy that upgrades to it, by delegating to itself until out of gas. Thus it is critical that this function revert if invoked through a proxy. This is guaranteed by the `notDelegated` modifier."
      },
      "renounceOwnership()": {
        "details": "Leaves the contract without owner. It will not be possible to call `onlyOwner` functions anymore. Can only be called by the current owner. NOTE: Renouncing ownership will leave the contract without an owner, thereby removing any functionality that is only available to the owner."
      },
      "transferOwnership(address)": {
        "details": "Transfers ownership of the contract to a new account (`newOwner`). Can only be called by the current owner."
      },
      "upgradeTo(address)": {
        "details": "Upgrade the implementation of the proxy to `newImplementation`. Calls {_authorizeUpgrade}. Emits an {Upgraded} event."
      },
      "upgradeToAndCall(address,bytes)": {
        "details": "Upgrade the implementation of the proxy to `newImplementation`, and subsequently execute the function call encoded in `data`. Calls {_authorizeUpgrade}. Emits an {Upgraded} event."
      }
    },
    "version": 1
  },
  "userdoc": {
    "kind": "user",
    "methods": {},
    "version": 1
  },
  "storageLayout": {
    "storage": [
      {
        "astId": 7,
        "contract": "contracts/apps/HappyRedPacket.sol:HappyRedPacket",
        "label": "_owner",
        "offset": 0,
        "slot": "0",
        "type": "t_address"
      },
      {
        "astId": 2519,
        "contract": "contracts/apps/HappyRedPacket.sol:HappyRedPacket",
        "label": "packets_",
        "offset": 0,
        "slot": "1",
        "type": "t_mapping(t_bytes32,t_struct(RedPacket)2514_storage)"
      },
      {
        "astId": 2525,
        "contract": "contracts/apps/HappyRedPacket.sol:HappyRedPacket",
        "label": "count_",
        "offset": 0,
        "slot": "2",
        "type": "t_mapping(t_bytes32,t_mapping(t_address,t_uint256))"
      }
    ],
    "types": {
      "t_address": {
        "encoding": "inplace",
        "label": "address",
        "numberOfBytes": "20"
      },
      "t_bytes32": {
        "encoding": "inplace",
        "label": "bytes32",
        "numberOfBytes": "32"
      },
      "t_mapping(t_address,t_uint256)": {
        "encoding": "mapping",
        "key": "t_address",
        "label": "mapping(address => uint256)",
        "numberOfBytes": "32",
        "value": "t_uint256"
      },
      "t_mapping(t_bytes32,t_mapping(t_address,t_uint256))": {
        "encoding": "mapping",
        "key": "t_bytes32",
        "label": "mapping(bytes32 => mapping(address => uint256))",
        "numberOfBytes": "32",
        "value": "t_mapping(t_address,t_uint256)"
      },
      "t_mapping(t_bytes32,t_struct(RedPacket)2514_storage)": {
        "encoding": "mapping",
        "key": "t_bytes32",
        "label": "mapping(bytes32 => struct HappyRedPacket.RedPacket)",
        "numberOfBytes": "32",
        "value": "t_struct(RedPacket)2514_storage"
      },
      "t_struct(RedPacket)2514_storage": {
        "encoding": "inplace",
        "label": "struct HappyRedPacket.RedPacket",
        "members": [
          {
            "astId": 2509,
            "contract": "contracts/apps/HappyRedPacket.sol:HappyRedPacket",
            "label": "createdAt",
            "offset": 0,
            "slot": "0",
            "type": "t_uint256"
          },
          {
            "astId": 2511,
            "contract": "contracts/apps/HappyRedPacket.sol:HappyRedPacket",
            "label": "balance",
            "offset": 0,
            "slot": "1",
            "type": "t_uint256"
          },
          {
            "astId": 2513,
            "contract": "contracts/apps/HappyRedPacket.sol:HappyRedPacket",
            "label": "split",
            "offset": 0,
            "slot": "2",
            "type": "t_uint32"
          }
        ],
        "numberOfBytes": "96"
      },
      "t_uint256": {
        "encoding": "inplace",
        "label": "uint256",
        "numberOfBytes": "32"
      },
      "t_uint32": {
        "encoding": "inplace",
        "label": "uint32",
        "numberOfBytes": "4"
      }
    }
  }
}