{
  "address": "0xa8eAEb85B7aD958B807ba984289d791aba758604",
  "abi": [
    {
      "inputs": [
        {
          "internalType": "address",
          "name": "accountBase",
          "type": "address"
        }
      ],
      "stateMutability": "nonpayable",
      "type": "constructor"
    },
    {
      "inputs": [],
      "name": "Ownable__NotOwner",
      "type": "error"
    },
    {
      "inputs": [],
      "name": "Ownable__NotTransitiveOwner",
      "type": "error"
    },
    {
      "anonymous": false,
      "inputs": [
        {
          "indexed": false,
          "internalType": "address",
          "name": "previousAdmin",
          "type": "address"
        },
        {
          "indexed": false,
          "internalType": "address",
          "name": "newAdmin",
          "type": "address"
        }
      ],
      "name": "AdminChanged",
      "type": "event"
    },
    {
      "anonymous": false,
      "inputs": [
        {
          "indexed": true,
          "internalType": "address",
          "name": "beacon",
          "type": "address"
        }
      ],
      "name": "BeaconUpgraded",
      "type": "event"
    },
    {
      "anonymous": false,
      "inputs": [
        {
          "indexed": true,
          "internalType": "bytes32",
          "name": "name",
          "type": "bytes32"
        },
        {
          "indexed": true,
          "internalType": "address",
          "name": "account",
          "type": "address"
        }
      ],
      "name": "Deploy",
      "type": "event"
    },
    {
      "anonymous": false,
      "inputs": [
        {
          "indexed": true,
          "internalType": "address",
          "name": "previousOwner",
          "type": "address"
        },
        {
          "indexed": true,
          "internalType": "address",
          "name": "newOwner",
          "type": "address"
        }
      ],
      "name": "OwnershipTransferred",
      "type": "event"
    },
    {
      "anonymous": false,
      "inputs": [
        {
          "indexed": true,
          "internalType": "bytes32",
          "name": "name",
          "type": "bytes32"
        },
        {
          "indexed": true,
          "internalType": "address",
          "name": "account",
          "type": "address"
        }
      ],
      "name": "Reset",
      "type": "event"
    },
    {
      "anonymous": false,
      "inputs": [
        {
          "indexed": true,
          "internalType": "address",
          "name": "implementation",
          "type": "address"
        }
      ],
      "name": "Upgraded",
      "type": "event"
    },
    {
      "inputs": [],
      "name": "accountBase",
      "outputs": [
        {
          "internalType": "address",
          "name": "",
          "type": "address"
        }
      ],
      "stateMutability": "view",
      "type": "function"
    },
    {
      "inputs": [
        {
          "internalType": "bytes32",
          "name": "name",
          "type": "bytes32"
        }
      ],
      "name": "addressOfName",
      "outputs": [
        {
          "internalType": "address",
          "name": "",
          "type": "address"
        }
      ],
      "stateMutability": "view",
      "type": "function"
    },
    {
      "inputs": [
        {
          "components": [
            {
              "internalType": "uint256",
              "name": "issuedAt",
              "type": "uint256"
            },
            {
              "internalType": "uint256",
              "name": "identityType",
              "type": "uint256"
            },
            {
              "internalType": "uint256",
              "name": "authType",
              "type": "uint256"
            },
            {
              "internalType": "bytes",
              "name": "signature",
              "type": "bytes"
            }
          ],
          "internalType": "struct AuthProof",
          "name": "",
          "type": "tuple"
        }
      ],
      "name": "authConfig",
      "outputs": [
        {
          "components": [
            {
              "internalType": "uint256",
              "name": "twoStageLock",
              "type": "uint256"
            },
            {
              "internalType": "uint256",
              "name": "ttl",
              "type": "uint256"
            }
          ],
          "internalType": "struct HexlinkAuth.AuthConfig",
          "name": "",
          "type": "tuple"
        }
      ],
      "stateMutability": "pure",
      "type": "function"
    },
    {
      "inputs": [
        {
          "internalType": "bytes32",
          "name": "name",
          "type": "bytes32"
        },
        {
          "components": [
            {
              "internalType": "uint256",
              "name": "issuedAt",
              "type": "uint256"
            },
            {
              "internalType": "uint256",
              "name": "identityType",
              "type": "uint256"
            },
            {
              "internalType": "uint256",
              "name": "authType",
              "type": "uint256"
            },
            {
              "internalType": "bytes",
              "name": "signature",
              "type": "bytes"
            }
          ],
          "internalType": "struct AuthProof",
          "name": "proof",
          "type": "tuple"
        }
      ],
      "name": "bumpNonce",
      "outputs": [],
      "stateMutability": "nonpayable",
      "type": "function"
    },
    {
      "inputs": [
        {
          "internalType": "bytes32",
          "name": "name",
          "type": "bytes32"
        },
        {
          "internalType": "bytes",
          "name": "txData",
          "type": "bytes"
        },
        {
          "components": [
            {
              "internalType": "uint256",
              "name": "issuedAt",
              "type": "uint256"
            },
            {
              "internalType": "uint256",
              "name": "identityType",
              "type": "uint256"
            },
            {
              "internalType": "uint256",
              "name": "authType",
              "type": "uint256"
            },
            {
              "internalType": "bytes",
              "name": "signature",
              "type": "bytes"
            }
          ],
          "internalType": "struct AuthProof",
          "name": "proof",
          "type": "tuple"
        }
      ],
      "name": "deploy",
      "outputs": [],
      "stateMutability": "nonpayable",
      "type": "function"
    },
    {
      "inputs": [],
      "name": "implementation",
      "outputs": [
        {
          "internalType": "address",
          "name": "",
          "type": "address"
        }
      ],
      "stateMutability": "view",
      "type": "function"
    },
    {
      "inputs": [
        {
          "internalType": "address",
          "name": "owner",
          "type": "address"
        },
        {
          "internalType": "address",
          "name": "oracleRegistry",
          "type": "address"
        }
      ],
      "name": "init",
      "outputs": [],
      "stateMutability": "nonpayable",
      "type": "function"
    },
    {
      "inputs": [
        {
          "internalType": "bytes32",
          "name": "name",
          "type": "bytes32"
        }
      ],
      "name": "nonce",
      "outputs": [
        {
          "internalType": "uint96",
          "name": "",
          "type": "uint96"
        }
      ],
      "stateMutability": "view",
      "type": "function"
    },
    {
      "inputs": [],
      "name": "oracleRegistry",
      "outputs": [
        {
          "internalType": "address",
          "name": "",
          "type": "address"
        }
      ],
      "stateMutability": "view",
      "type": "function"
    },
    {
      "inputs": [],
      "name": "owner",
      "outputs": [
        {
          "internalType": "address",
          "name": "",
          "type": "address"
        }
      ],
      "stateMutability": "view",
      "type": "function"
    },
    {
      "inputs": [],
      "name": "proxiableUUID",
      "outputs": [
        {
          "internalType": "bytes32",
          "name": "",
          "type": "bytes32"
        }
      ],
      "stateMutability": "view",
      "type": "function"
    },
    {
      "inputs": [
        {
          "internalType": "bytes32",
          "name": "name",
          "type": "bytes32"
        },
        {
          "internalType": "address",
          "name": "account",
          "type": "address"
        },
        {
          "components": [
            {
              "internalType": "uint256",
              "name": "issuedAt",
              "type": "uint256"
            },
            {
              "internalType": "uint256",
              "name": "identityType",
              "type": "uint256"
            },
            {
              "internalType": "uint256",
              "name": "authType",
              "type": "uint256"
            },
            {
              "internalType": "bytes",
              "name": "signature",
              "type": "bytes"
            }
          ],
          "internalType": "struct AuthProof",
          "name": "proof",
          "type": "tuple"
        }
      ],
      "name": "reset",
      "outputs": [],
      "stateMutability": "nonpayable",
      "type": "function"
    },
    {
      "inputs": [
        {
          "internalType": "bytes32",
          "name": "name",
          "type": "bytes32"
        },
        {
          "internalType": "address",
          "name": "account",
          "type": "address"
        },
        {
          "components": [
            {
              "internalType": "uint256",
              "name": "issuedAt",
              "type": "uint256"
            },
            {
              "internalType": "uint256",
              "name": "identityType",
              "type": "uint256"
            },
            {
              "internalType": "uint256",
              "name": "authType",
              "type": "uint256"
            },
            {
              "internalType": "bytes",
              "name": "signature",
              "type": "bytes"
            }
          ],
          "internalType": "struct AuthProof",
          "name": "proof1",
          "type": "tuple"
        },
        {
          "components": [
            {
              "internalType": "uint256",
              "name": "issuedAt",
              "type": "uint256"
            },
            {
              "internalType": "uint256",
              "name": "identityType",
              "type": "uint256"
            },
            {
              "internalType": "uint256",
              "name": "authType",
              "type": "uint256"
            },
            {
              "internalType": "bytes",
              "name": "signature",
              "type": "bytes"
            }
          ],
          "internalType": "struct AuthProof",
          "name": "proof2",
          "type": "tuple"
        }
      ],
      "name": "reset2Fac",
      "outputs": [],
      "stateMutability": "nonpayable",
      "type": "function"
    },
    {
      "inputs": [
        {
          "internalType": "bytes32",
          "name": "name",
          "type": "bytes32"
        },
        {
          "internalType": "address",
          "name": "account",
          "type": "address"
        },
        {
          "components": [
            {
              "internalType": "uint256",
              "name": "issuedAt",
              "type": "uint256"
            },
            {
              "internalType": "uint256",
              "name": "identityType",
              "type": "uint256"
            },
            {
              "internalType": "uint256",
              "name": "authType",
              "type": "uint256"
            },
            {
              "internalType": "bytes",
              "name": "signature",
              "type": "bytes"
            }
          ],
          "internalType": "struct AuthProof",
          "name": "proof",
          "type": "tuple"
        }
      ],
      "name": "reset2Stage",
      "outputs": [],
      "stateMutability": "nonpayable",
      "type": "function"
    },
    {
      "inputs": [
        {
          "internalType": "address",
          "name": "oracleRegistry",
          "type": "address"
        }
      ],
      "name": "setOracleRegistry",
      "outputs": [],
      "stateMutability": "nonpayable",
      "type": "function"
    },
    {
      "inputs": [
        {
          "internalType": "address",
          "name": "account",
          "type": "address"
        }
      ],
      "name": "transferOwnership",
      "outputs": [],
      "stateMutability": "nonpayable",
      "type": "function"
    },
    {
      "inputs": [
        {
          "internalType": "address",
          "name": "newImplementation",
          "type": "address"
        }
      ],
      "name": "upgradeTo",
      "outputs": [],
      "stateMutability": "nonpayable",
      "type": "function"
    },
    {
      "inputs": [
        {
          "internalType": "address",
          "name": "newImplementation",
          "type": "address"
        },
        {
          "internalType": "bytes",
          "name": "data",
          "type": "bytes"
        }
      ],
      "name": "upgradeToAndCall",
      "outputs": [],
      "stateMutability": "payable",
      "type": "function"
    }
  ],
  "transactionHash": "0x3039f5c211d7b495395bd9c7666e28509dffbc2b7f13ce8afbc3bb65611e8482",
  "args": [
    "0x48EBe15A07CD576783803294beb2d57f063446c4"
  ],
  "numDeployments": 1,
  "solcInputHash": "6445c3313d3776c64cb67729e18c0ba5",
  "bytecode": "0x60c06040523073ffffffffffffffffffffffffffffffffffffffff1660a09073ffffffffffffffffffffffffffffffffffffffff1660601b8152503480156200004757600080fd5b5060405162003a2e38038062003a2e83398181016040528101906200006d919062000117565b808073ffffffffffffffffffffffffffffffffffffffff1660808173ffffffffffffffffffffffffffffffffffffffff1660601b81525050505062000149565b600080fd5b600073ffffffffffffffffffffffffffffffffffffffff82169050919050565b6000620000df82620000b2565b9050919050565b620000f181620000d2565b8114620000fd57600080fd5b50565b6000815190506200011181620000e6565b92915050565b60006020828403121562000130576200012f620000ad565b5b6000620001408482850162000100565b91505092915050565b60805160601c60a05160601c61388f6200019f600039600081816104c80152818161055701528181610684015281816107130152610843015260008181610c2501528181610caa0152611615015261388f6000f3fe6080604052600436106101095760003560e01c80637eaa9c8c11610095578063ae47890411610064578063ae47890414610346578063cd6a84b314610383578063e981fdf5146103ae578063f09a4016146103d7578063f2fde38b1461040057610109565b80637eaa9c8c146102785780638165354e146102b55780638da5cb5b146102de578063905da30f1461030957610109565b80634fef21e6116100dc5780634fef21e6146101a757806352d1902d146101d05780635c60da1b146101fb57806376796a85146102265780637995aa591461024f57610109565b80632e77cbeb1461010e5780633659cfe6146101375780634bb93ab1146101605780634f1ef2861461018b575b600080fd5b34801561011a57600080fd5b50610135600480360381019061013091906122a2565b610429565b005b34801561014357600080fd5b5061015e60048036038101906101599190612341565b6104c6565b005b34801561016c57600080fd5b5061017561064f565b604051610182919061237d565b60405180910390f35b6101a560048036038101906101a091906124de565b610682565b005b3480156101b357600080fd5b506101ce60048036038101906101c9919061253a565b6107bf565b005b3480156101dc57600080fd5b506101e561083f565b6040516101f291906125a5565b60405180910390f35b34801561020757600080fd5b506102106108f8565b60405161021d919061237d565b60405180910390f35b34801561023257600080fd5b5061024d600480360381019061024891906125c0565b610907565b005b34801561025b57600080fd5b50610276600480360381019061027191906125c0565b6109b1565b005b34801561028457600080fd5b5061029f600480360381019061029a919061262f565b610af4565b6040516102ac919061237d565b60405180910390f35b3480156102c157600080fd5b506102dc60048036038101906102d79190612341565b610b3c565b005b3480156102ea57600080fd5b506102f3610bb4565b604051610300919061237d565b60405180910390f35b34801561031557600080fd5b50610330600480360381019061032b919061262f565b610bc3565b60405161033d9190612683565b60405180910390f35b34801561035257600080fd5b5061036d60048036038101906103689190612772565b610bfa565b60405161037a91906127f9565b60405180910390f35b34801561038f57600080fd5b50610398610c23565b6040516103a5919061237d565b60405180910390f35b3480156103ba57600080fd5b506103d560048036038101906103d09190612874565b610c47565b005b3480156103e357600080fd5b506103fe60048036038101906103f99190612904565b610ddf565b005b34801561040c57600080fd5b5061042760048036038101906104229190612341565b610e6b565b005b60006104548585604051602001610440919061237d565b604051602081830303815290604052610ee3565b905061046181848461105a565b61046b85856110bb565b6001816060015161047c9190612973565b60008087815260200190815260200160002060000160146101000a8154816bffffffffffffffffffffffff02191690836bffffffffffffffffffffffff1602179055505050505050565b7f000000000000000000000000000000000000000000000000000000000000000073ffffffffffffffffffffffffffffffffffffffff163073ffffffffffffffffffffffffffffffffffffffff161415610555576040517f08c379a000000000000000000000000000000000000000000000000000000000815260040161054c90612a38565b60405180910390fd5b7f000000000000000000000000000000000000000000000000000000000000000073ffffffffffffffffffffffffffffffffffffffff166105946111c7565b73ffffffffffffffffffffffffffffffffffffffff16146105ea576040517f08c379a00000000000000000000000000000000000000000000000000000000081526004016105e190612aca565b60405180910390fd5b6105f38161121e565b61064c81600067ffffffffffffffff811115610612576106116123b3565b5b6040519080825280601f01601f1916602001820160405280156106445781602001600182028036833780820191505090505b50600061128d565b50565b600061065961140a565b60000160009054906101000a900473ffffffffffffffffffffffffffffffffffffffff16905090565b7f000000000000000000000000000000000000000000000000000000000000000073ffffffffffffffffffffffffffffffffffffffff163073ffffffffffffffffffffffffffffffffffffffff161415610711576040517f08c379a000000000000000000000000000000000000000000000000000000000815260040161070890612a38565b60405180910390fd5b7f000000000000000000000000000000000000000000000000000000000000000073ffffffffffffffffffffffffffffffffffffffff166107506111c7565b73ffffffffffffffffffffffffffffffffffffffff16146107a6576040517f08c379a000000000000000000000000000000000000000000000000000000000815260040161079d90612aca565b60405180910390fd5b6107af8261121e565b6107bb8282600161128d565b5050565b60006107da8360405180602001604052806000815250610ee3565b90506107e68183611437565b600181606001516107f79190612973565b60008085815260200190815260200160002060000160146101000a8154816bffffffffffffffffffffffff02191690836bffffffffffffffffffffffff160217905550505050565b60007f000000000000000000000000000000000000000000000000000000000000000073ffffffffffffffffffffffffffffffffffffffff163073ffffffffffffffffffffffffffffffffffffffff16146108cf576040517f08c379a00000000000000000000000000000000000000000000000000000000081526004016108c690612b5c565b60405180910390fd5b7f360894a13ba1a3210667c828492db98dca3e2076cc3735a920a3ca505d382bbc60001b905090565b60006109026111c7565b905090565b6000610932848460405160200161091e919061237d565b604051602081830303815290604052610ee3565b90506000610940828461148d565b905060028114156109aa5761095585856110bb565b600182606001516109669190612973565b60008087815260200190815260200160002060000160146101000a8154816bffffffffffffffffffffffff02191690836bffffffffffffffffffffffff1602179055505b5050505050565b60006109dc84846040516020016109c8919061237d565b604051602081830303815290604052610ee3565b905060006109e98561160e565b90508073ffffffffffffffffffffffffffffffffffffffff16826040015173ffffffffffffffffffffffffffffffffffffffff16148015610a465750610a448173ffffffffffffffffffffffffffffffffffffffff16611641565b155b610a85576040517f08c379a0000000000000000000000000000000000000000000000000000000008152600401610a7c90612bc8565b60405180910390fd5b610a8f8284611437565b610a9985856110bb565b60018260600151610aaa9190612973565b60008087815260200190815260200160002060000160146101000a8154816bffffffffffffffffffffffff02191690836bffffffffffffffffffffffff1602179055505050505050565b6000610b358260008085815260200190815260200160002060000160009054906101000a900473ffffffffffffffffffffffffffffffffffffffff16611664565b9050919050565b610b446116b1565b73ffffffffffffffffffffffffffffffffffffffff163373ffffffffffffffffffffffffffffffffffffffff1614610ba8576040517f2f7a8ee100000000000000000000000000000000000000000000000000000000815260040160405180910390fd5b610bb1816116e4565b50565b6000610bbe6116b1565b905090565b600080600083815260200190815260200160002060000160149054906101000a90046bffffffffffffffffffffffff169050919050565b610c0261216a565b60405180604001604052806203f4808152602001610e108152509050919050565b7f000000000000000000000000000000000000000000000000000000000000000081565b6000610c978585858080601f016020809104026020016040519081016040528093929190818152602001838380828437600081840152601f19601f82011690508083019250505050505050610ee3565b9050610ca38183611437565b6000610ccf7f000000000000000000000000000000000000000000000000000000000000000087611731565b9050610d3e85858080601f016020809104026020016040519081016040528093929190818152602001838380828437600081840152601f19601f820116905080830192505050505050508273ffffffffffffffffffffffffffffffffffffffff166117ee90919063ffffffff16565b5060018260600151610d509190612973565b60008088815260200190815260200160002060000160146101000a8154816bffffffffffffffffffffffff02191690836bffffffffffffffffffffffff1602179055508073ffffffffffffffffffffffffffffffffffffffff16867fa4ec87efbdf333e464825b3a3a757dc501a72b53041a352de91a3fbdcdae650960405160405180910390a3505050505050565b600073ffffffffffffffffffffffffffffffffffffffff16610dff6116b1565b73ffffffffffffffffffffffffffffffffffffffff1614610e55576040517f08c379a0000000000000000000000000000000000000000000000000000000008152600401610e4c90612c34565b60405180910390fd5b610e5e8261183a565b610e67816116e4565b5050565b610e736116b1565b73ffffffffffffffffffffffffffffffffffffffff163373ffffffffffffffffffffffffffffffffffffffff1614610ed7576040517f2f7a8ee100000000000000000000000000000000000000000000000000000000815260040160405180910390fd5b610ee08161183a565b50565b610eeb612184565b60008060008581526020019081526020016000206040518060400160405290816000820160009054906101000a900473ffffffffffffffffffffffffffffffffffffffff1673ffffffffffffffffffffffffffffffffffffffff1673ffffffffffffffffffffffffffffffffffffffff1681526020016000820160149054906101000a90046bffffffffffffffffffffffff166bffffffffffffffffffffffff166bffffffffffffffffffffffff16815250509050600080357fffffffff00000000000000000000000000000000000000000000000000000000168430468560200151604051602001610fe2959493929190612d26565b604051602081830303815290604052805190602001209050604051806080016040528086815260200182815260200161101f878560000151611664565b73ffffffffffffffffffffffffffffffffffffffff16815260200183602001516bffffffffffffffffffffffff168152509250505092915050565b6110648383611437565b61106d81611846565b6110ac576040517f08c379a00000000000000000000000000000000000000000000000000000000081526004016110a390612dcc565b60405180910390fd5b6110b68382611856565b505050565b600073ffffffffffffffffffffffffffffffffffffffff168173ffffffffffffffffffffffffffffffffffffffff16141561112b576040517f08c379a000000000000000000000000000000000000000000000000000000000815260040161112290612e38565b60405180910390fd5b8060008084815260200190815260200160002060000160006101000a81548173ffffffffffffffffffffffffffffffffffffffff021916908373ffffffffffffffffffffffffffffffffffffffff1602179055508073ffffffffffffffffffffffffffffffffffffffff16827f9ea66a51baa076262b5c824021c8d0594003137dc336d820c66ae07e2bdc78a660405160405180910390a35050565b60006111f57f360894a13ba1a3210667c828492db98dca3e2076cc3735a920a3ca505d382bbc60001b611b03565b60000160009054906101000a900473ffffffffffffffffffffffffffffffffffffffff16905090565b6112266116b1565b73ffffffffffffffffffffffffffffffffffffffff163373ffffffffffffffffffffffffffffffffffffffff161461128a576040517f2f7a8ee100000000000000000000000000000000000000000000000000000000815260040160405180910390fd5b50565b6112b97f4910fdfa16fed3260ed0e7147f7cc6da11a60208b5b9406d12a635614ffd914360001b611b0d565b60000160009054906101000a900460ff16156112dd576112d883611b17565b611405565b8273ffffffffffffffffffffffffffffffffffffffff166352d1902d6040518163ffffffff1660e01b815260040160206040518083038186803b15801561132357600080fd5b505afa92505050801561135457506040513d601f19601f820116820180604052508101906113519190612e6d565b60015b611393576040517f08c379a000000000000000000000000000000000000000000000000000000000815260040161138a90612f0c565b60405180910390fd5b7f360894a13ba1a3210667c828492db98dca3e2076cc3735a920a3ca505d382bbc60001b81146113f8576040517f08c379a00000000000000000000000000000000000000000000000000000000081526004016113ef90612f9e565b60405180910390fd5b50611404838383611bd0565b5b505050565b6000807ff884206727a14387141eace3d812a8da620a47f4bcb60b011186e317fde6785890508091505090565b61144081611bfc565b61147f576040517f08c379a00000000000000000000000000000000000000000000000000000000081526004016114769061300a565b60405180910390fd5b6114898282611856565b5050565b60008061149861140a565b905060008160010160008660000151815260200190815260200160002060008660200151815260200190815260200160002060405180604001604052908160008201548152602001600182015481525050905060008160000151141561157d576115028585611437565b42826001016000876000015181526020019081526020016000206000876020015181526020019081526020016000206000018190555083602001358260010160008760000151815260200190815260200160002060008760200151815260200190815260200160002060010181905550600192505050611608565b61158684611846565b6115f757600061159e856115999061302a565b610bfa565b6000015190508082600001516115b4919061303d565b42116115f5576040517f08c379a00000000000000000000000000000000000000000000000000000000081526004016115ec906130df565b60405180910390fd5b505b6116018585611856565b6002925050505b92915050565b600061163a7f000000000000000000000000000000000000000000000000000000000000000083611c0d565b9050919050565b6000808273ffffffffffffffffffffffffffffffffffffffff163b119050919050565b60008073ffffffffffffffffffffffffffffffffffffffff168273ffffffffffffffffffffffffffffffffffffffff161461169f57816116a9565b6116a88361160e565b5b905092915050565b60006116bb611c22565b60000160009054906101000a900473ffffffffffffffffffffffffffffffffffffffff16905090565b806116ed61140a565b60000160006101000a81548173ffffffffffffffffffffffffffffffffffffffff021916908373ffffffffffffffffffffffffffffffffffffffff16021790555050565b6000763d602d80600a3d3981f3363d3d373d3d3d363d730000008360601b60e81c176000526e5af43d82803e903d91602b57fd5bf38360781b1760205281603760096000f59050600073ffffffffffffffffffffffffffffffffffffffff168173ffffffffffffffffffffffffffffffffffffffff1614156117e8576040517f08c379a00000000000000000000000000000000000000000000000000000000081526004016117df9061314b565b60405180910390fd5b92915050565b6060611832838360006040518060400160405280601e81526020017f416464726573733a206c6f772d6c6576656c2063616c6c206661696c65640000815250611c4f565b905092915050565b61184381611d1c565b50565b6000808260200135149050919050565b600061186a826118659061302a565b610bfa565b60200151905042826000013510801561189157504281836000013561188f919061303d565b115b6118d0576040517f08c379a00000000000000000000000000000000000000000000000000000000081526004016118c7906131b7565b60405180910390fd5b6000836000015184602001518460000135856020013586604001356040516020016118ff9594939291906131d7565b6040516020818303038152906040528051906020012090506000808460200135146119325761192d84611ded565b611938565b84604001515b90508073ffffffffffffffffffffffffffffffffffffffff16631626ba7e838680606001906119679190613239565b6040518463ffffffff1660e01b8152600401611985939291906132c9565b60206040518083038186803b15801561199d57600080fd5b505afa9250505080156119ce57506040513d601f19601f820116820180604052508101906119cb9190613327565b60015b611a74576119da613361565b806308c379a01415611a3757506119ef613383565b806119fa5750611a39565b806040517f08c379a0000000000000000000000000000000000000000000000000000000008152600401611a2e919061345d565b60405180910390fd5b505b6040517f08c379a0000000000000000000000000000000000000000000000000000000008152600401611a6b906134cb565b60405180910390fd5b631626ba7e60e01b7bffffffffffffffffffffffffffffffffffffffffffffffffffffffff1916817bffffffffffffffffffffffffffffffffffffffffffffffffffffffff191614611afb576040517f08c379a0000000000000000000000000000000000000000000000000000000008152600401611af290613537565b60405180910390fd5b505050505050565b6000819050919050565b6000819050919050565b611b2081611641565b611b5f576040517f08c379a0000000000000000000000000000000000000000000000000000000008152600401611b56906135c9565b60405180910390fd5b80611b8c7f360894a13ba1a3210667c828492db98dca3e2076cc3735a920a3ca505d382bbc60001b611b03565b60000160006101000a81548173ffffffffffffffffffffffffffffffffffffffff021916908373ffffffffffffffffffffffffffffffffffffffff16021790555050565b611bd983611f41565b600082511180611be65750805b15611bf757611bf58383611f90565b505b505050565b600080826020013514159050919050565b6000611c1a838330611fbd565b905092915050565b6000807f8a22373512790c48b83a1fe2efdd2888d4a917bcdc24d0adf63e60f67168046090508091505090565b606082471015611c94576040517f08c379a0000000000000000000000000000000000000000000000000000000008152600401611c8b9061365b565b60405180910390fd5b6000808673ffffffffffffffffffffffffffffffffffffffff168587604051611cbd91906136b7565b60006040518083038185875af1925050503d8060008114611cfa576040519150601f19603f3d011682016040523d82523d6000602084013e611cff565b606091505b5091509150611d108783838761201e565b92505050949350505050565b6000611d26611c22565b90508173ffffffffffffffffffffffffffffffffffffffff168160000160009054906101000a900473ffffffffffffffffffffffffffffffffffffffff1673ffffffffffffffffffffffffffffffffffffffff167f8be0079c531659141344cd1fd0a4f28419497f9722a3daafe3b4186f6b6457e060405160405180910390a3818160000160006101000a81548173ffffffffffffffffffffffffffffffffffffffff021916908373ffffffffffffffffffffffffffffffffffffffff1602179055505050565b600080604051806040016040528084602001358152602001846040013581525090506000611e1961140a565b60000160009054906101000a900473ffffffffffffffffffffffffffffffffffffffff1673ffffffffffffffffffffffffffffffffffffffff16633aad2d9d836040518263ffffffff1660e01b8152600401611e7591906136fd565b60206040518083038186803b158015611e8d57600080fd5b505afa158015611ea1573d6000803e3d6000fd5b505050506040513d601f19601f82011682018060405250810190611ec5919061372d565b9050600073ffffffffffffffffffffffffffffffffffffffff168173ffffffffffffffffffffffffffffffffffffffff161415611f37576040517f08c379a0000000000000000000000000000000000000000000000000000000008152600401611f2e906137a6565b60405180910390fd5b8092505050919050565b611f4a81611b17565b8073ffffffffffffffffffffffffffffffffffffffff167fbc7cd75a20ee27fd9adebab32041f755214dbc6bffa90cc0225b39da2e5c2d3b60405160405180910390a250565b6060611fb5838360405180606001604052806027815260200161383360279139612094565b905092915050565b60006040518260388201526f5af43d82803e903d91602b57fd5bf3ff6024820152846014820152733d602d80600a3d3981f3363d3d373d3d3d363d7381528360588201526037600c8201206078820152605560438201209150509392505050565b60608315612081576000835114156120795761203985611641565b612078576040517f08c379a000000000000000000000000000000000000000000000000000000000815260040161206f90613812565b60405180910390fd5b5b82905061208c565b61208b838361211a565b5b949350505050565b60606000808573ffffffffffffffffffffffffffffffffffffffff16856040516120be91906136b7565b600060405180830381855af49150503d80600081146120f9576040519150601f19603f3d011682016040523d82523d6000602084013e6120fe565b606091505b509150915061210f8683838761201e565b925050509392505050565b60008251111561212d5781518083602001fd5b806040517f08c379a0000000000000000000000000000000000000000000000000000000008152600401612161919061345d565b60405180910390fd5b604051806040016040528060008152602001600081525090565b60405180608001604052806000801916815260200160008019168152602001600073ffffffffffffffffffffffffffffffffffffffff16815260200160006bffffffffffffffffffffffff1681525090565b6000604051905090565b600080fd5b600080fd5b6000819050919050565b6121fd816121ea565b811461220857600080fd5b50565b60008135905061221a816121f4565b92915050565b600073ffffffffffffffffffffffffffffffffffffffff82169050919050565b600061224b82612220565b9050919050565b61225b81612240565b811461226657600080fd5b50565b60008135905061227881612252565b92915050565b600080fd5b6000608082840312156122995761229861227e565b5b81905092915050565b600080600080608085870312156122bc576122bb6121e0565b5b60006122ca8782880161220b565b94505060206122db87828801612269565b935050604085013567ffffffffffffffff8111156122fc576122fb6121e5565b5b61230887828801612283565b925050606085013567ffffffffffffffff811115612329576123286121e5565b5b61233587828801612283565b91505092959194509250565b600060208284031215612357576123566121e0565b5b600061236584828501612269565b91505092915050565b61237781612240565b82525050565b6000602082019050612392600083018461236e565b92915050565b600080fd5b600080fd5b6000601f19601f8301169050919050565b7f4e487b7100000000000000000000000000000000000000000000000000000000600052604160045260246000fd5b6123eb826123a2565b810181811067ffffffffffffffff8211171561240a576124096123b3565b5b80604052505050565b600061241d6121d6565b905061242982826123e2565b919050565b600067ffffffffffffffff821115612449576124486123b3565b5b612452826123a2565b9050602081019050919050565b82818337600083830152505050565b600061248161247c8461242e565b612413565b90508281526020810184848401111561249d5761249c61239d565b5b6124a884828561245f565b509392505050565b600082601f8301126124c5576124c4612398565b5b81356124d584826020860161246e565b91505092915050565b600080604083850312156124f5576124f46121e0565b5b600061250385828601612269565b925050602083013567ffffffffffffffff811115612524576125236121e5565b5b612530858286016124b0565b9150509250929050565b60008060408385031215612551576125506121e0565b5b600061255f8582860161220b565b925050602083013567ffffffffffffffff8111156125805761257f6121e5565b5b61258c85828601612283565b9150509250929050565b61259f816121ea565b82525050565b60006020820190506125ba6000830184612596565b92915050565b6000806000606084860312156125d9576125d86121e0565b5b60006125e78682870161220b565b93505060206125f886828701612269565b925050604084013567ffffffffffffffff811115612619576126186121e5565b5b61262586828701612283565b9150509250925092565b600060208284031215612645576126446121e0565b5b60006126538482850161220b565b91505092915050565b60006bffffffffffffffffffffffff82169050919050565b61267d8161265c565b82525050565b60006020820190506126986000830184612674565b92915050565b600080fd5b600080fd5b6000819050919050565b6126bb816126a8565b81146126c657600080fd5b50565b6000813590506126d8816126b2565b92915050565b6000608082840312156126f4576126f361269e565b5b6126fe6080612413565b9050600061270e848285016126c9565b6000830152506020612722848285016126c9565b6020830152506040612736848285016126c9565b604083015250606082013567ffffffffffffffff81111561275a576127596126a3565b5b612766848285016124b0565b60608301525092915050565b600060208284031215612788576127876121e0565b5b600082013567ffffffffffffffff8111156127a6576127a56121e5565b5b6127b2848285016126de565b91505092915050565b6127c4816126a8565b82525050565b6040820160008201516127e060008501826127bb565b5060208201516127f360208501826127bb565b50505050565b600060408201905061280e60008301846127ca565b92915050565b600080fd5b600080fd5b60008083601f84011261283457612833612398565b5b8235905067ffffffffffffffff81111561285157612850612814565b5b60208301915083600182028301111561286d5761286c612819565b5b9250929050565b6000806000806060858703121561288e5761288d6121e0565b5b600061289c8782880161220b565b945050602085013567ffffffffffffffff8111156128bd576128bc6121e5565b5b6128c98782880161281e565b9350935050604085013567ffffffffffffffff8111156128ec576128eb6121e5565b5b6128f887828801612283565b91505092959194509250565b6000806040838503121561291b5761291a6121e0565b5b600061292985828601612269565b925050602061293a85828601612269565b9150509250929050565b7f4e487b7100000000000000000000000000000000000000000000000000000000600052601160045260246000fd5b600061297e8261265c565b91506129898361265c565b9250826bffffffffffffffffffffffff038211156129aa576129a9612944565b5b828201905092915050565b600082825260208201905092915050565b7f46756e6374696f6e206d7573742062652063616c6c6564207468726f7567682060008201527f64656c656761746563616c6c0000000000000000000000000000000000000000602082015250565b6000612a22602c836129b5565b9150612a2d826129c6565b604082019050919050565b60006020820190508181036000830152612a5181612a15565b9050919050565b7f46756e6374696f6e206d7573742062652063616c6c6564207468726f7567682060008201527f6163746976652070726f78790000000000000000000000000000000000000000602082015250565b6000612ab4602c836129b5565b9150612abf82612a58565b604082019050919050565b60006020820190508181036000830152612ae381612aa7565b9050919050565b7f555550535570677261646561626c653a206d757374206e6f742062652063616c60008201527f6c6564207468726f7567682064656c656761746563616c6c0000000000000000602082015250565b6000612b466038836129b5565b9150612b5182612aea565b604082019050919050565b60006020820190508181036000830152612b7581612b39565b9050919050565b7f4845584c30303900000000000000000000000000000000000000000000000000600082015250565b6000612bb26007836129b5565b9150612bbd82612b7c565b602082019050919050565b60006020820190508181036000830152612be181612ba5565b9050919050565b7f4845584c30313500000000000000000000000000000000000000000000000000600082015250565b6000612c1e6007836129b5565b9150612c2982612be8565b602082019050919050565b60006020820190508181036000830152612c4d81612c11565b9050919050565b60007fffffffff0000000000000000000000000000000000000000000000000000000082169050919050565b612c8981612c54565b82525050565b600081519050919050565b600082825260208201905092915050565b60005b83811015612cc9578082015181840152602081019050612cae565b83811115612cd8576000848401525b50505050565b6000612ce982612c8f565b612cf38185612c9a565b9350612d03818560208601612cab565b612d0c816123a2565b840191505092915050565b612d20816126a8565b82525050565b600060a082019050612d3b6000830188612c80565b8181036020830152612d4d8187612cde565b9050612d5c604083018661236e565b612d696060830185612d17565b612d766080830184612674565b9695505050505050565b7f4845584c30303400000000000000000000000000000000000000000000000000600082015250565b6000612db66007836129b5565b9150612dc182612d80565b602082019050919050565b60006020820190508181036000830152612de581612da9565b9050919050565b7f4845584c30313200000000000000000000000000000000000000000000000000600082015250565b6000612e226007836129b5565b9150612e2d82612dec565b602082019050919050565b60006020820190508181036000830152612e5181612e15565b9050919050565b600081519050612e67816121f4565b92915050565b600060208284031215612e8357612e826121e0565b5b6000612e9184828501612e58565b91505092915050565b7f45524331393637557067726164653a206e657720696d706c656d656e7461746960008201527f6f6e206973206e6f742055555053000000000000000000000000000000000000602082015250565b6000612ef6602e836129b5565b9150612f0182612e9a565b604082019050919050565b60006020820190508181036000830152612f2581612ee9565b9050919050565b7f45524331393637557067726164653a20756e737570706f727465642070726f7860008201527f6961626c65555549440000000000000000000000000000000000000000000000602082015250565b6000612f886029836129b5565b9150612f9382612f2c565b604082019050919050565b60006020820190508181036000830152612fb781612f7b565b9050919050565b7f4845584c30303300000000000000000000000000000000000000000000000000600082015250565b6000612ff46007836129b5565b9150612fff82612fbe565b602082019050919050565b6000602082019050818103600083015261302381612fe7565b9050919050565b600061303636836126de565b9050919050565b6000613048826126a8565b9150613053836126a8565b9250827fffffffffffffffffffffffffffffffffffffffffffffffffffffffffffffffff0382111561308857613087612944565b5b828201905092915050565b7f4845584c30303500000000000000000000000000000000000000000000000000600082015250565b60006130c96007836129b5565b91506130d482613093565b602082019050919050565b600060208201905081810360008301526130f8816130bc565b9050919050565b7f455243313136373a2063726561746532206661696c6564000000000000000000600082015250565b60006131356017836129b5565b9150613140826130ff565b602082019050919050565b6000602082019050818103600083015261316481613128565b9050919050565b7f4845584c30303600000000000000000000000000000000000000000000000000600082015250565b60006131a16007836129b5565b91506131ac8261316b565b602082019050919050565b600060208201905081810360008301526131d081613194565b9050919050565b600060a0820190506131ec6000830188612596565b6131f96020830187612596565b6132066040830186612d17565b6132136060830185612d17565b6132206080830184612d17565b9695505050505050565b600080fd5b600080fd5b600080fd5b600080833560016020038436030381126132565761325561322a565b5b80840192508235915067ffffffffffffffff8211156132785761327761322f565b5b60208301925060018202360383131561329457613293613234565b5b509250929050565b60006132a88385612c9a565b93506132b583858461245f565b6132be836123a2565b840190509392505050565b60006040820190506132de6000830186612596565b81810360208301526132f181848661329c565b9050949350505050565b61330481612c54565b811461330f57600080fd5b50565b600081519050613321816132fb565b92915050565b60006020828403121561333d5761333c6121e0565b5b600061334b84828501613312565b91505092915050565b60008160e01c9050919050565b600060033d11156133805760046000803e61337d600051613354565b90505b90565b600060443d101561339357613416565b61339b6121d6565b60043d036004823e80513d602482011167ffffffffffffffff821117156133c3575050613416565b808201805167ffffffffffffffff8111156133e15750505050613416565b80602083010160043d0385018111156133fe575050505050613416565b61340d826020018501866123e2565b82955050505050505b90565b600081519050919050565b600061342f82613419565b61343981856129b5565b9350613449818560208601612cab565b613452816123a2565b840191505092915050565b600060208201905081810360008301526134778184613424565b905092915050565b7f4845584c30303800000000000000000000000000000000000000000000000000600082015250565b60006134b56007836129b5565b91506134c08261347f565b602082019050919050565b600060208201905081810360008301526134e4816134a8565b9050919050565b7f4845584c30303700000000000000000000000000000000000000000000000000600082015250565b60006135216007836129b5565b915061352c826134eb565b602082019050919050565b6000602082019050818103600083015261355081613514565b9050919050565b7f455243313936373a206e657720696d706c656d656e746174696f6e206973206e60008201527f6f74206120636f6e747261637400000000000000000000000000000000000000602082015250565b60006135b3602d836129b5565b91506135be82613557565b604082019050919050565b600060208201905081810360008301526135e2816135a6565b9050919050565b7f416464726573733a20696e73756666696369656e742062616c616e636520666f60008201527f722063616c6c0000000000000000000000000000000000000000000000000000602082015250565b60006136456026836129b5565b9150613650826135e9565b604082019050919050565b6000602082019050818103600083015261367481613638565b9050919050565b600081905092915050565b600061369182612c8f565b61369b818561367b565b93506136ab818560208601612cab565b80840191505092915050565b60006136c38284613686565b915081905092915050565b6040820160008201516136e460008501826127bb565b5060208201516136f760208501826127bb565b50505050565b600060408201905061371260008301846136ce565b92915050565b60008151905061372781612252565b92915050565b600060208284031215613743576137426121e0565b5b600061375184828501613718565b91505092915050565b7f4845584c30313700000000000000000000000000000000000000000000000000600082015250565b60006137906007836129b5565b915061379b8261375a565b602082019050919050565b600060208201905081810360008301526137bf81613783565b9050919050565b7f416464726573733a2063616c6c20746f206e6f6e2d636f6e7472616374000000600082015250565b60006137fc601d836129b5565b9150613807826137c6565b602082019050919050565b6000602082019050818103600083015261382b816137ef565b905091905056fe416464726573733a206c6f772d6c6576656c2064656c65676174652063616c6c206661696c6564a2646970667358221220d1b64c8709ea7605870e8cd0b632a3526e1d8ecb9b46d20fdbbd6c6378b0b85364736f6c63430008080033",
  "devdoc": {
    "kind": "dev",
    "methods": {
      "owner()": {
        "returns": {
          "_0": "conrtact owner"
        }
      },
      "proxiableUUID()": {
        "details": "Implementation of the ERC1822 {proxiableUUID} function. This returns the storage slot used by the implementation. It is used to validate the implementation's compatibility when performing an upgrade. IMPORTANT: A proxy pointing at a proxiable contract should not be considered proxiable itself, because this risks bricking a proxy that upgrades to it, by delegating to itself until out of gas. Thus it is critical that this function revert if invoked through a proxy. This is guaranteed by the `notDelegated` modifier."
      },
      "transferOwnership(address)": {
        "params": {
          "account": "address of new owner"
        }
      },
      "upgradeTo(address)": {
        "details": "Upgrade the implementation of the proxy to `newImplementation`. Calls {_authorizeUpgrade}. Emits an {Upgraded} event."
      },
      "upgradeToAndCall(address,bytes)": {
        "details": "Upgrade the implementation of the proxy to `newImplementation`, and subsequently execute the function call encoded in `data`. Calls {_authorizeUpgrade}. Emits an {Upgraded} event."
      }
    },
    "version": 1
  },
  "userdoc": {
    "kind": "user",
    "methods": {
      "owner()": {
        "notice": "get the ERC173 contract owner"
      },
      "transferOwnership(address)": {
        "notice": "transfer contract ownership to new account"
      }
    },
    "version": 1
  },
  "storageLayout": {
    "storage": [
      {
        "astId": 9975,
        "contract": "contracts/hexlink/HexlinkUpgradeable.sol:HexlinkUpgradeable",
        "label": "states",
        "offset": 0,
        "slot": "0",
        "type": "t_mapping(t_bytes32,t_struct(AccountState)9953_storage)"
      }
    ],
    "types": {
      "t_address": {
        "encoding": "inplace",
        "label": "address",
        "numberOfBytes": "20"
      },
      "t_bytes32": {
        "encoding": "inplace",
        "label": "bytes32",
        "numberOfBytes": "32"
      },
      "t_mapping(t_bytes32,t_struct(AccountState)9953_storage)": {
        "encoding": "mapping",
        "key": "t_bytes32",
        "label": "mapping(bytes32 => struct Hexlink.AccountState)",
        "numberOfBytes": "32",
        "value": "t_struct(AccountState)9953_storage"
      },
      "t_struct(AccountState)9953_storage": {
        "encoding": "inplace",
        "label": "struct Hexlink.AccountState",
        "members": [
          {
            "astId": 9950,
            "contract": "contracts/hexlink/HexlinkUpgradeable.sol:HexlinkUpgradeable",
            "label": "account",
            "offset": 0,
            "slot": "0",
            "type": "t_address"
          },
          {
            "astId": 9952,
            "contract": "contracts/hexlink/HexlinkUpgradeable.sol:HexlinkUpgradeable",
            "label": "nonce",
            "offset": 20,
            "slot": "0",
            "type": "t_uint96"
          }
        ],
        "numberOfBytes": "32"
      },
      "t_uint96": {
        "encoding": "inplace",
        "label": "uint96",
        "numberOfBytes": "12"
      }
    }
  }
}