{
  "address": "0xf1a75Cc7a866ee681e07Da2a7bdc0e535a7Dd8a7",
  "abi": [
    {
      "inputs": [
        {
          "internalType": "address",
          "name": "accountBase",
          "type": "address"
        }
      ],
      "stateMutability": "nonpayable",
      "type": "constructor"
    },
    {
      "inputs": [],
      "name": "Ownable__NotOwner",
      "type": "error"
    },
    {
      "inputs": [],
      "name": "Ownable__NotTransitiveOwner",
      "type": "error"
    },
    {
      "anonymous": false,
      "inputs": [
        {
          "indexed": false,
          "internalType": "address",
          "name": "previousAdmin",
          "type": "address"
        },
        {
          "indexed": false,
          "internalType": "address",
          "name": "newAdmin",
          "type": "address"
        }
      ],
      "name": "AdminChanged",
      "type": "event"
    },
    {
      "anonymous": false,
      "inputs": [
        {
          "indexed": true,
          "internalType": "address",
          "name": "beacon",
          "type": "address"
        }
      ],
      "name": "BeaconUpgraded",
      "type": "event"
    },
    {
      "anonymous": false,
      "inputs": [
        {
          "indexed": true,
          "internalType": "bytes32",
          "name": "name",
          "type": "bytes32"
        },
        {
          "indexed": true,
          "internalType": "address",
          "name": "account",
          "type": "address"
        }
      ],
      "name": "Deploy",
      "type": "event"
    },
    {
      "anonymous": false,
      "inputs": [
        {
          "indexed": true,
          "internalType": "address",
          "name": "previousOwner",
          "type": "address"
        },
        {
          "indexed": true,
          "internalType": "address",
          "name": "newOwner",
          "type": "address"
        }
      ],
      "name": "OwnershipTransferred",
      "type": "event"
    },
    {
      "anonymous": false,
      "inputs": [
        {
          "indexed": true,
          "internalType": "bytes32",
          "name": "name",
          "type": "bytes32"
        },
        {
          "indexed": true,
          "internalType": "address",
          "name": "account",
          "type": "address"
        }
      ],
      "name": "Reset",
      "type": "event"
    },
    {
      "anonymous": false,
      "inputs": [
        {
          "indexed": true,
          "internalType": "address",
          "name": "implementation",
          "type": "address"
        }
      ],
      "name": "Upgraded",
      "type": "event"
    },
    {
      "inputs": [],
      "name": "accountBase",
      "outputs": [
        {
          "internalType": "address",
          "name": "",
          "type": "address"
        }
      ],
      "stateMutability": "view",
      "type": "function"
    },
    {
      "inputs": [
        {
          "internalType": "bytes32",
          "name": "name",
          "type": "bytes32"
        }
      ],
      "name": "addressOfName",
      "outputs": [
        {
          "internalType": "address",
          "name": "",
          "type": "address"
        }
      ],
      "stateMutability": "view",
      "type": "function"
    },
    {
      "inputs": [
        {
          "internalType": "bytes32",
          "name": "name",
          "type": "bytes32"
        },
        {
          "components": [
            {
              "internalType": "uint256",
              "name": "issuedAt",
              "type": "uint256"
            },
            {
              "internalType": "bytes32",
              "name": "identityType",
              "type": "bytes32"
            },
            {
              "internalType": "bytes32",
              "name": "authType",
              "type": "bytes32"
            },
            {
              "internalType": "bytes",
              "name": "signature",
              "type": "bytes"
            }
          ],
          "internalType": "struct AuthProof",
          "name": "proof",
          "type": "tuple"
        }
      ],
      "name": "bumpNonce",
      "outputs": [],
      "stateMutability": "nonpayable",
      "type": "function"
    },
    {
      "inputs": [
        {
          "internalType": "bytes32",
          "name": "name",
          "type": "bytes32"
        },
        {
          "internalType": "bytes",
          "name": "txData",
          "type": "bytes"
        },
        {
          "components": [
            {
              "internalType": "uint256",
              "name": "issuedAt",
              "type": "uint256"
            },
            {
              "internalType": "bytes32",
              "name": "identityType",
              "type": "bytes32"
            },
            {
              "internalType": "bytes32",
              "name": "authType",
              "type": "bytes32"
            },
            {
              "internalType": "bytes",
              "name": "signature",
              "type": "bytes"
            }
          ],
          "internalType": "struct AuthProof",
          "name": "proof",
          "type": "tuple"
        }
      ],
      "name": "deploy",
      "outputs": [
        {
          "internalType": "address",
          "name": "",
          "type": "address"
        }
      ],
      "stateMutability": "nonpayable",
      "type": "function"
    },
    {
      "inputs": [],
      "name": "implementation",
      "outputs": [
        {
          "internalType": "address",
          "name": "",
          "type": "address"
        }
      ],
      "stateMutability": "view",
      "type": "function"
    },
    {
      "inputs": [
        {
          "internalType": "address",
          "name": "owner",
          "type": "address"
        },
        {
          "internalType": "address",
          "name": "oracleRegistry",
          "type": "address"
        }
      ],
      "name": "init",
      "outputs": [],
      "stateMutability": "nonpayable",
      "type": "function"
    },
    {
      "inputs": [
        {
          "internalType": "bytes32",
          "name": "name",
          "type": "bytes32"
        }
      ],
      "name": "nonce",
      "outputs": [
        {
          "internalType": "uint96",
          "name": "",
          "type": "uint96"
        }
      ],
      "stateMutability": "view",
      "type": "function"
    },
    {
      "inputs": [],
      "name": "oracleRegistry",
      "outputs": [
        {
          "internalType": "address",
          "name": "",
          "type": "address"
        }
      ],
      "stateMutability": "view",
      "type": "function"
    },
    {
      "inputs": [],
      "name": "owner",
      "outputs": [
        {
          "internalType": "address",
          "name": "",
          "type": "address"
        }
      ],
      "stateMutability": "view",
      "type": "function"
    },
    {
      "inputs": [],
      "name": "proxiableUUID",
      "outputs": [
        {
          "internalType": "bytes32",
          "name": "",
          "type": "bytes32"
        }
      ],
      "stateMutability": "view",
      "type": "function"
    },
    {
      "inputs": [
        {
          "internalType": "bytes32",
          "name": "name",
          "type": "bytes32"
        },
        {
          "internalType": "address",
          "name": "account",
          "type": "address"
        },
        {
          "components": [
            {
              "internalType": "uint256",
              "name": "issuedAt",
              "type": "uint256"
            },
            {
              "internalType": "bytes32",
              "name": "identityType",
              "type": "bytes32"
            },
            {
              "internalType": "bytes32",
              "name": "authType",
              "type": "bytes32"
            },
            {
              "internalType": "bytes",
              "name": "signature",
              "type": "bytes"
            }
          ],
          "internalType": "struct AuthProof",
          "name": "proof",
          "type": "tuple"
        }
      ],
      "name": "reset",
      "outputs": [],
      "stateMutability": "nonpayable",
      "type": "function"
    },
    {
      "inputs": [
        {
          "internalType": "bytes32",
          "name": "name",
          "type": "bytes32"
        },
        {
          "internalType": "address",
          "name": "account",
          "type": "address"
        },
        {
          "components": [
            {
              "internalType": "uint256",
              "name": "issuedAt",
              "type": "uint256"
            },
            {
              "internalType": "bytes32",
              "name": "identityType",
              "type": "bytes32"
            },
            {
              "internalType": "bytes32",
              "name": "authType",
              "type": "bytes32"
            },
            {
              "internalType": "bytes",
              "name": "signature",
              "type": "bytes"
            }
          ],
          "internalType": "struct AuthProof",
          "name": "proof1",
          "type": "tuple"
        },
        {
          "components": [
            {
              "internalType": "uint256",
              "name": "issuedAt",
              "type": "uint256"
            },
            {
              "internalType": "bytes32",
              "name": "identityType",
              "type": "bytes32"
            },
            {
              "internalType": "bytes32",
              "name": "authType",
              "type": "bytes32"
            },
            {
              "internalType": "bytes",
              "name": "signature",
              "type": "bytes"
            }
          ],
          "internalType": "struct AuthProof",
          "name": "proof2",
          "type": "tuple"
        }
      ],
      "name": "reset2Fac",
      "outputs": [],
      "stateMutability": "nonpayable",
      "type": "function"
    },
    {
      "inputs": [
        {
          "internalType": "bytes32",
          "name": "name",
          "type": "bytes32"
        },
        {
          "internalType": "address",
          "name": "account",
          "type": "address"
        },
        {
          "components": [
            {
              "internalType": "uint256",
              "name": "issuedAt",
              "type": "uint256"
            },
            {
              "internalType": "bytes32",
              "name": "identityType",
              "type": "bytes32"
            },
            {
              "internalType": "bytes32",
              "name": "authType",
              "type": "bytes32"
            },
            {
              "internalType": "bytes",
              "name": "signature",
              "type": "bytes"
            }
          ],
          "internalType": "struct AuthProof",
          "name": "proof",
          "type": "tuple"
        }
      ],
      "name": "reset2Stage",
      "outputs": [],
      "stateMutability": "nonpayable",
      "type": "function"
    },
    {
      "inputs": [
        {
          "internalType": "address",
          "name": "oracleRegistry",
          "type": "address"
        }
      ],
      "name": "setOracleRegistry",
      "outputs": [],
      "stateMutability": "nonpayable",
      "type": "function"
    },
    {
      "inputs": [
        {
          "internalType": "address",
          "name": "account",
          "type": "address"
        }
      ],
      "name": "transferOwnership",
      "outputs": [],
      "stateMutability": "nonpayable",
      "type": "function"
    },
    {
      "inputs": [],
      "name": "ttl",
      "outputs": [
        {
          "internalType": "uint256",
          "name": "",
          "type": "uint256"
        }
      ],
      "stateMutability": "view",
      "type": "function"
    },
    {
      "inputs": [],
      "name": "twoStageLock",
      "outputs": [
        {
          "internalType": "uint256",
          "name": "",
          "type": "uint256"
        }
      ],
      "stateMutability": "view",
      "type": "function"
    },
    {
      "inputs": [
        {
          "internalType": "address",
          "name": "newImplementation",
          "type": "address"
        }
      ],
      "name": "upgradeTo",
      "outputs": [],
      "stateMutability": "nonpayable",
      "type": "function"
    },
    {
      "inputs": [
        {
          "internalType": "address",
          "name": "newImplementation",
          "type": "address"
        },
        {
          "internalType": "bytes",
          "name": "data",
          "type": "bytes"
        }
      ],
      "name": "upgradeToAndCall",
      "outputs": [],
      "stateMutability": "payable",
      "type": "function"
    }
  ],
  "transactionHash": "0x281bd95b7b12c98f72fcd6f527d9aec8772000a1b33b35274c489703dc3b789c",
  "args": [
    "0x48EBe15A07CD576783803294beb2d57f063446c4"
  ],
  "numDeployments": 5,
  "solcInputHash": "74b9369ead8380d62bfd73f274396a29",
  "bytecode": "0x60c06040523073ffffffffffffffffffffffffffffffffffffffff1660a09073ffffffffffffffffffffffffffffffffffffffff1660601b8152503480156200004757600080fd5b50604051620039973803806200399783398181016040528101906200006d919062000117565b808073ffffffffffffffffffffffffffffffffffffffff1660808173ffffffffffffffffffffffffffffffffffffffff1660601b81525050505062000149565b600080fd5b600073ffffffffffffffffffffffffffffffffffffffff82169050919050565b6000620000df82620000b2565b9050919050565b620000f181620000d2565b8114620000fd57600080fd5b50565b6000815190506200011181620000e6565b92915050565b60006020828403121562000130576200012f620000ad565b5b6000620001408482850162000100565b91505092915050565b60805160601c60a05160601c6137f86200019f6000396000818161046a015281816104f90152818161062d015281816106bc015261076c015260008181610bc201528181610cd4015261159e01526137f86000f3fe6080604052600436106101145760003560e01c80638165354e116100a0578063cd6a84b311610064578063cd6a84b31461037e578063f09a4016146103a9578063f2b01a82146103d2578063f2fde38b1461040f578063f5a3e3dc1461043857610114565b80638165354e1461029b5780638da5cb5b146102c4578063905da30f146102ef5780639cd6bc371461032c578063b7a24c0f1461035557610114565b80634f1ef286116100e75780634f1ef286146101c357806352d1902d146101df5780635c60da1b1461020a578063643012c3146102355780637eaa9c8c1461025e57610114565b80632ebdf1d2146101195780633659cfe6146101445780634bb93ab11461016d5780634e8b1dd514610198575b600080fd5b34801561012557600080fd5b5061012e610461565b60405161013b9190612241565b60405180910390f35b34801561015057600080fd5b5061016b600480360381019061016691906122ce565b610468565b005b34801561017957600080fd5b506101826105f1565b60405161018f919061230a565b60405180910390f35b3480156101a457600080fd5b506101ad610624565b6040516101ba9190612241565b60405180910390f35b6101dd60048036038101906101d8919061246b565b61062b565b005b3480156101eb57600080fd5b506101f4610768565b60405161020191906124e0565b60405180910390f35b34801561021657600080fd5b5061021f610821565b60405161022c919061230a565b60405180910390f35b34801561024157600080fd5b5061025c6004803603810190610257919061254b565b610830565b005b34801561026a57600080fd5b50610285600480360381019061028091906125ea565b6108cd565b604051610292919061230a565b60405180910390f35b3480156102a757600080fd5b506102c260048036038101906102bd91906122ce565b610915565b005b3480156102d057600080fd5b506102d961098d565b6040516102e6919061230a565b60405180910390f35b3480156102fb57600080fd5b50610316600480360381019061031191906125ea565b61099c565b604051610323919061263e565b60405180910390f35b34801561033857600080fd5b50610353600480360381019061034e9190612659565b6109d3565b005b34801561036157600080fd5b5061037c60048036038101906103779190612659565b610b16565b005b34801561038a57600080fd5b50610393610bc0565b6040516103a0919061230a565b60405180910390f35b3480156103b557600080fd5b506103d060048036038101906103cb91906126c8565b610be4565b005b3480156103de57600080fd5b506103f960048036038101906103f49190612768565b610c70565b604051610406919061230a565b60405180910390f35b34801561041b57600080fd5b50610436600480360381019061043191906122ce565b610e0e565b005b34801561044457600080fd5b5061045f600480360381019061045a91906127f8565b610e86565b005b6203f48081565b7f000000000000000000000000000000000000000000000000000000000000000073ffffffffffffffffffffffffffffffffffffffff163073ffffffffffffffffffffffffffffffffffffffff1614156104f7576040517f08c379a00000000000000000000000000000000000000000000000000000000081526004016104ee906128d7565b60405180910390fd5b7f000000000000000000000000000000000000000000000000000000000000000073ffffffffffffffffffffffffffffffffffffffff16610536610f06565b73ffffffffffffffffffffffffffffffffffffffff161461058c576040517f08c379a000000000000000000000000000000000000000000000000000000000815260040161058390612969565b60405180910390fd5b61059581610f5d565b6105ee81600067ffffffffffffffff8111156105b4576105b3612340565b5b6040519080825280601f01601f1916602001820160405280156105e65781602001600182028036833780820191505090505b506000610fcc565b50565b60006105fb611149565b60000160009054906101000a900473ffffffffffffffffffffffffffffffffffffffff16905090565b6203f48081565b7f000000000000000000000000000000000000000000000000000000000000000073ffffffffffffffffffffffffffffffffffffffff163073ffffffffffffffffffffffffffffffffffffffff1614156106ba576040517f08c379a00000000000000000000000000000000000000000000000000000000081526004016106b1906128d7565b60405180910390fd5b7f000000000000000000000000000000000000000000000000000000000000000073ffffffffffffffffffffffffffffffffffffffff166106f9610f06565b73ffffffffffffffffffffffffffffffffffffffff161461074f576040517f08c379a000000000000000000000000000000000000000000000000000000000815260040161074690612969565b60405180910390fd5b61075882610f5d565b61076482826001610fcc565b5050565b60007f000000000000000000000000000000000000000000000000000000000000000073ffffffffffffffffffffffffffffffffffffffff163073ffffffffffffffffffffffffffffffffffffffff16146107f8576040517f08c379a00000000000000000000000000000000000000000000000000000000081526004016107ef906129fb565b60405180910390fd5b7f360894a13ba1a3210667c828492db98dca3e2076cc3735a920a3ca505d382bbc60001b905090565b600061082b610f06565b905090565b600061085b8585604051602001610847919061230a565b604051602081830303815290604052611176565b90506108688184846112ed565b610872858561134e565b600181606001516108839190612a4a565b60008087815260200190815260200160002060000160146101000a8154816bffffffffffffffffffffffff02191690836bffffffffffffffffffffffff1602179055505050505050565b600061090e8260008085815260200190815260200160002060000160009054906101000a900473ffffffffffffffffffffffffffffffffffffffff1661145a565b9050919050565b61091d6114a7565b73ffffffffffffffffffffffffffffffffffffffff163373ffffffffffffffffffffffffffffffffffffffff1614610981576040517f2f7a8ee100000000000000000000000000000000000000000000000000000000815260040160405180910390fd5b61098a816114da565b50565b60006109976114a7565b905090565b600080600083815260200190815260200160002060000160149054906101000a90046bffffffffffffffffffffffff169050919050565b60006109fe84846040516020016109ea919061230a565b604051602081830303815290604052611176565b90506000610a0b85611597565b90508073ffffffffffffffffffffffffffffffffffffffff16826040015173ffffffffffffffffffffffffffffffffffffffff16148015610a685750610a668173ffffffffffffffffffffffffffffffffffffffff166115ca565b155b610aa7576040517f08c379a0000000000000000000000000000000000000000000000000000000008152600401610a9e90612ad8565b60405180910390fd5b610ab182846115ed565b610abb858561134e565b60018260600151610acc9190612a4a565b60008087815260200190815260200160002060000160146101000a8154816bffffffffffffffffffffffff02191690836bffffffffffffffffffffffff1602179055505050505050565b6000610b418484604051602001610b2d919061230a565b604051602081830303815290604052611176565b90506000610b4f8284611643565b90506002811415610bb957610b64858561134e565b60018260600151610b759190612a4a565b60008087815260200190815260200160002060000160146101000a8154816bffffffffffffffffffffffff02191690836bffffffffffffffffffffffff1602179055505b5050505050565b7f000000000000000000000000000000000000000000000000000000000000000081565b600073ffffffffffffffffffffffffffffffffffffffff16610c046114a7565b73ffffffffffffffffffffffffffffffffffffffff1614610c5a576040517f08c379a0000000000000000000000000000000000000000000000000000000008152600401610c5190612b44565b60405180910390fd5b610c63826117ac565b610c6c816114da565b5050565b600080610cc18686868080601f016020809104026020016040519081016040528093929190818152602001838380828437600081840152601f19601f82011690508083019250505050505050611176565b9050610ccd81846115ed565b6000610cf97f0000000000000000000000000000000000000000000000000000000000000000886117b8565b9050610d6886868080601f016020809104026020016040519081016040528093929190818152602001838380828437600081840152601f19601f820116905080830192505050505050508273ffffffffffffffffffffffffffffffffffffffff1661187590919063ffffffff16565b5060018260600151610d7a9190612a4a565b60008089815260200190815260200160002060000160146101000a8154816bffffffffffffffffffffffff02191690836bffffffffffffffffffffffff1602179055508073ffffffffffffffffffffffffffffffffffffffff16877fa4ec87efbdf333e464825b3a3a757dc501a72b53041a352de91a3fbdcdae650960405160405180910390a38092505050949350505050565b610e166114a7565b73ffffffffffffffffffffffffffffffffffffffff163373ffffffffffffffffffffffffffffffffffffffff1614610e7a576040517f2f7a8ee100000000000000000000000000000000000000000000000000000000815260040160405180910390fd5b610e83816117ac565b50565b6000610ea18360405180602001604052806000815250611176565b9050610ead81836115ed565b60018160600151610ebe9190612a4a565b60008085815260200190815260200160002060000160146101000a8154816bffffffffffffffffffffffff02191690836bffffffffffffffffffffffff160217905550505050565b6000610f347f360894a13ba1a3210667c828492db98dca3e2076cc3735a920a3ca505d382bbc60001b6118c1565b60000160009054906101000a900473ffffffffffffffffffffffffffffffffffffffff16905090565b610f656114a7565b73ffffffffffffffffffffffffffffffffffffffff163373ffffffffffffffffffffffffffffffffffffffff1614610fc9576040517f2f7a8ee100000000000000000000000000000000000000000000000000000000815260040160405180910390fd5b50565b610ff87f4910fdfa16fed3260ed0e7147f7cc6da11a60208b5b9406d12a635614ffd914360001b6118cb565b60000160009054906101000a900460ff161561101c57611017836118d5565b611144565b8273ffffffffffffffffffffffffffffffffffffffff166352d1902d6040518163ffffffff1660e01b815260040160206040518083038186803b15801561106257600080fd5b505afa92505050801561109357506040513d601f19601f820116820180604052508101906110909190612b79565b60015b6110d2576040517f08c379a00000000000000000000000000000000000000000000000000000000081526004016110c990612c18565b60405180910390fd5b7f360894a13ba1a3210667c828492db98dca3e2076cc3735a920a3ca505d382bbc60001b8114611137576040517f08c379a000000000000000000000000000000000000000000000000000000000815260040161112e90612caa565b60405180910390fd5b5061114383838361198e565b5b505050565b6000807ff884206727a14387141eace3d812a8da620a47f4bcb60b011186e317fde6785890508091505090565b61117e6121d6565b60008060008581526020019081526020016000206040518060400160405290816000820160009054906101000a900473ffffffffffffffffffffffffffffffffffffffff1673ffffffffffffffffffffffffffffffffffffffff1673ffffffffffffffffffffffffffffffffffffffff1681526020016000820160149054906101000a90046bffffffffffffffffffffffff166bffffffffffffffffffffffff166bffffffffffffffffffffffff16815250509050600080357fffffffff00000000000000000000000000000000000000000000000000000000168430468560200151604051602001611275959493929190612d8d565b60405160208183030381529060405280519060200120905060405180608001604052808681526020018281526020016112b287856000015161145a565b73ffffffffffffffffffffffffffffffffffffffff16815260200183602001516bffffffffffffffffffffffff168152509250505092915050565b6112f783836115ed565b611300816119ba565b61133f576040517f08c379a000000000000000000000000000000000000000000000000000000000815260040161133690612e33565b60405180910390fd5b61134983826119cd565b505050565b600073ffffffffffffffffffffffffffffffffffffffff168173ffffffffffffffffffffffffffffffffffffffff1614156113be576040517f08c379a00000000000000000000000000000000000000000000000000000000081526004016113b590612e9f565b60405180910390fd5b8060008084815260200190815260200160002060000160006101000a81548173ffffffffffffffffffffffffffffffffffffffff021916908373ffffffffffffffffffffffffffffffffffffffff1602179055508073ffffffffffffffffffffffffffffffffffffffff16827f9ea66a51baa076262b5c824021c8d0594003137dc336d820c66ae07e2bdc78a660405160405180910390a35050565b60008073ffffffffffffffffffffffffffffffffffffffff168273ffffffffffffffffffffffffffffffffffffffff1614611495578161149f565b61149e83611597565b5b905092915050565b60006114b1611c65565b60000160009054906101000a900473ffffffffffffffffffffffffffffffffffffffff16905090565b600073ffffffffffffffffffffffffffffffffffffffff168173ffffffffffffffffffffffffffffffffffffffff16141561154a576040517f08c379a000000000000000000000000000000000000000000000000000000000815260040161154190612f0b565b60405180910390fd5b80611553611149565b60000160006101000a81548173ffffffffffffffffffffffffffffffffffffffff021916908373ffffffffffffffffffffffffffffffffffffffff16021790555050565b60006115c37f000000000000000000000000000000000000000000000000000000000000000083611c92565b9050919050565b6000808273ffffffffffffffffffffffffffffffffffffffff163b119050919050565b6115f681611ca7565b611635576040517f08c379a000000000000000000000000000000000000000000000000000000000815260040161162c90612f77565b60405180910390fd5b61163f82826119cd565b5050565b60008061164e611149565b9050600081600101600086600001518152602001908152602001600020600086602001518152602001908152602001600020604051806040016040529081600082015481526020016001820154815250509050600081600001511415611733576116b885856115ed565b428260010160008760000151815260200190815260200160002060008760200151815260200190815260200160002060000181905550836020013582600101600087600001518152602001908152602001600020600087602001518152602001908152602001600020600101819055506001925050506117a6565b61173c846119ba565b611795576203f48081600001516117539190612f97565b4211611794576040517f08c379a000000000000000000000000000000000000000000000000000000000815260040161178b90613039565b60405180910390fd5b5b61179f85856119cd565b6002925050505b92915050565b6117b581611cbb565b50565b6000763d602d80600a3d3981f3363d3d373d3d3d363d730000008360601b60e81c176000526e5af43d82803e903d91602b57fd5bf38360781b1760205281603760096000f59050600073ffffffffffffffffffffffffffffffffffffffff168173ffffffffffffffffffffffffffffffffffffffff16141561186f576040517f08c379a0000000000000000000000000000000000000000000000000000000008152600401611866906130a5565b60405180910390fd5b92915050565b60606118b9838360006040518060400160405280601e81526020017f416464726573733a206c6f772d6c6576656c2063616c6c206661696c65640000815250611d8c565b905092915050565b6000819050919050565b6000819050919050565b6118de816115ca565b61191d576040517f08c379a000000000000000000000000000000000000000000000000000000000815260040161191490613137565b60405180910390fd5b8061194a7f360894a13ba1a3210667c828492db98dca3e2076cc3735a920a3ca505d382bbc60001b6118c1565b60000160006101000a81548173ffffffffffffffffffffffffffffffffffffffff021916908373ffffffffffffffffffffffffffffffffffffffff16021790555050565b61199783611e59565b6000825111806119a45750805b156119b5576119b38383611ea8565b505b505050565b60008060001b8260200135149050919050565b4281600001351080156119f15750426203f48082600001356119ef9190612f97565b115b611a30576040517f08c379a0000000000000000000000000000000000000000000000000000000008152600401611a27906131a3565b60405180910390fd5b600082600001518360200151836000013584602001358560400135604051602001611a5f9594939291906131c3565b60405160208183030381529060405280519060200120905060008060001b836020013514611a9557611a9083611ed5565b611a9b565b83604001515b90508073ffffffffffffffffffffffffffffffffffffffff16631626ba7e83858060600190611aca9190613225565b6040518463ffffffff1660e01b8152600401611ae8939291906132b5565b60206040518083038186803b158015611b0057600080fd5b505afa925050508015611b3157506040513d601f19601f82011682018060405250810190611b2e9190613313565b60015b611bd757611b3d61334d565b806308c379a01415611b9a5750611b5261336f565b80611b5d5750611b9c565b806040517f08c379a0000000000000000000000000000000000000000000000000000000008152600401611b919190613449565b60405180910390fd5b505b6040517f08c379a0000000000000000000000000000000000000000000000000000000008152600401611bce906134b7565b60405180910390fd5b631626ba7e60e01b7bffffffffffffffffffffffffffffffffffffffffffffffffffffffff1916817bffffffffffffffffffffffffffffffffffffffffffffffffffffffff191614611c5e576040517f08c379a0000000000000000000000000000000000000000000000000000000008152600401611c5590613523565b60405180910390fd5b5050505050565b6000807f8a22373512790c48b83a1fe2efdd2888d4a917bcdc24d0adf63e60f67168046090508091505090565b6000611c9f838330612029565b905092915050565b60008060001b826020013514159050919050565b6000611cc5611c65565b90508173ffffffffffffffffffffffffffffffffffffffff168160000160009054906101000a900473ffffffffffffffffffffffffffffffffffffffff1673ffffffffffffffffffffffffffffffffffffffff167f8be0079c531659141344cd1fd0a4f28419497f9722a3daafe3b4186f6b6457e060405160405180910390a3818160000160006101000a81548173ffffffffffffffffffffffffffffffffffffffff021916908373ffffffffffffffffffffffffffffffffffffffff1602179055505050565b606082471015611dd1576040517f08c379a0000000000000000000000000000000000000000000000000000000008152600401611dc8906135b5565b60405180910390fd5b6000808673ffffffffffffffffffffffffffffffffffffffff168587604051611dfa9190613611565b60006040518083038185875af1925050503d8060008114611e37576040519150601f19603f3d011682016040523d82523d6000602084013e611e3c565b606091505b5091509150611e4d8783838761208a565b92505050949350505050565b611e62816118d5565b8073ffffffffffffffffffffffffffffffffffffffff167fbc7cd75a20ee27fd9adebab32041f755214dbc6bffa90cc0225b39da2e5c2d3b60405160405180910390a250565b6060611ecd838360405180606001604052806027815260200161379c60279139612100565b905092915050565b600080604051806040016040528084602001358152602001846040013581525090506000611f01611149565b60000160009054906101000a900473ffffffffffffffffffffffffffffffffffffffff1673ffffffffffffffffffffffffffffffffffffffff1663d2f18f19836040518263ffffffff1660e01b8152600401611f5d9190613666565b60206040518083038186803b158015611f7557600080fd5b505afa158015611f89573d6000803e3d6000fd5b505050506040513d601f19601f82011682018060405250810190611fad9190613696565b9050600073ffffffffffffffffffffffffffffffffffffffff168173ffffffffffffffffffffffffffffffffffffffff16141561201f576040517f08c379a00000000000000000000000000000000000000000000000000000000081526004016120169061370f565b60405180910390fd5b8092505050919050565b60006040518260388201526f5af43d82803e903d91602b57fd5bf3ff6024820152846014820152733d602d80600a3d3981f3363d3d373d3d3d363d7381528360588201526037600c8201206078820152605560438201209150509392505050565b606083156120ed576000835114156120e5576120a5856115ca565b6120e4576040517f08c379a00000000000000000000000000000000000000000000000000000000081526004016120db9061377b565b60405180910390fd5b5b8290506120f8565b6120f78383612186565b5b949350505050565b60606000808573ffffffffffffffffffffffffffffffffffffffff168560405161212a9190613611565b600060405180830381855af49150503d8060008114612165576040519150601f19603f3d011682016040523d82523d6000602084013e61216a565b606091505b509150915061217b8683838761208a565b925050509392505050565b6000825111156121995781518083602001fd5b806040517f08c379a00000000000000000000000000000000000000000000000000000000081526004016121cd9190613449565b60405180910390fd5b60405180608001604052806000801916815260200160008019168152602001600073ffffffffffffffffffffffffffffffffffffffff16815260200160006bffffffffffffffffffffffff1681525090565b6000819050919050565b61223b81612228565b82525050565b60006020820190506122566000830184612232565b92915050565b6000604051905090565b600080fd5b600080fd5b600073ffffffffffffffffffffffffffffffffffffffff82169050919050565b600061229b82612270565b9050919050565b6122ab81612290565b81146122b657600080fd5b50565b6000813590506122c8816122a2565b92915050565b6000602082840312156122e4576122e3612266565b5b60006122f2848285016122b9565b91505092915050565b61230481612290565b82525050565b600060208201905061231f60008301846122fb565b92915050565b600080fd5b600080fd5b6000601f19601f8301169050919050565b7f4e487b7100000000000000000000000000000000000000000000000000000000600052604160045260246000fd5b6123788261232f565b810181811067ffffffffffffffff8211171561239757612396612340565b5b80604052505050565b60006123aa61225c565b90506123b6828261236f565b919050565b600067ffffffffffffffff8211156123d6576123d5612340565b5b6123df8261232f565b9050602081019050919050565b82818337600083830152505050565b600061240e612409846123bb565b6123a0565b90508281526020810184848401111561242a5761242961232a565b5b6124358482856123ec565b509392505050565b600082601f83011261245257612451612325565b5b81356124628482602086016123fb565b91505092915050565b6000806040838503121561248257612481612266565b5b6000612490858286016122b9565b925050602083013567ffffffffffffffff8111156124b1576124b061226b565b5b6124bd8582860161243d565b9150509250929050565b6000819050919050565b6124da816124c7565b82525050565b60006020820190506124f560008301846124d1565b92915050565b612504816124c7565b811461250f57600080fd5b50565b600081359050612521816124fb565b92915050565b600080fd5b60006080828403121561254257612541612527565b5b81905092915050565b6000806000806080858703121561256557612564612266565b5b600061257387828801612512565b9450506020612584878288016122b9565b935050604085013567ffffffffffffffff8111156125a5576125a461226b565b5b6125b18782880161252c565b925050606085013567ffffffffffffffff8111156125d2576125d161226b565b5b6125de8782880161252c565b91505092959194509250565b600060208284031215612600576125ff612266565b5b600061260e84828501612512565b91505092915050565b60006bffffffffffffffffffffffff82169050919050565b61263881612617565b82525050565b6000602082019050612653600083018461262f565b92915050565b60008060006060848603121561267257612671612266565b5b600061268086828701612512565b9350506020612691868287016122b9565b925050604084013567ffffffffffffffff8111156126b2576126b161226b565b5b6126be8682870161252c565b9150509250925092565b600080604083850312156126df576126de612266565b5b60006126ed858286016122b9565b92505060206126fe858286016122b9565b9150509250929050565b600080fd5b600080fd5b60008083601f84011261272857612727612325565b5b8235905067ffffffffffffffff81111561274557612744612708565b5b6020830191508360018202830111156127615761276061270d565b5b9250929050565b6000806000806060858703121561278257612781612266565b5b600061279087828801612512565b945050602085013567ffffffffffffffff8111156127b1576127b061226b565b5b6127bd87828801612712565b9350935050604085013567ffffffffffffffff8111156127e0576127df61226b565b5b6127ec8782880161252c565b91505092959194509250565b6000806040838503121561280f5761280e612266565b5b600061281d85828601612512565b925050602083013567ffffffffffffffff81111561283e5761283d61226b565b5b61284a8582860161252c565b9150509250929050565b600082825260208201905092915050565b7f46756e6374696f6e206d7573742062652063616c6c6564207468726f7567682060008201527f64656c656761746563616c6c0000000000000000000000000000000000000000602082015250565b60006128c1602c83612854565b91506128cc82612865565b604082019050919050565b600060208201905081810360008301526128f0816128b4565b9050919050565b7f46756e6374696f6e206d7573742062652063616c6c6564207468726f7567682060008201527f6163746976652070726f78790000000000000000000000000000000000000000602082015250565b6000612953602c83612854565b915061295e826128f7565b604082019050919050565b6000602082019050818103600083015261298281612946565b9050919050565b7f555550535570677261646561626c653a206d757374206e6f742062652063616c60008201527f6c6564207468726f7567682064656c656761746563616c6c0000000000000000602082015250565b60006129e5603883612854565b91506129f082612989565b604082019050919050565b60006020820190508181036000830152612a14816129d8565b9050919050565b7f4e487b7100000000000000000000000000000000000000000000000000000000600052601160045260246000fd5b6000612a5582612617565b9150612a6083612617565b9250826bffffffffffffffffffffffff03821115612a8157612a80612a1b565b5b828201905092915050565b7f4845584c30303900000000000000000000000000000000000000000000000000600082015250565b6000612ac2600783612854565b9150612acd82612a8c565b602082019050919050565b60006020820190508181036000830152612af181612ab5565b9050919050565b7f4845584c30313500000000000000000000000000000000000000000000000000600082015250565b6000612b2e600783612854565b9150612b3982612af8565b602082019050919050565b60006020820190508181036000830152612b5d81612b21565b9050919050565b600081519050612b73816124fb565b92915050565b600060208284031215612b8f57612b8e612266565b5b6000612b9d84828501612b64565b91505092915050565b7f45524331393637557067726164653a206e657720696d706c656d656e7461746960008201527f6f6e206973206e6f742055555053000000000000000000000000000000000000602082015250565b6000612c02602e83612854565b9150612c0d82612ba6565b604082019050919050565b60006020820190508181036000830152612c3181612bf5565b9050919050565b7f45524331393637557067726164653a20756e737570706f727465642070726f7860008201527f6961626c65555549440000000000000000000000000000000000000000000000602082015250565b6000612c94602983612854565b9150612c9f82612c38565b604082019050919050565b60006020820190508181036000830152612cc381612c87565b9050919050565b60007fffffffff0000000000000000000000000000000000000000000000000000000082169050919050565b612cff81612cca565b82525050565b600081519050919050565b600082825260208201905092915050565b60005b83811015612d3f578082015181840152602081019050612d24565b83811115612d4e576000848401525b50505050565b6000612d5f82612d05565b612d698185612d10565b9350612d79818560208601612d21565b612d828161232f565b840191505092915050565b600060a082019050612da26000830188612cf6565b8181036020830152612db48187612d54565b9050612dc360408301866122fb565b612dd06060830185612232565b612ddd608083018461262f565b9695505050505050565b7f4845584c30303400000000000000000000000000000000000000000000000000600082015250565b6000612e1d600783612854565b9150612e2882612de7565b602082019050919050565b60006020820190508181036000830152612e4c81612e10565b9050919050565b7f4845584c30313200000000000000000000000000000000000000000000000000600082015250565b6000612e89600783612854565b9150612e9482612e53565b602082019050919050565b60006020820190508181036000830152612eb881612e7c565b9050919050565b7f4845584c30323000000000000000000000000000000000000000000000000000600082015250565b6000612ef5600783612854565b9150612f0082612ebf565b602082019050919050565b60006020820190508181036000830152612f2481612ee8565b9050919050565b7f4845584c30303300000000000000000000000000000000000000000000000000600082015250565b6000612f61600783612854565b9150612f6c82612f2b565b602082019050919050565b60006020820190508181036000830152612f9081612f54565b9050919050565b6000612fa282612228565b9150612fad83612228565b9250827fffffffffffffffffffffffffffffffffffffffffffffffffffffffffffffffff03821115612fe257612fe1612a1b565b5b828201905092915050565b7f4845584c30303500000000000000000000000000000000000000000000000000600082015250565b6000613023600783612854565b915061302e82612fed565b602082019050919050565b6000602082019050818103600083015261305281613016565b9050919050565b7f455243313136373a2063726561746532206661696c6564000000000000000000600082015250565b600061308f601783612854565b915061309a82613059565b602082019050919050565b600060208201905081810360008301526130be81613082565b9050919050565b7f455243313936373a206e657720696d706c656d656e746174696f6e206973206e60008201527f6f74206120636f6e747261637400000000000000000000000000000000000000602082015250565b6000613121602d83612854565b915061312c826130c5565b604082019050919050565b6000602082019050818103600083015261315081613114565b9050919050565b7f4845584c30303600000000000000000000000000000000000000000000000000600082015250565b600061318d600783612854565b915061319882613157565b602082019050919050565b600060208201905081810360008301526131bc81613180565b9050919050565b600060a0820190506131d860008301886124d1565b6131e560208301876124d1565b6131f26040830186612232565b6131ff60608301856124d1565b61320c60808301846124d1565b9695505050505050565b600080fd5b600080fd5b600080fd5b6000808335600160200384360303811261324257613241613216565b5b80840192508235915067ffffffffffffffff8211156132645761326361321b565b5b6020830192506001820236038313156132805761327f613220565b5b509250929050565b60006132948385612d10565b93506132a18385846123ec565b6132aa8361232f565b840190509392505050565b60006040820190506132ca60008301866124d1565b81810360208301526132dd818486613288565b9050949350505050565b6132f081612cca565b81146132fb57600080fd5b50565b60008151905061330d816132e7565b92915050565b60006020828403121561332957613328612266565b5b6000613337848285016132fe565b91505092915050565b60008160e01c9050919050565b600060033d111561336c5760046000803e613369600051613340565b90505b90565b600060443d101561337f57613402565b61338761225c565b60043d036004823e80513d602482011167ffffffffffffffff821117156133af575050613402565b808201805167ffffffffffffffff8111156133cd5750505050613402565b80602083010160043d0385018111156133ea575050505050613402565b6133f98260200185018661236f565b82955050505050505b90565b600081519050919050565b600061341b82613405565b6134258185612854565b9350613435818560208601612d21565b61343e8161232f565b840191505092915050565b600060208201905081810360008301526134638184613410565b905092915050565b7f4845584c30303800000000000000000000000000000000000000000000000000600082015250565b60006134a1600783612854565b91506134ac8261346b565b602082019050919050565b600060208201905081810360008301526134d081613494565b9050919050565b7f4845584c30303700000000000000000000000000000000000000000000000000600082015250565b600061350d600783612854565b9150613518826134d7565b602082019050919050565b6000602082019050818103600083015261353c81613500565b9050919050565b7f416464726573733a20696e73756666696369656e742062616c616e636520666f60008201527f722063616c6c0000000000000000000000000000000000000000000000000000602082015250565b600061359f602683612854565b91506135aa82613543565b604082019050919050565b600060208201905081810360008301526135ce81613592565b9050919050565b600081905092915050565b60006135eb82612d05565b6135f581856135d5565b9350613605818560208601612d21565b80840191505092915050565b600061361d82846135e0565b915081905092915050565b613631816124c7565b82525050565b60408201600082015161364d6000850182613628565b5060208201516136606020850182613628565b50505050565b600060408201905061367b6000830184613637565b92915050565b600081519050613690816122a2565b92915050565b6000602082840312156136ac576136ab612266565b5b60006136ba84828501613681565b91505092915050565b7f4845584c30313700000000000000000000000000000000000000000000000000600082015250565b60006136f9600783612854565b9150613704826136c3565b602082019050919050565b60006020820190508181036000830152613728816136ec565b9050919050565b7f416464726573733a2063616c6c20746f206e6f6e2d636f6e7472616374000000600082015250565b6000613765601d83612854565b91506137708261372f565b602082019050919050565b6000602082019050818103600083015261379481613758565b905091905056fe416464726573733a206c6f772d6c6576656c2064656c65676174652063616c6c206661696c6564a264697066735822122093ade7a0ba805562ab0fa90c3029a476c197d13bbaf3a723a112f5121e07519264736f6c63430008080033",
  "devdoc": {
    "kind": "dev",
    "methods": {
      "owner()": {
        "returns": {
          "_0": "conrtact owner"
        }
      },
      "proxiableUUID()": {
        "details": "Implementation of the ERC1822 {proxiableUUID} function. This returns the storage slot used by the implementation. It is used to validate the implementation's compatibility when performing an upgrade. IMPORTANT: A proxy pointing at a proxiable contract should not be considered proxiable itself, because this risks bricking a proxy that upgrades to it, by delegating to itself until out of gas. Thus it is critical that this function revert if invoked through a proxy. This is guaranteed by the `notDelegated` modifier."
      },
      "transferOwnership(address)": {
        "params": {
          "account": "address of new owner"
        }
      },
      "upgradeTo(address)": {
        "details": "Upgrade the implementation of the proxy to `newImplementation`. Calls {_authorizeUpgrade}. Emits an {Upgraded} event."
      },
      "upgradeToAndCall(address,bytes)": {
        "details": "Upgrade the implementation of the proxy to `newImplementation`, and subsequently execute the function call encoded in `data`. Calls {_authorizeUpgrade}. Emits an {Upgraded} event."
      }
    },
    "version": 1
  },
  "userdoc": {
    "kind": "user",
    "methods": {
      "owner()": {
        "notice": "get the ERC173 contract owner"
      },
      "transferOwnership(address)": {
        "notice": "transfer contract ownership to new account"
      }
    },
    "version": 1
  },
  "storageLayout": {
    "storage": [
      {
        "astId": 2853,
        "contract": "contracts/hexlink/HexlinkUpgradeable.sol:HexlinkUpgradeable",
        "label": "states",
        "offset": 0,
        "slot": "0",
        "type": "t_mapping(t_bytes32,t_struct(AccountState)2831_storage)"
      }
    ],
    "types": {
      "t_address": {
        "encoding": "inplace",
        "label": "address",
        "numberOfBytes": "20"
      },
      "t_bytes32": {
        "encoding": "inplace",
        "label": "bytes32",
        "numberOfBytes": "32"
      },
      "t_mapping(t_bytes32,t_struct(AccountState)2831_storage)": {
        "encoding": "mapping",
        "key": "t_bytes32",
        "label": "mapping(bytes32 => struct Hexlink.AccountState)",
        "numberOfBytes": "32",
        "value": "t_struct(AccountState)2831_storage"
      },
      "t_struct(AccountState)2831_storage": {
        "encoding": "inplace",
        "label": "struct Hexlink.AccountState",
        "members": [
          {
            "astId": 2828,
            "contract": "contracts/hexlink/HexlinkUpgradeable.sol:HexlinkUpgradeable",
            "label": "account",
            "offset": 0,
            "slot": "0",
            "type": "t_address"
          },
          {
            "astId": 2830,
            "contract": "contracts/hexlink/HexlinkUpgradeable.sol:HexlinkUpgradeable",
            "label": "nonce",
            "offset": 20,
            "slot": "0",
            "type": "t_uint96"
          }
        ],
        "numberOfBytes": "32"
      },
      "t_uint96": {
        "encoding": "inplace",
        "label": "uint96",
        "numberOfBytes": "12"
      }
    }
  }
}