{
  "address": "0x13D858B62041eeb9BC3444d6De6d872FF03C00a5",
  "abi": [
    {
      "anonymous": false,
      "inputs": [
        {
          "indexed": true,
          "internalType": "address",
          "name": "owner",
          "type": "address"
        },
        {
          "indexed": true,
          "internalType": "address",
          "name": "approved",
          "type": "address"
        },
        {
          "indexed": true,
          "internalType": "uint256",
          "name": "tokenId",
          "type": "uint256"
        }
      ],
      "name": "Approval",
      "type": "event"
    },
    {
      "anonymous": false,
      "inputs": [
        {
          "indexed": true,
          "internalType": "address",
          "name": "owner",
          "type": "address"
        },
        {
          "indexed": true,
          "internalType": "address",
          "name": "operator",
          "type": "address"
        },
        {
          "indexed": false,
          "internalType": "bool",
          "name": "approved",
          "type": "bool"
        }
      ],
      "name": "ApprovalForAll",
      "type": "event"
    },
    {
      "anonymous": false,
      "inputs": [
        {
          "indexed": false,
          "internalType": "uint8",
          "name": "version",
          "type": "uint8"
        }
      ],
      "name": "Initialized",
      "type": "event"
    },
    {
      "anonymous": false,
      "inputs": [
        {
          "indexed": true,
          "internalType": "address",
          "name": "previousOwner",
          "type": "address"
        },
        {
          "indexed": true,
          "internalType": "address",
          "name": "newOwner",
          "type": "address"
        }
      ],
      "name": "OwnershipTransferred",
      "type": "event"
    },
    {
      "anonymous": false,
      "inputs": [
        {
          "indexed": true,
          "internalType": "address",
          "name": "from",
          "type": "address"
        },
        {
          "indexed": true,
          "internalType": "address",
          "name": "to",
          "type": "address"
        },
        {
          "indexed": true,
          "internalType": "uint256",
          "name": "tokenId",
          "type": "uint256"
        }
      ],
      "name": "Transfer",
      "type": "event"
    },
    {
      "inputs": [
        {
          "internalType": "address",
          "name": "to",
          "type": "address"
        },
        {
          "internalType": "uint256",
          "name": "tokenId",
          "type": "uint256"
        }
      ],
      "name": "approve",
      "outputs": [],
      "stateMutability": "nonpayable",
      "type": "function"
    },
    {
      "inputs": [
        {
          "internalType": "address",
          "name": "owner",
          "type": "address"
        }
      ],
      "name": "balanceOf",
      "outputs": [
        {
          "internalType": "uint256",
          "name": "",
          "type": "uint256"
        }
      ],
      "stateMutability": "view",
      "type": "function"
    },
    {
      "inputs": [],
      "name": "baseTokenURI",
      "outputs": [
        {
          "internalType": "string",
          "name": "",
          "type": "string"
        }
      ],
      "stateMutability": "view",
      "type": "function"
    },
    {
      "inputs": [
        {
          "internalType": "uint256",
          "name": "tokenId",
          "type": "uint256"
        }
      ],
      "name": "getApproved",
      "outputs": [
        {
          "internalType": "address",
          "name": "",
          "type": "address"
        }
      ],
      "stateMutability": "view",
      "type": "function"
    },
    {
      "inputs": [
        {
          "internalType": "string",
          "name": "name_",
          "type": "string"
        },
        {
          "internalType": "string",
          "name": "symbol_",
          "type": "string"
        },
        {
          "internalType": "string",
          "name": "baseTokenURI_",
          "type": "string"
        },
        {
          "internalType": "uint256",
          "name": "maxSupply_",
          "type": "uint256"
        },
        {
          "internalType": "address",
          "name": "validator_",
          "type": "address"
        }
      ],
      "name": "init",
      "outputs": [],
      "stateMutability": "nonpayable",
      "type": "function"
    },
    {
      "inputs": [
        {
          "internalType": "address",
          "name": "owner",
          "type": "address"
        },
        {
          "internalType": "address",
          "name": "operator",
          "type": "address"
        }
      ],
      "name": "isApprovedForAll",
      "outputs": [
        {
          "internalType": "bool",
          "name": "",
          "type": "bool"
        }
      ],
      "stateMutability": "view",
      "type": "function"
    },
    {
      "inputs": [],
      "name": "maxSupply",
      "outputs": [
        {
          "internalType": "uint256",
          "name": "",
          "type": "uint256"
        }
      ],
      "stateMutability": "view",
      "type": "function"
    },
    {
      "inputs": [
        {
          "internalType": "address",
          "name": "recipient",
          "type": "address"
        },
        {
          "internalType": "bytes",
          "name": "signature",
          "type": "bytes"
        }
      ],
      "name": "mint",
      "outputs": [
        {
          "internalType": "uint256",
          "name": "",
          "type": "uint256"
        }
      ],
      "stateMutability": "nonpayable",
      "type": "function"
    },
    {
      "inputs": [],
      "name": "name",
      "outputs": [
        {
          "internalType": "string",
          "name": "",
          "type": "string"
        }
      ],
      "stateMutability": "view",
      "type": "function"
    },
    {
      "inputs": [],
      "name": "owner",
      "outputs": [
        {
          "internalType": "address",
          "name": "",
          "type": "address"
        }
      ],
      "stateMutability": "view",
      "type": "function"
    },
    {
      "inputs": [
        {
          "internalType": "uint256",
          "name": "tokenId",
          "type": "uint256"
        }
      ],
      "name": "ownerOf",
      "outputs": [
        {
          "internalType": "address",
          "name": "",
          "type": "address"
        }
      ],
      "stateMutability": "view",
      "type": "function"
    },
    {
      "inputs": [],
      "name": "renounceOwnership",
      "outputs": [],
      "stateMutability": "nonpayable",
      "type": "function"
    },
    {
      "inputs": [
        {
          "internalType": "address",
          "name": "from",
          "type": "address"
        },
        {
          "internalType": "address",
          "name": "to",
          "type": "address"
        },
        {
          "internalType": "uint256",
          "name": "tokenId",
          "type": "uint256"
        }
      ],
      "name": "safeTransferFrom",
      "outputs": [],
      "stateMutability": "nonpayable",
      "type": "function"
    },
    {
      "inputs": [
        {
          "internalType": "address",
          "name": "from",
          "type": "address"
        },
        {
          "internalType": "address",
          "name": "to",
          "type": "address"
        },
        {
          "internalType": "uint256",
          "name": "tokenId",
          "type": "uint256"
        },
        {
          "internalType": "bytes",
          "name": "data",
          "type": "bytes"
        }
      ],
      "name": "safeTransferFrom",
      "outputs": [],
      "stateMutability": "nonpayable",
      "type": "function"
    },
    {
      "inputs": [
        {
          "internalType": "address",
          "name": "operator",
          "type": "address"
        },
        {
          "internalType": "bool",
          "name": "approved",
          "type": "bool"
        }
      ],
      "name": "setApprovalForAll",
      "outputs": [],
      "stateMutability": "nonpayable",
      "type": "function"
    },
    {
      "inputs": [
        {
          "internalType": "address",
          "name": "_validator",
          "type": "address"
        }
      ],
      "name": "setValidator",
      "outputs": [],
      "stateMutability": "nonpayable",
      "type": "function"
    },
    {
      "inputs": [
        {
          "internalType": "bytes4",
          "name": "interfaceId",
          "type": "bytes4"
        }
      ],
      "name": "supportsInterface",
      "outputs": [
        {
          "internalType": "bool",
          "name": "",
          "type": "bool"
        }
      ],
      "stateMutability": "view",
      "type": "function"
    },
    {
      "inputs": [],
      "name": "symbol",
      "outputs": [
        {
          "internalType": "string",
          "name": "",
          "type": "string"
        }
      ],
      "stateMutability": "view",
      "type": "function"
    },
    {
      "inputs": [],
      "name": "tokenId",
      "outputs": [
        {
          "internalType": "uint256",
          "name": "",
          "type": "uint256"
        }
      ],
      "stateMutability": "view",
      "type": "function"
    },
    {
      "inputs": [
        {
          "internalType": "uint256",
          "name": "",
          "type": "uint256"
        }
      ],
      "name": "tokenURI",
      "outputs": [
        {
          "internalType": "string",
          "name": "",
          "type": "string"
        }
      ],
      "stateMutability": "view",
      "type": "function"
    },
    {
      "inputs": [
        {
          "internalType": "address",
          "name": "from",
          "type": "address"
        },
        {
          "internalType": "address",
          "name": "to",
          "type": "address"
        },
        {
          "internalType": "uint256",
          "name": "tokenId",
          "type": "uint256"
        }
      ],
      "name": "transferFrom",
      "outputs": [],
      "stateMutability": "nonpayable",
      "type": "function"
    },
    {
      "inputs": [
        {
          "internalType": "address",
          "name": "newOwner",
          "type": "address"
        }
      ],
      "name": "transferOwnership",
      "outputs": [],
      "stateMutability": "nonpayable",
      "type": "function"
    },
    {
      "inputs": [],
      "name": "validator",
      "outputs": [
        {
          "internalType": "address",
          "name": "",
          "type": "address"
        }
      ],
      "stateMutability": "view",
      "type": "function"
    }
  ],
  "transactionHash": "0x5f025ebd9f976627f8705101b1e1173c58923924d13411d7729d991c297e4aee",
  "args": [],
  "numDeployments": 3,
  "solcInputHash": "190eed0e88d1cd6e99bbcf07b7af6e9e",
  "bytecode": "0x6080604052600060cb5534801561001557600080fd5b50613936806100256000396000f3fe608060405234801561001057600080fd5b506004361061014d5760003560e01c806370a08231116100c3578063b88d4fde1161007c578063b88d4fde1461038a578063c87b56dd146103a6578063d547cfb7146103d6578063d5abeb01146103f4578063e985e9c514610412578063f2fde38b146104425761014d565b806370a08231146102c8578063715018a6146102f85780638da5cb5b1461030257806395d89b4114610320578063a22cb4651461033e578063b510391f1461035a5761014d565b806317d70f7c1161011557806317d70f7c1461020857806323b872dd146102265780633a5381b51461024257806342842e0e146102605780634b3e09011461027c5780636352211e146102985761014d565b806301ffc9a71461015257806306fdde0314610182578063081812fc146101a0578063095ea7b3146101d05780631327d3d8146101ec575b600080fd5b61016c600480360381019061016791906123ad565b61045e565b60405161017991906123f5565b60405180910390f35b61018a610540565b60405161019791906124a9565b60405180910390f35b6101ba60048036038101906101b59190612501565b6105d2565b6040516101c7919061256f565b60405180910390f35b6101ea60048036038101906101e591906125b6565b610618565b005b610206600480360381019061020191906125f6565b610730565b005b61021061077c565b60405161021d9190612632565b60405180910390f35b610240600480360381019061023b919061264d565b610782565b005b61024a6107e2565b604051610257919061256f565b60405180910390f35b61027a6004803603810190610275919061264d565b610808565b005b610296600480360381019061029191906127d5565b610828565b005b6102b260048036038101906102ad9190612501565b6109d4565b6040516102bf919061256f565b60405180910390f35b6102e260048036038101906102dd91906125f6565b610a5b565b6040516102ef9190612632565b60405180910390f35b610300610b13565b005b61030a610b27565b604051610317919061256f565b60405180910390f35b610328610b51565b60405161033591906124a9565b60405180910390f35b610358600480360381019061035391906128d0565b610be3565b005b610374600480360381019061036f91906129b1565b610bf9565b6040516103819190612632565b60405180910390f35b6103a4600480360381019061039f9190612a0d565b610c7d565b005b6103c060048036038101906103bb9190612501565b610cdf565b6040516103cd91906124a9565b60405180910390f35b6103de610d73565b6040516103eb91906124a9565b60405180910390f35b6103fc610e01565b6040516104099190612632565b60405180910390f35b61042c60048036038101906104279190612a90565b610e07565b60405161043991906123f5565b60405180910390f35b61045c600480360381019061045791906125f6565b610e9b565b005b60007f80ac58cd000000000000000000000000000000000000000000000000000000007bffffffffffffffffffffffffffffffffffffffffffffffffffffffff1916827bffffffffffffffffffffffffffffffffffffffffffffffffffffffff1916148061052957507f5b5e139f000000000000000000000000000000000000000000000000000000007bffffffffffffffffffffffffffffffffffffffffffffffffffffffff1916827bffffffffffffffffffffffffffffffffffffffffffffffffffffffff1916145b80610539575061053882610f1f565b5b9050919050565b60606097805461054f90612aff565b80601f016020809104026020016040519081016040528092919081815260200182805461057b90612aff565b80156105c85780601f1061059d576101008083540402835291602001916105c8565b820191906000526020600020905b8154815290600101906020018083116105ab57829003601f168201915b5050505050905090565b60006105dd82610f89565b609b600083815260200190815260200160002060009054906101000a900473ffffffffffffffffffffffffffffffffffffffff169050919050565b6000610623826109d4565b90508073ffffffffffffffffffffffffffffffffffffffff168373ffffffffffffffffffffffffffffffffffffffff161415610694576040517f08c379a000000000000000000000000000000000000000000000000000000000815260040161068b90612ba3565b60405180910390fd5b8073ffffffffffffffffffffffffffffffffffffffff166106b3610fd4565b73ffffffffffffffffffffffffffffffffffffffff1614806106e257506106e1816106dc610fd4565b610e07565b5b610721576040517f08c379a000000000000000000000000000000000000000000000000000000000815260040161071890612c35565b60405180910390fd5b61072b8383610fdc565b505050565b610738611095565b8060cc60006101000a81548173ffffffffffffffffffffffffffffffffffffffff021916908373ffffffffffffffffffffffffffffffffffffffff16021790555050565b60cb5481565b61079361078d610fd4565b82611113565b6107d2576040517f08c379a00000000000000000000000000000000000000000000000000000000081526004016107c990612cc7565b60405180910390fd5b6107dd8383836111a8565b505050565b60cc60009054906101000a900473ffffffffffffffffffffffffffffffffffffffff1681565b61082383838360405180602001604052806000815250610c7d565b505050565b60008060019054906101000a900460ff161590508080156108595750600160008054906101000a900460ff1660ff16105b806108865750610868306114a2565b1580156108855750600160008054906101000a900460ff1660ff16145b5b6108c5576040517f08c379a00000000000000000000000000000000000000000000000000000000081526004016108bc90612d59565b60405180910390fd5b60016000806101000a81548160ff021916908360ff1602179055508015610902576001600060016101000a81548160ff0219169083151502179055505b61090c86866114c5565b610914611522565b8260ca819055508160cc60006101000a81548173ffffffffffffffffffffffffffffffffffffffff021916908373ffffffffffffffffffffffffffffffffffffffff1602179055508360c9908051906020019061097292919061229e565b5080156109cc5760008060016101000a81548160ff0219169083151502179055507f7f26b83ff96e1f2b6a682f133852f6798a09c465da95921460cefb384740249860016040516109c39190612dcb565b60405180910390a15b505050505050565b6000806109e08361157b565b9050600073ffffffffffffffffffffffffffffffffffffffff168173ffffffffffffffffffffffffffffffffffffffff161415610a52576040517f08c379a0000000000000000000000000000000000000000000000000000000008152600401610a4990612e32565b60405180910390fd5b80915050919050565b60008073ffffffffffffffffffffffffffffffffffffffff168273ffffffffffffffffffffffffffffffffffffffff161415610acc576040517f08c379a0000000000000000000000000000000000000000000000000000000008152600401610ac390612ec4565b60405180910390fd5b609a60008373ffffffffffffffffffffffffffffffffffffffff1673ffffffffffffffffffffffffffffffffffffffff168152602001908152602001600020549050919050565b610b1b611095565b610b2560006115b8565b565b6000603360009054906101000a900473ffffffffffffffffffffffffffffffffffffffff16905090565b606060988054610b6090612aff565b80601f0160208091040260200160405190810160405280929190818152602001828054610b8c90612aff565b8015610bd95780601f10610bae57610100808354040283529160200191610bd9565b820191906000526020600020905b815481529060010190602001808311610bbc57829003601f168201915b5050505050905090565b610bf5610bee610fd4565b838361167e565b5050565b6000600160cb6000828254610c0e9190612f13565b9250508190555060ca5460cb541115610c5c576040517f08c379a0000000000000000000000000000000000000000000000000000000008152600401610c5390612fb5565b60405180910390fd5b610c6683836117eb565b610c728360cb546118cb565b60cb54905092915050565b610c8e610c88610fd4565b83611113565b610ccd576040517f08c379a0000000000000000000000000000000000000000000000000000000008152600401610cc490612cc7565b60405180910390fd5b610cd9848484846118e9565b50505050565b606060c98054610cee90612aff565b80601f0160208091040260200160405190810160405280929190818152602001828054610d1a90612aff565b8015610d675780601f10610d3c57610100808354040283529160200191610d67565b820191906000526020600020905b815481529060010190602001808311610d4a57829003601f168201915b50505050509050919050565b60c98054610d8090612aff565b80601f0160208091040260200160405190810160405280929190818152602001828054610dac90612aff565b8015610df95780601f10610dce57610100808354040283529160200191610df9565b820191906000526020600020905b815481529060010190602001808311610ddc57829003601f168201915b505050505081565b60ca5481565b6000609c60008473ffffffffffffffffffffffffffffffffffffffff1673ffffffffffffffffffffffffffffffffffffffff16815260200190815260200160002060008373ffffffffffffffffffffffffffffffffffffffff1673ffffffffffffffffffffffffffffffffffffffff16815260200190815260200160002060009054906101000a900460ff16905092915050565b610ea3611095565b600073ffffffffffffffffffffffffffffffffffffffff168173ffffffffffffffffffffffffffffffffffffffff161415610f13576040517f08c379a0000000000000000000000000000000000000000000000000000000008152600401610f0a90613047565b60405180910390fd5b610f1c816115b8565b50565b60007f01ffc9a7000000000000000000000000000000000000000000000000000000007bffffffffffffffffffffffffffffffffffffffffffffffffffffffff1916827bffffffffffffffffffffffffffffffffffffffffffffffffffffffff1916149050919050565b610f9281611945565b610fd1576040517f08c379a0000000000000000000000000000000000000000000000000000000008152600401610fc890612e32565b60405180910390fd5b50565b600033905090565b81609b600083815260200190815260200160002060006101000a81548173ffffffffffffffffffffffffffffffffffffffff021916908373ffffffffffffffffffffffffffffffffffffffff160217905550808273ffffffffffffffffffffffffffffffffffffffff1661104f836109d4565b73ffffffffffffffffffffffffffffffffffffffff167f8c5be1e5ebec7d5bd14f71427d1e84f3dd0314c0f7b2291e5b200ac8c7c3b92560405160405180910390a45050565b61109d610fd4565b73ffffffffffffffffffffffffffffffffffffffff166110bb610b27565b73ffffffffffffffffffffffffffffffffffffffff1614611111576040517f08c379a0000000000000000000000000000000000000000000000000000000008152600401611108906130b3565b60405180910390fd5b565b60008061111f836109d4565b90508073ffffffffffffffffffffffffffffffffffffffff168473ffffffffffffffffffffffffffffffffffffffff16148061116157506111608185610e07565b5b8061119f57508373ffffffffffffffffffffffffffffffffffffffff16611187846105d2565b73ffffffffffffffffffffffffffffffffffffffff16145b91505092915050565b8273ffffffffffffffffffffffffffffffffffffffff166111c8826109d4565b73ffffffffffffffffffffffffffffffffffffffff161461121e576040517f08c379a000000000000000000000000000000000000000000000000000000000815260040161121590613145565b60405180910390fd5b600073ffffffffffffffffffffffffffffffffffffffff168273ffffffffffffffffffffffffffffffffffffffff16141561128e576040517f08c379a0000000000000000000000000000000000000000000000000000000008152600401611285906131d7565b60405180910390fd5b61129b8383836001611986565b8273ffffffffffffffffffffffffffffffffffffffff166112bb826109d4565b73ffffffffffffffffffffffffffffffffffffffff1614611311576040517f08c379a000000000000000000000000000000000000000000000000000000000815260040161130890613145565b60405180910390fd5b609b600082815260200190815260200160002060006101000a81549073ffffffffffffffffffffffffffffffffffffffff02191690556001609a60008573ffffffffffffffffffffffffffffffffffffffff1673ffffffffffffffffffffffffffffffffffffffff168152602001908152602001600020600082825403925050819055506001609a60008473ffffffffffffffffffffffffffffffffffffffff1673ffffffffffffffffffffffffffffffffffffffff16815260200190815260200160002060008282540192505081905550816099600083815260200190815260200160002060006101000a81548173ffffffffffffffffffffffffffffffffffffffff021916908373ffffffffffffffffffffffffffffffffffffffff160217905550808273ffffffffffffffffffffffffffffffffffffffff168473ffffffffffffffffffffffffffffffffffffffff167fddf252ad1be2c89b69c2b068fc378daa952ba7f163c4a11628f55a4df523b3ef60405160405180910390a461149d8383836001611aac565b505050565b6000808273ffffffffffffffffffffffffffffffffffffffff163b119050919050565b600060019054906101000a900460ff16611514576040517f08c379a000000000000000000000000000000000000000000000000000000000815260040161150b90613269565b60405180910390fd5b61151e8282611ab2565b5050565b600060019054906101000a900460ff16611571576040517f08c379a000000000000000000000000000000000000000000000000000000000815260040161156890613269565b60405180910390fd5b611579611b33565b565b60006099600083815260200190815260200160002060009054906101000a900473ffffffffffffffffffffffffffffffffffffffff169050919050565b6000603360009054906101000a900473ffffffffffffffffffffffffffffffffffffffff16905081603360006101000a81548173ffffffffffffffffffffffffffffffffffffffff021916908373ffffffffffffffffffffffffffffffffffffffff1602179055508173ffffffffffffffffffffffffffffffffffffffff168173ffffffffffffffffffffffffffffffffffffffff167f8be0079c531659141344cd1fd0a4f28419497f9722a3daafe3b4186f6b6457e060405160405180910390a35050565b8173ffffffffffffffffffffffffffffffffffffffff168373ffffffffffffffffffffffffffffffffffffffff1614156116ed576040517f08c379a00000000000000000000000000000000000000000000000000000000081526004016116e4906132d5565b60405180910390fd5b80609c60008573ffffffffffffffffffffffffffffffffffffffff1673ffffffffffffffffffffffffffffffffffffffff16815260200190815260200160002060008473ffffffffffffffffffffffffffffffffffffffff1673ffffffffffffffffffffffffffffffffffffffff16815260200190815260200160002060006101000a81548160ff0219169083151502179055508173ffffffffffffffffffffffffffffffffffffffff168373ffffffffffffffffffffffffffffffffffffffff167f17307eab39ab6107e8899845ad3d59bd9653f200f220920489ca2b5937696c31836040516117de91906123f5565b60405180910390a3505050565b6000826040516020016117fe9190613341565b604051602081830303815290604052805190602001209050600061182182611b94565b90506118368382611bc490919063ffffffff16565b73ffffffffffffffffffffffffffffffffffffffff1660cc60009054906101000a900473ffffffffffffffffffffffffffffffffffffffff1673ffffffffffffffffffffffffffffffffffffffff16146118c5576040517f08c379a00000000000000000000000000000000000000000000000000000000081526004016118bc906133bb565b60405180910390fd5b50505050565b6118e5828260405180602001604052806000815250611beb565b5050565b6118f48484846111a8565b61190084848484611c46565b61193f576040517f08c379a00000000000000000000000000000000000000000000000000000000081526004016119369061344d565b60405180910390fd5b50505050565b60008073ffffffffffffffffffffffffffffffffffffffff166119678361157b565b73ffffffffffffffffffffffffffffffffffffffff1614159050919050565b6001811115611aa657600073ffffffffffffffffffffffffffffffffffffffff168473ffffffffffffffffffffffffffffffffffffffff1614611a1a5780609a60008673ffffffffffffffffffffffffffffffffffffffff1673ffffffffffffffffffffffffffffffffffffffff1681526020019081526020016000206000828254611a12919061346d565b925050819055505b600073ffffffffffffffffffffffffffffffffffffffff168373ffffffffffffffffffffffffffffffffffffffff1614611aa55780609a60008573ffffffffffffffffffffffffffffffffffffffff1673ffffffffffffffffffffffffffffffffffffffff1681526020019081526020016000206000828254611a9d9190612f13565b925050819055505b5b50505050565b50505050565b600060019054906101000a900460ff16611b01576040517f08c379a0000000000000000000000000000000000000000000000000000000008152600401611af890613269565b60405180910390fd5b8160979080519060200190611b1792919061229e565b508060989080519060200190611b2e92919061229e565b505050565b600060019054906101000a900460ff16611b82576040517f08c379a0000000000000000000000000000000000000000000000000000000008152600401611b7990613269565b60405180910390fd5b611b92611b8d610fd4565b6115b8565b565b600081604051602001611ba79190613523565b604051602081830303815290604052805190602001209050919050565b6000806000611bd38585611ddd565b91509150611be081611e2f565b819250505092915050565b611bf58383611f9d565b611c026000848484611c46565b611c41576040517f08c379a0000000000000000000000000000000000000000000000000000000008152600401611c389061344d565b60405180910390fd5b505050565b6000611c678473ffffffffffffffffffffffffffffffffffffffff166114a2565b15611dd0578373ffffffffffffffffffffffffffffffffffffffff1663150b7a02611c90610fd4565b8786866040518563ffffffff1660e01b8152600401611cb2949392919061359e565b602060405180830381600087803b158015611ccc57600080fd5b505af1925050508015611cfd57506040513d601f19601f82011682018060405250810190611cfa91906135ff565b60015b611d80573d8060008114611d2d576040519150601f19603f3d011682016040523d82523d6000602084013e611d32565b606091505b50600081511415611d78576040517f08c379a0000000000000000000000000000000000000000000000000000000008152600401611d6f9061344d565b60405180910390fd5b805181602001fd5b63150b7a0260e01b7bffffffffffffffffffffffffffffffffffffffffffffffffffffffff1916817bffffffffffffffffffffffffffffffffffffffffffffffffffffffff191614915050611dd5565b600190505b949350505050565b600080604183511415611e1f5760008060006020860151925060408601519150606086015160001a9050611e13878285856121bb565b94509450505050611e28565b60006002915091505b9250929050565b60006004811115611e4357611e4261362c565b5b816004811115611e5657611e5561362c565b5b1415611e6157611f9a565b60016004811115611e7557611e7461362c565b5b816004811115611e8857611e8761362c565b5b1415611ec9576040517f08c379a0000000000000000000000000000000000000000000000000000000008152600401611ec0906136a7565b60405180910390fd5b60026004811115611edd57611edc61362c565b5b816004811115611ef057611eef61362c565b5b1415611f31576040517f08c379a0000000000000000000000000000000000000000000000000000000008152600401611f2890613713565b60405180910390fd5b60036004811115611f4557611f4461362c565b5b816004811115611f5857611f5761362c565b5b1415611f99576040517f08c379a0000000000000000000000000000000000000000000000000000000008152600401611f90906137a5565b60405180910390fd5b5b50565b600073ffffffffffffffffffffffffffffffffffffffff168273ffffffffffffffffffffffffffffffffffffffff16141561200d576040517f08c379a000000000000000000000000000000000000000000000000000000000815260040161200490613811565b60405180910390fd5b61201681611945565b15612056576040517f08c379a000000000000000000000000000000000000000000000000000000000815260040161204d9061387d565b60405180910390fd5b612064600083836001611986565b61206d81611945565b156120ad576040517f08c379a00000000000000000000000000000000000000000000000000000000081526004016120a49061387d565b60405180910390fd5b6001609a60008473ffffffffffffffffffffffffffffffffffffffff1673ffffffffffffffffffffffffffffffffffffffff16815260200190815260200160002060008282540192505081905550816099600083815260200190815260200160002060006101000a81548173ffffffffffffffffffffffffffffffffffffffff021916908373ffffffffffffffffffffffffffffffffffffffff160217905550808273ffffffffffffffffffffffffffffffffffffffff16600073ffffffffffffffffffffffffffffffffffffffff167fddf252ad1be2c89b69c2b068fc378daa952ba7f163c4a11628f55a4df523b3ef60405160405180910390a46121b7600083836001611aac565b5050565b6000807f7fffffffffffffffffffffffffffffff5d576e7357a4501ddfe92f46681b20a08360001c11156121f6576000600391509150612295565b60006001878787876040516000815260200160405260405161221b94939291906138bb565b6020604051602081039080840390855afa15801561223d573d6000803e3d6000fd5b505050602060405103519050600073ffffffffffffffffffffffffffffffffffffffff168173ffffffffffffffffffffffffffffffffffffffff16141561228c57600060019250925050612295565b80600092509250505b94509492505050565b8280546122aa90612aff565b90600052602060002090601f0160209004810192826122cc5760008555612313565b82601f106122e557805160ff1916838001178555612313565b82800160010185558215612313579182015b828111156123125782518255916020019190600101906122f7565b5b5090506123209190612324565b5090565b5b8082111561233d576000816000905550600101612325565b5090565b6000604051905090565b600080fd5b600080fd5b60007fffffffff0000000000000000000000000000000000000000000000000000000082169050919050565b61238a81612355565b811461239557600080fd5b50565b6000813590506123a781612381565b92915050565b6000602082840312156123c3576123c261234b565b5b60006123d184828501612398565b91505092915050565b60008115159050919050565b6123ef816123da565b82525050565b600060208201905061240a60008301846123e6565b92915050565b600081519050919050565b600082825260208201905092915050565b60005b8381101561244a57808201518184015260208101905061242f565b83811115612459576000848401525b50505050565b6000601f19601f8301169050919050565b600061247b82612410565b612485818561241b565b935061249581856020860161242c565b61249e8161245f565b840191505092915050565b600060208201905081810360008301526124c38184612470565b905092915050565b6000819050919050565b6124de816124cb565b81146124e957600080fd5b50565b6000813590506124fb816124d5565b92915050565b6000602082840312156125175761251661234b565b5b6000612525848285016124ec565b91505092915050565b600073ffffffffffffffffffffffffffffffffffffffff82169050919050565b60006125598261252e565b9050919050565b6125698161254e565b82525050565b60006020820190506125846000830184612560565b92915050565b6125938161254e565b811461259e57600080fd5b50565b6000813590506125b08161258a565b92915050565b600080604083850312156125cd576125cc61234b565b5b60006125db858286016125a1565b92505060206125ec858286016124ec565b9150509250929050565b60006020828403121561260c5761260b61234b565b5b600061261a848285016125a1565b91505092915050565b61262c816124cb565b82525050565b60006020820190506126476000830184612623565b92915050565b6000806000606084860312156126665761266561234b565b5b6000612674868287016125a1565b9350506020612685868287016125a1565b9250506040612696868287016124ec565b9150509250925092565b600080fd5b600080fd5b7f4e487b7100000000000000000000000000000000000000000000000000000000600052604160045260246000fd5b6126e28261245f565b810181811067ffffffffffffffff82111715612701576127006126aa565b5b80604052505050565b6000612714612341565b905061272082826126d9565b919050565b600067ffffffffffffffff8211156127405761273f6126aa565b5b6127498261245f565b9050602081019050919050565b82818337600083830152505050565b600061277861277384612725565b61270a565b905082815260208101848484011115612794576127936126a5565b5b61279f848285612756565b509392505050565b600082601f8301126127bc576127bb6126a0565b5b81356127cc848260208601612765565b91505092915050565b600080600080600060a086880312156127f1576127f061234b565b5b600086013567ffffffffffffffff81111561280f5761280e612350565b5b61281b888289016127a7565b955050602086013567ffffffffffffffff81111561283c5761283b612350565b5b612848888289016127a7565b945050604086013567ffffffffffffffff81111561286957612868612350565b5b612875888289016127a7565b9350506060612886888289016124ec565b9250506080612897888289016125a1565b9150509295509295909350565b6128ad816123da565b81146128b857600080fd5b50565b6000813590506128ca816128a4565b92915050565b600080604083850312156128e7576128e661234b565b5b60006128f5858286016125a1565b9250506020612906858286016128bb565b9150509250929050565b600067ffffffffffffffff82111561292b5761292a6126aa565b5b6129348261245f565b9050602081019050919050565b600061295461294f84612910565b61270a565b9050828152602081018484840111156129705761296f6126a5565b5b61297b848285612756565b509392505050565b600082601f830112612998576129976126a0565b5b81356129a8848260208601612941565b91505092915050565b600080604083850312156129c8576129c761234b565b5b60006129d6858286016125a1565b925050602083013567ffffffffffffffff8111156129f7576129f6612350565b5b612a0385828601612983565b9150509250929050565b60008060008060808587031215612a2757612a2661234b565b5b6000612a35878288016125a1565b9450506020612a46878288016125a1565b9350506040612a57878288016124ec565b925050606085013567ffffffffffffffff811115612a7857612a77612350565b5b612a8487828801612983565b91505092959194509250565b60008060408385031215612aa757612aa661234b565b5b6000612ab5858286016125a1565b9250506020612ac6858286016125a1565b9150509250929050565b7f4e487b7100000000000000000000000000000000000000000000000000000000600052602260045260246000fd5b60006002820490506001821680612b1757607f821691505b60208210811415612b2b57612b2a612ad0565b5b50919050565b7f4552433732313a20617070726f76616c20746f2063757272656e74206f776e6560008201527f7200000000000000000000000000000000000000000000000000000000000000602082015250565b6000612b8d60218361241b565b9150612b9882612b31565b604082019050919050565b60006020820190508181036000830152612bbc81612b80565b9050919050565b7f4552433732313a20617070726f76652063616c6c6572206973206e6f7420746f60008201527f6b656e206f776e6572206f7220617070726f76656420666f7220616c6c000000602082015250565b6000612c1f603d8361241b565b9150612c2a82612bc3565b604082019050919050565b60006020820190508181036000830152612c4e81612c12565b9050919050565b7f4552433732313a2063616c6c6572206973206e6f7420746f6b656e206f776e6560008201527f72206f7220617070726f76656400000000000000000000000000000000000000602082015250565b6000612cb1602d8361241b565b9150612cbc82612c55565b604082019050919050565b60006020820190508181036000830152612ce081612ca4565b9050919050565b7f496e697469616c697a61626c653a20636f6e747261637420697320616c72656160008201527f647920696e697469616c697a6564000000000000000000000000000000000000602082015250565b6000612d43602e8361241b565b9150612d4e82612ce7565b604082019050919050565b60006020820190508181036000830152612d7281612d36565b9050919050565b6000819050919050565b600060ff82169050919050565b6000819050919050565b6000612db5612db0612dab84612d79565b612d90565b612d83565b9050919050565b612dc581612d9a565b82525050565b6000602082019050612de06000830184612dbc565b92915050565b7f4552433732313a20696e76616c696420746f6b656e2049440000000000000000600082015250565b6000612e1c60188361241b565b9150612e2782612de6565b602082019050919050565b60006020820190508181036000830152612e4b81612e0f565b9050919050565b7f4552433732313a2061646472657373207a65726f206973206e6f74206120766160008201527f6c6964206f776e65720000000000000000000000000000000000000000000000602082015250565b6000612eae60298361241b565b9150612eb982612e52565b604082019050919050565b60006020820190508181036000830152612edd81612ea1565b9050919050565b7f4e487b7100000000000000000000000000000000000000000000000000000000600052601160045260246000fd5b6000612f1e826124cb565b9150612f29836124cb565b9250827fffffffffffffffffffffffffffffffffffffffffffffffffffffffffffffffff03821115612f5e57612f5d612ee4565b5b828201905092915050565b7f457863656564696e67206d617820737570706c79000000000000000000000000600082015250565b6000612f9f60148361241b565b9150612faa82612f69565b602082019050919050565b60006020820190508181036000830152612fce81612f92565b9050919050565b7f4f776e61626c653a206e6577206f776e657220697320746865207a65726f206160008201527f6464726573730000000000000000000000000000000000000000000000000000602082015250565b600061303160268361241b565b915061303c82612fd5565b604082019050919050565b6000602082019050818103600083015261306081613024565b9050919050565b7f4f776e61626c653a2063616c6c6572206973206e6f7420746865206f776e6572600082015250565b600061309d60208361241b565b91506130a882613067565b602082019050919050565b600060208201905081810360008301526130cc81613090565b9050919050565b7f4552433732313a207472616e736665722066726f6d20696e636f72726563742060008201527f6f776e6572000000000000000000000000000000000000000000000000000000602082015250565b600061312f60258361241b565b915061313a826130d3565b604082019050919050565b6000602082019050818103600083015261315e81613122565b9050919050565b7f4552433732313a207472616e7366657220746f20746865207a65726f2061646460008201527f7265737300000000000000000000000000000000000000000000000000000000602082015250565b60006131c160248361241b565b91506131cc82613165565b604082019050919050565b600060208201905081810360008301526131f0816131b4565b9050919050565b7f496e697469616c697a61626c653a20636f6e7472616374206973206e6f74206960008201527f6e697469616c697a696e67000000000000000000000000000000000000000000602082015250565b6000613253602b8361241b565b915061325e826131f7565b604082019050919050565b6000602082019050818103600083015261328281613246565b9050919050565b7f4552433732313a20617070726f766520746f2063616c6c657200000000000000600082015250565b60006132bf60198361241b565b91506132ca82613289565b602082019050919050565b600060208201905081810360008301526132ee816132b2565b9050919050565b7f6164647265737300000000000000000000000000000000000000000000000000600082015250565b600061332b60078361241b565b9150613336826132f5565b602082019050919050565b6000604082019050818103600083015261335a8161331e565b90506133696020830184612560565b92915050565b7f4845584c41303034000000000000000000000000000000000000000000000000600082015250565b60006133a560088361241b565b91506133b08261336f565b602082019050919050565b600060208201905081810360008301526133d481613398565b9050919050565b7f4552433732313a207472616e7366657220746f206e6f6e20455243373231526560008201527f63656976657220696d706c656d656e7465720000000000000000000000000000602082015250565b600061343760328361241b565b9150613442826133db565b604082019050919050565b600060208201905081810360008301526134668161342a565b9050919050565b6000613478826124cb565b9150613483836124cb565b92508282101561349657613495612ee4565b5b828203905092915050565b600081905092915050565b7f19457468657265756d205369676e6564204d6573736167653a0a333200000000600082015250565b60006134e2601c836134a1565b91506134ed826134ac565b601c82019050919050565b6000819050919050565b6000819050919050565b61351d613518826134f8565b613502565b82525050565b600061352e826134d5565b915061353a828461350c565b60208201915081905092915050565b600081519050919050565b600082825260208201905092915050565b600061357082613549565b61357a8185613554565b935061358a81856020860161242c565b6135938161245f565b840191505092915050565b60006080820190506135b36000830187612560565b6135c06020830186612560565b6135cd6040830185612623565b81810360608301526135df8184613565565b905095945050505050565b6000815190506135f981612381565b92915050565b6000602082840312156136155761361461234b565b5b6000613623848285016135ea565b91505092915050565b7f4e487b7100000000000000000000000000000000000000000000000000000000600052602160045260246000fd5b7f45434453413a20696e76616c6964207369676e61747572650000000000000000600082015250565b600061369160188361241b565b915061369c8261365b565b602082019050919050565b600060208201905081810360008301526136c081613684565b9050919050565b7f45434453413a20696e76616c6964207369676e6174757265206c656e67746800600082015250565b60006136fd601f8361241b565b9150613708826136c7565b602082019050919050565b6000602082019050818103600083015261372c816136f0565b9050919050565b7f45434453413a20696e76616c6964207369676e6174757265202773272076616c60008201527f7565000000000000000000000000000000000000000000000000000000000000602082015250565b600061378f60228361241b565b915061379a82613733565b604082019050919050565b600060208201905081810360008301526137be81613782565b9050919050565b7f4552433732313a206d696e7420746f20746865207a65726f2061646472657373600082015250565b60006137fb60208361241b565b9150613806826137c5565b602082019050919050565b6000602082019050818103600083015261382a816137ee565b9050919050565b7f4552433732313a20746f6b656e20616c7265616479206d696e74656400000000600082015250565b6000613867601c8361241b565b915061387282613831565b602082019050919050565b600060208201905081810360008301526138968161385a565b9050919050565b6138a6816134f8565b82525050565b6138b581612d83565b82525050565b60006080820190506138d0600083018761389d565b6138dd60208301866138ac565b6138ea604083018561389d565b6138f7606083018461389d565b9594505050505056fea2646970667358221220b28c5d8d302cf6fbac424103fdac85e43f35af4f56aea747425aa3ae0040580964736f6c63430008080033",
  "devdoc": {
    "kind": "dev",
    "methods": {
      "approve(address,uint256)": {
        "details": "See {IERC721-approve}."
      },
      "balanceOf(address)": {
        "details": "See {IERC721-balanceOf}."
      },
      "getApproved(uint256)": {
        "details": "See {IERC721-getApproved}."
      },
      "isApprovedForAll(address,address)": {
        "details": "See {IERC721-isApprovedForAll}."
      },
      "name()": {
        "details": "See {IERC721Metadata-name}."
      },
      "owner()": {
        "details": "Returns the address of the current owner."
      },
      "ownerOf(uint256)": {
        "details": "See {IERC721-ownerOf}."
      },
      "renounceOwnership()": {
        "details": "Leaves the contract without owner. It will not be possible to call `onlyOwner` functions anymore. Can only be called by the current owner. NOTE: Renouncing ownership will leave the contract without an owner, thereby removing any functionality that is only available to the owner."
      },
      "safeTransferFrom(address,address,uint256)": {
        "details": "See {IERC721-safeTransferFrom}."
      },
      "safeTransferFrom(address,address,uint256,bytes)": {
        "details": "See {IERC721-safeTransferFrom}."
      },
      "setApprovalForAll(address,bool)": {
        "details": "See {IERC721-setApprovalForAll}."
      },
      "supportsInterface(bytes4)": {
        "details": "See {IERC165-supportsInterface}."
      },
      "symbol()": {
        "details": "See {IERC721Metadata-symbol}."
      },
      "transferFrom(address,address,uint256)": {
        "details": "See {IERC721-transferFrom}."
      },
      "transferOwnership(address)": {
        "details": "Transfers ownership of the contract to a new account (`newOwner`). Can only be called by the current owner."
      }
    },
    "version": 1
  },
  "userdoc": {
    "kind": "user",
    "methods": {},
    "version": 1
  },
  "storageLayout": {
    "storage": [
      {
        "astId": 138,
        "contract": "contracts/tokens/HexlinkErc721.sol:HexlinkErc721",
        "label": "_initialized",
        "offset": 0,
        "slot": "0",
        "type": "t_uint8"
      },
      {
        "astId": 141,
        "contract": "contracts/tokens/HexlinkErc721.sol:HexlinkErc721",
        "label": "_initializing",
        "offset": 1,
        "slot": "0",
        "type": "t_bool"
      },
      {
        "astId": 1756,
        "contract": "contracts/tokens/HexlinkErc721.sol:HexlinkErc721",
        "label": "__gap",
        "offset": 0,
        "slot": "1",
        "type": "t_array(t_uint256)50_storage"
      },
      {
        "astId": 10,
        "contract": "contracts/tokens/HexlinkErc721.sol:HexlinkErc721",
        "label": "_owner",
        "offset": 0,
        "slot": "51",
        "type": "t_address"
      },
      {
        "astId": 130,
        "contract": "contracts/tokens/HexlinkErc721.sol:HexlinkErc721",
        "label": "__gap",
        "offset": 0,
        "slot": "52",
        "type": "t_array(t_uint256)49_storage"
      },
      {
        "astId": 1975,
        "contract": "contracts/tokens/HexlinkErc721.sol:HexlinkErc721",
        "label": "__gap",
        "offset": 0,
        "slot": "101",
        "type": "t_array(t_uint256)50_storage"
      },
      {
        "astId": 329,
        "contract": "contracts/tokens/HexlinkErc721.sol:HexlinkErc721",
        "label": "_name",
        "offset": 0,
        "slot": "151",
        "type": "t_string_storage"
      },
      {
        "astId": 331,
        "contract": "contracts/tokens/HexlinkErc721.sol:HexlinkErc721",
        "label": "_symbol",
        "offset": 0,
        "slot": "152",
        "type": "t_string_storage"
      },
      {
        "astId": 335,
        "contract": "contracts/tokens/HexlinkErc721.sol:HexlinkErc721",
        "label": "_owners",
        "offset": 0,
        "slot": "153",
        "type": "t_mapping(t_uint256,t_address)"
      },
      {
        "astId": 339,
        "contract": "contracts/tokens/HexlinkErc721.sol:HexlinkErc721",
        "label": "_balances",
        "offset": 0,
        "slot": "154",
        "type": "t_mapping(t_address,t_uint256)"
      },
      {
        "astId": 343,
        "contract": "contracts/tokens/HexlinkErc721.sol:HexlinkErc721",
        "label": "_tokenApprovals",
        "offset": 0,
        "slot": "155",
        "type": "t_mapping(t_uint256,t_address)"
      },
      {
        "astId": 349,
        "contract": "contracts/tokens/HexlinkErc721.sol:HexlinkErc721",
        "label": "_operatorApprovals",
        "offset": 0,
        "slot": "156",
        "type": "t_mapping(t_address,t_mapping(t_address,t_bool))"
      },
      {
        "astId": 1269,
        "contract": "contracts/tokens/HexlinkErc721.sol:HexlinkErc721",
        "label": "__gap",
        "offset": 0,
        "slot": "157",
        "type": "t_array(t_uint256)44_storage"
      },
      {
        "astId": 6008,
        "contract": "contracts/tokens/HexlinkErc721.sol:HexlinkErc721",
        "label": "baseTokenURI",
        "offset": 0,
        "slot": "201",
        "type": "t_string_storage"
      },
      {
        "astId": 6010,
        "contract": "contracts/tokens/HexlinkErc721.sol:HexlinkErc721",
        "label": "maxSupply",
        "offset": 0,
        "slot": "202",
        "type": "t_uint256"
      },
      {
        "astId": 6013,
        "contract": "contracts/tokens/HexlinkErc721.sol:HexlinkErc721",
        "label": "tokenId",
        "offset": 0,
        "slot": "203",
        "type": "t_uint256"
      },
      {
        "astId": 6015,
        "contract": "contracts/tokens/HexlinkErc721.sol:HexlinkErc721",
        "label": "validator",
        "offset": 0,
        "slot": "204",
        "type": "t_address"
      }
    ],
    "types": {
      "t_address": {
        "encoding": "inplace",
        "label": "address",
        "numberOfBytes": "20"
      },
      "t_array(t_uint256)44_storage": {
        "base": "t_uint256",
        "encoding": "inplace",
        "label": "uint256[44]",
        "numberOfBytes": "1408"
      },
      "t_array(t_uint256)49_storage": {
        "base": "t_uint256",
        "encoding": "inplace",
        "label": "uint256[49]",
        "numberOfBytes": "1568"
      },
      "t_array(t_uint256)50_storage": {
        "base": "t_uint256",
        "encoding": "inplace",
        "label": "uint256[50]",
        "numberOfBytes": "1600"
      },
      "t_bool": {
        "encoding": "inplace",
        "label": "bool",
        "numberOfBytes": "1"
      },
      "t_mapping(t_address,t_bool)": {
        "encoding": "mapping",
        "key": "t_address",
        "label": "mapping(address => bool)",
        "numberOfBytes": "32",
        "value": "t_bool"
      },
      "t_mapping(t_address,t_mapping(t_address,t_bool))": {
        "encoding": "mapping",
        "key": "t_address",
        "label": "mapping(address => mapping(address => bool))",
        "numberOfBytes": "32",
        "value": "t_mapping(t_address,t_bool)"
      },
      "t_mapping(t_address,t_uint256)": {
        "encoding": "mapping",
        "key": "t_address",
        "label": "mapping(address => uint256)",
        "numberOfBytes": "32",
        "value": "t_uint256"
      },
      "t_mapping(t_uint256,t_address)": {
        "encoding": "mapping",
        "key": "t_uint256",
        "label": "mapping(uint256 => address)",
        "numberOfBytes": "32",
        "value": "t_address"
      },
      "t_string_storage": {
        "encoding": "bytes",
        "label": "string",
        "numberOfBytes": "32"
      },
      "t_uint256": {
        "encoding": "inplace",
        "label": "uint256",
        "numberOfBytes": "32"
      },
      "t_uint8": {
        "encoding": "inplace",
        "label": "uint8",
        "numberOfBytes": "1"
      }
    }
  }
}