{
  "address": "0x68b21f454c098e118d13a67630e49ddced958afa",
  "abi": [
    {
      "inputs": [],
      "name": "Ownable__NotOwner",
      "type": "error"
    },
    {
      "inputs": [],
      "name": "Ownable__NotTransitiveOwner",
      "type": "error"
    },
    {
      "anonymous": false,
      "inputs": [
        {
          "indexed": false,
          "internalType": "address",
          "name": "previousAdmin",
          "type": "address"
        },
        {
          "indexed": false,
          "internalType": "address",
          "name": "newAdmin",
          "type": "address"
        }
      ],
      "name": "AdminChanged",
      "type": "event"
    },
    {
      "anonymous": false,
      "inputs": [
        {
          "indexed": true,
          "internalType": "address",
          "name": "beacon",
          "type": "address"
        }
      ],
      "name": "BeaconUpgraded",
      "type": "event"
    },
    {
      "anonymous": false,
      "inputs": [
        {
          "indexed": false,
          "internalType": "address",
          "name": "sender",
          "type": "address"
        },
        {
          "indexed": false,
          "internalType": "uint256",
          "name": "amount",
          "type": "uint256"
        }
      ],
      "name": "Deposit",
      "type": "event"
    },
    {
      "anonymous": false,
      "inputs": [
        {
          "indexed": true,
          "internalType": "address",
          "name": "previousOwner",
          "type": "address"
        },
        {
          "indexed": true,
          "internalType": "address",
          "name": "newOwner",
          "type": "address"
        }
      ],
      "name": "OwnershipTransferred",
      "type": "event"
    },
    {
      "anonymous": false,
      "inputs": [
        {
          "indexed": true,
          "internalType": "address",
          "name": "from",
          "type": "address"
        },
        {
          "indexed": true,
          "internalType": "address",
          "name": "token",
          "type": "address"
        },
        {
          "indexed": false,
          "internalType": "uint256",
          "name": "amountIn",
          "type": "uint256"
        },
        {
          "indexed": false,
          "internalType": "uint256",
          "name": "amountOut",
          "type": "uint256"
        }
      ],
      "name": "Swap",
      "type": "event"
    },
    {
      "anonymous": false,
      "inputs": [
        {
          "indexed": true,
          "internalType": "address",
          "name": "implementation",
          "type": "address"
        }
      ],
      "name": "Upgraded",
      "type": "event"
    },
    {
      "anonymous": false,
      "inputs": [
        {
          "indexed": false,
          "internalType": "address",
          "name": "receiver",
          "type": "address"
        },
        {
          "indexed": false,
          "internalType": "uint256",
          "name": "amount",
          "type": "uint256"
        }
      ],
      "name": "Withdraw",
      "type": "event"
    },
    {
      "inputs": [],
      "name": "deposit",
      "outputs": [],
      "stateMutability": "payable",
      "type": "function"
    },
    {
      "inputs": [],
      "name": "implementation",
      "outputs": [
        {
          "internalType": "address",
          "name": "",
          "type": "address"
        }
      ],
      "stateMutability": "view",
      "type": "function"
    },
    {
      "inputs": [
        {
          "internalType": "address",
          "name": "newOwner",
          "type": "address"
        }
      ],
      "name": "init",
      "outputs": [],
      "stateMutability": "nonpayable",
      "type": "function"
    },
    {
      "inputs": [],
      "name": "owner",
      "outputs": [
        {
          "internalType": "address",
          "name": "",
          "type": "address"
        }
      ],
      "stateMutability": "view",
      "type": "function"
    },
    {
      "inputs": [
        {
          "internalType": "address",
          "name": "token",
          "type": "address"
        }
      ],
      "name": "priceOf",
      "outputs": [
        {
          "internalType": "uint256",
          "name": "",
          "type": "uint256"
        }
      ],
      "stateMutability": "view",
      "type": "function"
    },
    {
      "inputs": [],
      "name": "proxiableUUID",
      "outputs": [
        {
          "internalType": "bytes32",
          "name": "",
          "type": "bytes32"
        }
      ],
      "stateMutability": "view",
      "type": "function"
    },
    {
      "inputs": [
        {
          "internalType": "address",
          "name": "token",
          "type": "address"
        },
        {
          "internalType": "uint256",
          "name": "price",
          "type": "uint256"
        }
      ],
      "name": "setPrice",
      "outputs": [],
      "stateMutability": "nonpayable",
      "type": "function"
    },
    {
      "inputs": [
        {
          "internalType": "address[]",
          "name": "tokens",
          "type": "address[]"
        },
        {
          "internalType": "uint256[]",
          "name": "prices",
          "type": "uint256[]"
        }
      ],
      "name": "setPrices",
      "outputs": [],
      "stateMutability": "nonpayable",
      "type": "function"
    },
    {
      "inputs": [
        {
          "internalType": "address",
          "name": "token",
          "type": "address"
        },
        {
          "internalType": "uint256",
          "name": "amountIn",
          "type": "uint256"
        }
      ],
      "name": "swap",
      "outputs": [
        {
          "internalType": "uint256",
          "name": "amountOut",
          "type": "uint256"
        }
      ],
      "stateMutability": "nonpayable",
      "type": "function"
    },
    {
      "inputs": [
        {
          "internalType": "address",
          "name": "token",
          "type": "address"
        },
        {
          "internalType": "uint256",
          "name": "amountIn",
          "type": "uint256"
        },
        {
          "internalType": "address",
          "name": "to",
          "type": "address"
        },
        {
          "internalType": "bytes",
          "name": "data",
          "type": "bytes"
        }
      ],
      "name": "swapAndCall",
      "outputs": [
        {
          "internalType": "uint256",
          "name": "amountOut",
          "type": "uint256"
        }
      ],
      "stateMutability": "nonpayable",
      "type": "function"
    },
    {
      "inputs": [
        {
          "internalType": "address",
          "name": "token",
          "type": "address"
        },
        {
          "internalType": "uint256",
          "name": "amountOut",
          "type": "uint256"
        }
      ],
      "name": "swapExactOutput",
      "outputs": [
        {
          "internalType": "uint256",
          "name": "amountIn",
          "type": "uint256"
        }
      ],
      "stateMutability": "nonpayable",
      "type": "function"
    },
    {
      "inputs": [
        {
          "internalType": "address",
          "name": "token",
          "type": "address"
        },
        {
          "internalType": "uint256",
          "name": "amountOut",
          "type": "uint256"
        },
        {
          "internalType": "address",
          "name": "to",
          "type": "address"
        },
        {
          "internalType": "bytes",
          "name": "data",
          "type": "bytes"
        }
      ],
      "name": "swapExactOutputAndCall",
      "outputs": [
        {
          "internalType": "uint256",
          "name": "amountIn",
          "type": "uint256"
        }
      ],
      "stateMutability": "nonpayable",
      "type": "function"
    },
    {
      "inputs": [
        {
          "internalType": "address",
          "name": "account",
          "type": "address"
        }
      ],
      "name": "transferOwnership",
      "outputs": [],
      "stateMutability": "nonpayable",
      "type": "function"
    },
    {
      "inputs": [
        {
          "internalType": "address",
          "name": "newImplementation",
          "type": "address"
        }
      ],
      "name": "upgradeTo",
      "outputs": [],
      "stateMutability": "nonpayable",
      "type": "function"
    },
    {
      "inputs": [
        {
          "internalType": "address",
          "name": "newImplementation",
          "type": "address"
        },
        {
          "internalType": "bytes",
          "name": "data",
          "type": "bytes"
        }
      ],
      "name": "upgradeToAndCall",
      "outputs": [],
      "stateMutability": "payable",
      "type": "function"
    },
    {
      "inputs": [
        {
          "internalType": "uint256",
          "name": "amount",
          "type": "uint256"
        }
      ],
      "name": "withdraw",
      "outputs": [],
      "stateMutability": "nonpayable",
      "type": "function"
    }
  ],
  "transactionHash": "0x34551c53eb036e1c29acbde9ab00add1fec11d5f9c64cd1c94e46f0509016054",
  "args": [],
  "numDeployments": 1,
  "solcInputHash": "c812a498711c2e11e10073c135ffc41d",
  "bytecode": "0x60a06040523073ffffffffffffffffffffffffffffffffffffffff1660809073ffffffffffffffffffffffffffffffffffffffff1660601b81525034801561004657600080fd5b5060805160601c6128f16100816000396000818161074d015281816107dc01528181610a2101528181610ab00152610b6001526128f16000f3fe6080604052600436106100f25760003560e01c806352d1902d1161008a578063b95ed06f11610059578063b95ed06f14610318578063d004f0f714610355578063d0e30db014610392578063f2fde38b1461039c576100f2565b806352d1902d1461025a5780635c60da1b146102855780638da5cb5b146102b0578063ae40bb56146102db576100f2565b80632e1a7d4d116100c65780632e1a7d4d146101c35780633659cfe6146101ec5780634352fa9f146102155780634f1ef2861461023e576100f2565b8062e4768b146100f757806319ab453c146101205780632b23c4d0146101495780632cb1e39a14610186575b600080fd5b34801561010357600080fd5b5061011e60048036038101906101199190611883565b6103c5565b005b34801561012c57600080fd5b50610147600480360381019061014291906118c3565b610478565b005b34801561015557600080fd5b50610170600480360381019061016b9190611a36565b6104fa565b60405161017d9190611ac8565b60405180910390f35b34801561019257600080fd5b506101ad60048036038101906101a89190611a36565b6105c3565b6040516101ba9190611ac8565b60405180910390f35b3480156101cf57600080fd5b506101ea60048036038101906101e59190611ae3565b61068c565b005b3480156101f857600080fd5b50610213600480360381019061020e91906118c3565b61074b565b005b34801561022157600080fd5b5061023c60048036038101906102379190611c9b565b6108d4565b005b61025860048036038101906102539190611d13565b610a1f565b005b34801561026657600080fd5b5061026f610b5c565b60405161027c9190611d88565b60405180910390f35b34801561029157600080fd5b5061029a610c15565b6040516102a79190611db2565b60405180910390f35b3480156102bc57600080fd5b506102c5610c24565b6040516102d29190611db2565b60405180910390f35b3480156102e757600080fd5b5061030260048036038101906102fd9190611883565b610c33565b60405161030f9190611ac8565b60405180910390f35b34801561032457600080fd5b5061033f600480360381019061033a91906118c3565b610c51565b60405161034c9190611ac8565b60405180910390f35b34801561036157600080fd5b5061037c60048036038101906103779190611883565b610c99565b6040516103899190611ac8565b60405180910390f35b61039a610cb7565b005b3480156103a857600080fd5b506103c360048036038101906103be91906118c3565b610cf2565b005b6103cd610d6a565b73ffffffffffffffffffffffffffffffffffffffff163373ffffffffffffffffffffffffffffffffffffffff1614610431576040517f2f7a8ee100000000000000000000000000000000000000000000000000000000815260040160405180910390fd5b806000808473ffffffffffffffffffffffffffffffffffffffff1673ffffffffffffffffffffffffffffffffffffffff168152602001908152602001600020819055505050565b600073ffffffffffffffffffffffffffffffffffffffff16610498610c24565b73ffffffffffffffffffffffffffffffffffffffff16146104ee576040517f08c379a00000000000000000000000000000000000000000000000000000000081526004016104e590611e2a565b60405180910390fd5b6104f781610d9d565b50565b60006105068585610da9565b90506000808473ffffffffffffffffffffffffffffffffffffffff1686856040516105319190611ec4565b60006040518083038185875af1925050503d806000811461056e576040519150601f19603f3d011682016040523d82523d6000602084013e610573565b606091505b50915091506105b882826040518060400160405280600a81526020017f63616c6c206572726f7200000000000000000000000000000000000000000000815250610e97565b505050949350505050565b60006105cf8585610eb9565b90506000808473ffffffffffffffffffffffffffffffffffffffff1683856040516105fa9190611ec4565b60006040518083038185875af1925050503d8060008114610637576040519150601f19603f3d011682016040523d82523d6000602084013e61063c565b606091505b509150915061068182826040518060400160405280600a81526020017f63616c6c206572726f7200000000000000000000000000000000000000000000815250610e97565b505050949350505050565b610694610d6a565b73ffffffffffffffffffffffffffffffffffffffff163373ffffffffffffffffffffffffffffffffffffffff16146106f8576040517f2f7a8ee100000000000000000000000000000000000000000000000000000000815260040160405180910390fd5b6000610702610c24565b90507f884edad9ce6fa2440d8a54cc123490eb96d2768479d49ff9c7366125a94243648183604051610735929190611edb565b60405180910390a16107478183610f9a565b5050565b7f000000000000000000000000000000000000000000000000000000000000000073ffffffffffffffffffffffffffffffffffffffff163073ffffffffffffffffffffffffffffffffffffffff1614156107da576040517f08c379a00000000000000000000000000000000000000000000000000000000081526004016107d190611f76565b60405180910390fd5b7f000000000000000000000000000000000000000000000000000000000000000073ffffffffffffffffffffffffffffffffffffffff1661081961108e565b73ffffffffffffffffffffffffffffffffffffffff161461086f576040517f08c379a000000000000000000000000000000000000000000000000000000000815260040161086690612008565b60405180910390fd5b610878816110e5565b6108d181600067ffffffffffffffff8111156108975761089661190b565b5b6040519080825280601f01601f1916602001820160405280156108c95781602001600182028036833780820191505090505b506000611154565b50565b6108dc610d6a565b73ffffffffffffffffffffffffffffffffffffffff163373ffffffffffffffffffffffffffffffffffffffff1614610940576040517f2f7a8ee100000000000000000000000000000000000000000000000000000000815260040160405180910390fd5b8051825114610984576040517f08c379a000000000000000000000000000000000000000000000000000000000815260040161097b90612074565b60405180910390fd5b60005b8251811015610a1a578181815181106109a3576109a2612094565b5b60200260200101516000808584815181106109c1576109c0612094565b5b602002602001015173ffffffffffffffffffffffffffffffffffffffff1673ffffffffffffffffffffffffffffffffffffffff168152602001908152602001600020819055508080610a12906120f2565b915050610987565b505050565b7f000000000000000000000000000000000000000000000000000000000000000073ffffffffffffffffffffffffffffffffffffffff163073ffffffffffffffffffffffffffffffffffffffff161415610aae576040517f08c379a0000000000000000000000000000000000000000000000000000000008152600401610aa590611f76565b60405180910390fd5b7f000000000000000000000000000000000000000000000000000000000000000073ffffffffffffffffffffffffffffffffffffffff16610aed61108e565b73ffffffffffffffffffffffffffffffffffffffff1614610b43576040517f08c379a0000000000000000000000000000000000000000000000000000000008152600401610b3a90612008565b60405180910390fd5b610b4c826110e5565b610b5882826001611154565b5050565b60007f000000000000000000000000000000000000000000000000000000000000000073ffffffffffffffffffffffffffffffffffffffff163073ffffffffffffffffffffffffffffffffffffffff1614610bec576040517f08c379a0000000000000000000000000000000000000000000000000000000008152600401610be3906121ad565b60405180910390fd5b7f360894a13ba1a3210667c828492db98dca3e2076cc3735a920a3ca505d382bbc60001b905090565b6000610c1f61108e565b905090565b6000610c2e610d6a565b905090565b6000610c3f8383610da9565b9050610c4b3383610f9a565b92915050565b60008060008373ffffffffffffffffffffffffffffffffffffffff1673ffffffffffffffffffffffffffffffffffffffff168152602001908152602001600020549050919050565b6000610ca58383610eb9565b9050610cb13382610f9a565b92915050565b7fe1fffcc4923d04b559f4d29a8bfc6cda04eb5b0d3c460751c2402c5c5cc9109c3334604051610ce8929190611edb565b60405180910390a1565b610cfa610d6a565b73ffffffffffffffffffffffffffffffffffffffff163373ffffffffffffffffffffffffffffffffffffffff1614610d5e576040517f2f7a8ee100000000000000000000000000000000000000000000000000000000815260040160405180910390fd5b610d6781610d9d565b50565b6000610d746112d1565b60000160009054906101000a900473ffffffffffffffffffffffffffffffffffffffff16905090565b610da6816112fe565b50565b600081471015610dee576040517f08c379a0000000000000000000000000000000000000000000000000000000008152600401610de590612219565b60405180910390fd5b6000610dfa84836113cf565b90506001670de0b6b3a76400008285610e139190612239565b610e1d91906122c2565b610e2791906122f3565b91508373ffffffffffffffffffffffffffffffffffffffff163373ffffffffffffffffffffffffffffffffffffffff167ffa2dda1cc1b86e41239702756b13effbc1a092b5c57e3ad320fbe4f3b13fe2358486604051610e88929190612349565b60405180910390a35092915050565b60608315610ea757829050610eb2565b610eb183836114f7565b5b9392505050565b600080610ec684846113cf565b905080670de0b6b3a764000084610edd9190612239565b610ee791906122c2565b915081471015610f2c576040517f08c379a0000000000000000000000000000000000000000000000000000000008152600401610f2390612219565b60405180910390fd5b8373ffffffffffffffffffffffffffffffffffffffff163373ffffffffffffffffffffffffffffffffffffffff167ffa2dda1cc1b86e41239702756b13effbc1a092b5c57e3ad320fbe4f3b13fe2358585604051610f8b929190612349565b60405180910390a35092915050565b80471015610fdd576040517f08c379a0000000000000000000000000000000000000000000000000000000008152600401610fd4906123be565b60405180910390fd5b60008273ffffffffffffffffffffffffffffffffffffffff168260405161100390612404565b60006040518083038185875af1925050503d8060008114611040576040519150601f19603f3d011682016040523d82523d6000602084013e611045565b606091505b5050905080611089576040517f08c379a00000000000000000000000000000000000000000000000000000000081526004016110809061248b565b60405180910390fd5b505050565b60006110bc7f360894a13ba1a3210667c828492db98dca3e2076cc3735a920a3ca505d382bbc60001b611547565b60000160009054906101000a900473ffffffffffffffffffffffffffffffffffffffff16905090565b6110ed610d6a565b73ffffffffffffffffffffffffffffffffffffffff163373ffffffffffffffffffffffffffffffffffffffff1614611151576040517f2f7a8ee100000000000000000000000000000000000000000000000000000000815260040160405180910390fd5b50565b6111807f4910fdfa16fed3260ed0e7147f7cc6da11a60208b5b9406d12a635614ffd914360001b611551565b60000160009054906101000a900460ff16156111a45761119f8361155b565b6112cc565b8273ffffffffffffffffffffffffffffffffffffffff166352d1902d6040518163ffffffff1660e01b815260040160206040518083038186803b1580156111ea57600080fd5b505afa92505050801561121b57506040513d601f19601f8201168201806040525081019061121891906124d7565b60015b61125a576040517f08c379a000000000000000000000000000000000000000000000000000000000815260040161125190612576565b60405180910390fd5b7f360894a13ba1a3210667c828492db98dca3e2076cc3735a920a3ca505d382bbc60001b81146112bf576040517f08c379a00000000000000000000000000000000000000000000000000000000081526004016112b690612608565b60405180910390fd5b506112cb838383611614565b5b505050565b6000807f8a22373512790c48b83a1fe2efdd2888d4a917bcdc24d0adf63e60f67168046090508091505090565b60006113086112d1565b90508173ffffffffffffffffffffffffffffffffffffffff168160000160009054906101000a900473ffffffffffffffffffffffffffffffffffffffff1673ffffffffffffffffffffffffffffffffffffffff167f8be0079c531659141344cd1fd0a4f28419497f9722a3daafe3b4186f6b6457e060405160405180910390a3818160000160006101000a81548173ffffffffffffffffffffffffffffffffffffffff021916908373ffffffffffffffffffffffffffffffffffffffff1602179055505050565b6000806113da610c24565b90508373ffffffffffffffffffffffffffffffffffffffff166323b872dd3383866040518463ffffffff1660e01b815260040161141993929190612628565b602060405180830381600087803b15801561143357600080fd5b505af1158015611447573d6000803e3d6000fd5b505050506040513d601f19601f8201168201806040525081019061146b9190612697565b506000808573ffffffffffffffffffffffffffffffffffffffff1673ffffffffffffffffffffffffffffffffffffffff168152602001908152602001600020549150600082116114f0576040517f08c379a00000000000000000000000000000000000000000000000000000000081526004016114e790612710565b60405180910390fd5b5092915050565b60008251111561150a5781518083602001fd5b806040517f08c379a000000000000000000000000000000000000000000000000000000000815260040161153e9190612774565b60405180910390fd5b6000819050919050565b6000819050919050565b61156481611640565b6115a3576040517f08c379a000000000000000000000000000000000000000000000000000000000815260040161159a90612808565b60405180910390fd5b806115d07f360894a13ba1a3210667c828492db98dca3e2076cc3735a920a3ca505d382bbc60001b611547565b60000160006101000a81548173ffffffffffffffffffffffffffffffffffffffff021916908373ffffffffffffffffffffffffffffffffffffffff16021790555050565b61161d83611663565b60008251118061162a5750805b1561163b5761163983836116b2565b505b505050565b6000808273ffffffffffffffffffffffffffffffffffffffff163b119050919050565b61166c8161155b565b8073ffffffffffffffffffffffffffffffffffffffff167fbc7cd75a20ee27fd9adebab32041f755214dbc6bffa90cc0225b39da2e5c2d3b60405160405180910390a250565b60606116d78383604051806060016040528060278152602001612895602791396116df565b905092915050565b60606000808573ffffffffffffffffffffffffffffffffffffffff16856040516117099190611ec4565b600060405180830381855af49150503d8060008114611744576040519150601f19603f3d011682016040523d82523d6000602084013e611749565b606091505b509150915061175a86838387611765565b925050509392505050565b606083156117c8576000835114156117c05761178085611640565b6117bf576040517f08c379a00000000000000000000000000000000000000000000000000000000081526004016117b690612874565b60405180910390fd5b5b8290506117d3565b6117d283836114f7565b5b949350505050565b6000604051905090565b600080fd5b600080fd5b600073ffffffffffffffffffffffffffffffffffffffff82169050919050565b600061181a826117ef565b9050919050565b61182a8161180f565b811461183557600080fd5b50565b60008135905061184781611821565b92915050565b6000819050919050565b6118608161184d565b811461186b57600080fd5b50565b60008135905061187d81611857565b92915050565b6000806040838503121561189a576118996117e5565b5b60006118a885828601611838565b92505060206118b98582860161186e565b9150509250929050565b6000602082840312156118d9576118d86117e5565b5b60006118e784828501611838565b91505092915050565b600080fd5b600080fd5b6000601f19601f8301169050919050565b7f4e487b7100000000000000000000000000000000000000000000000000000000600052604160045260246000fd5b611943826118fa565b810181811067ffffffffffffffff821117156119625761196161190b565b5b80604052505050565b60006119756117db565b9050611981828261193a565b919050565b600067ffffffffffffffff8211156119a1576119a061190b565b5b6119aa826118fa565b9050602081019050919050565b82818337600083830152505050565b60006119d96119d484611986565b61196b565b9050828152602081018484840111156119f5576119f46118f5565b5b611a008482856119b7565b509392505050565b600082601f830112611a1d57611a1c6118f0565b5b8135611a2d8482602086016119c6565b91505092915050565b60008060008060808587031215611a5057611a4f6117e5565b5b6000611a5e87828801611838565b9450506020611a6f8782880161186e565b9350506040611a8087828801611838565b925050606085013567ffffffffffffffff811115611aa157611aa06117ea565b5b611aad87828801611a08565b91505092959194509250565b611ac28161184d565b82525050565b6000602082019050611add6000830184611ab9565b92915050565b600060208284031215611af957611af86117e5565b5b6000611b078482850161186e565b91505092915050565b600067ffffffffffffffff821115611b2b57611b2a61190b565b5b602082029050602081019050919050565b600080fd5b6000611b54611b4f84611b10565b61196b565b90508083825260208201905060208402830185811115611b7757611b76611b3c565b5b835b81811015611ba05780611b8c8882611838565b845260208401935050602081019050611b79565b5050509392505050565b600082601f830112611bbf57611bbe6118f0565b5b8135611bcf848260208601611b41565b91505092915050565b600067ffffffffffffffff821115611bf357611bf261190b565b5b602082029050602081019050919050565b6000611c17611c1284611bd8565b61196b565b90508083825260208201905060208402830185811115611c3a57611c39611b3c565b5b835b81811015611c635780611c4f888261186e565b845260208401935050602081019050611c3c565b5050509392505050565b600082601f830112611c8257611c816118f0565b5b8135611c92848260208601611c04565b91505092915050565b60008060408385031215611cb257611cb16117e5565b5b600083013567ffffffffffffffff811115611cd057611ccf6117ea565b5b611cdc85828601611baa565b925050602083013567ffffffffffffffff811115611cfd57611cfc6117ea565b5b611d0985828601611c6d565b9150509250929050565b60008060408385031215611d2a57611d296117e5565b5b6000611d3885828601611838565b925050602083013567ffffffffffffffff811115611d5957611d586117ea565b5b611d6585828601611a08565b9150509250929050565b6000819050919050565b611d8281611d6f565b82525050565b6000602082019050611d9d6000830184611d79565b92915050565b611dac8161180f565b82525050565b6000602082019050611dc76000830184611da3565b92915050565b600082825260208201905092915050565b7f616c726561647920696e697469616c697a656400000000000000000000000000600082015250565b6000611e14601383611dcd565b9150611e1f82611dde565b602082019050919050565b60006020820190508181036000830152611e4381611e07565b9050919050565b600081519050919050565b600081905092915050565b60005b83811015611e7e578082015181840152602081019050611e63565b83811115611e8d576000848401525b50505050565b6000611e9e82611e4a565b611ea88185611e55565b9350611eb8818560208601611e60565b80840191505092915050565b6000611ed08284611e93565b915081905092915050565b6000604082019050611ef06000830185611da3565b611efd6020830184611ab9565b9392505050565b7f46756e6374696f6e206d7573742062652063616c6c6564207468726f7567682060008201527f64656c656761746563616c6c0000000000000000000000000000000000000000602082015250565b6000611f60602c83611dcd565b9150611f6b82611f04565b604082019050919050565b60006020820190508181036000830152611f8f81611f53565b9050919050565b7f46756e6374696f6e206d7573742062652063616c6c6564207468726f7567682060008201527f6163746976652070726f78790000000000000000000000000000000000000000602082015250565b6000611ff2602c83611dcd565b9150611ffd82611f96565b604082019050919050565b6000602082019050818103600083015261202181611fe5565b9050919050565b7f61726773206c656e677468206d69736d61746368000000000000000000000000600082015250565b600061205e601483611dcd565b915061206982612028565b602082019050919050565b6000602082019050818103600083015261208d81612051565b9050919050565b7f4e487b7100000000000000000000000000000000000000000000000000000000600052603260045260246000fd5b7f4e487b7100000000000000000000000000000000000000000000000000000000600052601160045260246000fd5b60006120fd8261184d565b91507fffffffffffffffffffffffffffffffffffffffffffffffffffffffffffffffff8214156121305761212f6120c3565b5b600182019050919050565b7f555550535570677261646561626c653a206d757374206e6f742062652063616c60008201527f6c6564207468726f7567682064656c656761746563616c6c0000000000000000602082015250565b6000612197603883611dcd565b91506121a28261213b565b604082019050919050565b600060208201905081810360008301526121c68161218a565b9050919050565b7f4c6f77206c697175696469747900000000000000000000000000000000000000600082015250565b6000612203600d83611dcd565b915061220e826121cd565b602082019050919050565b60006020820190508181036000830152612232816121f6565b9050919050565b60006122448261184d565b915061224f8361184d565b9250817fffffffffffffffffffffffffffffffffffffffffffffffffffffffffffffffff0483118215151615612288576122876120c3565b5b828202905092915050565b7f4e487b7100000000000000000000000000000000000000000000000000000000600052601260045260246000fd5b60006122cd8261184d565b91506122d88361184d565b9250826122e8576122e7612293565b5b828204905092915050565b60006122fe8261184d565b91506123098361184d565b9250827fffffffffffffffffffffffffffffffffffffffffffffffffffffffffffffffff0382111561233e5761233d6120c3565b5b828201905092915050565b600060408201905061235e6000830185611ab9565b61236b6020830184611ab9565b9392505050565b7f416464726573733a20696e73756666696369656e742062616c616e6365000000600082015250565b60006123a8601d83611dcd565b91506123b382612372565b602082019050919050565b600060208201905081810360008301526123d78161239b565b9050919050565b50565b60006123ee600083611e55565b91506123f9826123de565b600082019050919050565b600061240f826123e1565b9150819050919050565b7f416464726573733a20756e61626c6520746f2073656e642076616c75652c207260008201527f6563697069656e74206d61792068617665207265766572746564000000000000602082015250565b6000612475603a83611dcd565b915061248082612419565b604082019050919050565b600060208201905081810360008301526124a481612468565b9050919050565b6124b481611d6f565b81146124bf57600080fd5b50565b6000815190506124d1816124ab565b92915050565b6000602082840312156124ed576124ec6117e5565b5b60006124fb848285016124c2565b91505092915050565b7f45524331393637557067726164653a206e657720696d706c656d656e7461746960008201527f6f6e206973206e6f742055555053000000000000000000000000000000000000602082015250565b6000612560602e83611dcd565b915061256b82612504565b604082019050919050565b6000602082019050818103600083015261258f81612553565b9050919050565b7f45524331393637557067726164653a20756e737570706f727465642070726f7860008201527f6961626c65555549440000000000000000000000000000000000000000000000602082015250565b60006125f2602983611dcd565b91506125fd82612596565b604082019050919050565b60006020820190508181036000830152612621816125e5565b9050919050565b600060608201905061263d6000830186611da3565b61264a6020830185611da3565b6126576040830184611ab9565b949350505050565b60008115159050919050565b6126748161265f565b811461267f57600080fd5b50565b6000815190506126918161266b565b92915050565b6000602082840312156126ad576126ac6117e5565b5b60006126bb84828501612682565b91505092915050565b7f756e737570706f7274656420746f6b656e000000000000000000000000000000600082015250565b60006126fa601183611dcd565b9150612705826126c4565b602082019050919050565b60006020820190508181036000830152612729816126ed565b9050919050565b600081519050919050565b600061274682612730565b6127508185611dcd565b9350612760818560208601611e60565b612769816118fa565b840191505092915050565b6000602082019050818103600083015261278e818461273b565b905092915050565b7f455243313936373a206e657720696d706c656d656e746174696f6e206973206e60008201527f6f74206120636f6e747261637400000000000000000000000000000000000000602082015250565b60006127f2602d83611dcd565b91506127fd82612796565b604082019050919050565b60006020820190508181036000830152612821816127e5565b9050919050565b7f416464726573733a2063616c6c20746f206e6f6e2d636f6e7472616374000000600082015250565b600061285e601d83611dcd565b915061286982612828565b602082019050919050565b6000602082019050818103600083015261288d81612851565b905091905056fe416464726573733a206c6f772d6c6576656c2064656c65676174652063616c6c206661696c6564a2646970667358221220f42cef2a0080842831a046d67883ebf7b35f32ea9e5cfd458bfd4930e805cb6264736f6c63430008080033",
  "devdoc": {
    "kind": "dev",
    "methods": {
      "owner()": {
        "returns": {
          "_0": "conrtact owner"
        }
      },
      "proxiableUUID()": {
        "details": "Implementation of the ERC1822 {proxiableUUID} function. This returns the storage slot used by the implementation. It is used to validate the implementation's compatibility when performing an upgrade. IMPORTANT: A proxy pointing at a proxiable contract should not be considered proxiable itself, because this risks bricking a proxy that upgrades to it, by delegating to itself until out of gas. Thus it is critical that this function revert if invoked through a proxy. This is guaranteed by the `notDelegated` modifier."
      },
      "transferOwnership(address)": {
        "params": {
          "account": "address of new owner"
        }
      },
      "upgradeTo(address)": {
        "details": "Upgrade the implementation of the proxy to `newImplementation`. Calls {_authorizeUpgrade}. Emits an {Upgraded} event."
      },
      "upgradeToAndCall(address,bytes)": {
        "details": "Upgrade the implementation of the proxy to `newImplementation`, and subsequently execute the function call encoded in `data`. Calls {_authorizeUpgrade}. Emits an {Upgraded} event."
      }
    },
    "version": 1
  },
  "userdoc": {
    "kind": "user",
    "methods": {
      "owner()": {
        "notice": "get the ERC173 contract owner"
      },
      "transferOwnership(address)": {
        "notice": "transfer contract ownership to new account"
      }
    },
    "version": 1
  },
  "storageLayout": {
    "storage": [
      {
        "astId": 3813,
        "contract": "contracts/utils/HexlinkSwap.sol:HexlinkSwapImpl",
        "label": "prices_",
        "offset": 0,
        "slot": "0",
        "type": "t_mapping(t_address,t_uint256)"
      }
    ],
    "types": {
      "t_address": {
        "encoding": "inplace",
        "label": "address",
        "numberOfBytes": "20"
      },
      "t_mapping(t_address,t_uint256)": {
        "encoding": "mapping",
        "key": "t_address",
        "label": "mapping(address => uint256)",
        "numberOfBytes": "32",
        "value": "t_uint256"
      },
      "t_uint256": {
        "encoding": "inplace",
        "label": "uint256",
        "numberOfBytes": "32"
      }
    }
  }
}