{
  "address": "0x5E3FC6C8A4edA1371e6243a9Bb7bb7c0e32a049E",
  "abi": [
    {
      "inputs": [
        {
          "internalType": "address",
          "name": "accountBase",
          "type": "address"
        }
      ],
      "stateMutability": "nonpayable",
      "type": "constructor"
    },
    {
      "inputs": [],
      "name": "Ownable__NotOwner",
      "type": "error"
    },
    {
      "inputs": [],
      "name": "Ownable__NotTransitiveOwner",
      "type": "error"
    },
    {
      "anonymous": false,
      "inputs": [
        {
          "indexed": false,
          "internalType": "address",
          "name": "previousAdmin",
          "type": "address"
        },
        {
          "indexed": false,
          "internalType": "address",
          "name": "newAdmin",
          "type": "address"
        }
      ],
      "name": "AdminChanged",
      "type": "event"
    },
    {
      "anonymous": false,
      "inputs": [
        {
          "indexed": true,
          "internalType": "address",
          "name": "beacon",
          "type": "address"
        }
      ],
      "name": "BeaconUpgraded",
      "type": "event"
    },
    {
      "anonymous": false,
      "inputs": [
        {
          "indexed": true,
          "internalType": "bytes32",
          "name": "name",
          "type": "bytes32"
        },
        {
          "indexed": true,
          "internalType": "address",
          "name": "account",
          "type": "address"
        }
      ],
      "name": "Deploy",
      "type": "event"
    },
    {
      "anonymous": false,
      "inputs": [
        {
          "indexed": true,
          "internalType": "address",
          "name": "previousOwner",
          "type": "address"
        },
        {
          "indexed": true,
          "internalType": "address",
          "name": "newOwner",
          "type": "address"
        }
      ],
      "name": "OwnershipTransferred",
      "type": "event"
    },
    {
      "anonymous": false,
      "inputs": [
        {
          "indexed": true,
          "internalType": "bytes32",
          "name": "name",
          "type": "bytes32"
        },
        {
          "indexed": true,
          "internalType": "address",
          "name": "account",
          "type": "address"
        }
      ],
      "name": "Reset",
      "type": "event"
    },
    {
      "anonymous": false,
      "inputs": [
        {
          "indexed": true,
          "internalType": "address",
          "name": "implementation",
          "type": "address"
        }
      ],
      "name": "Upgraded",
      "type": "event"
    },
    {
      "inputs": [],
      "name": "accountBase",
      "outputs": [
        {
          "internalType": "address",
          "name": "",
          "type": "address"
        }
      ],
      "stateMutability": "view",
      "type": "function"
    },
    {
      "inputs": [
        {
          "internalType": "bytes32",
          "name": "name",
          "type": "bytes32"
        }
      ],
      "name": "addressOfName",
      "outputs": [
        {
          "internalType": "address",
          "name": "",
          "type": "address"
        }
      ],
      "stateMutability": "view",
      "type": "function"
    },
    {
      "inputs": [
        {
          "internalType": "bytes32",
          "name": "name",
          "type": "bytes32"
        },
        {
          "components": [
            {
              "internalType": "uint256",
              "name": "issuedAt",
              "type": "uint256"
            },
            {
              "internalType": "bytes32",
              "name": "identityType",
              "type": "bytes32"
            },
            {
              "internalType": "bytes32",
              "name": "authType",
              "type": "bytes32"
            },
            {
              "internalType": "bytes",
              "name": "signature",
              "type": "bytes"
            }
          ],
          "internalType": "struct AuthProof",
          "name": "proof",
          "type": "tuple"
        }
      ],
      "name": "bumpNonce",
      "outputs": [],
      "stateMutability": "nonpayable",
      "type": "function"
    },
    {
      "inputs": [
        {
          "internalType": "bytes32",
          "name": "name",
          "type": "bytes32"
        },
        {
          "internalType": "bytes",
          "name": "txData",
          "type": "bytes"
        },
        {
          "components": [
            {
              "internalType": "uint256",
              "name": "issuedAt",
              "type": "uint256"
            },
            {
              "internalType": "bytes32",
              "name": "identityType",
              "type": "bytes32"
            },
            {
              "internalType": "bytes32",
              "name": "authType",
              "type": "bytes32"
            },
            {
              "internalType": "bytes",
              "name": "signature",
              "type": "bytes"
            }
          ],
          "internalType": "struct AuthProof",
          "name": "proof",
          "type": "tuple"
        }
      ],
      "name": "deploy",
      "outputs": [
        {
          "internalType": "address",
          "name": "",
          "type": "address"
        }
      ],
      "stateMutability": "nonpayable",
      "type": "function"
    },
    {
      "inputs": [],
      "name": "implementation",
      "outputs": [
        {
          "internalType": "address",
          "name": "",
          "type": "address"
        }
      ],
      "stateMutability": "view",
      "type": "function"
    },
    {
      "inputs": [
        {
          "internalType": "address",
          "name": "owner",
          "type": "address"
        },
        {
          "internalType": "address",
          "name": "oracleRegistry",
          "type": "address"
        }
      ],
      "name": "init",
      "outputs": [],
      "stateMutability": "nonpayable",
      "type": "function"
    },
    {
      "inputs": [
        {
          "internalType": "bytes32",
          "name": "name",
          "type": "bytes32"
        }
      ],
      "name": "nonce",
      "outputs": [
        {
          "internalType": "uint96",
          "name": "",
          "type": "uint96"
        }
      ],
      "stateMutability": "view",
      "type": "function"
    },
    {
      "inputs": [],
      "name": "oracleRegistry",
      "outputs": [
        {
          "internalType": "address",
          "name": "",
          "type": "address"
        }
      ],
      "stateMutability": "view",
      "type": "function"
    },
    {
      "inputs": [],
      "name": "owner",
      "outputs": [
        {
          "internalType": "address",
          "name": "",
          "type": "address"
        }
      ],
      "stateMutability": "view",
      "type": "function"
    },
    {
      "inputs": [
        {
          "components": [
            {
              "internalType": "address",
              "name": "to",
              "type": "address"
            },
            {
              "internalType": "uint256",
              "name": "value",
              "type": "uint256"
            },
            {
              "internalType": "bytes",
              "name": "callData",
              "type": "bytes"
            },
            {
              "internalType": "uint256",
              "name": "callGasLimit",
              "type": "uint256"
            }
          ],
          "internalType": "struct Op[]",
          "name": "ops",
          "type": "tuple[]"
        }
      ],
      "name": "process",
      "outputs": [],
      "stateMutability": "payable",
      "type": "function"
    },
    {
      "inputs": [],
      "name": "proxiableUUID",
      "outputs": [
        {
          "internalType": "bytes32",
          "name": "",
          "type": "bytes32"
        }
      ],
      "stateMutability": "view",
      "type": "function"
    },
    {
      "inputs": [
        {
          "internalType": "bytes32",
          "name": "name",
          "type": "bytes32"
        },
        {
          "internalType": "address",
          "name": "account",
          "type": "address"
        },
        {
          "components": [
            {
              "internalType": "uint256",
              "name": "issuedAt",
              "type": "uint256"
            },
            {
              "internalType": "bytes32",
              "name": "identityType",
              "type": "bytes32"
            },
            {
              "internalType": "bytes32",
              "name": "authType",
              "type": "bytes32"
            },
            {
              "internalType": "bytes",
              "name": "signature",
              "type": "bytes"
            }
          ],
          "internalType": "struct AuthProof",
          "name": "proof",
          "type": "tuple"
        }
      ],
      "name": "reset",
      "outputs": [],
      "stateMutability": "nonpayable",
      "type": "function"
    },
    {
      "inputs": [
        {
          "internalType": "bytes32",
          "name": "name",
          "type": "bytes32"
        },
        {
          "internalType": "address",
          "name": "account",
          "type": "address"
        },
        {
          "components": [
            {
              "internalType": "uint256",
              "name": "issuedAt",
              "type": "uint256"
            },
            {
              "internalType": "bytes32",
              "name": "identityType",
              "type": "bytes32"
            },
            {
              "internalType": "bytes32",
              "name": "authType",
              "type": "bytes32"
            },
            {
              "internalType": "bytes",
              "name": "signature",
              "type": "bytes"
            }
          ],
          "internalType": "struct AuthProof",
          "name": "proof1",
          "type": "tuple"
        },
        {
          "components": [
            {
              "internalType": "uint256",
              "name": "issuedAt",
              "type": "uint256"
            },
            {
              "internalType": "bytes32",
              "name": "identityType",
              "type": "bytes32"
            },
            {
              "internalType": "bytes32",
              "name": "authType",
              "type": "bytes32"
            },
            {
              "internalType": "bytes",
              "name": "signature",
              "type": "bytes"
            }
          ],
          "internalType": "struct AuthProof",
          "name": "proof2",
          "type": "tuple"
        }
      ],
      "name": "reset2Fac",
      "outputs": [],
      "stateMutability": "nonpayable",
      "type": "function"
    },
    {
      "inputs": [
        {
          "internalType": "bytes32",
          "name": "name",
          "type": "bytes32"
        },
        {
          "internalType": "address",
          "name": "account",
          "type": "address"
        },
        {
          "components": [
            {
              "internalType": "uint256",
              "name": "issuedAt",
              "type": "uint256"
            },
            {
              "internalType": "bytes32",
              "name": "identityType",
              "type": "bytes32"
            },
            {
              "internalType": "bytes32",
              "name": "authType",
              "type": "bytes32"
            },
            {
              "internalType": "bytes",
              "name": "signature",
              "type": "bytes"
            }
          ],
          "internalType": "struct AuthProof",
          "name": "proof",
          "type": "tuple"
        }
      ],
      "name": "reset2Stage",
      "outputs": [],
      "stateMutability": "nonpayable",
      "type": "function"
    },
    {
      "inputs": [
        {
          "internalType": "address",
          "name": "oracleRegistry",
          "type": "address"
        }
      ],
      "name": "setOracleRegistry",
      "outputs": [],
      "stateMutability": "nonpayable",
      "type": "function"
    },
    {
      "inputs": [
        {
          "internalType": "address",
          "name": "account",
          "type": "address"
        }
      ],
      "name": "transferOwnership",
      "outputs": [],
      "stateMutability": "nonpayable",
      "type": "function"
    },
    {
      "inputs": [],
      "name": "ttl",
      "outputs": [
        {
          "internalType": "uint256",
          "name": "",
          "type": "uint256"
        }
      ],
      "stateMutability": "view",
      "type": "function"
    },
    {
      "inputs": [],
      "name": "twoStageLock",
      "outputs": [
        {
          "internalType": "uint256",
          "name": "",
          "type": "uint256"
        }
      ],
      "stateMutability": "view",
      "type": "function"
    },
    {
      "inputs": [
        {
          "internalType": "address",
          "name": "newImplementation",
          "type": "address"
        }
      ],
      "name": "upgradeTo",
      "outputs": [],
      "stateMutability": "nonpayable",
      "type": "function"
    },
    {
      "inputs": [
        {
          "internalType": "address",
          "name": "newImplementation",
          "type": "address"
        },
        {
          "internalType": "bytes",
          "name": "data",
          "type": "bytes"
        }
      ],
      "name": "upgradeToAndCall",
      "outputs": [],
      "stateMutability": "payable",
      "type": "function"
    }
  ],
  "transactionHash": "0x2c8a4e52cbd8d41de94ef05660be310955bf243668c5002e0d725ed2297ed10a",
  "args": [
    "0x48EBe15A07CD576783803294beb2d57f063446c4"
  ],
  "numDeployments": 9,
  "solcInputHash": "3592179f0326fa652289c988b22e8f78",
  "bytecode": "0x60c06040523073ffffffffffffffffffffffffffffffffffffffff1660a09073ffffffffffffffffffffffffffffffffffffffff1660601b8152503480156200004757600080fd5b5060405162003d3538038062003d3583398181016040528101906200006d919062000117565b808073ffffffffffffffffffffffffffffffffffffffff1660808173ffffffffffffffffffffffffffffffffffffffff1660601b81525050505062000149565b600080fd5b600073ffffffffffffffffffffffffffffffffffffffff82169050919050565b6000620000df82620000b2565b9050919050565b620000f181620000d2565b8114620000fd57600080fd5b50565b6000815190506200011181620000e6565b92915050565b60006020828403121562000130576200012f620000ad565b5b6000620001408482850162000100565b91505092915050565b60805160601c60a05160601c613b966200019f6000396000818161049101528181610520015281816107860152818161081501526108c5015260008181610d1b01528181610e2d01526117500152613b966000f3fe60806040526004361061011f5760003560e01c80638165354e116100a0578063cd6a84b311610064578063cd6a84b3146103a5578063f09a4016146103d0578063f2b01a82146103f9578063f2fde38b14610436578063f5a3e3dc1461045f5761011f565b80638165354e146102c25780638da5cb5b146102eb578063905da30f146103165780639cd6bc3714610353578063b7a24c0f1461037c5761011f565b80634f1ef286116100e75780634f1ef286146101ea57806352d1902d146102065780635c60da1b14610231578063643012c31461025c5780637eaa9c8c146102855761011f565b80632ebdf1d2146101245780633659cfe61461014f57806343cdffe0146101785780634bb93ab1146101945780634e8b1dd5146101bf575b600080fd5b34801561013057600080fd5b50610139610488565b60405161014691906123bf565b60405180910390f35b34801561015b57600080fd5b506101766004803603810190610171919061244c565b61048f565b005b610192600480360381019061018d91906124de565b610618565b005b3480156101a057600080fd5b506101a961074a565b6040516101b6919061253a565b60405180910390f35b3480156101cb57600080fd5b506101d461077d565b6040516101e191906123bf565b60405180910390f35b61020460048036038101906101ff9190612696565b610784565b005b34801561021257600080fd5b5061021b6108c1565b604051610228919061270b565b60405180910390f35b34801561023d57600080fd5b5061024661097a565b604051610253919061253a565b60405180910390f35b34801561026857600080fd5b50610283600480360381019061027e9190612776565b610989565b005b34801561029157600080fd5b506102ac60048036038101906102a79190612815565b610a26565b6040516102b9919061253a565b60405180910390f35b3480156102ce57600080fd5b506102e960048036038101906102e4919061244c565b610a6e565b005b3480156102f757600080fd5b50610300610ae6565b60405161030d919061253a565b60405180910390f35b34801561032257600080fd5b5061033d60048036038101906103389190612815565b610af5565b60405161034a9190612869565b60405180910390f35b34801561035f57600080fd5b5061037a60048036038101906103759190612884565b610b2c565b005b34801561038857600080fd5b506103a3600480360381019061039e9190612884565b610c6f565b005b3480156103b157600080fd5b506103ba610d19565b6040516103c7919061253a565b60405180910390f35b3480156103dc57600080fd5b506103f760048036038101906103f291906128f3565b610d3d565b005b34801561040557600080fd5b50610420600480360381019061041b9190612989565b610dc9565b60405161042d919061253a565b60405180910390f35b34801561044257600080fd5b5061045d6004803603810190610458919061244c565b610f9e565b005b34801561046b57600080fd5b5061048660048036038101906104819190612a19565b611016565b005b6203f48081565b7f000000000000000000000000000000000000000000000000000000000000000073ffffffffffffffffffffffffffffffffffffffff163073ffffffffffffffffffffffffffffffffffffffff16141561051e576040517f08c379a000000000000000000000000000000000000000000000000000000000815260040161051590612af8565b60405180910390fd5b7f000000000000000000000000000000000000000000000000000000000000000073ffffffffffffffffffffffffffffffffffffffff1661055d611096565b73ffffffffffffffffffffffffffffffffffffffff16146105b3576040517f08c379a00000000000000000000000000000000000000000000000000000000081526004016105aa90612b8a565b60405180910390fd5b6105bc816110ed565b61061581600067ffffffffffffffff8111156105db576105da61256b565b5b6040519080825280601f01601f19166020018201604052801561060d5781602001600182028036833780820191505090505b50600061115c565b50565b60005b8282905081101561074557600083838381811061063b5761063a612baa565b5b905060200281019061064d9190612be8565b61065690612cda565b9050600080826000015173ffffffffffffffffffffffffffffffffffffffff1683602001516000856060015114610691578460600151610693565b5a5b9085604001516040516106a69190612d67565b600060405180830381858888f193505050503d80600081146106e4576040519150601f19603f3d011682016040523d82523d6000602084013e6106e9565b606091505b509150915061072e82826040518060400160405280600781526020017f4845584c303233000000000000000000000000000000000000000000000000008152506112d9565b50505050808061073d90612dad565b91505061061b565b505050565b60006107546112fb565b60000160009054906101000a900473ffffffffffffffffffffffffffffffffffffffff16905090565b6203f48081565b7f000000000000000000000000000000000000000000000000000000000000000073ffffffffffffffffffffffffffffffffffffffff163073ffffffffffffffffffffffffffffffffffffffff161415610813576040517f08c379a000000000000000000000000000000000000000000000000000000000815260040161080a90612af8565b60405180910390fd5b7f000000000000000000000000000000000000000000000000000000000000000073ffffffffffffffffffffffffffffffffffffffff16610852611096565b73ffffffffffffffffffffffffffffffffffffffff16146108a8576040517f08c379a000000000000000000000000000000000000000000000000000000000815260040161089f90612b8a565b60405180910390fd5b6108b1826110ed565b6108bd8282600161115c565b5050565b60007f000000000000000000000000000000000000000000000000000000000000000073ffffffffffffffffffffffffffffffffffffffff163073ffffffffffffffffffffffffffffffffffffffff1614610951576040517f08c379a000000000000000000000000000000000000000000000000000000000815260040161094890612e68565b60405180910390fd5b7f360894a13ba1a3210667c828492db98dca3e2076cc3735a920a3ca505d382bbc60001b905090565b6000610984611096565b905090565b60006109b485856040516020016109a0919061253a565b604051602081830303815290604052611328565b90506109c181848461149f565b6109cb8585611500565b600181606001516109dc9190612e88565b60008087815260200190815260200160002060000160146101000a8154816bffffffffffffffffffffffff02191690836bffffffffffffffffffffffff1602179055505050505050565b6000610a678260008085815260200190815260200160002060000160009054906101000a900473ffffffffffffffffffffffffffffffffffffffff1661160c565b9050919050565b610a76611659565b73ffffffffffffffffffffffffffffffffffffffff163373ffffffffffffffffffffffffffffffffffffffff1614610ada576040517f2f7a8ee100000000000000000000000000000000000000000000000000000000815260040160405180910390fd5b610ae38161168c565b50565b6000610af0611659565b905090565b600080600083815260200190815260200160002060000160149054906101000a90046bffffffffffffffffffffffff169050919050565b6000610b578484604051602001610b43919061253a565b604051602081830303815290604052611328565b90506000610b6485611749565b90508073ffffffffffffffffffffffffffffffffffffffff16826040015173ffffffffffffffffffffffffffffffffffffffff16148015610bc15750610bbf8173ffffffffffffffffffffffffffffffffffffffff1661177c565b155b610c00576040517f08c379a0000000000000000000000000000000000000000000000000000000008152600401610bf790612f16565b60405180910390fd5b610c0a828461179f565b610c148585611500565b60018260600151610c259190612e88565b60008087815260200190815260200160002060000160146101000a8154816bffffffffffffffffffffffff02191690836bffffffffffffffffffffffff1602179055505050505050565b6000610c9a8484604051602001610c86919061253a565b604051602081830303815290604052611328565b90506000610ca882846117f5565b90506002811415610d1257610cbd8585611500565b60018260600151610cce9190612e88565b60008087815260200190815260200160002060000160146101000a8154816bffffffffffffffffffffffff02191690836bffffffffffffffffffffffff1602179055505b5050505050565b7f000000000000000000000000000000000000000000000000000000000000000081565b600073ffffffffffffffffffffffffffffffffffffffff16610d5d611659565b73ffffffffffffffffffffffffffffffffffffffff1614610db3576040517f08c379a0000000000000000000000000000000000000000000000000000000008152600401610daa90612f82565b60405180910390fd5b610dbc8261195e565b610dc58161168c565b5050565b600080610e1a8686868080601f016020809104026020016040519081016040528093929190818152602001838380828437600081840152601f19601f82011690508083019250505050505050611328565b9050610e26818461179f565b6000610e527f00000000000000000000000000000000000000000000000000000000000000008861196a565b9050610ef886868080601f016020809104026020016040519081016040528093929190818152602001838380828437600081840152601f19601f820116905080830192505050505050506040518060400160405280600781526020017f4845584c303232000000000000000000000000000000000000000000000000008152508373ffffffffffffffffffffffffffffffffffffffff16611a279092919063ffffffff16565b5060018260600151610f0a9190612e88565b60008089815260200190815260200160002060000160146101000a8154816bffffffffffffffffffffffff02191690836bffffffffffffffffffffffff1602179055508073ffffffffffffffffffffffffffffffffffffffff16877fa4ec87efbdf333e464825b3a3a757dc501a72b53041a352de91a3fbdcdae650960405160405180910390a38092505050949350505050565b610fa6611659565b73ffffffffffffffffffffffffffffffffffffffff163373ffffffffffffffffffffffffffffffffffffffff161461100a576040517f2f7a8ee100000000000000000000000000000000000000000000000000000000815260040160405180910390fd5b6110138161195e565b50565b60006110318360405180602001604052806000815250611328565b905061103d818361179f565b6001816060015161104e9190612e88565b60008085815260200190815260200160002060000160146101000a8154816bffffffffffffffffffffffff02191690836bffffffffffffffffffffffff160217905550505050565b60006110c47f360894a13ba1a3210667c828492db98dca3e2076cc3735a920a3ca505d382bbc60001b611a3f565b60000160009054906101000a900473ffffffffffffffffffffffffffffffffffffffff16905090565b6110f5611659565b73ffffffffffffffffffffffffffffffffffffffff163373ffffffffffffffffffffffffffffffffffffffff1614611159576040517f2f7a8ee100000000000000000000000000000000000000000000000000000000815260040160405180910390fd5b50565b6111887f4910fdfa16fed3260ed0e7147f7cc6da11a60208b5b9406d12a635614ffd914360001b611a49565b60000160009054906101000a900460ff16156111ac576111a783611a53565b6112d4565b8273ffffffffffffffffffffffffffffffffffffffff166352d1902d6040518163ffffffff1660e01b815260040160206040518083038186803b1580156111f257600080fd5b505afa92505050801561122357506040513d601f19601f820116820180604052508101906112209190612fb7565b60015b611262576040517f08c379a000000000000000000000000000000000000000000000000000000000815260040161125990613056565b60405180910390fd5b7f360894a13ba1a3210667c828492db98dca3e2076cc3735a920a3ca505d382bbc60001b81146112c7576040517f08c379a00000000000000000000000000000000000000000000000000000000081526004016112be906130e8565b60405180910390fd5b506112d3838383611b0c565b5b505050565b606083156112e9578290506112f4565b6112f38383611b38565b5b9392505050565b6000807ff884206727a14387141eace3d812a8da620a47f4bcb60b011186e317fde6785890508091505090565b611330612354565b60008060008581526020019081526020016000206040518060400160405290816000820160009054906101000a900473ffffffffffffffffffffffffffffffffffffffff1673ffffffffffffffffffffffffffffffffffffffff1673ffffffffffffffffffffffffffffffffffffffff1681526020016000820160149054906101000a90046bffffffffffffffffffffffff166bffffffffffffffffffffffff166bffffffffffffffffffffffff16815250509050600080357fffffffff0000000000000000000000000000000000000000000000000000000016843046856020015160405160200161142795949392919061318d565b604051602081830303815290604052805190602001209050604051806080016040528086815260200182815260200161146487856000015161160c565b73ffffffffffffffffffffffffffffffffffffffff16815260200183602001516bffffffffffffffffffffffff168152509250505092915050565b6114a9838361179f565b6114b281611b88565b6114f1576040517f08c379a00000000000000000000000000000000000000000000000000000000081526004016114e890613233565b60405180910390fd5b6114fb8382611b9b565b505050565b600073ffffffffffffffffffffffffffffffffffffffff168173ffffffffffffffffffffffffffffffffffffffff161415611570576040517f08c379a00000000000000000000000000000000000000000000000000000000081526004016115679061329f565b60405180910390fd5b8060008084815260200190815260200160002060000160006101000a81548173ffffffffffffffffffffffffffffffffffffffff021916908373ffffffffffffffffffffffffffffffffffffffff1602179055508073ffffffffffffffffffffffffffffffffffffffff16827f9ea66a51baa076262b5c824021c8d0594003137dc336d820c66ae07e2bdc78a660405160405180910390a35050565b60008073ffffffffffffffffffffffffffffffffffffffff168273ffffffffffffffffffffffffffffffffffffffff16146116475781611651565b61165083611749565b5b905092915050565b6000611663611e33565b60000160009054906101000a900473ffffffffffffffffffffffffffffffffffffffff16905090565b600073ffffffffffffffffffffffffffffffffffffffff168173ffffffffffffffffffffffffffffffffffffffff1614156116fc576040517f08c379a00000000000000000000000000000000000000000000000000000000081526004016116f39061330b565b60405180910390fd5b806117056112fb565b60000160006101000a81548173ffffffffffffffffffffffffffffffffffffffff021916908373ffffffffffffffffffffffffffffffffffffffff16021790555050565b60006117757f000000000000000000000000000000000000000000000000000000000000000083611e60565b9050919050565b6000808273ffffffffffffffffffffffffffffffffffffffff163b119050919050565b6117a881611e75565b6117e7576040517f08c379a00000000000000000000000000000000000000000000000000000000081526004016117de90613377565b60405180910390fd5b6117f18282611b9b565b5050565b6000806118006112fb565b90506000816001016000866000015181526020019081526020016000206000866020015181526020019081526020016000206040518060400160405290816000820154815260200160018201548152505090506000816000015114156118e55761186a858561179f565b42826001016000876000015181526020019081526020016000206000876020015181526020019081526020016000206000018190555083602001358260010160008760000151815260200190815260200160002060008760200151815260200190815260200160002060010181905550600192505050611958565b6118ee84611b88565b611947576203f48081600001516119059190613397565b4211611946576040517f08c379a000000000000000000000000000000000000000000000000000000000815260040161193d90613439565b60405180910390fd5b5b6119518585611b9b565b6002925050505b92915050565b61196781611e89565b50565b6000763d602d80600a3d3981f3363d3d373d3d3d363d730000008360601b60e81c176000526e5af43d82803e903d91602b57fd5bf38360781b1760205281603760096000f59050600073ffffffffffffffffffffffffffffffffffffffff168173ffffffffffffffffffffffffffffffffffffffff161415611a21576040517f08c379a0000000000000000000000000000000000000000000000000000000008152600401611a18906134a5565b60405180910390fd5b92915050565b6060611a368484600085611f5a565b90509392505050565b6000819050919050565b6000819050919050565b611a5c8161177c565b611a9b576040517f08c379a0000000000000000000000000000000000000000000000000000000008152600401611a9290613537565b60405180910390fd5b80611ac87f360894a13ba1a3210667c828492db98dca3e2076cc3735a920a3ca505d382bbc60001b611a3f565b60000160006101000a81548173ffffffffffffffffffffffffffffffffffffffff021916908373ffffffffffffffffffffffffffffffffffffffff16021790555050565b611b1583612027565b600082511180611b225750805b15611b3357611b318383612076565b505b505050565b600082511115611b4b5781518083602001fd5b806040517f08c379a0000000000000000000000000000000000000000000000000000000008152600401611b7f919061359b565b60405180910390fd5b60008060001b8260200135149050919050565b428160000135108015611bbf5750426203f4808260000135611bbd9190613397565b115b611bfe576040517f08c379a0000000000000000000000000000000000000000000000000000000008152600401611bf590613609565b60405180910390fd5b600082600001518360200151836000013584602001358560400135604051602001611c2d959493929190613629565b60405160208183030381529060405280519060200120905060008060001b836020013514611c6357611c5e836120a3565b611c69565b83604001515b90508073ffffffffffffffffffffffffffffffffffffffff16631626ba7e83858060600190611c98919061367c565b6040518463ffffffff1660e01b8152600401611cb69392919061370c565b60206040518083038186803b158015611cce57600080fd5b505afa925050508015611cff57506040513d601f19601f82011682018060405250810190611cfc919061376a565b60015b611da557611d0b6137a4565b806308c379a01415611d685750611d206137c6565b80611d2b5750611d6a565b806040517f08c379a0000000000000000000000000000000000000000000000000000000008152600401611d5f919061359b565b60405180910390fd5b505b6040517f08c379a0000000000000000000000000000000000000000000000000000000008152600401611d9c906138a8565b60405180910390fd5b631626ba7e60e01b7bffffffffffffffffffffffffffffffffffffffffffffffffffffffff1916817bffffffffffffffffffffffffffffffffffffffffffffffffffffffff191614611e2c576040517f08c379a0000000000000000000000000000000000000000000000000000000008152600401611e2390613914565b60405180910390fd5b5050505050565b6000807f8a22373512790c48b83a1fe2efdd2888d4a917bcdc24d0adf63e60f67168046090508091505090565b6000611e6d8383306121f7565b905092915050565b60008060001b826020013514159050919050565b6000611e93611e33565b90508173ffffffffffffffffffffffffffffffffffffffff168160000160009054906101000a900473ffffffffffffffffffffffffffffffffffffffff1673ffffffffffffffffffffffffffffffffffffffff167f8be0079c531659141344cd1fd0a4f28419497f9722a3daafe3b4186f6b6457e060405160405180910390a3818160000160006101000a81548173ffffffffffffffffffffffffffffffffffffffff021916908373ffffffffffffffffffffffffffffffffffffffff1602179055505050565b606082471015611f9f576040517f08c379a0000000000000000000000000000000000000000000000000000000008152600401611f96906139a6565b60405180910390fd5b6000808673ffffffffffffffffffffffffffffffffffffffff168587604051611fc89190612d67565b60006040518083038185875af1925050503d8060008114612005576040519150601f19603f3d011682016040523d82523d6000602084013e61200a565b606091505b509150915061201b87838387612258565b92505050949350505050565b61203081611a53565b8073ffffffffffffffffffffffffffffffffffffffff167fbc7cd75a20ee27fd9adebab32041f755214dbc6bffa90cc0225b39da2e5c2d3b60405160405180910390a250565b606061209b8383604051806060016040528060278152602001613b3a602791396122ce565b905092915050565b6000806040518060400160405280846020013581526020018460400135815250905060006120cf6112fb565b60000160009054906101000a900473ffffffffffffffffffffffffffffffffffffffff1673ffffffffffffffffffffffffffffffffffffffff1663d2f18f19836040518263ffffffff1660e01b815260040161212b9190613a04565b60206040518083038186803b15801561214357600080fd5b505afa158015612157573d6000803e3d6000fd5b505050506040513d601f19601f8201168201806040525081019061217b9190613a34565b9050600073ffffffffffffffffffffffffffffffffffffffff168173ffffffffffffffffffffffffffffffffffffffff1614156121ed576040517f08c379a00000000000000000000000000000000000000000000000000000000081526004016121e490613aad565b60405180910390fd5b8092505050919050565b60006040518260388201526f5af43d82803e903d91602b57fd5bf3ff6024820152846014820152733d602d80600a3d3981f3363d3d373d3d3d363d7381528360588201526037600c8201206078820152605560438201209150509392505050565b606083156122bb576000835114156122b3576122738561177c565b6122b2576040517f08c379a00000000000000000000000000000000000000000000000000000000081526004016122a990613b19565b60405180910390fd5b5b8290506122c6565b6122c58383611b38565b5b949350505050565b60606000808573ffffffffffffffffffffffffffffffffffffffff16856040516122f89190612d67565b600060405180830381855af49150503d8060008114612333576040519150601f19603f3d011682016040523d82523d6000602084013e612338565b606091505b509150915061234986838387612258565b925050509392505050565b60405180608001604052806000801916815260200160008019168152602001600073ffffffffffffffffffffffffffffffffffffffff16815260200160006bffffffffffffffffffffffff1681525090565b6000819050919050565b6123b9816123a6565b82525050565b60006020820190506123d460008301846123b0565b92915050565b6000604051905090565b600080fd5b600080fd5b600073ffffffffffffffffffffffffffffffffffffffff82169050919050565b6000612419826123ee565b9050919050565b6124298161240e565b811461243457600080fd5b50565b60008135905061244681612420565b92915050565b600060208284031215612462576124616123e4565b5b600061247084828501612437565b91505092915050565b600080fd5b600080fd5b600080fd5b60008083601f84011261249e5761249d612479565b5b8235905067ffffffffffffffff8111156124bb576124ba61247e565b5b6020830191508360208202830111156124d7576124d6612483565b5b9250929050565b600080602083850312156124f5576124f46123e4565b5b600083013567ffffffffffffffff811115612513576125126123e9565b5b61251f85828601612488565b92509250509250929050565b6125348161240e565b82525050565b600060208201905061254f600083018461252b565b92915050565b600080fd5b6000601f19601f8301169050919050565b7f4e487b7100000000000000000000000000000000000000000000000000000000600052604160045260246000fd5b6125a38261255a565b810181811067ffffffffffffffff821117156125c2576125c161256b565b5b80604052505050565b60006125d56123da565b90506125e1828261259a565b919050565b600067ffffffffffffffff8211156126015761260061256b565b5b61260a8261255a565b9050602081019050919050565b82818337600083830152505050565b6000612639612634846125e6565b6125cb565b90508281526020810184848401111561265557612654612555565b5b612660848285612617565b509392505050565b600082601f83011261267d5761267c612479565b5b813561268d848260208601612626565b91505092915050565b600080604083850312156126ad576126ac6123e4565b5b60006126bb85828601612437565b925050602083013567ffffffffffffffff8111156126dc576126db6123e9565b5b6126e885828601612668565b9150509250929050565b6000819050919050565b612705816126f2565b82525050565b600060208201905061272060008301846126fc565b92915050565b61272f816126f2565b811461273a57600080fd5b50565b60008135905061274c81612726565b92915050565b600080fd5b60006080828403121561276d5761276c612752565b5b81905092915050565b600080600080608085870312156127905761278f6123e4565b5b600061279e8782880161273d565b94505060206127af87828801612437565b935050604085013567ffffffffffffffff8111156127d0576127cf6123e9565b5b6127dc87828801612757565b925050606085013567ffffffffffffffff8111156127fd576127fc6123e9565b5b61280987828801612757565b91505092959194509250565b60006020828403121561282b5761282a6123e4565b5b60006128398482850161273d565b91505092915050565b60006bffffffffffffffffffffffff82169050919050565b61286381612842565b82525050565b600060208201905061287e600083018461285a565b92915050565b60008060006060848603121561289d5761289c6123e4565b5b60006128ab8682870161273d565b93505060206128bc86828701612437565b925050604084013567ffffffffffffffff8111156128dd576128dc6123e9565b5b6128e986828701612757565b9150509250925092565b6000806040838503121561290a576129096123e4565b5b600061291885828601612437565b925050602061292985828601612437565b9150509250929050565b60008083601f84011261294957612948612479565b5b8235905067ffffffffffffffff8111156129665761296561247e565b5b60208301915083600182028301111561298257612981612483565b5b9250929050565b600080600080606085870312156129a3576129a26123e4565b5b60006129b18782880161273d565b945050602085013567ffffffffffffffff8111156129d2576129d16123e9565b5b6129de87828801612933565b9350935050604085013567ffffffffffffffff811115612a0157612a006123e9565b5b612a0d87828801612757565b91505092959194509250565b60008060408385031215612a3057612a2f6123e4565b5b6000612a3e8582860161273d565b925050602083013567ffffffffffffffff811115612a5f57612a5e6123e9565b5b612a6b85828601612757565b9150509250929050565b600082825260208201905092915050565b7f46756e6374696f6e206d7573742062652063616c6c6564207468726f7567682060008201527f64656c656761746563616c6c0000000000000000000000000000000000000000602082015250565b6000612ae2602c83612a75565b9150612aed82612a86565b604082019050919050565b60006020820190508181036000830152612b1181612ad5565b9050919050565b7f46756e6374696f6e206d7573742062652063616c6c6564207468726f7567682060008201527f6163746976652070726f78790000000000000000000000000000000000000000602082015250565b6000612b74602c83612a75565b9150612b7f82612b18565b604082019050919050565b60006020820190508181036000830152612ba381612b67565b9050919050565b7f4e487b7100000000000000000000000000000000000000000000000000000000600052603260045260246000fd5b600080fd5b600080fd5b600080fd5b600082356001608003833603038112612c0457612c03612bd9565b5b80830191505092915050565b600080fd5b600080fd5b612c23816123a6565b8114612c2e57600080fd5b50565b600081359050612c4081612c1a565b92915050565b600060808284031215612c5c57612c5b612c10565b5b612c6660806125cb565b90506000612c7684828501612437565b6000830152506020612c8a84828501612c31565b602083015250604082013567ffffffffffffffff811115612cae57612cad612c15565b5b612cba84828501612668565b6040830152506060612cce84828501612c31565b60608301525092915050565b6000612ce63683612c46565b9050919050565b600081519050919050565b600081905092915050565b60005b83811015612d21578082015181840152602081019050612d06565b83811115612d30576000848401525b50505050565b6000612d4182612ced565b612d4b8185612cf8565b9350612d5b818560208601612d03565b80840191505092915050565b6000612d738284612d36565b915081905092915050565b7f4e487b7100000000000000000000000000000000000000000000000000000000600052601160045260246000fd5b6000612db8826123a6565b91507fffffffffffffffffffffffffffffffffffffffffffffffffffffffffffffffff821415612deb57612dea612d7e565b5b600182019050919050565b7f555550535570677261646561626c653a206d757374206e6f742062652063616c60008201527f6c6564207468726f7567682064656c656761746563616c6c0000000000000000602082015250565b6000612e52603883612a75565b9150612e5d82612df6565b604082019050919050565b60006020820190508181036000830152612e8181612e45565b9050919050565b6000612e9382612842565b9150612e9e83612842565b9250826bffffffffffffffffffffffff03821115612ebf57612ebe612d7e565b5b828201905092915050565b7f4845584c30303900000000000000000000000000000000000000000000000000600082015250565b6000612f00600783612a75565b9150612f0b82612eca565b602082019050919050565b60006020820190508181036000830152612f2f81612ef3565b9050919050565b7f4845584c30313500000000000000000000000000000000000000000000000000600082015250565b6000612f6c600783612a75565b9150612f7782612f36565b602082019050919050565b60006020820190508181036000830152612f9b81612f5f565b9050919050565b600081519050612fb181612726565b92915050565b600060208284031215612fcd57612fcc6123e4565b5b6000612fdb84828501612fa2565b91505092915050565b7f45524331393637557067726164653a206e657720696d706c656d656e7461746960008201527f6f6e206973206e6f742055555053000000000000000000000000000000000000602082015250565b6000613040602e83612a75565b915061304b82612fe4565b604082019050919050565b6000602082019050818103600083015261306f81613033565b9050919050565b7f45524331393637557067726164653a20756e737570706f727465642070726f7860008201527f6961626c65555549440000000000000000000000000000000000000000000000602082015250565b60006130d2602983612a75565b91506130dd82613076565b604082019050919050565b60006020820190508181036000830152613101816130c5565b9050919050565b60007fffffffff0000000000000000000000000000000000000000000000000000000082169050919050565b61313d81613108565b82525050565b600082825260208201905092915050565b600061315f82612ced565b6131698185613143565b9350613179818560208601612d03565b6131828161255a565b840191505092915050565b600060a0820190506131a26000830188613134565b81810360208301526131b48187613154565b90506131c3604083018661252b565b6131d060608301856123b0565b6131dd608083018461285a565b9695505050505050565b7f4845584c30303400000000000000000000000000000000000000000000000000600082015250565b600061321d600783612a75565b9150613228826131e7565b602082019050919050565b6000602082019050818103600083015261324c81613210565b9050919050565b7f4845584c30313200000000000000000000000000000000000000000000000000600082015250565b6000613289600783612a75565b915061329482613253565b602082019050919050565b600060208201905081810360008301526132b88161327c565b9050919050565b7f4845584c30323000000000000000000000000000000000000000000000000000600082015250565b60006132f5600783612a75565b9150613300826132bf565b602082019050919050565b60006020820190508181036000830152613324816132e8565b9050919050565b7f4845584c30303300000000000000000000000000000000000000000000000000600082015250565b6000613361600783612a75565b915061336c8261332b565b602082019050919050565b6000602082019050818103600083015261339081613354565b9050919050565b60006133a2826123a6565b91506133ad836123a6565b9250827fffffffffffffffffffffffffffffffffffffffffffffffffffffffffffffffff038211156133e2576133e1612d7e565b5b828201905092915050565b7f4845584c30303500000000000000000000000000000000000000000000000000600082015250565b6000613423600783612a75565b915061342e826133ed565b602082019050919050565b6000602082019050818103600083015261345281613416565b9050919050565b7f455243313136373a2063726561746532206661696c6564000000000000000000600082015250565b600061348f601783612a75565b915061349a82613459565b602082019050919050565b600060208201905081810360008301526134be81613482565b9050919050565b7f455243313936373a206e657720696d706c656d656e746174696f6e206973206e60008201527f6f74206120636f6e747261637400000000000000000000000000000000000000602082015250565b6000613521602d83612a75565b915061352c826134c5565b604082019050919050565b6000602082019050818103600083015261355081613514565b9050919050565b600081519050919050565b600061356d82613557565b6135778185612a75565b9350613587818560208601612d03565b6135908161255a565b840191505092915050565b600060208201905081810360008301526135b58184613562565b905092915050565b7f4845584c30303600000000000000000000000000000000000000000000000000600082015250565b60006135f3600783612a75565b91506135fe826135bd565b602082019050919050565b60006020820190508181036000830152613622816135e6565b9050919050565b600060a08201905061363e60008301886126fc565b61364b60208301876126fc565b61365860408301866123b0565b61366560608301856126fc565b61367260808301846126fc565b9695505050505050565b6000808335600160200384360303811261369957613698612bd9565b5b80840192508235915067ffffffffffffffff8211156136bb576136ba612bde565b5b6020830192506001820236038313156136d7576136d6612be3565b5b509250929050565b60006136eb8385613143565b93506136f8838584612617565b6137018361255a565b840190509392505050565b600060408201905061372160008301866126fc565b81810360208301526137348184866136df565b9050949350505050565b61374781613108565b811461375257600080fd5b50565b6000815190506137648161373e565b92915050565b6000602082840312156137805761377f6123e4565b5b600061378e84828501613755565b91505092915050565b60008160e01c9050919050565b600060033d11156137c35760046000803e6137c0600051613797565b90505b90565b600060443d10156137d657613859565b6137de6123da565b60043d036004823e80513d602482011167ffffffffffffffff82111715613806575050613859565b808201805167ffffffffffffffff8111156138245750505050613859565b80602083010160043d038501811115613841575050505050613859565b6138508260200185018661259a565b82955050505050505b90565b7f4845584c30303800000000000000000000000000000000000000000000000000600082015250565b6000613892600783612a75565b915061389d8261385c565b602082019050919050565b600060208201905081810360008301526138c181613885565b9050919050565b7f4845584c30303700000000000000000000000000000000000000000000000000600082015250565b60006138fe600783612a75565b9150613909826138c8565b602082019050919050565b6000602082019050818103600083015261392d816138f1565b9050919050565b7f416464726573733a20696e73756666696369656e742062616c616e636520666f60008201527f722063616c6c0000000000000000000000000000000000000000000000000000602082015250565b6000613990602683612a75565b915061399b82613934565b604082019050919050565b600060208201905081810360008301526139bf81613983565b9050919050565b6139cf816126f2565b82525050565b6040820160008201516139eb60008501826139c6565b5060208201516139fe60208501826139c6565b50505050565b6000604082019050613a1960008301846139d5565b92915050565b600081519050613a2e81612420565b92915050565b600060208284031215613a4a57613a496123e4565b5b6000613a5884828501613a1f565b91505092915050565b7f4845584c30313700000000000000000000000000000000000000000000000000600082015250565b6000613a97600783612a75565b9150613aa282613a61565b602082019050919050565b60006020820190508181036000830152613ac681613a8a565b9050919050565b7f416464726573733a2063616c6c20746f206e6f6e2d636f6e7472616374000000600082015250565b6000613b03601d83612a75565b9150613b0e82613acd565b602082019050919050565b60006020820190508181036000830152613b3281613af6565b905091905056fe416464726573733a206c6f772d6c6576656c2064656c65676174652063616c6c206661696c6564a26469706673582212205b6f0fc448a2c735a51b990771f4f9fc55f5ef0e5ae2fb48c01cdf91a81e156064736f6c63430008080033",
  "devdoc": {
    "kind": "dev",
    "methods": {
      "owner()": {
        "returns": {
          "_0": "conrtact owner"
        }
      },
      "proxiableUUID()": {
        "details": "Implementation of the ERC1822 {proxiableUUID} function. This returns the storage slot used by the implementation. It is used to validate the implementation's compatibility when performing an upgrade. IMPORTANT: A proxy pointing at a proxiable contract should not be considered proxiable itself, because this risks bricking a proxy that upgrades to it, by delegating to itself until out of gas. Thus it is critical that this function revert if invoked through a proxy. This is guaranteed by the `notDelegated` modifier."
      },
      "transferOwnership(address)": {
        "params": {
          "account": "address of new owner"
        }
      },
      "upgradeTo(address)": {
        "details": "Upgrade the implementation of the proxy to `newImplementation`. Calls {_authorizeUpgrade}. Emits an {Upgraded} event."
      },
      "upgradeToAndCall(address,bytes)": {
        "details": "Upgrade the implementation of the proxy to `newImplementation`, and subsequently execute the function call encoded in `data`. Calls {_authorizeUpgrade}. Emits an {Upgraded} event."
      }
    },
    "version": 1
  },
  "userdoc": {
    "kind": "user",
    "methods": {
      "owner()": {
        "notice": "get the ERC173 contract owner"
      },
      "transferOwnership(address)": {
        "notice": "transfer contract ownership to new account"
      }
    },
    "version": 1
  },
  "storageLayout": {
    "storage": [
      {
        "astId": 4618,
        "contract": "contracts/hexlink/Hexlink.sol:HexlinkUpgradeable",
        "label": "states",
        "offset": 0,
        "slot": "0",
        "type": "t_mapping(t_bytes32,t_struct(AccountState)4596_storage)"
      }
    ],
    "types": {
      "t_address": {
        "encoding": "inplace",
        "label": "address",
        "numberOfBytes": "20"
      },
      "t_bytes32": {
        "encoding": "inplace",
        "label": "bytes32",
        "numberOfBytes": "32"
      },
      "t_mapping(t_bytes32,t_struct(AccountState)4596_storage)": {
        "encoding": "mapping",
        "key": "t_bytes32",
        "label": "mapping(bytes32 => struct HexlinkImpl.AccountState)",
        "numberOfBytes": "32",
        "value": "t_struct(AccountState)4596_storage"
      },
      "t_struct(AccountState)4596_storage": {
        "encoding": "inplace",
        "label": "struct HexlinkImpl.AccountState",
        "members": [
          {
            "astId": 4593,
            "contract": "contracts/hexlink/Hexlink.sol:HexlinkUpgradeable",
            "label": "account",
            "offset": 0,
            "slot": "0",
            "type": "t_address"
          },
          {
            "astId": 4595,
            "contract": "contracts/hexlink/Hexlink.sol:HexlinkUpgradeable",
            "label": "nonce",
            "offset": 20,
            "slot": "0",
            "type": "t_uint96"
          }
        ],
        "numberOfBytes": "32"
      },
      "t_uint96": {
        "encoding": "inplace",
        "label": "uint96",
        "numberOfBytes": "12"
      }
    }
  }
}