{
  "address": "0xE21530426eC286192BfCA71D64df217F23D294D4",
  "abi": [
    {
      "inputs": [
        {
          "internalType": "address",
          "name": "_hexlink",
          "type": "address"
        },
        {
          "internalType": "address",
          "name": "_redPacket",
          "type": "address"
        }
      ],
      "stateMutability": "nonpayable",
      "type": "constructor"
    },
    {
      "anonymous": false,
      "inputs": [
        {
          "indexed": true,
          "internalType": "bytes32",
          "name": "name",
          "type": "bytes32"
        },
        {
          "indexed": true,
          "internalType": "address",
          "name": "impl",
          "type": "address"
        },
        {
          "indexed": false,
          "internalType": "address",
          "name": "account",
          "type": "address"
        }
      ],
      "name": "Deploy",
      "type": "event"
    },
    {
      "inputs": [
        {
          "internalType": "bytes32",
          "name": "salt",
          "type": "bytes32"
        },
        {
          "internalType": "bytes",
          "name": "txData",
          "type": "bytes"
        }
      ],
      "name": "deploy",
      "outputs": [
        {
          "internalType": "address",
          "name": "",
          "type": "address"
        }
      ],
      "stateMutability": "nonpayable",
      "type": "function"
    },
    {
      "inputs": [
        {
          "internalType": "bytes32",
          "name": "name",
          "type": "bytes32"
        },
        {
          "internalType": "bytes",
          "name": "initData",
          "type": "bytes"
        },
        {
          "internalType": "bytes",
          "name": "txData",
          "type": "bytes"
        },
        {
          "components": [
            {
              "internalType": "uint256",
              "name": "issuedAt",
              "type": "uint256"
            },
            {
              "internalType": "bytes32",
              "name": "identityType",
              "type": "bytes32"
            },
            {
              "internalType": "bytes32",
              "name": "authType",
              "type": "bytes32"
            },
            {
              "internalType": "bytes",
              "name": "signature",
              "type": "bytes"
            }
          ],
          "internalType": "struct AuthProof",
          "name": "proof",
          "type": "tuple"
        }
      ],
      "name": "deployAndCreateRedPacket",
      "outputs": [],
      "stateMutability": "payable",
      "type": "function"
    },
    {
      "inputs": [
        {
          "internalType": "bytes32",
          "name": "name",
          "type": "bytes32"
        },
        {
          "internalType": "bytes",
          "name": "txData",
          "type": "bytes"
        },
        {
          "components": [
            {
              "internalType": "uint256",
              "name": "issuedAt",
              "type": "uint256"
            },
            {
              "internalType": "bytes32",
              "name": "identityType",
              "type": "bytes32"
            },
            {
              "internalType": "bytes32",
              "name": "authType",
              "type": "bytes32"
            },
            {
              "internalType": "bytes",
              "name": "signature",
              "type": "bytes"
            }
          ],
          "internalType": "struct AuthProof[]",
          "name": "proofs",
          "type": "tuple[]"
        }
      ],
      "name": "redeployAndReset",
      "outputs": [],
      "stateMutability": "nonpayable",
      "type": "function"
    }
  ],
  "transactionHash": "0x2cef71678b9f36e23ae04f393619dbbd2d6807cd268a75bb869a4b5325c8f04c",
  "args": [
    "0xbAd6A7948A1d3031Ee7236d0180b6271FA569148",
    "0x4c46BB27cdA575C84bc0fD87de9D2a3ef0F0BB4b"
  ],
  "numDeployments": 4,
  "solcInputHash": "337afd4ff453e77e974ce2b8b0a1cc67",
  "bytecode": "0x60e06040523480156200001157600080fd5b50604051620016f7380380620016f78339818101604052810190620000379190620001d4565b8173ffffffffffffffffffffffffffffffffffffffff1660808173ffffffffffffffffffffffffffffffffffffffff1660601b8152505060805160601c73ffffffffffffffffffffffffffffffffffffffff1663cd6a84b36040518163ffffffff1660e01b815260040160206040518083038186803b158015620000ba57600080fd5b505afa158015620000cf573d6000803e3d6000fd5b505050506040513d601f19601f82011682018060405250810190620000f591906200021b565b73ffffffffffffffffffffffffffffffffffffffff1660a08173ffffffffffffffffffffffffffffffffffffffff1660601b815250508073ffffffffffffffffffffffffffffffffffffffff1660c08173ffffffffffffffffffffffffffffffffffffffff1660601b8152505050506200024d565b600080fd5b600073ffffffffffffffffffffffffffffffffffffffff82169050919050565b60006200019c826200016f565b9050919050565b620001ae816200018f565b8114620001ba57600080fd5b50565b600081519050620001ce81620001a3565b92915050565b60008060408385031215620001ee57620001ed6200016a565b5b6000620001fe85828601620001bd565b92505060206200021185828601620001bd565b9150509250929050565b6000602082840312156200023457620002336200016a565b5b60006200024484828501620001bd565b91505092915050565b60805160601c60a05160601c60c05160601c611460620002976000396000505060008181610203015261029a01526000818160bf0152818161035c015261044801526114606000f3fe6080604052600436106100345760003560e01c8063baf83bb014610039578063cdcb760a14610055578063e3db893314610092575b600080fd5b610053600480360381019061004e91906109c0565b6100bb565b005b34801561006157600080fd5b5061007c60048036038101906100779190610a83565b6101fb565b6040516100899190610b24565b60405180910390f35b34801561009e57600080fd5b506100b960048036038101906100b49190610b95565b610312565b005b60007f000000000000000000000000000000000000000000000000000000000000000073ffffffffffffffffffffffffffffffffffffffff1663f2b01a82888888866040518563ffffffff1660e01b815260040161011c9493929190610e4e565b602060405180830381600087803b15801561013657600080fd5b505af115801561014a573d6000803e3d6000fd5b505050506040513d601f19601f8201168201806040525081019061016e9190610ec1565b90506000341115610184576101838134610544565b5b6101f184848080601f016020809104026020016040519081016040528093929190818152602001838380828437600081840152601f19601f820116905080830192505050505050508273ffffffffffffffffffffffffffffffffffffffff1661063890919063ffffffff16565b5050505050505050565b6000806102287f000000000000000000000000000000000000000000000000000000000000000086610684565b905061029784848080601f016020809104026020016040519081016040528093929190818152602001838380828437600081840152601f19601f820116905080830192505050505050508273ffffffffffffffffffffffffffffffffffffffff1661063890919063ffffffff16565b507f000000000000000000000000000000000000000000000000000000000000000073ffffffffffffffffffffffffffffffffffffffff16857fd2072acd88f7b2aa8b2ad0a228e28261caec5ae7ba5f4ba3e6afc475597fe068836040516102ff9190610b24565b60405180910390a3809150509392505050565b60008542604051602001610327929190610efd565b604051602081830303815290604052805190602001209050600061034c8287876101fb565b9050600284849050141561043a577f000000000000000000000000000000000000000000000000000000000000000073ffffffffffffffffffffffffffffffffffffffff1663643012c38883878760008181106103ac576103ab610f26565b5b90506020028101906103be9190610f5a565b888860018181106103d2576103d1610f26565b5b90506020028101906103e49190610f5a565b6040518563ffffffff1660e01b81526004016104039493929190610f82565b600060405180830381600087803b15801561041d57600080fd5b505af1158015610431573d6000803e3d6000fd5b5050505061053b565b60018484905014156104ff577f000000000000000000000000000000000000000000000000000000000000000073ffffffffffffffffffffffffffffffffffffffff1663b7a24c0f88838787600081811061049857610497610f26565b5b90506020028101906104aa9190610f5a565b6040518463ffffffff1660e01b81526004016104c893929190610fd5565b600060405180830381600087803b1580156104e257600080fd5b505af11580156104f6573d6000803e3d6000fd5b5050505061053a565b6040517f08c379a000000000000000000000000000000000000000000000000000000000815260040161053190611070565b60405180910390fd5b5b50505050505050565b80471015610587576040517f08c379a000000000000000000000000000000000000000000000000000000000815260040161057e906110dc565b60405180910390fd5b60008273ffffffffffffffffffffffffffffffffffffffff16826040516105ad9061112d565b60006040518083038185875af1925050503d80600081146105ea576040519150601f19603f3d011682016040523d82523d6000602084013e6105ef565b606091505b5050905080610633576040517f08c379a000000000000000000000000000000000000000000000000000000000815260040161062a906111b4565b60405180910390fd5b505050565b606061067c838360006040518060400160405280601e81526020017f416464726573733a206c6f772d6c6576656c2063616c6c206661696c65640000815250610741565b905092915050565b6000763d602d80600a3d3981f3363d3d373d3d3d363d730000008360601b60e81c176000526e5af43d82803e903d91602b57fd5bf38360781b1760205281603760096000f59050600073ffffffffffffffffffffffffffffffffffffffff168173ffffffffffffffffffffffffffffffffffffffff16141561073b576040517f08c379a000000000000000000000000000000000000000000000000000000000815260040161073290611220565b60405180910390fd5b92915050565b606082471015610786576040517f08c379a000000000000000000000000000000000000000000000000000000000815260040161077d906112b2565b60405180910390fd5b6000808673ffffffffffffffffffffffffffffffffffffffff1685876040516107af9190611341565b60006040518083038185875af1925050503d80600081146107ec576040519150601f19603f3d011682016040523d82523d6000602084013e6107f1565b606091505b50915091506108028783838761080e565b92505050949350505050565b60608315610871576000835114156108695761082985610884565b610868576040517f08c379a000000000000000000000000000000000000000000000000000000000815260040161085f906113a4565b60405180910390fd5b5b82905061087c565b61087b83836108a7565b5b949350505050565b6000808273ffffffffffffffffffffffffffffffffffffffff163b119050919050565b6000825111156108ba5781518083602001fd5b806040517f08c379a00000000000000000000000000000000000000000000000000000000081526004016108ee9190611408565b60405180910390fd5b600080fd5b600080fd5b6000819050919050565b61091481610901565b811461091f57600080fd5b50565b6000813590506109318161090b565b92915050565b600080fd5b600080fd5b600080fd5b60008083601f84011261095c5761095b610937565b5b8235905067ffffffffffffffff8111156109795761097861093c565b5b60208301915083600182028301111561099557610994610941565b5b9250929050565b600080fd5b6000608082840312156109b7576109b661099c565b5b81905092915050565b600080600080600080608087890312156109dd576109dc6108f7565b5b60006109eb89828a01610922565b965050602087013567ffffffffffffffff811115610a0c57610a0b6108fc565b5b610a1889828a01610946565b9550955050604087013567ffffffffffffffff811115610a3b57610a3a6108fc565b5b610a4789828a01610946565b9350935050606087013567ffffffffffffffff811115610a6a57610a696108fc565b5b610a7689828a016109a1565b9150509295509295509295565b600080600060408486031215610a9c57610a9b6108f7565b5b6000610aaa86828701610922565b935050602084013567ffffffffffffffff811115610acb57610aca6108fc565b5b610ad786828701610946565b92509250509250925092565b600073ffffffffffffffffffffffffffffffffffffffff82169050919050565b6000610b0e82610ae3565b9050919050565b610b1e81610b03565b82525050565b6000602082019050610b396000830184610b15565b92915050565b60008083601f840112610b5557610b54610937565b5b8235905067ffffffffffffffff811115610b7257610b7161093c565b5b602083019150836020820283011115610b8e57610b8d610941565b5b9250929050565b600080600080600060608688031215610bb157610bb06108f7565b5b6000610bbf88828901610922565b955050602086013567ffffffffffffffff811115610be057610bdf6108fc565b5b610bec88828901610946565b9450945050604086013567ffffffffffffffff811115610c0f57610c0e6108fc565b5b610c1b88828901610b3f565b92509250509295509295909350565b610c3381610901565b82525050565b600082825260208201905092915050565b82818337600083830152505050565b6000601f19601f8301169050919050565b6000610c768385610c39565b9350610c83838584610c4a565b610c8c83610c59565b840190509392505050565b6000819050919050565b610caa81610c97565b8114610cb557600080fd5b50565b600081359050610cc781610ca1565b92915050565b6000610cdc6020840184610cb8565b905092915050565b610ced81610c97565b82525050565b6000610d026020840184610922565b905092915050565b610d1381610901565b82525050565b600080fd5b600080fd5b600080fd5b60008083356001602003843603038112610d4557610d44610d23565b5b83810192508235915060208301925067ffffffffffffffff821115610d6d57610d6c610d19565b5b600182023603841315610d8357610d82610d1e565b5b509250929050565b600082825260208201905092915050565b6000610da88385610d8b565b9350610db5838584610c4a565b610dbe83610c59565b840190509392505050565b600060808301610ddc6000840184610ccd565b610de96000860182610ce4565b50610df76020840184610cf3565b610e046020860182610d0a565b50610e126040840184610cf3565b610e1f6040860182610d0a565b50610e2d6060840184610d28565b8583036060870152610e40838284610d9c565b925050508091505092915050565b6000606082019050610e636000830187610c2a565b8181036020830152610e76818587610c6a565b90508181036040830152610e8a8184610dc9565b905095945050505050565b610e9e81610b03565b8114610ea957600080fd5b50565b600081519050610ebb81610e95565b92915050565b600060208284031215610ed757610ed66108f7565b5b6000610ee584828501610eac565b91505092915050565b610ef781610c97565b82525050565b6000604082019050610f126000830185610c2a565b610f1f6020830184610eee565b9392505050565b7f4e487b7100000000000000000000000000000000000000000000000000000000600052603260045260246000fd5b600080fd5b600082356001608003833603038112610f7657610f75610f55565b5b80830191505092915050565b6000608082019050610f976000830187610c2a565b610fa46020830186610b15565b8181036040830152610fb68185610dc9565b90508181036060830152610fca8184610dc9565b905095945050505050565b6000606082019050610fea6000830186610c2a565b610ff76020830185610b15565b81810360408301526110098184610dc9565b9050949350505050565b600082825260208201905092915050565b7f4845584c30313400000000000000000000000000000000000000000000000000600082015250565b600061105a600783611013565b915061106582611024565b602082019050919050565b600060208201905081810360008301526110898161104d565b9050919050565b7f416464726573733a20696e73756666696369656e742062616c616e6365000000600082015250565b60006110c6601d83611013565b91506110d182611090565b602082019050919050565b600060208201905081810360008301526110f5816110b9565b9050919050565b600081905092915050565b50565b60006111176000836110fc565b915061112282611107565b600082019050919050565b60006111388261110a565b9150819050919050565b7f416464726573733a20756e61626c6520746f2073656e642076616c75652c207260008201527f6563697069656e74206d61792068617665207265766572746564000000000000602082015250565b600061119e603a83611013565b91506111a982611142565b604082019050919050565b600060208201905081810360008301526111cd81611191565b9050919050565b7f455243313136373a2063726561746532206661696c6564000000000000000000600082015250565b600061120a601783611013565b9150611215826111d4565b602082019050919050565b60006020820190508181036000830152611239816111fd565b9050919050565b7f416464726573733a20696e73756666696369656e742062616c616e636520666f60008201527f722063616c6c0000000000000000000000000000000000000000000000000000602082015250565b600061129c602683611013565b91506112a782611240565b604082019050919050565b600060208201905081810360008301526112cb8161128f565b9050919050565b600081519050919050565b60005b838110156112fb5780820151818401526020810190506112e0565b8381111561130a576000848401525b50505050565b600061131b826112d2565b61132581856110fc565b93506113358185602086016112dd565b80840191505092915050565b600061134d8284611310565b915081905092915050565b7f416464726573733a2063616c6c20746f206e6f6e2d636f6e7472616374000000600082015250565b600061138e601d83611013565b915061139982611358565b602082019050919050565b600060208201905081810360008301526113bd81611381565b9050919050565b600081519050919050565b60006113da826113c4565b6113e48185611013565b93506113f48185602086016112dd565b6113fd81610c59565b840191505092915050565b6000602082019050818103600083015261142281846113cf565b90509291505056fea2646970667358221220239f4f8f9373d7de6ee91c09b7d641a956bc1c8b02b94a9a448de1d2c059630b64736f6c63430008080033",
  "devdoc": {
    "kind": "dev",
    "methods": {},
    "version": 1
  },
  "userdoc": {
    "kind": "user",
    "methods": {},
    "version": 1
  },
  "storageLayout": {
    "storage": [],
    "types": null
  }
}