{
  "address": "0x6EE01972d1de97CEaB17bC43Bf77A161BCBDEB0C",
  "abi": [
    {
      "anonymous": false,
      "inputs": [
        {
          "indexed": true,
          "internalType": "address",
          "name": "owner",
          "type": "address"
        },
        {
          "indexed": true,
          "internalType": "address",
          "name": "approved",
          "type": "address"
        },
        {
          "indexed": true,
          "internalType": "uint256",
          "name": "tokenId",
          "type": "uint256"
        }
      ],
      "name": "Approval",
      "type": "event"
    },
    {
      "anonymous": false,
      "inputs": [
        {
          "indexed": true,
          "internalType": "address",
          "name": "owner",
          "type": "address"
        },
        {
          "indexed": true,
          "internalType": "address",
          "name": "operator",
          "type": "address"
        },
        {
          "indexed": false,
          "internalType": "bool",
          "name": "approved",
          "type": "bool"
        }
      ],
      "name": "ApprovalForAll",
      "type": "event"
    },
    {
      "anonymous": false,
      "inputs": [
        {
          "indexed": false,
          "internalType": "uint8",
          "name": "version",
          "type": "uint8"
        }
      ],
      "name": "Initialized",
      "type": "event"
    },
    {
      "anonymous": false,
      "inputs": [
        {
          "indexed": true,
          "internalType": "address",
          "name": "previousOwner",
          "type": "address"
        },
        {
          "indexed": true,
          "internalType": "address",
          "name": "newOwner",
          "type": "address"
        }
      ],
      "name": "OwnershipTransferred",
      "type": "event"
    },
    {
      "anonymous": false,
      "inputs": [
        {
          "indexed": true,
          "internalType": "address",
          "name": "from",
          "type": "address"
        },
        {
          "indexed": true,
          "internalType": "address",
          "name": "to",
          "type": "address"
        },
        {
          "indexed": true,
          "internalType": "uint256",
          "name": "tokenId",
          "type": "uint256"
        }
      ],
      "name": "Transfer",
      "type": "event"
    },
    {
      "inputs": [
        {
          "internalType": "address",
          "name": "to",
          "type": "address"
        },
        {
          "internalType": "uint256",
          "name": "tokenId",
          "type": "uint256"
        }
      ],
      "name": "approve",
      "outputs": [],
      "stateMutability": "nonpayable",
      "type": "function"
    },
    {
      "inputs": [
        {
          "internalType": "address",
          "name": "owner",
          "type": "address"
        }
      ],
      "name": "balanceOf",
      "outputs": [
        {
          "internalType": "uint256",
          "name": "",
          "type": "uint256"
        }
      ],
      "stateMutability": "view",
      "type": "function"
    },
    {
      "inputs": [],
      "name": "baseTokenURI",
      "outputs": [
        {
          "internalType": "string",
          "name": "",
          "type": "string"
        }
      ],
      "stateMutability": "view",
      "type": "function"
    },
    {
      "inputs": [
        {
          "internalType": "uint256",
          "name": "tokenId",
          "type": "uint256"
        }
      ],
      "name": "getApproved",
      "outputs": [
        {
          "internalType": "address",
          "name": "",
          "type": "address"
        }
      ],
      "stateMutability": "view",
      "type": "function"
    },
    {
      "inputs": [
        {
          "internalType": "string",
          "name": "name_",
          "type": "string"
        },
        {
          "internalType": "string",
          "name": "symbol_",
          "type": "string"
        },
        {
          "internalType": "string",
          "name": "baseTokenURI_",
          "type": "string"
        },
        {
          "internalType": "uint256",
          "name": "maxSupply_",
          "type": "uint256"
        },
        {
          "internalType": "address",
          "name": "validator_",
          "type": "address"
        },
        {
          "internalType": "bool",
          "name": "transferrable_",
          "type": "bool"
        }
      ],
      "name": "init",
      "outputs": [],
      "stateMutability": "nonpayable",
      "type": "function"
    },
    {
      "inputs": [
        {
          "internalType": "address",
          "name": "owner",
          "type": "address"
        },
        {
          "internalType": "address",
          "name": "operator",
          "type": "address"
        }
      ],
      "name": "isApprovedForAll",
      "outputs": [
        {
          "internalType": "bool",
          "name": "",
          "type": "bool"
        }
      ],
      "stateMutability": "view",
      "type": "function"
    },
    {
      "inputs": [],
      "name": "maxSupply",
      "outputs": [
        {
          "internalType": "uint256",
          "name": "",
          "type": "uint256"
        }
      ],
      "stateMutability": "view",
      "type": "function"
    },
    {
      "inputs": [
        {
          "internalType": "address",
          "name": "recipient",
          "type": "address"
        },
        {
          "internalType": "bytes",
          "name": "signature",
          "type": "bytes"
        }
      ],
      "name": "mint",
      "outputs": [
        {
          "internalType": "uint256",
          "name": "",
          "type": "uint256"
        }
      ],
      "stateMutability": "nonpayable",
      "type": "function"
    },
    {
      "inputs": [],
      "name": "name",
      "outputs": [
        {
          "internalType": "string",
          "name": "",
          "type": "string"
        }
      ],
      "stateMutability": "view",
      "type": "function"
    },
    {
      "inputs": [],
      "name": "owner",
      "outputs": [
        {
          "internalType": "address",
          "name": "",
          "type": "address"
        }
      ],
      "stateMutability": "view",
      "type": "function"
    },
    {
      "inputs": [
        {
          "internalType": "uint256",
          "name": "tokenId",
          "type": "uint256"
        }
      ],
      "name": "ownerOf",
      "outputs": [
        {
          "internalType": "address",
          "name": "",
          "type": "address"
        }
      ],
      "stateMutability": "view",
      "type": "function"
    },
    {
      "inputs": [],
      "name": "renounceOwnership",
      "outputs": [],
      "stateMutability": "nonpayable",
      "type": "function"
    },
    {
      "inputs": [
        {
          "internalType": "address",
          "name": "from",
          "type": "address"
        },
        {
          "internalType": "address",
          "name": "to",
          "type": "address"
        },
        {
          "internalType": "uint256",
          "name": "tokenId",
          "type": "uint256"
        }
      ],
      "name": "safeTransferFrom",
      "outputs": [],
      "stateMutability": "nonpayable",
      "type": "function"
    },
    {
      "inputs": [
        {
          "internalType": "address",
          "name": "from",
          "type": "address"
        },
        {
          "internalType": "address",
          "name": "to",
          "type": "address"
        },
        {
          "internalType": "uint256",
          "name": "tokenId",
          "type": "uint256"
        },
        {
          "internalType": "bytes",
          "name": "data",
          "type": "bytes"
        }
      ],
      "name": "safeTransferFrom",
      "outputs": [],
      "stateMutability": "nonpayable",
      "type": "function"
    },
    {
      "inputs": [
        {
          "internalType": "address",
          "name": "operator",
          "type": "address"
        },
        {
          "internalType": "bool",
          "name": "approved",
          "type": "bool"
        }
      ],
      "name": "setApprovalForAll",
      "outputs": [],
      "stateMutability": "nonpayable",
      "type": "function"
    },
    {
      "inputs": [
        {
          "internalType": "address",
          "name": "_validator",
          "type": "address"
        }
      ],
      "name": "setValidator",
      "outputs": [],
      "stateMutability": "nonpayable",
      "type": "function"
    },
    {
      "inputs": [
        {
          "internalType": "bytes4",
          "name": "interfaceId",
          "type": "bytes4"
        }
      ],
      "name": "supportsInterface",
      "outputs": [
        {
          "internalType": "bool",
          "name": "",
          "type": "bool"
        }
      ],
      "stateMutability": "view",
      "type": "function"
    },
    {
      "inputs": [],
      "name": "symbol",
      "outputs": [
        {
          "internalType": "string",
          "name": "",
          "type": "string"
        }
      ],
      "stateMutability": "view",
      "type": "function"
    },
    {
      "inputs": [],
      "name": "tokenId",
      "outputs": [
        {
          "internalType": "uint256",
          "name": "",
          "type": "uint256"
        }
      ],
      "stateMutability": "view",
      "type": "function"
    },
    {
      "inputs": [
        {
          "internalType": "uint256",
          "name": "",
          "type": "uint256"
        }
      ],
      "name": "tokenURI",
      "outputs": [
        {
          "internalType": "string",
          "name": "",
          "type": "string"
        }
      ],
      "stateMutability": "view",
      "type": "function"
    },
    {
      "inputs": [
        {
          "internalType": "address",
          "name": "from",
          "type": "address"
        },
        {
          "internalType": "address",
          "name": "to",
          "type": "address"
        },
        {
          "internalType": "uint256",
          "name": "tokenId",
          "type": "uint256"
        }
      ],
      "name": "transferFrom",
      "outputs": [],
      "stateMutability": "nonpayable",
      "type": "function"
    },
    {
      "inputs": [
        {
          "internalType": "address",
          "name": "newOwner",
          "type": "address"
        }
      ],
      "name": "transferOwnership",
      "outputs": [],
      "stateMutability": "nonpayable",
      "type": "function"
    },
    {
      "inputs": [],
      "name": "transferrable",
      "outputs": [
        {
          "internalType": "bool",
          "name": "",
          "type": "bool"
        }
      ],
      "stateMutability": "view",
      "type": "function"
    },
    {
      "inputs": [],
      "name": "validator",
      "outputs": [
        {
          "internalType": "address",
          "name": "",
          "type": "address"
        }
      ],
      "stateMutability": "view",
      "type": "function"
    },
    {
      "inputs": [],
      "name": "version",
      "outputs": [
        {
          "internalType": "uint256",
          "name": "",
          "type": "uint256"
        }
      ],
      "stateMutability": "pure",
      "type": "function"
    }
  ],
  "transactionHash": "0xa65fce4d7da593ceddda6a5b59f0983866331d83c6c7550e34a68ea888c5c6c1",
  "args": [],
  "numDeployments": 6,
  "solcInputHash": "fefa4041c78fbdb228394f70605e8226",
  "bytecode": "0x6080604052600060cb5534801561001557600080fd5b50613be3806100256000396000f3fe608060405234801561001057600080fd5b50600436106101735760003560e01c80636352211e116100de578063b510391f11610097578063d547cfb711610071578063d547cfb714610438578063d5abeb0114610456578063e985e9c514610474578063f2fde38b146104a457610173565b8063b510391f146103bc578063b88d4fde146103ec578063c87b56dd1461040857610173565b80636352211e146102fa57806370a082311461032a578063715018a61461035a5780638da5cb5b1461036457806395d89b4114610382578063a22cb465146103a057610173565b806317d70f7c1161013057806317d70f7c1461024c57806323b872dd1461026a578063248ec42e146102865780633a5381b5146102a257806342842e0e146102c057806354fd4d50146102dc57610173565b806301ffc9a714610178578063047a7ef1146101a857806306fdde03146101c6578063081812fc146101e4578063095ea7b3146102145780631327d3d814610230575b600080fd5b610192600480360381019061018d91906125b3565b6104c0565b60405161019f91906125fb565b60405180910390f35b6101b06105a2565b6040516101bd91906125fb565b60405180910390f35b6101ce6105b5565b6040516101db91906126af565b60405180910390f35b6101fe60048036038101906101f99190612707565b610647565b60405161020b9190612775565b60405180910390f35b61022e600480360381019061022991906127bc565b61068d565b005b61024a600480360381019061024591906127fc565b6107a5565b005b6102546107f1565b6040516102619190612838565b60405180910390f35b610284600480360381019061027f9190612853565b6107f7565b005b6102a0600480360381019061029b9190612a07565b610857565b005b6102aa610a1e565b6040516102b79190612775565b60405180910390f35b6102da60048036038101906102d59190612853565b610a44565b005b6102e4610a64565b6040516102f19190612838565b60405180910390f35b610314600480360381019061030f9190612707565b610a6d565b6040516103219190612775565b60405180910390f35b610344600480360381019061033f91906127fc565b610af4565b6040516103519190612838565b60405180910390f35b610362610bac565b005b61036c610bc0565b6040516103799190612775565b60405180910390f35b61038a610bea565b60405161039791906126af565b60405180910390f35b6103ba60048036038101906103b59190612ae8565b610c7c565b005b6103d660048036038101906103d19190612bc9565b610c92565b6040516103e39190612838565b60405180910390f35b61040660048036038101906104019190612c25565b610d1e565b005b610422600480360381019061041d9190612707565b610d80565b60405161042f91906126af565b60405180910390f35b610440610e14565b60405161044d91906126af565b60405180910390f35b61045e610ea2565b60405161046b9190612838565b60405180910390f35b61048e60048036038101906104899190612ca8565b610ea8565b60405161049b91906125fb565b60405180910390f35b6104be60048036038101906104b991906127fc565b610f3c565b005b60007f80ac58cd000000000000000000000000000000000000000000000000000000007bffffffffffffffffffffffffffffffffffffffffffffffffffffffff1916827bffffffffffffffffffffffffffffffffffffffffffffffffffffffff1916148061058b57507f5b5e139f000000000000000000000000000000000000000000000000000000007bffffffffffffffffffffffffffffffffffffffffffffffffffffffff1916827bffffffffffffffffffffffffffffffffffffffffffffffffffffffff1916145b8061059b575061059a82610fc0565b5b9050919050565b60cc60149054906101000a900460ff1681565b6060609780546105c490612d17565b80601f01602080910402602001604051908101604052809291908181526020018280546105f090612d17565b801561063d5780601f106106125761010080835404028352916020019161063d565b820191906000526020600020905b81548152906001019060200180831161062057829003601f168201915b5050505050905090565b60006106528261102a565b609b600083815260200190815260200160002060009054906101000a900473ffffffffffffffffffffffffffffffffffffffff169050919050565b600061069882610a6d565b90508073ffffffffffffffffffffffffffffffffffffffff168373ffffffffffffffffffffffffffffffffffffffff161415610709576040517f08c379a000000000000000000000000000000000000000000000000000000000815260040161070090612dbb565b60405180910390fd5b8073ffffffffffffffffffffffffffffffffffffffff16610728611075565b73ffffffffffffffffffffffffffffffffffffffff161480610757575061075681610751611075565b610ea8565b5b610796576040517f08c379a000000000000000000000000000000000000000000000000000000000815260040161078d90612e4d565b60405180910390fd5b6107a0838361107d565b505050565b6107ad611136565b8060cc60006101000a81548173ffffffffffffffffffffffffffffffffffffffff021916908373ffffffffffffffffffffffffffffffffffffffff16021790555050565b60cb5481565b610808610802611075565b826111b4565b610847576040517f08c379a000000000000000000000000000000000000000000000000000000000815260040161083e90612edf565b60405180910390fd5b610852838383611249565b505050565b60008060019054906101000a900460ff161590508080156108885750600160008054906101000a900460ff1660ff16105b806108b5575061089730611543565b1580156108b45750600160008054906101000a900460ff1660ff16145b5b6108f4576040517f08c379a00000000000000000000000000000000000000000000000000000000081526004016108eb90612f71565b60405180910390fd5b60016000806101000a81548160ff021916908360ff1602179055508015610931576001600060016101000a81548160ff0219169083151502179055505b61093b8787611566565b6109436115c3565b8360ca819055508260cc60006101000a81548173ffffffffffffffffffffffffffffffffffffffff021916908373ffffffffffffffffffffffffffffffffffffffff1602179055508460c990805190602001906109a19291906124a4565b508160cc60146101000a81548160ff0219169083151502179055508015610a155760008060016101000a81548160ff0219169083151502179055507f7f26b83ff96e1f2b6a682f133852f6798a09c465da95921460cefb38474024986001604051610a0c9190612fe3565b60405180910390a15b50505050505050565b60cc60009054906101000a900473ffffffffffffffffffffffffffffffffffffffff1681565b610a5f83838360405180602001604052806000815250610d1e565b505050565b60006001905090565b600080610a798361161c565b9050600073ffffffffffffffffffffffffffffffffffffffff168173ffffffffffffffffffffffffffffffffffffffff161415610aeb576040517f08c379a0000000000000000000000000000000000000000000000000000000008152600401610ae29061304a565b60405180910390fd5b80915050919050565b60008073ffffffffffffffffffffffffffffffffffffffff168273ffffffffffffffffffffffffffffffffffffffff161415610b65576040517f08c379a0000000000000000000000000000000000000000000000000000000008152600401610b5c906130dc565b60405180910390fd5b609a60008373ffffffffffffffffffffffffffffffffffffffff1673ffffffffffffffffffffffffffffffffffffffff168152602001908152602001600020549050919050565b610bb4611136565b610bbe6000611659565b565b6000603360009054906101000a900473ffffffffffffffffffffffffffffffffffffffff16905090565b606060988054610bf990612d17565b80601f0160208091040260200160405190810160405280929190818152602001828054610c2590612d17565b8015610c725780601f10610c4757610100808354040283529160200191610c72565b820191906000526020600020905b815481529060010190602001808311610c5557829003601f168201915b5050505050905090565b610c8e610c87611075565b838361171f565b5050565b6000600160cb6000828254610ca7919061312b565b9250508190555060ca5460cb541115610cf5576040517f08c379a0000000000000000000000000000000000000000000000000000000008152600401610cec906131cd565b60405180910390fd5b610cff838361188c565b610d07611970565b610d138360cb54611a4b565b60cb54905092915050565b610d2f610d29611075565b836111b4565b610d6e576040517f08c379a0000000000000000000000000000000000000000000000000000000008152600401610d6590612edf565b60405180910390fd5b610d7a84848484611a69565b50505050565b606060c98054610d8f90612d17565b80601f0160208091040260200160405190810160405280929190818152602001828054610dbb90612d17565b8015610e085780601f10610ddd57610100808354040283529160200191610e08565b820191906000526020600020905b815481529060010190602001808311610deb57829003601f168201915b50505050509050919050565b60c98054610e2190612d17565b80601f0160208091040260200160405190810160405280929190818152602001828054610e4d90612d17565b8015610e9a5780601f10610e6f57610100808354040283529160200191610e9a565b820191906000526020600020905b815481529060010190602001808311610e7d57829003601f168201915b505050505081565b60ca5481565b6000609c60008473ffffffffffffffffffffffffffffffffffffffff1673ffffffffffffffffffffffffffffffffffffffff16815260200190815260200160002060008373ffffffffffffffffffffffffffffffffffffffff1673ffffffffffffffffffffffffffffffffffffffff16815260200190815260200160002060009054906101000a900460ff16905092915050565b610f44611136565b600073ffffffffffffffffffffffffffffffffffffffff168173ffffffffffffffffffffffffffffffffffffffff161415610fb4576040517f08c379a0000000000000000000000000000000000000000000000000000000008152600401610fab9061325f565b60405180910390fd5b610fbd81611659565b50565b60007f01ffc9a7000000000000000000000000000000000000000000000000000000007bffffffffffffffffffffffffffffffffffffffffffffffffffffffff1916827bffffffffffffffffffffffffffffffffffffffffffffffffffffffff1916149050919050565b61103381611ac5565b611072576040517f08c379a00000000000000000000000000000000000000000000000000000000081526004016110699061304a565b60405180910390fd5b50565b600033905090565b81609b600083815260200190815260200160002060006101000a81548173ffffffffffffffffffffffffffffffffffffffff021916908373ffffffffffffffffffffffffffffffffffffffff160217905550808273ffffffffffffffffffffffffffffffffffffffff166110f083610a6d565b73ffffffffffffffffffffffffffffffffffffffff167f8c5be1e5ebec7d5bd14f71427d1e84f3dd0314c0f7b2291e5b200ac8c7c3b92560405160405180910390a45050565b61113e611075565b73ffffffffffffffffffffffffffffffffffffffff1661115c610bc0565b73ffffffffffffffffffffffffffffffffffffffff16146111b2576040517f08c379a00000000000000000000000000000000000000000000000000000000081526004016111a9906132cb565b60405180910390fd5b565b6000806111c083610a6d565b90508073ffffffffffffffffffffffffffffffffffffffff168473ffffffffffffffffffffffffffffffffffffffff16148061120257506112018185610ea8565b5b8061124057508373ffffffffffffffffffffffffffffffffffffffff1661122884610647565b73ffffffffffffffffffffffffffffffffffffffff16145b91505092915050565b8273ffffffffffffffffffffffffffffffffffffffff1661126982610a6d565b73ffffffffffffffffffffffffffffffffffffffff16146112bf576040517f08c379a00000000000000000000000000000000000000000000000000000000081526004016112b69061335d565b60405180910390fd5b600073ffffffffffffffffffffffffffffffffffffffff168273ffffffffffffffffffffffffffffffffffffffff16141561132f576040517f08c379a0000000000000000000000000000000000000000000000000000000008152600401611326906133ef565b60405180910390fd5b61133c8383836001611b06565b8273ffffffffffffffffffffffffffffffffffffffff1661135c82610a6d565b73ffffffffffffffffffffffffffffffffffffffff16146113b2576040517f08c379a00000000000000000000000000000000000000000000000000000000081526004016113a99061335d565b60405180910390fd5b609b600082815260200190815260200160002060006101000a81549073ffffffffffffffffffffffffffffffffffffffff02191690556001609a60008573ffffffffffffffffffffffffffffffffffffffff1673ffffffffffffffffffffffffffffffffffffffff168152602001908152602001600020600082825403925050819055506001609a60008473ffffffffffffffffffffffffffffffffffffffff1673ffffffffffffffffffffffffffffffffffffffff16815260200190815260200160002060008282540192505081905550816099600083815260200190815260200160002060006101000a81548173ffffffffffffffffffffffffffffffffffffffff021916908373ffffffffffffffffffffffffffffffffffffffff160217905550808273ffffffffffffffffffffffffffffffffffffffff168473ffffffffffffffffffffffffffffffffffffffff167fddf252ad1be2c89b69c2b068fc378daa952ba7f163c4a11628f55a4df523b3ef60405160405180910390a461153e8383836001611c2c565b505050565b6000808273ffffffffffffffffffffffffffffffffffffffff163b119050919050565b600060019054906101000a900460ff166115b5576040517f08c379a00000000000000000000000000000000000000000000000000000000081526004016115ac90613481565b60405180910390fd5b6115bf8282611cb8565b5050565b600060019054906101000a900460ff16611612576040517f08c379a000000000000000000000000000000000000000000000000000000000815260040161160990613481565b60405180910390fd5b61161a611d39565b565b60006099600083815260200190815260200160002060009054906101000a900473ffffffffffffffffffffffffffffffffffffffff169050919050565b6000603360009054906101000a900473ffffffffffffffffffffffffffffffffffffffff16905081603360006101000a81548173ffffffffffffffffffffffffffffffffffffffff021916908373ffffffffffffffffffffffffffffffffffffffff1602179055508173ffffffffffffffffffffffffffffffffffffffff168173ffffffffffffffffffffffffffffffffffffffff167f8be0079c531659141344cd1fd0a4f28419497f9722a3daafe3b4186f6b6457e060405160405180910390a35050565b8173ffffffffffffffffffffffffffffffffffffffff168373ffffffffffffffffffffffffffffffffffffffff16141561178e576040517f08c379a0000000000000000000000000000000000000000000000000000000008152600401611785906134ed565b60405180910390fd5b80609c60008573ffffffffffffffffffffffffffffffffffffffff1673ffffffffffffffffffffffffffffffffffffffff16815260200190815260200160002060008473ffffffffffffffffffffffffffffffffffffffff1673ffffffffffffffffffffffffffffffffffffffff16815260200190815260200160002060006101000a81548160ff0219169083151502179055508173ffffffffffffffffffffffffffffffffffffffff168373ffffffffffffffffffffffffffffffffffffffff167f17307eab39ab6107e8899845ad3d59bd9653f200f220920489ca2b5937696c318360405161187f91906125fb565b60405180910390a3505050565b60004630846040516020016118a39392919061350d565b60405160208183030381529060405280519060200120905060006118c682611d9a565b90506118db8382611dca90919063ffffffff16565b73ffffffffffffffffffffffffffffffffffffffff1660cc60009054906101000a900473ffffffffffffffffffffffffffffffffffffffff1673ffffffffffffffffffffffffffffffffffffffff161461196a576040517f08c379a000000000000000000000000000000000000000000000000000000000815260040161196190613590565b60405180910390fd5b50505050565b600060cd60003373ffffffffffffffffffffffffffffffffffffffff1673ffffffffffffffffffffffffffffffffffffffff16815260200190815260200160002054146119f2576040517f08c379a00000000000000000000000000000000000000000000000000000000081526004016119e9906135fc565b60405180910390fd5b600160cd60003373ffffffffffffffffffffffffffffffffffffffff1673ffffffffffffffffffffffffffffffffffffffff1681526020019081526020016000206000828254611a42919061312b565b92505081905550565b611a65828260405180602001604052806000815250611df1565b5050565b611a74848484611249565b611a8084848484611e4c565b611abf576040517f08c379a0000000000000000000000000000000000000000000000000000000008152600401611ab69061368e565b60405180910390fd5b50505050565b60008073ffffffffffffffffffffffffffffffffffffffff16611ae78361161c565b73ffffffffffffffffffffffffffffffffffffffff1614159050919050565b6001811115611c2657600073ffffffffffffffffffffffffffffffffffffffff168473ffffffffffffffffffffffffffffffffffffffff1614611b9a5780609a60008673ffffffffffffffffffffffffffffffffffffffff1673ffffffffffffffffffffffffffffffffffffffff1681526020019081526020016000206000828254611b9291906136ae565b925050819055505b600073ffffffffffffffffffffffffffffffffffffffff168373ffffffffffffffffffffffffffffffffffffffff1614611c255780609a60008573ffffffffffffffffffffffffffffffffffffffff1673ffffffffffffffffffffffffffffffffffffffff1681526020019081526020016000206000828254611c1d919061312b565b925050819055505b5b50505050565b600073ffffffffffffffffffffffffffffffffffffffff168473ffffffffffffffffffffffffffffffffffffffff161480611c73575060cc60149054906101000a900460ff165b611cb2576040517f08c379a0000000000000000000000000000000000000000000000000000000008152600401611ca99061372e565b60405180910390fd5b50505050565b600060019054906101000a900460ff16611d07576040517f08c379a0000000000000000000000000000000000000000000000000000000008152600401611cfe90613481565b60405180910390fd5b8160979080519060200190611d1d9291906124a4565b508060989080519060200190611d349291906124a4565b505050565b600060019054906101000a900460ff16611d88576040517f08c379a0000000000000000000000000000000000000000000000000000000008152600401611d7f90613481565b60405180910390fd5b611d98611d93611075565b611659565b565b600081604051602001611dad91906137d0565b604051602081830303815290604052805190602001209050919050565b6000806000611dd98585611fe3565b91509150611de681612035565b819250505092915050565b611dfb83836121a3565b611e086000848484611e4c565b611e47576040517f08c379a0000000000000000000000000000000000000000000000000000000008152600401611e3e9061368e565b60405180910390fd5b505050565b6000611e6d8473ffffffffffffffffffffffffffffffffffffffff16611543565b15611fd6578373ffffffffffffffffffffffffffffffffffffffff1663150b7a02611e96611075565b8786866040518563ffffffff1660e01b8152600401611eb8949392919061384b565b602060405180830381600087803b158015611ed257600080fd5b505af1925050508015611f0357506040513d601f19601f82011682018060405250810190611f0091906138ac565b60015b611f86573d8060008114611f33576040519150601f19603f3d011682016040523d82523d6000602084013e611f38565b606091505b50600081511415611f7e576040517f08c379a0000000000000000000000000000000000000000000000000000000008152600401611f759061368e565b60405180910390fd5b805181602001fd5b63150b7a0260e01b7bffffffffffffffffffffffffffffffffffffffffffffffffffffffff1916817bffffffffffffffffffffffffffffffffffffffffffffffffffffffff191614915050611fdb565b600190505b949350505050565b6000806041835114156120255760008060006020860151925060408601519150606086015160001a9050612019878285856123c1565b9450945050505061202e565b60006002915091505b9250929050565b60006004811115612049576120486138d9565b5b81600481111561205c5761205b6138d9565b5b1415612067576121a0565b6001600481111561207b5761207a6138d9565b5b81600481111561208e5761208d6138d9565b5b14156120cf576040517f08c379a00000000000000000000000000000000000000000000000000000000081526004016120c690613954565b60405180910390fd5b600260048111156120e3576120e26138d9565b5b8160048111156120f6576120f56138d9565b5b1415612137576040517f08c379a000000000000000000000000000000000000000000000000000000000815260040161212e906139c0565b60405180910390fd5b6003600481111561214b5761214a6138d9565b5b81600481111561215e5761215d6138d9565b5b141561219f576040517f08c379a000000000000000000000000000000000000000000000000000000000815260040161219690613a52565b60405180910390fd5b5b50565b600073ffffffffffffffffffffffffffffffffffffffff168273ffffffffffffffffffffffffffffffffffffffff161415612213576040517f08c379a000000000000000000000000000000000000000000000000000000000815260040161220a90613abe565b60405180910390fd5b61221c81611ac5565b1561225c576040517f08c379a000000000000000000000000000000000000000000000000000000000815260040161225390613b2a565b60405180910390fd5b61226a600083836001611b06565b61227381611ac5565b156122b3576040517f08c379a00000000000000000000000000000000000000000000000000000000081526004016122aa90613b2a565b60405180910390fd5b6001609a60008473ffffffffffffffffffffffffffffffffffffffff1673ffffffffffffffffffffffffffffffffffffffff16815260200190815260200160002060008282540192505081905550816099600083815260200190815260200160002060006101000a81548173ffffffffffffffffffffffffffffffffffffffff021916908373ffffffffffffffffffffffffffffffffffffffff160217905550808273ffffffffffffffffffffffffffffffffffffffff16600073ffffffffffffffffffffffffffffffffffffffff167fddf252ad1be2c89b69c2b068fc378daa952ba7f163c4a11628f55a4df523b3ef60405160405180910390a46123bd600083836001611c2c565b5050565b6000807f7fffffffffffffffffffffffffffffff5d576e7357a4501ddfe92f46681b20a08360001c11156123fc57600060039150915061249b565b6000600187878787604051600081526020016040526040516124219493929190613b68565b6020604051602081039080840390855afa158015612443573d6000803e3d6000fd5b505050602060405103519050600073ffffffffffffffffffffffffffffffffffffffff168173ffffffffffffffffffffffffffffffffffffffff1614156124925760006001925092505061249b565b80600092509250505b94509492505050565b8280546124b090612d17565b90600052602060002090601f0160209004810192826124d25760008555612519565b82601f106124eb57805160ff1916838001178555612519565b82800160010185558215612519579182015b828111156125185782518255916020019190600101906124fd565b5b509050612526919061252a565b5090565b5b8082111561254357600081600090555060010161252b565b5090565b6000604051905090565b600080fd5b600080fd5b60007fffffffff0000000000000000000000000000000000000000000000000000000082169050919050565b6125908161255b565b811461259b57600080fd5b50565b6000813590506125ad81612587565b92915050565b6000602082840312156125c9576125c8612551565b5b60006125d78482850161259e565b91505092915050565b60008115159050919050565b6125f5816125e0565b82525050565b600060208201905061261060008301846125ec565b92915050565b600081519050919050565b600082825260208201905092915050565b60005b83811015612650578082015181840152602081019050612635565b8381111561265f576000848401525b50505050565b6000601f19601f8301169050919050565b600061268182612616565b61268b8185612621565b935061269b818560208601612632565b6126a481612665565b840191505092915050565b600060208201905081810360008301526126c98184612676565b905092915050565b6000819050919050565b6126e4816126d1565b81146126ef57600080fd5b50565b600081359050612701816126db565b92915050565b60006020828403121561271d5761271c612551565b5b600061272b848285016126f2565b91505092915050565b600073ffffffffffffffffffffffffffffffffffffffff82169050919050565b600061275f82612734565b9050919050565b61276f81612754565b82525050565b600060208201905061278a6000830184612766565b92915050565b61279981612754565b81146127a457600080fd5b50565b6000813590506127b681612790565b92915050565b600080604083850312156127d3576127d2612551565b5b60006127e1858286016127a7565b92505060206127f2858286016126f2565b9150509250929050565b60006020828403121561281257612811612551565b5b6000612820848285016127a7565b91505092915050565b612832816126d1565b82525050565b600060208201905061284d6000830184612829565b92915050565b60008060006060848603121561286c5761286b612551565b5b600061287a868287016127a7565b935050602061288b868287016127a7565b925050604061289c868287016126f2565b9150509250925092565b600080fd5b600080fd5b7f4e487b7100000000000000000000000000000000000000000000000000000000600052604160045260246000fd5b6128e882612665565b810181811067ffffffffffffffff82111715612907576129066128b0565b5b80604052505050565b600061291a612547565b905061292682826128df565b919050565b600067ffffffffffffffff821115612946576129456128b0565b5b61294f82612665565b9050602081019050919050565b82818337600083830152505050565b600061297e6129798461292b565b612910565b90508281526020810184848401111561299a576129996128ab565b5b6129a584828561295c565b509392505050565b600082601f8301126129c2576129c16128a6565b5b81356129d284826020860161296b565b91505092915050565b6129e4816125e0565b81146129ef57600080fd5b50565b600081359050612a01816129db565b92915050565b60008060008060008060c08789031215612a2457612a23612551565b5b600087013567ffffffffffffffff811115612a4257612a41612556565b5b612a4e89828a016129ad565b965050602087013567ffffffffffffffff811115612a6f57612a6e612556565b5b612a7b89828a016129ad565b955050604087013567ffffffffffffffff811115612a9c57612a9b612556565b5b612aa889828a016129ad565b9450506060612ab989828a016126f2565b9350506080612aca89828a016127a7565b92505060a0612adb89828a016129f2565b9150509295509295509295565b60008060408385031215612aff57612afe612551565b5b6000612b0d858286016127a7565b9250506020612b1e858286016129f2565b9150509250929050565b600067ffffffffffffffff821115612b4357612b426128b0565b5b612b4c82612665565b9050602081019050919050565b6000612b6c612b6784612b28565b612910565b905082815260208101848484011115612b8857612b876128ab565b5b612b9384828561295c565b509392505050565b600082601f830112612bb057612baf6128a6565b5b8135612bc0848260208601612b59565b91505092915050565b60008060408385031215612be057612bdf612551565b5b6000612bee858286016127a7565b925050602083013567ffffffffffffffff811115612c0f57612c0e612556565b5b612c1b85828601612b9b565b9150509250929050565b60008060008060808587031215612c3f57612c3e612551565b5b6000612c4d878288016127a7565b9450506020612c5e878288016127a7565b9350506040612c6f878288016126f2565b925050606085013567ffffffffffffffff811115612c9057612c8f612556565b5b612c9c87828801612b9b565b91505092959194509250565b60008060408385031215612cbf57612cbe612551565b5b6000612ccd858286016127a7565b9250506020612cde858286016127a7565b9150509250929050565b7f4e487b7100000000000000000000000000000000000000000000000000000000600052602260045260246000fd5b60006002820490506001821680612d2f57607f821691505b60208210811415612d4357612d42612ce8565b5b50919050565b7f4552433732313a20617070726f76616c20746f2063757272656e74206f776e6560008201527f7200000000000000000000000000000000000000000000000000000000000000602082015250565b6000612da5602183612621565b9150612db082612d49565b604082019050919050565b60006020820190508181036000830152612dd481612d98565b9050919050565b7f4552433732313a20617070726f76652063616c6c6572206973206e6f7420746f60008201527f6b656e206f776e6572206f7220617070726f76656420666f7220616c6c000000602082015250565b6000612e37603d83612621565b9150612e4282612ddb565b604082019050919050565b60006020820190508181036000830152612e6681612e2a565b9050919050565b7f4552433732313a2063616c6c6572206973206e6f7420746f6b656e206f776e6560008201527f72206f7220617070726f76656400000000000000000000000000000000000000602082015250565b6000612ec9602d83612621565b9150612ed482612e6d565b604082019050919050565b60006020820190508181036000830152612ef881612ebc565b9050919050565b7f496e697469616c697a61626c653a20636f6e747261637420697320616c72656160008201527f647920696e697469616c697a6564000000000000000000000000000000000000602082015250565b6000612f5b602e83612621565b9150612f6682612eff565b604082019050919050565b60006020820190508181036000830152612f8a81612f4e565b9050919050565b6000819050919050565b600060ff82169050919050565b6000819050919050565b6000612fcd612fc8612fc384612f91565b612fa8565b612f9b565b9050919050565b612fdd81612fb2565b82525050565b6000602082019050612ff86000830184612fd4565b92915050565b7f4552433732313a20696e76616c696420746f6b656e2049440000000000000000600082015250565b6000613034601883612621565b915061303f82612ffe565b602082019050919050565b6000602082019050818103600083015261306381613027565b9050919050565b7f4552433732313a2061646472657373207a65726f206973206e6f74206120766160008201527f6c6964206f776e65720000000000000000000000000000000000000000000000602082015250565b60006130c6602983612621565b91506130d18261306a565b604082019050919050565b600060208201905081810360008301526130f5816130b9565b9050919050565b7f4e487b7100000000000000000000000000000000000000000000000000000000600052601160045260246000fd5b6000613136826126d1565b9150613141836126d1565b9250827fffffffffffffffffffffffffffffffffffffffffffffffffffffffffffffffff03821115613176576131756130fc565b5b828201905092915050565b7f457863656564696e67206d617820737570706c79000000000000000000000000600082015250565b60006131b7601483612621565b91506131c282613181565b602082019050919050565b600060208201905081810360008301526131e6816131aa565b9050919050565b7f4f776e61626c653a206e6577206f776e657220697320746865207a65726f206160008201527f6464726573730000000000000000000000000000000000000000000000000000602082015250565b6000613249602683612621565b9150613254826131ed565b604082019050919050565b600060208201905081810360008301526132788161323c565b9050919050565b7f4f776e61626c653a2063616c6c6572206973206e6f7420746865206f776e6572600082015250565b60006132b5602083612621565b91506132c08261327f565b602082019050919050565b600060208201905081810360008301526132e4816132a8565b9050919050565b7f4552433732313a207472616e736665722066726f6d20696e636f72726563742060008201527f6f776e6572000000000000000000000000000000000000000000000000000000602082015250565b6000613347602583612621565b9150613352826132eb565b604082019050919050565b600060208201905081810360008301526133768161333a565b9050919050565b7f4552433732313a207472616e7366657220746f20746865207a65726f2061646460008201527f7265737300000000000000000000000000000000000000000000000000000000602082015250565b60006133d9602483612621565b91506133e48261337d565b604082019050919050565b60006020820190508181036000830152613408816133cc565b9050919050565b7f496e697469616c697a61626c653a20636f6e7472616374206973206e6f74206960008201527f6e697469616c697a696e67000000000000000000000000000000000000000000602082015250565b600061346b602b83612621565b91506134768261340f565b604082019050919050565b6000602082019050818103600083015261349a8161345e565b9050919050565b7f4552433732313a20617070726f766520746f2063616c6c657200000000000000600082015250565b60006134d7601983612621565b91506134e2826134a1565b602082019050919050565b60006020820190508181036000830152613506816134ca565b9050919050565b60006060820190506135226000830186612829565b61352f6020830185612766565b61353c6040830184612766565b949350505050565b7f696e76616c6964207369676e6174757265000000000000000000000000000000600082015250565b600061357a601183612621565b915061358582613544565b602082019050919050565b600060208201905081810360008301526135a98161356d565b9050919050565b7f416c7265616479206d696e746564000000000000000000000000000000000000600082015250565b60006135e6600e83612621565b91506135f1826135b0565b602082019050919050565b60006020820190508181036000830152613615816135d9565b9050919050565b7f4552433732313a207472616e7366657220746f206e6f6e20455243373231526560008201527f63656976657220696d706c656d656e7465720000000000000000000000000000602082015250565b6000613678603283612621565b91506136838261361c565b604082019050919050565b600060208201905081810360008301526136a78161366b565b9050919050565b60006136b9826126d1565b91506136c4836126d1565b9250828210156136d7576136d66130fc565b5b828203905092915050565b7f5472616e73666572206e6f7420616c6c6f776564000000000000000000000000600082015250565b6000613718601483612621565b9150613723826136e2565b602082019050919050565b600060208201905081810360008301526137478161370b565b9050919050565b600081905092915050565b7f19457468657265756d205369676e6564204d6573736167653a0a333200000000600082015250565b600061378f601c8361374e565b915061379a82613759565b601c82019050919050565b6000819050919050565b6000819050919050565b6137ca6137c5826137a5565b6137af565b82525050565b60006137db82613782565b91506137e782846137b9565b60208201915081905092915050565b600081519050919050565b600082825260208201905092915050565b600061381d826137f6565b6138278185613801565b9350613837818560208601612632565b61384081612665565b840191505092915050565b60006080820190506138606000830187612766565b61386d6020830186612766565b61387a6040830185612829565b818103606083015261388c8184613812565b905095945050505050565b6000815190506138a681612587565b92915050565b6000602082840312156138c2576138c1612551565b5b60006138d084828501613897565b91505092915050565b7f4e487b7100000000000000000000000000000000000000000000000000000000600052602160045260246000fd5b7f45434453413a20696e76616c6964207369676e61747572650000000000000000600082015250565b600061393e601883612621565b915061394982613908565b602082019050919050565b6000602082019050818103600083015261396d81613931565b9050919050565b7f45434453413a20696e76616c6964207369676e6174757265206c656e67746800600082015250565b60006139aa601f83612621565b91506139b582613974565b602082019050919050565b600060208201905081810360008301526139d98161399d565b9050919050565b7f45434453413a20696e76616c6964207369676e6174757265202773272076616c60008201527f7565000000000000000000000000000000000000000000000000000000000000602082015250565b6000613a3c602283612621565b9150613a47826139e0565b604082019050919050565b60006020820190508181036000830152613a6b81613a2f565b9050919050565b7f4552433732313a206d696e7420746f20746865207a65726f2061646472657373600082015250565b6000613aa8602083612621565b9150613ab382613a72565b602082019050919050565b60006020820190508181036000830152613ad781613a9b565b9050919050565b7f4552433732313a20746f6b656e20616c7265616479206d696e74656400000000600082015250565b6000613b14601c83612621565b9150613b1f82613ade565b602082019050919050565b60006020820190508181036000830152613b4381613b07565b9050919050565b613b53816137a5565b82525050565b613b6281612f9b565b82525050565b6000608082019050613b7d6000830187613b4a565b613b8a6020830186613b59565b613b976040830185613b4a565b613ba46060830184613b4a565b9594505050505056fea26469706673582212204c9808bea4837ef5003f9fb1bb15224718e4dd6d3b493b0e57f52af3911871a864736f6c63430008080033",
  "devdoc": {
    "kind": "dev",
    "methods": {
      "approve(address,uint256)": {
        "details": "See {IERC721-approve}."
      },
      "balanceOf(address)": {
        "details": "See {IERC721-balanceOf}."
      },
      "getApproved(uint256)": {
        "details": "See {IERC721-getApproved}."
      },
      "isApprovedForAll(address,address)": {
        "details": "See {IERC721-isApprovedForAll}."
      },
      "name()": {
        "details": "See {IERC721Metadata-name}."
      },
      "owner()": {
        "details": "Returns the address of the current owner."
      },
      "ownerOf(uint256)": {
        "details": "See {IERC721-ownerOf}."
      },
      "renounceOwnership()": {
        "details": "Leaves the contract without owner. It will not be possible to call `onlyOwner` functions anymore. Can only be called by the current owner. NOTE: Renouncing ownership will leave the contract without an owner, thereby removing any functionality that is only available to the owner."
      },
      "safeTransferFrom(address,address,uint256)": {
        "details": "See {IERC721-safeTransferFrom}."
      },
      "safeTransferFrom(address,address,uint256,bytes)": {
        "details": "See {IERC721-safeTransferFrom}."
      },
      "setApprovalForAll(address,bool)": {
        "details": "See {IERC721-setApprovalForAll}."
      },
      "supportsInterface(bytes4)": {
        "details": "See {IERC165-supportsInterface}."
      },
      "symbol()": {
        "details": "See {IERC721Metadata-symbol}."
      },
      "transferFrom(address,address,uint256)": {
        "details": "See {IERC721-transferFrom}."
      },
      "transferOwnership(address)": {
        "details": "Transfers ownership of the contract to a new account (`newOwner`). Can only be called by the current owner."
      }
    },
    "version": 1
  },
  "userdoc": {
    "kind": "user",
    "methods": {},
    "version": 1
  },
  "storageLayout": {
    "storage": [
      {
        "astId": 138,
        "contract": "contracts/tokens/HexlinkErc721.sol:HexlinkErc721",
        "label": "_initialized",
        "offset": 0,
        "slot": "0",
        "type": "t_uint8"
      },
      {
        "astId": 141,
        "contract": "contracts/tokens/HexlinkErc721.sol:HexlinkErc721",
        "label": "_initializing",
        "offset": 1,
        "slot": "0",
        "type": "t_bool"
      },
      {
        "astId": 1756,
        "contract": "contracts/tokens/HexlinkErc721.sol:HexlinkErc721",
        "label": "__gap",
        "offset": 0,
        "slot": "1",
        "type": "t_array(t_uint256)50_storage"
      },
      {
        "astId": 10,
        "contract": "contracts/tokens/HexlinkErc721.sol:HexlinkErc721",
        "label": "_owner",
        "offset": 0,
        "slot": "51",
        "type": "t_address"
      },
      {
        "astId": 130,
        "contract": "contracts/tokens/HexlinkErc721.sol:HexlinkErc721",
        "label": "__gap",
        "offset": 0,
        "slot": "52",
        "type": "t_array(t_uint256)49_storage"
      },
      {
        "astId": 1975,
        "contract": "contracts/tokens/HexlinkErc721.sol:HexlinkErc721",
        "label": "__gap",
        "offset": 0,
        "slot": "101",
        "type": "t_array(t_uint256)50_storage"
      },
      {
        "astId": 329,
        "contract": "contracts/tokens/HexlinkErc721.sol:HexlinkErc721",
        "label": "_name",
        "offset": 0,
        "slot": "151",
        "type": "t_string_storage"
      },
      {
        "astId": 331,
        "contract": "contracts/tokens/HexlinkErc721.sol:HexlinkErc721",
        "label": "_symbol",
        "offset": 0,
        "slot": "152",
        "type": "t_string_storage"
      },
      {
        "astId": 335,
        "contract": "contracts/tokens/HexlinkErc721.sol:HexlinkErc721",
        "label": "_owners",
        "offset": 0,
        "slot": "153",
        "type": "t_mapping(t_uint256,t_address)"
      },
      {
        "astId": 339,
        "contract": "contracts/tokens/HexlinkErc721.sol:HexlinkErc721",
        "label": "_balances",
        "offset": 0,
        "slot": "154",
        "type": "t_mapping(t_address,t_uint256)"
      },
      {
        "astId": 343,
        "contract": "contracts/tokens/HexlinkErc721.sol:HexlinkErc721",
        "label": "_tokenApprovals",
        "offset": 0,
        "slot": "155",
        "type": "t_mapping(t_uint256,t_address)"
      },
      {
        "astId": 349,
        "contract": "contracts/tokens/HexlinkErc721.sol:HexlinkErc721",
        "label": "_operatorApprovals",
        "offset": 0,
        "slot": "156",
        "type": "t_mapping(t_address,t_mapping(t_address,t_bool))"
      },
      {
        "astId": 1269,
        "contract": "contracts/tokens/HexlinkErc721.sol:HexlinkErc721",
        "label": "__gap",
        "offset": 0,
        "slot": "157",
        "type": "t_array(t_uint256)44_storage"
      },
      {
        "astId": 6008,
        "contract": "contracts/tokens/HexlinkErc721.sol:HexlinkErc721",
        "label": "baseTokenURI",
        "offset": 0,
        "slot": "201",
        "type": "t_string_storage"
      },
      {
        "astId": 6010,
        "contract": "contracts/tokens/HexlinkErc721.sol:HexlinkErc721",
        "label": "maxSupply",
        "offset": 0,
        "slot": "202",
        "type": "t_uint256"
      },
      {
        "astId": 6013,
        "contract": "contracts/tokens/HexlinkErc721.sol:HexlinkErc721",
        "label": "tokenId",
        "offset": 0,
        "slot": "203",
        "type": "t_uint256"
      },
      {
        "astId": 6015,
        "contract": "contracts/tokens/HexlinkErc721.sol:HexlinkErc721",
        "label": "validator",
        "offset": 0,
        "slot": "204",
        "type": "t_address"
      },
      {
        "astId": 6017,
        "contract": "contracts/tokens/HexlinkErc721.sol:HexlinkErc721",
        "label": "transferrable",
        "offset": 20,
        "slot": "204",
        "type": "t_bool"
      },
      {
        "astId": 6021,
        "contract": "contracts/tokens/HexlinkErc721.sol:HexlinkErc721",
        "label": "minted_",
        "offset": 0,
        "slot": "205",
        "type": "t_mapping(t_address,t_uint256)"
      }
    ],
    "types": {
      "t_address": {
        "encoding": "inplace",
        "label": "address",
        "numberOfBytes": "20"
      },
      "t_array(t_uint256)44_storage": {
        "base": "t_uint256",
        "encoding": "inplace",
        "label": "uint256[44]",
        "numberOfBytes": "1408"
      },
      "t_array(t_uint256)49_storage": {
        "base": "t_uint256",
        "encoding": "inplace",
        "label": "uint256[49]",
        "numberOfBytes": "1568"
      },
      "t_array(t_uint256)50_storage": {
        "base": "t_uint256",
        "encoding": "inplace",
        "label": "uint256[50]",
        "numberOfBytes": "1600"
      },
      "t_bool": {
        "encoding": "inplace",
        "label": "bool",
        "numberOfBytes": "1"
      },
      "t_mapping(t_address,t_bool)": {
        "encoding": "mapping",
        "key": "t_address",
        "label": "mapping(address => bool)",
        "numberOfBytes": "32",
        "value": "t_bool"
      },
      "t_mapping(t_address,t_mapping(t_address,t_bool))": {
        "encoding": "mapping",
        "key": "t_address",
        "label": "mapping(address => mapping(address => bool))",
        "numberOfBytes": "32",
        "value": "t_mapping(t_address,t_bool)"
      },
      "t_mapping(t_address,t_uint256)": {
        "encoding": "mapping",
        "key": "t_address",
        "label": "mapping(address => uint256)",
        "numberOfBytes": "32",
        "value": "t_uint256"
      },
      "t_mapping(t_uint256,t_address)": {
        "encoding": "mapping",
        "key": "t_uint256",
        "label": "mapping(uint256 => address)",
        "numberOfBytes": "32",
        "value": "t_address"
      },
      "t_string_storage": {
        "encoding": "bytes",
        "label": "string",
        "numberOfBytes": "32"
      },
      "t_uint256": {
        "encoding": "inplace",
        "label": "uint256",
        "numberOfBytes": "32"
      },
      "t_uint8": {
        "encoding": "inplace",
        "label": "uint8",
        "numberOfBytes": "1"
      }
    }
  }
}