{
  "address": "0xBAE9506BEE346f9D90577b9108aaa62Bd3f5dA79",
  "abi": [
    {
      "inputs": [],
      "name": "Ownable__NotOwner",
      "type": "error"
    },
    {
      "inputs": [],
      "name": "Ownable__NotTransitiveOwner",
      "type": "error"
    },
    {
      "anonymous": false,
      "inputs": [
        {
          "indexed": false,
          "internalType": "address",
          "name": "previousAdmin",
          "type": "address"
        },
        {
          "indexed": false,
          "internalType": "address",
          "name": "newAdmin",
          "type": "address"
        }
      ],
      "name": "AdminChanged",
      "type": "event"
    },
    {
      "anonymous": false,
      "inputs": [
        {
          "indexed": true,
          "internalType": "address",
          "name": "beacon",
          "type": "address"
        }
      ],
      "name": "BeaconUpgraded",
      "type": "event"
    },
    {
      "anonymous": false,
      "inputs": [
        {
          "indexed": true,
          "internalType": "address",
          "name": "creator",
          "type": "address"
        },
        {
          "indexed": false,
          "internalType": "bytes32",
          "name": "salt",
          "type": "bytes32"
        },
        {
          "indexed": false,
          "internalType": "address",
          "name": "deployed",
          "type": "address"
        }
      ],
      "name": "Deployed",
      "type": "event"
    },
    {
      "anonymous": false,
      "inputs": [
        {
          "indexed": true,
          "internalType": "address",
          "name": "previousOwner",
          "type": "address"
        },
        {
          "indexed": true,
          "internalType": "address",
          "name": "newOwner",
          "type": "address"
        }
      ],
      "name": "OwnershipTransferred",
      "type": "event"
    },
    {
      "anonymous": false,
      "inputs": [
        {
          "indexed": true,
          "internalType": "address",
          "name": "implementation",
          "type": "address"
        }
      ],
      "name": "Upgraded",
      "type": "event"
    },
    {
      "inputs": [
        {
          "internalType": "bytes32",
          "name": "salt",
          "type": "bytes32"
        },
        {
          "internalType": "bytes",
          "name": "initData",
          "type": "bytes"
        }
      ],
      "name": "deployErc721",
      "outputs": [],
      "stateMutability": "nonpayable",
      "type": "function"
    },
    {
      "inputs": [],
      "name": "erc721Impl",
      "outputs": [
        {
          "internalType": "address",
          "name": "",
          "type": "address"
        }
      ],
      "stateMutability": "view",
      "type": "function"
    },
    {
      "inputs": [],
      "name": "implementation",
      "outputs": [
        {
          "internalType": "address",
          "name": "",
          "type": "address"
        }
      ],
      "stateMutability": "view",
      "type": "function"
    },
    {
      "inputs": [
        {
          "internalType": "address",
          "name": "owner",
          "type": "address"
        },
        {
          "internalType": "address",
          "name": "erc721Impl_",
          "type": "address"
        }
      ],
      "name": "init",
      "outputs": [],
      "stateMutability": "nonpayable",
      "type": "function"
    },
    {
      "inputs": [],
      "name": "owner",
      "outputs": [
        {
          "internalType": "address",
          "name": "",
          "type": "address"
        }
      ],
      "stateMutability": "view",
      "type": "function"
    },
    {
      "inputs": [],
      "name": "proxiableUUID",
      "outputs": [
        {
          "internalType": "bytes32",
          "name": "",
          "type": "bytes32"
        }
      ],
      "stateMutability": "view",
      "type": "function"
    },
    {
      "inputs": [
        {
          "internalType": "address",
          "name": "erc721Impl_",
          "type": "address"
        }
      ],
      "name": "setErc721Impl",
      "outputs": [],
      "stateMutability": "nonpayable",
      "type": "function"
    },
    {
      "inputs": [
        {
          "internalType": "address",
          "name": "account",
          "type": "address"
        }
      ],
      "name": "transferOwnership",
      "outputs": [],
      "stateMutability": "nonpayable",
      "type": "function"
    },
    {
      "inputs": [
        {
          "internalType": "address",
          "name": "newImplementation",
          "type": "address"
        }
      ],
      "name": "upgradeTo",
      "outputs": [],
      "stateMutability": "nonpayable",
      "type": "function"
    },
    {
      "inputs": [
        {
          "internalType": "address",
          "name": "newImplementation",
          "type": "address"
        },
        {
          "internalType": "bytes",
          "name": "data",
          "type": "bytes"
        }
      ],
      "name": "upgradeToAndCall",
      "outputs": [],
      "stateMutability": "payable",
      "type": "function"
    }
  ],
  "transactionHash": "0xca210199f950bfefe56168c5c2284747597c0adf2dcc3aeacf9871891f70e605",
  "args": [],
  "numDeployments": 3,
  "solcInputHash": "2dce27f8568360816243f73639d7c19b",
  "bytecode": "0x60a06040523073ffffffffffffffffffffffffffffffffffffffff1660809073ffffffffffffffffffffffffffffffffffffffff1660601b81525034801561004657600080fd5b5060805160601c611a886100816000396000818161029401528181610323015281816105e80152818161067701526107270152611a886000f3fe6080604052600436106100915760003560e01c806352d1902d1161005957806352d1902d146101585780635c60da1b146101835780638da5cb5b146101ae578063f09a4016146101d9578063f2fde38b1461020257610091565b80631ce6e4441461009657806324eb5d66146100c15780633659cfe6146100ea5780633e930f0b146101135780634f1ef2861461013c575b600080fd5b3480156100a257600080fd5b506100ab61022b565b6040516100b891906110b9565b60405180910390f35b3480156100cd57600080fd5b506100e860048036038101906100e39190611114565b61024f565b005b3480156100f657600080fd5b50610111600480360381019061010c9190611114565b610292565b005b34801561011f57600080fd5b5061013a600480360381019061013591906112bd565b61041b565b005b61015660048036038101906101519190611319565b6105e6565b005b34801561016457600080fd5b5061016d610723565b60405161017a9190611384565b60405180910390f35b34801561018f57600080fd5b506101986107dc565b6040516101a591906110b9565b60405180910390f35b3480156101ba57600080fd5b506101c36107eb565b6040516101d091906110b9565b60405180910390f35b3480156101e557600080fd5b5061020060048036038101906101fb919061139f565b6107fa565b005b34801561020e57600080fd5b5061022960048036038101906102249190611114565b6108bd565b005b60008054906101000a900473ffffffffffffffffffffffffffffffffffffffff1681565b806000806101000a81548173ffffffffffffffffffffffffffffffffffffffff021916908373ffffffffffffffffffffffffffffffffffffffff16021790555050565b7f000000000000000000000000000000000000000000000000000000000000000073ffffffffffffffffffffffffffffffffffffffff163073ffffffffffffffffffffffffffffffffffffffff161415610321576040517f08c379a000000000000000000000000000000000000000000000000000000000815260040161031890611462565b60405180910390fd5b7f000000000000000000000000000000000000000000000000000000000000000073ffffffffffffffffffffffffffffffffffffffff16610360610935565b73ffffffffffffffffffffffffffffffffffffffff16146103b6576040517f08c379a00000000000000000000000000000000000000000000000000000000081526004016103ad906114f4565b60405180910390fd5b6103bf8161098c565b61041881600067ffffffffffffffff8111156103de576103dd611192565b5b6040519080825280601f01601f1916602001820160405280156104105781602001600182028036833780820191505090505b5060006109fb565b50565b338260405160200161042e929190611514565b604051602081830303815290604052805190602001209150600061047260008054906101000a900473ffffffffffffffffffffffffffffffffffffffff1684610b78565b90506000808273ffffffffffffffffffffffffffffffffffffffff168460405161049c91906115b7565b6000604051808303816000865af19150503d80600081146104d9576040519150601f19603f3d011682016040523d82523d6000602084013e6104de565b606091505b509150915061052382826040518060400160405280601781526020017f4661696c656420746f20696e697420636f6e7472616374000000000000000000815250610c35565b508273ffffffffffffffffffffffffffffffffffffffff1663f2fde38b336040518263ffffffff1660e01b815260040161055d91906110b9565b600060405180830381600087803b15801561057757600080fd5b505af115801561058b573d6000803e3d6000fd5b505050503373ffffffffffffffffffffffffffffffffffffffff167ffa86dcef4390d6a0f7edde563410fc44e4c2d382b4c6699cce5ebc4071abcc9586856040516105d79291906115ce565b60405180910390a25050505050565b7f000000000000000000000000000000000000000000000000000000000000000073ffffffffffffffffffffffffffffffffffffffff163073ffffffffffffffffffffffffffffffffffffffff161415610675576040517f08c379a000000000000000000000000000000000000000000000000000000000815260040161066c90611462565b60405180910390fd5b7f000000000000000000000000000000000000000000000000000000000000000073ffffffffffffffffffffffffffffffffffffffff166106b4610935565b73ffffffffffffffffffffffffffffffffffffffff161461070a576040517f08c379a0000000000000000000000000000000000000000000000000000000008152600401610701906114f4565b60405180910390fd5b6107138261098c565b61071f828260016109fb565b5050565b60007f000000000000000000000000000000000000000000000000000000000000000073ffffffffffffffffffffffffffffffffffffffff163073ffffffffffffffffffffffffffffffffffffffff16146107b3576040517f08c379a00000000000000000000000000000000000000000000000000000000081526004016107aa90611669565b60405180910390fd5b7f360894a13ba1a3210667c828492db98dca3e2076cc3735a920a3ca505d382bbc60001b905090565b60006107e6610935565b905090565b60006107f5610c57565b905090565b600073ffffffffffffffffffffffffffffffffffffffff1661081a610c57565b73ffffffffffffffffffffffffffffffffffffffff1614610870576040517f08c379a0000000000000000000000000000000000000000000000000000000008152600401610867906116d5565b60405180910390fd5b61087982610c8a565b806000806101000a81548173ffffffffffffffffffffffffffffffffffffffff021916908373ffffffffffffffffffffffffffffffffffffffff1602179055505050565b6108c5610c57565b73ffffffffffffffffffffffffffffffffffffffff163373ffffffffffffffffffffffffffffffffffffffff1614610929576040517f2f7a8ee100000000000000000000000000000000000000000000000000000000815260040160405180910390fd5b61093281610c8a565b50565b60006109637f360894a13ba1a3210667c828492db98dca3e2076cc3735a920a3ca505d382bbc60001b610c96565b60000160009054906101000a900473ffffffffffffffffffffffffffffffffffffffff16905090565b610994610c57565b73ffffffffffffffffffffffffffffffffffffffff163373ffffffffffffffffffffffffffffffffffffffff16146109f8576040517f2f7a8ee100000000000000000000000000000000000000000000000000000000815260040160405180910390fd5b50565b610a277f4910fdfa16fed3260ed0e7147f7cc6da11a60208b5b9406d12a635614ffd914360001b610ca0565b60000160009054906101000a900460ff1615610a4b57610a4683610caa565b610b73565b8273ffffffffffffffffffffffffffffffffffffffff166352d1902d6040518163ffffffff1660e01b815260040160206040518083038186803b158015610a9157600080fd5b505afa925050508015610ac257506040513d601f19601f82011682018060405250810190610abf919061170a565b60015b610b01576040517f08c379a0000000000000000000000000000000000000000000000000000000008152600401610af8906117a9565b60405180910390fd5b7f360894a13ba1a3210667c828492db98dca3e2076cc3735a920a3ca505d382bbc60001b8114610b66576040517f08c379a0000000000000000000000000000000000000000000000000000000008152600401610b5d9061183b565b60405180910390fd5b50610b72838383610d63565b5b505050565b6000763d602d80600a3d3981f3363d3d373d3d3d363d730000008360601b60e81c176000526e5af43d82803e903d91602b57fd5bf38360781b1760205281603760096000f59050600073ffffffffffffffffffffffffffffffffffffffff168173ffffffffffffffffffffffffffffffffffffffff161415610c2f576040517f08c379a0000000000000000000000000000000000000000000000000000000008152600401610c26906118a7565b60405180910390fd5b92915050565b60608315610c4557829050610c50565b610c4f8383610d8f565b5b9392505050565b6000610c61610ddf565b60000160009054906101000a900473ffffffffffffffffffffffffffffffffffffffff16905090565b610c9381610e0c565b50565b6000819050919050565b6000819050919050565b610cb381610edd565b610cf2576040517f08c379a0000000000000000000000000000000000000000000000000000000008152600401610ce990611939565b60405180910390fd5b80610d1f7f360894a13ba1a3210667c828492db98dca3e2076cc3735a920a3ca505d382bbc60001b610c96565b60000160006101000a81548173ffffffffffffffffffffffffffffffffffffffff021916908373ffffffffffffffffffffffffffffffffffffffff16021790555050565b610d6c83610f00565b600082511180610d795750805b15610d8a57610d888383610f4f565b505b505050565b600082511115610da25781518083602001fd5b806040517f08c379a0000000000000000000000000000000000000000000000000000000008152600401610dd6919061199d565b60405180910390fd5b6000807f8a22373512790c48b83a1fe2efdd2888d4a917bcdc24d0adf63e60f67168046090508091505090565b6000610e16610ddf565b90508173ffffffffffffffffffffffffffffffffffffffff168160000160009054906101000a900473ffffffffffffffffffffffffffffffffffffffff1673ffffffffffffffffffffffffffffffffffffffff167f8be0079c531659141344cd1fd0a4f28419497f9722a3daafe3b4186f6b6457e060405160405180910390a3818160000160006101000a81548173ffffffffffffffffffffffffffffffffffffffff021916908373ffffffffffffffffffffffffffffffffffffffff1602179055505050565b6000808273ffffffffffffffffffffffffffffffffffffffff163b119050919050565b610f0981610caa565b8073ffffffffffffffffffffffffffffffffffffffff167fbc7cd75a20ee27fd9adebab32041f755214dbc6bffa90cc0225b39da2e5c2d3b60405160405180910390a250565b6060610f748383604051806060016040528060278152602001611a2c60279139610f7c565b905092915050565b60606000808573ffffffffffffffffffffffffffffffffffffffff1685604051610fa691906115b7565b600060405180830381855af49150503d8060008114610fe1576040519150601f19603f3d011682016040523d82523d6000602084013e610fe6565b606091505b5091509150610ff786838387611002565b925050509392505050565b606083156110655760008351141561105d5761101d85610edd565b61105c576040517f08c379a000000000000000000000000000000000000000000000000000000000815260040161105390611a0b565b60405180910390fd5b5b829050611070565b61106f8383610d8f565b5b949350505050565b600073ffffffffffffffffffffffffffffffffffffffff82169050919050565b60006110a382611078565b9050919050565b6110b381611098565b82525050565b60006020820190506110ce60008301846110aa565b92915050565b6000604051905090565b600080fd5b600080fd5b6110f181611098565b81146110fc57600080fd5b50565b60008135905061110e816110e8565b92915050565b60006020828403121561112a576111296110de565b5b6000611138848285016110ff565b91505092915050565b6000819050919050565b61115481611141565b811461115f57600080fd5b50565b6000813590506111718161114b565b92915050565b600080fd5b600080fd5b6000601f19601f8301169050919050565b7f4e487b7100000000000000000000000000000000000000000000000000000000600052604160045260246000fd5b6111ca82611181565b810181811067ffffffffffffffff821117156111e9576111e8611192565b5b80604052505050565b60006111fc6110d4565b905061120882826111c1565b919050565b600067ffffffffffffffff82111561122857611227611192565b5b61123182611181565b9050602081019050919050565b82818337600083830152505050565b600061126061125b8461120d565b6111f2565b90508281526020810184848401111561127c5761127b61117c565b5b61128784828561123e565b509392505050565b600082601f8301126112a4576112a3611177565b5b81356112b484826020860161124d565b91505092915050565b600080604083850312156112d4576112d36110de565b5b60006112e285828601611162565b925050602083013567ffffffffffffffff811115611303576113026110e3565b5b61130f8582860161128f565b9150509250929050565b600080604083850312156113305761132f6110de565b5b600061133e858286016110ff565b925050602083013567ffffffffffffffff81111561135f5761135e6110e3565b5b61136b8582860161128f565b9150509250929050565b61137e81611141565b82525050565b60006020820190506113996000830184611375565b92915050565b600080604083850312156113b6576113b56110de565b5b60006113c4858286016110ff565b92505060206113d5858286016110ff565b9150509250929050565b600082825260208201905092915050565b7f46756e6374696f6e206d7573742062652063616c6c6564207468726f7567682060008201527f64656c656761746563616c6c0000000000000000000000000000000000000000602082015250565b600061144c602c836113df565b9150611457826113f0565b604082019050919050565b6000602082019050818103600083015261147b8161143f565b9050919050565b7f46756e6374696f6e206d7573742062652063616c6c6564207468726f7567682060008201527f6163746976652070726f78790000000000000000000000000000000000000000602082015250565b60006114de602c836113df565b91506114e982611482565b604082019050919050565b6000602082019050818103600083015261150d816114d1565b9050919050565b600060408201905061152960008301856110aa565b6115366020830184611375565b9392505050565b600081519050919050565b600081905092915050565b60005b83811015611571578082015181840152602081019050611556565b83811115611580576000848401525b50505050565b60006115918261153d565b61159b8185611548565b93506115ab818560208601611553565b80840191505092915050565b60006115c38284611586565b915081905092915050565b60006040820190506115e36000830185611375565b6115f060208301846110aa565b9392505050565b7f555550535570677261646561626c653a206d757374206e6f742062652063616c60008201527f6c6564207468726f7567682064656c656761746563616c6c0000000000000000602082015250565b60006116536038836113df565b915061165e826115f7565b604082019050919050565b6000602082019050818103600083015261168281611646565b9050919050565b7f416c726561647920696e69746961746564000000000000000000000000000000600082015250565b60006116bf6011836113df565b91506116ca82611689565b602082019050919050565b600060208201905081810360008301526116ee816116b2565b9050919050565b6000815190506117048161114b565b92915050565b6000602082840312156117205761171f6110de565b5b600061172e848285016116f5565b91505092915050565b7f45524331393637557067726164653a206e657720696d706c656d656e7461746960008201527f6f6e206973206e6f742055555053000000000000000000000000000000000000602082015250565b6000611793602e836113df565b915061179e82611737565b604082019050919050565b600060208201905081810360008301526117c281611786565b9050919050565b7f45524331393637557067726164653a20756e737570706f727465642070726f7860008201527f6961626c65555549440000000000000000000000000000000000000000000000602082015250565b60006118256029836113df565b9150611830826117c9565b604082019050919050565b6000602082019050818103600083015261185481611818565b9050919050565b7f455243313136373a2063726561746532206661696c6564000000000000000000600082015250565b60006118916017836113df565b915061189c8261185b565b602082019050919050565b600060208201905081810360008301526118c081611884565b9050919050565b7f455243313936373a206e657720696d706c656d656e746174696f6e206973206e60008201527f6f74206120636f6e747261637400000000000000000000000000000000000000602082015250565b6000611923602d836113df565b915061192e826118c7565b604082019050919050565b6000602082019050818103600083015261195281611916565b9050919050565b600081519050919050565b600061196f82611959565b61197981856113df565b9350611989818560208601611553565b61199281611181565b840191505092915050565b600060208201905081810360008301526119b78184611964565b905092915050565b7f416464726573733a2063616c6c20746f206e6f6e2d636f6e7472616374000000600082015250565b60006119f5601d836113df565b9150611a00826119bf565b602082019050919050565b60006020820190508181036000830152611a24816119e8565b905091905056fe416464726573733a206c6f772d6c6576656c2064656c65676174652063616c6c206661696c6564a26469706673582212205eccb3776b59d31cf1e321c03d0ec16e88a4fda3df5052524b20200a6066640c64736f6c63430008080033",
  "devdoc": {
    "kind": "dev",
    "methods": {
      "owner()": {
        "returns": {
          "_0": "conrtact owner"
        }
      },
      "proxiableUUID()": {
        "details": "Implementation of the ERC1822 {proxiableUUID} function. This returns the storage slot used by the implementation. It is used to validate the implementation's compatibility when performing an upgrade. IMPORTANT: A proxy pointing at a proxiable contract should not be considered proxiable itself, because this risks bricking a proxy that upgrades to it, by delegating to itself until out of gas. Thus it is critical that this function revert if invoked through a proxy. This is guaranteed by the `notDelegated` modifier."
      },
      "transferOwnership(address)": {
        "params": {
          "account": "address of new owner"
        }
      },
      "upgradeTo(address)": {
        "details": "Upgrade the implementation of the proxy to `newImplementation`. Calls {_authorizeUpgrade}. Emits an {Upgraded} event."
      },
      "upgradeToAndCall(address,bytes)": {
        "details": "Upgrade the implementation of the proxy to `newImplementation`, and subsequently execute the function call encoded in `data`. Calls {_authorizeUpgrade}. Emits an {Upgraded} event."
      }
    },
    "version": 1
  },
  "userdoc": {
    "kind": "user",
    "methods": {
      "owner()": {
        "notice": "get the ERC173 contract owner"
      },
      "transferOwnership(address)": {
        "notice": "transfer contract ownership to new account"
      }
    },
    "version": 1
  },
  "storageLayout": {
    "storage": [
      {
        "astId": 1754,
        "contract": "contracts/tokens/HexlinkTokenFactory.sol:HexlinkTokenFactoryImpl",
        "label": "erc721Impl",
        "offset": 0,
        "slot": "0",
        "type": "t_address"
      }
    ],
    "types": {
      "t_address": {
        "encoding": "inplace",
        "label": "address",
        "numberOfBytes": "20"
      }
    }
  }
}