{
  "address": "0x653ad7e4ECBA4D376640e85dFfE85Ae7BFCB9ECd",
  "abi": [
    {
      "inputs": [
        {
          "internalType": "address",
          "name": "accountBase",
          "type": "address"
        }
      ],
      "stateMutability": "nonpayable",
      "type": "constructor"
    },
    {
      "inputs": [],
      "name": "Ownable__NotOwner",
      "type": "error"
    },
    {
      "inputs": [],
      "name": "Ownable__NotTransitiveOwner",
      "type": "error"
    },
    {
      "anonymous": false,
      "inputs": [
        {
          "indexed": false,
          "internalType": "address",
          "name": "previousAdmin",
          "type": "address"
        },
        {
          "indexed": false,
          "internalType": "address",
          "name": "newAdmin",
          "type": "address"
        }
      ],
      "name": "AdminChanged",
      "type": "event"
    },
    {
      "anonymous": false,
      "inputs": [
        {
          "indexed": true,
          "internalType": "address",
          "name": "beacon",
          "type": "address"
        }
      ],
      "name": "BeaconUpgraded",
      "type": "event"
    },
    {
      "anonymous": false,
      "inputs": [
        {
          "indexed": true,
          "internalType": "bytes32",
          "name": "name",
          "type": "bytes32"
        },
        {
          "indexed": true,
          "internalType": "address",
          "name": "account",
          "type": "address"
        }
      ],
      "name": "Deploy",
      "type": "event"
    },
    {
      "anonymous": false,
      "inputs": [
        {
          "indexed": true,
          "internalType": "address",
          "name": "previousOwner",
          "type": "address"
        },
        {
          "indexed": true,
          "internalType": "address",
          "name": "newOwner",
          "type": "address"
        }
      ],
      "name": "OwnershipTransferred",
      "type": "event"
    },
    {
      "anonymous": false,
      "inputs": [
        {
          "indexed": true,
          "internalType": "bytes32",
          "name": "name",
          "type": "bytes32"
        },
        {
          "indexed": true,
          "internalType": "address",
          "name": "account",
          "type": "address"
        }
      ],
      "name": "Reset",
      "type": "event"
    },
    {
      "anonymous": false,
      "inputs": [
        {
          "indexed": true,
          "internalType": "address",
          "name": "implementation",
          "type": "address"
        }
      ],
      "name": "Upgraded",
      "type": "event"
    },
    {
      "inputs": [],
      "name": "accountBase",
      "outputs": [
        {
          "internalType": "address",
          "name": "",
          "type": "address"
        }
      ],
      "stateMutability": "view",
      "type": "function"
    },
    {
      "inputs": [
        {
          "internalType": "bytes32",
          "name": "name",
          "type": "bytes32"
        }
      ],
      "name": "addressOfName",
      "outputs": [
        {
          "internalType": "address",
          "name": "",
          "type": "address"
        }
      ],
      "stateMutability": "view",
      "type": "function"
    },
    {
      "inputs": [
        {
          "internalType": "bytes32",
          "name": "name",
          "type": "bytes32"
        },
        {
          "components": [
            {
              "internalType": "uint256",
              "name": "issuedAt",
              "type": "uint256"
            },
            {
              "internalType": "bytes32",
              "name": "identityType",
              "type": "bytes32"
            },
            {
              "internalType": "bytes32",
              "name": "authType",
              "type": "bytes32"
            },
            {
              "internalType": "bytes",
              "name": "signature",
              "type": "bytes"
            }
          ],
          "internalType": "struct AuthProof",
          "name": "proof",
          "type": "tuple"
        }
      ],
      "name": "bumpNonce",
      "outputs": [],
      "stateMutability": "nonpayable",
      "type": "function"
    },
    {
      "inputs": [
        {
          "internalType": "bytes32",
          "name": "name",
          "type": "bytes32"
        },
        {
          "internalType": "bytes",
          "name": "txData",
          "type": "bytes"
        },
        {
          "components": [
            {
              "internalType": "uint256",
              "name": "issuedAt",
              "type": "uint256"
            },
            {
              "internalType": "bytes32",
              "name": "identityType",
              "type": "bytes32"
            },
            {
              "internalType": "bytes32",
              "name": "authType",
              "type": "bytes32"
            },
            {
              "internalType": "bytes",
              "name": "signature",
              "type": "bytes"
            }
          ],
          "internalType": "struct AuthProof",
          "name": "proof",
          "type": "tuple"
        }
      ],
      "name": "deploy",
      "outputs": [
        {
          "internalType": "address",
          "name": "",
          "type": "address"
        }
      ],
      "stateMutability": "nonpayable",
      "type": "function"
    },
    {
      "inputs": [],
      "name": "implementation",
      "outputs": [
        {
          "internalType": "address",
          "name": "",
          "type": "address"
        }
      ],
      "stateMutability": "view",
      "type": "function"
    },
    {
      "inputs": [
        {
          "internalType": "address",
          "name": "owner",
          "type": "address"
        },
        {
          "internalType": "address",
          "name": "oracleRegistry",
          "type": "address"
        }
      ],
      "name": "init",
      "outputs": [],
      "stateMutability": "nonpayable",
      "type": "function"
    },
    {
      "inputs": [
        {
          "internalType": "bytes32",
          "name": "name",
          "type": "bytes32"
        }
      ],
      "name": "nonce",
      "outputs": [
        {
          "internalType": "uint96",
          "name": "",
          "type": "uint96"
        }
      ],
      "stateMutability": "view",
      "type": "function"
    },
    {
      "inputs": [],
      "name": "oracleRegistry",
      "outputs": [
        {
          "internalType": "address",
          "name": "",
          "type": "address"
        }
      ],
      "stateMutability": "view",
      "type": "function"
    },
    {
      "inputs": [],
      "name": "owner",
      "outputs": [
        {
          "internalType": "address",
          "name": "",
          "type": "address"
        }
      ],
      "stateMutability": "view",
      "type": "function"
    },
    {
      "inputs": [
        {
          "internalType": "address[]",
          "name": "to",
          "type": "address[]"
        },
        {
          "internalType": "uint256[]",
          "name": "value",
          "type": "uint256[]"
        },
        {
          "internalType": "bytes[]",
          "name": "data",
          "type": "bytes[]"
        }
      ],
      "name": "process",
      "outputs": [],
      "stateMutability": "payable",
      "type": "function"
    },
    {
      "inputs": [],
      "name": "proxiableUUID",
      "outputs": [
        {
          "internalType": "bytes32",
          "name": "",
          "type": "bytes32"
        }
      ],
      "stateMutability": "view",
      "type": "function"
    },
    {
      "inputs": [
        {
          "internalType": "bytes32",
          "name": "name",
          "type": "bytes32"
        },
        {
          "internalType": "address",
          "name": "account",
          "type": "address"
        },
        {
          "components": [
            {
              "internalType": "uint256",
              "name": "issuedAt",
              "type": "uint256"
            },
            {
              "internalType": "bytes32",
              "name": "identityType",
              "type": "bytes32"
            },
            {
              "internalType": "bytes32",
              "name": "authType",
              "type": "bytes32"
            },
            {
              "internalType": "bytes",
              "name": "signature",
              "type": "bytes"
            }
          ],
          "internalType": "struct AuthProof",
          "name": "proof",
          "type": "tuple"
        }
      ],
      "name": "reset",
      "outputs": [],
      "stateMutability": "nonpayable",
      "type": "function"
    },
    {
      "inputs": [
        {
          "internalType": "bytes32",
          "name": "name",
          "type": "bytes32"
        },
        {
          "internalType": "address",
          "name": "account",
          "type": "address"
        },
        {
          "components": [
            {
              "internalType": "uint256",
              "name": "issuedAt",
              "type": "uint256"
            },
            {
              "internalType": "bytes32",
              "name": "identityType",
              "type": "bytes32"
            },
            {
              "internalType": "bytes32",
              "name": "authType",
              "type": "bytes32"
            },
            {
              "internalType": "bytes",
              "name": "signature",
              "type": "bytes"
            }
          ],
          "internalType": "struct AuthProof",
          "name": "proof1",
          "type": "tuple"
        },
        {
          "components": [
            {
              "internalType": "uint256",
              "name": "issuedAt",
              "type": "uint256"
            },
            {
              "internalType": "bytes32",
              "name": "identityType",
              "type": "bytes32"
            },
            {
              "internalType": "bytes32",
              "name": "authType",
              "type": "bytes32"
            },
            {
              "internalType": "bytes",
              "name": "signature",
              "type": "bytes"
            }
          ],
          "internalType": "struct AuthProof",
          "name": "proof2",
          "type": "tuple"
        }
      ],
      "name": "reset2Fac",
      "outputs": [],
      "stateMutability": "nonpayable",
      "type": "function"
    },
    {
      "inputs": [
        {
          "internalType": "bytes32",
          "name": "name",
          "type": "bytes32"
        },
        {
          "internalType": "address",
          "name": "account",
          "type": "address"
        },
        {
          "components": [
            {
              "internalType": "uint256",
              "name": "issuedAt",
              "type": "uint256"
            },
            {
              "internalType": "bytes32",
              "name": "identityType",
              "type": "bytes32"
            },
            {
              "internalType": "bytes32",
              "name": "authType",
              "type": "bytes32"
            },
            {
              "internalType": "bytes",
              "name": "signature",
              "type": "bytes"
            }
          ],
          "internalType": "struct AuthProof",
          "name": "proof",
          "type": "tuple"
        }
      ],
      "name": "reset2Stage",
      "outputs": [],
      "stateMutability": "nonpayable",
      "type": "function"
    },
    {
      "inputs": [
        {
          "internalType": "address",
          "name": "oracleRegistry",
          "type": "address"
        }
      ],
      "name": "setOracleRegistry",
      "outputs": [],
      "stateMutability": "nonpayable",
      "type": "function"
    },
    {
      "inputs": [
        {
          "internalType": "address",
          "name": "account",
          "type": "address"
        }
      ],
      "name": "transferOwnership",
      "outputs": [],
      "stateMutability": "nonpayable",
      "type": "function"
    },
    {
      "inputs": [],
      "name": "ttl",
      "outputs": [
        {
          "internalType": "uint256",
          "name": "",
          "type": "uint256"
        }
      ],
      "stateMutability": "view",
      "type": "function"
    },
    {
      "inputs": [],
      "name": "twoStageLock",
      "outputs": [
        {
          "internalType": "uint256",
          "name": "",
          "type": "uint256"
        }
      ],
      "stateMutability": "view",
      "type": "function"
    },
    {
      "inputs": [
        {
          "internalType": "address",
          "name": "newImplementation",
          "type": "address"
        }
      ],
      "name": "upgradeTo",
      "outputs": [],
      "stateMutability": "nonpayable",
      "type": "function"
    },
    {
      "inputs": [
        {
          "internalType": "address",
          "name": "newImplementation",
          "type": "address"
        },
        {
          "internalType": "bytes",
          "name": "data",
          "type": "bytes"
        }
      ],
      "name": "upgradeToAndCall",
      "outputs": [],
      "stateMutability": "payable",
      "type": "function"
    }
  ],
  "transactionHash": "0x220b834a38222cf09fe56d8bcbd7475ab456579dfc1849f9593a597f61f32901",
  "args": [
    "0x48EBe15A07CD576783803294beb2d57f063446c4"
  ],
  "numDeployments": 8,
  "solcInputHash": "43d5c825637296e8d0c22b7bcd4df51a",
  "bytecode": "0x60c06040523073ffffffffffffffffffffffffffffffffffffffff1660a09073ffffffffffffffffffffffffffffffffffffffff1660601b8152503480156200004757600080fd5b50604051620040ac380380620040ac83398181016040528101906200006d919062000117565b808073ffffffffffffffffffffffffffffffffffffffff1660808173ffffffffffffffffffffffffffffffffffffffff1660601b81525050505062000149565b600080fd5b600073ffffffffffffffffffffffffffffffffffffffff82169050919050565b6000620000df82620000b2565b9050919050565b620000f181620000d2565b8114620000fd57600080fd5b50565b6000815190506200011181620000e6565b92915050565b60006020828403121562000130576200012f620000ad565b5b6000620001408482850162000100565b91505092915050565b60805160601c60a05160601c613f0d6200019f600039600081816104910152818161052001528181610654015281816106e30152610793015260008181610dc101528181610ed301526119140152613f0d6000f3fe60806040526004361061011f5760003560e01c80638165354e116100a0578063cd6a84b311610064578063cd6a84b3146103a5578063f09a4016146103d0578063f2b01a82146103f9578063f2fde38b14610436578063f5a3e3dc1461045f5761011f565b80638165354e146102c25780638da5cb5b146102eb578063905da30f146103165780639cd6bc3714610353578063b7a24c0f1461037c5761011f565b806352d1902d116100e757806352d1902d146101ea5780635c60da1b14610215578063643012c314610240578063680b65b9146102695780637eaa9c8c146102855761011f565b80632ebdf1d2146101245780633659cfe61461014f5780634bb93ab1146101785780634e8b1dd5146101a35780634f1ef286146101ce575b600080fd5b34801561013057600080fd5b50610139610488565b6040516101469190612583565b60405180910390f35b34801561015b57600080fd5b5061017660048036038101906101719190612610565b61048f565b005b34801561018457600080fd5b5061018d610618565b60405161019a919061264c565b60405180910390f35b3480156101af57600080fd5b506101b861064b565b6040516101c59190612583565b60405180910390f35b6101e860048036038101906101e391906127ad565b610652565b005b3480156101f657600080fd5b506101ff61078f565b60405161020c9190612822565b60405180910390f35b34801561022157600080fd5b5061022a610848565b604051610237919061264c565b60405180910390f35b34801561024c57600080fd5b506102676004803603810190610262919061288d565b610857565b005b610283600480360381019061027e9190612a38565b6108f4565b005b34801561029157600080fd5b506102ac60048036038101906102a79190612aec565b610acc565b6040516102b9919061264c565b60405180910390f35b3480156102ce57600080fd5b506102e960048036038101906102e49190612610565b610b14565b005b3480156102f757600080fd5b50610300610b8c565b60405161030d919061264c565b60405180910390f35b34801561032257600080fd5b5061033d60048036038101906103389190612aec565b610b9b565b60405161034a9190612b40565b60405180910390f35b34801561035f57600080fd5b5061037a60048036038101906103759190612b5b565b610bd2565b005b34801561038857600080fd5b506103a3600480360381019061039e9190612b5b565b610d15565b005b3480156103b157600080fd5b506103ba610dbf565b6040516103c7919061264c565b60405180910390f35b3480156103dc57600080fd5b506103f760048036038101906103f29190612bca565b610de3565b005b34801561040557600080fd5b50610420600480360381019061041b9190612c60565b610e6f565b60405161042d919061264c565b60405180910390f35b34801561044257600080fd5b5061045d60048036038101906104589190612610565b611044565b005b34801561046b57600080fd5b5061048660048036038101906104819190612cf0565b6110bc565b005b6203f48081565b7f000000000000000000000000000000000000000000000000000000000000000073ffffffffffffffffffffffffffffffffffffffff163073ffffffffffffffffffffffffffffffffffffffff16141561051e576040517f08c379a000000000000000000000000000000000000000000000000000000000815260040161051590612dcf565b60405180910390fd5b7f000000000000000000000000000000000000000000000000000000000000000073ffffffffffffffffffffffffffffffffffffffff1661055d61113c565b73ffffffffffffffffffffffffffffffffffffffff16146105b3576040517f08c379a00000000000000000000000000000000000000000000000000000000081526004016105aa90612e61565b60405180910390fd5b6105bc81611193565b61061581600067ffffffffffffffff8111156105db576105da612682565b5b6040519080825280601f01601f19166020018201604052801561060d5781602001600182028036833780820191505090505b506000611202565b50565b600061062261137f565b60000160009054906101000a900473ffffffffffffffffffffffffffffffffffffffff16905090565b6203f48081565b7f000000000000000000000000000000000000000000000000000000000000000073ffffffffffffffffffffffffffffffffffffffff163073ffffffffffffffffffffffffffffffffffffffff1614156106e1576040517f08c379a00000000000000000000000000000000000000000000000000000000081526004016106d890612dcf565b60405180910390fd5b7f000000000000000000000000000000000000000000000000000000000000000073ffffffffffffffffffffffffffffffffffffffff1661072061113c565b73ffffffffffffffffffffffffffffffffffffffff1614610776576040517f08c379a000000000000000000000000000000000000000000000000000000000815260040161076d90612e61565b60405180910390fd5b61077f82611193565b61078b82826001611202565b5050565b60007f000000000000000000000000000000000000000000000000000000000000000073ffffffffffffffffffffffffffffffffffffffff163073ffffffffffffffffffffffffffffffffffffffff161461081f576040517f08c379a000000000000000000000000000000000000000000000000000000000815260040161081690612ef3565b60405180910390fd5b7f360894a13ba1a3210667c828492db98dca3e2076cc3735a920a3ca505d382bbc60001b905090565b600061085261113c565b905090565b6000610882858560405160200161086e919061264c565b6040516020818303038152906040526113ac565b905061088f818484611523565b6108998585611584565b600181606001516108aa9190612f42565b60008087815260200190815260200160002060000160146101000a8154816bffffffffffffffffffffffff02191690836bffffffffffffffffffffffff1602179055505050505050565b818190508686905014801561090e57508383905086869050145b61094d576040517f08c379a000000000000000000000000000000000000000000000000000000000815260040161094490612fd0565b60405180910390fd5b60005b86869050811015610ac35760008585838181106109705761096f612ff0565b5b9050602002013511156109c8576109c787878381811061099357610992612ff0565b5b90506020020160208101906109a89190612610565b8686848181106109bb576109ba612ff0565b5b90506020020135611690565b5b60008383838181106109dd576109dc612ff0565b5b90506020028101906109ef919061302e565b90501115610ab057610aae838383818110610a0d57610a0c612ff0565b5b9050602002810190610a1f919061302e565b8080601f016020809104026020016040519081016040528093929190818152602001838380828437600081840152601f19601f82011690508083019250505050505050888884818110610a7557610a74612ff0565b5b9050602002016020810190610a8a9190612610565b73ffffffffffffffffffffffffffffffffffffffff1661178490919063ffffffff16565b505b8080610abb90613091565b915050610950565b50505050505050565b6000610b0d8260008085815260200190815260200160002060000160009054906101000a900473ffffffffffffffffffffffffffffffffffffffff166117d0565b9050919050565b610b1c61181d565b73ffffffffffffffffffffffffffffffffffffffff163373ffffffffffffffffffffffffffffffffffffffff1614610b80576040517f2f7a8ee100000000000000000000000000000000000000000000000000000000815260040160405180910390fd5b610b8981611850565b50565b6000610b9661181d565b905090565b600080600083815260200190815260200160002060000160149054906101000a90046bffffffffffffffffffffffff169050919050565b6000610bfd8484604051602001610be9919061264c565b6040516020818303038152906040526113ac565b90506000610c0a8561190d565b90508073ffffffffffffffffffffffffffffffffffffffff16826040015173ffffffffffffffffffffffffffffffffffffffff16148015610c675750610c658173ffffffffffffffffffffffffffffffffffffffff16611940565b155b610ca6576040517f08c379a0000000000000000000000000000000000000000000000000000000008152600401610c9d90613126565b60405180910390fd5b610cb08284611963565b610cba8585611584565b60018260600151610ccb9190612f42565b60008087815260200190815260200160002060000160146101000a8154816bffffffffffffffffffffffff02191690836bffffffffffffffffffffffff1602179055505050505050565b6000610d408484604051602001610d2c919061264c565b6040516020818303038152906040526113ac565b90506000610d4e82846119b9565b90506002811415610db857610d638585611584565b60018260600151610d749190612f42565b60008087815260200190815260200160002060000160146101000a8154816bffffffffffffffffffffffff02191690836bffffffffffffffffffffffff1602179055505b5050505050565b7f000000000000000000000000000000000000000000000000000000000000000081565b600073ffffffffffffffffffffffffffffffffffffffff16610e0361181d565b73ffffffffffffffffffffffffffffffffffffffff1614610e59576040517f08c379a0000000000000000000000000000000000000000000000000000000008152600401610e5090613192565b60405180910390fd5b610e6282611b22565b610e6b81611850565b5050565b600080610ec08686868080601f016020809104026020016040519081016040528093929190818152602001838380828437600081840152601f19601f820116905080830192505050505050506113ac565b9050610ecc8184611963565b6000610ef87f000000000000000000000000000000000000000000000000000000000000000088611b2e565b9050610f9e86868080601f016020809104026020016040519081016040528093929190818152602001838380828437600081840152601f19601f820116905080830192505050505050506040518060400160405280600781526020017f4845584c303232000000000000000000000000000000000000000000000000008152508373ffffffffffffffffffffffffffffffffffffffff16611beb9092919063ffffffff16565b5060018260600151610fb09190612f42565b60008089815260200190815260200160002060000160146101000a8154816bffffffffffffffffffffffff02191690836bffffffffffffffffffffffff1602179055508073ffffffffffffffffffffffffffffffffffffffff16877fa4ec87efbdf333e464825b3a3a757dc501a72b53041a352de91a3fbdcdae650960405160405180910390a38092505050949350505050565b61104c61181d565b73ffffffffffffffffffffffffffffffffffffffff163373ffffffffffffffffffffffffffffffffffffffff16146110b0576040517f2f7a8ee100000000000000000000000000000000000000000000000000000000815260040160405180910390fd5b6110b981611b22565b50565b60006110d783604051806020016040528060008152506113ac565b90506110e38183611963565b600181606001516110f49190612f42565b60008085815260200190815260200160002060000160146101000a8154816bffffffffffffffffffffffff02191690836bffffffffffffffffffffffff160217905550505050565b600061116a7f360894a13ba1a3210667c828492db98dca3e2076cc3735a920a3ca505d382bbc60001b611c03565b60000160009054906101000a900473ffffffffffffffffffffffffffffffffffffffff16905090565b61119b61181d565b73ffffffffffffffffffffffffffffffffffffffff163373ffffffffffffffffffffffffffffffffffffffff16146111ff576040517f2f7a8ee100000000000000000000000000000000000000000000000000000000815260040160405180910390fd5b50565b61122e7f4910fdfa16fed3260ed0e7147f7cc6da11a60208b5b9406d12a635614ffd914360001b611c0d565b60000160009054906101000a900460ff16156112525761124d83611c17565b61137a565b8273ffffffffffffffffffffffffffffffffffffffff166352d1902d6040518163ffffffff1660e01b815260040160206040518083038186803b15801561129857600080fd5b505afa9250505080156112c957506040513d601f19601f820116820180604052508101906112c691906131c7565b60015b611308576040517f08c379a00000000000000000000000000000000000000000000000000000000081526004016112ff90613266565b60405180910390fd5b7f360894a13ba1a3210667c828492db98dca3e2076cc3735a920a3ca505d382bbc60001b811461136d576040517f08c379a0000000000000000000000000000000000000000000000000000000008152600401611364906132f8565b60405180910390fd5b50611379838383611cd0565b5b505050565b6000807ff884206727a14387141eace3d812a8da620a47f4bcb60b011186e317fde6785890508091505090565b6113b4612518565b60008060008581526020019081526020016000206040518060400160405290816000820160009054906101000a900473ffffffffffffffffffffffffffffffffffffffff1673ffffffffffffffffffffffffffffffffffffffff1673ffffffffffffffffffffffffffffffffffffffff1681526020016000820160149054906101000a90046bffffffffffffffffffffffff166bffffffffffffffffffffffff166bffffffffffffffffffffffff16815250509050600080357fffffffff000000000000000000000000000000000000000000000000000000001684304685602001516040516020016114ab9594939291906133db565b60405160208183030381529060405280519060200120905060405180608001604052808681526020018281526020016114e88785600001516117d0565b73ffffffffffffffffffffffffffffffffffffffff16815260200183602001516bffffffffffffffffffffffff168152509250505092915050565b61152d8383611963565b61153681611cfc565b611575576040517f08c379a000000000000000000000000000000000000000000000000000000000815260040161156c90613481565b60405180910390fd5b61157f8382611d0f565b505050565b600073ffffffffffffffffffffffffffffffffffffffff168173ffffffffffffffffffffffffffffffffffffffff1614156115f4576040517f08c379a00000000000000000000000000000000000000000000000000000000081526004016115eb906134ed565b60405180910390fd5b8060008084815260200190815260200160002060000160006101000a81548173ffffffffffffffffffffffffffffffffffffffff021916908373ffffffffffffffffffffffffffffffffffffffff1602179055508073ffffffffffffffffffffffffffffffffffffffff16827f9ea66a51baa076262b5c824021c8d0594003137dc336d820c66ae07e2bdc78a660405160405180910390a35050565b804710156116d3576040517f08c379a00000000000000000000000000000000000000000000000000000000081526004016116ca90613559565b60405180910390fd5b60008273ffffffffffffffffffffffffffffffffffffffff16826040516116f9906135aa565b60006040518083038185875af1925050503d8060008114611736576040519150601f19603f3d011682016040523d82523d6000602084013e61173b565b606091505b505090508061177f576040517f08c379a000000000000000000000000000000000000000000000000000000000815260040161177690613631565b60405180910390fd5b505050565b60606117c8838360006040518060400160405280601e81526020017f416464726573733a206c6f772d6c6576656c2063616c6c206661696c65640000815250611fa7565b905092915050565b60008073ffffffffffffffffffffffffffffffffffffffff168273ffffffffffffffffffffffffffffffffffffffff161461180b5781611815565b6118148361190d565b5b905092915050565b6000611827612074565b60000160009054906101000a900473ffffffffffffffffffffffffffffffffffffffff16905090565b600073ffffffffffffffffffffffffffffffffffffffff168173ffffffffffffffffffffffffffffffffffffffff1614156118c0576040517f08c379a00000000000000000000000000000000000000000000000000000000081526004016118b79061369d565b60405180910390fd5b806118c961137f565b60000160006101000a81548173ffffffffffffffffffffffffffffffffffffffff021916908373ffffffffffffffffffffffffffffffffffffffff16021790555050565b60006119397f0000000000000000000000000000000000000000000000000000000000000000836120a1565b9050919050565b6000808273ffffffffffffffffffffffffffffffffffffffff163b119050919050565b61196c816120b6565b6119ab576040517f08c379a00000000000000000000000000000000000000000000000000000000081526004016119a290613709565b60405180910390fd5b6119b58282611d0f565b5050565b6000806119c461137f565b9050600081600101600086600001518152602001908152602001600020600086602001518152602001908152602001600020604051806040016040529081600082015481526020016001820154815250509050600081600001511415611aa957611a2e8585611963565b42826001016000876000015181526020019081526020016000206000876020015181526020019081526020016000206000018190555083602001358260010160008760000151815260200190815260200160002060008760200151815260200190815260200160002060010181905550600192505050611b1c565b611ab284611cfc565b611b0b576203f4808160000151611ac99190613729565b4211611b0a576040517f08c379a0000000000000000000000000000000000000000000000000000000008152600401611b01906137cb565b60405180910390fd5b5b611b158585611d0f565b6002925050505b92915050565b611b2b816120ca565b50565b6000763d602d80600a3d3981f3363d3d373d3d3d363d730000008360601b60e81c176000526e5af43d82803e903d91602b57fd5bf38360781b1760205281603760096000f59050600073ffffffffffffffffffffffffffffffffffffffff168173ffffffffffffffffffffffffffffffffffffffff161415611be5576040517f08c379a0000000000000000000000000000000000000000000000000000000008152600401611bdc90613837565b60405180910390fd5b92915050565b6060611bfa8484600085611fa7565b90509392505050565b6000819050919050565b6000819050919050565b611c2081611940565b611c5f576040517f08c379a0000000000000000000000000000000000000000000000000000000008152600401611c56906138c9565b60405180910390fd5b80611c8c7f360894a13ba1a3210667c828492db98dca3e2076cc3735a920a3ca505d382bbc60001b611c03565b60000160006101000a81548173ffffffffffffffffffffffffffffffffffffffff021916908373ffffffffffffffffffffffffffffffffffffffff16021790555050565b611cd98361219b565b600082511180611ce65750805b15611cf757611cf583836121ea565b505b505050565b60008060001b8260200135149050919050565b428160000135108015611d335750426203f4808260000135611d319190613729565b115b611d72576040517f08c379a0000000000000000000000000000000000000000000000000000000008152600401611d6990613935565b60405180910390fd5b600082600001518360200151836000013584602001358560400135604051602001611da1959493929190613955565b60405160208183030381529060405280519060200120905060008060001b836020013514611dd757611dd283612217565b611ddd565b83604001515b90508073ffffffffffffffffffffffffffffffffffffffff16631626ba7e83858060600190611e0c919061302e565b6040518463ffffffff1660e01b8152600401611e2a939291906139d5565b60206040518083038186803b158015611e4257600080fd5b505afa925050508015611e7357506040513d601f19601f82011682018060405250810190611e709190613a33565b60015b611f1957611e7f613a6d565b806308c379a01415611edc5750611e94613a8f565b80611e9f5750611ede565b806040517f08c379a0000000000000000000000000000000000000000000000000000000008152600401611ed39190613b69565b60405180910390fd5b505b6040517f08c379a0000000000000000000000000000000000000000000000000000000008152600401611f1090613bd7565b60405180910390fd5b631626ba7e60e01b7bffffffffffffffffffffffffffffffffffffffffffffffffffffffff1916817bffffffffffffffffffffffffffffffffffffffffffffffffffffffff191614611fa0576040517f08c379a0000000000000000000000000000000000000000000000000000000008152600401611f9790613c43565b60405180910390fd5b5050505050565b606082471015611fec576040517f08c379a0000000000000000000000000000000000000000000000000000000008152600401611fe390613cd5565b60405180910390fd5b6000808673ffffffffffffffffffffffffffffffffffffffff1685876040516120159190613d26565b60006040518083038185875af1925050503d8060008114612052576040519150601f19603f3d011682016040523d82523d6000602084013e612057565b606091505b50915091506120688783838761236b565b92505050949350505050565b6000807f8a22373512790c48b83a1fe2efdd2888d4a917bcdc24d0adf63e60f67168046090508091505090565b60006120ae8383306123e1565b905092915050565b60008060001b826020013514159050919050565b60006120d4612074565b90508173ffffffffffffffffffffffffffffffffffffffff168160000160009054906101000a900473ffffffffffffffffffffffffffffffffffffffff1673ffffffffffffffffffffffffffffffffffffffff167f8be0079c531659141344cd1fd0a4f28419497f9722a3daafe3b4186f6b6457e060405160405180910390a3818160000160006101000a81548173ffffffffffffffffffffffffffffffffffffffff021916908373ffffffffffffffffffffffffffffffffffffffff1602179055505050565b6121a481611c17565b8073ffffffffffffffffffffffffffffffffffffffff167fbc7cd75a20ee27fd9adebab32041f755214dbc6bffa90cc0225b39da2e5c2d3b60405160405180910390a250565b606061220f8383604051806060016040528060278152602001613eb160279139612442565b905092915050565b60008060405180604001604052808460200135815260200184604001358152509050600061224361137f565b60000160009054906101000a900473ffffffffffffffffffffffffffffffffffffffff1673ffffffffffffffffffffffffffffffffffffffff1663d2f18f19836040518263ffffffff1660e01b815260040161229f9190613d7b565b60206040518083038186803b1580156122b757600080fd5b505afa1580156122cb573d6000803e3d6000fd5b505050506040513d601f19601f820116820180604052508101906122ef9190613dab565b9050600073ffffffffffffffffffffffffffffffffffffffff168173ffffffffffffffffffffffffffffffffffffffff161415612361576040517f08c379a000000000000000000000000000000000000000000000000000000000815260040161235890613e24565b60405180910390fd5b8092505050919050565b606083156123ce576000835114156123c65761238685611940565b6123c5576040517f08c379a00000000000000000000000000000000000000000000000000000000081526004016123bc90613e90565b60405180910390fd5b5b8290506123d9565b6123d883836124c8565b5b949350505050565b60006040518260388201526f5af43d82803e903d91602b57fd5bf3ff6024820152846014820152733d602d80600a3d3981f3363d3d373d3d3d363d7381528360588201526037600c8201206078820152605560438201209150509392505050565b60606000808573ffffffffffffffffffffffffffffffffffffffff168560405161246c9190613d26565b600060405180830381855af49150503d80600081146124a7576040519150601f19603f3d011682016040523d82523d6000602084013e6124ac565b606091505b50915091506124bd8683838761236b565b925050509392505050565b6000825111156124db5781518083602001fd5b806040517f08c379a000000000000000000000000000000000000000000000000000000000815260040161250f9190613b69565b60405180910390fd5b60405180608001604052806000801916815260200160008019168152602001600073ffffffffffffffffffffffffffffffffffffffff16815260200160006bffffffffffffffffffffffff1681525090565b6000819050919050565b61257d8161256a565b82525050565b60006020820190506125986000830184612574565b92915050565b6000604051905090565b600080fd5b600080fd5b600073ffffffffffffffffffffffffffffffffffffffff82169050919050565b60006125dd826125b2565b9050919050565b6125ed816125d2565b81146125f857600080fd5b50565b60008135905061260a816125e4565b92915050565b600060208284031215612626576126256125a8565b5b6000612634848285016125fb565b91505092915050565b612646816125d2565b82525050565b6000602082019050612661600083018461263d565b92915050565b600080fd5b600080fd5b6000601f19601f8301169050919050565b7f4e487b7100000000000000000000000000000000000000000000000000000000600052604160045260246000fd5b6126ba82612671565b810181811067ffffffffffffffff821117156126d9576126d8612682565b5b80604052505050565b60006126ec61259e565b90506126f882826126b1565b919050565b600067ffffffffffffffff82111561271857612717612682565b5b61272182612671565b9050602081019050919050565b82818337600083830152505050565b600061275061274b846126fd565b6126e2565b90508281526020810184848401111561276c5761276b61266c565b5b61277784828561272e565b509392505050565b600082601f83011261279457612793612667565b5b81356127a484826020860161273d565b91505092915050565b600080604083850312156127c4576127c36125a8565b5b60006127d2858286016125fb565b925050602083013567ffffffffffffffff8111156127f3576127f26125ad565b5b6127ff8582860161277f565b9150509250929050565b6000819050919050565b61281c81612809565b82525050565b60006020820190506128376000830184612813565b92915050565b61284681612809565b811461285157600080fd5b50565b6000813590506128638161283d565b92915050565b600080fd5b60006080828403121561288457612883612869565b5b81905092915050565b600080600080608085870312156128a7576128a66125a8565b5b60006128b587828801612854565b94505060206128c6878288016125fb565b935050604085013567ffffffffffffffff8111156128e7576128e66125ad565b5b6128f38782880161286e565b925050606085013567ffffffffffffffff811115612914576129136125ad565b5b6129208782880161286e565b91505092959194509250565b600080fd5b600080fd5b60008083601f84011261294c5761294b612667565b5b8235905067ffffffffffffffff8111156129695761296861292c565b5b60208301915083602082028301111561298557612984612931565b5b9250929050565b60008083601f8401126129a2576129a1612667565b5b8235905067ffffffffffffffff8111156129bf576129be61292c565b5b6020830191508360208202830111156129db576129da612931565b5b9250929050565b60008083601f8401126129f8576129f7612667565b5b8235905067ffffffffffffffff811115612a1557612a1461292c565b5b602083019150836020820283011115612a3157612a30612931565b5b9250929050565b60008060008060008060608789031215612a5557612a546125a8565b5b600087013567ffffffffffffffff811115612a7357612a726125ad565b5b612a7f89828a01612936565b9650965050602087013567ffffffffffffffff811115612aa257612aa16125ad565b5b612aae89828a0161298c565b9450945050604087013567ffffffffffffffff811115612ad157612ad06125ad565b5b612add89828a016129e2565b92509250509295509295509295565b600060208284031215612b0257612b016125a8565b5b6000612b1084828501612854565b91505092915050565b60006bffffffffffffffffffffffff82169050919050565b612b3a81612b19565b82525050565b6000602082019050612b556000830184612b31565b92915050565b600080600060608486031215612b7457612b736125a8565b5b6000612b8286828701612854565b9350506020612b93868287016125fb565b925050604084013567ffffffffffffffff811115612bb457612bb36125ad565b5b612bc08682870161286e565b9150509250925092565b60008060408385031215612be157612be06125a8565b5b6000612bef858286016125fb565b9250506020612c00858286016125fb565b9150509250929050565b60008083601f840112612c2057612c1f612667565b5b8235905067ffffffffffffffff811115612c3d57612c3c61292c565b5b602083019150836001820283011115612c5957612c58612931565b5b9250929050565b60008060008060608587031215612c7a57612c796125a8565b5b6000612c8887828801612854565b945050602085013567ffffffffffffffff811115612ca957612ca86125ad565b5b612cb587828801612c0a565b9350935050604085013567ffffffffffffffff811115612cd857612cd76125ad565b5b612ce48782880161286e565b91505092959194509250565b60008060408385031215612d0757612d066125a8565b5b6000612d1585828601612854565b925050602083013567ffffffffffffffff811115612d3657612d356125ad565b5b612d428582860161286e565b9150509250929050565b600082825260208201905092915050565b7f46756e6374696f6e206d7573742062652063616c6c6564207468726f7567682060008201527f64656c656761746563616c6c0000000000000000000000000000000000000000602082015250565b6000612db9602c83612d4c565b9150612dc482612d5d565b604082019050919050565b60006020820190508181036000830152612de881612dac565b9050919050565b7f46756e6374696f6e206d7573742062652063616c6c6564207468726f7567682060008201527f6163746976652070726f78790000000000000000000000000000000000000000602082015250565b6000612e4b602c83612d4c565b9150612e5682612def565b604082019050919050565b60006020820190508181036000830152612e7a81612e3e565b9050919050565b7f555550535570677261646561626c653a206d757374206e6f742062652063616c60008201527f6c6564207468726f7567682064656c656761746563616c6c0000000000000000602082015250565b6000612edd603883612d4c565b9150612ee882612e81565b604082019050919050565b60006020820190508181036000830152612f0c81612ed0565b9050919050565b7f4e487b7100000000000000000000000000000000000000000000000000000000600052601160045260246000fd5b6000612f4d82612b19565b9150612f5883612b19565b9250826bffffffffffffffffffffffff03821115612f7957612f78612f13565b5b828201905092915050565b7f496e76616c696420706172616d73000000000000000000000000000000000000600082015250565b6000612fba600e83612d4c565b9150612fc582612f84565b602082019050919050565b60006020820190508181036000830152612fe981612fad565b9050919050565b7f4e487b7100000000000000000000000000000000000000000000000000000000600052603260045260246000fd5b600080fd5b600080fd5b600080fd5b6000808335600160200384360303811261304b5761304a61301f565b5b80840192508235915067ffffffffffffffff82111561306d5761306c613024565b5b60208301925060018202360383131561308957613088613029565b5b509250929050565b600061309c8261256a565b91507fffffffffffffffffffffffffffffffffffffffffffffffffffffffffffffffff8214156130cf576130ce612f13565b5b600182019050919050565b7f4845584c30303900000000000000000000000000000000000000000000000000600082015250565b6000613110600783612d4c565b915061311b826130da565b602082019050919050565b6000602082019050818103600083015261313f81613103565b9050919050565b7f4845584c30313500000000000000000000000000000000000000000000000000600082015250565b600061317c600783612d4c565b915061318782613146565b602082019050919050565b600060208201905081810360008301526131ab8161316f565b9050919050565b6000815190506131c18161283d565b92915050565b6000602082840312156131dd576131dc6125a8565b5b60006131eb848285016131b2565b91505092915050565b7f45524331393637557067726164653a206e657720696d706c656d656e7461746960008201527f6f6e206973206e6f742055555053000000000000000000000000000000000000602082015250565b6000613250602e83612d4c565b915061325b826131f4565b604082019050919050565b6000602082019050818103600083015261327f81613243565b9050919050565b7f45524331393637557067726164653a20756e737570706f727465642070726f7860008201527f6961626c65555549440000000000000000000000000000000000000000000000602082015250565b60006132e2602983612d4c565b91506132ed82613286565b604082019050919050565b60006020820190508181036000830152613311816132d5565b9050919050565b60007fffffffff0000000000000000000000000000000000000000000000000000000082169050919050565b61334d81613318565b82525050565b600081519050919050565b600082825260208201905092915050565b60005b8381101561338d578082015181840152602081019050613372565b8381111561339c576000848401525b50505050565b60006133ad82613353565b6133b7818561335e565b93506133c781856020860161336f565b6133d081612671565b840191505092915050565b600060a0820190506133f06000830188613344565b818103602083015261340281876133a2565b9050613411604083018661263d565b61341e6060830185612574565b61342b6080830184612b31565b9695505050505050565b7f4845584c30303400000000000000000000000000000000000000000000000000600082015250565b600061346b600783612d4c565b915061347682613435565b602082019050919050565b6000602082019050818103600083015261349a8161345e565b9050919050565b7f4845584c30313200000000000000000000000000000000000000000000000000600082015250565b60006134d7600783612d4c565b91506134e2826134a1565b602082019050919050565b60006020820190508181036000830152613506816134ca565b9050919050565b7f416464726573733a20696e73756666696369656e742062616c616e6365000000600082015250565b6000613543601d83612d4c565b915061354e8261350d565b602082019050919050565b6000602082019050818103600083015261357281613536565b9050919050565b600081905092915050565b50565b6000613594600083613579565b915061359f82613584565b600082019050919050565b60006135b582613587565b9150819050919050565b7f416464726573733a20756e61626c6520746f2073656e642076616c75652c207260008201527f6563697069656e74206d61792068617665207265766572746564000000000000602082015250565b600061361b603a83612d4c565b9150613626826135bf565b604082019050919050565b6000602082019050818103600083015261364a8161360e565b9050919050565b7f4845584c30323000000000000000000000000000000000000000000000000000600082015250565b6000613687600783612d4c565b915061369282613651565b602082019050919050565b600060208201905081810360008301526136b68161367a565b9050919050565b7f4845584c30303300000000000000000000000000000000000000000000000000600082015250565b60006136f3600783612d4c565b91506136fe826136bd565b602082019050919050565b60006020820190508181036000830152613722816136e6565b9050919050565b60006137348261256a565b915061373f8361256a565b9250827fffffffffffffffffffffffffffffffffffffffffffffffffffffffffffffffff0382111561377457613773612f13565b5b828201905092915050565b7f4845584c30303500000000000000000000000000000000000000000000000000600082015250565b60006137b5600783612d4c565b91506137c08261377f565b602082019050919050565b600060208201905081810360008301526137e4816137a8565b9050919050565b7f455243313136373a2063726561746532206661696c6564000000000000000000600082015250565b6000613821601783612d4c565b915061382c826137eb565b602082019050919050565b6000602082019050818103600083015261385081613814565b9050919050565b7f455243313936373a206e657720696d706c656d656e746174696f6e206973206e60008201527f6f74206120636f6e747261637400000000000000000000000000000000000000602082015250565b60006138b3602d83612d4c565b91506138be82613857565b604082019050919050565b600060208201905081810360008301526138e2816138a6565b9050919050565b7f4845584c30303600000000000000000000000000000000000000000000000000600082015250565b600061391f600783612d4c565b915061392a826138e9565b602082019050919050565b6000602082019050818103600083015261394e81613912565b9050919050565b600060a08201905061396a6000830188612813565b6139776020830187612813565b6139846040830186612574565b6139916060830185612813565b61399e6080830184612813565b9695505050505050565b60006139b4838561335e565b93506139c183858461272e565b6139ca83612671565b840190509392505050565b60006040820190506139ea6000830186612813565b81810360208301526139fd8184866139a8565b9050949350505050565b613a1081613318565b8114613a1b57600080fd5b50565b600081519050613a2d81613a07565b92915050565b600060208284031215613a4957613a486125a8565b5b6000613a5784828501613a1e565b91505092915050565b60008160e01c9050919050565b600060033d1115613a8c5760046000803e613a89600051613a60565b90505b90565b600060443d1015613a9f57613b22565b613aa761259e565b60043d036004823e80513d602482011167ffffffffffffffff82111715613acf575050613b22565b808201805167ffffffffffffffff811115613aed5750505050613b22565b80602083010160043d038501811115613b0a575050505050613b22565b613b19826020018501866126b1565b82955050505050505b90565b600081519050919050565b6000613b3b82613b25565b613b458185612d4c565b9350613b5581856020860161336f565b613b5e81612671565b840191505092915050565b60006020820190508181036000830152613b838184613b30565b905092915050565b7f4845584c30303800000000000000000000000000000000000000000000000000600082015250565b6000613bc1600783612d4c565b9150613bcc82613b8b565b602082019050919050565b60006020820190508181036000830152613bf081613bb4565b9050919050565b7f4845584c30303700000000000000000000000000000000000000000000000000600082015250565b6000613c2d600783612d4c565b9150613c3882613bf7565b602082019050919050565b60006020820190508181036000830152613c5c81613c20565b9050919050565b7f416464726573733a20696e73756666696369656e742062616c616e636520666f60008201527f722063616c6c0000000000000000000000000000000000000000000000000000602082015250565b6000613cbf602683612d4c565b9150613cca82613c63565b604082019050919050565b60006020820190508181036000830152613cee81613cb2565b9050919050565b6000613d0082613353565b613d0a8185613579565b9350613d1a81856020860161336f565b80840191505092915050565b6000613d328284613cf5565b915081905092915050565b613d4681612809565b82525050565b604082016000820151613d626000850182613d3d565b506020820151613d756020850182613d3d565b50505050565b6000604082019050613d906000830184613d4c565b92915050565b600081519050613da5816125e4565b92915050565b600060208284031215613dc157613dc06125a8565b5b6000613dcf84828501613d96565b91505092915050565b7f4845584c30313700000000000000000000000000000000000000000000000000600082015250565b6000613e0e600783612d4c565b9150613e1982613dd8565b602082019050919050565b60006020820190508181036000830152613e3d81613e01565b9050919050565b7f416464726573733a2063616c6c20746f206e6f6e2d636f6e7472616374000000600082015250565b6000613e7a601d83612d4c565b9150613e8582613e44565b602082019050919050565b60006020820190508181036000830152613ea981613e6d565b905091905056fe416464726573733a206c6f772d6c6576656c2064656c65676174652063616c6c206661696c6564a264697066735822122000f960dd1a7ccc3a4005696c9b3f56bf9a8c9556c313b720972e2181cc858cec64736f6c63430008080033",
  "devdoc": {
    "kind": "dev",
    "methods": {
      "owner()": {
        "returns": {
          "_0": "conrtact owner"
        }
      },
      "proxiableUUID()": {
        "details": "Implementation of the ERC1822 {proxiableUUID} function. This returns the storage slot used by the implementation. It is used to validate the implementation's compatibility when performing an upgrade. IMPORTANT: A proxy pointing at a proxiable contract should not be considered proxiable itself, because this risks bricking a proxy that upgrades to it, by delegating to itself until out of gas. Thus it is critical that this function revert if invoked through a proxy. This is guaranteed by the `notDelegated` modifier."
      },
      "transferOwnership(address)": {
        "params": {
          "account": "address of new owner"
        }
      },
      "upgradeTo(address)": {
        "details": "Upgrade the implementation of the proxy to `newImplementation`. Calls {_authorizeUpgrade}. Emits an {Upgraded} event."
      },
      "upgradeToAndCall(address,bytes)": {
        "details": "Upgrade the implementation of the proxy to `newImplementation`, and subsequently execute the function call encoded in `data`. Calls {_authorizeUpgrade}. Emits an {Upgraded} event."
      }
    },
    "version": 1
  },
  "userdoc": {
    "kind": "user",
    "methods": {
      "owner()": {
        "notice": "get the ERC173 contract owner"
      },
      "transferOwnership(address)": {
        "notice": "transfer contract ownership to new account"
      }
    },
    "version": 1
  },
  "storageLayout": {
    "storage": [
      {
        "astId": 2392,
        "contract": "contracts/hexlink/Hexlink.sol:HexlinkUpgradeable",
        "label": "states",
        "offset": 0,
        "slot": "0",
        "type": "t_mapping(t_bytes32,t_struct(AccountState)2370_storage)"
      }
    ],
    "types": {
      "t_address": {
        "encoding": "inplace",
        "label": "address",
        "numberOfBytes": "20"
      },
      "t_bytes32": {
        "encoding": "inplace",
        "label": "bytes32",
        "numberOfBytes": "32"
      },
      "t_mapping(t_bytes32,t_struct(AccountState)2370_storage)": {
        "encoding": "mapping",
        "key": "t_bytes32",
        "label": "mapping(bytes32 => struct HexlinkImpl.AccountState)",
        "numberOfBytes": "32",
        "value": "t_struct(AccountState)2370_storage"
      },
      "t_struct(AccountState)2370_storage": {
        "encoding": "inplace",
        "label": "struct HexlinkImpl.AccountState",
        "members": [
          {
            "astId": 2367,
            "contract": "contracts/hexlink/Hexlink.sol:HexlinkUpgradeable",
            "label": "account",
            "offset": 0,
            "slot": "0",
            "type": "t_address"
          },
          {
            "astId": 2369,
            "contract": "contracts/hexlink/Hexlink.sol:HexlinkUpgradeable",
            "label": "nonce",
            "offset": 20,
            "slot": "0",
            "type": "t_uint96"
          }
        ],
        "numberOfBytes": "32"
      },
      "t_uint96": {
        "encoding": "inplace",
        "label": "uint96",
        "numberOfBytes": "12"
      }
    }
  }
}