{
  "address": "0x4a03878253c8780Ec672119C444fdd6ef2694E82",
  "abi": [
    {
      "anonymous": false,
      "inputs": [
        {
          "indexed": true,
          "internalType": "bytes32",
          "name": "PacketId",
          "type": "bytes32"
        },
        {
          "indexed": false,
          "internalType": "address",
          "name": "claimer",
          "type": "address"
        },
        {
          "indexed": false,
          "internalType": "uint256",
          "name": "amount",
          "type": "uint256"
        }
      ],
      "name": "PacketClaimed",
      "type": "event"
    },
    {
      "anonymous": false,
      "inputs": [
        {
          "indexed": true,
          "internalType": "bytes32",
          "name": "PacketId",
          "type": "bytes32"
        },
        {
          "indexed": false,
          "internalType": "address",
          "name": "creator",
          "type": "address"
        },
        {
          "indexed": false,
          "internalType": "address",
          "name": "token",
          "type": "address"
        },
        {
          "indexed": false,
          "internalType": "bytes32",
          "name": "salt",
          "type": "bytes32"
        },
        {
          "indexed": false,
          "internalType": "uint256",
          "name": "amount",
          "type": "uint256"
        },
        {
          "indexed": false,
          "internalType": "uint32",
          "name": "split",
          "type": "uint32"
        }
      ],
      "name": "PacketCreated",
      "type": "event"
    },
    {
      "inputs": [
        {
          "internalType": "address",
          "name": "from",
          "type": "address"
        },
        {
          "internalType": "address",
          "name": "token",
          "type": "address"
        },
        {
          "internalType": "bytes32",
          "name": "salt",
          "type": "bytes32"
        },
        {
          "internalType": "address",
          "name": "claimer",
          "type": "address"
        },
        {
          "internalType": "address",
          "name": "gasStation",
          "type": "address"
        },
        {
          "internalType": "address",
          "name": "refundReceiver",
          "type": "address"
        },
        {
          "internalType": "bytes",
          "name": "signature",
          "type": "bytes"
        }
      ],
      "name": "claim",
      "outputs": [],
      "stateMutability": "nonpayable",
      "type": "function"
    },
    {
      "inputs": [
        {
          "internalType": "address",
          "name": "token",
          "type": "address"
        },
        {
          "internalType": "bytes32",
          "name": "salt",
          "type": "bytes32"
        },
        {
          "internalType": "uint256",
          "name": "amount",
          "type": "uint256"
        },
        {
          "internalType": "address",
          "name": "validator",
          "type": "address"
        },
        {
          "internalType": "uint64",
          "name": "expiredAt",
          "type": "uint64"
        },
        {
          "internalType": "uint24",
          "name": "split",
          "type": "uint24"
        },
        {
          "internalType": "uint8",
          "name": "mode",
          "type": "uint8"
        }
      ],
      "name": "create",
      "outputs": [],
      "stateMutability": "payable",
      "type": "function"
    },
    {
      "inputs": [
        {
          "internalType": "bytes32",
          "name": "id",
          "type": "bytes32"
        }
      ],
      "name": "packet",
      "outputs": [
        {
          "components": [
            {
              "internalType": "uint256",
              "name": "balance",
              "type": "uint256"
            },
            {
              "internalType": "address",
              "name": "validator",
              "type": "address"
            },
            {
              "internalType": "uint64",
              "name": "expiredAt",
              "type": "uint64"
            },
            {
              "internalType": "uint24",
              "name": "split",
              "type": "uint24"
            },
            {
              "internalType": "uint8",
              "name": "mode",
              "type": "uint8"
            }
          ],
          "internalType": "struct RedPacket.Packet",
          "name": "",
          "type": "tuple"
        }
      ],
      "stateMutability": "view",
      "type": "function"
    },
    {
      "inputs": [
        {
          "internalType": "address",
          "name": "token",
          "type": "address"
        },
        {
          "internalType": "bytes32",
          "name": "salt",
          "type": "bytes32"
        }
      ],
      "name": "refund",
      "outputs": [],
      "stateMutability": "nonpayable",
      "type": "function"
    }
  ],
  "transactionHash": "0x0068c993f229235484e8f434ae38ec6e6afc772cf67e4ecae3bd2827c3219eab",
  "args": [],
  "numDeployments": 1,
  "solcInputHash": "3fdbe8cf272719058cfea055ff774cab",
  "bytecode": "0x608060405234801561001057600080fd5b506122ca806100206000396000f3fe60806040526004361061003f5760003560e01c806337b6ee7e146100445780638f0a24b11461006d578063bc905b95146100aa578063ef8f1f60146100d3575b600080fd5b34801561005057600080fd5b5061006b600480360381019061006691906112c5565b6100ef565b005b34801561007957600080fd5b50610094600480360381019061008f9190611305565b61015e565b6040516100a1919061141f565b60405180910390f35b3480156100b657600080fd5b506100d160048036038101906100cc919061149f565b61025c565b005b6100ed60048036038101906100e89190611611565b6108bd565b005b6000338383604051602001610106939291906116d1565b60405160208183030381529060405280519060200120905061013e833360008085815260200190815260200160002060000154610c28565b600080600083815260200190815260200160002060000181905550505050565b6101666111d0565b6000808381526020019081526020016000206040518060a0016040529081600082015481526020016001820160009054906101000a900473ffffffffffffffffffffffffffffffffffffffff1673ffffffffffffffffffffffffffffffffffffffff1673ffffffffffffffffffffffffffffffffffffffff1681526020016001820160149054906101000a900467ffffffffffffffff1667ffffffffffffffff1667ffffffffffffffff16815260200160018201601c9054906101000a900462ffffff1662ffffff1662ffffff16815260200160018201601f9054906101000a900460ff1660ff1660ff16815250509050919050565b60005a90506000898989604051602001610278939291906116d1565b60405160208183030381529060405280519060200120905060008060008381526020019081526020016000206040518060a0016040529081600082015481526020016001820160009054906101000a900473ffffffffffffffffffffffffffffffffffffffff1673ffffffffffffffffffffffffffffffffffffffff1673ffffffffffffffffffffffffffffffffffffffff1681526020016001820160149054906101000a900467ffffffffffffffff1667ffffffffffffffff1667ffffffffffffffff16815260200160018201601c9054906101000a900462ffffff1662ffffff1662ffffff16815260200160018201601f9054906101000a900460ff1660ff1660ff16815250509050600081600001511180156103a057506000816060015162ffffff16115b6103df576040517f08c379a00000000000000000000000000000000000000000000000000000000081526004016103d690611765565b60405180910390fd5b6000816040015167ffffffffffffffff161480610409575042816040015167ffffffffffffffff16115b610448576040517f08c379a000000000000000000000000000000000000000000000000000000000815260040161043f906117d1565b60405180910390fd5b60006001600084815260200190815260200160002060008a73ffffffffffffffffffffffffffffffffffffffff1673ffffffffffffffffffffffffffffffffffffffff16815260200190815260200160002054146104db576040517f08c379a00000000000000000000000000000000000000000000000000000000081526004016104d29061183d565b60405180910390fd5b6000828989896040516020016104f4949392919061185d565b604051602081830303815290604052805190602001209050600061051782610d00565b905061057087878080601f016020809104026020016040519081016040528093929190818152602001838380828437600081840152601f19601f8201169050808301925050505050505082610d3090919063ffffffff16565b73ffffffffffffffffffffffffffffffffffffffff16836020015173ffffffffffffffffffffffffffffffffffffffff16146105e1576040517f08c379a00000000000000000000000000000000000000000000000000000000081526004016105d8906118ee565b60405180910390fd5b600180600086815260200190815260200160002060008c73ffffffffffffffffffffffffffffffffffffffff1673ffffffffffffffffffffffffffffffffffffffff1681526020019081526020016000206000828254610641919061193d565b9250508190555060006106548b85610d57565b90508084600001516106669190611993565b600080878152602001908152602001600020600001819055506001846060015161069091906119c7565b600080878152602001908152602001600020600101601c6101000a81548162ffffff021916908362ffffff1602179055506106cc8d8c83610c28565b847f45aa73da9ee0126edc74e857cce52437c33a17a3dd7c37d6231700aa832ff9e18c836040516106fe929190611a0a565b60405180910390a2600073ffffffffffffffffffffffffffffffffffffffff168a73ffffffffffffffffffffffffffffffffffffffff16146108ad5760003a61ea605a8961074c9190611993565b610756919061193d565b6107609190611a33565b905060008f8b8360405160240161077993929190611a8d565b6040516020818303038152906040527fb3d76188000000000000000000000000000000000000000000000000000000007bffffffffffffffffffffffffffffffffffffffffffffffffffffffff19166020820180517bffffffffffffffffffffffffffffffffffffffffffffffffffffffff8381831617835250505050905060008c73ffffffffffffffffffffffffffffffffffffffff1661ea60836040516108229190611b3e565b60006040518083038160008787f1925050503d8060008114610860576040519150601f19603f3d011682016040523d82523d6000602084013e610865565b606091505b50509050806108a9576040517f08c379a00000000000000000000000000000000000000000000000000000000081526004016108a090611ba1565b60405180910390fd5b5050505b5050505050505050505050505050565b60003388886040516020016108d4939291906116d1565b6040516020818303038152906040528051906020012090506000806000838152602001908152602001600020600101601f9054906101000a900460ff1660ff1614610954576040517f08c379a000000000000000000000000000000000000000000000000000000000815260040161094b90611c0d565b60405180910390fd5b60018260ff161480610969575060028260ff16145b6109a8576040517f08c379a000000000000000000000000000000000000000000000000000000000815260040161099f90611c79565b60405180910390fd5b600073ffffffffffffffffffffffffffffffffffffffff168873ffffffffffffffffffffffffffffffffffffffff1614610a71578773ffffffffffffffffffffffffffffffffffffffff166323b872dd3330896040518463ffffffff1660e01b8152600401610a1993929190611a8d565b602060405180830381600087803b158015610a3357600080fd5b505af1158015610a47573d6000803e3d6000fd5b505050506040513d601f19601f82011682018060405250810190610a6b9190611cd1565b50610ab4565b853414610ab3576040517f08c379a0000000000000000000000000000000000000000000000000000000008152600401610aaa90611d4a565b60405180910390fd5b5b6040518060a001604052808781526020018673ffffffffffffffffffffffffffffffffffffffff1681526020018567ffffffffffffffff1681526020018462ffffff1681526020018360ff168152506000808381526020019081526020016000206000820151816000015560208201518160010160006101000a81548173ffffffffffffffffffffffffffffffffffffffff021916908373ffffffffffffffffffffffffffffffffffffffff16021790555060408201518160010160146101000a81548167ffffffffffffffff021916908367ffffffffffffffff160217905550606082015181600101601c6101000a81548162ffffff021916908362ffffff160217905550608082015181600101601f6101000a81548160ff021916908360ff160217905550905050807f57d51248de5a34628f58d65f6e38ad6e745b07ac70b0ca98100e5f740108c1a8338a8a8a88604051610c16959493929190611db5565b60405180910390a25050505050505050565b600073ffffffffffffffffffffffffffffffffffffffff168373ffffffffffffffffffffffffffffffffffffffff161415610c6c57610c678282610e39565b610cfb565b8273ffffffffffffffffffffffffffffffffffffffff1663a9059cbb83836040518363ffffffff1660e01b8152600401610ca7929190611a0a565b602060405180830381600087803b158015610cc157600080fd5b505af1158015610cd5573d6000803e3d6000fd5b505050506040513d601f19601f82011682018060405250810190610cf99190611cd1565b505b505050565b600081604051602001610d139190611e80565b604051602081830303815290604052805190602001209050919050565b6000806000610d3f8585610f2d565b91509150610d4c81610f7f565b819250505092915050565b60006001826060015162ffffff161415610d775781600001519050610e25565b6001826080015160ff161415610da757816060015162ffffff168260000151610da09190611ed5565b9050610e24565b6002826080015160ff161415610e23576000834442604051602001610dce93929190611f06565b6040516020818303038152906040528051906020012060001c905060006002846060015162ffffff168560000151610e069190611ed5565b610e109190611a33565b90508082610e1e9190611f3d565b925050505b5b5b6000811415610e3357600190505b92915050565b80471015610e7c576040517f08c379a0000000000000000000000000000000000000000000000000000000008152600401610e7390611fba565b60405180910390fd5b60008273ffffffffffffffffffffffffffffffffffffffff1682604051610ea290612000565b60006040518083038185875af1925050503d8060008114610edf576040519150601f19603f3d011682016040523d82523d6000602084013e610ee4565b606091505b5050905080610f28576040517f08c379a0000000000000000000000000000000000000000000000000000000008152600401610f1f90612087565b60405180910390fd5b505050565b600080604183511415610f6f5760008060006020860151925060408601519150606086015160001a9050610f63878285856110ed565b94509450505050610f78565b60006002915091505b9250929050565b60006004811115610f9357610f926120a7565b5b816004811115610fa657610fa56120a7565b5b1415610fb1576110ea565b60016004811115610fc557610fc46120a7565b5b816004811115610fd857610fd76120a7565b5b1415611019576040517f08c379a000000000000000000000000000000000000000000000000000000000815260040161101090612122565b60405180910390fd5b6002600481111561102d5761102c6120a7565b5b8160048111156110405761103f6120a7565b5b1415611081576040517f08c379a00000000000000000000000000000000000000000000000000000000081526004016110789061218e565b60405180910390fd5b60036004811115611095576110946120a7565b5b8160048111156110a8576110a76120a7565b5b14156110e9576040517f08c379a00000000000000000000000000000000000000000000000000000000081526004016110e090612220565b60405180910390fd5b5b50565b6000807f7fffffffffffffffffffffffffffffff5d576e7357a4501ddfe92f46681b20a08360001c11156111285760006003915091506111c7565b60006001878787876040516000815260200160405260405161114d949392919061224f565b6020604051602081039080840390855afa15801561116f573d6000803e3d6000fd5b505050602060405103519050600073ffffffffffffffffffffffffffffffffffffffff168173ffffffffffffffffffffffffffffffffffffffff1614156111be576000600192509250506111c7565b80600092509250505b94509492505050565b6040518060a0016040528060008152602001600073ffffffffffffffffffffffffffffffffffffffff168152602001600067ffffffffffffffff168152602001600062ffffff168152602001600060ff1681525090565b600080fd5b600080fd5b600073ffffffffffffffffffffffffffffffffffffffff82169050919050565b600061125c82611231565b9050919050565b61126c81611251565b811461127757600080fd5b50565b60008135905061128981611263565b92915050565b6000819050919050565b6112a28161128f565b81146112ad57600080fd5b50565b6000813590506112bf81611299565b92915050565b600080604083850312156112dc576112db611227565b5b60006112ea8582860161127a565b92505060206112fb858286016112b0565b9150509250929050565b60006020828403121561131b5761131a611227565b5b6000611329848285016112b0565b91505092915050565b6000819050919050565b61134581611332565b82525050565b61135481611251565b82525050565b600067ffffffffffffffff82169050919050565b6113778161135a565b82525050565b600062ffffff82169050919050565b6113958161137d565b82525050565b600060ff82169050919050565b6113b18161139b565b82525050565b60a0820160008201516113cd600085018261133c565b5060208201516113e0602085018261134b565b5060408201516113f3604085018261136e565b506060820151611406606085018261138c565b50608082015161141960808501826113a8565b50505050565b600060a08201905061143460008301846113b7565b92915050565b600080fd5b600080fd5b600080fd5b60008083601f84011261145f5761145e61143a565b5b8235905067ffffffffffffffff81111561147c5761147b61143f565b5b60208301915083600182028301111561149857611497611444565b5b9250929050565b60008060008060008060008060e0898b0312156114bf576114be611227565b5b60006114cd8b828c0161127a565b98505060206114de8b828c0161127a565b97505060406114ef8b828c016112b0565b96505060606115008b828c0161127a565b95505060806115118b828c0161127a565b94505060a06115228b828c0161127a565b93505060c089013567ffffffffffffffff8111156115435761154261122c565b5b61154f8b828c01611449565b92509250509295985092959890939650565b61156a81611332565b811461157557600080fd5b50565b60008135905061158781611561565b92915050565b6115968161135a565b81146115a157600080fd5b50565b6000813590506115b38161158d565b92915050565b6115c28161137d565b81146115cd57600080fd5b50565b6000813590506115df816115b9565b92915050565b6115ee8161139b565b81146115f957600080fd5b50565b60008135905061160b816115e5565b92915050565b600080600080600080600060e0888a0312156116305761162f611227565b5b600061163e8a828b0161127a565b975050602061164f8a828b016112b0565b96505060406116608a828b01611578565b95505060606116718a828b0161127a565b94505060806116828a828b016115a4565b93505060a06116938a828b016115d0565b92505060c06116a48a828b016115fc565b91505092959891949750929550565b6116bc81611251565b82525050565b6116cb8161128f565b82525050565b60006060820190506116e660008301866116b3565b6116f360208301856116b3565b61170060408301846116c2565b949350505050565b600082825260208201905092915050565b7f456d707479205061636b65740000000000000000000000000000000000000000600082015250565b600061174f600c83611708565b915061175a82611719565b602082019050919050565b6000602082019050818103600083015261177e81611742565b9050919050565b7f5061636b65742045787069726564000000000000000000000000000000000000600082015250565b60006117bb600e83611708565b91506117c682611785565b602082019050919050565b600060208201905081810360008301526117ea816117ae565b9050919050565b7f416c726561647920636c61696d65640000000000000000000000000000000000600082015250565b6000611827600f83611708565b9150611832826117f1565b602082019050919050565b600060208201905081810360008301526118568161181a565b9050919050565b600060808201905061187260008301876116c2565b61187f60208301866116b3565b61188c60408301856116b3565b61189960608301846116b3565b95945050505050565b7f496e76616c6964207369676e6174757265000000000000000000000000000000600082015250565b60006118d8601183611708565b91506118e3826118a2565b602082019050919050565b60006020820190508181036000830152611907816118cb565b9050919050565b7f4e487b7100000000000000000000000000000000000000000000000000000000600052601160045260246000fd5b600061194882611332565b915061195383611332565b9250827fffffffffffffffffffffffffffffffffffffffffffffffffffffffffffffffff038211156119885761198761190e565b5b828201905092915050565b600061199e82611332565b91506119a983611332565b9250828210156119bc576119bb61190e565b5b828203905092915050565b60006119d28261137d565b91506119dd8361137d565b9250828210156119f0576119ef61190e565b5b828203905092915050565b611a0481611332565b82525050565b6000604082019050611a1f60008301856116b3565b611a2c60208301846119fb565b9392505050565b6000611a3e82611332565b9150611a4983611332565b9250817fffffffffffffffffffffffffffffffffffffffffffffffffffffffffffffffff0483118215151615611a8257611a8161190e565b5b828202905092915050565b6000606082019050611aa260008301866116b3565b611aaf60208301856116b3565b611abc60408301846119fb565b949350505050565b600081519050919050565b600081905092915050565b60005b83811015611af8578082015181840152602081019050611add565b83811115611b07576000848401525b50505050565b6000611b1882611ac4565b611b228185611acf565b9350611b32818560208601611ada565b80840191505092915050565b6000611b4a8284611b0d565b915081905092915050565b7f4661696c656420746f2070617920676173000000000000000000000000000000600082015250565b6000611b8b601183611708565b9150611b9682611b55565b602082019050919050565b60006020820190508181036000830152611bba81611b7e565b9050919050565b7f5061636b657420616c7265616479206578697374730000000000000000000000600082015250565b6000611bf7601583611708565b9150611c0282611bc1565b602082019050919050565b60006020820190508181036000830152611c2681611bea565b9050919050565b7f496e76616c6964206d6f64650000000000000000000000000000000000000000600082015250565b6000611c63600c83611708565b9150611c6e82611c2d565b602082019050919050565b60006020820190508181036000830152611c9281611c56565b9050919050565b60008115159050919050565b611cae81611c99565b8114611cb957600080fd5b50565b600081519050611ccb81611ca5565b92915050565b600060208284031215611ce757611ce6611227565b5b6000611cf584828501611cbc565b91505092915050565b7f5061636b65742076616c7565206d69736d617463680000000000000000000000600082015250565b6000611d34601583611708565b9150611d3f82611cfe565b602082019050919050565b60006020820190508181036000830152611d6381611d27565b9050919050565b600063ffffffff82169050919050565b6000819050919050565b6000611d9f611d9a611d958461137d565b611d7a565b611d6a565b9050919050565b611daf81611d84565b82525050565b600060a082019050611dca60008301886116b3565b611dd760208301876116b3565b611de460408301866116c2565b611df160608301856119fb565b611dfe6080830184611da6565b9695505050505050565b600081905092915050565b7f19457468657265756d205369676e6564204d6573736167653a0a333200000000600082015250565b6000611e49601c83611e08565b9150611e5482611e13565b601c82019050919050565b6000819050919050565b611e7a611e758261128f565b611e5f565b82525050565b6000611e8b82611e3c565b9150611e978284611e69565b60208201915081905092915050565b7f4e487b7100000000000000000000000000000000000000000000000000000000600052601260045260246000fd5b6000611ee082611332565b9150611eeb83611332565b925082611efb57611efa611ea6565b5b828204905092915050565b6000606082019050611f1b60008301866116b3565b611f2860208301856119fb565b611f3560408301846119fb565b949350505050565b6000611f4882611332565b9150611f5383611332565b925082611f6357611f62611ea6565b5b828206905092915050565b7f416464726573733a20696e73756666696369656e742062616c616e6365000000600082015250565b6000611fa4601d83611708565b9150611faf82611f6e565b602082019050919050565b60006020820190508181036000830152611fd381611f97565b9050919050565b50565b6000611fea600083611acf565b9150611ff582611fda565b600082019050919050565b600061200b82611fdd565b9150819050919050565b7f416464726573733a20756e61626c6520746f2073656e642076616c75652c207260008201527f6563697069656e74206d61792068617665207265766572746564000000000000602082015250565b6000612071603a83611708565b915061207c82612015565b604082019050919050565b600060208201905081810360008301526120a081612064565b9050919050565b7f4e487b7100000000000000000000000000000000000000000000000000000000600052602160045260246000fd5b7f45434453413a20696e76616c6964207369676e61747572650000000000000000600082015250565b600061210c601883611708565b9150612117826120d6565b602082019050919050565b6000602082019050818103600083015261213b816120ff565b9050919050565b7f45434453413a20696e76616c6964207369676e6174757265206c656e67746800600082015250565b6000612178601f83611708565b915061218382612142565b602082019050919050565b600060208201905081810360008301526121a78161216b565b9050919050565b7f45434453413a20696e76616c6964207369676e6174757265202773272076616c60008201527f7565000000000000000000000000000000000000000000000000000000000000602082015250565b600061220a602283611708565b9150612215826121ae565b604082019050919050565b60006020820190508181036000830152612239816121fd565b9050919050565b6122498161139b565b82525050565b600060808201905061226460008301876116c2565b6122716020830186612240565b61227e60408301856116c2565b61228b60608301846116c2565b9594505050505056fea2646970667358221220a3d7c76479c2b76eddc8363375d905e30379ae1e6c377a3031439c55bd97a5eb64736f6c63430008080033",
  "devdoc": {
    "kind": "dev",
    "methods": {},
    "version": 1
  },
  "userdoc": {
    "kind": "user",
    "methods": {},
    "version": 1
  },
  "storageLayout": {
    "storage": [
      {
        "astId": 4533,
        "contract": "contracts/apps/RedPacket.sol:RedPacket",
        "label": "packets_",
        "offset": 0,
        "slot": "0",
        "type": "t_mapping(t_bytes32,t_struct(Packet)4528_storage)"
      },
      {
        "astId": 4539,
        "contract": "contracts/apps/RedPacket.sol:RedPacket",
        "label": "count_",
        "offset": 0,
        "slot": "1",
        "type": "t_mapping(t_bytes32,t_mapping(t_address,t_uint256))"
      }
    ],
    "types": {
      "t_address": {
        "encoding": "inplace",
        "label": "address",
        "numberOfBytes": "20"
      },
      "t_bytes32": {
        "encoding": "inplace",
        "label": "bytes32",
        "numberOfBytes": "32"
      },
      "t_mapping(t_address,t_uint256)": {
        "encoding": "mapping",
        "key": "t_address",
        "label": "mapping(address => uint256)",
        "numberOfBytes": "32",
        "value": "t_uint256"
      },
      "t_mapping(t_bytes32,t_mapping(t_address,t_uint256))": {
        "encoding": "mapping",
        "key": "t_bytes32",
        "label": "mapping(bytes32 => mapping(address => uint256))",
        "numberOfBytes": "32",
        "value": "t_mapping(t_address,t_uint256)"
      },
      "t_mapping(t_bytes32,t_struct(Packet)4528_storage)": {
        "encoding": "mapping",
        "key": "t_bytes32",
        "label": "mapping(bytes32 => struct RedPacket.Packet)",
        "numberOfBytes": "32",
        "value": "t_struct(Packet)4528_storage"
      },
      "t_struct(Packet)4528_storage": {
        "encoding": "inplace",
        "label": "struct RedPacket.Packet",
        "members": [
          {
            "astId": 4519,
            "contract": "contracts/apps/RedPacket.sol:RedPacket",
            "label": "balance",
            "offset": 0,
            "slot": "0",
            "type": "t_uint256"
          },
          {
            "astId": 4521,
            "contract": "contracts/apps/RedPacket.sol:RedPacket",
            "label": "validator",
            "offset": 0,
            "slot": "1",
            "type": "t_address"
          },
          {
            "astId": 4523,
            "contract": "contracts/apps/RedPacket.sol:RedPacket",
            "label": "expiredAt",
            "offset": 20,
            "slot": "1",
            "type": "t_uint64"
          },
          {
            "astId": 4525,
            "contract": "contracts/apps/RedPacket.sol:RedPacket",
            "label": "split",
            "offset": 28,
            "slot": "1",
            "type": "t_uint24"
          },
          {
            "astId": 4527,
            "contract": "contracts/apps/RedPacket.sol:RedPacket",
            "label": "mode",
            "offset": 31,
            "slot": "1",
            "type": "t_uint8"
          }
        ],
        "numberOfBytes": "64"
      },
      "t_uint24": {
        "encoding": "inplace",
        "label": "uint24",
        "numberOfBytes": "3"
      },
      "t_uint256": {
        "encoding": "inplace",
        "label": "uint256",
        "numberOfBytes": "32"
      },
      "t_uint64": {
        "encoding": "inplace",
        "label": "uint64",
        "numberOfBytes": "8"
      },
      "t_uint8": {
        "encoding": "inplace",
        "label": "uint8",
        "numberOfBytes": "1"
      }
    }
  }
}