{
  "address": "0x36CD7c3980ecbc888779803373D6B132434738bc",
  "abi": [
    {
      "inputs": [
        {
          "internalType": "address",
          "name": "owner",
          "type": "address"
        }
      ],
      "stateMutability": "nonpayable",
      "type": "constructor"
    },
    {
      "inputs": [],
      "name": "Ownable__NotOwner",
      "type": "error"
    },
    {
      "inputs": [],
      "name": "Ownable__NotTransitiveOwner",
      "type": "error"
    },
    {
      "anonymous": false,
      "inputs": [
        {
          "indexed": true,
          "internalType": "address",
          "name": "cloned",
          "type": "address"
        }
      ],
      "name": "Clone",
      "type": "event"
    },
    {
      "anonymous": false,
      "inputs": [
        {
          "indexed": true,
          "internalType": "address",
          "name": "previousOwner",
          "type": "address"
        },
        {
          "indexed": true,
          "internalType": "address",
          "name": "newOwner",
          "type": "address"
        }
      ],
      "name": "OwnershipTransferred",
      "type": "event"
    },
    {
      "anonymous": false,
      "inputs": [
        {
          "indexed": true,
          "internalType": "address",
          "name": "validator",
          "type": "address"
        },
        {
          "indexed": false,
          "internalType": "bool",
          "name": "registered",
          "type": "bool"
        }
      ],
      "name": "Register",
      "type": "event"
    },
    {
      "anonymous": false,
      "inputs": [
        {
          "indexed": true,
          "internalType": "address[]",
          "name": "validators",
          "type": "address[]"
        },
        {
          "indexed": false,
          "internalType": "bool[]",
          "name": "registered",
          "type": "bool[]"
        }
      ],
      "name": "RegisterBatch",
      "type": "event"
    },
    {
      "inputs": [
        {
          "internalType": "bytes32",
          "name": "salt",
          "type": "bytes32"
        },
        {
          "internalType": "address",
          "name": "owner",
          "type": "address"
        }
      ],
      "name": "clone",
      "outputs": [],
      "stateMutability": "nonpayable",
      "type": "function"
    },
    {
      "inputs": [
        {
          "internalType": "address",
          "name": "owner",
          "type": "address"
        }
      ],
      "name": "init",
      "outputs": [],
      "stateMutability": "nonpayable",
      "type": "function"
    },
    {
      "inputs": [
        {
          "internalType": "address",
          "name": "validator",
          "type": "address"
        }
      ],
      "name": "isRegistered",
      "outputs": [
        {
          "internalType": "bool",
          "name": "",
          "type": "bool"
        }
      ],
      "stateMutability": "view",
      "type": "function"
    },
    {
      "inputs": [
        {
          "internalType": "bytes32",
          "name": "message",
          "type": "bytes32"
        },
        {
          "internalType": "bytes",
          "name": "signature",
          "type": "bytes"
        }
      ],
      "name": "isValidSignature",
      "outputs": [
        {
          "internalType": "bytes4",
          "name": "",
          "type": "bytes4"
        }
      ],
      "stateMutability": "view",
      "type": "function"
    },
    {
      "inputs": [],
      "name": "owner",
      "outputs": [
        {
          "internalType": "address",
          "name": "",
          "type": "address"
        }
      ],
      "stateMutability": "view",
      "type": "function"
    },
    {
      "inputs": [
        {
          "internalType": "address",
          "name": "validator",
          "type": "address"
        },
        {
          "internalType": "bool",
          "name": "registered",
          "type": "bool"
        }
      ],
      "name": "register",
      "outputs": [],
      "stateMutability": "nonpayable",
      "type": "function"
    },
    {
      "inputs": [
        {
          "internalType": "address[]",
          "name": "validators",
          "type": "address[]"
        },
        {
          "internalType": "bool[]",
          "name": "registered",
          "type": "bool[]"
        }
      ],
      "name": "registerBatch",
      "outputs": [],
      "stateMutability": "nonpayable",
      "type": "function"
    },
    {
      "inputs": [
        {
          "internalType": "address",
          "name": "account",
          "type": "address"
        }
      ],
      "name": "transferOwnership",
      "outputs": [],
      "stateMutability": "nonpayable",
      "type": "function"
    }
  ],
  "transactionHash": "0xf5c625e1d4d365a22582143b4c3f0fa70971837ab0de15313dc665d58741c0d9",
  "args": [
    "0xCe0bEb96BF68452d28A401C9624e98B158c9d14f"
  ],
  "numDeployments": 1,
  "solcInputHash": "d605b3233dbceb074500e7397f2861e1",
  "bytecode": "0x60806040523480156200001157600080fd5b5060405162001d3c38038062001d3c8339818101604052810190620000379190620001d8565b62000048816200004f60201b60201c565b506200020a565b62000060816200006360201b60201c565b50565b60006200007a6200014160201b620006e11760201c565b90508173ffffffffffffffffffffffffffffffffffffffff168160000160009054906101000a900473ffffffffffffffffffffffffffffffffffffffff1673ffffffffffffffffffffffffffffffffffffffff167f8be0079c531659141344cd1fd0a4f28419497f9722a3daafe3b4186f6b6457e060405160405180910390a3818160000160006101000a81548173ffffffffffffffffffffffffffffffffffffffff021916908373ffffffffffffffffffffffffffffffffffffffff1602179055505050565b6000807f8a22373512790c48b83a1fe2efdd2888d4a917bcdc24d0adf63e60f67168046090508091505090565b600080fd5b600073ffffffffffffffffffffffffffffffffffffffff82169050919050565b6000620001a08262000173565b9050919050565b620001b28162000193565b8114620001be57600080fd5b50565b600081519050620001d281620001a7565b92915050565b600060208284031215620001f157620001f06200016e565b5b60006200020184828501620001c1565b91505092915050565b611b22806200021a6000396000f3fe608060405234801561001057600080fd5b50600436106100885760003560e01c8063c3c5a5471161005b578063c3c5a54714610113578063c86564b114610143578063e87ee4ed1461015f578063f2fde38b1461017b57610088565b80631626ba7e1461008d57806319ab453c146100bd5780638da5cb5b146100d9578063ab01b469146100f7575b600080fd5b6100a760048036038101906100a29190610e2f565b610197565b6040516100b49190610ec6565b60405180910390f35b6100d760048036038101906100d29190610f3f565b6102df565b005b6100e1610361565b6040516100ee9190610f7b565b60405180910390f35b610111600480360381019061010c9190610fce565b610370565b005b61012d60048036038101906101289190610f3f565b610438565b60405161013a919061101d565b60405180910390f35b61015d60048036038101906101589190611038565b61048d565b005b61017960048036038101906101749190611203565b61054e565b005b61019560048036038101906101909190610f3f565b610669565b005b6000806000838060200190518101906101b0919061135c565b915091506000808373ffffffffffffffffffffffffffffffffffffffff1673ffffffffffffffffffffffffffffffffffffffff16815260200190815260200160002060009054906101000a900460ff1661023f576040517f08c379a000000000000000000000000000000000000000000000000000000000815260040161023690611415565b60405180910390fd5b600061024a8661070e565b905061025f828261073e90919063ffffffff16565b73ffffffffffffffffffffffffffffffffffffffff168373ffffffffffffffffffffffffffffffffffffffff16146102cc576040517f08c379a00000000000000000000000000000000000000000000000000000000081526004016102c390611481565b60405180910390fd5b631626ba7e60e01b935050505092915050565b600073ffffffffffffffffffffffffffffffffffffffff166102ff610765565b73ffffffffffffffffffffffffffffffffffffffff1614610355576040517f08c379a000000000000000000000000000000000000000000000000000000000815260040161034c906114ed565b60405180910390fd5b61035e81610798565b50565b600061036b610765565b905090565b610378610765565b73ffffffffffffffffffffffffffffffffffffffff163373ffffffffffffffffffffffffffffffffffffffff16146103dc576040517f2f7a8ee100000000000000000000000000000000000000000000000000000000815260040160405180910390fd5b6103e682826107a4565b8173ffffffffffffffffffffffffffffffffffffffff167fe5893cbe0f29b1ed4010af79004fcf5b6bdf713a7ccdc0b9e475e64ce2283df68260405161042c919061101d565b60405180910390a25050565b60008060008373ffffffffffffffffffffffffffffffffffffffff1673ffffffffffffffffffffffffffffffffffffffff16815260200190815260200160002060009054906101000a900460ff169050919050565b6000610499308461086e565b90508073ffffffffffffffffffffffffffffffffffffffff166319ab453c836040518263ffffffff1660e01b81526004016104d49190610f7b565b600060405180830381600087803b1580156104ee57600080fd5b505af1158015610502573d6000803e3d6000fd5b505050508073ffffffffffffffffffffffffffffffffffffffff167fba3a08245a874f4f0f86bdd3141d9d8c718cfda4fd6c4c5598e9d824ec4b723e60405160405180910390a2505050565b610556610765565b73ffffffffffffffffffffffffffffffffffffffff163373ffffffffffffffffffffffffffffffffffffffff16146105ba576040517f2f7a8ee100000000000000000000000000000000000000000000000000000000815260040160405180910390fd5b60005b8251811015610617576106048382815181106105dc576105db61150d565b5b60200260200101518383815181106105f7576105f661150d565b5b60200260200101516107a4565b808061060f90611575565b9150506105bd565b50816040516106269190611676565b60405180910390207fbc651853d80923bed316daad32ad71d5ca50f4e1e33d9305b7b67b4d72cc32ea8260405161065d919061174b565b60405180910390a25050565b610671610765565b73ffffffffffffffffffffffffffffffffffffffff163373ffffffffffffffffffffffffffffffffffffffff16146106d5576040517f2f7a8ee100000000000000000000000000000000000000000000000000000000815260040160405180910390fd5b6106de81610798565b50565b6000807f8a22373512790c48b83a1fe2efdd2888d4a917bcdc24d0adf63e60f67168046090508091505090565b60008160405160200161072191906117e5565b604051602081830303815290604052805190602001209050919050565b600080600061074d858561092b565b9150915061075a8161097d565b819250505092915050565b600061076f6106e1565b60000160009054906101000a900473ffffffffffffffffffffffffffffffffffffffff16905090565b6107a181610aeb565b50565b600073ffffffffffffffffffffffffffffffffffffffff168273ffffffffffffffffffffffffffffffffffffffff161415610814576040517f08c379a000000000000000000000000000000000000000000000000000000000815260040161080b90611857565b60405180910390fd5b806000808473ffffffffffffffffffffffffffffffffffffffff1673ffffffffffffffffffffffffffffffffffffffff16815260200190815260200160002060006101000a81548160ff0219169083151502179055505050565b6000763d602d80600a3d3981f3363d3d373d3d3d363d730000008360601b60e81c176000526e5af43d82803e903d91602b57fd5bf38360781b1760205281603760096000f59050600073ffffffffffffffffffffffffffffffffffffffff168173ffffffffffffffffffffffffffffffffffffffff161415610925576040517f08c379a000000000000000000000000000000000000000000000000000000000815260040161091c906118c3565b60405180910390fd5b92915050565b60008060418351141561096d5760008060006020860151925060408601519150606086015160001a905061096187828585610bbc565b94509450505050610976565b60006002915091505b9250929050565b60006004811115610991576109906118e3565b5b8160048111156109a4576109a36118e3565b5b14156109af57610ae8565b600160048111156109c3576109c26118e3565b5b8160048111156109d6576109d56118e3565b5b1415610a17576040517f08c379a0000000000000000000000000000000000000000000000000000000008152600401610a0e9061195e565b60405180910390fd5b60026004811115610a2b57610a2a6118e3565b5b816004811115610a3e57610a3d6118e3565b5b1415610a7f576040517f08c379a0000000000000000000000000000000000000000000000000000000008152600401610a76906119ca565b60405180910390fd5b60036004811115610a9357610a926118e3565b5b816004811115610aa657610aa56118e3565b5b1415610ae7576040517f08c379a0000000000000000000000000000000000000000000000000000000008152600401610ade90611a5c565b60405180910390fd5b5b50565b6000610af56106e1565b90508173ffffffffffffffffffffffffffffffffffffffff168160000160009054906101000a900473ffffffffffffffffffffffffffffffffffffffff1673ffffffffffffffffffffffffffffffffffffffff167f8be0079c531659141344cd1fd0a4f28419497f9722a3daafe3b4186f6b6457e060405160405180910390a3818160000160006101000a81548173ffffffffffffffffffffffffffffffffffffffff021916908373ffffffffffffffffffffffffffffffffffffffff1602179055505050565b6000807f7fffffffffffffffffffffffffffffff5d576e7357a4501ddfe92f46681b20a08360001c1115610bf7576000600391509150610c96565b600060018787878760405160008152602001604052604051610c1c9493929190611aa7565b6020604051602081039080840390855afa158015610c3e573d6000803e3d6000fd5b505050602060405103519050600073ffffffffffffffffffffffffffffffffffffffff168173ffffffffffffffffffffffffffffffffffffffff161415610c8d57600060019250925050610c96565b80600092509250505b94509492505050565b6000604051905090565b600080fd5b600080fd5b6000819050919050565b610cc681610cb3565b8114610cd157600080fd5b50565b600081359050610ce381610cbd565b92915050565b600080fd5b600080fd5b6000601f19601f8301169050919050565b7f4e487b7100000000000000000000000000000000000000000000000000000000600052604160045260246000fd5b610d3c82610cf3565b810181811067ffffffffffffffff82111715610d5b57610d5a610d04565b5b80604052505050565b6000610d6e610c9f565b9050610d7a8282610d33565b919050565b600067ffffffffffffffff821115610d9a57610d99610d04565b5b610da382610cf3565b9050602081019050919050565b82818337600083830152505050565b6000610dd2610dcd84610d7f565b610d64565b905082815260208101848484011115610dee57610ded610cee565b5b610df9848285610db0565b509392505050565b600082601f830112610e1657610e15610ce9565b5b8135610e26848260208601610dbf565b91505092915050565b60008060408385031215610e4657610e45610ca9565b5b6000610e5485828601610cd4565b925050602083013567ffffffffffffffff811115610e7557610e74610cae565b5b610e8185828601610e01565b9150509250929050565b60007fffffffff0000000000000000000000000000000000000000000000000000000082169050919050565b610ec081610e8b565b82525050565b6000602082019050610edb6000830184610eb7565b92915050565b600073ffffffffffffffffffffffffffffffffffffffff82169050919050565b6000610f0c82610ee1565b9050919050565b610f1c81610f01565b8114610f2757600080fd5b50565b600081359050610f3981610f13565b92915050565b600060208284031215610f5557610f54610ca9565b5b6000610f6384828501610f2a565b91505092915050565b610f7581610f01565b82525050565b6000602082019050610f906000830184610f6c565b92915050565b60008115159050919050565b610fab81610f96565b8114610fb657600080fd5b50565b600081359050610fc881610fa2565b92915050565b60008060408385031215610fe557610fe4610ca9565b5b6000610ff385828601610f2a565b925050602061100485828601610fb9565b9150509250929050565b61101781610f96565b82525050565b6000602082019050611032600083018461100e565b92915050565b6000806040838503121561104f5761104e610ca9565b5b600061105d85828601610cd4565b925050602061106e85828601610f2a565b9150509250929050565b600067ffffffffffffffff82111561109357611092610d04565b5b602082029050602081019050919050565b600080fd5b60006110bc6110b784611078565b610d64565b905080838252602082019050602084028301858111156110df576110de6110a4565b5b835b8181101561110857806110f48882610f2a565b8452602084019350506020810190506110e1565b5050509392505050565b600082601f83011261112757611126610ce9565b5b81356111378482602086016110a9565b91505092915050565b600067ffffffffffffffff82111561115b5761115a610d04565b5b602082029050602081019050919050565b600061117f61117a84611140565b610d64565b905080838252602082019050602084028301858111156111a2576111a16110a4565b5b835b818110156111cb57806111b78882610fb9565b8452602084019350506020810190506111a4565b5050509392505050565b600082601f8301126111ea576111e9610ce9565b5b81356111fa84826020860161116c565b91505092915050565b6000806040838503121561121a57611219610ca9565b5b600083013567ffffffffffffffff81111561123857611237610cae565b5b61124485828601611112565b925050602083013567ffffffffffffffff81111561126557611264610cae565b5b611271858286016111d5565b9150509250929050565b600061128682610ee1565b9050919050565b6112968161127b565b81146112a157600080fd5b50565b6000815190506112b38161128d565b92915050565b60005b838110156112d75780820151818401526020810190506112bc565b838111156112e6576000848401525b50505050565b60006112ff6112fa84610d7f565b610d64565b90508281526020810184848401111561131b5761131a610cee565b5b6113268482856112b9565b509392505050565b600082601f83011261134357611342610ce9565b5b81516113538482602086016112ec565b91505092915050565b6000806040838503121561137357611372610ca9565b5b6000611381858286016112a4565b925050602083015167ffffffffffffffff8111156113a2576113a1610cae565b5b6113ae8582860161132e565b9150509250929050565b600082825260208201905092915050565b7f494f303032000000000000000000000000000000000000000000000000000000600082015250565b60006113ff6005836113b8565b915061140a826113c9565b602082019050919050565b6000602082019050818103600083015261142e816113f2565b9050919050565b7f494f303033000000000000000000000000000000000000000000000000000000600082015250565b600061146b6005836113b8565b915061147682611435565b602082019050919050565b6000602082019050818103600083015261149a8161145e565b9050919050565b7f4845584c30313500000000000000000000000000000000000000000000000000600082015250565b60006114d76007836113b8565b91506114e2826114a1565b602082019050919050565b60006020820190508181036000830152611506816114ca565b9050919050565b7f4e487b7100000000000000000000000000000000000000000000000000000000600052603260045260246000fd5b7f4e487b7100000000000000000000000000000000000000000000000000000000600052601160045260246000fd5b6000819050919050565b60006115808261156b565b91507fffffffffffffffffffffffffffffffffffffffffffffffffffffffffffffffff8214156115b3576115b261153c565b5b600182019050919050565b600081519050919050565b600081905092915050565b6000819050602082019050919050565b6115ed81610f01565b82525050565b60006115ff83836115e4565b60208301905092915050565b6000602082019050919050565b6000611623826115be565b61162d81856115c9565b9350611638836115d4565b8060005b8381101561166957815161165088826115f3565b975061165b8361160b565b92505060018101905061163c565b5085935050505092915050565b60006116828284611618565b915081905092915050565b600081519050919050565b600082825260208201905092915050565b6000819050602082019050919050565b6116c281610f96565b82525050565b60006116d483836116b9565b60208301905092915050565b6000602082019050919050565b60006116f88261168d565b6117028185611698565b935061170d836116a9565b8060005b8381101561173e57815161172588826116c8565b9750611730836116e0565b925050600181019050611711565b5085935050505092915050565b6000602082019050818103600083015261176581846116ed565b905092915050565b600081905092915050565b7f19457468657265756d205369676e6564204d6573736167653a0a333200000000600082015250565b60006117ae601c8361176d565b91506117b982611778565b601c82019050919050565b6000819050919050565b6117df6117da82610cb3565b6117c4565b82525050565b60006117f0826117a1565b91506117fc82846117ce565b60208201915081905092915050565b7f494f303031000000000000000000000000000000000000000000000000000000600082015250565b60006118416005836113b8565b915061184c8261180b565b602082019050919050565b6000602082019050818103600083015261187081611834565b9050919050565b7f455243313136373a2063726561746532206661696c6564000000000000000000600082015250565b60006118ad6017836113b8565b91506118b882611877565b602082019050919050565b600060208201905081810360008301526118dc816118a0565b9050919050565b7f4e487b7100000000000000000000000000000000000000000000000000000000600052602160045260246000fd5b7f45434453413a20696e76616c6964207369676e61747572650000000000000000600082015250565b60006119486018836113b8565b915061195382611912565b602082019050919050565b600060208201905081810360008301526119778161193b565b9050919050565b7f45434453413a20696e76616c6964207369676e6174757265206c656e67746800600082015250565b60006119b4601f836113b8565b91506119bf8261197e565b602082019050919050565b600060208201905081810360008301526119e3816119a7565b9050919050565b7f45434453413a20696e76616c6964207369676e6174757265202773272076616c60008201527f7565000000000000000000000000000000000000000000000000000000000000602082015250565b6000611a466022836113b8565b9150611a51826119ea565b604082019050919050565b60006020820190508181036000830152611a7581611a39565b9050919050565b611a8581610cb3565b82525050565b600060ff82169050919050565b611aa181611a8b565b82525050565b6000608082019050611abc6000830187611a7c565b611ac96020830186611a98565b611ad66040830185611a7c565b611ae36060830184611a7c565b9594505050505056fea264697066735822122081d7506d82adc8adb1af8d18e9c17ac96c02fb9b3ff20a183a8400efa57c043f64736f6c63430008080033",
  "devdoc": {
    "kind": "dev",
    "methods": {
      "owner()": {
        "returns": {
          "_0": "conrtact owner"
        }
      },
      "transferOwnership(address)": {
        "params": {
          "account": "address of new owner"
        }
      }
    },
    "version": 1
  },
  "userdoc": {
    "kind": "user",
    "methods": {
      "owner()": {
        "notice": "get the ERC173 contract owner"
      },
      "transferOwnership(address)": {
        "notice": "transfer contract ownership to new account"
      }
    },
    "version": 1
  },
  "storageLayout": {
    "storage": [
      {
        "astId": 4387,
        "contract": "contracts/auth/SimpleIdentityOracle.sol:SimpleIdentityOracle",
        "label": "validators_",
        "offset": 0,
        "slot": "0",
        "type": "t_mapping(t_address,t_bool)"
      }
    ],
    "types": {
      "t_address": {
        "encoding": "inplace",
        "label": "address",
        "numberOfBytes": "20"
      },
      "t_bool": {
        "encoding": "inplace",
        "label": "bool",
        "numberOfBytes": "1"
      },
      "t_mapping(t_address,t_bool)": {
        "encoding": "mapping",
        "key": "t_address",
        "label": "mapping(address => bool)",
        "numberOfBytes": "32",
        "value": "t_bool"
      }
    }
  }
}